{
  "_format": "hh-sol-artifact-1",
  "contractName": "FeedbackOracle",
  "sourceName": "contracts/FeedbackOracle.sol",
  "abi": [
    {
      "inputs": [
        {
          "internalType": "address",
          "name": "rewardToken_",
          "type": "address"
        },
        {
          "internalType": "address",
          "name": "pythContract_",
          "type": "address"
        },
        {
          "internalType": "bytes32",
          "name": "nativeTokenPriceFeedId_",
          "type": "bytes32"
        },
        {
          "internalType": "address",
          "name": "owner_",
          "type": "address"
        }
      ],
      "stateMutability": "nonpayable",
      "type": "constructor"
    },
    {
      "inputs": [],
      "name": "ArrayLengthMismatch",
      "type": "error"
    },
    {
      "inputs": [],
      "name": "BatchSizeExceeded",
      "type": "error"
    },
    {
      "inputs": [],
      "name": "ECDSAInvalidSignature",
      "type": "error"
    },
    {
      "inputs": [
        {
          "internalType": "uint256",
          "name": "length",
          "type": "uint256"
        }
      ],
      "name": "ECDSAInvalidSignatureLength",
      "type": "error"
    },
    {
      "inputs": [
        {
          "internalType": "bytes32",
          "name": "s",
          "type": "bytes32"
        }
      ],
      "name": "ECDSAInvalidSignatureS",
      "type": "error"
    },
    {
      "inputs": [],
      "name": "FeedbackAlreadyProcessed",
      "type": "error"
    },
    {
      "inputs": [],
      "name": "InsufficientContractBalance",
      "type": "error"
    },
    {
      "inputs": [],
      "name": "InvalidPriceFeed",
      "type": "error"
    },
    {
      "inputs": [],
      "name": "InvalidProof",
      "type": "error"
    },
    {
      "inputs": [],
      "name": "InvalidQualityRating",
      "type": "error"
    },
    {
      "inputs": [],
      "name": "InvalidSignature",
      "type": "error"
    },
    {
      "inputs": [],
      "name": "NativeTransferFailed",
      "type": "error"
    },
    {
      "inputs": [
        {
          "internalType": "address",
          "name": "owner",
          "type": "address"
        }
      ],
      "name": "OwnableInvalidOwner",
      "type": "error"
    },
    {
      "inputs": [
        {
          "internalType": "address",
          "name": "account",
          "type": "address"
        }
      ],
      "name": "OwnableUnauthorizedAccount",
      "type": "error"
    },
    {
      "inputs": [],
      "name": "PriceUpdateFailed",
      "type": "error"
    },
    {
      "inputs": [],
      "name": "RateLimitExceeded",
      "type": "error"
    },
    {
      "inputs": [],
      "name": "ReentrancyGuardReentrantCall",
      "type": "error"
    },
    {
      "inputs": [],
      "name": "UnauthorizedSigner",
      "type": "error"
    },
    {
      "anonymous": false,
      "inputs": [
        {
          "indexed": false,
          "internalType": "uint256",
          "name": "count",
          "type": "uint256"
        },
        {
          "indexed": false,
          "internalType": "uint256",
          "name": "totalRewardsUSD",
          "type": "uint256"
        },
        {
          "indexed": false,
          "internalType": "uint256",
          "name": "totalRewardsNative",
          "type": "uint256"
        }
      ],
      "name": "BatchFeedbackProcessed",
      "type": "event"
    },
    {
      "anonymous": false,
      "inputs": [
        {
          "indexed": true,
          "internalType": "address",
          "name": "user",
          "type": "address"
        },
        {
          "indexed": false,
          "internalType": "string",
          "name": "feedbackId",
          "type": "string"
        },
        {
          "indexed": false,
          "internalType": "uint8",
          "name": "qualityRating",
          "type": "uint8"
        },
        {
          "indexed": false,
          "internalType": "uint256",
          "name": "rewardAmountUSD",
          "type": "uint256"
        },
        {
          "indexed": false,
          "internalType": "uint256",
          "name": "rewardAmountNative",
          "type": "uint256"
        },
        {
          "indexed": false,
          "internalType": "bool",
          "name": "qualityBonus",
          "type": "bool"
        }
      ],
      "name": "FeedbackProcessed",
      "type": "event"
    },
    {
      "anonymous": false,
      "inputs": [
        {
          "indexed": true,
          "internalType": "address",
          "name": "user",
          "type": "address"
        },
        {
          "indexed": false,
          "internalType": "uint256",
          "name": "amount",
          "type": "uint256"
        }
      ],
      "name": "NativeRewardSent",
      "type": "event"
    },
    {
      "anonymous": false,
      "inputs": [
        {
          "indexed": true,
          "internalType": "address",
          "name": "previousOwner",
          "type": "address"
        },
        {
          "indexed": true,
          "internalType": "address",
          "name": "newOwner",
          "type": "address"
        }
      ],
      "name": "OwnershipTransferred",
      "type": "event"
    },
    {
      "anonymous": false,
      "inputs": [
        {
          "indexed": false,
          "internalType": "bytes32",
          "name": "oldFeedId",
          "type": "bytes32"
        },
        {
          "indexed": false,
          "internalType": "bytes32",
          "name": "newFeedId",
          "type": "bytes32"
        }
      ],
      "name": "PriceFeedUpdated",
      "type": "event"
    },
    {
      "anonymous": false,
      "inputs": [
        {
          "indexed": false,
          "internalType": "uint256",
          "name": "oldThreshold",
          "type": "uint256"
        },
        {
          "indexed": false,
          "internalType": "uint256",
          "name": "newThreshold",
          "type": "uint256"
        }
      ],
      "name": "QualityThresholdUpdated",
      "type": "event"
    },
    {
      "anonymous": false,
      "inputs": [
        {
          "indexed": true,
          "internalType": "address",
          "name": "signer",
          "type": "address"
        },
        {
          "indexed": false,
          "internalType": "bool",
          "name": "authorized",
          "type": "bool"
        }
      ],
      "name": "SignerAuthorized",
      "type": "event"
    },
    {
      "inputs": [],
      "name": "BASE_REWARD_USD_CENTS",
      "outputs": [
        {
          "internalType": "uint256",
          "name": "",
          "type": "uint256"
        }
      ],
      "stateMutability": "view",
      "type": "function"
    },
    {
      "inputs": [],
      "name": "MAX_BATCH_SIZE",
      "outputs": [
        {
          "internalType": "uint256",
          "name": "",
          "type": "uint256"
        }
      ],
      "stateMutability": "view",
      "type": "function"
    },
    {
      "inputs": [],
      "name": "MAX_PRICE_AGE",
      "outputs": [
        {
          "internalType": "uint256",
          "name": "",
          "type": "uint256"
        }
      ],
      "stateMutability": "view",
      "type": "function"
    },
    {
      "inputs": [],
      "name": "MIN_FEEDBACK_INTERVAL",
      "outputs": [
        {
          "internalType": "uint256",
          "name": "",
          "type": "uint256"
        }
      ],
      "stateMutability": "view",
      "type": "function"
    },
    {
      "inputs": [],
      "name": "QUALITY_BONUS_USD_CENTS",
      "outputs": [
        {
          "internalType": "uint256",
          "name": "",
          "type": "uint256"
        }
      ],
      "stateMutability": "view",
      "type": "function"
    },
    {
      "inputs": [
        {
          "internalType": "address",
          "name": "",
          "type": "address"
        }
      ],
      "name": "authorizedSigners",
      "outputs": [
        {
          "internalType": "bool",
          "name": "",
          "type": "bool"
        }
      ],
      "stateMutability": "view",
      "type": "function"
    },
    {
      "inputs": [
        {
          "internalType": "uint8",
          "name": "qualityRating",
          "type": "uint8"
        },
        {
          "internalType": "int64",
          "name": "nativeTokenPrice",
          "type": "int64"
        },
        {
          "internalType": "int32",
          "name": "expo",
          "type": "int32"
        }
      ],
      "name": "calculateRewardAmount",
      "outputs": [
        {
          "internalType": "uint256",
          "name": "usdRewardCents",
          "type": "uint256"
        },
        {
          "internalType": "uint256",
          "name": "nativeTokenAmount",
          "type": "uint256"
        }
      ],
      "stateMutability": "view",
      "type": "function"
    },
    {
      "inputs": [
        {
          "components": [
            {
              "internalType": "address",
              "name": "user",
              "type": "address"
            },
            {
              "internalType": "string",
              "name": "feedbackId",
              "type": "string"
            },
            {
              "internalType": "uint8",
              "name": "qualityRating",
              "type": "uint8"
            },
            {
              "internalType": "uint256",
              "name": "timestamp",
              "type": "uint256"
            },
            {
              "internalType": "bytes",
              "name": "signature",
              "type": "bytes"
            }
          ],
          "internalType": "struct FeedbackOracle.FeedbackProof",
          "name": "proof",
          "type": "tuple"
        },
        {
          "internalType": "bytes[]",
          "name": "priceUpdateData",
          "type": "bytes[]"
        }
      ],
      "name": "claimFeedbackReward",
      "outputs": [],
      "stateMutability": "payable",
      "type": "function"
    },
    {
      "inputs": [],
      "name": "emergencyWithdraw",
      "outputs": [],
      "stateMutability": "nonpayable",
      "type": "function"
    },
    {
      "inputs": [],
      "name": "fundContract",
      "outputs": [],
      "stateMutability": "payable",
      "type": "function"
    },
    {
      "inputs": [],
      "name": "getContractFunding",
      "outputs": [
        {
          "internalType": "uint256",
          "name": "nativeBalance",
          "type": "uint256"
        },
        {
          "internalType": "uint256",
          "name": "totalDistributedNative",
          "type": "uint256"
        },
        {
          "internalType": "uint256",
          "name": "remainingFunding",
          "type": "uint256"
        }
      ],
      "stateMutability": "view",
      "type": "function"
    },
    {
      "inputs": [],
      "name": "getCurrentNativeTokenPrice",
      "outputs": [
        {
          "internalType": "int64",
          "name": "price",
          "type": "int64"
        },
        {
          "internalType": "uint64",
          "name": "conf",
          "type": "uint64"
        },
        {
          "internalType": "int32",
          "name": "expo",
          "type": "int32"
        },
        {
          "internalType": "uint256",
          "name": "publishTime",
          "type": "uint256"
        }
      ],
      "stateMutability": "view",
      "type": "function"
    },
    {
      "inputs": [],
      "name": "getOracleStats",
      "outputs": [
        {
          "internalType": "uint256",
          "name": "totalProcessed",
          "type": "uint256"
        },
        {
          "internalType": "uint256",
          "name": "totalRewardsUSD",
          "type": "uint256"
        },
        {
          "internalType": "uint256",
          "name": "totalRewardsNative",
          "type": "uint256"
        },
        {
          "internalType": "uint256",
          "name": "currentThreshold",
          "type": "uint256"
        }
      ],
      "stateMutability": "view",
      "type": "function"
    },
    {
      "inputs": [
        {
          "internalType": "address",
          "name": "user",
          "type": "address"
        }
      ],
      "name": "getUserFeedbackStats",
      "outputs": [
        {
          "internalType": "uint256",
          "name": "feedbackCount",
          "type": "uint256"
        },
        {
          "internalType": "uint256",
          "name": "lastFeedback",
          "type": "uint256"
        },
        {
          "internalType": "uint256",
          "name": "nextAllowedFeedback",
          "type": "uint256"
        }
      ],
      "stateMutability": "view",
      "type": "function"
    },
    {
      "inputs": [
        {
          "internalType": "address",
          "name": "user",
          "type": "address"
        },
        {
          "internalType": "string",
          "name": "feedbackId",
          "type": "string"
        },
        {
          "internalType": "uint256",
          "name": "timestamp",
          "type": "uint256"
        }
      ],
      "name": "isFeedbackProcessed",
      "outputs": [
        {
          "internalType": "bool",
          "name": "",
          "type": "bool"
        }
      ],
      "stateMutability": "view",
      "type": "function"
    },
    {
      "inputs": [
        {
          "internalType": "address",
          "name": "",
          "type": "address"
        }
      ],
      "name": "lastFeedbackTime",
      "outputs": [
        {
          "internalType": "uint256",
          "name": "",
          "type": "uint256"
        }
      ],
      "stateMutability": "view",
      "type": "function"
    },
    {
      "inputs": [],
      "name": "nativeTokenPriceFeedId",
      "outputs": [
        {
          "internalType": "bytes32",
          "name": "",
          "type": "bytes32"
        }
      ],
      "stateMutability": "view",
      "type": "function"
    },
    {
      "inputs": [],
      "name": "owner",
      "outputs": [
        {
          "internalType": "address",
          "name": "",
          "type": "address"
        }
      ],
      "stateMutability": "view",
      "type": "function"
    },
    {
      "inputs": [
        {
          "components": [
            {
              "internalType": "address[]",
              "name": "users",
              "type": "address[]"
            },
            {
              "internalType": "string[]",
              "name": "feedbackIds",
              "type": "string[]"
            },
            {
              "internalType": "uint8[]",
              "name": "qualityRatings",
              "type": "uint8[]"
            },
            {
              "internalType": "uint256[]",
              "name": "timestamps",
              "type": "uint256[]"
            },
            {
              "internalType": "bytes",
              "name": "signature",
              "type": "bytes"
            }
          ],
          "internalType": "struct FeedbackOracle.BatchFeedbackProof",
          "name": "batchProof",
          "type": "tuple"
        },
        {
          "internalType": "bytes[]",
          "name": "priceUpdateData",
          "type": "bytes[]"
        }
      ],
      "name": "processBatchFeedback",
      "outputs": [],
      "stateMutability": "payable",
      "type": "function"
    },
    {
      "inputs": [
        {
          "components": [
            {
              "internalType": "address",
              "name": "user",
              "type": "address"
            },
            {
              "internalType": "string",
              "name": "feedbackId",
              "type": "string"
            },
            {
              "internalType": "uint8",
              "name": "qualityRating",
              "type": "uint8"
            },
            {
              "internalType": "uint256",
              "name": "timestamp",
              "type": "uint256"
            },
            {
              "internalType": "bytes",
              "name": "signature",
              "type": "bytes"
            }
          ],
          "internalType": "struct FeedbackOracle.FeedbackProof",
          "name": "proof",
          "type": "tuple"
        },
        {
          "internalType": "bytes[]",
          "name": "priceUpdateData",
          "type": "bytes[]"
        }
      ],
      "name": "processFeedback",
      "outputs": [],
      "stateMutability": "payable",
      "type": "function"
    },
    {
      "inputs": [
        {
          "internalType": "bytes32",
          "name": "",
          "type": "bytes32"
        }
      ],
      "name": "processedFeedback",
      "outputs": [
        {
          "internalType": "bool",
          "name": "",
          "type": "bool"
        }
      ],
      "stateMutability": "view",
      "type": "function"
    },
    {
      "inputs": [],
      "name": "pyth",
      "outputs": [
        {
          "internalType": "contract IPyth",
          "name": "",
          "type": "address"
        }
      ],
      "stateMutability": "view",
      "type": "function"
    },
    {
      "inputs": [],
      "name": "qualityThreshold",
      "outputs": [
        {
          "internalType": "uint256",
          "name": "",
          "type": "uint256"
        }
      ],
      "stateMutability": "view",
      "type": "function"
    },
    {
      "inputs": [],
      "name": "renounceOwnership",
      "outputs": [],
      "stateMutability": "nonpayable",
      "type": "function"
    },
    {
      "inputs": [],
      "name": "rewardToken",
      "outputs": [
        {
          "internalType": "contract FeedbackRewardToken",
          "name": "",
          "type": "address"
        }
      ],
      "stateMutability": "view",
      "type": "function"
    },
    {
      "inputs": [
        {
          "internalType": "bytes32",
          "name": "newPriceFeedId",
          "type": "bytes32"
        }
      ],
      "name": "setPriceFeedId",
      "outputs": [],
      "stateMutability": "nonpayable",
      "type": "function"
    },
    {
      "inputs": [
        {
          "internalType": "uint256",
          "name": "newThreshold",
          "type": "uint256"
        }
      ],
      "name": "setQualityThreshold",
      "outputs": [],
      "stateMutability": "nonpayable",
      "type": "function"
    },
    {
      "inputs": [
        {
          "internalType": "address",
          "name": "signer",
          "type": "address"
        },
        {
          "internalType": "bool",
          "name": "authorized",
          "type": "bool"
        }
      ],
      "name": "setSignerAuthorization",
      "outputs": [],
      "stateMutability": "nonpayable",
      "type": "function"
    },
    {
      "inputs": [],
      "name": "totalFeedbackProcessed",
      "outputs": [
        {
          "internalType": "uint256",
          "name": "",
          "type": "uint256"
        }
      ],
      "stateMutability": "view",
      "type": "function"
    },
    {
      "inputs": [],
      "name": "totalNativeRewardsDistributed",
      "outputs": [
        {
          "internalType": "uint256",
          "name": "",
          "type": "uint256"
        }
      ],
      "stateMutability": "view",
      "type": "function"
    },
    {
      "inputs": [],
      "name": "totalRewardsDistributedUSD",
      "outputs": [
        {
          "internalType": "uint256",
          "name": "",
          "type": "uint256"
        }
      ],
      "stateMutability": "view",
      "type": "function"
    },
    {
      "inputs": [
        {
          "internalType": "address",
          "name": "newOwner",
          "type": "address"
        }
      ],
      "name": "transferOwnership",
      "outputs": [],
      "stateMutability": "nonpayable",
      "type": "function"
    },
    {
      "inputs": [
        {
          "internalType": "address",
          "name": "",
          "type": "address"
        }
      ],
      "name": "userFeedbackCount",
      "outputs": [
        {
          "internalType": "uint256",
          "name": "",
          "type": "uint256"
        }
      ],
      "stateMutability": "view",
      "type": "function"
    },
    {
      "inputs": [
        {
          "internalType": "uint256",
          "name": "amount",
          "type": "uint256"
        }
      ],
      "name": "withdrawNativeTokens",
      "outputs": [],
      "stateMutability": "nonpayable",
      "type": "function"
    }
  ],
  "bytecode": "0x60c0346200013657601f620024e438819003918201601f19168301916001600160401b038311848410176200013b5780849260809460405283398101031262000136576200004d8162000151565b9060606200005e6020830162000151565b6040830151926001600160a01b039283916200007b910162000151565b169384156200011d57600080546001600160a01b03198116871782556040519685939290918416907f8be0079c531659141344cd1fd0a4f28419497f9722a3daafe3b4186f6b6457e09080a3600180556007600655166080521660a05260075561237d90816200016782396080518181816101f9015281816106500152818161122b0152611658015260a0518181816101b201528181610ec10152611eb40152f35b604051631e4fbdf760e01b815260006004820152602490fd5b600080fd5b634e487b7160e01b600052604160045260246000fd5b51906001600160a01b0382168203620001365756fe6080604052600436101561001257600080fd5b6000803560e01c80631bac88cd1461156557806325df52e31461150f57806329e6aec8146114f25780632d37dc7814611484578063339b23f11461146757806344fdd003146114315780634b0ad053146113f9578063560e8191146110c75780635d2b6a4e1461108a578063627eff9e1461106c57806363c999c31461104e578063715018a614610fdc578063741e39ee14610f5c578063787f75f314610e7157806384435ae514610e195780638da5cb5b14610df35780638e83ca2514610dc4578063931afb5e14610da657806394720dff14610d885780639d7f7e8614610d6b578063a2fa874c14610d4d578063a509335214610d15578063b01d0cb914610c8d578063b663abad14610c70578063b7ab8e1414610bd7578063bd097e2114610b64578063bfc54808146103f7578063c6c035b5146103c0578063cfdbf254146103a4578063db2e21bc14610371578063e5c18684146102d6578063f2fde38b1461021d578063f7c618c1146101d95763f98d06f01461019357600080fd5b346101d657806003193601126101d65760206040516001600160a01b037f0000000000000000000000000000000000000000000000000000000000000000168152f35b80fd5b50346101d657806003193601126101d65760206040516001600160a01b037f0000000000000000000000000000000000000000000000000000000000000000168152f35b50346101d65760206003193601126101d6576102376117e2565b61023f6117f8565b6001600160a01b038091169081156102a557600054827fffffffffffffffffffffffff0000000000000000000000000000000000000000821617600055167f8be0079c531659141344cd1fd0a4f28419497f9722a3daafe3b4186f6b6457e0600080a380f35b602483604051907f1e4fbdf70000000000000000000000000000000000000000000000000000000082526004820152fd5b50346101d65760206003193601126101d6576004356102f36117f8565b8047106103475781808080936001600160a01b038254165af1610314612220565b501561031d5780f35b60046040517ff4b3b1bc000000000000000000000000000000000000000000000000000000008152fd5b60046040517f786e0a99000000000000000000000000000000000000000000000000000000008152fd5b50346101d657806003193601126101d65761038a6117f8565b80808080476001600160a01b038254165af1610314612220565b50346101d657806003193601126101d657602060405160648152f35b50346101d657806003193601126101d6576080600854600954600a5460065491604051938452602084015260408301526060820152f35b5061040136611778565b919061040b6119f4565b6104158280611a2f565b80949150158015610b5a575b610b305761042f8380611a2f565b905061043e6020850185611a2f565b91905014801590610b0c575b8015610ae8575b610abe5761045f8380611a2f565b61046c6020860186611a2f565b90918861047c6040890189611a2f565b91909461048c60608b018b611a2f565b959097604051958060a08801608060208a01525260c08701919085905b808210610a8757505050601f198682030160408701528181526020810160208360051b830101938095925b848410610a4f575050505050838103601f1901606085015282815260200194918b91505b808210610a2557505050601f198184030160808201528183527f07ffffffffffffffffffffffffffffffffffffffffffffffffffffffffffffff8211610a21576105646020826001600160a01b03966105bb966105b29660051b809285830137010380845201826118d7565b6020815191012061058261057b608089018961185e565b3691611916565b907f19457468657265756d205369676e6564204d6573736167653a0a3332000000008a52601c52603c8920611bd3565b90929192611c9f565b168552600260205260ff604086205416156109f7576105dc91939293611e87565b906105e681611a65565b6105f360405191826118d7565b818152601f1961060283611a65565b0136602083013761061282611a65565b61061f60405191826118d7565b828152601f1961062e84611a65565b013660208301378593869587915b8583106107e2575050506001600160a01b037f00000000000000000000000000000000000000000000000000000000000000001690813b156107de5790869291604051927fae78234200000000000000000000000000000000000000000000000000000000845260448401604060048601528151809152602060648601920190865b8181106107bc5750505060031984820301602485015260208083519283815201920190855b8181106107a1575050508391838381809403925af180156107965761077e575b50506107747fa64f4980a79d096f7d5abf84ae97bbc1e0d84456323d438560dab7f86a29021d9361073683600854611990565b60085561074584600954611990565b60095561075481600a54611990565b600a55604051938493846040919493926060820195825260208201520152565b0390a16001805580f35b61078790611891565b610792578338610703565b8380fd5b6040513d84823e3d90fd5b8251151584528a9650602093840193909201916001016106e3565b82516001600160a01b031684528b9750602093840193909201916001016106be565b8680fd5b909196956108026107fd896107f78680611a2f565b90611a7d565b61183c565b906108106020850185611a2f565b8a10156109e35761057b61082a918b60051b81019061185e565b61084361083e8b6107f76040890189611a2f565b611850565b906108558b6107f76060890189611a2f565b356001600160a01b038516156109825760ff83161580156109d6575b6109ac57428111610982576108869185611ab7565b8b52600360205260408b20805460ff81166109735760ff19600191161790556001600160a01b0383168b52600460205260408b206108c4815461194d565b90556001600160a01b0383168b5260056020524260408c205560ff600654911610156001600160a01b0383166108fa8b89611aa3565b52806109068b88611aa3565b521561096d576101f45b6103e881810181116109595761094c92828261093f610938610952989661094696018a6120e3565b8096612250565b0190611990565b98611990565b9761194d565b919061063c565b60248c634e487b7160e01b81526011600452fd5b89610910565b5050509697610952915061194d565b60046040517f09bde339000000000000000000000000000000000000000000000000000000008152fd5b60046040517f446a24d5000000000000000000000000000000000000000000000000000000008152fd5b50600a60ff841611610871565b60248b634e487b7160e01b81526032600452fd5b60046040517fca31867a000000000000000000000000000000000000000000000000000000008152fd5b8880fd5b90919485359060ff8216809203610a4a576020816001938293520196019201906104f8565b600080fd5b9091929394602080610a7683601f198660019603018852610a708b88611b35565b9061199d565b9801940194019295949391906104d4565b9180965094939492909235906001600160a01b038216809203610a4a5760208160019382935201960192018f9592919493946104a9565b60046040517fa24a13a6000000000000000000000000000000000000000000000000000000008152fd5b50610af38380611a2f565b9050610b026060850185611a2f565b9190501415610451565b50610b178380611a2f565b9050610b266040850185611a2f565b919050141561044a565b60046040517fabcf3d23000000000000000000000000000000000000000000000000000000008152fd5b5060648411610421565b50806003193601126101d6573415610b795780f35b60646040517f08c379a000000000000000000000000000000000000000000000000000000000815260206004820152601760248201527f4d7573742073656e64206e617469766520746f6b656e730000000000000000006044820152fd5b50346101d65760206003193601126101d6576001600160a01b03610bf96117e2565b16908181526005602052604081205491610e10830190818411610c5c57825260046020526040909120549042811115610c5257610c4e905b604051938493846040919493926060820195825260208201520152565b0390f35b50610c4e42610c31565b602483634e487b7160e01b81526011600452fd5b50346101d657806003193601126101d65760206040516103e88152f35b50346101d65760606003193601126101d657610ca76117e2565b67ffffffffffffffff9060243582811161079257366023820112156107925780600401359283116107925736602484830101116107925792610d0260ff93604093610cfc602097604435936024369201611916565b90611ab7565b8152600384522054166040519015158152f35b50346101d65760206003193601126101d65760406020916001600160a01b03610d3c6117e2565b168152600583522054604051908152f35b50346101d657806003193601126101d6576020600a54604051908152f35b50346101d657806003193601126101d657602060405161012c8152f35b50346101d657806003193601126101d6576020600954604051908152f35b50346101d657806003193601126101d6576020600854604051908152f35b50346101d65760206003193601126101d65760ff60406020926004358152600384522054166040519015158152f35b50346101d657806003193601126101d6576001600160a01b036020915416604051908152f35b50346101d65760606003193601126101d65760043560ff81168103610a4a57602435908160070b8203610e6d57604435928360030b84036101d6576040610e618585856122a5565b82519182526020820152f35b8280fd5b50346101d657806003193601126101d657600754604051907f96834ad300000000000000000000000000000000000000000000000000000000825260048201526080816024816001600160a01b037f0000000000000000000000000000000000000000000000000000000000000000165afa9081156107965760809291610f2f575b50805160070b9067ffffffffffffffff602082015116906060604082015160030b91015191604051938452602084015260408301526060820152f35b610f4f9150823d8111610f55575b610f4781836118d7565b810190611e24565b38610ef3565b503d610f3d565b50346101d65760406003193601126101d657610f766117e2565b60243590811515809203610e6d5760206001600160a01b037fd71d7c88579d0d5858da8cb9f6c4ce94826a5391ff03edf44f6a431180a1a6f592610fb86117f8565b1692838552600282526040852060ff1981541660ff8316179055604051908152a280f35b50346101d657806003193601126101d657610ff56117f8565b60006001600160a01b0381547fffffffffffffffffffffffff000000000000000000000000000000000000000081168355167f8be0079c531659141344cd1fd0a4f28419497f9722a3daafe3b4186f6b6457e08280a380f35b50346101d657806003193601126101d6576020600654604051908152f35b50346101d657806003193601126101d6576020600754604051908152f35b50346101d65760206003193601126101d65760ff60406020926001600160a01b036110b36117e2565b168152600284522054166040519015158152f35b506110d136611778565b916110da6119f4565b6001600160a01b0390816110ed8261183c565b161561098257604081019360ff61110386611850565b161580156113e4575b6109ac5760608201359342851161098257836111278461183c565b168752602060058152604088205442034281116113d057610e10116113a6576111646111528561183c565b9682860197610cfc61057b8a8961185e565b928389526003825260ff60408a20541661137c576005926111a1916111898688611b67565b6111928a611850565b60ff6006549116101591611d6d565b9288526003815260408820600160ff19825416179055846111c18561183c565b16885260048152604088206111d6815461194d565b9055846111e28561183c565b168852524260408720556111f760085461194d565b60085561120385611850565b60ff600654911610159081600014611375576101f4945b6103e89586018096116113615787857f0000000000000000000000000000000000000000000000000000000000000000166112548661183c565b90803b15610e6d576040517ff39489140000000000000000000000000000000000000000000000000000000081526001600160a01b03929092166004830152851515602483015282908290604490829084905af1801561079657611343575b5050907f525aa383e9da52014b1fa10a35ab6b1ec0785574d6dc1f97a9ee373e981e74509561132a61132261133995946112f5856112f08a61183c565b612250565b61130184600954611990565b60095561131085600a54611990565b600a5561131c8861183c565b9761185e565b919099611850565b906040519788971699876119be565b0390a26001805580f35b6113509094939294611891565b61135d57909187386112b3565b8780fd5b602488634e487b7160e01b81526011600452fd5b869461121a565b60046040517f4f7ae511000000000000000000000000000000000000000000000000000000008152fd5b60046040517fa74c1c5f000000000000000000000000000000000000000000000000000000008152fd5b602489634e487b7160e01b81526011600452fd5b50600a60ff6113f287611850565b161161110c565b50346101d65760206003193601126101d65760406020916001600160a01b036114206117e2565b168152600483522054604051908152f35b50346101d657806003193601126101d65747600a54610c4e60405192839281846040919493926060820195825260208201520152565b50346101d657806003193601126101d65760206040516101f48152f35b50346101d65760206003193601126101d6576004356114a16117f8565b801580156114e8575b6109ac5760407feb9922e3ed7835455c0b321d214f497e036d91a33d2e9883f5224484432a07ca91600654908060065582519182526020820152a180f35b50600a81116114aa565b50346101d657806003193601126101d6576020604051610e108152f35b50346101d65760206003193601126101d6577f627da9a77799043556fbec117455a7d8c03a5de41db240934f0f59155c0019a0604060043561154f6117f8565b600754908060075582519182526020820152a180f35b5061156f36611778565b916115786119f4565b6001600160a01b03918261158b8361183c565b1633036109825761159b8261183c565b906115c0610cfc60208501936115b1858761185e565b92906060880135933691611916565b90818752600360205260ff60408820541661137c576115f1906115e38386611b67565b604085019661119288611850565b908652600360205260408620600160ff19825416179055836116128461183c565b168652600460205260408620611628815461194d565b9055836116348461183c565b168652600560205242604087205561164b85611850565b60ff6006549116101591847f000000000000000000000000000000000000000000000000000000000000000016876116828661183c565b823b15611774576040517ff39489140000000000000000000000000000000000000000000000000000000081526001600160a01b039190911660048201528515156024820152918290604490829084905af1801561176957611756575b506116ed826112f08661183c565b821561174f576101f4905b6103e891820180921161136157917f525aa383e9da52014b1fa10a35ab6b1ec0785574d6dc1f97a9ee373e981e74509594939161132a6113226113399561174060085461194d565b60085561130184600954611990565b86906116f8565b61176290979197611891565b95386116df565b6040513d8a823e3d90fd5b5080fd5b9060031990604082840112610a4a5760043567ffffffffffffffff92838211610a4a5760a0908286030112610a4a576004019260243590838211610a4a5780602383011215610a4a578160040135938411610a4a5760248460051b83010111610a4a576024019190565b600435906001600160a01b0382168203610a4a57565b6001600160a01b0360005416330361180c57565b60246040517f118cdaa7000000000000000000000000000000000000000000000000000000008152336004820152fd5b356001600160a01b0381168103610a4a5790565b3560ff81168103610a4a5790565b903590601e1981360301821215610a4a570180359067ffffffffffffffff8211610a4a57602001918136038313610a4a57565b67ffffffffffffffff81116118a557604052565b634e487b7160e01b600052604160045260246000fd5b6080810190811067ffffffffffffffff8211176118a557604052565b90601f601f19910116810190811067ffffffffffffffff8211176118a557604052565b67ffffffffffffffff81116118a557601f01601f191660200190565b929192611922826118fa565b9161193060405193846118d7565b829481845281830111610a4a578281602093846000960137010152565b7fffffffffffffffffffffffffffffffffffffffffffffffffffffffffffffffff811461197a5760010190565b634e487b7160e01b600052601160045260246000fd5b9190820180921161197a57565b601f8260209493601f19938186528686013760008582860101520116010190565b94916119dc6080959260ff929998959960a0895260a089019161199d565b97166020860152604085015260608401521515910152565b600260015414611a05576002600155565b60046040517f3ee5aeb5000000000000000000000000000000000000000000000000000000008152fd5b903590601e1981360301821215610a4a570180359067ffffffffffffffff8211610a4a57602001918160051b36038313610a4a57565b67ffffffffffffffff81116118a55760051b60200190565b9190811015611a8d5760051b0190565b634e487b7160e01b600052603260045260246000fd5b8051821015611a8d5760209160051b010190565b91604051809260207fffffffffffffffffffffffffffffffffffffffff0000000000000000000000008184019660601b16865281519160005b838110611b1e5750505090611b189260549282019060348201520360348101845201826118d7565b51902090565b818101830151878201603401528694508201611af0565b9035601e1982360301811215610a4a57016020813591019167ffffffffffffffff8211610a4a578136038313610a4a57565b6105b2611bba916001600160a01b03937f19457468657265756d205369676e6564204d6573736167653a0a333200000000600052601c52611bb461057b603c60002092608081019061185e565b90611bd3565b16600052600260205260ff60406000205416156109f757565b8151919060418303611c0457611bfd92506020820151906060604084015193015160001a90611c0f565b9192909190565b505060009160029190565b91907f7fffffffffffffffffffffffffffffff5d576e7357a4501ddfe92f46681b20a08411611c9357926020929160ff608095604051948552168484015260408301526060820152600092839182805260015afa15611c875780516001600160a01b03811615611c7e57918190565b50809160019190565b604051903d90823e3d90fd5b50505060009160039190565b6004811015611d575780611cb1575050565b60018103611ce35760046040517ff645eedf000000000000000000000000000000000000000000000000000000008152fd5b60028103611d1c57602482604051907ffce698f70000000000000000000000000000000000000000000000000000000082526004820152fd5b600314611d265750565b602490604051907fd78bce0c0000000000000000000000000000000000000000000000000000000082526004820152fd5b634e487b7160e01b600052602160045260246000fd5b90611d7791611e87565b9060009015611d9e57506101f45b6103e890810180911161197a57611d9b916120e3565b90565b611d85565b9160208181850182865252604084019360408360051b82010194846000925b858410611dd3575050505050505090565b909192939495968580611e13837fffffffffffffffffffffffffffffffffffffffffffffffffffffffffffffffc08660019603018852610a708c88611b35565b990194019401929594939190611dc2565b90816080910312610a4a5760405190611e3c826118bb565b80518060070b8103610a4a578252602081015167ffffffffffffffff81168103610a4a5760208301526040810151908160030b8203610a4a5760609160408401520151606082015290565b60006040928160608551611e9a816118bb565b828152826020820152828782015201526001600160a01b037f000000000000000000000000000000000000000000000000000000000000000016928451907fd47eed4500000000000000000000000000000000000000000000000000000000825260208280611f0d868560048401611da3565b0381885afa91821561206257849261202f575b5081341061200657843b1561079257918391611f6a9387518095819482937fef9e5e2800000000000000000000000000000000000000000000000000000000845260048401611da3565b0391875af18015611ffc57611fed575b50608060075460448551809581937fa4ae35e0000000000000000000000000000000000000000000000000000000008352600483015261012c60248301525afa928315611fe3575091611fcb575090565b611d9b915060803d8111610f5557610f4781836118d7565b51903d90823e3d90fd5b611ff690611891565b38611f7a565b84513d84823e3d90fd5b600486517f2b5186a4000000000000000000000000000000000000000000000000000000008152fd5b9091506020813d821161205a575b8161204a602093836118d7565b8101031261079257519038611f20565b3d915061203d565b86513d86823e3d90fd5b60030b7fffffffffffffffffffffffffffffffffffffffffffffffffffffffff80000000811461197a5760000390565b63ffffffff16604d811161197a57600a0a90565b8181029291811591840414171561197a57565b81156120cd570490565b634e487b7160e01b600052601260045260246000fd5b9190604083519301518060030b90600094858160070b13156121f65767ffffffffffffffff169185811261218757508160640291606483040361217357906121336121399263ffffffff1661209c565b906120b0565b90670de0b6b3a76400009081810291818304149015171561215f57611d9b9293506120c3565b602484634e487b7160e01b81526011600452fd5b602485634e487b7160e01b81526011600452fd5b6121a5915061219a90959392949561206c565b63ffffffff1661209c565b91836064029360648504036121e257670de0b6b3a7640000918281029281840414901517156121e25750611d9b92916121dd916120b0565b6120c3565b80634e487b7160e01b602492526011600452fd5b60046040517f52cc3f7d000000000000000000000000000000000000000000000000000000008152fd5b3d1561224b573d90612231826118fa565b9161223f60405193846118d7565b82523d6000602084013e565b606090565b814710610347576001600160a01b031690600080808084865af1612272612220565b501561031d5760207f42dae7ecbd6480f4668be8482b87dd535b1e94c76b10f9c324e2bca24f10f71b91604051908152a2565b90929190600090600760ff9091161061231457506101f4905b6103e891820180921161197a57819360070b91600083131561230a5750611d9b918491604051916122ee836118bb565b82526000602083015260030b604082015242606082015261231a565b9350600092915050565b906122be565b9190604083519301518060030b90600094858160070b131561236a5767ffffffffffffffff169185811261218757508160640291606483040361217357906121336121399263ffffffff1661209c565b5050505056fea164736f6c6343000814000a",
  "linkReferences": {},
  "deployedLinkReferences": {}
}