{
  "_format": "hh-sol-artifact-1",
  "contractName": "FeedbackOracle",
  "sourceName": "contracts/FeedbackOracle.sol",
  "abi": [
    {
      "inputs": [
        {
          "internalType": "address",
          "name": "rewardToken_",
          "type": "address"
        },
        {
          "internalType": "address",
          "name": "pythContract_",
          "type": "address"
        },
        {
          "internalType": "address",
          "name": "owner_",
          "type": "address"
        }
      ],
      "stateMutability": "nonpayable",
      "type": "constructor"
    },
    {
      "inputs": [],
      "name": "ArrayLengthMismatch",
      "type": "error"
    },
    {
      "inputs": [],
      "name": "BatchSizeExceeded",
      "type": "error"
    },
    {
      "inputs": [],
      "name": "ECDSAInvalidSignature",
      "type": "error"
    },
    {
      "inputs": [
        {
          "internalType": "uint256",
          "name": "length",
          "type": "uint256"
        }
      ],
      "name": "ECDSAInvalidSignatureLength",
      "type": "error"
    },
    {
      "inputs": [
        {
          "internalType": "bytes32",
          "name": "s",
          "type": "bytes32"
        }
      ],
      "name": "ECDSAInvalidSignatureS",
      "type": "error"
    },
    {
      "inputs": [],
      "name": "FeedbackAlreadyProcessed",
      "type": "error"
    },
    {
      "inputs": [],
      "name": "InsufficientContractBalance",
      "type": "error"
    },
    {
      "inputs": [],
      "name": "InvalidPriceFeed",
      "type": "error"
    },
    {
      "inputs": [],
      "name": "InvalidProof",
      "type": "error"
    },
    {
      "inputs": [],
      "name": "InvalidQualityRating",
      "type": "error"
    },
    {
      "inputs": [],
      "name": "InvalidSignature",
      "type": "error"
    },
    {
      "inputs": [],
      "name": "NativeTransferFailed",
      "type": "error"
    },
    {
      "inputs": [],
      "name": "NetworkNotActive",
      "type": "error"
    },
    {
      "inputs": [],
      "name": "NetworkNotSupported",
      "type": "error"
    },
    {
      "inputs": [
        {
          "internalType": "address",
          "name": "owner",
          "type": "address"
        }
      ],
      "name": "OwnableInvalidOwner",
      "type": "error"
    },
    {
      "inputs": [
        {
          "internalType": "address",
          "name": "account",
          "type": "address"
        }
      ],
      "name": "OwnableUnauthorizedAccount",
      "type": "error"
    },
    {
      "inputs": [],
      "name": "PriceUpdateFailed",
      "type": "error"
    },
    {
      "inputs": [],
      "name": "RateLimitExceeded",
      "type": "error"
    },
    {
      "inputs": [],
      "name": "ReentrancyGuardReentrantCall",
      "type": "error"
    },
    {
      "inputs": [],
      "name": "UnauthorizedSigner",
      "type": "error"
    },
    {
      "anonymous": false,
      "inputs": [
        {
          "indexed": false,
          "internalType": "uint256",
          "name": "count",
          "type": "uint256"
        },
        {
          "indexed": false,
          "internalType": "uint256",
          "name": "totalRewardsUSD",
          "type": "uint256"
        },
        {
          "indexed": false,
          "internalType": "uint256",
          "name": "totalRewardsNative",
          "type": "uint256"
        }
      ],
      "name": "BatchFeedbackProcessed",
      "type": "event"
    },
    {
      "anonymous": false,
      "inputs": [
        {
          "indexed": true,
          "internalType": "address",
          "name": "user",
          "type": "address"
        },
        {
          "indexed": false,
          "internalType": "string",
          "name": "feedbackId",
          "type": "string"
        },
        {
          "indexed": false,
          "internalType": "uint8",
          "name": "qualityRating",
          "type": "uint8"
        },
        {
          "indexed": false,
          "internalType": "uint256",
          "name": "rewardAmountUSD",
          "type": "uint256"
        },
        {
          "indexed": false,
          "internalType": "uint256",
          "name": "rewardAmountNative",
          "type": "uint256"
        },
        {
          "indexed": false,
          "internalType": "bool",
          "name": "qualityBonus",
          "type": "bool"
        }
      ],
      "name": "FeedbackProcessed",
      "type": "event"
    },
    {
      "anonymous": false,
      "inputs": [
        {
          "indexed": true,
          "internalType": "address",
          "name": "user",
          "type": "address"
        },
        {
          "indexed": false,
          "internalType": "uint256",
          "name": "amount",
          "type": "uint256"
        }
      ],
      "name": "NativeRewardSent",
      "type": "event"
    },
    {
      "anonymous": false,
      "inputs": [
        {
          "indexed": false,
          "internalType": "uint256",
          "name": "chainId",
          "type": "uint256"
        },
        {
          "components": [
            {
              "internalType": "uint256",
              "name": "minFeedbackInterval",
              "type": "uint256"
            },
            {
              "internalType": "uint256",
              "name": "maxPriceAge",
              "type": "uint256"
            },
            {
              "internalType": "uint256",
              "name": "baseRewardUSDCents",
              "type": "uint256"
            },
            {
              "internalType": "uint256",
              "name": "qualityBonusUSDCents",
              "type": "uint256"
            },
            {
              "internalType": "bytes32",
              "name": "nativeTokenPriceFeedId",
              "type": "bytes32"
            },
            {
              "internalType": "bool",
              "name": "isActive",
              "type": "bool"
            }
          ],
          "indexed": false,
          "internalType": "struct FeedbackOracle.NetworkConfig",
          "name": "config",
          "type": "tuple"
        }
      ],
      "name": "NetworkConfigUpdated",
      "type": "event"
    },
    {
      "anonymous": false,
      "inputs": [
        {
          "indexed": true,
          "internalType": "address",
          "name": "previousOwner",
          "type": "address"
        },
        {
          "indexed": true,
          "internalType": "address",
          "name": "newOwner",
          "type": "address"
        }
      ],
      "name": "OwnershipTransferred",
      "type": "event"
    },
    {
      "anonymous": false,
      "inputs": [
        {
          "indexed": false,
          "internalType": "uint256",
          "name": "oldThreshold",
          "type": "uint256"
        },
        {
          "indexed": false,
          "internalType": "uint256",
          "name": "newThreshold",
          "type": "uint256"
        }
      ],
      "name": "QualityThresholdUpdated",
      "type": "event"
    },
    {
      "anonymous": false,
      "inputs": [
        {
          "indexed": true,
          "internalType": "address",
          "name": "signer",
          "type": "address"
        },
        {
          "indexed": false,
          "internalType": "bool",
          "name": "authorized",
          "type": "bool"
        }
      ],
      "name": "SignerAuthorized",
      "type": "event"
    },
    {
      "anonymous": false,
      "inputs": [
        {
          "indexed": false,
          "internalType": "bool",
          "name": "skipVerification",
          "type": "bool"
        },
        {
          "indexed": false,
          "internalType": "address",
          "name": "updatedBy",
          "type": "address"
        }
      ],
      "name": "VerificationSkipUpdated",
      "type": "event"
    },
    {
      "inputs": [],
      "name": "FLOW_TESTNET_CHAIN_ID",
      "outputs": [
        {
          "internalType": "uint256",
          "name": "",
          "type": "uint256"
        }
      ],
      "stateMutability": "view",
      "type": "function"
    },
    {
      "inputs": [],
      "name": "HEDERA_TESTNET_CHAIN_ID",
      "outputs": [
        {
          "internalType": "uint256",
          "name": "",
          "type": "uint256"
        }
      ],
      "stateMutability": "view",
      "type": "function"
    },
    {
      "inputs": [],
      "name": "MAX_BATCH_SIZE",
      "outputs": [
        {
          "internalType": "uint256",
          "name": "",
          "type": "uint256"
        }
      ],
      "stateMutability": "view",
      "type": "function"
    },
    {
      "inputs": [],
      "name": "ROOTSTOCK_TESTNET_CHAIN_ID",
      "outputs": [
        {
          "internalType": "uint256",
          "name": "",
          "type": "uint256"
        }
      ],
      "stateMutability": "view",
      "type": "function"
    },
    {
      "inputs": [
        {
          "internalType": "address",
          "name": "",
          "type": "address"
        }
      ],
      "name": "authorizedSigners",
      "outputs": [
        {
          "internalType": "bool",
          "name": "",
          "type": "bool"
        }
      ],
      "stateMutability": "view",
      "type": "function"
    },
    {
      "inputs": [
        {
          "internalType": "uint8",
          "name": "qualityRating",
          "type": "uint8"
        },
        {
          "internalType": "int64",
          "name": "nativeTokenPrice",
          "type": "int64"
        },
        {
          "internalType": "int32",
          "name": "expo",
          "type": "int32"
        }
      ],
      "name": "calculateRewardAmount",
      "outputs": [
        {
          "internalType": "uint256",
          "name": "usdRewardCents",
          "type": "uint256"
        },
        {
          "internalType": "uint256",
          "name": "nativeTokenAmount",
          "type": "uint256"
        }
      ],
      "stateMutability": "view",
      "type": "function"
    },
    {
      "inputs": [
        {
          "components": [
            {
              "internalType": "address",
              "name": "user",
              "type": "address"
            },
            {
              "internalType": "string",
              "name": "feedbackId",
              "type": "string"
            },
            {
              "internalType": "uint8",
              "name": "qualityRating",
              "type": "uint8"
            },
            {
              "internalType": "uint256",
              "name": "timestamp",
              "type": "uint256"
            },
            {
              "internalType": "bytes",
              "name": "signature",
              "type": "bytes"
            }
          ],
          "internalType": "struct FeedbackOracle.FeedbackProof",
          "name": "proof",
          "type": "tuple"
        },
        {
          "internalType": "bytes[]",
          "name": "priceUpdateData",
          "type": "bytes[]"
        }
      ],
      "name": "claimFeedbackReward",
      "outputs": [],
      "stateMutability": "payable",
      "type": "function"
    },
    {
      "inputs": [],
      "name": "currentConfig",
      "outputs": [
        {
          "internalType": "uint256",
          "name": "minFeedbackInterval",
          "type": "uint256"
        },
        {
          "internalType": "uint256",
          "name": "maxPriceAge",
          "type": "uint256"
        },
        {
          "internalType": "uint256",
          "name": "baseRewardUSDCents",
          "type": "uint256"
        },
        {
          "internalType": "uint256",
          "name": "qualityBonusUSDCents",
          "type": "uint256"
        },
        {
          "internalType": "bytes32",
          "name": "nativeTokenPriceFeedId",
          "type": "bytes32"
        },
        {
          "internalType": "bool",
          "name": "isActive",
          "type": "bool"
        }
      ],
      "stateMutability": "view",
      "type": "function"
    },
    {
      "inputs": [],
      "name": "emergencyWithdraw",
      "outputs": [],
      "stateMutability": "nonpayable",
      "type": "function"
    },
    {
      "inputs": [],
      "name": "fundContract",
      "outputs": [],
      "stateMutability": "payable",
      "type": "function"
    },
    {
      "inputs": [],
      "name": "getContractFunding",
      "outputs": [
        {
          "internalType": "uint256",
          "name": "nativeBalance",
          "type": "uint256"
        },
        {
          "internalType": "uint256",
          "name": "totalDistributedNative",
          "type": "uint256"
        },
        {
          "internalType": "uint256",
          "name": "remainingFunding",
          "type": "uint256"
        }
      ],
      "stateMutability": "view",
      "type": "function"
    },
    {
      "inputs": [],
      "name": "getCurrentNativeTokenPrice",
      "outputs": [
        {
          "internalType": "int64",
          "name": "price",
          "type": "int64"
        },
        {
          "internalType": "uint64",
          "name": "conf",
          "type": "uint64"
        },
        {
          "internalType": "int32",
          "name": "expo",
          "type": "int32"
        },
        {
          "internalType": "uint256",
          "name": "publishTime",
          "type": "uint256"
        }
      ],
      "stateMutability": "view",
      "type": "function"
    },
    {
      "inputs": [
        {
          "internalType": "uint256",
          "name": "chainId",
          "type": "uint256"
        }
      ],
      "name": "getNetworkConfig",
      "outputs": [
        {
          "components": [
            {
              "internalType": "uint256",
              "name": "minFeedbackInterval",
              "type": "uint256"
            },
            {
              "internalType": "uint256",
              "name": "maxPriceAge",
              "type": "uint256"
            },
            {
              "internalType": "uint256",
              "name": "baseRewardUSDCents",
              "type": "uint256"
            },
            {
              "internalType": "uint256",
              "name": "qualityBonusUSDCents",
              "type": "uint256"
            },
            {
              "internalType": "bytes32",
              "name": "nativeTokenPriceFeedId",
              "type": "bytes32"
            },
            {
              "internalType": "bool",
              "name": "isActive",
              "type": "bool"
            }
          ],
          "internalType": "struct FeedbackOracle.NetworkConfig",
          "name": "",
          "type": "tuple"
        }
      ],
      "stateMutability": "view",
      "type": "function"
    },
    {
      "inputs": [],
      "name": "getOracleStats",
      "outputs": [
        {
          "internalType": "uint256",
          "name": "totalProcessed",
          "type": "uint256"
        },
        {
          "internalType": "uint256",
          "name": "totalRewardsUSD",
          "type": "uint256"
        },
        {
          "internalType": "uint256",
          "name": "totalRewardsNative",
          "type": "uint256"
        },
        {
          "internalType": "uint256",
          "name": "currentThreshold",
          "type": "uint256"
        }
      ],
      "stateMutability": "view",
      "type": "function"
    },
    {
      "inputs": [
        {
          "internalType": "address",
          "name": "user",
          "type": "address"
        }
      ],
      "name": "getUserFeedbackStats",
      "outputs": [
        {
          "internalType": "uint256",
          "name": "feedbackCount",
          "type": "uint256"
        },
        {
          "internalType": "uint256",
          "name": "lastFeedback",
          "type": "uint256"
        },
        {
          "internalType": "uint256",
          "name": "nextAllowedFeedback",
          "type": "uint256"
        }
      ],
      "stateMutability": "view",
      "type": "function"
    },
    {
      "inputs": [
        {
          "internalType": "address",
          "name": "user",
          "type": "address"
        },
        {
          "internalType": "string",
          "name": "feedbackId",
          "type": "string"
        },
        {
          "internalType": "uint256",
          "name": "timestamp",
          "type": "uint256"
        }
      ],
      "name": "isFeedbackProcessed",
      "outputs": [
        {
          "internalType": "bool",
          "name": "",
          "type": "bool"
        }
      ],
      "stateMutability": "view",
      "type": "function"
    },
    {
      "inputs": [
        {
          "internalType": "address",
          "name": "",
          "type": "address"
        }
      ],
      "name": "lastFeedbackTime",
      "outputs": [
        {
          "internalType": "uint256",
          "name": "",
          "type": "uint256"
        }
      ],
      "stateMutability": "view",
      "type": "function"
    },
    {
      "inputs": [
        {
          "internalType": "uint256",
          "name": "",
          "type": "uint256"
        }
      ],
      "name": "networkConfigs",
      "outputs": [
        {
          "internalType": "uint256",
          "name": "minFeedbackInterval",
          "type": "uint256"
        },
        {
          "internalType": "uint256",
          "name": "maxPriceAge",
          "type": "uint256"
        },
        {
          "internalType": "uint256",
          "name": "baseRewardUSDCents",
          "type": "uint256"
        },
        {
          "internalType": "uint256",
          "name": "qualityBonusUSDCents",
          "type": "uint256"
        },
        {
          "internalType": "bytes32",
          "name": "nativeTokenPriceFeedId",
          "type": "bytes32"
        },
        {
          "internalType": "bool",
          "name": "isActive",
          "type": "bool"
        }
      ],
      "stateMutability": "view",
      "type": "function"
    },
    {
      "inputs": [],
      "name": "owner",
      "outputs": [
        {
          "internalType": "address",
          "name": "",
          "type": "address"
        }
      ],
      "stateMutability": "view",
      "type": "function"
    },
    {
      "inputs": [
        {
          "components": [
            {
              "internalType": "address[]",
              "name": "users",
              "type": "address[]"
            },
            {
              "internalType": "string[]",
              "name": "feedbackIds",
              "type": "string[]"
            },
            {
              "internalType": "uint8[]",
              "name": "qualityRatings",
              "type": "uint8[]"
            },
            {
              "internalType": "uint256[]",
              "name": "timestamps",
              "type": "uint256[]"
            },
            {
              "internalType": "bytes",
              "name": "signature",
              "type": "bytes"
            }
          ],
          "internalType": "struct FeedbackOracle.BatchFeedbackProof",
          "name": "batchProof",
          "type": "tuple"
        },
        {
          "internalType": "bytes[]",
          "name": "priceUpdateData",
          "type": "bytes[]"
        }
      ],
      "name": "processBatchFeedback",
      "outputs": [],
      "stateMutability": "payable",
      "type": "function"
    },
    {
      "inputs": [
        {
          "components": [
            {
              "internalType": "address",
              "name": "user",
              "type": "address"
            },
            {
              "internalType": "string",
              "name": "feedbackId",
              "type": "string"
            },
            {
              "internalType": "uint8",
              "name": "qualityRating",
              "type": "uint8"
            },
            {
              "internalType": "uint256",
              "name": "timestamp",
              "type": "uint256"
            },
            {
              "internalType": "bytes",
              "name": "signature",
              "type": "bytes"
            }
          ],
          "internalType": "struct FeedbackOracle.FeedbackProof",
          "name": "proof",
          "type": "tuple"
        },
        {
          "internalType": "bytes[]",
          "name": "priceUpdateData",
          "type": "bytes[]"
        }
      ],
      "name": "processFeedback",
      "outputs": [],
      "stateMutability": "payable",
      "type": "function"
    },
    {
      "inputs": [
        {
          "internalType": "bytes32",
          "name": "",
          "type": "bytes32"
        }
      ],
      "name": "processedFeedback",
      "outputs": [
        {
          "internalType": "bool",
          "name": "",
          "type": "bool"
        }
      ],
      "stateMutability": "view",
      "type": "function"
    },
    {
      "inputs": [],
      "name": "pyth",
      "outputs": [
        {
          "internalType": "contract IPyth",
          "name": "",
          "type": "address"
        }
      ],
      "stateMutability": "view",
      "type": "function"
    },
    {
      "inputs": [],
      "name": "qualityThreshold",
      "outputs": [
        {
          "internalType": "uint256",
          "name": "",
          "type": "uint256"
        }
      ],
      "stateMutability": "view",
      "type": "function"
    },
    {
      "inputs": [],
      "name": "renounceOwnership",
      "outputs": [],
      "stateMutability": "nonpayable",
      "type": "function"
    },
    {
      "inputs": [],
      "name": "rewardToken",
      "outputs": [
        {
          "internalType": "contract FeedbackRewardToken",
          "name": "",
          "type": "address"
        }
      ],
      "stateMutability": "view",
      "type": "function"
    },
    {
      "inputs": [
        {
          "internalType": "uint256",
          "name": "newThreshold",
          "type": "uint256"
        }
      ],
      "name": "setQualityThreshold",
      "outputs": [],
      "stateMutability": "nonpayable",
      "type": "function"
    },
    {
      "inputs": [
        {
          "internalType": "address",
          "name": "signer",
          "type": "address"
        },
        {
          "internalType": "bool",
          "name": "authorized",
          "type": "bool"
        }
      ],
      "name": "setSignerAuthorization",
      "outputs": [],
      "stateMutability": "nonpayable",
      "type": "function"
    },
    {
      "inputs": [],
      "name": "skipVerification",
      "outputs": [
        {
          "internalType": "bool",
          "name": "",
          "type": "bool"
        }
      ],
      "stateMutability": "view",
      "type": "function"
    },
    {
      "inputs": [],
      "name": "totalFeedbackProcessed",
      "outputs": [
        {
          "internalType": "uint256",
          "name": "",
          "type": "uint256"
        }
      ],
      "stateMutability": "view",
      "type": "function"
    },
    {
      "inputs": [],
      "name": "totalNativeRewardsDistributed",
      "outputs": [
        {
          "internalType": "uint256",
          "name": "",
          "type": "uint256"
        }
      ],
      "stateMutability": "view",
      "type": "function"
    },
    {
      "inputs": [],
      "name": "totalRewardsDistributedUSD",
      "outputs": [
        {
          "internalType": "uint256",
          "name": "",
          "type": "uint256"
        }
      ],
      "stateMutability": "view",
      "type": "function"
    },
    {
      "inputs": [
        {
          "internalType": "address",
          "name": "newOwner",
          "type": "address"
        }
      ],
      "name": "transferOwnership",
      "outputs": [],
      "stateMutability": "nonpayable",
      "type": "function"
    },
    {
      "inputs": [
        {
          "internalType": "uint256",
          "name": "chainId",
          "type": "uint256"
        },
        {
          "components": [
            {
              "internalType": "uint256",
              "name": "minFeedbackInterval",
              "type": "uint256"
            },
            {
              "internalType": "uint256",
              "name": "maxPriceAge",
              "type": "uint256"
            },
            {
              "internalType": "uint256",
              "name": "baseRewardUSDCents",
              "type": "uint256"
            },
            {
              "internalType": "uint256",
              "name": "qualityBonusUSDCents",
              "type": "uint256"
            },
            {
              "internalType": "bytes32",
              "name": "nativeTokenPriceFeedId",
              "type": "bytes32"
            },
            {
              "internalType": "bool",
              "name": "isActive",
              "type": "bool"
            }
          ],
          "internalType": "struct FeedbackOracle.NetworkConfig",
          "name": "config",
          "type": "tuple"
        }
      ],
      "name": "updateNetworkConfig",
      "outputs": [],
      "stateMutability": "nonpayable",
      "type": "function"
    },
    {
      "inputs": [
        {
          "internalType": "bool",
          "name": "skipVerification_",
          "type": "bool"
        }
      ],
      "name": "updateVerificationSkip",
      "outputs": [],
      "stateMutability": "nonpayable",
      "type": "function"
    },
    {
      "inputs": [
        {
          "internalType": "address",
          "name": "",
          "type": "address"
        }
      ],
      "name": "userFeedbackCount",
      "outputs": [
        {
          "internalType": "uint256",
          "name": "",
          "type": "uint256"
        }
      ],
      "stateMutability": "view",
      "type": "function"
    },
    {
      "inputs": [
        {
          "internalType": "uint256",
          "name": "amount",
          "type": "uint256"
        }
      ],
      "name": "withdrawNativeTokens",
      "outputs": [],
      "stateMutability": "nonpayable",
      "type": "function"
    }
  ],
  "bytecode": "0x60c0346200038a57601f6200288438819003918201601f191683019291906001600160401b038411838510176200038f5781606092849260409687528339810103126200038a576200005181620003c5565b9082602062000062818401620003c5565b926001600160a01b039283916200007a9101620003c5565b169182156200037257600080546001600160a01b031981168517825590939082167f8be0079c531659141344cd1fd0a4f28419497f9722a3daafe3b4186f6b6457e08580a3600193848055600780558160ff19968760085416600855166080521660a052620002ac620000ec620003a5565b600587610e109283815285810190620002208985898b61012c978888526200019281880197856103e89a8b8b52606083019a6101f49b8c815260808501917f2fb245b9a84554a0f15aa123cbb5f64cd263b59e9a80929a2bbb0bc98b40010b835260a08601938c85526102218a5260068b52888a2096518755518c87015551600286015551600385015551600484015551151591019060ff801983541691151516179055565b6200019c620003a5565b948b8652838601908a8252828701918a835260608801938a855260808901957ff2fb7c5e3f75cefc890d52be7c03af6030284137e19d30d54442aca9de250c848752600660a08b0198858a526101288352522097518855519087015551600286015551600385015551600484015551151591019060ff801983541691151516179055565b6200022a620003a5565b9485528685019283528a85019182526060850190815260808501917fe62df6c8b4a85fe1a67db44dc12de5db330f7ac66b72dc658afedf0f4a415b43835260a08601938a8552601f8a52600689528c8a2096518755518a87015551600286015551600385015551600484015551151591019060ff801983541691151516179055565b46825260ff600586842001541615620003615790600685924683525220806009036200031e575b83516124a99081620003db8239608051818181610211015281816106d5015281816112b401526115c5015260a0518181816101c901528181610f8401528181611e870152611ff30152f35b60058160ff93849354600955810154600a556002810154600b556003810154600c556004810154600d55015416151591600e5416911617600e55388080620002d3565b8451637afe43bf60e11b8152600490fd5b8551631e4fbdf760e01b815260006004820152602490fd5b600080fd5b634e487b7160e01b600052604160045260246000fd5b6040519060c082016001600160401b038111838210176200038f57604052565b51906001600160a01b03821682036200038a5756fe6080604052600436101561001257600080fd5b6000803560e01c806315889033146116c05780631bac88cd146114d05780632d37dc781461146257806344fdd0031461143d5780634b0ad05314611404578063560e8191146111525780635d2b6a4e1461111357806363c999c3146110f5578063715018a6146110ad578063741e39ee14611025578063787f75f314610f535780637b68863014610e455780637b99b60314610df55780637e49541a14610dd85780637f20f4a614610db557806384435ae514610d5d5780638da5cb5b14610d365780638e83ca2514610d07578063931afb5e14610ce957806394720dff14610ccb578063a2fa874c14610cad578063a509335214610c74578063b01d0cb914610bed578063b7ab8e1414610b7d578063bd097e2114610b29578063bfc54808146104e6578063c39601f2146104ca578063c6c035b514610493578063cae5880714610457578063cfdbf2541461043b578063d39957c614610373578063db2e21bc14610341578063e5c18684146102d3578063f0167aea146102b6578063f2fde38b14610240578063f7c618c1146101fb5763f98d06f0146101b457600080fd5b346101f857806003193601126101f8576040517f00000000000000000000000000000000000000000000000000000000000000006001600160a01b03168152602090f35b80fd5b50346101f857806003193601126101f8576040517f00000000000000000000000000000000000000000000000000000000000000006001600160a01b03168152602090f35b50346101f85760203660031901126101f85761025a6117af565b6102626117f1565b6001600160a01b0390811690811561029d576000548260018060a01b03198216176000551660008051602061247d833981519152600080a380f35b604051631e4fbdf760e01b815260048101849052602490fd5b50346101f857806003193601126101f85760206040516101288152f35b50346101f85760203660031901126101f8576004356102f06117f1565b80471061032f57815482918291829182916001600160a01b03165af161031461231a565b501561031d5780f35b604051633d2cec6f60e21b8152600490fd5b60405163786e0a9960e01b8152600490fd5b50346101f857806003193601126101f85761035a6117f1565b808080804760018060a01b038254165af161031461231a565b50346101f85760203660031901126101f85760408160c09260a083516103988161189a565b8281528260208201528285820152826060820152826080820152015260043581526006602052206040516103cb8161189a565b8154918282526001810154602083019081526002820154604084019081526003830154916060850192835260a060ff6005600487015496608089019788520154169501941515855260405195865251602086015251604085015251606084015251608083015251151560a0820152f35b50346101f857806003193601126101f857602060405160648152f35b50346101f857806003193601126101f857600954600a549061048f600b54600c54600d549060ff600e541692604051968796876117c5565b0390f35b50346101f857806003193601126101f8576080600f5460105460115460075491604051938452602084015260408301526060820152f35b50346101f857806003193601126101f8576020604051601f8152f35b506104f03661172f565b906104f96119e9565b6105038380611a0c565b80939150158015610b1f575b610b0d5761051d8480611a0c565b905061052c6020860186611a0c565b91905014801590610ae9575b8015610ac5575b610ab35761054d8480611a0c565b61055d6020879593950187611a0c565b9190948861056e60408a018a611a0c565b91909761057e60608c018c611a0c565b969094604051968060a08901608060208b01525260c08801919085905b808210610a7d57505050601f198782030160408801528181526020810160208360051b830101938095925b848410610a45575050505050848103601f1901606086015282815260200197918b91505b808210610a1b57505050818603601f190160808301528286526001600160fb1b038311610a1757602082610638926106619861065c9660059c9b9c1b809285830137010380845201826118d0565b6020815191012061065661064f608088018861183f565b369161190e565b90611d07565b611e64565b9161066b81611a41565b61067860405191826118d0565b818152601f1961068783611a41565b0136602083013761069782611a41565b906106a560405192836118d0565b828252601f196106b484611a41565b013660208401378593869587915b85831061084357506001600160a01b03937f00000000000000000000000000000000000000000000000000000000000000008516939092509050823b1561083f5790879392916040519363573c11a160e11b85526044850160406004870152825180915260206064870193019187905b828210610820575050505060031984820301602485015260208083519283815201920190855b818110610805575050508391838381809403925af180156107fa576107e2575b50506107d87fa64f4980a79d096f7d5abf84ae97bbc1e0d84456323d438560dab7f86a29021d936107ab83600f5461196a565b600f556107ba8460105461196a565b6010556107c98160115461196a565b60115560405193849384611799565b0390a16001805580f35b6107eb90611871565b6107f6578338610778565b8380fd5b6040513d84823e3d90fd5b8251151584528a965060209384019390920191600101610758565b8351811685528c98506020948501949093019260019190910190610732565b8780fd5b9091969561086361085e896108588580611a0c565b90611a58565b61181d565b906108716020840184611a0c565b8a1015610a035761064f61088b918b60051b81019061183f565b6108a461089f8b6108586040880188611a0c565b611831565b6108b58b6108586060880188611a0c565b35916001600160a01b038516156109d25760ff82161580156109f6575b6109e4574283116109d2578c926108e99186611a92565b8252600360205260408220805460ff81166109c257896109b596948a8f61097b906109a9976109af9a97600161098f9860ff191617905560018060a01b038a16855260046020526040852061093e8154611945565b905560018060a01b038a168552600560205242604086205560ff600754911610159485936109758360018060a01b038d1692611a7e565b52611a7e565b52600b5491156109bc5750600c549061196a565b906109a461099d838a6121f6565b809561234a565b61196a565b9861196a565b97611945565b91906106c2565b9061196a565b5050505096976109b59150611945565b6040516309bde33960e01b8152600490fd5b60405163446a24d560e01b8152600490fd5b50600a60ff8316116108d2565b634e487b7160e01b8b52603260045260248bfd5b8880fd5b90919788359060ff8216809203610a40576020816001938293520199019201906105ea565b600080fd5b9091929394602080610a6c600193601f19868203018852610a668b88611af8565b90611992565b9801940194019295949391906105c6565b9195509293929185356001600160a01b0381169190829003610a405760208160019382935201960192018f95929194939461059b565b60405163512509d360e11b8152600490fd5b50610ad08480611a0c565b9050610adf6060860186611a0c565b919050141561053f565b50610af48480611a0c565b9050610b036040860186611a0c565b9190501415610538565b60405163abcf3d2360e01b8152600490fd5b506064831161050f565b50806003193601126101f8573415610b3e5780f35b60405162461bcd60e51b81526020600482015260176024820152764d7573742073656e64206e617469766520746f6b656e7360481b6044820152606490fd5b50346101f85760203660031901126101f8576001600160a01b03610b9f6117af565b16908181526005602052604081205491610bbb6009548461196a565b90825260046020526040909120549042811115610be35761048f905b60405193849384611799565b5061048f42610bd7565b50346101f85760603660031901126101f857610c076117af565b6001600160401b03906024358281116107f657366023820112156107f65780600401359283116107f65736602484830101116107f65792610c6160ff93604093610c5b60209760443593602436920161190e565b90611a92565b8152600384522054166040519015158152f35b50346101f85760203660031901126101f8576020906040906001600160a01b03610c9c6117af565b168152600583522054604051908152f35b50346101f857806003193601126101f8576020601154604051908152f35b50346101f857806003193601126101f8576020601054604051908152f35b50346101f857806003193601126101f8576020600f54604051908152f35b50346101f85760203660031901126101f85760ff60406020926004358152600384522054166040519015158152f35b50346101f857806003193601126101f857546040516001600160a01b039091168152602090f35b50346101f85760603660031901126101f85760043560ff81168103610a4057602435908160070b8203610db157604435928360030b84036101f8576040610da585858561239f565b82519182526020820152f35b8280fd5b50346101f857806003193601126101f857602060ff600854166040519015158152f35b50346101f857806003193601126101f85760206040516102218152f35b50346101f85760203660031901126101f8576040906004358152600660205220805461048f600183015492600281015490600381015460ff600560048401549301541692604051968796876117c5565b50346101f85760e03660031901126101f85760043560c0366023190112610f4f57610e6e6117f1565b80825260066020526040822090602435908183556044359182600185015560643580600286015560843580600387015560a4359182600488015560c4359586151594858803610f4b57610ef360e09860057f97bcb43847156fcd0d092414ef8126ed1c00632cdd19fda8552f99521296422a9b019060ff801983541691151516179055565b468714610f23575b604051968752602087015260408601526060850152608084015260a083015260c0820152a180f35b8060095581600a5582600b5583600c5584600d5560ff19600e541660ff871617600e55610efb565b8980fd5b5080fd5b50346101f857806003193601126101f857600d546040516396834ad360e01b815260048101919091526080816024817f00000000000000000000000000000000000000000000000000000000000000006001600160a01b03165afa9081156107fa5760809291610ff8575b50805160070b9060018060401b03602082015116906060604082015160030b91015191604051938452602084015260408301526060820152f35b6110189150823d811161101e575b61101081836118d0565b810190611e02565b38610fbe565b503d611006565b50346101f85760403660031901126101f85761103f6117af565b6024359081151590818303610a40577fd71d7c88579d0d5858da8cb9f6c4ce94826a5391ff03edf44f6a431180a1a6f5916110a360209261107e6117f1565b60018060a01b03169485875260028452604087209060ff801983541691151516179055565b604051908152a280f35b50346101f857806003193601126101f8576110c66117f1565b600080546001600160a01b0319811682556001600160a01b031660008051602061247d8339815191528280a380f35b50346101f857806003193601126101f8576020600754604051908152f35b50346101f85760203660031901126101f85760209060ff906040906001600160a01b0361113e6117af565b168152600284522054166040519015158152f35b5061115c3661172f565b916111656119e9565b6001600160a01b0390816111788261181d565b16156109d257604081019360ff61118e86611831565b161580156113ef575b6109e4576060820135934285116109d257836111b28461181d565b168752602060058152604088205442034281116113db57600954116113c9576111ef6111dd8561181d565b9682860197610c5b61064f8a8961183f565b928389526003825260ff60408a2054166113b75760059261122c916112148688611b2a565b61121d8a611831565b60ff6007549116101591611d49565b9288526003815260408820805460ff191660011790558461124c8561181d565b16885260048152604088206112618154611945565b90558461126d8561181d565b16885252426040872055611282600f54611945565b600f5561128e85611831565b60ff60075491161015906112af600b54836000146113b057600c549061196a565b9487857f0000000000000000000000000000000000000000000000000000000000000000166112dd8661181d565b90803b15610db1578583916113099383604051809681958294633ce5224560e21b845260048401611977565b03925af180156107fa57611396575b50509060008051602061245d8339815191529561137d61137561138c9594611348856113438a61181d565b61234a565b6113548460105461196a565b6010556113638560115461196a565b60115561136f8861181d565b9761183f565b919099611831565b906040519788971699876119b3565b0390a26001805580f35b6113a39094939294611871565b61083f5790918738611318565b889061196a565b604051634f7ae51160e01b8152600490fd5b60405163a74c1c5f60e01b8152600490fd5b634e487b7160e01b89526011600452602489fd5b50600a60ff6113fd87611831565b1611611197565b50346101f85760203660031901126101f8576020906040906001600160a01b0361142c6117af565b168152600483522054604051908152f35b50346101f857806003193601126101f8574760115461048f6040519283928184611799565b50346101f85760203660031901126101f85760043561147f6117f1565b801580156114c6575b6109e45760407feb9922e3ed7835455c0b321d214f497e036d91a33d2e9883f5224484432a07ca91600754908060075582519182526020820152a180f35b50600a8111611488565b506114da3661172f565b9092916114e56119e9565b6001600160a01b0390816114f88261181d565b1633036109d2576115088161181d565b9461152d610c5b602084019761151e898661183f565b9290606087013593369161190e565b90818652600360205260ff6040872054166113b75761155e906115508385611b2a565b604084019561121d87611831565b908552600360205260408520805460ff191660011790558261157f8361181d565b1685526004602052604085206115958154611945565b9055826115a18361181d565b16855260056020524260408620556115b884611831565b60ff6007549116101590837f0000000000000000000000000000000000000000000000000000000000000000166115ee8461181d565b813b1561083f578361161992899283604051809681958294633ce5224560e21b845260048401611977565b03925af180156116b55761168c575b50908160008051602061245d83398151915295969761164d61138c946113438761181d565b61137d61137561166a600b548660001461168557600c549061196a565b92611676600f54611945565b600f556113548460105461196a565b8c9061196a565b9060008051602061245d83398151915295966116ab61138c9493611871565b9695509091611628565b6040513d89823e3d90fd5b50346101f85760203660031901126101f857600435801515809103610f4f5760407f01378e60fc17f5a50bd556e4ab5d8a2c49c158253aaae22b808774bf3b370a729161170b6117f1565b60ff600854911660ff1982161760085560ff8251911615158152336020820152a180f35b9060031990604082840112610a40576001600160401b039160043590838211610a405760a0908286030112610a40576004019260243590838211610a405780602383011215610a40578160040135938411610a405760248460051b83010111610a40576024019190565b6040919493926060820195825260208201520152565b600435906001600160a01b0382168203610a4057565b94919260a0949197969360c0870198875260208701526040860152606085015260808401521515910152565b6000546001600160a01b0316330361180557565b60405163118cdaa760e01b8152336004820152602490fd5b356001600160a01b0381168103610a405790565b3560ff81168103610a405790565b903590601e1981360301821215610a4057018035906001600160401b038211610a4057602001918136038313610a4057565b6001600160401b03811161188457604052565b634e487b7160e01b600052604160045260246000fd5b60c081019081106001600160401b0382111761188457604052565b608081019081106001600160401b0382111761188457604052565b601f909101601f19168101906001600160401b0382119082101761188457604052565b6001600160401b03811161188457601f01601f191660200190565b92919261191a826118f3565b9161192860405193846118d0565b829481845281830111610a40578281602093846000960137010152565b60001981146119545760010190565b634e487b7160e01b600052601160045260246000fd5b9190820180921161195457565b6001600160a01b039091168152901515602082015260400190565b908060209392818452848401376000828201840152601f01601f1916010190565b94916119d16080959260ff929998959960a0895260a0890191611992565b97166020860152604085015260608401521515910152565b6002600154146119fa576002600155565b604051633ee5aeb560e01b8152600490fd5b903590601e1981360301821215610a4057018035906001600160401b038211610a4057602001918160051b36038313610a4057565b6001600160401b0381116118845760051b60200190565b9190811015611a685760051b0190565b634e487b7160e01b600052603260045260246000fd5b8051821015611a685760209160051b010190565b91604051809260208083019560018060601b03199060601b16865281519160005b838110611ae15750505090611adb9260549282019060348201520360348101845201826118d0565b51902090565b818101830151878201603401528694508201611ab3565b9035601e1982360301811215610a40570160208101919035906001600160401b038211610a40578136038313610a4057565b9060ff60085416611bbc57611b8891611b7f917b0ca2ba3432b932bab69029b4b3b732b21026b2b9b9b0b3b29d05199960211b600052601c52611b7961064f603c60002092608081019061183f565b90611bc0565b90929192611c82565b6001600160a01b031660009081526002602052604090205460ff1615611baa57565b604051636518c33d60e11b8152600490fd5b5050565b8151919060418303611bf157611bea92506020820151906060604084015193015160001a90611bfc565b9192909190565b505060009160029190565b91906fa2a8918ca85bafe22016d0b997e4df60600160ff1b038411611c7657926020929160ff608095604051948552168484015260408301526060820152600092839182805260015afa15611c6a5780516001600160a01b03811615611c6157918190565b50809160019190565b604051903d90823e3d90fd5b50505060009160039190565b6004811015611cf15780611c94575050565b60018103611cae5760405163f645eedf60e01b8152600490fd5b60028103611ccf5760405163fce698f760e01b815260048101839052602490fd5b600314611cd95750565b602490604051906335e2f38360e21b82526004820152fd5b634e487b7160e01b600052602160045260246000fd5b60ff60085416611bbc57611b8891611b7f917b0ca2ba3432b932bab69029b4b3b732b21026b2b9b9b0b3b29d05199960211b600052601c52603c600020611bc0565b611d5a611d779392611d7192611e64565b600b549092600090156109bc5750600c549061196a565b906121f6565b90565b60405190611d87826118b5565b60006060838281528260208201528260408201520152565b9160208181850182865252604084019360408360051b82010194846000925b858410611dcf575050505050505090565b909192939495968580611df1600193603f19868203018852610a668c88611af8565b990194019401929594939190611dbe565b90816080910312610a405760405190611e1a826118b5565b80518060070b8103610a4057825260208101516001600160401b0381168103610a405760208301526040810151908160030b8203610a405760609160408401520151606082015290565b611e6c611d7a565b50601f4614611fdd576040805163d47eed4560e01b815290927f00000000000000000000000000000000000000000000000000000000000000006001600160a01b03169260208380611ec2858560048401611d9f565b0381875afa908115611fd2576000938492611f9f575b50813410611f8e57843b156107f657918391611f09938751809581948293631df3cbc560e31b845260048401611d9f565b0391875af18015611f8457611f75575b506080600d546044600a54918651958693849263052571af60e51b8452600484015260248301525afa928315611f6b575091611f53575090565b611d77915060803d811161101e5761101081836118d0565b51903d90823e3d90fd5b611f7e90611871565b38611f19565b84513d84823e3d90fd5b8551630ad461a960e21b8152600490fd5b9091506020813d8211611fca575b81611fba602093836118d0565b810103126107f657519038611ed8565b3d9150611fad565b85513d6000823e3d90fd5b611d7791611fe9611d7a565b5060018060a01b037f000000000000000000000000000000000000000000000000000000000000000016600d549260006040938451956396834ad360e01b875260048701526080928387602481885afa8097849861217b575b5061207e575b5050505050809150519061205b826118b5565b6509184e72a00082526305f5e10060208301526007199082015242606082015290565b8683815160070b13908161216b575b8161215d575b501561204857816120a8575b50505050505090565b843b15610db1578551631df3cbc560e31b815292918291849182916120d1919060048401611d9f565b038134885af1918261214e575b50906120ec575b808061209f565b908092939450600d546044600a54918751968793849263052571af60e51b8452600484015260248301525afa938415611f6b575092612131575b5050388080806120e5565b6121479250803d1061101e5761101081836118d0565b3880612126565b61215790611871565b386120de565b606091500151151538612093565b8781015160030b1515915061208d565b612193919850853d871161101e5761101081836118d0565b9638612042565b60030b637fffffff1981146119545760000390565b63ffffffff16604d811161195457600a0a90565b8181029291811591840414171561195457565b81156121e0570490565b634e487b7160e01b600052601260045260246000fd5b9190604083519301518060030b90600094858160070b1315612308576001600160401b031691858112612299575081606402916064830403612285579061224561224b9263ffffffff166121af565b906121c3565b90670de0b6b3a76400009081810291818304149015171561227157611d779293506121d6565b634e487b7160e01b84526011600452602484fd5b634e487b7160e01b85526011600452602485fd5b6122b791506122ac90959392949561219a565b63ffffffff166121af565b91836064029360648504036122f457670de0b6b3a7640000918281029281840414901517156122f45750611d7792916122ef916121c3565b6121d6565b634e487b7160e01b81526011600452602490fd5b6040516352cc3f7d60e01b8152600490fd5b3d15612345573d9061232b826118f3565b9161233960405193846118d0565b82523d6000602084013e565b606090565b81471061032f576001600160a01b031690600080808084865af161236c61231a565b501561031d5760207f42dae7ecbd6480f4668be8482b87dd535b1e94c76b10f9c324e2bca24f10f71b91604051908152a2565b600b54919392916123c391600090600760ff909116106109bc5750600c549061196a565b9260070b90600082131561240057611d77918491604051916123e4836118b5565b82526000602083015260030b6040820152426060820152612407565b5050600090565b9190604083519301518060030b90600094858160070b1315612456576001600160401b031691858112612299575081606402916064830403612285579061224561224b9263ffffffff166121af565b5050505056fe525aa383e9da52014b1fa10a35ab6b1ec0785574d6dc1f97a9ee373e981e74508be0079c531659141344cd1fd0a4f28419497f9722a3daafe3b4186f6b6457e0a164736f6c6343000814000a",
  "linkReferences": {},
  "deployedLinkReferences": {}
}