{
  "_format": "hh-sol-artifact-1",
  "contractName": "FeedbackOracle",
  "sourceName": "contracts/FeedbackOracle.sol",
  "abi": [
    {
      "inputs": [
        {
          "internalType": "address",
          "name": "rewardToken_",
          "type": "address"
        },
        {
          "internalType": "address",
          "name": "pythContract_",
          "type": "address"
        },
        {
          "internalType": "bytes32",
          "name": "nativeTokenPriceFeedId_",
          "type": "bytes32"
        },
        {
          "internalType": "address",
          "name": "owner_",
          "type": "address"
        }
      ],
      "stateMutability": "nonpayable",
      "type": "constructor"
    },
    {
      "inputs": [],
      "name": "ArrayLengthMismatch",
      "type": "error"
    },
    {
      "inputs": [],
      "name": "BatchSizeExceeded",
      "type": "error"
    },
    {
      "inputs": [],
      "name": "ECDSAInvalidSignature",
      "type": "error"
    },
    {
      "inputs": [
        {
          "internalType": "uint256",
          "name": "length",
          "type": "uint256"
        }
      ],
      "name": "ECDSAInvalidSignatureLength",
      "type": "error"
    },
    {
      "inputs": [
        {
          "internalType": "bytes32",
          "name": "s",
          "type": "bytes32"
        }
      ],
      "name": "ECDSAInvalidSignatureS",
      "type": "error"
    },
    {
      "inputs": [],
      "name": "FeedbackAlreadyProcessed",
      "type": "error"
    },
    {
      "inputs": [],
      "name": "InsufficientContractBalance",
      "type": "error"
    },
    {
      "inputs": [],
      "name": "InvalidPriceFeed",
      "type": "error"
    },
    {
      "inputs": [],
      "name": "InvalidProof",
      "type": "error"
    },
    {
      "inputs": [],
      "name": "InvalidQualityRating",
      "type": "error"
    },
    {
      "inputs": [],
      "name": "InvalidSignature",
      "type": "error"
    },
    {
      "inputs": [],
      "name": "NativeTransferFailed",
      "type": "error"
    },
    {
      "inputs": [
        {
          "internalType": "address",
          "name": "owner",
          "type": "address"
        }
      ],
      "name": "OwnableInvalidOwner",
      "type": "error"
    },
    {
      "inputs": [
        {
          "internalType": "address",
          "name": "account",
          "type": "address"
        }
      ],
      "name": "OwnableUnauthorizedAccount",
      "type": "error"
    },
    {
      "inputs": [],
      "name": "PriceUpdateFailed",
      "type": "error"
    },
    {
      "inputs": [],
      "name": "RateLimitExceeded",
      "type": "error"
    },
    {
      "inputs": [],
      "name": "ReentrancyGuardReentrantCall",
      "type": "error"
    },
    {
      "inputs": [],
      "name": "UnauthorizedSigner",
      "type": "error"
    },
    {
      "anonymous": false,
      "inputs": [
        {
          "indexed": false,
          "internalType": "uint256",
          "name": "count",
          "type": "uint256"
        },
        {
          "indexed": false,
          "internalType": "uint256",
          "name": "totalRewardsUSD",
          "type": "uint256"
        },
        {
          "indexed": false,
          "internalType": "uint256",
          "name": "totalRewardsNative",
          "type": "uint256"
        }
      ],
      "name": "BatchFeedbackProcessed",
      "type": "event"
    },
    {
      "anonymous": false,
      "inputs": [
        {
          "indexed": true,
          "internalType": "address",
          "name": "user",
          "type": "address"
        },
        {
          "indexed": false,
          "internalType": "string",
          "name": "feedbackId",
          "type": "string"
        },
        {
          "indexed": false,
          "internalType": "uint8",
          "name": "qualityRating",
          "type": "uint8"
        },
        {
          "indexed": false,
          "internalType": "uint256",
          "name": "rewardAmountUSD",
          "type": "uint256"
        },
        {
          "indexed": false,
          "internalType": "uint256",
          "name": "rewardAmountNative",
          "type": "uint256"
        },
        {
          "indexed": false,
          "internalType": "bool",
          "name": "qualityBonus",
          "type": "bool"
        }
      ],
      "name": "FeedbackProcessed",
      "type": "event"
    },
    {
      "anonymous": false,
      "inputs": [
        {
          "indexed": true,
          "internalType": "address",
          "name": "user",
          "type": "address"
        },
        {
          "indexed": false,
          "internalType": "uint256",
          "name": "amount",
          "type": "uint256"
        }
      ],
      "name": "NativeRewardSent",
      "type": "event"
    },
    {
      "anonymous": false,
      "inputs": [
        {
          "indexed": true,
          "internalType": "address",
          "name": "previousOwner",
          "type": "address"
        },
        {
          "indexed": true,
          "internalType": "address",
          "name": "newOwner",
          "type": "address"
        }
      ],
      "name": "OwnershipTransferred",
      "type": "event"
    },
    {
      "anonymous": false,
      "inputs": [
        {
          "indexed": false,
          "internalType": "bytes32",
          "name": "oldFeedId",
          "type": "bytes32"
        },
        {
          "indexed": false,
          "internalType": "bytes32",
          "name": "newFeedId",
          "type": "bytes32"
        }
      ],
      "name": "PriceFeedUpdated",
      "type": "event"
    },
    {
      "anonymous": false,
      "inputs": [
        {
          "indexed": false,
          "internalType": "uint256",
          "name": "oldThreshold",
          "type": "uint256"
        },
        {
          "indexed": false,
          "internalType": "uint256",
          "name": "newThreshold",
          "type": "uint256"
        }
      ],
      "name": "QualityThresholdUpdated",
      "type": "event"
    },
    {
      "anonymous": false,
      "inputs": [
        {
          "indexed": true,
          "internalType": "address",
          "name": "signer",
          "type": "address"
        },
        {
          "indexed": false,
          "internalType": "bool",
          "name": "authorized",
          "type": "bool"
        }
      ],
      "name": "SignerAuthorized",
      "type": "event"
    },
    {
      "inputs": [],
      "name": "BASE_REWARD_USD_CENTS",
      "outputs": [
        {
          "internalType": "uint256",
          "name": "",
          "type": "uint256"
        }
      ],
      "stateMutability": "view",
      "type": "function"
    },
    {
      "inputs": [],
      "name": "MAX_BATCH_SIZE",
      "outputs": [
        {
          "internalType": "uint256",
          "name": "",
          "type": "uint256"
        }
      ],
      "stateMutability": "view",
      "type": "function"
    },
    {
      "inputs": [],
      "name": "MAX_PRICE_AGE",
      "outputs": [
        {
          "internalType": "uint256",
          "name": "",
          "type": "uint256"
        }
      ],
      "stateMutability": "view",
      "type": "function"
    },
    {
      "inputs": [],
      "name": "MIN_FEEDBACK_INTERVAL",
      "outputs": [
        {
          "internalType": "uint256",
          "name": "",
          "type": "uint256"
        }
      ],
      "stateMutability": "view",
      "type": "function"
    },
    {
      "inputs": [],
      "name": "QUALITY_BONUS_USD_CENTS",
      "outputs": [
        {
          "internalType": "uint256",
          "name": "",
          "type": "uint256"
        }
      ],
      "stateMutability": "view",
      "type": "function"
    },
    {
      "inputs": [
        {
          "internalType": "address",
          "name": "",
          "type": "address"
        }
      ],
      "name": "authorizedSigners",
      "outputs": [
        {
          "internalType": "bool",
          "name": "",
          "type": "bool"
        }
      ],
      "stateMutability": "view",
      "type": "function"
    },
    {
      "inputs": [
        {
          "internalType": "uint8",
          "name": "qualityRating",
          "type": "uint8"
        },
        {
          "internalType": "int64",
          "name": "nativeTokenPrice",
          "type": "int64"
        },
        {
          "internalType": "int32",
          "name": "expo",
          "type": "int32"
        }
      ],
      "name": "calculateRewardAmount",
      "outputs": [
        {
          "internalType": "uint256",
          "name": "usdRewardCents",
          "type": "uint256"
        },
        {
          "internalType": "uint256",
          "name": "nativeTokenAmount",
          "type": "uint256"
        }
      ],
      "stateMutability": "view",
      "type": "function"
    },
    {
      "inputs": [
        {
          "components": [
            {
              "internalType": "address",
              "name": "user",
              "type": "address"
            },
            {
              "internalType": "string",
              "name": "feedbackId",
              "type": "string"
            },
            {
              "internalType": "uint8",
              "name": "qualityRating",
              "type": "uint8"
            },
            {
              "internalType": "uint256",
              "name": "timestamp",
              "type": "uint256"
            },
            {
              "internalType": "bytes",
              "name": "signature",
              "type": "bytes"
            }
          ],
          "internalType": "struct FeedbackOracle.FeedbackProof",
          "name": "proof",
          "type": "tuple"
        },
        {
          "internalType": "bytes[]",
          "name": "priceUpdateData",
          "type": "bytes[]"
        }
      ],
      "name": "claimFeedbackReward",
      "outputs": [],
      "stateMutability": "payable",
      "type": "function"
    },
    {
      "inputs": [],
      "name": "emergencyWithdraw",
      "outputs": [],
      "stateMutability": "nonpayable",
      "type": "function"
    },
    {
      "inputs": [],
      "name": "fundContract",
      "outputs": [],
      "stateMutability": "payable",
      "type": "function"
    },
    {
      "inputs": [],
      "name": "getContractFunding",
      "outputs": [
        {
          "internalType": "uint256",
          "name": "nativeBalance",
          "type": "uint256"
        },
        {
          "internalType": "uint256",
          "name": "totalDistributedNative",
          "type": "uint256"
        },
        {
          "internalType": "uint256",
          "name": "remainingFunding",
          "type": "uint256"
        }
      ],
      "stateMutability": "view",
      "type": "function"
    },
    {
      "inputs": [],
      "name": "getCurrentNativeTokenPrice",
      "outputs": [
        {
          "internalType": "int64",
          "name": "price",
          "type": "int64"
        },
        {
          "internalType": "uint64",
          "name": "conf",
          "type": "uint64"
        },
        {
          "internalType": "int32",
          "name": "expo",
          "type": "int32"
        },
        {
          "internalType": "uint256",
          "name": "publishTime",
          "type": "uint256"
        }
      ],
      "stateMutability": "view",
      "type": "function"
    },
    {
      "inputs": [],
      "name": "getOracleStats",
      "outputs": [
        {
          "internalType": "uint256",
          "name": "totalProcessed",
          "type": "uint256"
        },
        {
          "internalType": "uint256",
          "name": "totalRewardsUSD",
          "type": "uint256"
        },
        {
          "internalType": "uint256",
          "name": "totalRewardsNative",
          "type": "uint256"
        },
        {
          "internalType": "uint256",
          "name": "currentThreshold",
          "type": "uint256"
        }
      ],
      "stateMutability": "view",
      "type": "function"
    },
    {
      "inputs": [
        {
          "internalType": "address",
          "name": "user",
          "type": "address"
        }
      ],
      "name": "getUserFeedbackStats",
      "outputs": [
        {
          "internalType": "uint256",
          "name": "feedbackCount",
          "type": "uint256"
        },
        {
          "internalType": "uint256",
          "name": "lastFeedback",
          "type": "uint256"
        },
        {
          "internalType": "uint256",
          "name": "nextAllowedFeedback",
          "type": "uint256"
        }
      ],
      "stateMutability": "view",
      "type": "function"
    },
    {
      "inputs": [
        {
          "internalType": "address",
          "name": "user",
          "type": "address"
        },
        {
          "internalType": "string",
          "name": "feedbackId",
          "type": "string"
        },
        {
          "internalType": "uint256",
          "name": "timestamp",
          "type": "uint256"
        }
      ],
      "name": "isFeedbackProcessed",
      "outputs": [
        {
          "internalType": "bool",
          "name": "",
          "type": "bool"
        }
      ],
      "stateMutability": "view",
      "type": "function"
    },
    {
      "inputs": [
        {
          "internalType": "address",
          "name": "",
          "type": "address"
        }
      ],
      "name": "lastFeedbackTime",
      "outputs": [
        {
          "internalType": "uint256",
          "name": "",
          "type": "uint256"
        }
      ],
      "stateMutability": "view",
      "type": "function"
    },
    {
      "inputs": [],
      "name": "nativeTokenPriceFeedId",
      "outputs": [
        {
          "internalType": "bytes32",
          "name": "",
          "type": "bytes32"
        }
      ],
      "stateMutability": "view",
      "type": "function"
    },
    {
      "inputs": [],
      "name": "owner",
      "outputs": [
        {
          "internalType": "address",
          "name": "",
          "type": "address"
        }
      ],
      "stateMutability": "view",
      "type": "function"
    },
    {
      "inputs": [
        {
          "components": [
            {
              "internalType": "address[]",
              "name": "users",
              "type": "address[]"
            },
            {
              "internalType": "string[]",
              "name": "feedbackIds",
              "type": "string[]"
            },
            {
              "internalType": "uint8[]",
              "name": "qualityRatings",
              "type": "uint8[]"
            },
            {
              "internalType": "uint256[]",
              "name": "timestamps",
              "type": "uint256[]"
            },
            {
              "internalType": "bytes",
              "name": "signature",
              "type": "bytes"
            }
          ],
          "internalType": "struct FeedbackOracle.BatchFeedbackProof",
          "name": "batchProof",
          "type": "tuple"
        },
        {
          "internalType": "bytes[]",
          "name": "priceUpdateData",
          "type": "bytes[]"
        }
      ],
      "name": "processBatchFeedback",
      "outputs": [],
      "stateMutability": "payable",
      "type": "function"
    },
    {
      "inputs": [
        {
          "components": [
            {
              "internalType": "address",
              "name": "user",
              "type": "address"
            },
            {
              "internalType": "string",
              "name": "feedbackId",
              "type": "string"
            },
            {
              "internalType": "uint8",
              "name": "qualityRating",
              "type": "uint8"
            },
            {
              "internalType": "uint256",
              "name": "timestamp",
              "type": "uint256"
            },
            {
              "internalType": "bytes",
              "name": "signature",
              "type": "bytes"
            }
          ],
          "internalType": "struct FeedbackOracle.FeedbackProof",
          "name": "proof",
          "type": "tuple"
        },
        {
          "internalType": "bytes[]",
          "name": "priceUpdateData",
          "type": "bytes[]"
        }
      ],
      "name": "processFeedback",
      "outputs": [],
      "stateMutability": "payable",
      "type": "function"
    },
    {
      "inputs": [
        {
          "internalType": "bytes32",
          "name": "",
          "type": "bytes32"
        }
      ],
      "name": "processedFeedback",
      "outputs": [
        {
          "internalType": "bool",
          "name": "",
          "type": "bool"
        }
      ],
      "stateMutability": "view",
      "type": "function"
    },
    {
      "inputs": [],
      "name": "pyth",
      "outputs": [
        {
          "internalType": "contract IPyth",
          "name": "",
          "type": "address"
        }
      ],
      "stateMutability": "view",
      "type": "function"
    },
    {
      "inputs": [],
      "name": "qualityThreshold",
      "outputs": [
        {
          "internalType": "uint256",
          "name": "",
          "type": "uint256"
        }
      ],
      "stateMutability": "view",
      "type": "function"
    },
    {
      "inputs": [],
      "name": "renounceOwnership",
      "outputs": [],
      "stateMutability": "nonpayable",
      "type": "function"
    },
    {
      "inputs": [],
      "name": "rewardToken",
      "outputs": [
        {
          "internalType": "contract FeedbackRewardToken",
          "name": "",
          "type": "address"
        }
      ],
      "stateMutability": "view",
      "type": "function"
    },
    {
      "inputs": [
        {
          "internalType": "bytes32",
          "name": "newPriceFeedId",
          "type": "bytes32"
        }
      ],
      "name": "setPriceFeedId",
      "outputs": [],
      "stateMutability": "nonpayable",
      "type": "function"
    },
    {
      "inputs": [
        {
          "internalType": "uint256",
          "name": "newThreshold",
          "type": "uint256"
        }
      ],
      "name": "setQualityThreshold",
      "outputs": [],
      "stateMutability": "nonpayable",
      "type": "function"
    },
    {
      "inputs": [
        {
          "internalType": "address",
          "name": "signer",
          "type": "address"
        },
        {
          "internalType": "bool",
          "name": "authorized",
          "type": "bool"
        }
      ],
      "name": "setSignerAuthorization",
      "outputs": [],
      "stateMutability": "nonpayable",
      "type": "function"
    },
    {
      "inputs": [],
      "name": "totalFeedbackProcessed",
      "outputs": [
        {
          "internalType": "uint256",
          "name": "",
          "type": "uint256"
        }
      ],
      "stateMutability": "view",
      "type": "function"
    },
    {
      "inputs": [],
      "name": "totalNativeRewardsDistributed",
      "outputs": [
        {
          "internalType": "uint256",
          "name": "",
          "type": "uint256"
        }
      ],
      "stateMutability": "view",
      "type": "function"
    },
    {
      "inputs": [],
      "name": "totalRewardsDistributedUSD",
      "outputs": [
        {
          "internalType": "uint256",
          "name": "",
          "type": "uint256"
        }
      ],
      "stateMutability": "view",
      "type": "function"
    },
    {
      "inputs": [
        {
          "internalType": "address",
          "name": "newOwner",
          "type": "address"
        }
      ],
      "name": "transferOwnership",
      "outputs": [],
      "stateMutability": "nonpayable",
      "type": "function"
    },
    {
      "inputs": [
        {
          "internalType": "address",
          "name": "",
          "type": "address"
        }
      ],
      "name": "userFeedbackCount",
      "outputs": [
        {
          "internalType": "uint256",
          "name": "",
          "type": "uint256"
        }
      ],
      "stateMutability": "view",
      "type": "function"
    },
    {
      "inputs": [
        {
          "internalType": "uint256",
          "name": "amount",
          "type": "uint256"
        }
      ],
      "name": "withdrawNativeTokens",
      "outputs": [],
      "stateMutability": "nonpayable",
      "type": "function"
    }
  ],
  "bytecode": "0x60c0346200013657601f620021fb38819003918201601f19168301916001600160401b038311848410176200013b5780849260809460405283398101031262000136576200004d8162000151565b9060606200005e6020830162000151565b6040830151926001600160a01b039283916200007b910162000151565b169384156200011d57600080546001600160a01b03198116871782556040519685939290918416907f8be0079c531659141344cd1fd0a4f28419497f9722a3daafe3b4186f6b6457e09080a3600180556007600655166080521660a05260075561209490816200016782396080518181816101f0015281816105da015281816110e401526114c9015260a0518181816101a801528181610d8a0152611c3a0152f35b604051631e4fbdf760e01b815260006004820152602490fd5b600080fd5b634e487b7160e01b600052604160045260246000fd5b51906001600160a01b0382168203620001365756fe6080604052600436101561001257600080fd5b6000803560e01c80631bac88cd146113d657806325df52e31461138057806329e6aec8146113635780632d37dc78146112f5578063339b23f1146112d857806344fdd003146112a25780634b0ad05314611269578063560e819114610f805780635d2b6a4e14610f41578063627eff9e14610f2357806363c999c314610f05578063715018a614610eab578063741e39ee14610e2c578063787f75f314610d5957806384435ae514610d015780638da5cb5b14610cda5780638e83ca2514610cab578063931afb5e14610c8d57806394720dff14610c6f5780639d7f7e8614610c52578063a2fa874c14610c34578063a509335214610bfb578063b01d0cb914610b74578063b663abad14610b57578063b7ab8e1414610abe578063bd097e2114610a64578063bfc54808146103a2578063c6c035b51461036b578063cfdbf2541461034f578063db2e21bc1461031d578063e5c18684146102af578063f2fde38b1461021f578063f7c618c1146101da5763f98d06f01461019357600080fd5b346101d757806003193601126101d7576040517f00000000000000000000000000000000000000000000000000000000000000006001600160a01b03168152602090f35b80fd5b50346101d757806003193601126101d7576040517f00000000000000000000000000000000000000000000000000000000000000006001600160a01b03168152602090f35b50346101d75760203660031901126101d757610239611639565b61024161164f565b6001600160a01b0390811690811561029657600054826bffffffffffffffffffffffff60a01b821617600055167f8be0079c531659141344cd1fd0a4f28419497f9722a3daafe3b4186f6b6457e0600080a380f35b604051631e4fbdf760e01b815260048101849052602490fd5b50346101d75760203660031901126101d7576004356102cc61164f565b80471061030b57815482918291829182916001600160a01b03165af16102f0611f0f565b50156102f95780f35b604051633d2cec6f60e21b8152600490fd5b60405163786e0a9960e01b8152600490fd5b50346101d757806003193601126101d75761033661164f565b808080804760018060a01b038254165af16102f0611f0f565b50346101d757806003193601126101d757602060405160648152f35b50346101d757806003193601126101d7576080600854600954600a5460065491604051938452602084015260408301526060820152f35b506103ac366115d0565b91906103b661180f565b6103c08280611832565b80949150158015610a5a575b610a48576103da8380611832565b90506103e96020850185611832565b91905014801590610a24575b8015610a00575b6109ee5761040a8380611832565b6104176020860186611832565b919092886104286040890189611832565b91909561043860608b018b611832565b969094604051968060a08901608060208b01525260c08801919085905b8082106109b857505050601f198782030160408801528181526020810160208360051b830101938095925b848410610980575050505050848103601f1901606086015282815260200195918b91505b80821061095657505050818403601f190160808301528284526001600160fb1b038311610952576020826104ef926105469661053d9660051b80928583013701038084520182611713565b6020815191012061050d610506608088018861169d565b369161174f565b907f19457468657265756d205369676e6564204d6573736167653a0a3332000000008952601c52603c88206119c2565b90929192611a8e565b6001600160a01b031685526002602052604085205460ff16156109405761056f91939293611c0e565b9061057981611867565b6105866040519182611713565b818152601f1961059583611867565b013660208301376105a582611867565b6105b26040519182611713565b828152601f196105c184611867565b013660208301378593869587915b85831061075d5750507f00000000000000000000000000000000000000000000000000000000000000006001600160a01b0316919050813b1561075957908692916040519263573c11a160e11b845260448401604060048601528151809152602060648601920190865b8181106107375750505060031984820301602485015260208083519283815201920190855b81811061071c575050508391838381809403925af18015610711576106f9575b50506106ef7fa64f4980a79d096f7d5abf84ae97bbc1e0d84456323d438560dab7f86a29021d936106b1836008546117ab565b6008556106c0846009546117ab565b6009556106cf81600a546117ab565b600a55604051938493846040919493926060820195825260208201520152565b0390a16001805580f35b610702906116cf565b61070d57833861067e565b8380fd5b6040513d84823e3d90fd5b8251151584528a96506020938401939092019160010161065e565b82516001600160a01b031684528b975060209384019390920191600101610639565b8680fd5b9091969561077d610778896107728680611832565b9061187e565b61167b565b9061078b6020850185611832565b8a101561092c576105066107a5918b60051b81019061169d565b6107be6107b98b6107726040890189611832565b61168f565b906107d08b6107726060890189611832565b356001600160a01b038516156108fb5760ff831615801561091f575b61090d574281116108fb5761080191856118b8565b8b52600360205260408b20805460ff81166108ec5760ff191660011790556001600160a01b0383168b52600460205260408b20805461083f90611786565b90556001600160a01b038316808c52600560205260408c2042905560065460ff929092169190911015906108738b896118a4565b528061087f8b886118a4565b52156108e6576101f45b6103e881810181116108d2576108c59282826108b86108b16108cb98966108bf96018a611deb565b8096611f3f565b01906117ab565b986117ab565b97611786565b91906105cf565b634e487b7160e01b8c52601160045260248cfd5b89610889565b50505096976108cb9150611786565b6040516309bde33960e01b8152600490fd5b60405163446a24d560e01b8152600490fd5b50600a60ff8416116107ec565b634e487b7160e01b8b52603260045260248bfd5b604051636518c33d60e11b8152600490fd5b8880fd5b90919586359060ff821680920361097b576020816001938293520197019201906104a4565b600080fd5b90919293946020806109a7600193601f198682030188526109a18b88611924565b906117b8565b980194019401929594939190610480565b9195509293929185356001600160a01b038116919082900361097b5760208160019382935201960192018f959291949394610455565b60405163512509d360e11b8152600490fd5b50610a0b8380611832565b9050610a1a6060850185611832565b91905014156103fc565b50610a2f8380611832565b9050610a3e6040850185611832565b91905014156103f5565b60405163abcf3d2360e01b8152600490fd5b50606484116103cc565b50806003193601126101d7573415610a795780f35b60405162461bcd60e51b815260206004820152601760248201527f4d7573742073656e64206e617469766520746f6b656e730000000000000000006044820152606490fd5b50346101d75760203660031901126101d7576001600160a01b03610ae0611639565b16908181526005602052604081205491610e10830190818411610b4357825260046020526040909120549042811115610b3957610b35905b604051938493846040919493926060820195825260208201520152565b0390f35b50610b3542610b18565b634e487b7160e01b83526011600452602483fd5b50346101d757806003193601126101d75760206040516103e88152f35b50346101d75760603660031901126101d757610b8e611639565b6001600160401b039060243582811161070d573660238201121561070d57806004013592831161070d57366024848301011161070d5792610be860ff93604093610be260209760443593602436920161174f565b906118b8565b8152600384522054166040519015158152f35b50346101d75760203660031901126101d7576020906040906001600160a01b03610c23611639565b168152600583522054604051908152f35b50346101d757806003193601126101d7576020600a54604051908152f35b50346101d757806003193601126101d757602060405161012c8152f35b50346101d757806003193601126101d7576020600954604051908152f35b50346101d757806003193601126101d7576020600854604051908152f35b50346101d75760203660031901126101d75760ff60406020926004358152600384522054166040519015158152f35b50346101d757806003193601126101d757546040516001600160a01b039091168152602090f35b50346101d75760603660031901126101d75760043560ff8116810361097b57602435908160070b8203610d5557604435928360030b84036101d7576040610d49858585611f94565b82519182526020820152f35b8280fd5b50346101d757806003193601126101d7576007546040516396834ad360e01b815260048101919091526080816024817f00000000000000000000000000000000000000000000000000000000000000006001600160a01b03165afa9081156107115760809291610dff575b50805160070b906001600160401b03602082015116906060604082015160030b91015191604051938452602084015260408301526060820152f35b610e1f9150823d8111610e25575b610e178183611713565b810190611bac565b38610dc4565b503d610e0d565b50346101d75760403660031901126101d757610e46611639565b60243590811515809203610d555760207fd71d7c88579d0d5858da8cb9f6c4ce94826a5391ff03edf44f6a431180a1a6f591610e8061164f565b6001600160a01b0316808552600282526040808620805460ff191660ff87161790555193845292a280f35b50346101d757806003193601126101d757610ec461164f565b600080546001600160a01b0319811682556001600160a01b03167f8be0079c531659141344cd1fd0a4f28419497f9722a3daafe3b4186f6b6457e08280a380f35b50346101d757806003193601126101d7576020600654604051908152f35b50346101d757806003193601126101d7576020600754604051908152f35b50346101d75760203660031901126101d75760209060ff906040906001600160a01b03610f6c611639565b168152600284522054166040519015158152f35b50610f8a366115d0565b91610f9361180f565b6001600160a01b039081610fa68261167b565b16156108fb57604081019360ff610fbc8661168f565b16158015611254575b61090d576060820135934285116108fb5783610fe08461167b565b1687526020600581526040882054420342811161124057610e101161122e5761101d61100b8561167b565b9682860197610be26105068a8961169d565b928389526003825260ff60408a20541661121c5760059261105a916110428688611955565b61104b8a61168f565b60ff6006549116101591611b13565b9288526003815260408820805460ff191660011790558461107a8561167b565b168852600481526040882061108f8154611786565b90558461109b8561167b565b168852524260408720556110b0600854611786565b6008556110bc8561168f565b60ff600654911610159081600014611215576101f4945b6103e89586018096116112015787857f00000000000000000000000000000000000000000000000000000000000000001661110d8661167b565b90803b15610d5557604051633ce5224560e21b81526001600160a01b03929092166004830152851515602483015282908290604490829084905af18015610711576111e3575b5050907f525aa383e9da52014b1fa10a35ab6b1ec0785574d6dc1f97a9ee373e981e7450956111ca6111c26111d99594611195856111908a61167b565b611f3f565b6111a1846009546117ab565b6009556111b085600a546117ab565b600a556111bc8861167b565b9761169d565b91909961168f565b906040519788971699876117d9565b0390a26001805580f35b6111f090949392946116cf565b6111fd5790918738611153565b8780fd5b634e487b7160e01b88526011600452602488fd5b86946110d3565b604051634f7ae51160e01b8152600490fd5b60405163a74c1c5f60e01b8152600490fd5b634e487b7160e01b89526011600452602489fd5b50600a60ff6112628761168f565b1611610fc5565b50346101d75760203660031901126101d7576020906040906001600160a01b03611291611639565b168152600483522054604051908152f35b50346101d757806003193601126101d75747600a54610b3560405192839281846040919493926060820195825260208201520152565b50346101d757806003193601126101d75760206040516101f48152f35b50346101d75760203660031901126101d75760043561131261164f565b80158015611359575b61090d5760407feb9922e3ed7835455c0b321d214f497e036d91a33d2e9883f5224484432a07ca91600654908060065582519182526020820152a180f35b50600a811161131b565b50346101d757806003193601126101d7576020604051610e108152f35b50346101d75760203660031901126101d7577f627da9a77799043556fbec117455a7d8c03a5de41db240934f0f59155c0019a060406004356113c061164f565b600754908060075582519182526020820152a180f35b506113e0366115d0565b916113e961180f565b6001600160a01b0391826113fc8361167b565b1633036108fb5761140c8261167b565b90611431610be26020850193611422858761169d565b9290606088013593369161174f565b90818752600360205260ff60408820541661121c57611462906114548386611955565b604085019661104b8861168f565b908652600360205260408620805460ff19166001179055836114838461167b565b1686526004602052604086206114998154611786565b9055836114a58461167b565b16865260056020524260408720556114bc8561168f565b60ff6006549116101591847f000000000000000000000000000000000000000000000000000000000000000016876114f38661167b565b823b156115cc57604051633ce5224560e21b81526001600160a01b039190911660048201528515156024820152918290604490829084905af180156115c1576115ae575b50611545826111908661167b565b82156115a7576101f4905b6103e891820180921161120157917f525aa383e9da52014b1fa10a35ab6b1ec0785574d6dc1f97a9ee373e981e7450959493916111ca6111c26111d995611598600854611786565b6008556111a1846009546117ab565b8690611550565b6115ba909791976116cf565b9538611537565b6040513d8a823e3d90fd5b5080fd5b906003199060408284011261097b576004356001600160401b039283821161097b5760a090828603011261097b57600401926024359083821161097b578060238301121561097b57816004013593841161097b5760248460051b8301011161097b576024019190565b600435906001600160a01b038216820361097b57565b6000546001600160a01b0316330361166357565b60405163118cdaa760e01b8152336004820152602490fd5b356001600160a01b038116810361097b5790565b3560ff8116810361097b5790565b903590601e198136030182121561097b57018035906001600160401b03821161097b5760200191813603831361097b57565b6001600160401b0381116116e257604052565b634e487b7160e01b600052604160045260246000fd5b608081019081106001600160401b038211176116e257604052565b90601f801991011681019081106001600160401b038211176116e257604052565b6001600160401b0381116116e257601f01601f191660200190565b92919261175b82611734565b916117696040519384611713565b82948184528183011161097b578281602093846000960137010152565b60001981146117955760010190565b634e487b7160e01b600052601160045260246000fd5b9190820180921161179557565b908060209392818452848401376000828201840152601f01601f1916010190565b94916117f76080959260ff929998959960a0895260a08901916117b8565b97166020860152604085015260608401521515910152565b600260015414611820576002600155565b604051633ee5aeb560e01b8152600490fd5b903590601e198136030182121561097b57018035906001600160401b03821161097b57602001918160051b3603831361097b57565b6001600160401b0381116116e25760051b60200190565b919081101561188e5760051b0190565b634e487b7160e01b600052603260045260246000fd5b805182101561188e5760209160051b010190565b9160405180926020808301956bffffffffffffffffffffffff199060601b16865281519160005b83811061190d5750505090611907926054928201906034820152036034810184520182611713565b51902090565b8181018301518782016034015286945082016118df565b9035601e198236030181121561097b5701602081359101916001600160401b03821161097b57813603831361097b57565b61053d906119a0927f19457468657265756d205369676e6564204d6573736167653a0a333200000000600052601c5261199a610506603c60002092608081019061169d565b906119c2565b6001600160a01b031660009081526002602052604090205460ff161561094057565b81519190604183036119f3576119ec92506020820151906060604084015193015160001a906119fe565b9192909190565b505060009160029190565b91907f7fffffffffffffffffffffffffffffff5d576e7357a4501ddfe92f46681b20a08411611a8257926020929160ff608095604051948552168484015260408301526060820152600092839182805260015afa15611a765780516001600160a01b03811615611a6d57918190565b50809160019190565b604051903d90823e3d90fd5b50505060009160039190565b6004811015611afd5780611aa0575050565b60018103611aba5760405163f645eedf60e01b8152600490fd5b60028103611adb5760405163fce698f760e01b815260048101839052602490fd5b600314611ae55750565b602490604051906335e2f38360e21b82526004820152fd5b634e487b7160e01b600052602160045260246000fd5b90611b1d91611c0e565b9060009015611b4457506101f45b6103e890810180911161179557611b4191611deb565b90565b611b2b565b9160208181850182865252604084019360408360051b82010194846000925b858410611b79575050505050505090565b909192939495968580611b9b600193603f198682030188526109a18c88611924565b990194019401929594939190611b68565b9081608091031261097b5760405190611bc4826116f8565b80518060070b810361097b57825260208101516001600160401b038116810361097b5760208301526040810151908160030b820361097b5760609160408401520151606082015290565b60006040928160608551611c21816116f8565b8281528260208201528287820152015260018060a01b037f0000000000000000000000000000000000000000000000000000000000000000169284519063d47eed4560e01b825260208280611c7a868560048401611b49565b0381885afa918215611d85578492611d52575b50813410611d4157843b1561070d57918391611cbe938751809581948293631df3cbc560e31b845260048401611b49565b0391875af18015611d3757611d28575b506080600754604485518095819363052571af60e51b8352600483015261012c60248301525afa928315611d1e575091611d06575090565b611b41915060803d8111610e2557610e178183611713565b51903d90823e3d90fd5b611d31906116cf565b38611cce565b84513d84823e3d90fd5b8551630ad461a960e21b8152600490fd5b9091506020813d8211611d7d575b81611d6d60209383611713565b8101031261070d57519038611c8d565b3d9150611d60565b86513d86823e3d90fd5b60030b637fffffff1981146117955760000390565b63ffffffff16604d811161179557600a0a90565b8181029291811591840414171561179557565b8115611dd5570490565b634e487b7160e01b600052601260045260246000fd5b9190604083519301518060030b90600094858160070b1315611efd576001600160401b031691858112611e8e575081606402916064830403611e7a5790611e3a611e409263ffffffff16611da4565b90611db8565b90670de0b6b3a764000090818102918183041490151715611e6657611b41929350611dcb565b634e487b7160e01b84526011600452602484fd5b634e487b7160e01b85526011600452602485fd5b611eac9150611ea1909593929495611d8f565b63ffffffff16611da4565b9183606402936064850403611ee957670de0b6b3a764000091828102928184041490151715611ee95750611b419291611ee491611db8565b611dcb565b634e487b7160e01b81526011600452602490fd5b6040516352cc3f7d60e01b8152600490fd5b3d15611f3a573d90611f2082611734565b91611f2e6040519384611713565b82523d6000602084013e565b606090565b81471061030b576001600160a01b031690600080808084865af1611f61611f0f565b50156102f95760207f42dae7ecbd6480f4668be8482b87dd535b1e94c76b10f9c324e2bca24f10f71b91604051908152a2565b90929190600090600760ff9091161061200357506101f4905b6103e891820180921161179557819360070b916000831315611ff95750611b4191849160405191611fdd836116f8565b82526000602083015260030b6040820152426060820152612009565b9350600092915050565b90611fad565b9190604083519301518060030b90600094858160070b1315612058576001600160401b031691858112611e8e575081606402916064830403611e7a5790611e3a611e409263ffffffff16611da4565b5050505056fea26469706673582212204aa62707528439d8ab4156f71f3dfee9950f286946f6143ffba7d75d7fdf2fa464736f6c63430008140033",
  "linkReferences": {},
  "deployedLinkReferences": {}
}