{
  "_format": "hh-sol-artifact-1",
  "contractName": "AgentToken",
  "sourceName": "contracts/AgentToken.sol",
  "abi": [
    {
      "inputs": [
        {
          "internalType": "string",
          "name": "name_",
          "type": "string"
        },
        {
          "internalType": "string",
          "name": "symbol_",
          "type": "string"
        },
        {
          "internalType": "string",
          "name": "agentName_",
          "type": "string"
        },
        {
          "internalType": "string",
          "name": "archetype_",
          "type": "string"
        },
        {
          "internalType": "string",
          "name": "metadataURI_",
          "type": "string"
        },
        {
          "internalType": "uint256",
          "name": "totalSupply_",
          "type": "uint256"
        },
        {
          "internalType": "address",
          "name": "owner_",
          "type": "address"
        },
        {
          "internalType": "string",
          "name": "agentConfigJSON_",
          "type": "string"
        }
      ],
      "stateMutability": "nonpayable",
      "type": "constructor"
    },
    {
      "inputs": [],
      "name": "CheckpointUnorderedInsertion",
      "type": "error"
    },
    {
      "inputs": [],
      "name": "ECDSAInvalidSignature",
      "type": "error"
    },
    {
      "inputs": [
        {
          "internalType": "uint256",
          "name": "length",
          "type": "uint256"
        }
      ],
      "name": "ECDSAInvalidSignatureLength",
      "type": "error"
    },
    {
      "inputs": [
        {
          "internalType": "bytes32",
          "name": "s",
          "type": "bytes32"
        }
      ],
      "name": "ECDSAInvalidSignatureS",
      "type": "error"
    },
    {
      "inputs": [
        {
          "internalType": "uint256",
          "name": "increasedSupply",
          "type": "uint256"
        },
        {
          "internalType": "uint256",
          "name": "cap",
          "type": "uint256"
        }
      ],
      "name": "ERC20ExceededSafeSupply",
      "type": "error"
    },
    {
      "inputs": [
        {
          "internalType": "address",
          "name": "spender",
          "type": "address"
        },
        {
          "internalType": "uint256",
          "name": "allowance",
          "type": "uint256"
        },
        {
          "internalType": "uint256",
          "name": "needed",
          "type": "uint256"
        }
      ],
      "name": "ERC20InsufficientAllowance",
      "type": "error"
    },
    {
      "inputs": [
        {
          "internalType": "address",
          "name": "sender",
          "type": "address"
        },
        {
          "internalType": "uint256",
          "name": "balance",
          "type": "uint256"
        },
        {
          "internalType": "uint256",
          "name": "needed",
          "type": "uint256"
        }
      ],
      "name": "ERC20InsufficientBalance",
      "type": "error"
    },
    {
      "inputs": [
        {
          "internalType": "address",
          "name": "approver",
          "type": "address"
        }
      ],
      "name": "ERC20InvalidApprover",
      "type": "error"
    },
    {
      "inputs": [
        {
          "internalType": "address",
          "name": "receiver",
          "type": "address"
        }
      ],
      "name": "ERC20InvalidReceiver",
      "type": "error"
    },
    {
      "inputs": [
        {
          "internalType": "address",
          "name": "sender",
          "type": "address"
        }
      ],
      "name": "ERC20InvalidSender",
      "type": "error"
    },
    {
      "inputs": [
        {
          "internalType": "address",
          "name": "spender",
          "type": "address"
        }
      ],
      "name": "ERC20InvalidSpender",
      "type": "error"
    },
    {
      "inputs": [
        {
          "internalType": "uint256",
          "name": "deadline",
          "type": "uint256"
        }
      ],
      "name": "ERC2612ExpiredSignature",
      "type": "error"
    },
    {
      "inputs": [
        {
          "internalType": "address",
          "name": "signer",
          "type": "address"
        },
        {
          "internalType": "address",
          "name": "owner",
          "type": "address"
        }
      ],
      "name": "ERC2612InvalidSigner",
      "type": "error"
    },
    {
      "inputs": [
        {
          "internalType": "uint256",
          "name": "timepoint",
          "type": "uint256"
        },
        {
          "internalType": "uint48",
          "name": "clock",
          "type": "uint48"
        }
      ],
      "name": "ERC5805FutureLookup",
      "type": "error"
    },
    {
      "inputs": [],
      "name": "ERC6372InconsistentClock",
      "type": "error"
    },
    {
      "inputs": [
        {
          "internalType": "address",
          "name": "account",
          "type": "address"
        },
        {
          "internalType": "uint256",
          "name": "currentNonce",
          "type": "uint256"
        }
      ],
      "name": "InvalidAccountNonce",
      "type": "error"
    },
    {
      "inputs": [],
      "name": "InvalidAgentConfig",
      "type": "error"
    },
    {
      "inputs": [],
      "name": "InvalidMetadataURI",
      "type": "error"
    },
    {
      "inputs": [],
      "name": "InvalidShortString",
      "type": "error"
    },
    {
      "inputs": [],
      "name": "NoClaimableRevenue",
      "type": "error"
    },
    {
      "inputs": [
        {
          "internalType": "address",
          "name": "owner",
          "type": "address"
        }
      ],
      "name": "OwnableInvalidOwner",
      "type": "error"
    },
    {
      "inputs": [
        {
          "internalType": "address",
          "name": "account",
          "type": "address"
        }
      ],
      "name": "OwnableUnauthorizedAccount",
      "type": "error"
    },
    {
      "inputs": [],
      "name": "ReentrancyGuardReentrantCall",
      "type": "error"
    },
    {
      "inputs": [
        {
          "internalType": "uint8",
          "name": "bits",
          "type": "uint8"
        },
        {
          "internalType": "uint256",
          "name": "value",
          "type": "uint256"
        }
      ],
      "name": "SafeCastOverflowedUintDowncast",
      "type": "error"
    },
    {
      "inputs": [
        {
          "internalType": "string",
          "name": "str",
          "type": "string"
        }
      ],
      "name": "StringTooLong",
      "type": "error"
    },
    {
      "inputs": [],
      "name": "TransferFailed",
      "type": "error"
    },
    {
      "inputs": [],
      "name": "UnauthorizedRevenueSource",
      "type": "error"
    },
    {
      "inputs": [
        {
          "internalType": "uint256",
          "name": "expiry",
          "type": "uint256"
        }
      ],
      "name": "VotesExpiredSignature",
      "type": "error"
    },
    {
      "anonymous": false,
      "inputs": [
        {
          "indexed": false,
          "internalType": "string",
          "name": "newAgentConfigJSON",
          "type": "string"
        }
      ],
      "name": "AgentConfigUpdated",
      "type": "event"
    },
    {
      "anonymous": false,
      "inputs": [
        {
          "indexed": true,
          "internalType": "address",
          "name": "owner",
          "type": "address"
        },
        {
          "indexed": true,
          "internalType": "address",
          "name": "spender",
          "type": "address"
        },
        {
          "indexed": false,
          "internalType": "uint256",
          "name": "value",
          "type": "uint256"
        }
      ],
      "name": "Approval",
      "type": "event"
    },
    {
      "anonymous": false,
      "inputs": [
        {
          "indexed": true,
          "internalType": "address",
          "name": "delegator",
          "type": "address"
        },
        {
          "indexed": true,
          "internalType": "address",
          "name": "fromDelegate",
          "type": "address"
        },
        {
          "indexed": true,
          "internalType": "address",
          "name": "toDelegate",
          "type": "address"
        }
      ],
      "name": "DelegateChanged",
      "type": "event"
    },
    {
      "anonymous": false,
      "inputs": [
        {
          "indexed": true,
          "internalType": "address",
          "name": "delegate",
          "type": "address"
        },
        {
          "indexed": false,
          "internalType": "uint256",
          "name": "previousVotes",
          "type": "uint256"
        },
        {
          "indexed": false,
          "internalType": "uint256",
          "name": "newVotes",
          "type": "uint256"
        }
      ],
      "name": "DelegateVotesChanged",
      "type": "event"
    },
    {
      "anonymous": false,
      "inputs": [],
      "name": "EIP712DomainChanged",
      "type": "event"
    },
    {
      "anonymous": false,
      "inputs": [
        {
          "indexed": false,
          "internalType": "string",
          "name": "newMetadataURI",
          "type": "string"
        }
      ],
      "name": "MetadataUpdated",
      "type": "event"
    },
    {
      "anonymous": false,
      "inputs": [
        {
          "indexed": true,
          "internalType": "address",
          "name": "previousOwner",
          "type": "address"
        },
        {
          "indexed": true,
          "internalType": "address",
          "name": "newOwner",
          "type": "address"
        }
      ],
      "name": "OwnershipTransferred",
      "type": "event"
    },
    {
      "anonymous": false,
      "inputs": [
        {
          "indexed": true,
          "internalType": "address",
          "name": "user",
          "type": "address"
        },
        {
          "indexed": false,
          "internalType": "uint256",
          "name": "amount",
          "type": "uint256"
        }
      ],
      "name": "RevenueClaimed",
      "type": "event"
    },
    {
      "anonymous": false,
      "inputs": [
        {
          "indexed": false,
          "internalType": "uint256",
          "name": "amount",
          "type": "uint256"
        },
        {
          "indexed": true,
          "internalType": "address",
          "name": "source",
          "type": "address"
        }
      ],
      "name": "RevenueDeposited",
      "type": "event"
    },
    {
      "anonymous": false,
      "inputs": [
        {
          "indexed": true,
          "internalType": "address",
          "name": "source",
          "type": "address"
        },
        {
          "indexed": false,
          "internalType": "bool",
          "name": "authorized",
          "type": "bool"
        }
      ],
      "name": "RevenueSourceAuthorized",
      "type": "event"
    },
    {
      "anonymous": false,
      "inputs": [
        {
          "indexed": true,
          "internalType": "address",
          "name": "from",
          "type": "address"
        },
        {
          "indexed": true,
          "internalType": "address",
          "name": "to",
          "type": "address"
        },
        {
          "indexed": false,
          "internalType": "uint256",
          "name": "value",
          "type": "uint256"
        }
      ],
      "name": "Transfer",
      "type": "event"
    },
    {
      "inputs": [],
      "name": "CLOCK_MODE",
      "outputs": [
        {
          "internalType": "string",
          "name": "",
          "type": "string"
        }
      ],
      "stateMutability": "view",
      "type": "function"
    },
    {
      "inputs": [],
      "name": "DOMAIN_SEPARATOR",
      "outputs": [
        {
          "internalType": "bytes32",
          "name": "",
          "type": "bytes32"
        }
      ],
      "stateMutability": "view",
      "type": "function"
    },
    {
      "inputs": [],
      "name": "agentConfigJSON",
      "outputs": [
        {
          "internalType": "string",
          "name": "",
          "type": "string"
        }
      ],
      "stateMutability": "view",
      "type": "function"
    },
    {
      "inputs": [],
      "name": "agentName",
      "outputs": [
        {
          "internalType": "string",
          "name": "",
          "type": "string"
        }
      ],
      "stateMutability": "view",
      "type": "function"
    },
    {
      "inputs": [
        {
          "internalType": "address",
          "name": "owner",
          "type": "address"
        },
        {
          "internalType": "address",
          "name": "spender",
          "type": "address"
        }
      ],
      "name": "allowance",
      "outputs": [
        {
          "internalType": "uint256",
          "name": "",
          "type": "uint256"
        }
      ],
      "stateMutability": "view",
      "type": "function"
    },
    {
      "inputs": [
        {
          "internalType": "address",
          "name": "spender",
          "type": "address"
        },
        {
          "internalType": "uint256",
          "name": "value",
          "type": "uint256"
        }
      ],
      "name": "approve",
      "outputs": [
        {
          "internalType": "bool",
          "name": "",
          "type": "bool"
        }
      ],
      "stateMutability": "nonpayable",
      "type": "function"
    },
    {
      "inputs": [],
      "name": "archetype",
      "outputs": [
        {
          "internalType": "string",
          "name": "",
          "type": "string"
        }
      ],
      "stateMutability": "view",
      "type": "function"
    },
    {
      "inputs": [
        {
          "internalType": "address",
          "name": "",
          "type": "address"
        }
      ],
      "name": "authorizedRevenueSources",
      "outputs": [
        {
          "internalType": "bool",
          "name": "",
          "type": "bool"
        }
      ],
      "stateMutability": "view",
      "type": "function"
    },
    {
      "inputs": [
        {
          "internalType": "address",
          "name": "account",
          "type": "address"
        }
      ],
      "name": "balanceOf",
      "outputs": [
        {
          "internalType": "uint256",
          "name": "",
          "type": "uint256"
        }
      ],
      "stateMutability": "view",
      "type": "function"
    },
    {
      "inputs": [
        {
          "internalType": "address",
          "name": "account",
          "type": "address"
        },
        {
          "internalType": "uint32",
          "name": "pos",
          "type": "uint32"
        }
      ],
      "name": "checkpoints",
      "outputs": [
        {
          "components": [
            {
              "internalType": "uint48",
              "name": "_key",
              "type": "uint48"
            },
            {
              "internalType": "uint208",
              "name": "_value",
              "type": "uint208"
            }
          ],
          "internalType": "struct Checkpoints.Checkpoint208",
          "name": "",
          "type": "tuple"
        }
      ],
      "stateMutability": "view",
      "type": "function"
    },
    {
      "inputs": [],
      "name": "claimRevenue",
      "outputs": [],
      "stateMutability": "nonpayable",
      "type": "function"
    },
    {
      "inputs": [
        {
          "internalType": "address",
          "name": "",
          "type": "address"
        }
      ],
      "name": "claimedRevenue",
      "outputs": [
        {
          "internalType": "uint256",
          "name": "",
          "type": "uint256"
        }
      ],
      "stateMutability": "view",
      "type": "function"
    },
    {
      "inputs": [],
      "name": "clock",
      "outputs": [
        {
          "internalType": "uint48",
          "name": "",
          "type": "uint48"
        }
      ],
      "stateMutability": "view",
      "type": "function"
    },
    {
      "inputs": [],
      "name": "contractBalance",
      "outputs": [
        {
          "internalType": "uint256",
          "name": "",
          "type": "uint256"
        }
      ],
      "stateMutability": "view",
      "type": "function"
    },
    {
      "inputs": [],
      "name": "decimals",
      "outputs": [
        {
          "internalType": "uint8",
          "name": "",
          "type": "uint8"
        }
      ],
      "stateMutability": "view",
      "type": "function"
    },
    {
      "inputs": [
        {
          "internalType": "address",
          "name": "delegatee",
          "type": "address"
        }
      ],
      "name": "delegate",
      "outputs": [],
      "stateMutability": "nonpayable",
      "type": "function"
    },
    {
      "inputs": [
        {
          "internalType": "address",
          "name": "delegatee",
          "type": "address"
        },
        {
          "internalType": "uint256",
          "name": "nonce",
          "type": "uint256"
        },
        {
          "internalType": "uint256",
          "name": "expiry",
          "type": "uint256"
        },
        {
          "internalType": "uint8",
          "name": "v",
          "type": "uint8"
        },
        {
          "internalType": "bytes32",
          "name": "r",
          "type": "bytes32"
        },
        {
          "internalType": "bytes32",
          "name": "s",
          "type": "bytes32"
        }
      ],
      "name": "delegateBySig",
      "outputs": [],
      "stateMutability": "nonpayable",
      "type": "function"
    },
    {
      "inputs": [
        {
          "internalType": "address",
          "name": "account",
          "type": "address"
        }
      ],
      "name": "delegates",
      "outputs": [
        {
          "internalType": "address",
          "name": "",
          "type": "address"
        }
      ],
      "stateMutability": "view",
      "type": "function"
    },
    {
      "inputs": [],
      "name": "depositRevenue",
      "outputs": [],
      "stateMutability": "payable",
      "type": "function"
    },
    {
      "inputs": [],
      "name": "eip712Domain",
      "outputs": [
        {
          "internalType": "bytes1",
          "name": "fields",
          "type": "bytes1"
        },
        {
          "internalType": "string",
          "name": "name",
          "type": "string"
        },
        {
          "internalType": "string",
          "name": "version",
          "type": "string"
        },
        {
          "internalType": "uint256",
          "name": "chainId",
          "type": "uint256"
        },
        {
          "internalType": "address",
          "name": "verifyingContract",
          "type": "address"
        },
        {
          "internalType": "bytes32",
          "name": "salt",
          "type": "bytes32"
        },
        {
          "internalType": "uint256[]",
          "name": "extensions",
          "type": "uint256[]"
        }
      ],
      "stateMutability": "view",
      "type": "function"
    },
    {
      "inputs": [],
      "name": "emergencyWithdraw",
      "outputs": [],
      "stateMutability": "nonpayable",
      "type": "function"
    },
    {
      "inputs": [],
      "name": "getAgentInfo",
      "outputs": [
        {
          "internalType": "string",
          "name": "name_",
          "type": "string"
        },
        {
          "internalType": "string",
          "name": "symbol_",
          "type": "string"
        },
        {
          "internalType": "string",
          "name": "agentName_",
          "type": "string"
        },
        {
          "internalType": "string",
          "name": "archetype_",
          "type": "string"
        },
        {
          "internalType": "string",
          "name": "metadataURI_",
          "type": "string"
        },
        {
          "internalType": "uint256",
          "name": "totalSupply_",
          "type": "uint256"
        },
        {
          "internalType": "uint256",
          "name": "totalRevenue_",
          "type": "uint256"
        },
        {
          "internalType": "uint256",
          "name": "totalDistributedRevenue_",
          "type": "uint256"
        },
        {
          "internalType": "string",
          "name": "agentConfigJSON_",
          "type": "string"
        }
      ],
      "stateMutability": "view",
      "type": "function"
    },
    {
      "inputs": [
        {
          "internalType": "address",
          "name": "account",
          "type": "address"
        }
      ],
      "name": "getClaimableRevenue",
      "outputs": [
        {
          "internalType": "uint256",
          "name": "",
          "type": "uint256"
        }
      ],
      "stateMutability": "view",
      "type": "function"
    },
    {
      "inputs": [
        {
          "internalType": "uint256",
          "name": "timepoint",
          "type": "uint256"
        }
      ],
      "name": "getPastTotalSupply",
      "outputs": [
        {
          "internalType": "uint256",
          "name": "",
          "type": "uint256"
        }
      ],
      "stateMutability": "view",
      "type": "function"
    },
    {
      "inputs": [
        {
          "internalType": "address",
          "name": "account",
          "type": "address"
        },
        {
          "internalType": "uint256",
          "name": "timepoint",
          "type": "uint256"
        }
      ],
      "name": "getPastVotes",
      "outputs": [
        {
          "internalType": "uint256",
          "name": "",
          "type": "uint256"
        }
      ],
      "stateMutability": "view",
      "type": "function"
    },
    {
      "inputs": [
        {
          "internalType": "address",
          "name": "account",
          "type": "address"
        }
      ],
      "name": "getVotes",
      "outputs": [
        {
          "internalType": "uint256",
          "name": "",
          "type": "uint256"
        }
      ],
      "stateMutability": "view",
      "type": "function"
    },
    {
      "inputs": [],
      "name": "metadataURI",
      "outputs": [
        {
          "internalType": "string",
          "name": "",
          "type": "string"
        }
      ],
      "stateMutability": "view",
      "type": "function"
    },
    {
      "inputs": [],
      "name": "name",
      "outputs": [
        {
          "internalType": "string",
          "name": "",
          "type": "string"
        }
      ],
      "stateMutability": "view",
      "type": "function"
    },
    {
      "inputs": [
        {
          "internalType": "address",
          "name": "owner",
          "type": "address"
        }
      ],
      "name": "nonces",
      "outputs": [
        {
          "internalType": "uint256",
          "name": "",
          "type": "uint256"
        }
      ],
      "stateMutability": "view",
      "type": "function"
    },
    {
      "inputs": [
        {
          "internalType": "address",
          "name": "account",
          "type": "address"
        }
      ],
      "name": "numCheckpoints",
      "outputs": [
        {
          "internalType": "uint32",
          "name": "",
          "type": "uint32"
        }
      ],
      "stateMutability": "view",
      "type": "function"
    },
    {
      "inputs": [],
      "name": "owner",
      "outputs": [
        {
          "internalType": "address",
          "name": "",
          "type": "address"
        }
      ],
      "stateMutability": "view",
      "type": "function"
    },
    {
      "inputs": [
        {
          "internalType": "address",
          "name": "owner",
          "type": "address"
        },
        {
          "internalType": "address",
          "name": "spender",
          "type": "address"
        },
        {
          "internalType": "uint256",
          "name": "value",
          "type": "uint256"
        },
        {
          "internalType": "uint256",
          "name": "deadline",
          "type": "uint256"
        },
        {
          "internalType": "uint8",
          "name": "v",
          "type": "uint8"
        },
        {
          "internalType": "bytes32",
          "name": "r",
          "type": "bytes32"
        },
        {
          "internalType": "bytes32",
          "name": "s",
          "type": "bytes32"
        }
      ],
      "name": "permit",
      "outputs": [],
      "stateMutability": "nonpayable",
      "type": "function"
    },
    {
      "inputs": [],
      "name": "renounceOwnership",
      "outputs": [],
      "stateMutability": "nonpayable",
      "type": "function"
    },
    {
      "inputs": [],
      "name": "revenuePerToken",
      "outputs": [
        {
          "internalType": "uint256",
          "name": "",
          "type": "uint256"
        }
      ],
      "stateMutability": "view",
      "type": "function"
    },
    {
      "inputs": [
        {
          "internalType": "string",
          "name": "newAgentConfigJSON",
          "type": "string"
        }
      ],
      "name": "setAgentConfigJSON",
      "outputs": [],
      "stateMutability": "nonpayable",
      "type": "function"
    },
    {
      "inputs": [
        {
          "internalType": "string",
          "name": "newMetadataURI",
          "type": "string"
        }
      ],
      "name": "setMetadataURI",
      "outputs": [],
      "stateMutability": "nonpayable",
      "type": "function"
    },
    {
      "inputs": [
        {
          "internalType": "address",
          "name": "source",
          "type": "address"
        },
        {
          "internalType": "bool",
          "name": "authorized",
          "type": "bool"
        }
      ],
      "name": "setRevenueSource",
      "outputs": [],
      "stateMutability": "nonpayable",
      "type": "function"
    },
    {
      "inputs": [],
      "name": "symbol",
      "outputs": [
        {
          "internalType": "string",
          "name": "",
          "type": "string"
        }
      ],
      "stateMutability": "view",
      "type": "function"
    },
    {
      "inputs": [],
      "name": "totalDistributedRevenue",
      "outputs": [
        {
          "internalType": "uint256",
          "name": "",
          "type": "uint256"
        }
      ],
      "stateMutability": "view",
      "type": "function"
    },
    {
      "inputs": [],
      "name": "totalRevenue",
      "outputs": [
        {
          "internalType": "uint256",
          "name": "",
          "type": "uint256"
        }
      ],
      "stateMutability": "view",
      "type": "function"
    },
    {
      "inputs": [],
      "name": "totalSupply",
      "outputs": [
        {
          "internalType": "uint256",
          "name": "",
          "type": "uint256"
        }
      ],
      "stateMutability": "view",
      "type": "function"
    },
    {
      "inputs": [
        {
          "internalType": "address",
          "name": "to",
          "type": "address"
        },
        {
          "internalType": "uint256",
          "name": "value",
          "type": "uint256"
        }
      ],
      "name": "transfer",
      "outputs": [
        {
          "internalType": "bool",
          "name": "",
          "type": "bool"
        }
      ],
      "stateMutability": "nonpayable",
      "type": "function"
    },
    {
      "inputs": [
        {
          "internalType": "address",
          "name": "from",
          "type": "address"
        },
        {
          "internalType": "address",
          "name": "to",
          "type": "address"
        },
        {
          "internalType": "uint256",
          "name": "value",
          "type": "uint256"
        }
      ],
      "name": "transferFrom",
      "outputs": [
        {
          "internalType": "bool",
          "name": "",
          "type": "bool"
        }
      ],
      "stateMutability": "nonpayable",
      "type": "function"
    },
    {
      "inputs": [
        {
          "internalType": "address",
          "name": "newOwner",
          "type": "address"
        }
      ],
      "name": "transferOwnership",
      "outputs": [],
      "stateMutability": "nonpayable",
      "type": "function"
    },
    {
      "inputs": [
        {
          "internalType": "address",
          "name": "account",
          "type": "address"
        }
      ],
      "name": "unclaimedRevenue",
      "outputs": [
        {
          "internalType": "uint256",
          "name": "",
          "type": "uint256"
        }
      ],
      "stateMutability": "view",
      "type": "function"
    }
  ],
  "bytecode": "0x610160806040523462000142576200479990813803809262000021826200015d565b823981810190610100809312620001425780516001600160401b03929083811162000142578162000054918401620001db565b91610180518481116200014257826200006f918301620001db565b6101a05185811162000142578362000089918401620001db565b6101c051868111620001425784620000a3918501620001db565b906101e051878111620001425785620000be918601620001db565b926102005194620000ce62000241565b9661024051998a116200014257620000f399620000ec9201620001db565b9662000a1d565b60405161304a91826200170f8339608051826124ae015260a05182612569015260c0518261247f015260e051826124fd0152518161252301526101205181610f1a01526101405181610f430152f35b600080fd5b634e487b7160e01b600052604160045260246000fd5b601f01601f1916610160908101906001600160401b038211908210176200018357604052565b62000147565b604081019081106001600160401b038211176200018357604052565b60405190620001b48262000189565b565b60005b838110620001ca5750506000910152565b8181015183820152602001620001b9565b81601f82011215620001425780516001600160401b0392838211620001835760405193601f8301601f19908116603f011685019081118582101762000183576040528184526020828401011162000142576200023e9160208085019101620001b6565b90565b61022051906001600160a01b03821682036200014257565b90600182811c921680156200028b575b60208310146200027557565b634e487b7160e01b600052602260045260246000fd5b91607f169162000269565b601f8111620002a3575050565b6000906003825260208220906020601f850160051c83019410620002e4575b601f0160051c01915b828110620002d857505050565b818155600101620002cb565b9092508290620002c2565b601f8111620002fc575050565b6000906004825260208220906020601f850160051c830194106200033d575b601f0160051c01915b8281106200033157505050565b81815560010162000324565b90925082906200031b565b601f811162000355575050565b600090600d825260208220906020601f850160051c8301941062000396575b601f0160051c01915b8281106200038a57505050565b8181556001016200037d565b909250829062000374565b601f8111620003ae575050565b600090600e825260208220906020601f850160051c83019410620003ef575b601f0160051c01915b828110620003e357505050565b818155600101620003d6565b9092508290620003cd565b601f811162000407575050565b600090600f825260208220906020601f850160051c8301941062000448575b601f0160051c01915b8281106200043c57505050565b8181556001016200042f565b909250829062000426565b601f811162000460575050565b6000906010825260208220906020601f850160051c83019410620004a1575b601f0160051c01915b8281106200049557505050565b81815560010162000488565b90925082906200047f565b601f8111620004b9575050565b6000906005825260208220906020601f850160051c83019410620004fa575b601f0160051c01915b828110620004ee57505050565b818155600101620004e1565b9092508290620004d8565b601f811162000512575050565b6000906006825260208220906020601f850160051c8301941062000553575b601f0160051c01915b8281106200054757505050565b8181556001016200053a565b909250829062000531565b80519091906001600160401b03811162000183576200058a816200058460045462000259565b620002ef565b602080601f8311600114620005c95750819293600092620005bd575b50508160011b916000199060031b1c191617600455565b015190503880620005a6565b6004600052601f198316949091907f8a35acfbc15ff81a39ae7d344fd709f28e8600b4aa8c65c6b64bfe7fe36bd19b926000905b878210620006385750508360019596106200061e575b505050811b01600455565b015160001960f88460031b161c1916905538808062000613565b80600185968294968601518155019501930190620005fd565b80519091906001600160401b03811162000183576200067d8162000677600d5462000259565b62000348565b602080601f8311600114620006bc5750819293600092620006b0575b50508160011b916000199060031b1c191617600d55565b01519050388062000699565b600d600052601f198316949091907fd7b6990105719101dabeb77144f2a3385c8033acd3af97e9423a695e81ad1eb5926000905b8782106200072b57505083600195961062000711575b505050811b01600d55565b015160001960f88460031b161c1916905538808062000706565b80600185968294968601518155019501930190620006f0565b80519091906001600160401b038111620001835762000770816200076a600e5462000259565b620003a1565b602080601f8311600114620007af5750819293600092620007a3575b50508160011b916000199060031b1c191617600e55565b0151905038806200078c565b600e600052601f198316949091907fbb7b4a454dc3493923482f07822329ed19e8244eff582cc204f8554c3620c3fd926000905b8782106200081e57505083600195961062000804575b505050811b01600e55565b015160001960f88460031b161c19169055388080620007f9565b80600185968294968601518155019501930190620007e3565b80519091906001600160401b038111620001835762000863816200085d600f5462000259565b620003fa565b602080601f8311600114620008a2575081929360009262000896575b50508160011b916000199060031b1c191617600f55565b0151905038806200087f565b600f600052601f198316949091907f8d1108e10bcb7c27dddfc02ed9d693a074039d026cf4ea4240b40f7d581ac802926000905b87821062000911575050836001959610620008f7575b505050811b01600f55565b015160001960f88460031b161c19169055388080620008ec565b80600185968294968601518155019501930190620008d6565b80519091906001600160401b038111620001835762000956816200095060105462000259565b62000453565b602080601f831160011462000995575081929360009262000989575b50508160011b916000199060031b1c191617601055565b01519050388062000972565b6010600052601f198316949091907f1b6847dc741a1b0cd08d278845f9d819d87b734759afb55fe2de5cb82a9ae672926000905b87821062000a04575050836001959610620009ea575b505050811b01601055565b015160001960f88460031b161c19169055388080620009df565b80600185968294968601518155019501930190620009c9565b969192969493946040519062000a338262000189565b600180835260209081840194603160f81b8652835160018060401b038111620001835762000a6e8162000a6860035462000259565b62000296565b8392601f821160011462000b725781809162000aa49560009362000b66575b501b916000199060031b1c1916176003556200055e565b62000aaf8262001015565b6101205262000abe8362001125565b61014052815191012060e052519020610100524660a05262000adf620012a4565b6080523060c0526001600160a01b0385161562000b4d5762000b3962000b469462000b33620001b49862000b2d62000b3f9662000b1c8b62000bfe565b62000b276001600c55565b62000651565b62000744565b62000837565b6200092a565b8262000f27565b8062000c47565b604051631e4fbdf760e01b815260006004820152602490fd5b88015192503862000a8d565b60036000529192601f198216907fc2575a0e9e593c00f959f8c92f12db2869c3395a3b0502d05e2516446f71f85b9160005b8782821062000be9575050908362000aa496959493921062000bcf575b5050811b016003556200055e565b87015160001960f88460031b161c19169055388062000bc1565b89840151855593860193928301920162000ba4565b600b80546001600160a01b039283166001600160a01b0319821681179092559091167f8be0079c531659141344cd1fd0a4f28419497f9722a3daafe3b4186f6b6457e0600080a3565b6001600160a01b0390811660008181526008602052604080822080548686166001600160a01b031982168117909255620001b4969516949391929185907f3134e8a2e6d97e929a7e54011ea5485d7d196dd5f0ba4d4ef95803e8e3fc257f8480a4806020522054915b6001600160a01b0380831693929190811690818514158062000e49575b62000cda575b5050505050565b8162000d56575b50508262000cf2575b808062000cd3565b6001600160a01b03166000908152600960205260409020600080516020620047798339815191529162000d329162000d2b909162001310565b9062000e53565b604080516001600160d01b039384168152919092166020820152a238808062000cea565b6001600160a01b0316600090815260096020526040902062000d788462001310565b9065ffffffffffff9081431162000e2a57805460008162000de55750509062000dc29162000db860008051602062004779833981519152946000620016da565b914316906200151e565b604080516001600160d01b039384168152919092166020820152a2388062000ce1565b6000939291931994848681011162000e2457600080516020620047798339815191529562000dc2956020848662000db896522001015460301c620016da565b62000f11565b6040516306dfcc6560e41b815260306004820152436024820152604490fd5b5083151562000ccd565b65ffffffffffff9081431162000e2a57805460008162000e8457505062000db862000e80936000620016f4565b9091565b9093600019858181011162000e245762000e80956020848662000db896522001015460301c620016f4565b65ffffffffffff80431162000e2a57600a5460008162000ee557505062000edc62000e80926000620016da565b90431662001422565b9092600019848181011162000e245762000e8094602084600a62000edc96522001015460301c620016da565b634e487b7160e01b600052601160045260246000fd5b906001600160a01b038216801562000ffc5762000f5062000f4b83600254620016cc565b600255565b6001600160a01b038316600090815260208181526040808320805486019055518481527fddf252ad1be2c89b69c2b068fc378daa952ba7f163c4a11628f55a4df523b3ef9190a36002546001600160d01b03811162000fd5575062000fb69082620015eb565b6015546001600160a01b03909116600090815260146020526040902055565b604051630e58ae9360e11b815260048101919091526001600160d01b036024820152604490fd5b60405163ec442f0560e01b815260006004820152602490fd5b908151602080821060001462001033575050906200023e9062001235565b6001600160401b03821162000183576200105a826200105460055462000259565b620004ac565b80601f83116001146200109a57508192936000926200108e575b50508160011b916000199060031b1c19161760055560ff90565b01519050388062001074565b6005600052601f198316949091907f036b6384b5eca791c62761152d0c79bb0604c104a5fb6f4eb0703f3154bb3db0926000905b8782106200110c575050836001959610620010f2575b505050811b0160055560ff90565b015160001960f88460031b161c19169055388080620010e4565b80600185968294968601518155019501930190620010ce565b908151602080821060001462001143575050906200023e9062001235565b6001600160401b03821162000183576200116a826200116460065462000259565b62000505565b80601f8311600114620011aa57508192936000926200119e575b50508160011b916000199060031b1c19161760065560ff90565b01519050388062001184565b6006600052601f198316949091907ff652222313e28459528d920b65115c16c04f3efc82aaedc97be59f3f377c0d3f926000905b8782106200121c57505083600195961062001202575b505050811b0160065560ff90565b015160001960f88460031b161c19169055388080620011f4565b80600185968294968601518155019501930190620011de565b601f8151116200126357602081519101516020821062001253571790565b6000198260200360031b1b161790565b6044604051809263305a27a960e01b825260206004830152620012968151809281602486015260208686019101620001b6565b601f01601f19168101030190fd5b60e051610100516040519060208201927f8b73c3c69bb8fe3d512ecc4cf759cc79239f7b179b0ffacaa9a75d522b39400f8452604083015260608201524660808201523060a082015260a0815260c0810181811060018060401b03821117620001835760405251902090565b6001600160d01b039081811162001325571690565b604490604051906306dfcc6560e41b825260d060048301526024820152fd5b60001981019190821162000e2457565b600a54906801000000000000000082101562000183576001820180600a55821015620013b657600a60005280516020919091015160301b65ffffffffffff191665ffffffffffff91909116176000805160206200475983398151915290910155565b634e487b7160e01b600052603260045260246000fd5b90815468010000000000000000811015620001835760018101808455811015620013b65760009283526020928390208251929093015160301b65ffffffffffff191665ffffffffffff9290921691909117910155565b600a549192918015620014ef576200143e620014579162001344565b600a600052600080516020620047598339815191520190565b9081549165ffffffffffff90818416918316808311620014dd578692036200149f576200149892509065ffffffffffff82549181199060301b169116179055565b60301c9190565b5050620014d790620014c2620014b4620001a5565b65ffffffffffff9092168252565b6001600160d01b038516602082015262001354565b62001498565b604051632520601d60e01b8152600490fd5b50620015189062001503620014b4620001a5565b6001600160d01b038416602082015262001354565b60009190565b80549293928015620015c15762001539620015469162001344565b8260005260206000200190565b9182549265ffffffffffff91828516928116808411620014dd578793036200158857506200149892509065ffffffffffff82549181199060301b169116179055565b915050620014d791620015ac6200159e620001a5565b65ffffffffffff9093168352565b6001600160d01b0386166020830152620013cc565b50906200151891620015d66200159e620001a5565b6001600160d01b0385166020830152620013cc565b90620015f78162001310565b9165ffffffffffff80431162000e2a57600a54600081620016995750506200162a9062000edc620001b4956000620016f4565b50506001600160a01b039081169081156200167c575b60086020527f5eff886ea0ce6ca488a3d6e336d6c0f75f46d19b42c06ce5ee98e42c96d256c75460009283526040909220548116911662000cb0565b620016916200168b8462001310565b62000eaf565b505062001640565b60009291921995838781011162000e2457620001b4966200162a94602084600a62000edc96522001015460301c620016f4565b9190820180921162000e2457565b6001600160d01b039182169082160390811162000e245790565b6001600160d01b039182169082160190811162000e24579056fe6080604052600436101561001257600080fd5b60003560e01c806303ee438c146102e257806306fdde03146102dd578063084278ec146102d8578063095ea7b3146102d35780630e4b2285146102ce578063139ba769146102c957806318160ddd146102c45780631f454923146102bf57806323b872dd146102ba578063313ce567146102b55780633644e515146102b05780633a46b1a8146102ab5780633c19804e146102a657806344e43cb8146102a15780634bf5d7e91461029c5780634eea6d79146102975780634f4dac6f14610242578063564f4f7614610292578063587cde1e1461028d5780635c19a95c146102885780636fcfff451461028357806370a082311461027e578063715018a614610279578063750521f5146102745780637ecebe001461026f57806381a2b38f1461026a57806384b0196e14610265578063881e1cff146102605780638b7afe2e1461025b5780638da5cb5b146102565780638e539e8c1461025157806391ddadf41461024c57806395d89b41146102475780639a6f99f9146102425780639ab24eb01461023d578063a9059cbb14610238578063b20a6f3614610233578063bf2d9e0b1461022e578063c3cda52014610229578063d505accf14610224578063d5f6aeb41461021f578063db2e21bc1461021a578063dd62ed3e14610215578063f1127ed8146102105763f2fde38b1461020b57600080fd5b6117c9565b611711565b6116b4565b611676565b611505565b611386565b6112a4565b611266565b611248565b611222565b6111d8565b610a0b565b6111b4565b611188565b611095565b61106e565b611052565b611013565b610eff565b610edb565b610ea1565b610d25565b610c72565b610c3a565b610bd2565b610bae565b610b73565b610a2e565b61096f565b610841565b610729565b610705565b61061e565b6105fb565b6105df565b61050a565b61048a565b61046c565b610432565b61040e565b6103dd565b610393565b61036f565b610327565b919082519283825260005b848110610313575050826000602080949584010152601f8019910116010190565b6020818301810151848301820152016102f2565b3461036a57600036600319011261036a576103666040516103528161034b81611c38565b038261193f565b6040519182916020835260208301906102e7565b0390f35b600080fd5b3461036a57600036600319011261036a576103666040516103528161034b81611cdc565b3461036a57600036600319011261036a576020601554604051908152f35b600435906001600160a01b038216820361036a57565b602435906001600160a01b038216820361036a57565b3461036a57604036600319011261036a576104036103f96103b1565b602435903361212d565b602060405160018152f35b3461036a57600036600319011261036a576103666040516103528161034b81611d63565b3461036a57602036600319011261036a576001600160a01b036104536103b1565b1660005260136020526020604060002054604051908152f35b3461036a57600036600319011261036a576020600254604051908152f35b3461036a57604036600319011261036a576104a36103b1565b6024359081151580920361036a5760206001600160a01b037f7390412ce304891b69b7a6d7722b373a8172b465ce957518d396801bc35e0872926104e5611875565b16928360005260168252604060002060ff1981541660ff8316179055604051908152a2005b3461036a57606036600319011261036a576105236103b1565b61052b6103c7565b604435906001600160a01b0383166000526001602052610562336040600020906001600160a01b0316600052602052604060002090565b54926000198410610584575b6105789350611f7f565b60405160018152602090f35b8284106105a05761059b8361057895033383612213565b61056e565b6040517ffb8f41b20000000000000000000000000000000000000000000000000000000081523360048201526024810185905260448101849052606490fd5b3461036a57600036600319011261036a57602060405160128152f35b3461036a57600036600319011261036a576020610616612475565b604051908152f35b3461036a57604036600319011261036a576001600160a01b0361063f6103b1565b1660009081526009602052604081209061065a602435611970565b918054829381600581116106ab575b50906020946106789284612d51565b806106915750505b6001600160d01b0360405191168152f35b9161069d849293612800565b92815220015460301c610680565b946106b58661284a565b8603958611610700576020956106789385875265ffffffffffff80838a8a20015416908516106000146106ee5750915b91925094610669565b9291506106fa9061280f565b906106e5565b611be8565b3461036a57600036600319011261036a576103666040516103528161034b81611dea565b600036600319011261036a5761076361075f610758336001600160a01b03166000526016602052604060002090565b5460ff1690565b1590565b80610817575b6107ed573461077457005b6107886107833460115461281d565b601155565b600254806107c2575b5060405134815233907ff3a9b3760e99454de4c494f7ed29f5204ab92febacb0acf52ea04ad4a9d2246690602090a2005b6107e26107da6107e7926107d534612ebc565b61282a565b60155461281d565b601555565b38610791565b60046040517f614d358c000000000000000000000000000000000000000000000000000000008152fd5b5061083961082d600b546001600160a01b031690565b6001600160a01b031690565b331415610769565b3461036a57600036600319011261036a5761085b436127ce565b65ffffffffffff8061086c436127ce565b169116036108c157610366604051610883816118cf565b601d81527f6d6f64653d626c6f636b6e756d6265722666726f6d3d64656661756c7400000060208201526040519182916020835260208301906102e7565b60046040517f6ff07140000000000000000000000000000000000000000000000000000000008152fd5b959794919361093261094e9461092461096c9c9a97610916610940968c6101208091528d01906102e7565b908b820360208d01526102e7565b9089820360408b01526102e7565b9087820360608901526102e7565b9085820360808701526102e7565b9460a084015260c083015260e08201526101008184039101526102e7565b90565b3461036a57600036600319011261036a57604080516109918161034b81611cdc565b6103668251926109ab846109a481611e71565b038561193f565b6002546011546012549183516109c48161034b81611dea565b84516109d38161034b81611d63565b8551916109ea836109e381611c38565b038461193f565b865196610a01886109fa81611ef8565b038961193f565b51998a998a6108eb565b3461036a57602036600319011261036a576020610616610a296103b1565b612f19565b3461036a57600080600319360112610b70576002600c5414610b46576002600c55610a5833612f19565b8015610b1c57336000908152601360205260409020610a7882825461281d565b905560155433600090815260146020526040902055610aa1610a9c8260125461281d565b601255565b8180808084335af1610ab1612ed9565b5015610af25760405190815233907fc15f451120b13b6b40c6ad6203614ab3088308bef9150c0d6f46ea79bf46422490602090a2610aef6001600c55565b80f35b60046040517f90b8ec18000000000000000000000000000000000000000000000000000000008152fd5b60046040517f02a1c5ba000000000000000000000000000000000000000000000000000000008152fd5b60046040517f3ee5aeb5000000000000000000000000000000000000000000000000000000008152fd5b80fd5b3461036a57602036600319011261036a5760206001600160a01b0380610b976103b1565b166000526008825260406000205416604051908152f35b3461036a57602036600319011261036a57610bd0610bca6103b1565b336119ca565b005b3461036a57602036600319011261036a576001600160a01b03610bf36103b1565b16600052600960205260406000205463ffffffff90818111610c1b5760209160405191168152f35b604490604051906306dfcc6560e41b8252602060048301526024820152fd5b3461036a57602036600319011261036a576020610616610c586103b1565b6001600160a01b0316600052600060205260406000205490565b3461036a57600080600319360112610b7057610c8c611875565b806001600160a01b03600b5473ffffffffffffffffffffffffffffffffffffffff198116600b55167f8be0079c531659141344cd1fd0a4f28419497f9722a3daafe3b4186f6b6457e08280a380f35b90602060031983011261036a5760043567ffffffffffffffff9283821161036a578060238301121561036a57816004013593841161036a576024848301011161036a576024019190565b3461036a57610d3336610cdb565b610d3b611875565b8015610e775767ffffffffffffffff8111610e7257610d6481610d5f600f54611bfe565b612db2565b600091601f8211600114610dd157817f1c306e70c05992619e2128ad1ef88df75f36c9476282e59f51401b2abaa42e4e93600091610dc6575b508260011b906000198460031b1c191617600f555b610dc160405192839283612e94565b0390a1005b905081013538610d9d565b600f6000527f8d1108e10bcb7c27dddfc02ed9d693a074039d026cf4ea4240b40f7d581ac802601f198316845b818110610e5a575093837f1c306e70c05992619e2128ad1ef88df75f36c9476282e59f51401b2abaa42e4e9510610e40575b5050600182811b01600f55610db2565b820135600019600385901b60f8161c191690553880610e30565b83860135835560209586019560019093019201610dfe565b6118b9565b60046040517feec403f0000000000000000000000000000000000000000000000000000000008152fd5b3461036a57602036600319011261036a576001600160a01b03610ec26103b1565b1660005260076020526020604060002054604051908152f35b3461036a57600036600319011261036a576103666040516103528161034b81611ef8565b3461036a57600080600319360112610b7057610fc590610f3e7f00000000000000000000000000000000000000000000000000000000000000006125d0565b610f677f00000000000000000000000000000000000000000000000000000000000000006126e1565b9160405191610f75836118eb565b8183526040519485947f0f000000000000000000000000000000000000000000000000000000000000008652610fb760209360e08589015260e08801906102e7565b9086820360408801526102e7565b904660608601523060808601528260a086015284820360c08601528080855193848152019401925b828110610ffc57505050500390f35b835185528695509381019392810192600101610fed565b3461036a57602036600319011261036a576001600160a01b036110346103b1565b166000526016602052602060ff604060002054166040519015158152f35b3461036a57600036600319011261036a57602047604051908152f35b3461036a57600036600319011261036a5760206001600160a01b03600b5416604051908152f35b3461036a57602036600319011261036a576110b1600435611970565b600a5490600082916005841161111b575b6110cc9350612cd6565b6000816110e157505060405160008152602090f35b600a6110ee602093612800565b91527fc65a7bb8d6351c1cf70c95a316cc6a92839c986682d98bc35f958f4883f9d2a8015460301c610680565b91926111268161284a565b8103908111610700576110cc93600a835265ffffffffffff80837fc65a7bb8d6351c1cf70c95a316cc6a92839c986682d98bc35f958f4883f9d2a8015416908516106000146111765750916110c2565b9291506111829061280f565b906110c2565b3461036a57600036600319011261036a5760206111a4436127ce565b65ffffffffffff60405191168152f35b3461036a57600036600319011261036a576103666040516103528161034b81611e71565b3461036a57602036600319011261036a576001600160a01b036111f96103b1565b16600052600960205260206001600160d01b0361121960406000206129d6565b16604051908152f35b3461036a57604036600319011261036a5761040361123e6103b1565b6024359033611f7f565b3461036a57600036600319011261036a576020601254604051908152f35b3461036a57600036600319011261036a576020601154604051908152f35b6064359060ff8216820361036a57565b6084359060ff8216820361036a57565b3461036a5760c036600319011261036a576112bd6103b1565b604435906024356112cc611284565b83421161135557611349610bd094611350926040519060208201927fe48329057bfd03d55e49b547132e39cffd9c1820ad7b9d4c5307691425d15adf84526001600160a01b038816604084015286606084015260808301526080825261133182611907565b61134460a435936084359351902061258f565b6122d6565b9182612264565b6119ca565b602484604051907f4683af0e0000000000000000000000000000000000000000000000000000000082526004820152fd5b3461036a5760e036600319011261036a5761139f6103b1565b6113a76103c7565b604435906064356113b6611294565b8142116114d45790611453611474926114616113ee886001600160a01b03166000526007602052604060002080549060018201905590565b9360405193849160208301968a8a8d8a91959493909260a09360c08401977f6e71edae12b1b97f4d1f60370fef10105fa2faae0126114a169c64845d6126c985526001600160a01b038092166020860152166040840152606083015260808201520152565b03601f19810184528361193f565b61134460c4359360a4359351902061258f565b6001600160a01b03808516908216036114915750610bd09261212d565b6040517f4b800e460000000000000000000000000000000000000000000000000000000081526001600160a01b0391821660048201529084166024820152604490fd5b602482604051907f627913020000000000000000000000000000000000000000000000000000000082526004820152fd5b3461036a5761151336610cdb565b61151b611875565b801561164c5767ffffffffffffffff8111610e72576115448161153f601054611bfe565b612e23565b600091601f82116001146115ab57817f732d2e87dcc1907685c097f7373a47d8c7cd8ef98b659b5f2d4272b26aab48a7936000916115a0575b508260011b906000198460031b1c191617601055610dc160405192839283612e94565b90508101353861157d565b60106000527f1b6847dc741a1b0cd08d278845f9d819d87b734759afb55fe2de5cb82a9ae672601f198316845b818110611634575093837f732d2e87dcc1907685c097f7373a47d8c7cd8ef98b659b5f2d4272b26aab48a7951061161a575b5050600182811b01601055610db2565b820135600019600385901b60f8161c19169055388061160a565b838601358355602095860195600190930192016115d8565b60046040517f3d9e4cad000000000000000000000000000000000000000000000000000000008152fd5b3461036a57600080600319360112610b7057611690611875565b80808080476001600160a01b03600b54165af16116ab612ed9565b5015610af25780f35b3461036a57604036600319011261036a5760206117086116d26103b1565b6001600160a01b036116e26103c7565b9116600052600183526040600020906001600160a01b0316600052602052604060002090565b54604051908152f35b3461036a57604036600319011261036a5761172a6103b1565b6024359063ffffffff8216820361036a57610366916001600160a01b036117799261175361224b565b5061175c61224b565b50166000526009602052604060002061177361224b565b50612a04565b5060405190611787826118cf565b5465ffffffffffff8116825260301c60208201526040519182918291909160206001600160d01b0381604084019565ffffffffffff8151168552015116910152565b3461036a57602036600319011261036a576117e26103b1565b6117ea611875565b6001600160a01b0380911690811561184457600b548273ffffffffffffffffffffffffffffffffffffffff19821617600b55167f8be0079c531659141344cd1fd0a4f28419497f9722a3daafe3b4186f6b6457e0600080a3005b60246040517f1e4fbdf700000000000000000000000000000000000000000000000000000000815260006004820152fd5b6001600160a01b03600b5416330361188957565b60246040517f118cdaa7000000000000000000000000000000000000000000000000000000008152336004820152fd5b634e487b7160e01b600052604160045260246000fd5b6040810190811067ffffffffffffffff821117610e7257604052565b6020810190811067ffffffffffffffff821117610e7257604052565b60a0810190811067ffffffffffffffff821117610e7257604052565b60c0810190811067ffffffffffffffff821117610e7257604052565b90601f8019910116810190811067ffffffffffffffff821117610e7257604052565b6040519061196e826118cf565b565b65ffffffffffff611980436127ce565b1680821015611993575061096c906127ce565b60449250604051917fecd3f81e00000000000000000000000000000000000000000000000000000000835260048301526024820152fd5b61196e91611a546001600160a01b039273ffffffffffffffffffffffffffffffffffffffff19848216948560005260086020526040600020958654968288169788938816948591161790557f3134e8a2e6d97e929a7e54011ea5485d7d196dd5f0ba4d4ef95803e8e3fc257f600080a46001600160a01b0316600052600060205260406000205490565b915b91906001600160a01b0392838216938116908482141580611ba9575b611a7e575b5050505050565b81611b07575b505082611a93575b8080611a77565b7fdec2bacdd2f05b59de34da9b523dff8be42e5e38e818c82fdb0bae774387a72491611ade611ad8611ae4936001600160a01b03166000526009602052604060002090565b9161279b565b90611bb2565b604080516001600160d01b039384168152919092166020820152a2388080611a8c565b611b24906001600160a01b03166000526009602052604060002090565b611b2d8461279b565b611b36436127ce565b6001600160d01b03918280611b4a866129d6565b169116900392828411610700577fdec2bacdd2f05b59de34da9b523dff8be42e5e38e818c82fdb0bae774387a72493611b9f92611b8692612c1a565b6040805192851683529316602082015291829190820190565b0390a23880611a84565b50831515611a72565b90611bbc436127ce565b6001600160d01b03918280611bd0866129d6565b16911601918211611be857611be492612c1a565b9091565b634e487b7160e01b600052601160045260246000fd5b90600182811c92168015611c2e575b6020831014611c1857565b634e487b7160e01b600052602260045260246000fd5b91607f1691611c0d565b600f5460009291611c4882611bfe565b80825291600190818116908115611cbf5750600114611c6657505050565b91929350600f6000527f8d1108e10bcb7c27dddfc02ed9d693a074039d026cf4ea4240b40f7d581ac802916000925b848410611ca757505060209250010190565b80546020858501810191909152909301928101611c95565b915050602093945060ff929192191683830152151560051b010190565b60035460009291611cec82611bfe565b80825291600190818116908115611cbf5750600114611d0a57505050565b9192935060036000527fc2575a0e9e593c00f959f8c92f12db2869c3395a3b0502d05e2516446f71f85b916000925b848410611d4b57505060209250010190565b80546020858501810191909152909301928101611d39565b600e5460009291611d7382611bfe565b80825291600190818116908115611cbf5750600114611d9157505050565b91929350600e6000527fbb7b4a454dc3493923482f07822329ed19e8244eff582cc204f8554c3620c3fd916000925b848410611dd257505060209250010190565b80546020858501810191909152909301928101611dc0565b600d5460009291611dfa82611bfe565b80825291600190818116908115611cbf5750600114611e1857505050565b91929350600d6000527fd7b6990105719101dabeb77144f2a3385c8033acd3af97e9423a695e81ad1eb5916000925b848410611e5957505060209250010190565b80546020858501810191909152909301928101611e47565b60045460009291611e8182611bfe565b80825291600190818116908115611cbf5750600114611e9f57505050565b9192935060046000527f8a35acfbc15ff81a39ae7d344fd709f28e8600b4aa8c65c6b64bfe7fe36bd19b916000925b848410611ee057505060209250010190565b80546020858501810191909152909301928101611ece565b60105460009291611f0882611bfe565b80825291600190818116908115611cbf5750600114611f2657505050565b9192935060106000527f1b6847dc741a1b0cd08d278845f9d819d87b734759afb55fe2de5cb82a9ae672916000925b848410611f6757505060209250010190565b80546020858501810191909152909301928101611f55565b90916001600160a01b038083169081156120fc5784169081156120cb57611fb9846001600160a01b03166000526000602052604060002090565b54838110612082579261207f94926120469282612065989603611fef866001600160a01b03166000526000602052604060002090565b5561200d866001600160a01b03166000526000602052604060002090565b8054840190556040518381527fddf252ad1be2c89b69c2b068fc378daa952ba7f163c4a11628f55a4df523b3ef90602090a38383612f6c565b6015549384916001600160a01b03166000526014602052604060002090565b556001600160a01b03166000526014602052604060002090565b55565b6040517fe450d38c0000000000000000000000000000000000000000000000000000000081526001600160a01b0386166004820152602481019190915260448101849052606490fd5b60246040517fec442f0500000000000000000000000000000000000000000000000000000000815260006004820152fd5b60246040517f96c6fd1e00000000000000000000000000000000000000000000000000000000815260006004820152fd5b906001600160a01b03918281169283156121e25782169384156121b157806121a77f8c5be1e5ebec7d5bd14f71427d1e84f3dd0314c0f7b2291e5b200ac8c7c3b9259461218f6020956001600160a01b03166000526001602052604060002090565b906001600160a01b0316600052602052604060002090565b55604051908152a3565b60246040517f94280d6200000000000000000000000000000000000000000000000000000000815260006004820152fd5b60246040517fe602df0500000000000000000000000000000000000000000000000000000000815260006004820152fd5b906001600160a01b03808316156121e2578116156121b15761218f61207f926001600160a01b03166000526001602052604060002090565b60405190612258826118cf565b60006020838281520152565b9061228b826001600160a01b03166000526007602052604060002080549060018201905590565b809103612296575050565b604492506001600160a01b03604051927f752d88c00000000000000000000000000000000000000000000000000000000084521660048301526024820152fd5b9161096c93916122e5936122ee565b9092919261239e565b91907f7fffffffffffffffffffffffffffffff5d576e7357a4501ddfe92f46681b20a0841161237257926020929160ff608095604051948552168484015260408301526060820152600092839182805260015afa156123665780516001600160a01b0381161561235d57918190565b50809160019190565b604051903d90823e3d90fd5b50505060009160039190565b6004111561238857565b634e487b7160e01b600052602160045260246000fd5b6123a78161237e565b806123b0575050565b6123b98161237e565b600181036123eb5760046040517ff645eedf000000000000000000000000000000000000000000000000000000008152fd5b6123f48161237e565b6002810361242e576040517ffce698f700000000000000000000000000000000000000000000000000000000815260048101839052602490fd5b8061243a60039261237e565b146124425750565b6040517fd78bce0c0000000000000000000000000000000000000000000000000000000081526004810191909152602490fd5b6001600160a01b037f000000000000000000000000000000000000000000000000000000000000000016301480612566575b156124d0577f000000000000000000000000000000000000000000000000000000000000000090565b60405160208101907f8b73c3c69bb8fe3d512ecc4cf759cc79239f7b179b0ffacaa9a75d522b39400f82527f000000000000000000000000000000000000000000000000000000000000000060408201527f000000000000000000000000000000000000000000000000000000000000000060608201524660808201523060a082015260a0815261256081611923565b51902090565b507f000000000000000000000000000000000000000000000000000000000000000046146124a7565b60429061259a612475565b90604051917f19010000000000000000000000000000000000000000000000000000000000008352600283015260228201522090565b60ff81146126265760ff811690601f82116125fc57604051916125f2836118cf565b8252602082015290565b60046040517fb3512b0c000000000000000000000000000000000000000000000000000000008152fd5b5060405160055481600061263983611bfe565b808352926001908181169081156126bf5750600114612660575b5061096c9250038261193f565b6005600090815291507f036b6384b5eca791c62761152d0c79bb0604c104a5fb6f4eb0703f3154bb3db05b8483106126a4575061096c935050810160200138612653565b8193509081602092548385890101520191019091849261268b565b90506020925061096c94915060ff191682840152151560051b82010138612653565b60ff81146127035760ff811690601f82116125fc57604051916125f2836118cf565b5060405160065481600061271683611bfe565b808352926001908181169081156126bf575060011461273c575061096c9250038261193f565b6006600090815291507ff652222313e28459528d920b65115c16c04f3efc82aaedc97be59f3f377c0d3f5b848310612780575061096c935050810160200138612653565b81935090816020925483858901015201910190918492612767565b6001600160d01b03908181116127af571690565b604490604051906306dfcc6560e41b825260d060048301526024820152fd5b65ffffffffffff908181116127e1571690565b604490604051906306dfcc6560e41b8252603060048301526024820152fd5b60001981019190821161070057565b906001820180921161070057565b9190820180921161070057565b8115612834570490565b634e487b7160e01b600052601260045260246000fd5b600181111561096c57600181700100000000000000000000000000000000811015612975575b61291d6129136129096128ff6128f56128eb61292997600488680100000000000000006129249a1015612968575b64010000000081101561295b575b6201000081101561294e575b610100811015612942575b6010811015612936575b101561292e575b60030260011c6128e4818b61282a565b0160011c90565b6128e4818a61282a565b6128e4818961282a565b6128e4818861282a565b6128e4818761282a565b6128e4818661282a565b809361282a565b821190565b900390565b60011b6128d4565b811c9160021b916128cd565b60081c91811b916128c3565b60101c9160081b916128b8565b60201c9160101b916128ac565b60401c9160201b9161289e565b50680100000000000000009050608082901c612870565b600a546000908061299e575050600090565b8060001981011161070057600a7fc65a7bb8d6351c1cf70c95a316cc6a92839c986682d98bc35f958f4883f9d2a79252015460301c90565b8054600091816129e857505050600090565b6000199282848101116107005760209181522001015460301c90565b8054821015612a1c5760005260206000200190600090565b634e487b7160e01b600052603260045260246000fd5b600a549068010000000000000000821015610e72576001820180600a55821015612a1c57600a60005280516020919091015160301b65ffffffffffff191665ffffffffffff91909116177fc65a7bb8d6351c1cf70c95a316cc6a92839c986682d98bc35f958f4883f9d2a890910155565b805468010000000000000000811015610e7257612ac591600182018155612a04565b612af15781516020929092015160301b65ffffffffffff191665ffffffffffff92909216919091179055565b634e487b7160e01b600052600060045260246000fd5b600a549192918015612bf057612b1f612b4991612800565b600a6000527fc65a7bb8d6351c1cf70c95a316cc6a92839c986682d98bc35f958f4883f9d2a80190565b9081549165ffffffffffff90818416918316808311612bc657869203612b8e57612b8792509065ffffffffffff82549181199060301b169116179055565b60301c9190565b5050612bc190612bad612b9f611961565b65ffffffffffff9092168252565b6001600160d01b0385166020820152612a32565b612b87565b60046040517f2520601d000000000000000000000000000000000000000000000000000000008152fd5b50612c1490612c00612b9f611961565b6001600160d01b0384166020820152612a32565b60009190565b80549293928015612cb157612c31612c3e91612800565b8260005260206000200190565b9182549265ffffffffffff91828516928116808411612bc657879303612c7d5750612b8792509065ffffffffffff82549181199060301b169116179055565b915050612bc191612c9d612c8f611961565b65ffffffffffff9093168352565b6001600160d01b0386166020830152612aa3565b5090612c1491612cc2612c8f611961565b6001600160d01b0385166020830152612aa3565b905b828110612ce457505090565b90918082169080831860011c820180921161070057600a60005265ffffffffffff80837fc65a7bb8d6351c1cf70c95a316cc6a92839c986682d98bc35f958f4883f9d2a801541690851610600014612d3f5750915b90612cd8565b929150612d4b9061280f565b90612d39565b91905b838210612d615750505090565b9091928083169080841860011c82018092116107005760008581526020902082015465ffffffffffff9081169084161015612da05750925b9190612d54565b939250612dac9061280f565b91612d99565b601f8111612dbe575050565b600090600f82527f8d1108e10bcb7c27dddfc02ed9d693a074039d026cf4ea4240b40f7d581ac802906020601f850160051c83019410612e19575b601f0160051c01915b828110612e0e57505050565b818155600101612e02565b9092508290612df9565b601f8111612e2f575050565b600090601082527f1b6847dc741a1b0cd08d278845f9d819d87b734759afb55fe2de5cb82a9ae672906020601f850160051c83019410612e8a575b601f0160051c01915b828110612e7f57505050565b818155600101612e73565b9092508290612e6a565b90918060409360208452816020850152848401376000828201840152601f01601f1916010190565b90670de0b6b3a76400009182810292818404149015171561070057565b3d15612f14573d9067ffffffffffffffff8211610e725760405191612f08601f8201601f19166020018461193f565b82523d6000602084013e565b606090565b6001600160a01b031660005260006020526040600020548015612f665760155460146020526040600020548103908111610700578082029182040361070057670de0b6b3a7640000900490565b50600090565b6001600160a01b03908116929181908415612ff8575b16908115612fb0575b61196e9360005260086020528060406000205416916000526040600020541690611a56565b612fb98361279b565b93612fc3436127ce565b6001600160d01b03958680612fd661298c565b16911690039586116107005761196e95612fef91612b07565b50509350612f8b565b90506130038361279b565b9061300d436127ce565b6001600160d01b0392838061302061298c565b1691160192831161070057839261303691612b07565b5050612f8256fea164736f6c6343000814000ac65a7bb8d6351c1cf70c95a316cc6a92839c986682d98bc35f958f4883f9d2a8dec2bacdd2f05b59de34da9b523dff8be42e5e38e818c82fdb0bae774387a724",
  "linkReferences": {},
  "deployedLinkReferences": {}
}