{
  "_format": "hh-sol-artifact-1",
  "contractName": "AgentLiquidityManager",
  "sourceName": "contracts/AgentLiquidityManager.sol",
  "abi": [
    {
      "inputs": [
        {
          "internalType": "address",
          "name": "_uniswapRouter",
          "type": "address"
        }
      ],
      "stateMutability": "nonpayable",
      "type": "constructor"
    },
    {
      "inputs": [],
      "name": "InvalidRouter",
      "type": "error"
    },
    {
      "inputs": [],
      "name": "InvalidTokenAddress",
      "type": "error"
    },
    {
      "inputs": [],
      "name": "LPCreationFailed",
      "type": "error"
    },
    {
      "inputs": [
        {
          "internalType": "address",
          "name": "owner",
          "type": "address"
        }
      ],
      "name": "OwnableInvalidOwner",
      "type": "error"
    },
    {
      "inputs": [
        {
          "internalType": "address",
          "name": "account",
          "type": "address"
        }
      ],
      "name": "OwnableUnauthorizedAccount",
      "type": "error"
    },
    {
      "inputs": [],
      "name": "ReentrancyGuardReentrantCall",
      "type": "error"
    },
    {
      "inputs": [],
      "name": "UnauthorizedCaller",
      "type": "error"
    },
    {
      "anonymous": false,
      "inputs": [
        {
          "indexed": true,
          "internalType": "address",
          "name": "caller",
          "type": "address"
        },
        {
          "indexed": false,
          "internalType": "bool",
          "name": "authorized",
          "type": "bool"
        }
      ],
      "name": "AuthorizedCallerUpdated",
      "type": "event"
    },
    {
      "anonymous": false,
      "inputs": [
        {
          "indexed": true,
          "internalType": "address",
          "name": "tokenAddress",
          "type": "address"
        },
        {
          "indexed": true,
          "internalType": "address",
          "name": "lpPairAddress",
          "type": "address"
        },
        {
          "indexed": false,
          "internalType": "uint256",
          "name": "tokenAmount",
          "type": "uint256"
        },
        {
          "indexed": false,
          "internalType": "uint256",
          "name": "ethAmount",
          "type": "uint256"
        },
        {
          "indexed": true,
          "internalType": "address",
          "name": "creator",
          "type": "address"
        }
      ],
      "name": "LiquidityPoolCreated",
      "type": "event"
    },
    {
      "anonymous": false,
      "inputs": [
        {
          "indexed": true,
          "internalType": "address",
          "name": "previousOwner",
          "type": "address"
        },
        {
          "indexed": true,
          "internalType": "address",
          "name": "newOwner",
          "type": "address"
        }
      ],
      "name": "OwnershipTransferred",
      "type": "event"
    },
    {
      "inputs": [],
      "name": "BASIS_POINTS",
      "outputs": [
        {
          "internalType": "uint256",
          "name": "",
          "type": "uint256"
        }
      ],
      "stateMutability": "view",
      "type": "function"
    },
    {
      "inputs": [
        {
          "internalType": "address",
          "name": "",
          "type": "address"
        }
      ],
      "name": "authorizedCallers",
      "outputs": [
        {
          "internalType": "bool",
          "name": "",
          "type": "bool"
        }
      ],
      "stateMutability": "view",
      "type": "function"
    },
    {
      "inputs": [
        {
          "internalType": "address",
          "name": "tokenAddress",
          "type": "address"
        },
        {
          "internalType": "uint256",
          "name": "tokenSupply",
          "type": "uint256"
        },
        {
          "internalType": "address",
          "name": "creator",
          "type": "address"
        }
      ],
      "name": "createLiquidityPool",
      "outputs": [
        {
          "internalType": "address",
          "name": "lpPair",
          "type": "address"
        }
      ],
      "stateMutability": "payable",
      "type": "function"
    },
    {
      "inputs": [],
      "name": "defaultTokenLPPercentage",
      "outputs": [
        {
          "internalType": "uint256",
          "name": "",
          "type": "uint256"
        }
      ],
      "stateMutability": "view",
      "type": "function"
    },
    {
      "inputs": [
        {
          "internalType": "address",
          "name": "tokenAddress",
          "type": "address"
        },
        {
          "internalType": "uint256",
          "name": "amount",
          "type": "uint256"
        }
      ],
      "name": "emergencyTokenWithdraw",
      "outputs": [],
      "stateMutability": "nonpayable",
      "type": "function"
    },
    {
      "inputs": [],
      "name": "emergencyWithdraw",
      "outputs": [],
      "stateMutability": "nonpayable",
      "type": "function"
    },
    {
      "inputs": [
        {
          "internalType": "address",
          "name": "tokenAddress",
          "type": "address"
        }
      ],
      "name": "getLPPair",
      "outputs": [
        {
          "internalType": "address",
          "name": "",
          "type": "address"
        }
      ],
      "stateMutability": "view",
      "type": "function"
    },
    {
      "inputs": [
        {
          "internalType": "address",
          "name": "tokenAddress",
          "type": "address"
        }
      ],
      "name": "hasLiquidityPool",
      "outputs": [
        {
          "internalType": "bool",
          "name": "",
          "type": "bool"
        }
      ],
      "stateMutability": "view",
      "type": "function"
    },
    {
      "inputs": [],
      "name": "owner",
      "outputs": [
        {
          "internalType": "address",
          "name": "",
          "type": "address"
        }
      ],
      "stateMutability": "view",
      "type": "function"
    },
    {
      "inputs": [],
      "name": "renounceOwnership",
      "outputs": [],
      "stateMutability": "nonpayable",
      "type": "function"
    },
    {
      "inputs": [
        {
          "internalType": "address",
          "name": "caller",
          "type": "address"
        },
        {
          "internalType": "bool",
          "name": "authorized",
          "type": "bool"
        }
      ],
      "name": "setAuthorizedCaller",
      "outputs": [],
      "stateMutability": "nonpayable",
      "type": "function"
    },
    {
      "inputs": [
        {
          "internalType": "uint256",
          "name": "_percentage",
          "type": "uint256"
        }
      ],
      "name": "setTokenLPPercentage",
      "outputs": [],
      "stateMutability": "nonpayable",
      "type": "function"
    },
    {
      "inputs": [
        {
          "internalType": "address",
          "name": "_uniswapRouter",
          "type": "address"
        }
      ],
      "name": "setUniswapRouter",
      "outputs": [],
      "stateMutability": "nonpayable",
      "type": "function"
    },
    {
      "inputs": [
        {
          "internalType": "address",
          "name": "",
          "type": "address"
        }
      ],
      "name": "tokenToPair",
      "outputs": [
        {
          "internalType": "address",
          "name": "",
          "type": "address"
        }
      ],
      "stateMutability": "view",
      "type": "function"
    },
    {
      "inputs": [
        {
          "internalType": "address",
          "name": "newOwner",
          "type": "address"
        }
      ],
      "name": "transferOwnership",
      "outputs": [],
      "stateMutability": "nonpayable",
      "type": "function"
    },
    {
      "inputs": [],
      "name": "uniswapRouter",
      "outputs": [
        {
          "internalType": "address",
          "name": "",
          "type": "address"
        }
      ],
      "stateMutability": "view",
      "type": "function"
    },
    {
      "stateMutability": "payable",
      "type": "receive"
    }
  ],
  "bytecode": "0x6080346100e957601f610e5538819003918201601f19168301916001600160401b038311848410176100ee578084926020946040528339810103126100e957516001600160a01b03808216918290036100e95733156100d0576000549060018060a01b0319913383821617600055604051913391167f8be0079c531659141344cd1fd0a4f28419497f9722a3daafe3b4186f6b6457e0600080a360018055611f4060035582156100c157506002541617600255604051610d5090816101058239f35b63466d7fef60e01b8152600490fd5b604051631e4fbdf760e01b815260006004820152602490fd5b600080fd5b634e487b7160e01b600052604160045260246000fdfe608080604052600436101561001d575b50361561001b57600080fd5b005b60003560e01c9081632a05d603146105ea57508063317cb1511461054557806334243a9d14610508578063454bbd291461046a578063536fff6c1461042b578063715018a6146103ba578063735de9f7146103935780638a047d5e146103315780638da5cb5b1461036c5780638e70050f14610331578063bea9849e146102a9578063bfd1769e1461028b578063db2e21bc1461023b578063e00b5bf2146101b3578063e1f1c4a7146101965763f2fde38b146100da573861000f565b34610191576020600319360112610191576100f3610c42565b6100fb610c58565b6001600160a01b0380911690811561016057600054827fffffffffffffffffffffffff0000000000000000000000000000000000000000821617600055167f8be0079c531659141344cd1fd0a4f28419497f9722a3daafe3b4186f6b6457e0600080a3005b60246040517f1e4fbdf700000000000000000000000000000000000000000000000000000000815260006004820152fd5b600080fd5b346101915760006003193601126101915760206040516127108152f35b34610191576020600319360112610191576004356101cf610c58565b61271081116101dd57600355005b60646040517f08c379a000000000000000000000000000000000000000000000000000000000815260206004820152601260248201527f496e76616c69642070657263656e7461676500000000000000000000000000006044820152fd5b3461019157600060031936011261019157610254610c58565b60008080806001600160a01b038154164790828215610282575bf11561027657005b6040513d6000823e3d90fd5b506108fc61026e565b34610191576000600319360112610191576020600354604051908152f35b34610191576020600319360112610191576001600160a01b036102ca610c42565b6102d2610c58565b168015610307577fffffffffffffffffffffffff00000000000000000000000000000000000000006002541617600255600080f35b60046040517f466d7fef000000000000000000000000000000000000000000000000000000008152fd5b346101915760206003193601126101915760206001600160a01b0380610355610c42565b166000526004825260406000205416604051908152f35b346101915760006003193601126101915760206001600160a01b0360005416604051908152f35b346101915760006003193601126101915760206001600160a01b0360025416604051908152f35b34610191576000600319360112610191576103d3610c58565b60006001600160a01b0381547fffffffffffffffffffffffff000000000000000000000000000000000000000081168355167f8be0079c531659141344cd1fd0a4f28419497f9722a3daafe3b4186f6b6457e08280a3005b34610191576020600319360112610191576001600160a01b0361044c610c42565b166000526005602052602060ff604060002054166040519015158152f35b3461019157604060031936011261019157610483610c42565b602435908115158092036101915760206001600160a01b037fad857fa38c9319cb80848f1ef2f924383b90297eb5d71755738ff037d100faa1926104c5610c58565b1692836000526005825260406000207fffffffffffffffffffffffffffffffffffffffffffffffffffffffffffffff0081541660ff8316179055604051908152a2005b346101915760206003193601126101915760206001600160a01b038061052c610c42565b1660005260048252604060002054161515604051908152f35b346101915760406003193601126101915761055e610c42565b610566610c58565b600080546040517fa9059cbb0000000000000000000000000000000000000000000000000000000081526001600160a01b0391821660048201526024803590820152926020928492604492849291165af18015610276576105c357005b61001b9060203d81116105e3575b6105db8183610c9c565b810190610d0c565b503d6105d1565b6060600319360112610191576105fe610c42565b604435916001600160a01b03831683036101915733600052600560205260ff604060002054161580610c2d575b610c055750600260015414610bdb5760026001556001600160a01b03811615610bb15760035460243580820292918115918404141715610a4d57612710820460243503926024358411610a4d576040517f23b872dd000000000000000000000000000000000000000000000000000000008152336004820152306024820152602435604482015260208160648160006001600160a01b0388165af1801561027657610b92575b506001600160a01b036002541692604051937fc45a0155000000000000000000000000000000000000000000000000000000008552602085600481845afa8015610276576001600160a01b03602091600497600091610b75575b501691604051968780927fad5c46480000000000000000000000000000000000000000000000000000000082525afa94851561027657600095610b54575b506040517fe6a439050000000000000000000000000000000000000000000000000000000081526001600160a01b0385811660048301528616602482015294602086604481855afa95861561027657600096610b33575b506001600160a01b03861615610a9b575b50506001600160a01b03838116600081815260046020818152604080842080547fffffffffffffffffffffffff0000000000000000000000000000000000000000169a87169a8b17905560025490517f095ea7b3000000000000000000000000000000000000000000000000000000008152951691850191909152612710850460248501529183916044918391905af1801561027657610a7c575b506001600160a01b03600254169461012c4201804211610a4d5760609060c4604051809981937ff305d7190000000000000000000000000000000000000000000000000000000083526001600160a01b038a166004840152612710880460248401526127108804604484015234606484015230608484015260a483015234905af191821561027657600096600093610a10575b5061271090046024350361095b575b50937f6545810b4545656bad60ad9d154977a47f70bb528d00f13850362667b4a5d6a760406001600160a01b0380879560209984519687528a87015216951692a460018055604051908152f35b6040517fa9059cbb000000000000000000000000000000000000000000000000000000008152336004820152602481019190915294909160208660448160006001600160a01b0389165af1928315610276576001600160a01b03807f6545810b4545656bad60ad9d154977a47f70bb528d00f13850362667b4a5d6a79360409360209a8a986109f3575b50959950955050505061090e565b610a09908c3d8e116105e3576105db8183610c9c565b508b6109e5565b965091506060863d8211610a45575b81610a2c60609383610c9c565b81010312610191576127106020875197015192906108ff565b3d9150610a1f565b7f4e487b7100000000000000000000000000000000000000000000000000000000600052601160045260246000fd5b610a949060203d6020116105e3576105db8183610c9c565b508561086c565b6040517fc9c653960000000000000000000000000000000000000000000000000000000081526001600160a01b038681166004830152919091166024820152919450602090829060449082906000905af190811561027657600091610b04575b509285806107d1565b610b26915060203d602011610b2c575b610b1e8183610c9c565b810190610d24565b85610afb565b503d610b14565b610b4d91965060203d602011610b2c57610b1e8183610c9c565b94876107c0565b610b6e91955060203d602011610b2c57610b1e8183610c9c565b9386610769565b610b8c9150833d8511610b2c57610b1e8183610c9c565b8961072b565b610baa9060203d6020116105e3576105db8183610c9c565b50846106d1565b60046040517f1eb00b06000000000000000000000000000000000000000000000000000000008152fd5b60046040517f3ee5aeb5000000000000000000000000000000000000000000000000000000008152fd5b807f5c427cd90000000000000000000000000000000000000000000000000000000060049252fd5b506001600160a01b036000541633141561062b565b600435906001600160a01b038216820361019157565b6001600160a01b03600054163303610c6c57565b60246040517f118cdaa7000000000000000000000000000000000000000000000000000000008152336004820152fd5b90601f7fffffffffffffffffffffffffffffffffffffffffffffffffffffffffffffffe0910116810190811067ffffffffffffffff821117610cdd57604052565b7f4e487b7100000000000000000000000000000000000000000000000000000000600052604160045260246000fd5b90816020910312610191575180151581036101915790565b9081602091031261019157516001600160a01b0381168103610191579056fea164736f6c6343000814000a",
  "linkReferences": {},
  "deployedLinkReferences": {}
}