{
  "_format": "hh-sol-artifact-1",
  "contractName": "AgentLiquidityManager",
  "sourceName": "contracts/AgentLiquidityManager.sol",
  "abi": [
    {
      "inputs": [
        {
          "internalType": "address",
          "name": "_uniswapRouter",
          "type": "address"
        }
      ],
      "stateMutability": "nonpayable",
      "type": "constructor"
    },
    {
      "inputs": [],
      "name": "InvalidRouter",
      "type": "error"
    },
    {
      "inputs": [],
      "name": "InvalidTokenAddress",
      "type": "error"
    },
    {
      "inputs": [],
      "name": "LPCreationFailed",
      "type": "error"
    },
    {
      "inputs": [
        {
          "internalType": "address",
          "name": "owner",
          "type": "address"
        }
      ],
      "name": "OwnableInvalidOwner",
      "type": "error"
    },
    {
      "inputs": [
        {
          "internalType": "address",
          "name": "account",
          "type": "address"
        }
      ],
      "name": "OwnableUnauthorizedAccount",
      "type": "error"
    },
    {
      "inputs": [],
      "name": "ReentrancyGuardReentrantCall",
      "type": "error"
    },
    {
      "inputs": [],
      "name": "UnauthorizedCaller",
      "type": "error"
    },
    {
      "anonymous": false,
      "inputs": [
        {
          "indexed": true,
          "internalType": "address",
          "name": "caller",
          "type": "address"
        },
        {
          "indexed": false,
          "internalType": "bool",
          "name": "authorized",
          "type": "bool"
        }
      ],
      "name": "AuthorizedCallerUpdated",
      "type": "event"
    },
    {
      "anonymous": false,
      "inputs": [
        {
          "indexed": true,
          "internalType": "address",
          "name": "tokenAddress",
          "type": "address"
        },
        {
          "indexed": true,
          "internalType": "address",
          "name": "lpPairAddress",
          "type": "address"
        },
        {
          "indexed": false,
          "internalType": "uint256",
          "name": "tokenAmount",
          "type": "uint256"
        },
        {
          "indexed": false,
          "internalType": "uint256",
          "name": "ethAmount",
          "type": "uint256"
        },
        {
          "indexed": true,
          "internalType": "address",
          "name": "creator",
          "type": "address"
        }
      ],
      "name": "LiquidityPoolCreated",
      "type": "event"
    },
    {
      "anonymous": false,
      "inputs": [
        {
          "indexed": true,
          "internalType": "address",
          "name": "previousOwner",
          "type": "address"
        },
        {
          "indexed": true,
          "internalType": "address",
          "name": "newOwner",
          "type": "address"
        }
      ],
      "name": "OwnershipTransferred",
      "type": "event"
    },
    {
      "inputs": [],
      "name": "BASIS_POINTS",
      "outputs": [
        {
          "internalType": "uint256",
          "name": "",
          "type": "uint256"
        }
      ],
      "stateMutability": "view",
      "type": "function"
    },
    {
      "inputs": [
        {
          "internalType": "address",
          "name": "",
          "type": "address"
        }
      ],
      "name": "authorizedCallers",
      "outputs": [
        {
          "internalType": "bool",
          "name": "",
          "type": "bool"
        }
      ],
      "stateMutability": "view",
      "type": "function"
    },
    {
      "inputs": [
        {
          "internalType": "address",
          "name": "tokenAddress",
          "type": "address"
        },
        {
          "internalType": "uint256",
          "name": "tokenSupply",
          "type": "uint256"
        },
        {
          "internalType": "address",
          "name": "creator",
          "type": "address"
        }
      ],
      "name": "createLiquidityPool",
      "outputs": [
        {
          "internalType": "address",
          "name": "lpPair",
          "type": "address"
        }
      ],
      "stateMutability": "payable",
      "type": "function"
    },
    {
      "inputs": [],
      "name": "defaultTokenLPPercentage",
      "outputs": [
        {
          "internalType": "uint256",
          "name": "",
          "type": "uint256"
        }
      ],
      "stateMutability": "view",
      "type": "function"
    },
    {
      "inputs": [
        {
          "internalType": "address",
          "name": "tokenAddress",
          "type": "address"
        },
        {
          "internalType": "uint256",
          "name": "amount",
          "type": "uint256"
        }
      ],
      "name": "emergencyTokenWithdraw",
      "outputs": [],
      "stateMutability": "nonpayable",
      "type": "function"
    },
    {
      "inputs": [],
      "name": "emergencyWithdraw",
      "outputs": [],
      "stateMutability": "nonpayable",
      "type": "function"
    },
    {
      "inputs": [
        {
          "internalType": "address",
          "name": "tokenAddress",
          "type": "address"
        }
      ],
      "name": "getLPPair",
      "outputs": [
        {
          "internalType": "address",
          "name": "",
          "type": "address"
        }
      ],
      "stateMutability": "view",
      "type": "function"
    },
    {
      "inputs": [
        {
          "internalType": "address",
          "name": "tokenAddress",
          "type": "address"
        }
      ],
      "name": "hasLiquidityPool",
      "outputs": [
        {
          "internalType": "bool",
          "name": "",
          "type": "bool"
        }
      ],
      "stateMutability": "view",
      "type": "function"
    },
    {
      "inputs": [],
      "name": "owner",
      "outputs": [
        {
          "internalType": "address",
          "name": "",
          "type": "address"
        }
      ],
      "stateMutability": "view",
      "type": "function"
    },
    {
      "inputs": [],
      "name": "renounceOwnership",
      "outputs": [],
      "stateMutability": "nonpayable",
      "type": "function"
    },
    {
      "inputs": [
        {
          "internalType": "address",
          "name": "caller",
          "type": "address"
        },
        {
          "internalType": "bool",
          "name": "authorized",
          "type": "bool"
        }
      ],
      "name": "setAuthorizedCaller",
      "outputs": [],
      "stateMutability": "nonpayable",
      "type": "function"
    },
    {
      "inputs": [
        {
          "internalType": "uint256",
          "name": "_percentage",
          "type": "uint256"
        }
      ],
      "name": "setTokenLPPercentage",
      "outputs": [],
      "stateMutability": "nonpayable",
      "type": "function"
    },
    {
      "inputs": [
        {
          "internalType": "address",
          "name": "_uniswapRouter",
          "type": "address"
        }
      ],
      "name": "setUniswapRouter",
      "outputs": [],
      "stateMutability": "nonpayable",
      "type": "function"
    },
    {
      "inputs": [
        {
          "internalType": "address",
          "name": "",
          "type": "address"
        }
      ],
      "name": "tokenToPair",
      "outputs": [
        {
          "internalType": "address",
          "name": "",
          "type": "address"
        }
      ],
      "stateMutability": "view",
      "type": "function"
    },
    {
      "inputs": [
        {
          "internalType": "address",
          "name": "newOwner",
          "type": "address"
        }
      ],
      "name": "transferOwnership",
      "outputs": [],
      "stateMutability": "nonpayable",
      "type": "function"
    },
    {
      "inputs": [],
      "name": "uniswapRouter",
      "outputs": [
        {
          "internalType": "address",
          "name": "",
          "type": "address"
        }
      ],
      "stateMutability": "view",
      "type": "function"
    },
    {
      "stateMutability": "payable",
      "type": "receive"
    }
  ],
  "bytecode": "0x6080346100e957601f610c2938819003918201601f19168301916001600160401b038311848410176100ee578084926020946040528339810103126100e957516001600160a01b03808216918290036100e95733156100d0576000549060018060a01b0319913383821617600055604051913391167f8be0079c531659141344cd1fd0a4f28419497f9722a3daafe3b4186f6b6457e0600080a360018055611f4060035582156100c157506002541617600255604051610b2490816101058239f35b63466d7fef60e01b8152600490fd5b604051631e4fbdf760e01b815260006004820152602490fd5b600080fd5b634e487b7160e01b600052604160045260246000fdfe608080604052600436101561001d575b50361561001b57600080fd5b005b60003560e01c9081632a05d603146104fd57508063317cb1511461046c57806334243a9d1461042f578063454bbd29146103b0578063536fff6c14610371578063715018a61461032a578063735de9f7146103015780638a047d5e1461029d5780638da5cb5b146102d85780638e70050f1461029d578063bea9849e14610245578063bfd1769e14610227578063db2e21bc146101d4578063e00b5bf214610170578063e1f1c4a7146101535763f2fde38b146100da573861000f565b3461014e57602036600319011261014e576100f36109f0565b6100fb610a06565b6001600160a01b03908116908115610135576000548260018060a01b031982161760005516600080516020610af8833981519152600080a3005b604051631e4fbdf760e01b815260006004820152602490fd5b600080fd5b3461014e57600036600319011261014e5760206040516127108152f35b3461014e57602036600319011261014e5760043561018c610a06565b612710811161019a57600355005b60405162461bcd60e51b8152602060048201526012602482015271496e76616c69642070657263656e7461676560701b6044820152606490fd5b3461014e57600036600319011261014e576101ed610a06565b6000805481908190819047906001600160a01b031682821561021e575bf11561021257005b6040513d6000823e3d90fd5b506108fc61020a565b3461014e57600036600319011261014e576020600354604051908152f35b3461014e57602036600319011261014e5761025e6109f0565b610266610a06565b6001600160a01b0316801561028b57600280546001600160a01b031916919091179055005b60405163466d7fef60e01b8152600490fd5b3461014e57602036600319011261014e5760206001600160a01b03806102c16109f0565b166000526004825260406000205416604051908152f35b3461014e57600036600319011261014e576000546040516001600160a01b039091168152602090f35b3461014e57600036600319011261014e576002546040516001600160a01b039091168152602090f35b3461014e57600036600319011261014e57610343610a06565b600080546001600160a01b0319811682556001600160a01b0316600080516020610af88339815191528280a3005b3461014e57602036600319011261014e576001600160a01b036103926109f0565b166000526005602052602060ff604060002054166040519015158152f35b3461014e57604036600319011261014e576103c96109f0565b6024359081151580920361014e5760207fad857fa38c9319cb80848f1ef2f924383b90297eb5d71755738ff037d100faa191610403610a06565b60018060a01b0316928360005260058252604060002060ff1981541660ff8316179055604051908152a2005b3461014e57602036600319011261014e5760206001600160a01b03806104536109f0565b1660005260048252604060002054161515604051908152f35b3461014e57604036600319011261014e576104856109f0565b61048d610a06565b6000805460405163a9059cbb60e01b81529260209284928391906001600160a01b039083906104c59060243590841660048401610abc565b0393165af18015610212576104d657005b61001b9060203d81116104f6575b6104ee8183610a32565b810190610a6b565b503d6104e4565b606036600319011261014e576105116109f0565b604435916001600160a01b038316830361014e5733600052600560205260ff6040600020541615806109db575b6109cc57506002600154146109ba5760026001556001600160a01b038116156109a85760035460243580820292918115918404141715610880576127108204602435036024358111610880576040516323b872dd60e01b81523360048201523060248083019190915235604482015260208160648160006001600160a01b0388165af1801561021257610989575b5060025460405163c45a015560e01b815293906001600160a01b0316602085600481845afa9485156102125760049560209160009161096c575b506040516315ab88c960e31b8152966001600160a01b03919091169287919082905afa9485156102125760009561094b575b5060405163e6a4390560e01b81529460208680610659848960048401610aa2565b0381855afa9586156102125760009661092a575b506001600160a01b038616156108b5575b50506001600160a01b0383811660009081526004602081815260409283902080546001600160a01b0319169885169889179055600254925163095ea7b360e01b8152939092849283926106db926127108904929116908401610abc565b038160006001600160a01b0389165af1801561021257610896575b506002546001600160a01b0316914261012c81019081106108805760405163f305d71960e01b81526001600160a01b03861660048201526127108404602482018190526044820152346064820181905230608483015260a482019290925293606091859160c49183915af191821561021257600093600093610843575b506127109004602435036107c3575b506040805192835260208381019290925290946001600160a01b03908116938593911691600080516020610ad883398151915291a460018055604051908152f35b60206107e7916040949394518093819263a9059cbb60e01b83523360048401610abc565b038160006001600160a01b0389165af18015610212576020968694600080516020610ad883398151915293604093610826575b50939450965050610782565b61083c908a3d8c116104f6576104ee8183610a32565b508961081a565b935091506060833d8211610878575b8161085f60609383610a32565b8101031261014e57612710602084519401519290610773565b3d9150610852565b634e487b7160e01b600052601160045260246000fd5b6108ae9060203d6020116104f6576104ee8183610a32565b50856106f6565b6040516364e329cb60e11b81529295506020918391829060009082906108df908a60048401610aa2565b03925af1908115610212576000916108fb575b5092858061067e565b61091d915060203d602011610923575b6109158183610a32565b810190610a83565b856108f2565b503d61090b565b61094491965060203d602011610923576109158183610a32565b948761066d565b61096591955060203d602011610923576109158183610a32565b9386610638565b6109839150823d8411610923576109158183610a32565b88610606565b6109a19060203d6020116104f6576104ee8183610a32565b50846105cc565b604051630f58058360e11b8152600490fd5b604051633ee5aeb560e01b8152600490fd5b635c427cd960e01b8152600490fd5b506000546001600160a01b031633141561053e565b600435906001600160a01b038216820361014e57565b6000546001600160a01b03163303610a1a57565b60405163118cdaa760e01b8152336004820152602490fd5b601f909101601f19168101906001600160401b03821190821017610a5557604052565b634e487b7160e01b600052604160045260246000fd5b9081602091031261014e5751801515810361014e5790565b9081602091031261014e57516001600160a01b038116810361014e5790565b6001600160a01b0391821681529116602082015260400190565b6001600160a01b03909116815260208101919091526040019056fe6545810b4545656bad60ad9d154977a47f70bb528d00f13850362667b4a5d6a78be0079c531659141344cd1fd0a4f28419497f9722a3daafe3b4186f6b6457e0a164736f6c6343000814000a",
  "linkReferences": {},
  "deployedLinkReferences": {}
}