{"contracts/FeedbackOracle.sol":{"FeedbackOracle":{"abi":[{"inputs":[{"internalType":"address","name":"rewardToken_","type":"address"},{"internalType":"address","name":"pythContract_","type":"address"},{"internalType":"address","name":"owner_","type":"address"}],"stateMutability":"nonpayable","type":"constructor"},{"inputs":[],"name":"ArrayLengthMismatch","type":"error"},{"inputs":[],"name":"BatchSizeExceeded","type":"error"},{"inputs":[],"name":"ECDSAInvalidSignature","type":"error"},{"inputs":[{"internalType":"uint256","name":"length","type":"uint256"}],"name":"ECDSAInvalidSignatureLength","type":"error"},{"inputs":[{"internalType":"bytes32","name":"s","type":"bytes32"}],"name":"ECDSAInvalidSignatureS","type":"error"},{"inputs":[],"name":"FeedbackAlreadyProcessed","type":"error"},{"inputs":[],"name":"InsufficientContractBalance","type":"error"},{"inputs":[],"name":"InvalidPriceFeed","type":"error"},{"inputs":[],"name":"InvalidProof","type":"error"},{"inputs":[],"name":"InvalidQualityRating","type":"error"},{"inputs":[],"name":"InvalidSignature","type":"error"},{"inputs":[],"name":"NativeTransferFailed","type":"error"},{"inputs":[],"name":"NetworkNotActive","type":"error"},{"inputs":[],"name":"NetworkNotSupported","type":"error"},{"inputs":[{"internalType":"address","name":"owner","type":"address"}],"name":"OwnableInvalidOwner","type":"error"},{"inputs":[{"internalType":"address","name":"account","type":"address"}],"name":"OwnableUnauthorizedAccount","type":"error"},{"inputs":[],"name":"PriceUpdateFailed","type":"error"},{"inputs":[],"name":"RateLimitExceeded","type":"error"},{"inputs":[],"name":"ReentrancyGuardReentrantCall","type":"error"},{"inputs":[],"name":"UnauthorizedSigner","type":"error"},{"anonymous":false,"inputs":[{"indexed":false,"internalType":"uint256","name":"count","type":"uint256"},{"indexed":false,"internalType":"uint256","name":"totalRewardsUSD","type":"uint256"},{"indexed":false,"internalType":"uint256","name":"totalRewardsNative","type":"uint256"}],"name":"BatchFeedbackProcessed","type":"event"},{"anonymous":false,"inputs":[{"indexed":true,"internalType":"address","name":"user","type":"address"},{"indexed":false,"internalType":"string","name":"feedbackId","type":"string"},{"indexed":false,"internalType":"uint8","name":"qualityRating","type":"uint8"},{"indexed":false,"internalType":"uint256","name":"rewardAmountUSD","type":"uint256"},{"indexed":false,"internalType":"uint256","name":"rewardAmountNative","type":"uint256"},{"indexed":false,"internalType":"bool","name":"qualityBonus","type":"bool"}],"name":"FeedbackProcessed","type":"event"},{"anonymous":false,"inputs":[{"indexed":true,"internalType":"address","name":"user","type":"address"},{"indexed":false,"internalType":"uint256","name":"amount","type":"uint256"}],"name":"NativeRewardSent","type":"event"},{"anonymous":false,"inputs":[{"indexed":false,"internalType":"uint256","name":"chainId","type":"uint256"},{"components":[{"internalType":"uint256","name":"minFeedbackInterval","type":"uint256"},{"internalType":"uint256","name":"maxPriceAge","type":"uint256"},{"internalType":"uint256","name":"baseRewardUSDCents","type":"uint256"},{"internalType":"uint256","name":"qualityBonusUSDCents","type":"uint256"},{"internalType":"bytes32","name":"nativeTokenPriceFeedId","type":"bytes32"},{"internalType":"bool","name":"isActive","type":"bool"}],"indexed":false,"internalType":"struct FeedbackOracle.NetworkConfig","name":"config","type":"tuple"}],"name":"NetworkConfigUpdated","type":"event"},{"anonymous":false,"inputs":[{"indexed":true,"internalType":"address","name":"previousOwner","type":"address"},{"indexed":true,"internalType":"address","name":"newOwner","type":"address"}],"name":"OwnershipTransferred","type":"event"},{"anonymous":false,"inputs":[{"indexed":false,"internalType":"uint256","name":"oldThreshold","type":"uint256"},{"indexed":false,"internalType":"uint256","name":"newThreshold","type":"uint256"}],"name":"QualityThresholdUpdated","type":"event"},{"anonymous":false,"inputs":[{"indexed":true,"internalType":"address","name":"signer","type":"address"},{"indexed":false,"internalType":"bool","name":"authorized","type":"bool"}],"name":"SignerAuthorized","type":"event"},{"anonymous":false,"inputs":[{"indexed":false,"internalType":"bool","name":"skipVerification","type":"bool"},{"indexed":false,"internalType":"address","name":"updatedBy","type":"address"}],"name":"VerificationSkipUpdated","type":"event"},{"inputs":[],"name":"FLOW_TESTNET_CHAIN_ID","outputs":[{"internalType":"uint256","name":"","type":"uint256"}],"stateMutability":"view","type":"function"},{"inputs":[],"name":"HEDERA_TESTNET_CHAIN_ID","outputs":[{"internalType":"uint256","name":"","type":"uint256"}],"stateMutability":"view","type":"function"},{"inputs":[],"name":"MAX_BATCH_SIZE","outputs":[{"internalType":"uint256","name":"","type":"uint256"}],"stateMutability":"view","type":"function"},{"inputs":[],"name":"ROOTSTOCK_TESTNET_CHAIN_ID","outputs":[{"internalType":"uint256","name":"","type":"uint256"}],"stateMutability":"view","type":"function"},{"inputs":[{"internalType":"address","name":"","type":"address"}],"name":"authorizedSigners","outputs":[{"internalType":"bool","name":"","type":"bool"}],"stateMutability":"view","type":"function"},{"inputs":[{"internalType":"uint8","name":"qualityRating","type":"uint8"},{"internalType":"int64","name":"nativeTokenPrice","type":"int64"},{"internalType":"int32","name":"expo","type":"int32"}],"name":"calculateRewardAmount","outputs":[{"internalType":"uint256","name":"usdRewardCents","type":"uint256"},{"internalType":"uint256","name":"nativeTokenAmount","type":"uint256"}],"stateMutability":"view","type":"function"},{"inputs":[{"components":[{"internalType":"address","name":"user","type":"address"},{"internalType":"string","name":"feedbackId","type":"string"},{"internalType":"uint8","name":"qualityRating","type":"uint8"},{"internalType":"uint256","name":"timestamp","type":"uint256"},{"internalType":"bytes","name":"signature","type":"bytes"}],"internalType":"struct FeedbackOracle.FeedbackProof","name":"proof","type":"tuple"},{"internalType":"bytes[]","name":"priceUpdateData","type":"bytes[]"}],"name":"claimFeedbackReward","outputs":[],"stateMutability":"payable","type":"function"},{"inputs":[],"name":"currentConfig","outputs":[{"internalType":"uint256","name":"minFeedbackInterval","type":"uint256"},{"internalType":"uint256","name":"maxPriceAge","type":"uint256"},{"internalType":"uint256","name":"baseRewardUSDCents","type":"uint256"},{"internalType":"uint256","name":"qualityBonusUSDCents","type":"uint256"},{"internalType":"bytes32","name":"nativeTokenPriceFeedId","type":"bytes32"},{"internalType":"bool","name":"isActive","type":"bool"}],"stateMutability":"view","type":"function"},{"inputs":[],"name":"emergencyWithdraw","outputs":[],"stateMutability":"nonpayable","type":"function"},{"inputs":[],"name":"fundContract","outputs":[],"stateMutability":"payable","type":"function"},{"inputs":[],"name":"getContractFunding","outputs":[{"internalType":"uint256","name":"nativeBalance","type":"uint256"},{"internalType":"uint256","name":"totalDistributedNative","type":"uint256"},{"internalType":"uint256","name":"remainingFunding","type":"uint256"}],"stateMutability":"view","type":"function"},{"inputs":[],"name":"getCurrentNativeTokenPrice","outputs":[{"internalType":"int64","name":"price","type":"int64"},{"internalType":"uint64","name":"conf","type":"uint64"},{"internalType":"int32","name":"expo","type":"int32"},{"internalType":"uint256","name":"publishTime","type":"uint256"}],"stateMutability":"view","type":"function"},{"inputs":[{"internalType":"uint256","name":"chainId","type":"uint256"}],"name":"getNetworkConfig","outputs":[{"components":[{"internalType":"uint256","name":"minFeedbackInterval","type":"uint256"},{"internalType":"uint256","name":"maxPriceAge","type":"uint256"},{"internalType":"uint256","name":"baseRewardUSDCents","type":"uint256"},{"internalType":"uint256","name":"qualityBonusUSDCents","type":"uint256"},{"internalType":"bytes32","name":"nativeTokenPriceFeedId","type":"bytes32"},{"internalType":"bool","name":"isActive","type":"bool"}],"internalType":"struct FeedbackOracle.NetworkConfig","name":"","type":"tuple"}],"stateMutability":"view","type":"function"},{"inputs":[],"name":"getOracleStats","outputs":[{"internalType":"uint256","name":"totalProcessed","type":"uint256"},{"internalType":"uint256","name":"totalRewardsUSD","type":"uint256"},{"internalType":"uint256","name":"totalRewardsNative","type":"uint256"},{"internalType":"uint256","name":"currentThreshold","type":"uint256"}],"stateMutability":"view","type":"function"},{"inputs":[{"internalType":"address","name":"user","type":"address"}],"name":"getUserFeedbackStats","outputs":[{"internalType":"uint256","name":"feedbackCount","type":"uint256"},{"internalType":"uint256","name":"lastFeedback","type":"uint256"},{"internalType":"uint256","name":"nextAllowedFeedback","type":"uint256"}],"stateMutability":"view","type":"function"},{"inputs":[{"internalType":"address","name":"user","type":"address"},{"internalType":"string","name":"feedbackId","type":"string"},{"internalType":"uint256","name":"timestamp","type":"uint256"}],"name":"isFeedbackProcessed","outputs":[{"internalType":"bool","name":"","type":"bool"}],"stateMutability":"view","type":"function"},{"inputs":[{"internalType":"address","name":"","type":"address"}],"name":"lastFeedbackTime","outputs":[{"internalType":"uint256","name":"","type":"uint256"}],"stateMutability":"view","type":"function"},{"inputs":[{"internalType":"uint256","name":"","type":"uint256"}],"name":"networkConfigs","outputs":[{"internalType":"uint256","name":"minFeedbackInterval","type":"uint256"},{"internalType":"uint256","name":"maxPriceAge","type":"uint256"},{"internalType":"uint256","name":"baseRewardUSDCents","type":"uint256"},{"internalType":"uint256","name":"qualityBonusUSDCents","type":"uint256"},{"internalType":"bytes32","name":"nativeTokenPriceFeedId","type":"bytes32"},{"internalType":"bool","name":"isActive","type":"bool"}],"stateMutability":"view","type":"function"},{"inputs":[],"name":"owner","outputs":[{"internalType":"address","name":"","type":"address"}],"stateMutability":"view","type":"function"},{"inputs":[{"components":[{"internalType":"address[]","name":"users","type":"address[]"},{"internalType":"string[]","name":"feedbackIds","type":"string[]"},{"internalType":"uint8[]","name":"qualityRatings","type":"uint8[]"},{"internalType":"uint256[]","name":"timestamps","type":"uint256[]"},{"internalType":"bytes","name":"signature","type":"bytes"}],"internalType":"struct FeedbackOracle.BatchFeedbackProof","name":"batchProof","type":"tuple"},{"internalType":"bytes[]","name":"priceUpdateData","type":"bytes[]"}],"name":"processBatchFeedback","outputs":[],"stateMutability":"payable","type":"function"},{"inputs":[{"components":[{"internalType":"address","name":"user","type":"address"},{"internalType":"string","name":"feedbackId","type":"string"},{"internalType":"uint8","name":"qualityRating","type":"uint8"},{"internalType":"uint256","name":"timestamp","type":"uint256"},{"internalType":"bytes","name":"signature","type":"bytes"}],"internalType":"struct FeedbackOracle.FeedbackProof","name":"proof","type":"tuple"},{"internalType":"bytes[]","name":"priceUpdateData","type":"bytes[]"}],"name":"processFeedback","outputs":[],"stateMutability":"payable","type":"function"},{"inputs":[{"internalType":"bytes32","name":"","type":"bytes32"}],"name":"processedFeedback","outputs":[{"internalType":"bool","name":"","type":"bool"}],"stateMutability":"view","type":"function"},{"inputs":[],"name":"pyth","outputs":[{"internalType":"contract IPyth","name":"","type":"address"}],"stateMutability":"view","type":"function"},{"inputs":[],"name":"qualityThreshold","outputs":[{"internalType":"uint256","name":"","type":"uint256"}],"stateMutability":"view","type":"function"},{"inputs":[],"name":"renounceOwnership","outputs":[],"stateMutability":"nonpayable","type":"function"},{"inputs":[],"name":"rewardToken","outputs":[{"internalType":"contract FeedbackRewardToken","name":"","type":"address"}],"stateMutability":"view","type":"function"},{"inputs":[{"internalType":"uint256","name":"newThreshold","type":"uint256"}],"name":"setQualityThreshold","outputs":[],"stateMutability":"nonpayable","type":"function"},{"inputs":[{"internalType":"address","name":"signer","type":"address"},{"internalType":"bool","name":"authorized","type":"bool"}],"name":"setSignerAuthorization","outputs":[],"stateMutability":"nonpayable","type":"function"},{"inputs":[],"name":"skipVerification","outputs":[{"internalType":"bool","name":"","type":"bool"}],"stateMutability":"view","type":"function"},{"inputs":[],"name":"totalFeedbackProcessed","outputs":[{"internalType":"uint256","name":"","type":"uint256"}],"stateMutability":"view","type":"function"},{"inputs":[],"name":"totalNativeRewardsDistributed","outputs":[{"internalType":"uint256","name":"","type":"uint256"}],"stateMutability":"view","type":"function"},{"inputs":[],"name":"totalRewardsDistributedUSD","outputs":[{"internalType":"uint256","name":"","type":"uint256"}],"stateMutability":"view","type":"function"},{"inputs":[{"internalType":"address","name":"newOwner","type":"address"}],"name":"transferOwnership","outputs":[],"stateMutability":"nonpayable","type":"function"},{"inputs":[{"internalType":"uint256","name":"chainId","type":"uint256"},{"components":[{"internalType":"uint256","name":"minFeedbackInterval","type":"uint256"},{"internalType":"uint256","name":"maxPriceAge","type":"uint256"},{"internalType":"uint256","name":"baseRewardUSDCents","type":"uint256"},{"internalType":"uint256","name":"qualityBonusUSDCents","type":"uint256"},{"internalType":"bytes32","name":"nativeTokenPriceFeedId","type":"bytes32"},{"internalType":"bool","name":"isActive","type":"bool"}],"internalType":"struct FeedbackOracle.NetworkConfig","name":"config","type":"tuple"}],"name":"updateNetworkConfig","outputs":[],"stateMutability":"nonpayable","type":"function"},{"inputs":[{"internalType":"bool","name":"skipVerification_","type":"bool"}],"name":"updateVerificationSkip","outputs":[],"stateMutability":"nonpayable","type":"function"},{"inputs":[{"internalType":"address","name":"","type":"address"}],"name":"userFeedbackCount","outputs":[{"internalType":"uint256","name":"","type":"uint256"}],"stateMutability":"view","type":"function"},{"inputs":[{"internalType":"uint256","name":"amount","type":"uint256"}],"name":"withdrawNativeTokens","outputs":[],"stateMutability":"nonpayable","type":"function"}],"evm":{"bytecode":{"linkReferences":{},"object":"60c0346200038a57601f6200288438819003918201601f191683019291906001600160401b038411838510176200038f5781606092849260409687528339810103126200038a576200005181620003c5565b9082602062000062818401620003c5565b926001600160a01b039283916200007a9101620003c5565b169182156200037257600080546001600160a01b031981168517825590939082167f8be0079c531659141344cd1fd0a4f28419497f9722a3daafe3b4186f6b6457e08580a3600193848055600780558160ff19968760085416600855166080521660a052620002ac620000ec620003a5565b600587610e109283815285810190620002208985898b61012c978888526200019281880197856103e89a8b8b52606083019a6101f49b8c815260808501917f2fb245b9a84554a0f15aa123cbb5f64cd263b59e9a80929a2bbb0bc98b40010b835260a08601938c85526102218a5260068b52888a2096518755518c87015551600286015551600385015551600484015551151591019060ff801983541691151516179055565b6200019c620003a5565b948b8652838601908a8252828701918a835260608801938a855260808901957ff2fb7c5e3f75cefc890d52be7c03af6030284137e19d30d54442aca9de250c848752600660a08b0198858a526101288352522097518855519087015551600286015551600385015551600484015551151591019060ff801983541691151516179055565b6200022a620003a5565b9485528685019283528a85019182526060850190815260808501917fe62df6c8b4a85fe1a67db44dc12de5db330f7ac66b72dc658afedf0f4a415b43835260a08601938a8552601f8a52600689528c8a2096518755518a87015551600286015551600385015551600484015551151591019060ff801983541691151516179055565b46825260ff600586842001541615620003615790600685924683525220806009036200031e575b83516124a99081620003db8239608051818181610211015281816106d5015281816112b401526115c5015260a0518181816101c901528181610f8401528181611e870152611ff30152f35b60058160ff93849354600955810154600a556002810154600b556003810154600c556004810154600d55015416151591600e5416911617600e55388080620002d3565b8451637afe43bf60e11b8152600490fd5b8551631e4fbdf760e01b815260006004820152602490fd5b600080fd5b634e487b7160e01b600052604160045260246000fd5b6040519060c082016001600160401b038111838210176200038f57604052565b51906001600160a01b03821682036200038a5756fe6080604052600436101561001257600080fd5b6000803560e01c806315889033146116c05780631bac88cd146114d05780632d37dc781461146257806344fdd0031461143d5780634b0ad05314611404578063560e8191146111525780635d2b6a4e1461111357806363c999c3146110f5578063715018a6146110ad578063741e39ee14611025578063787f75f314610f535780637b68863014610e455780637b99b60314610df55780637e49541a14610dd85780637f20f4a614610db557806384435ae514610d5d5780638da5cb5b14610d365780638e83ca2514610d07578063931afb5e14610ce957806394720dff14610ccb578063a2fa874c14610cad578063a509335214610c74578063b01d0cb914610bed578063b7ab8e1414610b7d578063bd097e2114610b29578063bfc54808146104e6578063c39601f2146104ca578063c6c035b514610493578063cae5880714610457578063cfdbf2541461043b578063d39957c614610373578063db2e21bc14610341578063e5c18684146102d3578063f0167aea146102b6578063f2fde38b14610240578063f7c618c1146101fb5763f98d06f0146101b457600080fd5b346101f857806003193601126101f8576040517f00000000000000000000000000000000000000000000000000000000000000006001600160a01b03168152602090f35b80fd5b50346101f857806003193601126101f8576040517f00000000000000000000000000000000000000000000000000000000000000006001600160a01b03168152602090f35b50346101f85760203660031901126101f85761025a6117af565b6102626117f1565b6001600160a01b0390811690811561029d576000548260018060a01b03198216176000551660008051602061247d833981519152600080a380f35b604051631e4fbdf760e01b815260048101849052602490fd5b50346101f857806003193601126101f85760206040516101288152f35b50346101f85760203660031901126101f8576004356102f06117f1565b80471061032f57815482918291829182916001600160a01b03165af161031461231a565b501561031d5780f35b604051633d2cec6f60e21b8152600490fd5b60405163786e0a9960e01b8152600490fd5b50346101f857806003193601126101f85761035a6117f1565b808080804760018060a01b038254165af161031461231a565b50346101f85760203660031901126101f85760408160c09260a083516103988161189a565b8281528260208201528285820152826060820152826080820152015260043581526006602052206040516103cb8161189a565b8154918282526001810154602083019081526002820154604084019081526003830154916060850192835260a060ff6005600487015496608089019788520154169501941515855260405195865251602086015251604085015251606084015251608083015251151560a0820152f35b50346101f857806003193601126101f857602060405160648152f35b50346101f857806003193601126101f857600954600a549061048f600b54600c54600d549060ff600e541692604051968796876117c5565b0390f35b50346101f857806003193601126101f8576080600f5460105460115460075491604051938452602084015260408301526060820152f35b50346101f857806003193601126101f8576020604051601f8152f35b506104f03661172f565b906104f96119e9565b6105038380611a0c565b80939150158015610b1f575b610b0d5761051d8480611a0c565b905061052c6020860186611a0c565b91905014801590610ae9575b8015610ac5575b610ab35761054d8480611a0c565b61055d6020879593950187611a0c565b9190948861056e60408a018a611a0c565b91909761057e60608c018c611a0c565b969094604051968060a08901608060208b01525260c08801919085905b808210610a7d57505050601f198782030160408801528181526020810160208360051b830101938095925b848410610a45575050505050848103601f1901606086015282815260200197918b91505b808210610a1b57505050818603601f190160808301528286526001600160fb1b038311610a1757602082610638926106619861065c9660059c9b9c1b809285830137010380845201826118d0565b6020815191012061065661064f608088018861183f565b369161190e565b90611d07565b611e64565b9161066b81611a41565b61067860405191826118d0565b818152601f1961068783611a41565b0136602083013761069782611a41565b906106a560405192836118d0565b828252601f196106b484611a41565b013660208401378593869587915b85831061084357506001600160a01b03937f00000000000000000000000000000000000000000000000000000000000000008516939092509050823b1561083f5790879392916040519363573c11a160e11b85526044850160406004870152825180915260206064870193019187905b828210610820575050505060031984820301602485015260208083519283815201920190855b818110610805575050508391838381809403925af180156107fa576107e2575b50506107d87fa64f4980a79d096f7d5abf84ae97bbc1e0d84456323d438560dab7f86a29021d936107ab83600f5461196a565b600f556107ba8460105461196a565b6010556107c98160115461196a565b60115560405193849384611799565b0390a16001805580f35b6107eb90611871565b6107f6578338610778565b8380fd5b6040513d84823e3d90fd5b8251151584528a965060209384019390920191600101610758565b8351811685528c98506020948501949093019260019190910190610732565b8780fd5b9091969561086361085e896108588580611a0c565b90611a58565b61181d565b906108716020840184611a0c565b8a1015610a035761064f61088b918b60051b81019061183f565b6108a461089f8b6108586040880188611a0c565b611831565b6108b58b6108586060880188611a0c565b35916001600160a01b038516156109d25760ff82161580156109f6575b6109e4574283116109d2578c926108e99186611a92565b8252600360205260408220805460ff81166109c257896109b596948a8f61097b906109a9976109af9a97600161098f9860ff191617905560018060a01b038a16855260046020526040852061093e8154611945565b905560018060a01b038a168552600560205242604086205560ff600754911610159485936109758360018060a01b038d1692611a7e565b52611a7e565b52600b5491156109bc5750600c549061196a565b906109a461099d838a6121f6565b809561234a565b61196a565b9861196a565b97611945565b91906106c2565b9061196a565b5050505096976109b59150611945565b6040516309bde33960e01b8152600490fd5b60405163446a24d560e01b8152600490fd5b50600a60ff8316116108d2565b634e487b7160e01b8b52603260045260248bfd5b8880fd5b90919788359060ff8216809203610a40576020816001938293520199019201906105ea565b600080fd5b9091929394602080610a6c600193601f19868203018852610a668b88611af8565b90611992565b9801940194019295949391906105c6565b9195509293929185356001600160a01b0381169190829003610a405760208160019382935201960192018f95929194939461059b565b60405163512509d360e11b8152600490fd5b50610ad08480611a0c565b9050610adf6060860186611a0c565b919050141561053f565b50610af48480611a0c565b9050610b036040860186611a0c565b9190501415610538565b60405163abcf3d2360e01b8152600490fd5b506064831161050f565b50806003193601126101f8573415610b3e5780f35b60405162461bcd60e51b81526020600482015260176024820152764d7573742073656e64206e617469766520746f6b656e7360481b6044820152606490fd5b50346101f85760203660031901126101f8576001600160a01b03610b9f6117af565b16908181526005602052604081205491610bbb6009548461196a565b90825260046020526040909120549042811115610be35761048f905b60405193849384611799565b5061048f42610bd7565b50346101f85760603660031901126101f857610c076117af565b6001600160401b03906024358281116107f657366023820112156107f65780600401359283116107f65736602484830101116107f65792610c6160ff93604093610c5b60209760443593602436920161190e565b90611a92565b8152600384522054166040519015158152f35b50346101f85760203660031901126101f8576020906040906001600160a01b03610c9c6117af565b168152600583522054604051908152f35b50346101f857806003193601126101f8576020601154604051908152f35b50346101f857806003193601126101f8576020601054604051908152f35b50346101f857806003193601126101f8576020600f54604051908152f35b50346101f85760203660031901126101f85760ff60406020926004358152600384522054166040519015158152f35b50346101f857806003193601126101f857546040516001600160a01b039091168152602090f35b50346101f85760603660031901126101f85760043560ff81168103610a4057602435908160070b8203610db157604435928360030b84036101f8576040610da585858561239f565b82519182526020820152f35b8280fd5b50346101f857806003193601126101f857602060ff600854166040519015158152f35b50346101f857806003193601126101f85760206040516102218152f35b50346101f85760203660031901126101f8576040906004358152600660205220805461048f600183015492600281015490600381015460ff600560048401549301541692604051968796876117c5565b50346101f85760e03660031901126101f85760043560c0366023190112610f4f57610e6e6117f1565b80825260066020526040822090602435908183556044359182600185015560643580600286015560843580600387015560a4359182600488015560c4359586151594858803610f4b57610ef360e09860057f97bcb43847156fcd0d092414ef8126ed1c00632cdd19fda8552f99521296422a9b019060ff801983541691151516179055565b468714610f23575b604051968752602087015260408601526060850152608084015260a083015260c0820152a180f35b8060095581600a5582600b5583600c5584600d5560ff19600e541660ff871617600e55610efb565b8980fd5b5080fd5b50346101f857806003193601126101f857600d546040516396834ad360e01b815260048101919091526080816024817f00000000000000000000000000000000000000000000000000000000000000006001600160a01b03165afa9081156107fa5760809291610ff8575b50805160070b9060018060401b03602082015116906060604082015160030b91015191604051938452602084015260408301526060820152f35b6110189150823d811161101e575b61101081836118d0565b810190611e02565b38610fbe565b503d611006565b50346101f85760403660031901126101f85761103f6117af565b6024359081151590818303610a40577fd71d7c88579d0d5858da8cb9f6c4ce94826a5391ff03edf44f6a431180a1a6f5916110a360209261107e6117f1565b60018060a01b03169485875260028452604087209060ff801983541691151516179055565b604051908152a280f35b50346101f857806003193601126101f8576110c66117f1565b600080546001600160a01b0319811682556001600160a01b031660008051602061247d8339815191528280a380f35b50346101f857806003193601126101f8576020600754604051908152f35b50346101f85760203660031901126101f85760209060ff906040906001600160a01b0361113e6117af565b168152600284522054166040519015158152f35b5061115c3661172f565b916111656119e9565b6001600160a01b0390816111788261181d565b16156109d257604081019360ff61118e86611831565b161580156113ef575b6109e4576060820135934285116109d257836111b28461181d565b168752602060058152604088205442034281116113db57600954116113c9576111ef6111dd8561181d565b9682860197610c5b61064f8a8961183f565b928389526003825260ff60408a2054166113b75760059261122c916112148688611b2a565b61121d8a611831565b60ff6007549116101591611d49565b9288526003815260408820805460ff191660011790558461124c8561181d565b16885260048152604088206112618154611945565b90558461126d8561181d565b16885252426040872055611282600f54611945565b600f5561128e85611831565b60ff60075491161015906112af600b54836000146113b057600c549061196a565b9487857f0000000000000000000000000000000000000000000000000000000000000000166112dd8661181d565b90803b15610db1578583916113099383604051809681958294633ce5224560e21b845260048401611977565b03925af180156107fa57611396575b50509060008051602061245d8339815191529561137d61137561138c9594611348856113438a61181d565b61234a565b6113548460105461196a565b6010556113638560115461196a565b60115561136f8861181d565b9761183f565b919099611831565b906040519788971699876119b3565b0390a26001805580f35b6113a39094939294611871565b61083f5790918738611318565b889061196a565b604051634f7ae51160e01b8152600490fd5b60405163a74c1c5f60e01b8152600490fd5b634e487b7160e01b89526011600452602489fd5b50600a60ff6113fd87611831565b1611611197565b50346101f85760203660031901126101f8576020906040906001600160a01b0361142c6117af565b168152600483522054604051908152f35b50346101f857806003193601126101f8574760115461048f6040519283928184611799565b50346101f85760203660031901126101f85760043561147f6117f1565b801580156114c6575b6109e45760407feb9922e3ed7835455c0b321d214f497e036d91a33d2e9883f5224484432a07ca91600754908060075582519182526020820152a180f35b50600a8111611488565b506114da3661172f565b9092916114e56119e9565b6001600160a01b0390816114f88261181d565b1633036109d2576115088161181d565b9461152d610c5b602084019761151e898661183f565b9290606087013593369161190e565b90818652600360205260ff6040872054166113b75761155e906115508385611b2a565b604084019561121d87611831565b908552600360205260408520805460ff191660011790558261157f8361181d565b1685526004602052604085206115958154611945565b9055826115a18361181d565b16855260056020524260408620556115b884611831565b60ff6007549116101590837f0000000000000000000000000000000000000000000000000000000000000000166115ee8461181d565b813b1561083f578361161992899283604051809681958294633ce5224560e21b845260048401611977565b03925af180156116b55761168c575b50908160008051602061245d83398151915295969761164d61138c946113438761181d565b61137d61137561166a600b548660001461168557600c549061196a565b92611676600f54611945565b600f556113548460105461196a565b8c9061196a565b9060008051602061245d83398151915295966116ab61138c9493611871565b9695509091611628565b6040513d89823e3d90fd5b50346101f85760203660031901126101f857600435801515809103610f4f5760407f01378e60fc17f5a50bd556e4ab5d8a2c49c158253aaae22b808774bf3b370a729161170b6117f1565b60ff600854911660ff1982161760085560ff8251911615158152336020820152a180f35b9060031990604082840112610a40576001600160401b039160043590838211610a405760a0908286030112610a40576004019260243590838211610a405780602383011215610a40578160040135938411610a405760248460051b83010111610a40576024019190565b6040919493926060820195825260208201520152565b600435906001600160a01b0382168203610a4057565b94919260a0949197969360c0870198875260208701526040860152606085015260808401521515910152565b6000546001600160a01b0316330361180557565b60405163118cdaa760e01b8152336004820152602490fd5b356001600160a01b0381168103610a405790565b3560ff81168103610a405790565b903590601e1981360301821215610a4057018035906001600160401b038211610a4057602001918136038313610a4057565b6001600160401b03811161188457604052565b634e487b7160e01b600052604160045260246000fd5b60c081019081106001600160401b0382111761188457604052565b608081019081106001600160401b0382111761188457604052565b601f909101601f19168101906001600160401b0382119082101761188457604052565b6001600160401b03811161188457601f01601f191660200190565b92919261191a826118f3565b9161192860405193846118d0565b829481845281830111610a40578281602093846000960137010152565b60001981146119545760010190565b634e487b7160e01b600052601160045260246000fd5b9190820180921161195457565b6001600160a01b039091168152901515602082015260400190565b908060209392818452848401376000828201840152601f01601f1916010190565b94916119d16080959260ff929998959960a0895260a0890191611992565b97166020860152604085015260608401521515910152565b6002600154146119fa576002600155565b604051633ee5aeb560e01b8152600490fd5b903590601e1981360301821215610a4057018035906001600160401b038211610a4057602001918160051b36038313610a4057565b6001600160401b0381116118845760051b60200190565b9190811015611a685760051b0190565b634e487b7160e01b600052603260045260246000fd5b8051821015611a685760209160051b010190565b91604051809260208083019560018060601b03199060601b16865281519160005b838110611ae15750505090611adb9260549282019060348201520360348101845201826118d0565b51902090565b818101830151878201603401528694508201611ab3565b9035601e1982360301811215610a40570160208101919035906001600160401b038211610a40578136038313610a4057565b9060ff60085416611bbc57611b8891611b7f917b0ca2ba3432b932bab69029b4b3b732b21026b2b9b9b0b3b29d05199960211b600052601c52611b7961064f603c60002092608081019061183f565b90611bc0565b90929192611c82565b6001600160a01b031660009081526002602052604090205460ff1615611baa57565b604051636518c33d60e11b8152600490fd5b5050565b8151919060418303611bf157611bea92506020820151906060604084015193015160001a90611bfc565b9192909190565b505060009160029190565b91906fa2a8918ca85bafe22016d0b997e4df60600160ff1b038411611c7657926020929160ff608095604051948552168484015260408301526060820152600092839182805260015afa15611c6a5780516001600160a01b03811615611c6157918190565b50809160019190565b604051903d90823e3d90fd5b50505060009160039190565b6004811015611cf15780611c94575050565b60018103611cae5760405163f645eedf60e01b8152600490fd5b60028103611ccf5760405163fce698f760e01b815260048101839052602490fd5b600314611cd95750565b602490604051906335e2f38360e21b82526004820152fd5b634e487b7160e01b600052602160045260246000fd5b60ff60085416611bbc57611b8891611b7f917b0ca2ba3432b932bab69029b4b3b732b21026b2b9b9b0b3b29d05199960211b600052601c52603c600020611bc0565b611d5a611d779392611d7192611e64565b600b549092600090156109bc5750600c549061196a565b906121f6565b90565b60405190611d87826118b5565b60006060838281528260208201528260408201520152565b9160208181850182865252604084019360408360051b82010194846000925b858410611dcf575050505050505090565b909192939495968580611df1600193603f19868203018852610a668c88611af8565b990194019401929594939190611dbe565b90816080910312610a405760405190611e1a826118b5565b80518060070b8103610a4057825260208101516001600160401b0381168103610a405760208301526040810151908160030b8203610a405760609160408401520151606082015290565b611e6c611d7a565b50601f4614611fdd576040805163d47eed4560e01b815290927f00000000000000000000000000000000000000000000000000000000000000006001600160a01b03169260208380611ec2858560048401611d9f565b0381875afa908115611fd2576000938492611f9f575b50813410611f8e57843b156107f657918391611f09938751809581948293631df3cbc560e31b845260048401611d9f565b0391875af18015611f8457611f75575b506080600d546044600a54918651958693849263052571af60e51b8452600484015260248301525afa928315611f6b575091611f53575090565b611d77915060803d811161101e5761101081836118d0565b51903d90823e3d90fd5b611f7e90611871565b38611f19565b84513d84823e3d90fd5b8551630ad461a960e21b8152600490fd5b9091506020813d8211611fca575b81611fba602093836118d0565b810103126107f657519038611ed8565b3d9150611fad565b85513d6000823e3d90fd5b611d7791611fe9611d7a565b5060018060a01b037f000000000000000000000000000000000000000000000000000000000000000016600d549260006040938451956396834ad360e01b875260048701526080928387602481885afa8097849861217b575b5061207e575b5050505050809150519061205b826118b5565b6509184e72a00082526305f5e10060208301526007199082015242606082015290565b8683815160070b13908161216b575b8161215d575b501561204857816120a8575b50505050505090565b843b15610db1578551631df3cbc560e31b815292918291849182916120d1919060048401611d9f565b038134885af1918261214e575b50906120ec575b808061209f565b908092939450600d546044600a54918751968793849263052571af60e51b8452600484015260248301525afa938415611f6b575092612131575b5050388080806120e5565b6121479250803d1061101e5761101081836118d0565b3880612126565b61215790611871565b386120de565b606091500151151538612093565b8781015160030b1515915061208d565b612193919850853d871161101e5761101081836118d0565b9638612042565b60030b637fffffff1981146119545760000390565b63ffffffff16604d811161195457600a0a90565b8181029291811591840414171561195457565b81156121e0570490565b634e487b7160e01b600052601260045260246000fd5b9190604083519301518060030b90600094858160070b1315612308576001600160401b031691858112612299575081606402916064830403612285579061224561224b9263ffffffff166121af565b906121c3565b90670de0b6b3a76400009081810291818304149015171561227157611d779293506121d6565b634e487b7160e01b84526011600452602484fd5b634e487b7160e01b85526011600452602485fd5b6122b791506122ac90959392949561219a565b63ffffffff166121af565b91836064029360648504036122f457670de0b6b3a7640000918281029281840414901517156122f45750611d7792916122ef916121c3565b6121d6565b634e487b7160e01b81526011600452602490fd5b6040516352cc3f7d60e01b8152600490fd5b3d15612345573d9061232b826118f3565b9161233960405193846118d0565b82523d6000602084013e565b606090565b81471061032f576001600160a01b031690600080808084865af161236c61231a565b501561031d5760207f42dae7ecbd6480f4668be8482b87dd535b1e94c76b10f9c324e2bca24f10f71b91604051908152a2565b600b54919392916123c391600090600760ff909116106109bc5750600c549061196a565b9260070b90600082131561240057611d77918491604051916123e4836118b5565b82526000602083015260030b6040820152426060820152612407565b5050600090565b9190604083519301518060030b90600094858160070b1315612456576001600160401b031691858112612299575081606402916064830403612285579061224561224b9263ffffffff166121af565b5050505056fe525aa383e9da52014b1fa10a35ab6b1ec0785574d6dc1f97a9ee373e981e74508be0079c531659141344cd1fd0a4f28419497f9722a3daafe3b4186f6b6457e0a164736f6c6343000814000a","opcodes":"PUSH1 0xC0 CALLVALUE PUSH3 0x38A JUMPI PUSH1 0x1F PUSH3 0x2884 CODESIZE DUP2 SWAP1 SUB SWAP2 DUP3 ADD PUSH1 0x1F NOT AND DUP4 ADD SWAP3 SWAP2 SWAP1 PUSH1 0x1 PUSH1 0x1 PUSH1 0x40 SHL SUB DUP5 GT DUP4 DUP6 LT OR PUSH3 0x38F JUMPI DUP2 PUSH1 0x60 SWAP3 DUP5 SWAP3 PUSH1 0x40 SWAP7 DUP8 MSTORE DUP4 CODECOPY DUP2 ADD SUB SLT PUSH3 0x38A JUMPI PUSH3 0x51 DUP2 PUSH3 0x3C5 JUMP JUMPDEST SWAP1 DUP3 PUSH1 0x20 PUSH3 0x62 DUP2 DUP5 ADD PUSH3 0x3C5 JUMP JUMPDEST SWAP3 PUSH1 0x1 PUSH1 0x1 PUSH1 0xA0 SHL SUB SWAP3 DUP4 SWAP2 PUSH3 0x7A SWAP2 ADD PUSH3 0x3C5 JUMP JUMPDEST AND SWAP2 DUP3 ISZERO PUSH3 0x372 JUMPI PUSH1 0x0 DUP1 SLOAD PUSH1 0x1 PUSH1 0x1 PUSH1 0xA0 SHL SUB NOT DUP2 AND DUP6 OR DUP3 SSTORE SWAP1 SWAP4 SWAP1 DUP3 AND PUSH32 0x8BE0079C531659141344CD1FD0A4F28419497F9722A3DAAFE3B4186F6B6457E0 DUP6 DUP1 LOG3 PUSH1 0x1 SWAP4 DUP5 DUP1 SSTORE PUSH1 0x7 DUP1 SSTORE DUP2 PUSH1 0xFF NOT SWAP7 DUP8 PUSH1 0x8 SLOAD AND PUSH1 0x8 SSTORE AND PUSH1 0x80 MSTORE AND PUSH1 0xA0 MSTORE PUSH3 0x2AC PUSH3 0xEC PUSH3 0x3A5 JUMP JUMPDEST PUSH1 0x5 DUP8 PUSH2 0xE10 SWAP3 DUP4 DUP2 MSTORE DUP6 DUP2 ADD SWAP1 PUSH3 0x220 DUP10 DUP6 DUP10 DUP12 PUSH2 0x12C SWAP8 DUP9 DUP9 MSTORE PUSH3 0x192 DUP2 DUP9 ADD SWAP8 DUP6 PUSH2 0x3E8 SWAP11 DUP12 DUP12 MSTORE PUSH1 0x60 DUP4 ADD SWAP11 PUSH2 0x1F4 SWAP12 DUP13 DUP2 MSTORE PUSH1 0x80 DUP6 ADD SWAP2 PUSH32 0x2FB245B9A84554A0F15AA123CBB5F64CD263B59E9A80929A2BBB0BC98B40010B DUP4 MSTORE PUSH1 0xA0 DUP7 ADD SWAP4 DUP13 DUP6 MSTORE PUSH2 0x221 DUP11 MSTORE PUSH1 0x6 DUP12 MSTORE DUP9 DUP11 KECCAK256 SWAP7 MLOAD DUP8 SSTORE MLOAD DUP13 DUP8 ADD SSTORE MLOAD PUSH1 0x2 DUP7 ADD SSTORE MLOAD PUSH1 0x3 DUP6 ADD SSTORE MLOAD PUSH1 0x4 DUP5 ADD SSTORE MLOAD ISZERO ISZERO SWAP2 ADD SWAP1 PUSH1 0xFF DUP1 NOT DUP4 SLOAD AND SWAP2 ISZERO ISZERO AND OR SWAP1 SSTORE JUMP JUMPDEST PUSH3 0x19C PUSH3 0x3A5 JUMP JUMPDEST SWAP5 DUP12 DUP7 MSTORE DUP4 DUP7 ADD SWAP1 DUP11 DUP3 MSTORE DUP3 DUP8 ADD SWAP2 DUP11 DUP4 MSTORE PUSH1 0x60 DUP9 ADD SWAP4 DUP11 DUP6 MSTORE PUSH1 0x80 DUP10 ADD SWAP6 PUSH32 0xF2FB7C5E3F75CEFC890D52BE7C03AF6030284137E19D30D54442ACA9DE250C84 DUP8 MSTORE PUSH1 0x6 PUSH1 0xA0 DUP12 ADD SWAP9 DUP6 DUP11 MSTORE PUSH2 0x128 DUP4 MSTORE MSTORE KECCAK256 SWAP8 MLOAD DUP9 SSTORE MLOAD SWAP1 DUP8 ADD SSTORE MLOAD PUSH1 0x2 DUP7 ADD SSTORE MLOAD PUSH1 0x3 DUP6 ADD SSTORE MLOAD PUSH1 0x4 DUP5 ADD SSTORE MLOAD ISZERO ISZERO SWAP2 ADD SWAP1 PUSH1 0xFF DUP1 NOT DUP4 SLOAD AND SWAP2 ISZERO ISZERO AND OR SWAP1 SSTORE JUMP JUMPDEST PUSH3 0x22A PUSH3 0x3A5 JUMP JUMPDEST SWAP5 DUP6 MSTORE DUP7 DUP6 ADD SWAP3 DUP4 MSTORE DUP11 DUP6 ADD SWAP2 DUP3 MSTORE PUSH1 0x60 DUP6 ADD SWAP1 DUP2 MSTORE PUSH1 0x80 DUP6 ADD SWAP2 PUSH32 0xE62DF6C8B4A85FE1A67DB44DC12DE5DB330F7AC66B72DC658AFEDF0F4A415B43 DUP4 MSTORE PUSH1 0xA0 DUP7 ADD SWAP4 DUP11 DUP6 MSTORE PUSH1 0x1F DUP11 MSTORE PUSH1 0x6 DUP10 MSTORE DUP13 DUP11 KECCAK256 SWAP7 MLOAD DUP8 SSTORE MLOAD DUP11 DUP8 ADD SSTORE MLOAD PUSH1 0x2 DUP7 ADD SSTORE MLOAD PUSH1 0x3 DUP6 ADD SSTORE MLOAD PUSH1 0x4 DUP5 ADD SSTORE MLOAD ISZERO ISZERO SWAP2 ADD SWAP1 PUSH1 0xFF DUP1 NOT DUP4 SLOAD AND SWAP2 ISZERO ISZERO AND OR SWAP1 SSTORE JUMP JUMPDEST CHAINID DUP3 MSTORE PUSH1 0xFF PUSH1 0x5 DUP7 DUP5 KECCAK256 ADD SLOAD AND ISZERO PUSH3 0x361 JUMPI SWAP1 PUSH1 0x6 DUP6 SWAP3 CHAINID DUP4 MSTORE MSTORE KECCAK256 DUP1 PUSH1 0x9 SUB PUSH3 0x31E JUMPI JUMPDEST DUP4 MLOAD PUSH2 0x24A9 SWAP1 DUP2 PUSH3 0x3DB DUP3 CODECOPY PUSH1 0x80 MLOAD DUP2 DUP2 DUP2 PUSH2 0x211 ADD MSTORE DUP2 DUP2 PUSH2 0x6D5 ADD MSTORE DUP2 DUP2 PUSH2 0x12B4 ADD MSTORE PUSH2 0x15C5 ADD MSTORE PUSH1 0xA0 MLOAD DUP2 DUP2 DUP2 PUSH2 0x1C9 ADD MSTORE DUP2 DUP2 PUSH2 0xF84 ADD MSTORE DUP2 DUP2 PUSH2 0x1E87 ADD MSTORE PUSH2 0x1FF3 ADD MSTORE RETURN JUMPDEST PUSH1 0x5 DUP2 PUSH1 0xFF SWAP4 DUP5 SWAP4 SLOAD PUSH1 0x9 SSTORE DUP2 ADD SLOAD PUSH1 0xA SSTORE PUSH1 0x2 DUP2 ADD SLOAD PUSH1 0xB SSTORE PUSH1 0x3 DUP2 ADD SLOAD PUSH1 0xC SSTORE PUSH1 0x4 DUP2 ADD SLOAD PUSH1 0xD SSTORE ADD SLOAD AND ISZERO ISZERO SWAP2 PUSH1 0xE SLOAD AND SWAP2 AND OR PUSH1 0xE SSTORE CODESIZE DUP1 DUP1 PUSH3 0x2D3 JUMP JUMPDEST DUP5 MLOAD PUSH4 0x7AFE43BF PUSH1 0xE1 SHL DUP2 MSTORE PUSH1 0x4 SWAP1 REVERT JUMPDEST DUP6 MLOAD PUSH4 0x1E4FBDF7 PUSH1 0xE0 SHL DUP2 MSTORE PUSH1 0x0 PUSH1 0x4 DUP3 ADD MSTORE PUSH1 0x24 SWAP1 REVERT JUMPDEST PUSH1 0x0 DUP1 REVERT JUMPDEST PUSH4 0x4E487B71 PUSH1 0xE0 SHL PUSH1 0x0 MSTORE PUSH1 0x41 PUSH1 0x4 MSTORE PUSH1 0x24 PUSH1 0x0 REVERT JUMPDEST PUSH1 0x40 MLOAD SWAP1 PUSH1 0xC0 DUP3 ADD PUSH1 0x1 PUSH1 0x1 PUSH1 0x40 SHL SUB DUP2 GT DUP4 DUP3 LT OR PUSH3 0x38F JUMPI PUSH1 0x40 MSTORE JUMP JUMPDEST MLOAD SWAP1 PUSH1 0x1 PUSH1 0x1 PUSH1 0xA0 SHL SUB DUP3 AND DUP3 SUB PUSH3 0x38A JUMPI JUMP INVALID PUSH1 0x80 PUSH1 0x40 MSTORE PUSH1 0x4 CALLDATASIZE LT ISZERO PUSH2 0x12 JUMPI PUSH1 0x0 DUP1 REVERT JUMPDEST PUSH1 0x0 DUP1 CALLDATALOAD PUSH1 0xE0 SHR DUP1 PUSH4 0x15889033 EQ PUSH2 0x16C0 JUMPI DUP1 PUSH4 0x1BAC88CD EQ PUSH2 0x14D0 JUMPI DUP1 PUSH4 0x2D37DC78 EQ PUSH2 0x1462 JUMPI DUP1 PUSH4 0x44FDD003 EQ PUSH2 0x143D JUMPI DUP1 PUSH4 0x4B0AD053 EQ PUSH2 0x1404 JUMPI DUP1 PUSH4 0x560E8191 EQ PUSH2 0x1152 JUMPI DUP1 PUSH4 0x5D2B6A4E EQ PUSH2 0x1113 JUMPI DUP1 PUSH4 0x63C999C3 EQ PUSH2 0x10F5 JUMPI DUP1 PUSH4 0x715018A6 EQ PUSH2 0x10AD JUMPI DUP1 PUSH4 0x741E39EE EQ PUSH2 0x1025 JUMPI DUP1 PUSH4 0x787F75F3 EQ PUSH2 0xF53 JUMPI DUP1 PUSH4 0x7B688630 EQ PUSH2 0xE45 JUMPI DUP1 PUSH4 0x7B99B603 EQ PUSH2 0xDF5 JUMPI DUP1 PUSH4 0x7E49541A EQ PUSH2 0xDD8 JUMPI DUP1 PUSH4 0x7F20F4A6 EQ PUSH2 0xDB5 JUMPI DUP1 PUSH4 0x84435AE5 EQ PUSH2 0xD5D JUMPI DUP1 PUSH4 0x8DA5CB5B EQ PUSH2 0xD36 JUMPI DUP1 PUSH4 0x8E83CA25 EQ PUSH2 0xD07 JUMPI DUP1 PUSH4 0x931AFB5E EQ PUSH2 0xCE9 JUMPI DUP1 PUSH4 0x94720DFF EQ PUSH2 0xCCB JUMPI DUP1 PUSH4 0xA2FA874C EQ PUSH2 0xCAD JUMPI DUP1 PUSH4 0xA5093352 EQ PUSH2 0xC74 JUMPI DUP1 PUSH4 0xB01D0CB9 EQ PUSH2 0xBED JUMPI DUP1 PUSH4 0xB7AB8E14 EQ PUSH2 0xB7D JUMPI DUP1 PUSH4 0xBD097E21 EQ PUSH2 0xB29 JUMPI DUP1 PUSH4 0xBFC54808 EQ PUSH2 0x4E6 JUMPI DUP1 PUSH4 0xC39601F2 EQ PUSH2 0x4CA JUMPI DUP1 PUSH4 0xC6C035B5 EQ PUSH2 0x493 JUMPI DUP1 PUSH4 0xCAE58807 EQ PUSH2 0x457 JUMPI DUP1 PUSH4 0xCFDBF254 EQ PUSH2 0x43B JUMPI DUP1 PUSH4 0xD39957C6 EQ PUSH2 0x373 JUMPI DUP1 PUSH4 0xDB2E21BC EQ PUSH2 0x341 JUMPI DUP1 PUSH4 0xE5C18684 EQ PUSH2 0x2D3 JUMPI DUP1 PUSH4 0xF0167AEA EQ PUSH2 0x2B6 JUMPI DUP1 PUSH4 0xF2FDE38B EQ PUSH2 0x240 JUMPI DUP1 PUSH4 0xF7C618C1 EQ PUSH2 0x1FB JUMPI PUSH4 0xF98D06F0 EQ PUSH2 0x1B4 JUMPI PUSH1 0x0 DUP1 REVERT JUMPDEST CALLVALUE PUSH2 0x1F8 JUMPI DUP1 PUSH1 0x3 NOT CALLDATASIZE ADD SLT PUSH2 0x1F8 JUMPI PUSH1 0x40 MLOAD PUSH32 0x0 PUSH1 0x1 PUSH1 0x1 PUSH1 0xA0 SHL SUB AND DUP2 MSTORE PUSH1 0x20 SWAP1 RETURN JUMPDEST DUP1 REVERT JUMPDEST POP CALLVALUE PUSH2 0x1F8 JUMPI DUP1 PUSH1 0x3 NOT CALLDATASIZE ADD SLT PUSH2 0x1F8 JUMPI PUSH1 0x40 MLOAD PUSH32 0x0 PUSH1 0x1 PUSH1 0x1 PUSH1 0xA0 SHL SUB AND DUP2 MSTORE PUSH1 0x20 SWAP1 RETURN JUMPDEST POP CALLVALUE PUSH2 0x1F8 JUMPI PUSH1 0x20 CALLDATASIZE PUSH1 0x3 NOT ADD SLT PUSH2 0x1F8 JUMPI PUSH2 0x25A PUSH2 0x17AF JUMP JUMPDEST PUSH2 0x262 PUSH2 0x17F1 JUMP JUMPDEST PUSH1 0x1 PUSH1 0x1 PUSH1 0xA0 SHL SUB SWAP1 DUP2 AND SWAP1 DUP2 ISZERO PUSH2 0x29D JUMPI PUSH1 0x0 SLOAD DUP3 PUSH1 0x1 DUP1 PUSH1 0xA0 SHL SUB NOT DUP3 AND OR PUSH1 0x0 SSTORE AND PUSH1 0x0 DUP1 MLOAD PUSH1 0x20 PUSH2 0x247D DUP4 CODECOPY DUP2 MLOAD SWAP2 MSTORE PUSH1 0x0 DUP1 LOG3 DUP1 RETURN JUMPDEST PUSH1 0x40 MLOAD PUSH4 0x1E4FBDF7 PUSH1 0xE0 SHL DUP2 MSTORE PUSH1 0x4 DUP2 ADD DUP5 SWAP1 MSTORE PUSH1 0x24 SWAP1 REVERT JUMPDEST POP CALLVALUE PUSH2 0x1F8 JUMPI DUP1 PUSH1 0x3 NOT CALLDATASIZE ADD SLT PUSH2 0x1F8 JUMPI PUSH1 0x20 PUSH1 0x40 MLOAD PUSH2 0x128 DUP2 MSTORE RETURN JUMPDEST POP CALLVALUE PUSH2 0x1F8 JUMPI PUSH1 0x20 CALLDATASIZE PUSH1 0x3 NOT ADD SLT PUSH2 0x1F8 JUMPI PUSH1 0x4 CALLDATALOAD PUSH2 0x2F0 PUSH2 0x17F1 JUMP JUMPDEST DUP1 SELFBALANCE LT PUSH2 0x32F JUMPI DUP2 SLOAD DUP3 SWAP2 DUP3 SWAP2 DUP3 SWAP2 DUP3 SWAP2 PUSH1 0x1 PUSH1 0x1 PUSH1 0xA0 SHL SUB AND GAS CALL PUSH2 0x314 PUSH2 0x231A JUMP JUMPDEST POP ISZERO PUSH2 0x31D JUMPI DUP1 RETURN JUMPDEST PUSH1 0x40 MLOAD PUSH4 0x3D2CEC6F PUSH1 0xE2 SHL DUP2 MSTORE PUSH1 0x4 SWAP1 REVERT JUMPDEST PUSH1 0x40 MLOAD PUSH4 0x786E0A99 PUSH1 0xE0 SHL DUP2 MSTORE PUSH1 0x4 SWAP1 REVERT JUMPDEST POP CALLVALUE PUSH2 0x1F8 JUMPI DUP1 PUSH1 0x3 NOT CALLDATASIZE ADD SLT PUSH2 0x1F8 JUMPI PUSH2 0x35A PUSH2 0x17F1 JUMP JUMPDEST DUP1 DUP1 DUP1 DUP1 SELFBALANCE PUSH1 0x1 DUP1 PUSH1 0xA0 SHL SUB DUP3 SLOAD AND GAS CALL PUSH2 0x314 PUSH2 0x231A JUMP JUMPDEST POP CALLVALUE PUSH2 0x1F8 JUMPI PUSH1 0x20 CALLDATASIZE PUSH1 0x3 NOT ADD SLT PUSH2 0x1F8 JUMPI PUSH1 0x40 DUP2 PUSH1 0xC0 SWAP3 PUSH1 0xA0 DUP4 MLOAD PUSH2 0x398 DUP2 PUSH2 0x189A JUMP JUMPDEST DUP3 DUP2 MSTORE DUP3 PUSH1 0x20 DUP3 ADD MSTORE DUP3 DUP6 DUP3 ADD MSTORE DUP3 PUSH1 0x60 DUP3 ADD MSTORE DUP3 PUSH1 0x80 DUP3 ADD MSTORE ADD MSTORE PUSH1 0x4 CALLDATALOAD DUP2 MSTORE PUSH1 0x6 PUSH1 0x20 MSTORE KECCAK256 PUSH1 0x40 MLOAD PUSH2 0x3CB DUP2 PUSH2 0x189A JUMP JUMPDEST DUP2 SLOAD SWAP2 DUP3 DUP3 MSTORE PUSH1 0x1 DUP2 ADD SLOAD PUSH1 0x20 DUP4 ADD SWAP1 DUP2 MSTORE PUSH1 0x2 DUP3 ADD SLOAD PUSH1 0x40 DUP5 ADD SWAP1 DUP2 MSTORE PUSH1 0x3 DUP4 ADD SLOAD SWAP2 PUSH1 0x60 DUP6 ADD SWAP3 DUP4 MSTORE PUSH1 0xA0 PUSH1 0xFF PUSH1 0x5 PUSH1 0x4 DUP8 ADD SLOAD SWAP7 PUSH1 0x80 DUP10 ADD SWAP8 DUP9 MSTORE ADD SLOAD AND SWAP6 ADD SWAP5 ISZERO ISZERO DUP6 MSTORE PUSH1 0x40 MLOAD SWAP6 DUP7 MSTORE MLOAD PUSH1 0x20 DUP7 ADD MSTORE MLOAD PUSH1 0x40 DUP6 ADD MSTORE MLOAD PUSH1 0x60 DUP5 ADD MSTORE MLOAD PUSH1 0x80 DUP4 ADD MSTORE MLOAD ISZERO ISZERO PUSH1 0xA0 DUP3 ADD MSTORE RETURN JUMPDEST POP CALLVALUE PUSH2 0x1F8 JUMPI DUP1 PUSH1 0x3 NOT CALLDATASIZE ADD SLT PUSH2 0x1F8 JUMPI PUSH1 0x20 PUSH1 0x40 MLOAD PUSH1 0x64 DUP2 MSTORE RETURN JUMPDEST POP CALLVALUE PUSH2 0x1F8 JUMPI DUP1 PUSH1 0x3 NOT CALLDATASIZE ADD SLT PUSH2 0x1F8 JUMPI PUSH1 0x9 SLOAD PUSH1 0xA SLOAD SWAP1 PUSH2 0x48F PUSH1 0xB SLOAD PUSH1 0xC SLOAD PUSH1 0xD SLOAD SWAP1 PUSH1 0xFF PUSH1 0xE SLOAD AND SWAP3 PUSH1 0x40 MLOAD SWAP7 DUP8 SWAP7 DUP8 PUSH2 0x17C5 JUMP JUMPDEST SUB SWAP1 RETURN JUMPDEST POP CALLVALUE PUSH2 0x1F8 JUMPI DUP1 PUSH1 0x3 NOT CALLDATASIZE ADD SLT PUSH2 0x1F8 JUMPI PUSH1 0x80 PUSH1 0xF SLOAD PUSH1 0x10 SLOAD PUSH1 0x11 SLOAD PUSH1 0x7 SLOAD SWAP2 PUSH1 0x40 MLOAD SWAP4 DUP5 MSTORE PUSH1 0x20 DUP5 ADD MSTORE PUSH1 0x40 DUP4 ADD MSTORE PUSH1 0x60 DUP3 ADD MSTORE RETURN JUMPDEST POP CALLVALUE PUSH2 0x1F8 JUMPI DUP1 PUSH1 0x3 NOT CALLDATASIZE ADD SLT PUSH2 0x1F8 JUMPI PUSH1 0x20 PUSH1 0x40 MLOAD PUSH1 0x1F DUP2 MSTORE RETURN JUMPDEST POP PUSH2 0x4F0 CALLDATASIZE PUSH2 0x172F JUMP JUMPDEST SWAP1 PUSH2 0x4F9 PUSH2 0x19E9 JUMP JUMPDEST PUSH2 0x503 DUP4 DUP1 PUSH2 0x1A0C JUMP JUMPDEST DUP1 SWAP4 SWAP2 POP ISZERO DUP1 ISZERO PUSH2 0xB1F JUMPI JUMPDEST PUSH2 0xB0D JUMPI PUSH2 0x51D DUP5 DUP1 PUSH2 0x1A0C JUMP JUMPDEST SWAP1 POP PUSH2 0x52C PUSH1 0x20 DUP7 ADD DUP7 PUSH2 0x1A0C JUMP JUMPDEST SWAP2 SWAP1 POP EQ DUP1 ISZERO SWAP1 PUSH2 0xAE9 JUMPI JUMPDEST DUP1 ISZERO PUSH2 0xAC5 JUMPI JUMPDEST PUSH2 0xAB3 JUMPI PUSH2 0x54D DUP5 DUP1 PUSH2 0x1A0C JUMP JUMPDEST PUSH2 0x55D PUSH1 0x20 DUP8 SWAP6 SWAP4 SWAP6 ADD DUP8 PUSH2 0x1A0C JUMP JUMPDEST SWAP2 SWAP1 SWAP5 DUP9 PUSH2 0x56E PUSH1 0x40 DUP11 ADD DUP11 PUSH2 0x1A0C JUMP JUMPDEST SWAP2 SWAP1 SWAP8 PUSH2 0x57E PUSH1 0x60 DUP13 ADD DUP13 PUSH2 0x1A0C JUMP JUMPDEST SWAP7 SWAP1 SWAP5 PUSH1 0x40 MLOAD SWAP7 DUP1 PUSH1 0xA0 DUP10 ADD PUSH1 0x80 PUSH1 0x20 DUP12 ADD MSTORE MSTORE PUSH1 0xC0 DUP9 ADD SWAP2 SWAP1 DUP6 SWAP1 JUMPDEST DUP1 DUP3 LT PUSH2 0xA7D JUMPI POP POP POP PUSH1 0x1F NOT DUP8 DUP3 SUB ADD PUSH1 0x40 DUP9 ADD MSTORE DUP2 DUP2 MSTORE PUSH1 0x20 DUP2 ADD PUSH1 0x20 DUP4 PUSH1 0x5 SHL DUP4 ADD ADD SWAP4 DUP1 SWAP6 SWAP3 JUMPDEST DUP5 DUP5 LT PUSH2 0xA45 JUMPI POP POP POP POP POP DUP5 DUP2 SUB PUSH1 0x1F NOT ADD PUSH1 0x60 DUP7 ADD MSTORE DUP3 DUP2 MSTORE PUSH1 0x20 ADD SWAP8 SWAP2 DUP12 SWAP2 POP JUMPDEST DUP1 DUP3 LT PUSH2 0xA1B JUMPI POP POP POP DUP2 DUP7 SUB PUSH1 0x1F NOT ADD PUSH1 0x80 DUP4 ADD MSTORE DUP3 DUP7 MSTORE PUSH1 0x1 PUSH1 0x1 PUSH1 0xFB SHL SUB DUP4 GT PUSH2 0xA17 JUMPI PUSH1 0x20 DUP3 PUSH2 0x638 SWAP3 PUSH2 0x661 SWAP9 PUSH2 0x65C SWAP7 PUSH1 0x5 SWAP13 SWAP12 SWAP13 SHL DUP1 SWAP3 DUP6 DUP4 ADD CALLDATACOPY ADD SUB DUP1 DUP5 MSTORE ADD DUP3 PUSH2 0x18D0 JUMP JUMPDEST PUSH1 0x20 DUP2 MLOAD SWAP2 ADD KECCAK256 PUSH2 0x656 PUSH2 0x64F PUSH1 0x80 DUP9 ADD DUP9 PUSH2 0x183F JUMP JUMPDEST CALLDATASIZE SWAP2 PUSH2 0x190E JUMP JUMPDEST SWAP1 PUSH2 0x1D07 JUMP JUMPDEST PUSH2 0x1E64 JUMP JUMPDEST SWAP2 PUSH2 0x66B DUP2 PUSH2 0x1A41 JUMP JUMPDEST PUSH2 0x678 PUSH1 0x40 MLOAD SWAP2 DUP3 PUSH2 0x18D0 JUMP JUMPDEST DUP2 DUP2 MSTORE PUSH1 0x1F NOT PUSH2 0x687 DUP4 PUSH2 0x1A41 JUMP JUMPDEST ADD CALLDATASIZE PUSH1 0x20 DUP4 ADD CALLDATACOPY PUSH2 0x697 DUP3 PUSH2 0x1A41 JUMP JUMPDEST SWAP1 PUSH2 0x6A5 PUSH1 0x40 MLOAD SWAP3 DUP4 PUSH2 0x18D0 JUMP JUMPDEST DUP3 DUP3 MSTORE PUSH1 0x1F NOT PUSH2 0x6B4 DUP5 PUSH2 0x1A41 JUMP JUMPDEST ADD CALLDATASIZE PUSH1 0x20 DUP5 ADD CALLDATACOPY DUP6 SWAP4 DUP7 SWAP6 DUP8 SWAP2 JUMPDEST DUP6 DUP4 LT PUSH2 0x843 JUMPI POP PUSH1 0x1 PUSH1 0x1 PUSH1 0xA0 SHL SUB SWAP4 PUSH32 0x0 DUP6 AND SWAP4 SWAP1 SWAP3 POP SWAP1 POP DUP3 EXTCODESIZE ISZERO PUSH2 0x83F JUMPI SWAP1 DUP8 SWAP4 SWAP3 SWAP2 PUSH1 0x40 MLOAD SWAP4 PUSH4 0x573C11A1 PUSH1 0xE1 SHL DUP6 MSTORE PUSH1 0x44 DUP6 ADD PUSH1 0x40 PUSH1 0x4 DUP8 ADD MSTORE DUP3 MLOAD DUP1 SWAP2 MSTORE PUSH1 0x20 PUSH1 0x64 DUP8 ADD SWAP4 ADD SWAP2 DUP8 SWAP1 JUMPDEST DUP3 DUP3 LT PUSH2 0x820 JUMPI POP POP POP POP PUSH1 0x3 NOT DUP5 DUP3 SUB ADD PUSH1 0x24 DUP6 ADD MSTORE PUSH1 0x20 DUP1 DUP4 MLOAD SWAP3 DUP4 DUP2 MSTORE ADD SWAP3 ADD SWAP1 DUP6 JUMPDEST DUP2 DUP2 LT PUSH2 0x805 JUMPI POP POP POP DUP4 SWAP2 DUP4 DUP4 DUP2 DUP1 SWAP5 SUB SWAP3 GAS CALL DUP1 ISZERO PUSH2 0x7FA JUMPI PUSH2 0x7E2 JUMPI JUMPDEST POP POP PUSH2 0x7D8 PUSH32 0xA64F4980A79D096F7D5ABF84AE97BBC1E0D84456323D438560DAB7F86A29021D SWAP4 PUSH2 0x7AB DUP4 PUSH1 0xF SLOAD PUSH2 0x196A JUMP JUMPDEST PUSH1 0xF SSTORE PUSH2 0x7BA DUP5 PUSH1 0x10 SLOAD PUSH2 0x196A JUMP JUMPDEST PUSH1 0x10 SSTORE PUSH2 0x7C9 DUP2 PUSH1 0x11 SLOAD PUSH2 0x196A JUMP JUMPDEST PUSH1 0x11 SSTORE PUSH1 0x40 MLOAD SWAP4 DUP5 SWAP4 DUP5 PUSH2 0x1799 JUMP JUMPDEST SUB SWAP1 LOG1 PUSH1 0x1 DUP1 SSTORE DUP1 RETURN JUMPDEST PUSH2 0x7EB SWAP1 PUSH2 0x1871 JUMP JUMPDEST PUSH2 0x7F6 JUMPI DUP4 CODESIZE PUSH2 0x778 JUMP JUMPDEST DUP4 DUP1 REVERT JUMPDEST PUSH1 0x40 MLOAD RETURNDATASIZE DUP5 DUP3 RETURNDATACOPY RETURNDATASIZE SWAP1 REVERT JUMPDEST DUP3 MLOAD ISZERO ISZERO DUP5 MSTORE DUP11 SWAP7 POP PUSH1 0x20 SWAP4 DUP5 ADD SWAP4 SWAP1 SWAP3 ADD SWAP2 PUSH1 0x1 ADD PUSH2 0x758 JUMP JUMPDEST DUP4 MLOAD DUP2 AND DUP6 MSTORE DUP13 SWAP9 POP PUSH1 0x20 SWAP5 DUP6 ADD SWAP5 SWAP1 SWAP4 ADD SWAP3 PUSH1 0x1 SWAP2 SWAP1 SWAP2 ADD SWAP1 PUSH2 0x732 JUMP JUMPDEST DUP8 DUP1 REVERT JUMPDEST SWAP1 SWAP2 SWAP7 SWAP6 PUSH2 0x863 PUSH2 0x85E DUP10 PUSH2 0x858 DUP6 DUP1 PUSH2 0x1A0C JUMP JUMPDEST SWAP1 PUSH2 0x1A58 JUMP JUMPDEST PUSH2 0x181D JUMP JUMPDEST SWAP1 PUSH2 0x871 PUSH1 0x20 DUP5 ADD DUP5 PUSH2 0x1A0C JUMP JUMPDEST DUP11 LT ISZERO PUSH2 0xA03 JUMPI PUSH2 0x64F PUSH2 0x88B SWAP2 DUP12 PUSH1 0x5 SHL DUP2 ADD SWAP1 PUSH2 0x183F JUMP JUMPDEST PUSH2 0x8A4 PUSH2 0x89F DUP12 PUSH2 0x858 PUSH1 0x40 DUP9 ADD DUP9 PUSH2 0x1A0C JUMP JUMPDEST PUSH2 0x1831 JUMP JUMPDEST PUSH2 0x8B5 DUP12 PUSH2 0x858 PUSH1 0x60 DUP9 ADD DUP9 PUSH2 0x1A0C JUMP JUMPDEST CALLDATALOAD SWAP2 PUSH1 0x1 PUSH1 0x1 PUSH1 0xA0 SHL SUB DUP6 AND ISZERO PUSH2 0x9D2 JUMPI PUSH1 0xFF DUP3 AND ISZERO DUP1 ISZERO PUSH2 0x9F6 JUMPI JUMPDEST PUSH2 0x9E4 JUMPI TIMESTAMP DUP4 GT PUSH2 0x9D2 JUMPI DUP13 SWAP3 PUSH2 0x8E9 SWAP2 DUP7 PUSH2 0x1A92 JUMP JUMPDEST DUP3 MSTORE PUSH1 0x3 PUSH1 0x20 MSTORE PUSH1 0x40 DUP3 KECCAK256 DUP1 SLOAD PUSH1 0xFF DUP2 AND PUSH2 0x9C2 JUMPI DUP10 PUSH2 0x9B5 SWAP7 SWAP5 DUP11 DUP16 PUSH2 0x97B SWAP1 PUSH2 0x9A9 SWAP8 PUSH2 0x9AF SWAP11 SWAP8 PUSH1 0x1 PUSH2 0x98F SWAP9 PUSH1 0xFF NOT AND OR SWAP1 SSTORE PUSH1 0x1 DUP1 PUSH1 0xA0 SHL SUB DUP11 AND DUP6 MSTORE PUSH1 0x4 PUSH1 0x20 MSTORE PUSH1 0x40 DUP6 KECCAK256 PUSH2 0x93E DUP2 SLOAD PUSH2 0x1945 JUMP JUMPDEST SWAP1 SSTORE PUSH1 0x1 DUP1 PUSH1 0xA0 SHL SUB DUP11 AND DUP6 MSTORE PUSH1 0x5 PUSH1 0x20 MSTORE TIMESTAMP PUSH1 0x40 DUP7 KECCAK256 SSTORE PUSH1 0xFF PUSH1 0x7 SLOAD SWAP2 AND LT ISZERO SWAP5 DUP6 SWAP4 PUSH2 0x975 DUP4 PUSH1 0x1 DUP1 PUSH1 0xA0 SHL SUB DUP14 AND SWAP3 PUSH2 0x1A7E JUMP JUMPDEST MSTORE PUSH2 0x1A7E JUMP JUMPDEST MSTORE PUSH1 0xB SLOAD SWAP2 ISZERO PUSH2 0x9BC JUMPI POP PUSH1 0xC SLOAD SWAP1 PUSH2 0x196A JUMP JUMPDEST SWAP1 PUSH2 0x9A4 PUSH2 0x99D DUP4 DUP11 PUSH2 0x21F6 JUMP JUMPDEST DUP1 SWAP6 PUSH2 0x234A JUMP JUMPDEST PUSH2 0x196A JUMP JUMPDEST SWAP9 PUSH2 0x196A JUMP JUMPDEST SWAP8 PUSH2 0x1945 JUMP JUMPDEST SWAP2 SWAP1 PUSH2 0x6C2 JUMP JUMPDEST SWAP1 PUSH2 0x196A JUMP JUMPDEST POP POP POP POP SWAP7 SWAP8 PUSH2 0x9B5 SWAP2 POP PUSH2 0x1945 JUMP JUMPDEST PUSH1 0x40 MLOAD PUSH4 0x9BDE339 PUSH1 0xE0 SHL DUP2 MSTORE PUSH1 0x4 SWAP1 REVERT JUMPDEST PUSH1 0x40 MLOAD PUSH4 0x446A24D5 PUSH1 0xE0 SHL DUP2 MSTORE PUSH1 0x4 SWAP1 REVERT JUMPDEST POP PUSH1 0xA PUSH1 0xFF DUP4 AND GT PUSH2 0x8D2 JUMP JUMPDEST PUSH4 0x4E487B71 PUSH1 0xE0 SHL DUP12 MSTORE PUSH1 0x32 PUSH1 0x4 MSTORE PUSH1 0x24 DUP12 REVERT JUMPDEST DUP9 DUP1 REVERT JUMPDEST SWAP1 SWAP2 SWAP8 DUP9 CALLDATALOAD SWAP1 PUSH1 0xFF DUP3 AND DUP1 SWAP3 SUB PUSH2 0xA40 JUMPI PUSH1 0x20 DUP2 PUSH1 0x1 SWAP4 DUP3 SWAP4 MSTORE ADD SWAP10 ADD SWAP3 ADD SWAP1 PUSH2 0x5EA JUMP JUMPDEST PUSH1 0x0 DUP1 REVERT JUMPDEST SWAP1 SWAP2 SWAP3 SWAP4 SWAP5 PUSH1 0x20 DUP1 PUSH2 0xA6C PUSH1 0x1 SWAP4 PUSH1 0x1F NOT DUP7 DUP3 SUB ADD DUP9 MSTORE PUSH2 0xA66 DUP12 DUP9 PUSH2 0x1AF8 JUMP JUMPDEST SWAP1 PUSH2 0x1992 JUMP JUMPDEST SWAP9 ADD SWAP5 ADD SWAP5 ADD SWAP3 SWAP6 SWAP5 SWAP4 SWAP2 SWAP1 PUSH2 0x5C6 JUMP JUMPDEST SWAP2 SWAP6 POP SWAP3 SWAP4 SWAP3 SWAP2 DUP6 CALLDATALOAD PUSH1 0x1 PUSH1 0x1 PUSH1 0xA0 SHL SUB DUP2 AND SWAP2 SWAP1 DUP3 SWAP1 SUB PUSH2 0xA40 JUMPI PUSH1 0x20 DUP2 PUSH1 0x1 SWAP4 DUP3 SWAP4 MSTORE ADD SWAP7 ADD SWAP3 ADD DUP16 SWAP6 SWAP3 SWAP2 SWAP5 SWAP4 SWAP5 PUSH2 0x59B JUMP JUMPDEST PUSH1 0x40 MLOAD PUSH4 0x512509D3 PUSH1 0xE1 SHL DUP2 MSTORE PUSH1 0x4 SWAP1 REVERT JUMPDEST POP PUSH2 0xAD0 DUP5 DUP1 PUSH2 0x1A0C JUMP JUMPDEST SWAP1 POP PUSH2 0xADF PUSH1 0x60 DUP7 ADD DUP7 PUSH2 0x1A0C JUMP JUMPDEST SWAP2 SWAP1 POP EQ ISZERO PUSH2 0x53F JUMP JUMPDEST POP PUSH2 0xAF4 DUP5 DUP1 PUSH2 0x1A0C JUMP JUMPDEST SWAP1 POP PUSH2 0xB03 PUSH1 0x40 DUP7 ADD DUP7 PUSH2 0x1A0C JUMP JUMPDEST SWAP2 SWAP1 POP EQ ISZERO PUSH2 0x538 JUMP JUMPDEST PUSH1 0x40 MLOAD PUSH4 0xABCF3D23 PUSH1 0xE0 SHL DUP2 MSTORE PUSH1 0x4 SWAP1 REVERT JUMPDEST POP PUSH1 0x64 DUP4 GT PUSH2 0x50F JUMP JUMPDEST POP DUP1 PUSH1 0x3 NOT CALLDATASIZE ADD SLT PUSH2 0x1F8 JUMPI CALLVALUE ISZERO PUSH2 0xB3E JUMPI DUP1 RETURN JUMPDEST PUSH1 0x40 MLOAD PUSH3 0x461BCD PUSH1 0xE5 SHL DUP2 MSTORE PUSH1 0x20 PUSH1 0x4 DUP3 ADD MSTORE PUSH1 0x17 PUSH1 0x24 DUP3 ADD MSTORE PUSH23 0x4D7573742073656E64206E617469766520746F6B656E73 PUSH1 0x48 SHL PUSH1 0x44 DUP3 ADD MSTORE PUSH1 0x64 SWAP1 REVERT JUMPDEST POP CALLVALUE PUSH2 0x1F8 JUMPI PUSH1 0x20 CALLDATASIZE PUSH1 0x3 NOT ADD SLT PUSH2 0x1F8 JUMPI PUSH1 0x1 PUSH1 0x1 PUSH1 0xA0 SHL SUB PUSH2 0xB9F PUSH2 0x17AF JUMP JUMPDEST AND SWAP1 DUP2 DUP2 MSTORE PUSH1 0x5 PUSH1 0x20 MSTORE PUSH1 0x40 DUP2 KECCAK256 SLOAD SWAP2 PUSH2 0xBBB PUSH1 0x9 SLOAD DUP5 PUSH2 0x196A JUMP JUMPDEST SWAP1 DUP3 MSTORE PUSH1 0x4 PUSH1 0x20 MSTORE PUSH1 0x40 SWAP1 SWAP2 KECCAK256 SLOAD SWAP1 TIMESTAMP DUP2 GT ISZERO PUSH2 0xBE3 JUMPI PUSH2 0x48F SWAP1 JUMPDEST PUSH1 0x40 MLOAD SWAP4 DUP5 SWAP4 DUP5 PUSH2 0x1799 JUMP JUMPDEST POP PUSH2 0x48F TIMESTAMP PUSH2 0xBD7 JUMP JUMPDEST POP CALLVALUE PUSH2 0x1F8 JUMPI PUSH1 0x60 CALLDATASIZE PUSH1 0x3 NOT ADD SLT PUSH2 0x1F8 JUMPI PUSH2 0xC07 PUSH2 0x17AF JUMP JUMPDEST PUSH1 0x1 PUSH1 0x1 PUSH1 0x40 SHL SUB SWAP1 PUSH1 0x24 CALLDATALOAD DUP3 DUP2 GT PUSH2 0x7F6 JUMPI CALLDATASIZE PUSH1 0x23 DUP3 ADD SLT ISZERO PUSH2 0x7F6 JUMPI DUP1 PUSH1 0x4 ADD CALLDATALOAD SWAP3 DUP4 GT PUSH2 0x7F6 JUMPI CALLDATASIZE PUSH1 0x24 DUP5 DUP4 ADD ADD GT PUSH2 0x7F6 JUMPI SWAP3 PUSH2 0xC61 PUSH1 0xFF SWAP4 PUSH1 0x40 SWAP4 PUSH2 0xC5B PUSH1 0x20 SWAP8 PUSH1 0x44 CALLDATALOAD SWAP4 PUSH1 0x24 CALLDATASIZE SWAP3 ADD PUSH2 0x190E JUMP JUMPDEST SWAP1 PUSH2 0x1A92 JUMP JUMPDEST DUP2 MSTORE PUSH1 0x3 DUP5 MSTORE KECCAK256 SLOAD AND PUSH1 0x40 MLOAD SWAP1 ISZERO ISZERO DUP2 MSTORE RETURN JUMPDEST POP CALLVALUE PUSH2 0x1F8 JUMPI PUSH1 0x20 CALLDATASIZE PUSH1 0x3 NOT ADD SLT PUSH2 0x1F8 JUMPI PUSH1 0x20 SWAP1 PUSH1 0x40 SWAP1 PUSH1 0x1 PUSH1 0x1 PUSH1 0xA0 SHL SUB PUSH2 0xC9C PUSH2 0x17AF JUMP JUMPDEST AND DUP2 MSTORE PUSH1 0x5 DUP4 MSTORE KECCAK256 SLOAD PUSH1 0x40 MLOAD SWAP1 DUP2 MSTORE RETURN JUMPDEST POP CALLVALUE PUSH2 0x1F8 JUMPI DUP1 PUSH1 0x3 NOT CALLDATASIZE ADD SLT PUSH2 0x1F8 JUMPI PUSH1 0x20 PUSH1 0x11 SLOAD PUSH1 0x40 MLOAD SWAP1 DUP2 MSTORE RETURN JUMPDEST POP CALLVALUE PUSH2 0x1F8 JUMPI DUP1 PUSH1 0x3 NOT CALLDATASIZE ADD SLT PUSH2 0x1F8 JUMPI PUSH1 0x20 PUSH1 0x10 SLOAD PUSH1 0x40 MLOAD SWAP1 DUP2 MSTORE RETURN JUMPDEST POP CALLVALUE PUSH2 0x1F8 JUMPI DUP1 PUSH1 0x3 NOT CALLDATASIZE ADD SLT PUSH2 0x1F8 JUMPI PUSH1 0x20 PUSH1 0xF SLOAD PUSH1 0x40 MLOAD SWAP1 DUP2 MSTORE RETURN JUMPDEST POP CALLVALUE PUSH2 0x1F8 JUMPI PUSH1 0x20 CALLDATASIZE PUSH1 0x3 NOT ADD SLT PUSH2 0x1F8 JUMPI PUSH1 0xFF PUSH1 0x40 PUSH1 0x20 SWAP3 PUSH1 0x4 CALLDATALOAD DUP2 MSTORE PUSH1 0x3 DUP5 MSTORE KECCAK256 SLOAD AND PUSH1 0x40 MLOAD SWAP1 ISZERO ISZERO DUP2 MSTORE RETURN JUMPDEST POP CALLVALUE PUSH2 0x1F8 JUMPI DUP1 PUSH1 0x3 NOT CALLDATASIZE ADD SLT PUSH2 0x1F8 JUMPI SLOAD PUSH1 0x40 MLOAD PUSH1 0x1 PUSH1 0x1 PUSH1 0xA0 SHL SUB SWAP1 SWAP2 AND DUP2 MSTORE PUSH1 0x20 SWAP1 RETURN JUMPDEST POP CALLVALUE PUSH2 0x1F8 JUMPI PUSH1 0x60 CALLDATASIZE PUSH1 0x3 NOT ADD SLT PUSH2 0x1F8 JUMPI PUSH1 0x4 CALLDATALOAD PUSH1 0xFF DUP2 AND DUP2 SUB PUSH2 0xA40 JUMPI PUSH1 0x24 CALLDATALOAD SWAP1 DUP2 PUSH1 0x7 SIGNEXTEND DUP3 SUB PUSH2 0xDB1 JUMPI PUSH1 0x44 CALLDATALOAD SWAP3 DUP4 PUSH1 0x3 SIGNEXTEND DUP5 SUB PUSH2 0x1F8 JUMPI PUSH1 0x40 PUSH2 0xDA5 DUP6 DUP6 DUP6 PUSH2 0x239F JUMP JUMPDEST DUP3 MLOAD SWAP2 DUP3 MSTORE PUSH1 0x20 DUP3 ADD MSTORE RETURN JUMPDEST DUP3 DUP1 REVERT JUMPDEST POP CALLVALUE PUSH2 0x1F8 JUMPI DUP1 PUSH1 0x3 NOT CALLDATASIZE ADD SLT PUSH2 0x1F8 JUMPI PUSH1 0x20 PUSH1 0xFF PUSH1 0x8 SLOAD AND PUSH1 0x40 MLOAD SWAP1 ISZERO ISZERO DUP2 MSTORE RETURN JUMPDEST POP CALLVALUE PUSH2 0x1F8 JUMPI DUP1 PUSH1 0x3 NOT CALLDATASIZE ADD SLT PUSH2 0x1F8 JUMPI PUSH1 0x20 PUSH1 0x40 MLOAD PUSH2 0x221 DUP2 MSTORE RETURN JUMPDEST POP CALLVALUE PUSH2 0x1F8 JUMPI PUSH1 0x20 CALLDATASIZE PUSH1 0x3 NOT ADD SLT PUSH2 0x1F8 JUMPI PUSH1 0x40 SWAP1 PUSH1 0x4 CALLDATALOAD DUP2 MSTORE PUSH1 0x6 PUSH1 0x20 MSTORE KECCAK256 DUP1 SLOAD PUSH2 0x48F PUSH1 0x1 DUP4 ADD SLOAD SWAP3 PUSH1 0x2 DUP2 ADD SLOAD SWAP1 PUSH1 0x3 DUP2 ADD SLOAD PUSH1 0xFF PUSH1 0x5 PUSH1 0x4 DUP5 ADD SLOAD SWAP4 ADD SLOAD AND SWAP3 PUSH1 0x40 MLOAD SWAP7 DUP8 SWAP7 DUP8 PUSH2 0x17C5 JUMP JUMPDEST POP CALLVALUE PUSH2 0x1F8 JUMPI PUSH1 0xE0 CALLDATASIZE PUSH1 0x3 NOT ADD SLT PUSH2 0x1F8 JUMPI PUSH1 0x4 CALLDATALOAD PUSH1 0xC0 CALLDATASIZE PUSH1 0x23 NOT ADD SLT PUSH2 0xF4F JUMPI PUSH2 0xE6E PUSH2 0x17F1 JUMP JUMPDEST DUP1 DUP3 MSTORE PUSH1 0x6 PUSH1 0x20 MSTORE PUSH1 0x40 DUP3 KECCAK256 SWAP1 PUSH1 0x24 CALLDATALOAD SWAP1 DUP2 DUP4 SSTORE PUSH1 0x44 CALLDATALOAD SWAP2 DUP3 PUSH1 0x1 DUP6 ADD SSTORE PUSH1 0x64 CALLDATALOAD DUP1 PUSH1 0x2 DUP7 ADD SSTORE PUSH1 0x84 CALLDATALOAD DUP1 PUSH1 0x3 DUP8 ADD SSTORE PUSH1 0xA4 CALLDATALOAD SWAP2 DUP3 PUSH1 0x4 DUP9 ADD SSTORE PUSH1 0xC4 CALLDATALOAD SWAP6 DUP7 ISZERO ISZERO SWAP5 DUP6 DUP9 SUB PUSH2 0xF4B JUMPI PUSH2 0xEF3 PUSH1 0xE0 SWAP9 PUSH1 0x5 PUSH32 0x97BCB43847156FCD0D092414EF8126ED1C00632CDD19FDA8552F99521296422A SWAP12 ADD SWAP1 PUSH1 0xFF DUP1 NOT DUP4 SLOAD AND SWAP2 ISZERO ISZERO AND OR SWAP1 SSTORE JUMP JUMPDEST CHAINID DUP8 EQ PUSH2 0xF23 JUMPI JUMPDEST PUSH1 0x40 MLOAD SWAP7 DUP8 MSTORE PUSH1 0x20 DUP8 ADD MSTORE PUSH1 0x40 DUP7 ADD MSTORE PUSH1 0x60 DUP6 ADD MSTORE PUSH1 0x80 DUP5 ADD MSTORE PUSH1 0xA0 DUP4 ADD MSTORE PUSH1 0xC0 DUP3 ADD MSTORE LOG1 DUP1 RETURN JUMPDEST DUP1 PUSH1 0x9 SSTORE DUP2 PUSH1 0xA SSTORE DUP3 PUSH1 0xB SSTORE DUP4 PUSH1 0xC SSTORE DUP5 PUSH1 0xD SSTORE PUSH1 0xFF NOT PUSH1 0xE SLOAD AND PUSH1 0xFF DUP8 AND OR PUSH1 0xE SSTORE PUSH2 0xEFB JUMP JUMPDEST DUP10 DUP1 REVERT JUMPDEST POP DUP1 REVERT JUMPDEST POP CALLVALUE PUSH2 0x1F8 JUMPI DUP1 PUSH1 0x3 NOT CALLDATASIZE ADD SLT PUSH2 0x1F8 JUMPI PUSH1 0xD SLOAD PUSH1 0x40 MLOAD PUSH4 0x96834AD3 PUSH1 0xE0 SHL DUP2 MSTORE PUSH1 0x4 DUP2 ADD SWAP2 SWAP1 SWAP2 MSTORE PUSH1 0x80 DUP2 PUSH1 0x24 DUP2 PUSH32 0x0 PUSH1 0x1 PUSH1 0x1 PUSH1 0xA0 SHL SUB AND GAS STATICCALL SWAP1 DUP2 ISZERO PUSH2 0x7FA JUMPI PUSH1 0x80 SWAP3 SWAP2 PUSH2 0xFF8 JUMPI JUMPDEST POP DUP1 MLOAD PUSH1 0x7 SIGNEXTEND SWAP1 PUSH1 0x1 DUP1 PUSH1 0x40 SHL SUB PUSH1 0x20 DUP3 ADD MLOAD AND SWAP1 PUSH1 0x60 PUSH1 0x40 DUP3 ADD MLOAD PUSH1 0x3 SIGNEXTEND SWAP2 ADD MLOAD SWAP2 PUSH1 0x40 MLOAD SWAP4 DUP5 MSTORE PUSH1 0x20 DUP5 ADD MSTORE PUSH1 0x40 DUP4 ADD MSTORE PUSH1 0x60 DUP3 ADD MSTORE RETURN JUMPDEST PUSH2 0x1018 SWAP2 POP DUP3 RETURNDATASIZE DUP2 GT PUSH2 0x101E JUMPI JUMPDEST PUSH2 0x1010 DUP2 DUP4 PUSH2 0x18D0 JUMP JUMPDEST DUP2 ADD SWAP1 PUSH2 0x1E02 JUMP JUMPDEST CODESIZE PUSH2 0xFBE JUMP JUMPDEST POP RETURNDATASIZE PUSH2 0x1006 JUMP JUMPDEST POP CALLVALUE PUSH2 0x1F8 JUMPI PUSH1 0x40 CALLDATASIZE PUSH1 0x3 NOT ADD SLT PUSH2 0x1F8 JUMPI PUSH2 0x103F PUSH2 0x17AF JUMP JUMPDEST PUSH1 0x24 CALLDATALOAD SWAP1 DUP2 ISZERO ISZERO SWAP1 DUP2 DUP4 SUB PUSH2 0xA40 JUMPI PUSH32 0xD71D7C88579D0D5858DA8CB9F6C4CE94826A5391FF03EDF44F6A431180A1A6F5 SWAP2 PUSH2 0x10A3 PUSH1 0x20 SWAP3 PUSH2 0x107E PUSH2 0x17F1 JUMP JUMPDEST PUSH1 0x1 DUP1 PUSH1 0xA0 SHL SUB AND SWAP5 DUP6 DUP8 MSTORE PUSH1 0x2 DUP5 MSTORE PUSH1 0x40 DUP8 KECCAK256 SWAP1 PUSH1 0xFF DUP1 NOT DUP4 SLOAD AND SWAP2 ISZERO ISZERO AND OR SWAP1 SSTORE JUMP JUMPDEST PUSH1 0x40 MLOAD SWAP1 DUP2 MSTORE LOG2 DUP1 RETURN JUMPDEST POP CALLVALUE PUSH2 0x1F8 JUMPI DUP1 PUSH1 0x3 NOT CALLDATASIZE ADD SLT PUSH2 0x1F8 JUMPI PUSH2 0x10C6 PUSH2 0x17F1 JUMP JUMPDEST PUSH1 0x0 DUP1 SLOAD PUSH1 0x1 PUSH1 0x1 PUSH1 0xA0 SHL SUB NOT DUP2 AND DUP3 SSTORE PUSH1 0x1 PUSH1 0x1 PUSH1 0xA0 SHL SUB AND PUSH1 0x0 DUP1 MLOAD PUSH1 0x20 PUSH2 0x247D DUP4 CODECOPY DUP2 MLOAD SWAP2 MSTORE DUP3 DUP1 LOG3 DUP1 RETURN JUMPDEST POP CALLVALUE PUSH2 0x1F8 JUMPI DUP1 PUSH1 0x3 NOT CALLDATASIZE ADD SLT PUSH2 0x1F8 JUMPI PUSH1 0x20 PUSH1 0x7 SLOAD PUSH1 0x40 MLOAD SWAP1 DUP2 MSTORE RETURN JUMPDEST POP CALLVALUE PUSH2 0x1F8 JUMPI PUSH1 0x20 CALLDATASIZE PUSH1 0x3 NOT ADD SLT PUSH2 0x1F8 JUMPI PUSH1 0x20 SWAP1 PUSH1 0xFF SWAP1 PUSH1 0x40 SWAP1 PUSH1 0x1 PUSH1 0x1 PUSH1 0xA0 SHL SUB PUSH2 0x113E PUSH2 0x17AF JUMP JUMPDEST AND DUP2 MSTORE PUSH1 0x2 DUP5 MSTORE KECCAK256 SLOAD AND PUSH1 0x40 MLOAD SWAP1 ISZERO ISZERO DUP2 MSTORE RETURN JUMPDEST POP PUSH2 0x115C CALLDATASIZE PUSH2 0x172F JUMP JUMPDEST SWAP2 PUSH2 0x1165 PUSH2 0x19E9 JUMP JUMPDEST PUSH1 0x1 PUSH1 0x1 PUSH1 0xA0 SHL SUB SWAP1 DUP2 PUSH2 0x1178 DUP3 PUSH2 0x181D JUMP JUMPDEST AND ISZERO PUSH2 0x9D2 JUMPI PUSH1 0x40 DUP2 ADD SWAP4 PUSH1 0xFF PUSH2 0x118E DUP7 PUSH2 0x1831 JUMP JUMPDEST AND ISZERO DUP1 ISZERO PUSH2 0x13EF JUMPI JUMPDEST PUSH2 0x9E4 JUMPI PUSH1 0x60 DUP3 ADD CALLDATALOAD SWAP4 TIMESTAMP DUP6 GT PUSH2 0x9D2 JUMPI DUP4 PUSH2 0x11B2 DUP5 PUSH2 0x181D JUMP JUMPDEST AND DUP8 MSTORE PUSH1 0x20 PUSH1 0x5 DUP2 MSTORE PUSH1 0x40 DUP9 KECCAK256 SLOAD TIMESTAMP SUB TIMESTAMP DUP2 GT PUSH2 0x13DB JUMPI PUSH1 0x9 SLOAD GT PUSH2 0x13C9 JUMPI PUSH2 0x11EF PUSH2 0x11DD DUP6 PUSH2 0x181D JUMP JUMPDEST SWAP7 DUP3 DUP7 ADD SWAP8 PUSH2 0xC5B PUSH2 0x64F DUP11 DUP10 PUSH2 0x183F JUMP JUMPDEST SWAP3 DUP4 DUP10 MSTORE PUSH1 0x3 DUP3 MSTORE PUSH1 0xFF PUSH1 0x40 DUP11 KECCAK256 SLOAD AND PUSH2 0x13B7 JUMPI PUSH1 0x5 SWAP3 PUSH2 0x122C SWAP2 PUSH2 0x1214 DUP7 DUP9 PUSH2 0x1B2A JUMP JUMPDEST PUSH2 0x121D DUP11 PUSH2 0x1831 JUMP JUMPDEST PUSH1 0xFF PUSH1 0x7 SLOAD SWAP2 AND LT ISZERO SWAP2 PUSH2 0x1D49 JUMP JUMPDEST SWAP3 DUP9 MSTORE PUSH1 0x3 DUP2 MSTORE PUSH1 0x40 DUP9 KECCAK256 DUP1 SLOAD PUSH1 0xFF NOT AND PUSH1 0x1 OR SWAP1 SSTORE DUP5 PUSH2 0x124C DUP6 PUSH2 0x181D JUMP JUMPDEST AND DUP9 MSTORE PUSH1 0x4 DUP2 MSTORE PUSH1 0x40 DUP9 KECCAK256 PUSH2 0x1261 DUP2 SLOAD PUSH2 0x1945 JUMP JUMPDEST SWAP1 SSTORE DUP5 PUSH2 0x126D DUP6 PUSH2 0x181D JUMP JUMPDEST AND DUP9 MSTORE MSTORE TIMESTAMP PUSH1 0x40 DUP8 KECCAK256 SSTORE PUSH2 0x1282 PUSH1 0xF SLOAD PUSH2 0x1945 JUMP JUMPDEST PUSH1 0xF SSTORE PUSH2 0x128E DUP6 PUSH2 0x1831 JUMP JUMPDEST PUSH1 0xFF PUSH1 0x7 SLOAD SWAP2 AND LT ISZERO SWAP1 PUSH2 0x12AF PUSH1 0xB SLOAD DUP4 PUSH1 0x0 EQ PUSH2 0x13B0 JUMPI PUSH1 0xC SLOAD SWAP1 PUSH2 0x196A JUMP JUMPDEST SWAP5 DUP8 DUP6 PUSH32 0x0 AND PUSH2 0x12DD DUP7 PUSH2 0x181D JUMP JUMPDEST SWAP1 DUP1 EXTCODESIZE ISZERO PUSH2 0xDB1 JUMPI DUP6 DUP4 SWAP2 PUSH2 0x1309 SWAP4 DUP4 PUSH1 0x40 MLOAD DUP1 SWAP7 DUP2 SWAP6 DUP3 SWAP5 PUSH4 0x3CE52245 PUSH1 0xE2 SHL DUP5 MSTORE PUSH1 0x4 DUP5 ADD PUSH2 0x1977 JUMP JUMPDEST SUB SWAP3 GAS CALL DUP1 ISZERO PUSH2 0x7FA JUMPI PUSH2 0x1396 JUMPI JUMPDEST POP POP SWAP1 PUSH1 0x0 DUP1 MLOAD PUSH1 0x20 PUSH2 0x245D DUP4 CODECOPY DUP2 MLOAD SWAP2 MSTORE SWAP6 PUSH2 0x137D PUSH2 0x1375 PUSH2 0x138C SWAP6 SWAP5 PUSH2 0x1348 DUP6 PUSH2 0x1343 DUP11 PUSH2 0x181D JUMP JUMPDEST PUSH2 0x234A JUMP JUMPDEST PUSH2 0x1354 DUP5 PUSH1 0x10 SLOAD PUSH2 0x196A JUMP JUMPDEST PUSH1 0x10 SSTORE PUSH2 0x1363 DUP6 PUSH1 0x11 SLOAD PUSH2 0x196A JUMP JUMPDEST PUSH1 0x11 SSTORE PUSH2 0x136F DUP9 PUSH2 0x181D JUMP JUMPDEST SWAP8 PUSH2 0x183F JUMP JUMPDEST SWAP2 SWAP1 SWAP10 PUSH2 0x1831 JUMP JUMPDEST SWAP1 PUSH1 0x40 MLOAD SWAP8 DUP9 SWAP8 AND SWAP10 DUP8 PUSH2 0x19B3 JUMP JUMPDEST SUB SWAP1 LOG2 PUSH1 0x1 DUP1 SSTORE DUP1 RETURN JUMPDEST PUSH2 0x13A3 SWAP1 SWAP5 SWAP4 SWAP3 SWAP5 PUSH2 0x1871 JUMP JUMPDEST PUSH2 0x83F JUMPI SWAP1 SWAP2 DUP8 CODESIZE PUSH2 0x1318 JUMP JUMPDEST DUP9 SWAP1 PUSH2 0x196A JUMP JUMPDEST PUSH1 0x40 MLOAD PUSH4 0x4F7AE511 PUSH1 0xE0 SHL DUP2 MSTORE PUSH1 0x4 SWAP1 REVERT JUMPDEST PUSH1 0x40 MLOAD PUSH4 0xA74C1C5F PUSH1 0xE0 SHL DUP2 MSTORE PUSH1 0x4 SWAP1 REVERT JUMPDEST PUSH4 0x4E487B71 PUSH1 0xE0 SHL DUP10 MSTORE PUSH1 0x11 PUSH1 0x4 MSTORE PUSH1 0x24 DUP10 REVERT JUMPDEST POP PUSH1 0xA PUSH1 0xFF PUSH2 0x13FD DUP8 PUSH2 0x1831 JUMP JUMPDEST AND GT PUSH2 0x1197 JUMP JUMPDEST POP CALLVALUE PUSH2 0x1F8 JUMPI PUSH1 0x20 CALLDATASIZE PUSH1 0x3 NOT ADD SLT PUSH2 0x1F8 JUMPI PUSH1 0x20 SWAP1 PUSH1 0x40 SWAP1 PUSH1 0x1 PUSH1 0x1 PUSH1 0xA0 SHL SUB PUSH2 0x142C PUSH2 0x17AF JUMP JUMPDEST AND DUP2 MSTORE PUSH1 0x4 DUP4 MSTORE KECCAK256 SLOAD PUSH1 0x40 MLOAD SWAP1 DUP2 MSTORE RETURN JUMPDEST POP CALLVALUE PUSH2 0x1F8 JUMPI DUP1 PUSH1 0x3 NOT CALLDATASIZE ADD SLT PUSH2 0x1F8 JUMPI SELFBALANCE PUSH1 0x11 SLOAD PUSH2 0x48F PUSH1 0x40 MLOAD SWAP3 DUP4 SWAP3 DUP2 DUP5 PUSH2 0x1799 JUMP JUMPDEST POP CALLVALUE PUSH2 0x1F8 JUMPI PUSH1 0x20 CALLDATASIZE PUSH1 0x3 NOT ADD SLT PUSH2 0x1F8 JUMPI PUSH1 0x4 CALLDATALOAD PUSH2 0x147F PUSH2 0x17F1 JUMP JUMPDEST DUP1 ISZERO DUP1 ISZERO PUSH2 0x14C6 JUMPI JUMPDEST PUSH2 0x9E4 JUMPI PUSH1 0x40 PUSH32 0xEB9922E3ED7835455C0B321D214F497E036D91A33D2E9883F5224484432A07CA SWAP2 PUSH1 0x7 SLOAD SWAP1 DUP1 PUSH1 0x7 SSTORE DUP3 MLOAD SWAP2 DUP3 MSTORE PUSH1 0x20 DUP3 ADD MSTORE LOG1 DUP1 RETURN JUMPDEST POP PUSH1 0xA DUP2 GT PUSH2 0x1488 JUMP JUMPDEST POP PUSH2 0x14DA CALLDATASIZE PUSH2 0x172F JUMP JUMPDEST SWAP1 SWAP3 SWAP2 PUSH2 0x14E5 PUSH2 0x19E9 JUMP JUMPDEST PUSH1 0x1 PUSH1 0x1 PUSH1 0xA0 SHL SUB SWAP1 DUP2 PUSH2 0x14F8 DUP3 PUSH2 0x181D JUMP JUMPDEST AND CALLER SUB PUSH2 0x9D2 JUMPI PUSH2 0x1508 DUP2 PUSH2 0x181D JUMP JUMPDEST SWAP5 PUSH2 0x152D PUSH2 0xC5B PUSH1 0x20 DUP5 ADD SWAP8 PUSH2 0x151E DUP10 DUP7 PUSH2 0x183F JUMP JUMPDEST SWAP3 SWAP1 PUSH1 0x60 DUP8 ADD CALLDATALOAD SWAP4 CALLDATASIZE SWAP2 PUSH2 0x190E JUMP JUMPDEST SWAP1 DUP2 DUP7 MSTORE PUSH1 0x3 PUSH1 0x20 MSTORE PUSH1 0xFF PUSH1 0x40 DUP8 KECCAK256 SLOAD AND PUSH2 0x13B7 JUMPI PUSH2 0x155E SWAP1 PUSH2 0x1550 DUP4 DUP6 PUSH2 0x1B2A JUMP JUMPDEST PUSH1 0x40 DUP5 ADD SWAP6 PUSH2 0x121D DUP8 PUSH2 0x1831 JUMP JUMPDEST SWAP1 DUP6 MSTORE PUSH1 0x3 PUSH1 0x20 MSTORE PUSH1 0x40 DUP6 KECCAK256 DUP1 SLOAD PUSH1 0xFF NOT AND PUSH1 0x1 OR SWAP1 SSTORE DUP3 PUSH2 0x157F DUP4 PUSH2 0x181D JUMP JUMPDEST AND DUP6 MSTORE PUSH1 0x4 PUSH1 0x20 MSTORE PUSH1 0x40 DUP6 KECCAK256 PUSH2 0x1595 DUP2 SLOAD PUSH2 0x1945 JUMP JUMPDEST SWAP1 SSTORE DUP3 PUSH2 0x15A1 DUP4 PUSH2 0x181D JUMP JUMPDEST AND DUP6 MSTORE PUSH1 0x5 PUSH1 0x20 MSTORE TIMESTAMP PUSH1 0x40 DUP7 KECCAK256 SSTORE PUSH2 0x15B8 DUP5 PUSH2 0x1831 JUMP JUMPDEST PUSH1 0xFF PUSH1 0x7 SLOAD SWAP2 AND LT ISZERO SWAP1 DUP4 PUSH32 0x0 AND PUSH2 0x15EE DUP5 PUSH2 0x181D JUMP JUMPDEST DUP2 EXTCODESIZE ISZERO PUSH2 0x83F JUMPI DUP4 PUSH2 0x1619 SWAP3 DUP10 SWAP3 DUP4 PUSH1 0x40 MLOAD DUP1 SWAP7 DUP2 SWAP6 DUP3 SWAP5 PUSH4 0x3CE52245 PUSH1 0xE2 SHL DUP5 MSTORE PUSH1 0x4 DUP5 ADD PUSH2 0x1977 JUMP JUMPDEST SUB SWAP3 GAS CALL DUP1 ISZERO PUSH2 0x16B5 JUMPI PUSH2 0x168C JUMPI JUMPDEST POP SWAP1 DUP2 PUSH1 0x0 DUP1 MLOAD PUSH1 0x20 PUSH2 0x245D DUP4 CODECOPY DUP2 MLOAD SWAP2 MSTORE SWAP6 SWAP7 SWAP8 PUSH2 0x164D PUSH2 0x138C SWAP5 PUSH2 0x1343 DUP8 PUSH2 0x181D JUMP JUMPDEST PUSH2 0x137D PUSH2 0x1375 PUSH2 0x166A PUSH1 0xB SLOAD DUP7 PUSH1 0x0 EQ PUSH2 0x1685 JUMPI PUSH1 0xC SLOAD SWAP1 PUSH2 0x196A JUMP JUMPDEST SWAP3 PUSH2 0x1676 PUSH1 0xF SLOAD PUSH2 0x1945 JUMP JUMPDEST PUSH1 0xF SSTORE PUSH2 0x1354 DUP5 PUSH1 0x10 SLOAD PUSH2 0x196A JUMP JUMPDEST DUP13 SWAP1 PUSH2 0x196A JUMP JUMPDEST SWAP1 PUSH1 0x0 DUP1 MLOAD PUSH1 0x20 PUSH2 0x245D DUP4 CODECOPY DUP2 MLOAD SWAP2 MSTORE SWAP6 SWAP7 PUSH2 0x16AB PUSH2 0x138C SWAP5 SWAP4 PUSH2 0x1871 JUMP JUMPDEST SWAP7 SWAP6 POP SWAP1 SWAP2 PUSH2 0x1628 JUMP JUMPDEST PUSH1 0x40 MLOAD RETURNDATASIZE DUP10 DUP3 RETURNDATACOPY RETURNDATASIZE SWAP1 REVERT JUMPDEST POP CALLVALUE PUSH2 0x1F8 JUMPI PUSH1 0x20 CALLDATASIZE PUSH1 0x3 NOT ADD SLT PUSH2 0x1F8 JUMPI PUSH1 0x4 CALLDATALOAD DUP1 ISZERO ISZERO DUP1 SWAP2 SUB PUSH2 0xF4F JUMPI PUSH1 0x40 PUSH32 0x1378E60FC17F5A50BD556E4AB5D8A2C49C158253AAAE22B808774BF3B370A72 SWAP2 PUSH2 0x170B PUSH2 0x17F1 JUMP JUMPDEST PUSH1 0xFF PUSH1 0x8 SLOAD SWAP2 AND PUSH1 0xFF NOT DUP3 AND OR PUSH1 0x8 SSTORE PUSH1 0xFF DUP3 MLOAD SWAP2 AND ISZERO ISZERO DUP2 MSTORE CALLER PUSH1 0x20 DUP3 ADD MSTORE LOG1 DUP1 RETURN JUMPDEST SWAP1 PUSH1 0x3 NOT SWAP1 PUSH1 0x40 DUP3 DUP5 ADD SLT PUSH2 0xA40 JUMPI PUSH1 0x1 PUSH1 0x1 PUSH1 0x40 SHL SUB SWAP2 PUSH1 0x4 CALLDATALOAD SWAP1 DUP4 DUP3 GT PUSH2 0xA40 JUMPI PUSH1 0xA0 SWAP1 DUP3 DUP7 SUB ADD SLT PUSH2 0xA40 JUMPI PUSH1 0x4 ADD SWAP3 PUSH1 0x24 CALLDATALOAD SWAP1 DUP4 DUP3 GT PUSH2 0xA40 JUMPI DUP1 PUSH1 0x23 DUP4 ADD SLT ISZERO PUSH2 0xA40 JUMPI DUP2 PUSH1 0x4 ADD CALLDATALOAD SWAP4 DUP5 GT PUSH2 0xA40 JUMPI PUSH1 0x24 DUP5 PUSH1 0x5 SHL DUP4 ADD ADD GT PUSH2 0xA40 JUMPI PUSH1 0x24 ADD SWAP2 SWAP1 JUMP JUMPDEST PUSH1 0x40 SWAP2 SWAP5 SWAP4 SWAP3 PUSH1 0x60 DUP3 ADD SWAP6 DUP3 MSTORE PUSH1 0x20 DUP3 ADD MSTORE ADD MSTORE JUMP JUMPDEST PUSH1 0x4 CALLDATALOAD SWAP1 PUSH1 0x1 PUSH1 0x1 PUSH1 0xA0 SHL SUB DUP3 AND DUP3 SUB PUSH2 0xA40 JUMPI JUMP JUMPDEST SWAP5 SWAP2 SWAP3 PUSH1 0xA0 SWAP5 SWAP2 SWAP8 SWAP7 SWAP4 PUSH1 0xC0 DUP8 ADD SWAP9 DUP8 MSTORE PUSH1 0x20 DUP8 ADD MSTORE PUSH1 0x40 DUP7 ADD MSTORE PUSH1 0x60 DUP6 ADD MSTORE PUSH1 0x80 DUP5 ADD MSTORE ISZERO ISZERO SWAP2 ADD MSTORE JUMP JUMPDEST PUSH1 0x0 SLOAD PUSH1 0x1 PUSH1 0x1 PUSH1 0xA0 SHL SUB AND CALLER SUB PUSH2 0x1805 JUMPI JUMP JUMPDEST PUSH1 0x40 MLOAD PUSH4 0x118CDAA7 PUSH1 0xE0 SHL DUP2 MSTORE CALLER PUSH1 0x4 DUP3 ADD MSTORE PUSH1 0x24 SWAP1 REVERT JUMPDEST CALLDATALOAD PUSH1 0x1 PUSH1 0x1 PUSH1 0xA0 SHL SUB DUP2 AND DUP2 SUB PUSH2 0xA40 JUMPI SWAP1 JUMP JUMPDEST CALLDATALOAD PUSH1 0xFF DUP2 AND DUP2 SUB PUSH2 0xA40 JUMPI SWAP1 JUMP JUMPDEST SWAP1 CALLDATALOAD SWAP1 PUSH1 0x1E NOT DUP2 CALLDATASIZE SUB ADD DUP3 SLT ISZERO PUSH2 0xA40 JUMPI ADD DUP1 CALLDATALOAD SWAP1 PUSH1 0x1 PUSH1 0x1 PUSH1 0x40 SHL SUB DUP3 GT PUSH2 0xA40 JUMPI PUSH1 0x20 ADD SWAP2 DUP2 CALLDATASIZE SUB DUP4 SGT PUSH2 0xA40 JUMPI JUMP JUMPDEST PUSH1 0x1 PUSH1 0x1 PUSH1 0x40 SHL SUB DUP2 GT PUSH2 0x1884 JUMPI PUSH1 0x40 MSTORE JUMP JUMPDEST PUSH4 0x4E487B71 PUSH1 0xE0 SHL PUSH1 0x0 MSTORE PUSH1 0x41 PUSH1 0x4 MSTORE PUSH1 0x24 PUSH1 0x0 REVERT JUMPDEST PUSH1 0xC0 DUP2 ADD SWAP1 DUP2 LT PUSH1 0x1 PUSH1 0x1 PUSH1 0x40 SHL SUB DUP3 GT OR PUSH2 0x1884 JUMPI PUSH1 0x40 MSTORE JUMP JUMPDEST PUSH1 0x80 DUP2 ADD SWAP1 DUP2 LT PUSH1 0x1 PUSH1 0x1 PUSH1 0x40 SHL SUB DUP3 GT OR PUSH2 0x1884 JUMPI PUSH1 0x40 MSTORE JUMP JUMPDEST PUSH1 0x1F SWAP1 SWAP2 ADD PUSH1 0x1F NOT AND DUP2 ADD SWAP1 PUSH1 0x1 PUSH1 0x1 PUSH1 0x40 SHL SUB DUP3 GT SWAP1 DUP3 LT OR PUSH2 0x1884 JUMPI PUSH1 0x40 MSTORE JUMP JUMPDEST PUSH1 0x1 PUSH1 0x1 PUSH1 0x40 SHL SUB DUP2 GT PUSH2 0x1884 JUMPI PUSH1 0x1F ADD PUSH1 0x1F NOT AND PUSH1 0x20 ADD SWAP1 JUMP JUMPDEST SWAP3 SWAP2 SWAP3 PUSH2 0x191A DUP3 PUSH2 0x18F3 JUMP JUMPDEST SWAP2 PUSH2 0x1928 PUSH1 0x40 MLOAD SWAP4 DUP5 PUSH2 0x18D0 JUMP JUMPDEST DUP3 SWAP5 DUP2 DUP5 MSTORE DUP2 DUP4 ADD GT PUSH2 0xA40 JUMPI DUP3 DUP2 PUSH1 0x20 SWAP4 DUP5 PUSH1 0x0 SWAP7 ADD CALLDATACOPY ADD ADD MSTORE JUMP JUMPDEST PUSH1 0x0 NOT DUP2 EQ PUSH2 0x1954 JUMPI PUSH1 0x1 ADD SWAP1 JUMP JUMPDEST PUSH4 0x4E487B71 PUSH1 0xE0 SHL PUSH1 0x0 MSTORE PUSH1 0x11 PUSH1 0x4 MSTORE PUSH1 0x24 PUSH1 0x0 REVERT JUMPDEST SWAP2 SWAP1 DUP3 ADD DUP1 SWAP3 GT PUSH2 0x1954 JUMPI JUMP JUMPDEST PUSH1 0x1 PUSH1 0x1 PUSH1 0xA0 SHL SUB SWAP1 SWAP2 AND DUP2 MSTORE SWAP1 ISZERO ISZERO PUSH1 0x20 DUP3 ADD MSTORE PUSH1 0x40 ADD SWAP1 JUMP JUMPDEST SWAP1 DUP1 PUSH1 0x20 SWAP4 SWAP3 DUP2 DUP5 MSTORE DUP5 DUP5 ADD CALLDATACOPY PUSH1 0x0 DUP3 DUP3 ADD DUP5 ADD MSTORE PUSH1 0x1F ADD PUSH1 0x1F NOT AND ADD ADD SWAP1 JUMP JUMPDEST SWAP5 SWAP2 PUSH2 0x19D1 PUSH1 0x80 SWAP6 SWAP3 PUSH1 0xFF SWAP3 SWAP10 SWAP9 SWAP6 SWAP10 PUSH1 0xA0 DUP10 MSTORE PUSH1 0xA0 DUP10 ADD SWAP2 PUSH2 0x1992 JUMP JUMPDEST SWAP8 AND PUSH1 0x20 DUP7 ADD MSTORE PUSH1 0x40 DUP6 ADD MSTORE PUSH1 0x60 DUP5 ADD MSTORE ISZERO ISZERO SWAP2 ADD MSTORE JUMP JUMPDEST PUSH1 0x2 PUSH1 0x1 SLOAD EQ PUSH2 0x19FA JUMPI PUSH1 0x2 PUSH1 0x1 SSTORE JUMP JUMPDEST PUSH1 0x40 MLOAD PUSH4 0x3EE5AEB5 PUSH1 0xE0 SHL DUP2 MSTORE PUSH1 0x4 SWAP1 REVERT JUMPDEST SWAP1 CALLDATALOAD SWAP1 PUSH1 0x1E NOT DUP2 CALLDATASIZE SUB ADD DUP3 SLT ISZERO PUSH2 0xA40 JUMPI ADD DUP1 CALLDATALOAD SWAP1 PUSH1 0x1 PUSH1 0x1 PUSH1 0x40 SHL SUB DUP3 GT PUSH2 0xA40 JUMPI PUSH1 0x20 ADD SWAP2 DUP2 PUSH1 0x5 SHL CALLDATASIZE SUB DUP4 SGT PUSH2 0xA40 JUMPI JUMP JUMPDEST PUSH1 0x1 PUSH1 0x1 PUSH1 0x40 SHL SUB DUP2 GT PUSH2 0x1884 JUMPI PUSH1 0x5 SHL PUSH1 0x20 ADD SWAP1 JUMP JUMPDEST SWAP2 SWAP1 DUP2 LT ISZERO PUSH2 0x1A68 JUMPI PUSH1 0x5 SHL ADD SWAP1 JUMP JUMPDEST PUSH4 0x4E487B71 PUSH1 0xE0 SHL PUSH1 0x0 MSTORE PUSH1 0x32 PUSH1 0x4 MSTORE PUSH1 0x24 PUSH1 0x0 REVERT JUMPDEST DUP1 MLOAD DUP3 LT ISZERO PUSH2 0x1A68 JUMPI PUSH1 0x20 SWAP2 PUSH1 0x5 SHL ADD ADD SWAP1 JUMP JUMPDEST SWAP2 PUSH1 0x40 MLOAD DUP1 SWAP3 PUSH1 0x20 DUP1 DUP4 ADD SWAP6 PUSH1 0x1 DUP1 PUSH1 0x60 SHL SUB NOT SWAP1 PUSH1 0x60 SHL AND DUP7 MSTORE DUP2 MLOAD SWAP2 PUSH1 0x0 JUMPDEST DUP4 DUP2 LT PUSH2 0x1AE1 JUMPI POP POP POP SWAP1 PUSH2 0x1ADB SWAP3 PUSH1 0x54 SWAP3 DUP3 ADD SWAP1 PUSH1 0x34 DUP3 ADD MSTORE SUB PUSH1 0x34 DUP2 ADD DUP5 MSTORE ADD DUP3 PUSH2 0x18D0 JUMP JUMPDEST MLOAD SWAP1 KECCAK256 SWAP1 JUMP JUMPDEST DUP2 DUP2 ADD DUP4 ADD MLOAD DUP8 DUP3 ADD PUSH1 0x34 ADD MSTORE DUP7 SWAP5 POP DUP3 ADD PUSH2 0x1AB3 JUMP JUMPDEST SWAP1 CALLDATALOAD PUSH1 0x1E NOT DUP3 CALLDATASIZE SUB ADD DUP2 SLT ISZERO PUSH2 0xA40 JUMPI ADD PUSH1 0x20 DUP2 ADD SWAP2 SWAP1 CALLDATALOAD SWAP1 PUSH1 0x1 PUSH1 0x1 PUSH1 0x40 SHL SUB DUP3 GT PUSH2 0xA40 JUMPI DUP2 CALLDATASIZE SUB DUP4 SGT PUSH2 0xA40 JUMPI JUMP JUMPDEST SWAP1 PUSH1 0xFF PUSH1 0x8 SLOAD AND PUSH2 0x1BBC JUMPI PUSH2 0x1B88 SWAP2 PUSH2 0x1B7F SWAP2 PUSH28 0xCA2BA3432B932BAB69029B4B3B732B21026B2B9B9B0B3B29D051999 PUSH1 0x21 SHL PUSH1 0x0 MSTORE PUSH1 0x1C MSTORE PUSH2 0x1B79 PUSH2 0x64F PUSH1 0x3C PUSH1 0x0 KECCAK256 SWAP3 PUSH1 0x80 DUP2 ADD SWAP1 PUSH2 0x183F JUMP JUMPDEST SWAP1 PUSH2 0x1BC0 JUMP JUMPDEST SWAP1 SWAP3 SWAP2 SWAP3 PUSH2 0x1C82 JUMP JUMPDEST PUSH1 0x1 PUSH1 0x1 PUSH1 0xA0 SHL SUB AND PUSH1 0x0 SWAP1 DUP2 MSTORE PUSH1 0x2 PUSH1 0x20 MSTORE PUSH1 0x40 SWAP1 KECCAK256 SLOAD PUSH1 0xFF AND ISZERO PUSH2 0x1BAA JUMPI JUMP JUMPDEST PUSH1 0x40 MLOAD PUSH4 0x6518C33D PUSH1 0xE1 SHL DUP2 MSTORE PUSH1 0x4 SWAP1 REVERT JUMPDEST POP POP JUMP JUMPDEST DUP2 MLOAD SWAP2 SWAP1 PUSH1 0x41 DUP4 SUB PUSH2 0x1BF1 JUMPI PUSH2 0x1BEA SWAP3 POP PUSH1 0x20 DUP3 ADD MLOAD SWAP1 PUSH1 0x60 PUSH1 0x40 DUP5 ADD MLOAD SWAP4 ADD MLOAD PUSH1 0x0 BYTE SWAP1 PUSH2 0x1BFC JUMP JUMPDEST SWAP2 SWAP3 SWAP1 SWAP2 SWAP1 JUMP JUMPDEST POP POP PUSH1 0x0 SWAP2 PUSH1 0x2 SWAP2 SWAP1 JUMP JUMPDEST SWAP2 SWAP1 PUSH16 0xA2A8918CA85BAFE22016D0B997E4DF60 PUSH1 0x1 PUSH1 0xFF SHL SUB DUP5 GT PUSH2 0x1C76 JUMPI SWAP3 PUSH1 0x20 SWAP3 SWAP2 PUSH1 0xFF PUSH1 0x80 SWAP6 PUSH1 0x40 MLOAD SWAP5 DUP6 MSTORE AND DUP5 DUP5 ADD MSTORE PUSH1 0x40 DUP4 ADD MSTORE PUSH1 0x60 DUP3 ADD MSTORE PUSH1 0x0 SWAP3 DUP4 SWAP2 DUP3 DUP1 MSTORE PUSH1 0x1 GAS STATICCALL ISZERO PUSH2 0x1C6A JUMPI DUP1 MLOAD PUSH1 0x1 PUSH1 0x1 PUSH1 0xA0 SHL SUB DUP2 AND ISZERO PUSH2 0x1C61 JUMPI SWAP2 DUP2 SWAP1 JUMP JUMPDEST POP DUP1 SWAP2 PUSH1 0x1 SWAP2 SWAP1 JUMP JUMPDEST PUSH1 0x40 MLOAD SWAP1 RETURNDATASIZE SWAP1 DUP3 RETURNDATACOPY RETURNDATASIZE SWAP1 REVERT JUMPDEST POP POP POP PUSH1 0x0 SWAP2 PUSH1 0x3 SWAP2 SWAP1 JUMP JUMPDEST PUSH1 0x4 DUP2 LT ISZERO PUSH2 0x1CF1 JUMPI DUP1 PUSH2 0x1C94 JUMPI POP POP JUMP JUMPDEST PUSH1 0x1 DUP2 SUB PUSH2 0x1CAE JUMPI PUSH1 0x40 MLOAD PUSH4 0xF645EEDF PUSH1 0xE0 SHL DUP2 MSTORE PUSH1 0x4 SWAP1 REVERT JUMPDEST PUSH1 0x2 DUP2 SUB PUSH2 0x1CCF JUMPI PUSH1 0x40 MLOAD PUSH4 0xFCE698F7 PUSH1 0xE0 SHL DUP2 MSTORE PUSH1 0x4 DUP2 ADD DUP4 SWAP1 MSTORE PUSH1 0x24 SWAP1 REVERT JUMPDEST PUSH1 0x3 EQ PUSH2 0x1CD9 JUMPI POP JUMP JUMPDEST PUSH1 0x24 SWAP1 PUSH1 0x40 MLOAD SWAP1 PUSH4 0x35E2F383 PUSH1 0xE2 SHL DUP3 MSTORE PUSH1 0x4 DUP3 ADD MSTORE REVERT JUMPDEST PUSH4 0x4E487B71 PUSH1 0xE0 SHL PUSH1 0x0 MSTORE PUSH1 0x21 PUSH1 0x4 MSTORE PUSH1 0x24 PUSH1 0x0 REVERT JUMPDEST PUSH1 0xFF PUSH1 0x8 SLOAD AND PUSH2 0x1BBC JUMPI PUSH2 0x1B88 SWAP2 PUSH2 0x1B7F SWAP2 PUSH28 0xCA2BA3432B932BAB69029B4B3B732B21026B2B9B9B0B3B29D051999 PUSH1 0x21 SHL PUSH1 0x0 MSTORE PUSH1 0x1C MSTORE PUSH1 0x3C PUSH1 0x0 KECCAK256 PUSH2 0x1BC0 JUMP JUMPDEST PUSH2 0x1D5A PUSH2 0x1D77 SWAP4 SWAP3 PUSH2 0x1D71 SWAP3 PUSH2 0x1E64 JUMP JUMPDEST PUSH1 0xB SLOAD SWAP1 SWAP3 PUSH1 0x0 SWAP1 ISZERO PUSH2 0x9BC JUMPI POP PUSH1 0xC SLOAD SWAP1 PUSH2 0x196A JUMP JUMPDEST SWAP1 PUSH2 0x21F6 JUMP JUMPDEST SWAP1 JUMP JUMPDEST PUSH1 0x40 MLOAD SWAP1 PUSH2 0x1D87 DUP3 PUSH2 0x18B5 JUMP JUMPDEST PUSH1 0x0 PUSH1 0x60 DUP4 DUP3 DUP2 MSTORE DUP3 PUSH1 0x20 DUP3 ADD MSTORE DUP3 PUSH1 0x40 DUP3 ADD MSTORE ADD MSTORE JUMP JUMPDEST SWAP2 PUSH1 0x20 DUP2 DUP2 DUP6 ADD DUP3 DUP7 MSTORE MSTORE PUSH1 0x40 DUP5 ADD SWAP4 PUSH1 0x40 DUP4 PUSH1 0x5 SHL DUP3 ADD ADD SWAP5 DUP5 PUSH1 0x0 SWAP3 JUMPDEST DUP6 DUP5 LT PUSH2 0x1DCF JUMPI POP POP POP POP POP POP POP SWAP1 JUMP JUMPDEST SWAP1 SWAP2 SWAP3 SWAP4 SWAP5 SWAP6 SWAP7 DUP6 DUP1 PUSH2 0x1DF1 PUSH1 0x1 SWAP4 PUSH1 0x3F NOT DUP7 DUP3 SUB ADD DUP9 MSTORE PUSH2 0xA66 DUP13 DUP9 PUSH2 0x1AF8 JUMP JUMPDEST SWAP10 ADD SWAP5 ADD SWAP5 ADD SWAP3 SWAP6 SWAP5 SWAP4 SWAP2 SWAP1 PUSH2 0x1DBE JUMP JUMPDEST SWAP1 DUP2 PUSH1 0x80 SWAP2 SUB SLT PUSH2 0xA40 JUMPI PUSH1 0x40 MLOAD SWAP1 PUSH2 0x1E1A DUP3 PUSH2 0x18B5 JUMP JUMPDEST DUP1 MLOAD DUP1 PUSH1 0x7 SIGNEXTEND DUP2 SUB PUSH2 0xA40 JUMPI DUP3 MSTORE PUSH1 0x20 DUP2 ADD MLOAD PUSH1 0x1 PUSH1 0x1 PUSH1 0x40 SHL SUB DUP2 AND DUP2 SUB PUSH2 0xA40 JUMPI PUSH1 0x20 DUP4 ADD MSTORE PUSH1 0x40 DUP2 ADD MLOAD SWAP1 DUP2 PUSH1 0x3 SIGNEXTEND DUP3 SUB PUSH2 0xA40 JUMPI PUSH1 0x60 SWAP2 PUSH1 0x40 DUP5 ADD MSTORE ADD MLOAD PUSH1 0x60 DUP3 ADD MSTORE SWAP1 JUMP JUMPDEST PUSH2 0x1E6C PUSH2 0x1D7A JUMP JUMPDEST POP PUSH1 0x1F CHAINID EQ PUSH2 0x1FDD JUMPI PUSH1 0x40 DUP1 MLOAD PUSH4 0xD47EED45 PUSH1 0xE0 SHL DUP2 MSTORE SWAP1 SWAP3 PUSH32 0x0 PUSH1 0x1 PUSH1 0x1 PUSH1 0xA0 SHL SUB AND SWAP3 PUSH1 0x20 DUP4 DUP1 PUSH2 0x1EC2 DUP6 DUP6 PUSH1 0x4 DUP5 ADD PUSH2 0x1D9F JUMP JUMPDEST SUB DUP2 DUP8 GAS STATICCALL SWAP1 DUP2 ISZERO PUSH2 0x1FD2 JUMPI PUSH1 0x0 SWAP4 DUP5 SWAP3 PUSH2 0x1F9F JUMPI JUMPDEST POP DUP2 CALLVALUE LT PUSH2 0x1F8E JUMPI DUP5 EXTCODESIZE ISZERO PUSH2 0x7F6 JUMPI SWAP2 DUP4 SWAP2 PUSH2 0x1F09 SWAP4 DUP8 MLOAD DUP1 SWAP6 DUP2 SWAP5 DUP3 SWAP4 PUSH4 0x1DF3CBC5 PUSH1 0xE3 SHL DUP5 MSTORE PUSH1 0x4 DUP5 ADD PUSH2 0x1D9F JUMP JUMPDEST SUB SWAP2 DUP8 GAS CALL DUP1 ISZERO PUSH2 0x1F84 JUMPI PUSH2 0x1F75 JUMPI JUMPDEST POP PUSH1 0x80 PUSH1 0xD SLOAD PUSH1 0x44 PUSH1 0xA SLOAD SWAP2 DUP7 MLOAD SWAP6 DUP7 SWAP4 DUP5 SWAP3 PUSH4 0x52571AF PUSH1 0xE5 SHL DUP5 MSTORE PUSH1 0x4 DUP5 ADD MSTORE PUSH1 0x24 DUP4 ADD MSTORE GAS STATICCALL SWAP3 DUP4 ISZERO PUSH2 0x1F6B JUMPI POP SWAP2 PUSH2 0x1F53 JUMPI POP SWAP1 JUMP JUMPDEST PUSH2 0x1D77 SWAP2 POP PUSH1 0x80 RETURNDATASIZE DUP2 GT PUSH2 0x101E JUMPI PUSH2 0x1010 DUP2 DUP4 PUSH2 0x18D0 JUMP JUMPDEST MLOAD SWAP1 RETURNDATASIZE SWAP1 DUP3 RETURNDATACOPY RETURNDATASIZE SWAP1 REVERT JUMPDEST PUSH2 0x1F7E SWAP1 PUSH2 0x1871 JUMP JUMPDEST CODESIZE PUSH2 0x1F19 JUMP JUMPDEST DUP5 MLOAD RETURNDATASIZE DUP5 DUP3 RETURNDATACOPY RETURNDATASIZE SWAP1 REVERT JUMPDEST DUP6 MLOAD PUSH4 0xAD461A9 PUSH1 0xE2 SHL DUP2 MSTORE PUSH1 0x4 SWAP1 REVERT JUMPDEST SWAP1 SWAP2 POP PUSH1 0x20 DUP2 RETURNDATASIZE DUP3 GT PUSH2 0x1FCA JUMPI JUMPDEST DUP2 PUSH2 0x1FBA PUSH1 0x20 SWAP4 DUP4 PUSH2 0x18D0 JUMP JUMPDEST DUP2 ADD SUB SLT PUSH2 0x7F6 JUMPI MLOAD SWAP1 CODESIZE PUSH2 0x1ED8 JUMP JUMPDEST RETURNDATASIZE SWAP2 POP PUSH2 0x1FAD JUMP JUMPDEST DUP6 MLOAD RETURNDATASIZE PUSH1 0x0 DUP3 RETURNDATACOPY RETURNDATASIZE SWAP1 REVERT JUMPDEST PUSH2 0x1D77 SWAP2 PUSH2 0x1FE9 PUSH2 0x1D7A JUMP JUMPDEST POP PUSH1 0x1 DUP1 PUSH1 0xA0 SHL SUB PUSH32 0x0 AND PUSH1 0xD SLOAD SWAP3 PUSH1 0x0 PUSH1 0x40 SWAP4 DUP5 MLOAD SWAP6 PUSH4 0x96834AD3 PUSH1 0xE0 SHL DUP8 MSTORE PUSH1 0x4 DUP8 ADD MSTORE PUSH1 0x80 SWAP3 DUP4 DUP8 PUSH1 0x24 DUP2 DUP9 GAS STATICCALL DUP1 SWAP8 DUP5 SWAP9 PUSH2 0x217B JUMPI JUMPDEST POP PUSH2 0x207E JUMPI JUMPDEST POP POP POP POP POP DUP1 SWAP2 POP MLOAD SWAP1 PUSH2 0x205B DUP3 PUSH2 0x18B5 JUMP JUMPDEST PUSH6 0x9184E72A000 DUP3 MSTORE PUSH4 0x5F5E100 PUSH1 0x20 DUP4 ADD MSTORE PUSH1 0x7 NOT SWAP1 DUP3 ADD MSTORE TIMESTAMP PUSH1 0x60 DUP3 ADD MSTORE SWAP1 JUMP JUMPDEST DUP7 DUP4 DUP2 MLOAD PUSH1 0x7 SIGNEXTEND SGT SWAP1 DUP2 PUSH2 0x216B JUMPI JUMPDEST DUP2 PUSH2 0x215D JUMPI JUMPDEST POP ISZERO PUSH2 0x2048 JUMPI DUP2 PUSH2 0x20A8 JUMPI JUMPDEST POP POP POP POP POP POP SWAP1 JUMP JUMPDEST DUP5 EXTCODESIZE ISZERO PUSH2 0xDB1 JUMPI DUP6 MLOAD PUSH4 0x1DF3CBC5 PUSH1 0xE3 SHL DUP2 MSTORE SWAP3 SWAP2 DUP3 SWAP2 DUP5 SWAP2 DUP3 SWAP2 PUSH2 0x20D1 SWAP2 SWAP1 PUSH1 0x4 DUP5 ADD PUSH2 0x1D9F JUMP JUMPDEST SUB DUP2 CALLVALUE DUP9 GAS CALL SWAP2 DUP3 PUSH2 0x214E JUMPI JUMPDEST POP SWAP1 PUSH2 0x20EC JUMPI JUMPDEST DUP1 DUP1 PUSH2 0x209F JUMP JUMPDEST SWAP1 DUP1 SWAP3 SWAP4 SWAP5 POP PUSH1 0xD SLOAD PUSH1 0x44 PUSH1 0xA SLOAD SWAP2 DUP8 MLOAD SWAP7 DUP8 SWAP4 DUP5 SWAP3 PUSH4 0x52571AF PUSH1 0xE5 SHL DUP5 MSTORE PUSH1 0x4 DUP5 ADD MSTORE PUSH1 0x24 DUP4 ADD MSTORE GAS STATICCALL SWAP4 DUP5 ISZERO PUSH2 0x1F6B JUMPI POP SWAP3 PUSH2 0x2131 JUMPI JUMPDEST POP POP CODESIZE DUP1 DUP1 DUP1 PUSH2 0x20E5 JUMP JUMPDEST PUSH2 0x2147 SWAP3 POP DUP1 RETURNDATASIZE LT PUSH2 0x101E JUMPI PUSH2 0x1010 DUP2 DUP4 PUSH2 0x18D0 JUMP JUMPDEST CODESIZE DUP1 PUSH2 0x2126 JUMP JUMPDEST PUSH2 0x2157 SWAP1 PUSH2 0x1871 JUMP JUMPDEST CODESIZE PUSH2 0x20DE JUMP JUMPDEST PUSH1 0x60 SWAP2 POP ADD MLOAD ISZERO ISZERO CODESIZE PUSH2 0x2093 JUMP JUMPDEST DUP8 DUP2 ADD MLOAD PUSH1 0x3 SIGNEXTEND ISZERO ISZERO SWAP2 POP PUSH2 0x208D JUMP JUMPDEST PUSH2 0x2193 SWAP2 SWAP9 POP DUP6 RETURNDATASIZE DUP8 GT PUSH2 0x101E JUMPI PUSH2 0x1010 DUP2 DUP4 PUSH2 0x18D0 JUMP JUMPDEST SWAP7 CODESIZE PUSH2 0x2042 JUMP JUMPDEST PUSH1 0x3 SIGNEXTEND PUSH4 0x7FFFFFFF NOT DUP2 EQ PUSH2 0x1954 JUMPI PUSH1 0x0 SUB SWAP1 JUMP JUMPDEST PUSH4 0xFFFFFFFF AND PUSH1 0x4D DUP2 GT PUSH2 0x1954 JUMPI PUSH1 0xA EXP SWAP1 JUMP JUMPDEST DUP2 DUP2 MUL SWAP3 SWAP2 DUP2 ISZERO SWAP2 DUP5 DIV EQ OR ISZERO PUSH2 0x1954 JUMPI JUMP JUMPDEST DUP2 ISZERO PUSH2 0x21E0 JUMPI DIV SWAP1 JUMP JUMPDEST PUSH4 0x4E487B71 PUSH1 0xE0 SHL PUSH1 0x0 MSTORE PUSH1 0x12 PUSH1 0x4 MSTORE PUSH1 0x24 PUSH1 0x0 REVERT JUMPDEST SWAP2 SWAP1 PUSH1 0x40 DUP4 MLOAD SWAP4 ADD MLOAD DUP1 PUSH1 0x3 SIGNEXTEND SWAP1 PUSH1 0x0 SWAP5 DUP6 DUP2 PUSH1 0x7 SIGNEXTEND SGT ISZERO PUSH2 0x2308 JUMPI PUSH1 0x1 PUSH1 0x1 PUSH1 0x40 SHL SUB AND SWAP2 DUP6 DUP2 SLT PUSH2 0x2299 JUMPI POP DUP2 PUSH1 0x64 MUL SWAP2 PUSH1 0x64 DUP4 DIV SUB PUSH2 0x2285 JUMPI SWAP1 PUSH2 0x2245 PUSH2 0x224B SWAP3 PUSH4 0xFFFFFFFF AND PUSH2 0x21AF JUMP JUMPDEST SWAP1 PUSH2 0x21C3 JUMP JUMPDEST SWAP1 PUSH8 0xDE0B6B3A7640000 SWAP1 DUP2 DUP2 MUL SWAP2 DUP2 DUP4 DIV EQ SWAP1 ISZERO OR ISZERO PUSH2 0x2271 JUMPI PUSH2 0x1D77 SWAP3 SWAP4 POP PUSH2 0x21D6 JUMP JUMPDEST PUSH4 0x4E487B71 PUSH1 0xE0 SHL DUP5 MSTORE PUSH1 0x11 PUSH1 0x4 MSTORE PUSH1 0x24 DUP5 REVERT JUMPDEST PUSH4 0x4E487B71 PUSH1 0xE0 SHL DUP6 MSTORE PUSH1 0x11 PUSH1 0x4 MSTORE PUSH1 0x24 DUP6 REVERT JUMPDEST PUSH2 0x22B7 SWAP2 POP PUSH2 0x22AC SWAP1 SWAP6 SWAP4 SWAP3 SWAP5 SWAP6 PUSH2 0x219A JUMP JUMPDEST PUSH4 0xFFFFFFFF AND PUSH2 0x21AF JUMP JUMPDEST SWAP2 DUP4 PUSH1 0x64 MUL SWAP4 PUSH1 0x64 DUP6 DIV SUB PUSH2 0x22F4 JUMPI PUSH8 0xDE0B6B3A7640000 SWAP2 DUP3 DUP2 MUL SWAP3 DUP2 DUP5 DIV EQ SWAP1 ISZERO OR ISZERO PUSH2 0x22F4 JUMPI POP PUSH2 0x1D77 SWAP3 SWAP2 PUSH2 0x22EF SWAP2 PUSH2 0x21C3 JUMP JUMPDEST PUSH2 0x21D6 JUMP JUMPDEST PUSH4 0x4E487B71 PUSH1 0xE0 SHL DUP2 MSTORE PUSH1 0x11 PUSH1 0x4 MSTORE PUSH1 0x24 SWAP1 REVERT JUMPDEST PUSH1 0x40 MLOAD PUSH4 0x52CC3F7D PUSH1 0xE0 SHL DUP2 MSTORE PUSH1 0x4 SWAP1 REVERT JUMPDEST RETURNDATASIZE ISZERO PUSH2 0x2345 JUMPI RETURNDATASIZE SWAP1 PUSH2 0x232B DUP3 PUSH2 0x18F3 JUMP JUMPDEST SWAP2 PUSH2 0x2339 PUSH1 0x40 MLOAD SWAP4 DUP5 PUSH2 0x18D0 JUMP JUMPDEST DUP3 MSTORE RETURNDATASIZE PUSH1 0x0 PUSH1 0x20 DUP5 ADD RETURNDATACOPY JUMP JUMPDEST PUSH1 0x60 SWAP1 JUMP JUMPDEST DUP2 SELFBALANCE LT PUSH2 0x32F JUMPI PUSH1 0x1 PUSH1 0x1 PUSH1 0xA0 SHL SUB AND SWAP1 PUSH1 0x0 DUP1 DUP1 DUP1 DUP5 DUP7 GAS CALL PUSH2 0x236C PUSH2 0x231A JUMP JUMPDEST POP ISZERO PUSH2 0x31D JUMPI PUSH1 0x20 PUSH32 0x42DAE7ECBD6480F4668BE8482B87DD535B1E94C76B10F9C324E2BCA24F10F71B SWAP2 PUSH1 0x40 MLOAD SWAP1 DUP2 MSTORE LOG2 JUMP JUMPDEST PUSH1 0xB SLOAD SWAP2 SWAP4 SWAP3 SWAP2 PUSH2 0x23C3 SWAP2 PUSH1 0x0 SWAP1 PUSH1 0x7 PUSH1 0xFF SWAP1 SWAP2 AND LT PUSH2 0x9BC JUMPI POP PUSH1 0xC SLOAD SWAP1 PUSH2 0x196A JUMP JUMPDEST SWAP3 PUSH1 0x7 SIGNEXTEND SWAP1 PUSH1 0x0 DUP3 SGT ISZERO PUSH2 0x2400 JUMPI PUSH2 0x1D77 SWAP2 DUP5 SWAP2 PUSH1 0x40 MLOAD SWAP2 PUSH2 0x23E4 DUP4 PUSH2 0x18B5 JUMP JUMPDEST DUP3 MSTORE PUSH1 0x0 PUSH1 0x20 DUP4 ADD MSTORE PUSH1 0x3 SIGNEXTEND PUSH1 0x40 DUP3 ADD MSTORE TIMESTAMP PUSH1 0x60 DUP3 ADD MSTORE PUSH2 0x2407 JUMP JUMPDEST POP POP PUSH1 0x0 SWAP1 JUMP JUMPDEST SWAP2 SWAP1 PUSH1 0x40 DUP4 MLOAD SWAP4 ADD MLOAD DUP1 PUSH1 0x3 SIGNEXTEND SWAP1 PUSH1 0x0 SWAP5 DUP6 DUP2 PUSH1 0x7 SIGNEXTEND SGT ISZERO PUSH2 0x2456 JUMPI PUSH1 0x1 PUSH1 0x1 PUSH1 0x40 SHL SUB AND SWAP2 DUP6 DUP2 SLT PUSH2 0x2299 JUMPI POP DUP2 PUSH1 0x64 MUL SWAP2 PUSH1 0x64 DUP4 DIV SUB PUSH2 0x2285 JUMPI SWAP1 PUSH2 0x2245 PUSH2 0x224B SWAP3 PUSH4 0xFFFFFFFF AND PUSH2 0x21AF JUMP JUMPDEST POP POP POP POP JUMP INVALID MSTORE GAS LOG3 DUP4 0xE9 0xDA MSTORE ADD 0x4B 0x1F LOG1 EXP CALLDATALOAD 0xAB PUSH12 0x1EC0785574D6DC1F97A9EE37 RETURNDATACOPY SWAP9 0x1E PUSH21 0x508BE0079C531659141344CD1FD0A4F28419497F97 0x22 LOG3 0xDA 0xAF 0xE3 0xB4 XOR PUSH16 0x6B6457E0A164736F6C6343000814000A "},"methodIdentifiers":{"FLOW_TESTNET_CHAIN_ID()":"7e49541a","HEDERA_TESTNET_CHAIN_ID()":"f0167aea","MAX_BATCH_SIZE()":"cfdbf254","ROOTSTOCK_TESTNET_CHAIN_ID()":"c39601f2","authorizedSigners(address)":"5d2b6a4e","calculateRewardAmount(uint8,int64,int32)":"84435ae5","claimFeedbackReward((address,string,uint8,uint256,bytes),bytes[])":"1bac88cd","currentConfig()":"cae58807","emergencyWithdraw()":"db2e21bc","fundContract()":"bd097e21","getContractFunding()":"44fdd003","getCurrentNativeTokenPrice()":"787f75f3","getNetworkConfig(uint256)":"d39957c6","getOracleStats()":"c6c035b5","getUserFeedbackStats(address)":"b7ab8e14","isFeedbackProcessed(address,string,uint256)":"b01d0cb9","lastFeedbackTime(address)":"a5093352","networkConfigs(uint256)":"7b99b603","owner()":"8da5cb5b","processBatchFeedback((address[],string[],uint8[],uint256[],bytes),bytes[])":"bfc54808","processFeedback((address,string,uint8,uint256,bytes),bytes[])":"560e8191","processedFeedback(bytes32)":"8e83ca25","pyth()":"f98d06f0","qualityThreshold()":"63c999c3","renounceOwnership()":"715018a6","rewardToken()":"f7c618c1","setQualityThreshold(uint256)":"2d37dc78","setSignerAuthorization(address,bool)":"741e39ee","skipVerification()":"7f20f4a6","totalFeedbackProcessed()":"931afb5e","totalNativeRewardsDistributed()":"a2fa874c","totalRewardsDistributedUSD()":"94720dff","transferOwnership(address)":"f2fde38b","updateNetworkConfig(uint256,(uint256,uint256,uint256,uint256,bytes32,bool))":"7b688630","updateVerificationSkip(bool)":"15889033","userFeedbackCount(address)":"4b0ad053","withdrawNativeTokens(uint256)":"e5c18684"}},"storageLayout":{"storage":[{"astId":8,"contract":"contracts/FeedbackOracle.sol:FeedbackOracle","label":"_owner","offset":0,"slot":"0","type":"t_address"},{"astId":996,"contract":"contracts/FeedbackOracle.sol:FeedbackOracle","label":"_status","offset":0,"slot":"1","type":"t_uint256"},{"astId":6685,"contract":"contracts/FeedbackOracle.sol:FeedbackOracle","label":"authorizedSigners","offset":0,"slot":"2","type":"t_mapping(t_address,t_bool)"},{"astId":6689,"contract":"contracts/FeedbackOracle.sol:FeedbackOracle","label":"processedFeedback","offset":0,"slot":"3","type":"t_mapping(t_bytes32,t_bool)"},{"astId":6693,"contract":"contracts/FeedbackOracle.sol:FeedbackOracle","label":"userFeedbackCount","offset":0,"slot":"4","type":"t_mapping(t_address,t_uint256)"},{"astId":6697,"contract":"contracts/FeedbackOracle.sol:FeedbackOracle","label":"lastFeedbackTime","offset":0,"slot":"5","type":"t_mapping(t_address,t_uint256)"},{"astId":6715,"contract":"contracts/FeedbackOracle.sol:FeedbackOracle","label":"networkConfigs","offset":0,"slot":"6","type":"t_mapping(t_uint256,t_struct(NetworkConfig)6710_storage)"},{"astId":6721,"contract":"contracts/FeedbackOracle.sol:FeedbackOracle","label":"qualityThreshold","offset":0,"slot":"7","type":"t_uint256"},{"astId":6724,"contract":"contracts/FeedbackOracle.sol:FeedbackOracle","label":"skipVerification","offset":0,"slot":"8","type":"t_bool"},{"astId":6727,"contract":"contracts/FeedbackOracle.sol:FeedbackOracle","label":"currentConfig","offset":0,"slot":"9","type":"t_struct(NetworkConfig)6710_storage"},{"astId":6729,"contract":"contracts/FeedbackOracle.sol:FeedbackOracle","label":"totalFeedbackProcessed","offset":0,"slot":"15","type":"t_uint256"},{"astId":6731,"contract":"contracts/FeedbackOracle.sol:FeedbackOracle","label":"totalRewardsDistributedUSD","offset":0,"slot":"16","type":"t_uint256"},{"astId":6733,"contract":"contracts/FeedbackOracle.sol:FeedbackOracle","label":"totalNativeRewardsDistributed","offset":0,"slot":"17","type":"t_uint256"}],"types":{"t_address":{"encoding":"inplace","label":"address","numberOfBytes":"20"},"t_bool":{"encoding":"inplace","label":"bool","numberOfBytes":"1"},"t_bytes32":{"encoding":"inplace","label":"bytes32","numberOfBytes":"32"},"t_mapping(t_address,t_bool)":{"encoding":"mapping","key":"t_address","label":"mapping(address => bool)","numberOfBytes":"32","value":"t_bool"},"t_mapping(t_address,t_uint256)":{"encoding":"mapping","key":"t_address","label":"mapping(address => uint256)","numberOfBytes":"32","value":"t_uint256"},"t_mapping(t_bytes32,t_bool)":{"encoding":"mapping","key":"t_bytes32","label":"mapping(bytes32 => bool)","numberOfBytes":"32","value":"t_bool"},"t_mapping(t_uint256,t_struct(NetworkConfig)6710_storage)":{"encoding":"mapping","key":"t_uint256","label":"mapping(uint256 => struct FeedbackOracle.NetworkConfig)","numberOfBytes":"32","value":"t_struct(NetworkConfig)6710_storage"},"t_struct(NetworkConfig)6710_storage":{"encoding":"inplace","label":"struct FeedbackOracle.NetworkConfig","members":[{"astId":6699,"contract":"contracts/FeedbackOracle.sol:FeedbackOracle","label":"minFeedbackInterval","offset":0,"slot":"0","type":"t_uint256"},{"astId":6701,"contract":"contracts/FeedbackOracle.sol:FeedbackOracle","label":"maxPriceAge","offset":0,"slot":"1","type":"t_uint256"},{"astId":6703,"contract":"contracts/FeedbackOracle.sol:FeedbackOracle","label":"baseRewardUSDCents","offset":0,"slot":"2","type":"t_uint256"},{"astId":6705,"contract":"contracts/FeedbackOracle.sol:FeedbackOracle","label":"qualityBonusUSDCents","offset":0,"slot":"3","type":"t_uint256"},{"astId":6707,"contract":"contracts/FeedbackOracle.sol:FeedbackOracle","label":"nativeTokenPriceFeedId","offset":0,"slot":"4","type":"t_bytes32"},{"astId":6709,"contract":"contracts/FeedbackOracle.sol:FeedbackOracle","label":"isActive","offset":0,"slot":"5","type":"t_bool"}],"numberOfBytes":"192"},"t_uint256":{"encoding":"inplace","label":"uint256","numberOfBytes":"32"}}}}}}