{"contracts/AgentLaunchpadCoreV2Minimal.sol":{"AgentLaunchpadCoreV2Minimal":{"abi":[{"inputs":[{"internalType":"address","name":"_treasuryAddress","type":"address"}],"stateMutability":"nonpayable","type":"constructor"},{"inputs":[{"internalType":"address","name":"owner","type":"address"}],"name":"OwnableInvalidOwner","type":"error"},{"inputs":[{"internalType":"address","name":"account","type":"address"}],"name":"OwnableUnauthorizedAccount","type":"error"},{"inputs":[],"name":"ReentrancyGuardReentrantCall","type":"error"},{"anonymous":false,"inputs":[{"indexed":true,"internalType":"uint256","name":"agentId","type":"uint256"},{"indexed":true,"internalType":"address","name":"tokenAddress","type":"address"},{"indexed":true,"internalType":"address","name":"lpPairAddress","type":"address"}],"name":"AgentBonded","type":"event"},{"anonymous":false,"inputs":[{"indexed":true,"internalType":"uint256","name":"agentId","type":"uint256"},{"indexed":true,"internalType":"address","name":"creator","type":"address"},{"indexed":false,"internalType":"address","name":"tokenAddress","type":"address"}],"name":"AgentCreated","type":"event"},{"anonymous":false,"inputs":[{"indexed":true,"internalType":"uint256","name":"agentId","type":"uint256"},{"indexed":true,"internalType":"address","name":"contributor","type":"address"},{"indexed":false,"internalType":"uint256","name":"amount","type":"uint256"}],"name":"Contributed","type":"event"},{"anonymous":false,"inputs":[{"indexed":true,"internalType":"address","name":"previousOwner","type":"address"},{"indexed":true,"internalType":"address","name":"newOwner","type":"address"}],"name":"OwnershipTransferred","type":"event"},{"inputs":[],"name":"BASIS_POINTS","outputs":[{"internalType":"uint256","name":"","type":"uint256"}],"stateMutability":"view","type":"function"},{"inputs":[{"internalType":"uint256","name":"","type":"uint256"}],"name":"agents","outputs":[{"internalType":"string","name":"name","type":"string"},{"internalType":"string","name":"symbol","type":"string"},{"internalType":"string","name":"agentName","type":"string"},{"internalType":"uint256","name":"fundingTarget","type":"uint256"},{"internalType":"uint256","name":"tokenSupply","type":"uint256"},{"internalType":"address","name":"creator","type":"address"},{"internalType":"bool","name":"isBonded","type":"bool"},{"internalType":"uint256","name":"totalRaised","type":"uint256"},{"internalType":"address","name":"tokenAddress","type":"address"},{"internalType":"address","name":"lpPairAddress","type":"address"},{"internalType":"string","name":"agentConfigJSON","type":"string"}],"stateMutability":"view","type":"function"},{"inputs":[{"internalType":"uint256","name":"","type":"uint256"}],"name":"bondedAgentIds","outputs":[{"internalType":"uint256","name":"","type":"uint256"}],"stateMutability":"view","type":"function"},{"inputs":[{"internalType":"uint256","name":"agentId","type":"uint256"}],"name":"contribute","outputs":[],"stateMutability":"payable","type":"function"},{"inputs":[{"internalType":"uint256","name":"","type":"uint256"},{"internalType":"address","name":"","type":"address"}],"name":"contributions","outputs":[{"internalType":"uint256","name":"","type":"uint256"}],"stateMutability":"view","type":"function"},{"inputs":[{"internalType":"string","name":"name","type":"string"},{"internalType":"string","name":"symbol","type":"string"},{"internalType":"string","name":"agentName","type":"string"},{"internalType":"string","name":"archetype","type":"string"},{"internalType":"string","name":"metadataURI","type":"string"},{"internalType":"uint256","name":"fundingTarget","type":"uint256"},{"internalType":"uint256","name":"tokenSupply","type":"uint256"},{"internalType":"string","name":"agentConfigJSON","type":"string"}],"name":"createAgent","outputs":[{"internalType":"uint256","name":"agentId","type":"uint256"}],"stateMutability":"nonpayable","type":"function"},{"inputs":[],"name":"defaultLiquidityPercentage","outputs":[{"internalType":"uint256","name":"","type":"uint256"}],"stateMutability":"view","type":"function"},{"inputs":[],"name":"defaultTokenLPPercentage","outputs":[{"internalType":"uint256","name":"","type":"uint256"}],"stateMutability":"view","type":"function"},{"inputs":[],"name":"emergencyWithdraw","outputs":[],"stateMutability":"nonpayable","type":"function"},{"inputs":[{"internalType":"address","name":"tokenAddress","type":"address"}],"name":"getAgentByTokenAddress","outputs":[{"internalType":"uint256","name":"","type":"uint256"}],"stateMutability":"view","type":"function"},{"inputs":[{"internalType":"uint256","name":"agentId","type":"uint256"}],"name":"getAgentInfo","outputs":[{"internalType":"string","name":"name","type":"string"},{"internalType":"string","name":"agentName","type":"string"},{"internalType":"uint256","name":"fundingTarget","type":"uint256"},{"internalType":"uint256","name":"totalRaised","type":"uint256"},{"internalType":"bool","name":"isBonded","type":"bool"},{"internalType":"address","name":"creator","type":"address"},{"internalType":"address","name":"tokenAddress","type":"address"},{"internalType":"address","name":"lpPairAddress","type":"address"},{"internalType":"string","name":"agentConfigJSON","type":"string"}],"stateMutability":"view","type":"function"},{"inputs":[],"name":"getAllBondedTokens","outputs":[{"internalType":"address[]","name":"tokenAddresses","type":"address[]"},{"internalType":"string[]","name":"names","type":"string[]"},{"internalType":"string[]","name":"symbols","type":"string[]"},{"internalType":"address[]","name":"lpPairs","type":"address[]"},{"internalType":"uint256[]","name":"agentIds","type":"uint256[]"}],"stateMutability":"view","type":"function"},{"inputs":[],"name":"getCurrentAgentId","outputs":[{"internalType":"uint256","name":"","type":"uint256"}],"stateMutability":"view","type":"function"},{"inputs":[],"name":"getInProgressAgents","outputs":[{"internalType":"uint256[]","name":"agentIds","type":"uint256[]"},{"internalType":"string[]","name":"agentNames","type":"string[]"},{"internalType":"uint256[]","name":"fundingTargets","type":"uint256[]"},{"internalType":"uint256[]","name":"totalRaised","type":"uint256[]"},{"internalType":"address[]","name":"tokenAddresses","type":"address[]"}],"stateMutability":"view","type":"function"},{"inputs":[{"internalType":"uint256","name":"agentId","type":"uint256"}],"name":"getLiquidityPool","outputs":[{"internalType":"address","name":"","type":"address"}],"stateMutability":"view","type":"function"},{"inputs":[],"name":"getTotalCounts","outputs":[{"internalType":"uint256","name":"totalAgents","type":"uint256"},{"internalType":"uint256","name":"bondedAgents","type":"uint256"},{"internalType":"uint256","name":"inProgressAgents","type":"uint256"}],"stateMutability":"view","type":"function"},{"inputs":[{"internalType":"uint256","name":"","type":"uint256"}],"name":"inProgressAgentIds","outputs":[{"internalType":"uint256","name":"","type":"uint256"}],"stateMutability":"view","type":"function"},{"inputs":[{"internalType":"uint256","name":"agentId","type":"uint256"}],"name":"isAgentBonded","outputs":[{"internalType":"bool","name":"","type":"bool"}],"stateMutability":"view","type":"function"},{"inputs":[],"name":"liquidityManager","outputs":[{"internalType":"address","name":"","type":"address"}],"stateMutability":"view","type":"function"},{"inputs":[],"name":"owner","outputs":[{"internalType":"address","name":"","type":"address"}],"stateMutability":"view","type":"function"},{"inputs":[],"name":"protocolFeePercentage","outputs":[{"internalType":"uint256","name":"","type":"uint256"}],"stateMutability":"view","type":"function"},{"inputs":[],"name":"renounceOwnership","outputs":[],"stateMutability":"nonpayable","type":"function"},{"inputs":[{"internalType":"address","name":"_liquidityManager","type":"address"}],"name":"setLiquidityManager","outputs":[],"stateMutability":"nonpayable","type":"function"},{"inputs":[{"internalType":"uint256","name":"_feePercentage","type":"uint256"}],"name":"setProtocolFeePercentage","outputs":[],"stateMutability":"nonpayable","type":"function"},{"inputs":[{"internalType":"address","name":"_treasuryAddress","type":"address"}],"name":"setTreasuryAddress","outputs":[],"stateMutability":"nonpayable","type":"function"},{"inputs":[{"internalType":"address","name":"","type":"address"}],"name":"tokenToAgentId","outputs":[{"internalType":"uint256","name":"","type":"uint256"}],"stateMutability":"view","type":"function"},{"inputs":[{"internalType":"address","name":"newOwner","type":"address"}],"name":"transferOwnership","outputs":[],"stateMutability":"nonpayable","type":"function"},{"inputs":[],"name":"treasuryAddress","outputs":[{"internalType":"address","name":"","type":"address"}],"stateMutability":"view","type":"function"},{"stateMutability":"payable","type":"receive"}],"evm":{"bytecode":{"linkReferences":{},"object":"60803461011d57601f62006d4d38819003918201601f19168301916001600160401b038311848410176101225780849260209460405283398101031261011d57516001600160a01b038082169182900361011d573315610104576000549060018060a01b0319913383821617600055604051913391167f8be0079c531659141344cd1fd0a4f28419497f9722a3daafe3b4186f6b6457e0600080a36001805561012c600a55611f40600b55612328600c5582156100cf57506008541617600855604051616c149081620001398239f35b62461bcd60e51b815260206004820152601060248201526f496e76616c696420747265617375727960801b6044820152606490fd5b604051631e4fbdf760e01b815260006004820152602490fd5b600080fd5b634e487b7160e01b600052604160045260246000fdfe60808060405260043610156200001f575b5036156200001d57600080fd5b005b60003560e01c9081628c55041462001d9a57508063045af3341462001d6957806319a6a6e91462001c485780631c18ce2e1462001c1a578063338274381462001bf15780633c1624d41462001b935780633d891f591462001b445780634dd0317614620019e7578063513856c814620018935780636605bfda14620017ea578063715018a61462001775578063754c5e891462000e405780638da5cb5b1462000e175780638e50e5091462000df75780639a52878a14620002d5578063a74498aa1462000dbd578063a759c8831462000c1f578063ba39a1c51462000be6578063bfd1769e1462000bc6578063c1cbbca714620003eb578063c216140914620003af578063c5f956af1462000386578063d8a5e9361462000313578063dab7706a14620002d5578063db2e21bc146200027e578063e1f1c4a7146200025f578063e379dcaf146200023f5763f2fde38b146200017c573862000010565b346200023a5760206003193601126200023a576200019962001e98565b620001a3620020ec565b6001600160a01b038091169081156200020957600054827fffffffffffffffffffffffff0000000000000000000000000000000000000000821617600055167f8be0079c531659141344cd1fd0a4f28419497f9722a3daafe3b4186f6b6457e0600080a3005b60246040517f1e4fbdf700000000000000000000000000000000000000000000000000000000815260006004820152fd5b600080fd5b346200023a5760006003193601126200023a576020600b54604051908152f35b346200023a5760006003193601126200023a5760206040516127108152f35b346200023a5760006003193601126200023a576200029b620020ec565b60008080806001600160a01b038154164790828215620002cb575bf115620002bf57005b6040513d6000823e3d90fd5b506108fc620002b6565b346200023a5760206003193601126200023a576001600160a01b03620002fa62001e98565b1660005260076020526020604060002054604051908152f35b346200023a5760206003193601126200023a5760043562000333620020ec565b6103e881116200034257600a55005b606460405162461bcd60e51b815260206004820152600c60248201527f46656520746f6f206869676800000000000000000000000000000000000000006044820152fd5b346200023a5760006003193601126200023a5760206001600160a01b0360085416604051908152f35b346200023a5760206003193601126200023a576004356006548110156200023a57620003dd60209162001e60565b90546040519160031b1c8152f35b6020806003193601126200023a57600435600190600282541462000b9c576002825580600052600380845260406000209360058501549060ff6001600160a01b03926200043c8482161515620021ad565b60a01c1662000b5857341562000b14576006928387018162000460348354620021f9565b98019788541062000ad057869786600052600484526040600020336000528452604060002062000492348254620021f9565b9055620004a1348354620021f9565b809255604051348152877fb2ed2e021651f85a4754a44651fc09ac5141bc0329ce4dfe8dd712a5d04a8b39863393a3541115620004dd57858055005b84600052808252620005396040600020918583015495612710968762000506600a548362002207565b049381620005338a620005296200051f8980976200221b565b600b549062002207565b049687926200221b565b6200221b565b926005860192740100000000000000000000000000000000000000007fffffffffffffffffffffff00ffffffffffffffffffffffffffffffffffffffff8554161784558b6000905b620009c2575b5050509091929394959697985060055468010000000000000000811015620009935789620005bf828d620005d7940160055562001df9565b90919060001983549160031b92831b921b1916179055565b8015801562000965575b505085821591821562000936575b5050505060009484600954161515806200092c575b15620008815760048301916200067f83549262000624600c548562002207565b0491600786018789825416958a6009541660405195869283927f095ea7b300000000000000000000000000000000000000000000000000000000845260048401602090939291936001600160a01b0360408201951681520152565b03816000895af1928315620002bf5788936200085f575b508a8980600954169254169260405195869485937fa8f0ad450000000000000000000000000000000000000000000000000000000085526004850152602484015260448301526080606483015281620006f66084820160098c0162001fda565b03925af16000918162000820575b50620007e1575060085491546040517fa9059cbb0000000000000000000000000000000000000000000000000000000081529286166001600160a01b0316600484015260248301529092919082908490816000816044810103925af1918215620002bf578493600793620007ac575b50505b0154169116917f6fb060de3018a5bab77159e4ff4939deb91858ddb2995fb7bc9cdac6552fa328600080a4808280808080858055005b81620007d092903d10620007d9575b620007c7818362002097565b81019062002229565b50878062000773565b503d620007bb565b9550505082915060079084836008830191167fffffffffffffffffffffffff000000000000000000000000000000000000000082541617905562000776565b9091508581813d831162000857575b6200083b818362002097565b810103126200023a575186811681036200023a57908a62000704565b503d6200082f565b6200087990843d8611620007d957620007c7818362002097565b508c62000696565b5050908181846007620008ea9501541685600854169060048401549160006040518098819582947fa9059cbb00000000000000000000000000000000000000000000000000000000845260048401602090939291936001600160a01b0360408201951681520152565b03925af1918215620002bf57849360079362000909575b505062000776565b816200092392903d10620007d957620007c7818362002097565b50878062000901565b5081151562000604565b60009384938493849354169083906200095b575bf115620002bf5787808581620005ef565b506108fc6200094a565b600080809381938b6008541690839062000989575bf115620002bf578980620005e1565b506108fc6200097a565b7f4e487b7100000000000000000000000000000000000000000000000000000000600052604160045260246000fd5b81548082101562000ac9578c620009d98362001e60565b905490861b1c14620009f85750620009f19062002131565b8c62000581565b909192939495969798999a9b9c506000199182820191821162000a9a57620005bf62000a2862000a359362001e60565b905490871b1c9162001e60565b8154801562000a6b5781019262000a4c8462001e60565b81939154921b1b1916905555908998979695949392918b808062000587565b7f4e487b7100000000000000000000000000000000000000000000000000000000600052603160045260246000fd5b7f4e487b7100000000000000000000000000000000000000000000000000000000600052601160045260246000fd5b5062000587565b6064836040519062461bcd60e51b82526004820152600e60248201527f45786365656473207461726765740000000000000000000000000000000000006044820152fd5b6064906040519062461bcd60e51b82526004820152600860248201527f4e6f2076616c75650000000000000000000000000000000000000000000000006044820152fd5b6064906040519062461bcd60e51b82526004820152600e60248201527f416c726561647920626f6e6465640000000000000000000000000000000000006044820152fd5b60046040517f3ee5aeb5000000000000000000000000000000000000000000000000000000008152fd5b346200023a5760006003193601126200023a576020600c54604051908152f35b346200023a5760206003193601126200023a576004356000526003602052602060ff60056040600020015460a01c166040519015158152f35b346200023a5760006003193601126200023a5760055462000c40816200225c565b9062000c4c8162002293565b62000c578262002293565b62000c62836200225c565b9162000c6e846200225c565b9360005b81811062000ce85762000ca88762000ce48862000cd58962000cc68a62000cb78b604051998a9960a08b5260a08b019062001f45565b9089820360208b015262001ee5565b90878203604089015262001ee5565b90858203606087015262001f45565b90838203608085015262001eaf565b0390f35b8062000cf862000db79262001df9565b9054600391821b1c9081600052602052604060002060086001600160a01b03918b62000d2c868560078501541692620022e4565b5260405162000d498162000d41818562001fda565b038262002097565b62000d55868a620022e4565b5262000d628589620022e4565b5060405162000d7a8162000d41816001860162001fda565b62000d86868b620022e4565b5262000d93858a620022e4565b5001541662000da38389620022e4565b5262000db08289620022e4565b5262002131565b62000c72565b346200023a5760206003193601126200023a57600435600052600360205260206001600160a01b0360086040600020015416604051908152f35b346200023a5760006003193601126200023a576020600a54604051908152f35b346200023a5760006003193601126200023a5760206001600160a01b0360005416604051908152f35b346200023a576101006003193601126200023a5760043567ffffffffffffffff81116200023a5762000e77903690600401620020bb565b9060243567ffffffffffffffff81116200023a5762000e9b903690600401620020bb565b60449391933567ffffffffffffffff81116200023a5762000ec1903690600401620020bb565b60649391933567ffffffffffffffff81116200023a5762000ee7903690600401620020bb565b92909460843567ffffffffffffffff81116200023a5762000f0d903690600401620020bb565b939060e43567ffffffffffffffff81116200023a5762000f32903690600401620020bb565b95909660a43515158062001769575b1562001725576002549962000f568b62002131565b600255604051938461490e81011067ffffffffffffffff61490e8701111762000993578493620010008f938f9562000fe98f620010179762000fd1918f6200103e9b62000fb9916101008f61490e620022fa823961490e01818152019162002141565b918c602061490e820185039161490e01015262002141565b61490e8a018103604061490e8c0101528b8d62002141565b9161490e89018303606061490e8b01015262002141565b9161490e86018303608061490e8801015262002141565b60c43561490e840160a08101919091523060c082015280820360e090910152878962002141565b03906000f0978815620002bf57604051998a61016081011067ffffffffffffffff6101608d0111176200099357620010ee976200108e6200109893620010a5976101608f01604052369162002162565b8c52369162002162565b60208a0152369162002162565b604087015260a435606087015260c43560808701523360a0870152600060c0870152600060e08701526001600160a01b0385166101008701526000610120870152369162002162565b6101408401528060005260036020526040600020835180519067ffffffffffffffff82116200099357819062001125845462001f84565b601f8111620016d0575b50602090601f83116001146200165f5760009262001653575b50506000198260011b9260031b1c19161781555b602084015180519067ffffffffffffffff82116200099357819062001185600185015462001f84565b601f8111620015fb575b50602090601f8311600114620015845760009262001578575b50506000198260011b9260031b1c19161760018201555b604084015180519067ffffffffffffffff82116200099357620011e6600284015462001f84565b601f81116200152c575b50602090601f8311600114620014b15791806101409492600994600092620014a5575b50506000198260011b9260031b1c19161760028201555b6060860151600382015560808601516004820155600581016001600160a01b0360a0880151168154907fffffffffffffffffffffff00000000000000000000000000000000000000000074ff000000000000000000000000000000000000000060c08b0151151560a01b1692161717905560e08601516006820155600781016001600160a01b0361010088015116907fffffffffffffffffffffffff0000000000000000000000000000000000000000918282541617905560088201906001600160a01b0361012089015116908254161790550193015192835167ffffffffffffffff8111620009935762001320825462001f84565b601f811162001458575b50602094601f8211600114620013ed57948192939495600092620013e1575b50506000198260011b9260031b1c19161790555b600654916801000000000000000083101562000993576200138c82620005bf8560016020970160065562001e60565b6001600160a01b03811660005260078352816040600020556001600160a01b0360405191168152817fe5e423600cef64b5f4620e0388d75415036da0de388da33d376934be9b0bd392843393a3604051908152f35b01519050858062001349565b601f198216958360005260206000209160005b8881106200143f5750836001959697981062001425575b505050811b0190556200135d565b015160001960f88460031b161c1916905585808062001417565b9192602060018192868501518155019401920162001400565b826000526020600020601f830160051c810191602084106200149a575b601f0160051c01905b8181106200148d57506200132a565b600081556001016200147e565b909150819062001475565b01519050888062001213565b906002840160005260206000209160005b601f198516811062001513575092610140949260019260099583601f19811610620014f9575b505050811b0160028201556200122a565b015160001960f88460031b161c19169055888080620014e8565b91926020600181928685015181550194019201620014c2565b600284016000526020600020601f840160051c81016020851062001570575b601f830160051c8201811062001563575050620011f0565b600081556001016200154b565b50806200154b565b015190508680620011a8565b9250600184016000526020600020906000935b601f1984168510620015df576001945083601f19811610620015c5575b505050811b016001820155620011bf565b015160001960f88460031b161c19169055868080620015b4565b8181015183556020948501946001909301929091019062001597565b909150600184016000526020600020601f840160051c8101602085106200164b575b90849392915b601f830160051c820181106200163b5750506200118f565b6000815585945060010162001623565b50806200161d565b01519050868062001148565b9250836000526020600020906000935b601f1984168510620016b4576001945083601f198116106200169a575b505050811b0181556200115c565b015160001960f88460031b161c191690558680806200168c565b818101518355602094850194600190930192909101906200166f565b909150836000526020600020601f840160051c8101602085106200171d575b90849392915b601f830160051c820181106200170d5750506200112f565b60008155859450600101620016f5565b5080620016ef565b606460405162461bcd60e51b815260206004820152600e60248201527f496e76616c696420706172616d730000000000000000000000000000000000006044820152fd5b5060c435151562000f41565b346200023a5760006003193601126200023a5762001792620020ec565b60006001600160a01b0381547fffffffffffffffffffffffff000000000000000000000000000000000000000081168355167f8be0079c531659141344cd1fd0a4f28419497f9722a3daafe3b4186f6b6457e08280a3005b346200023a5760206003193601126200023a576001600160a01b036200180f62001e98565b62001819620020ec565b1680156200184f577fffffffffffffffffffffffff00000000000000000000000000000000000000006008541617600855600080f35b606460405162461bcd60e51b815260206004820152600f60248201527f496e76616c6964206164647265737300000000000000000000000000000000006044820152fd5b346200023a5760206003193601126200023a576004356000526003602052604060002060405180620018c6818462001fda565b03620018d3908262002097565b6040519182620018e7816001840162001fda565b03620018f4908462002097565b6040518062001907816002850162001fda565b0362001914908262002097565b600382015490600483015460058401546006850154906001600160a01b0380600788015416938160088901541695604051806009819b0190620019579162001fda565b0362001964908a62002097565b6040519a8b9a610160808d528c016200197d9162001db7565b8b810360208d0152620019909162001db7565b8a810360408c0152620019a39162001db7565b9660608a01526080890152811660a088015260a01c60ff16151560c087015260e086015261010085015261012084015282810361014084015262000ce49162001db7565b346200023a5760006003193601126200023a57600680549062001a0a826200225c565b9062001a168362002293565b62001a21846200225c565b9062001a2d856200225c565b9462001a39816200225c565b9360005b82811062001aa05762000ca88762000ce48862001a918c62001a828b62001a738c604051998a9960a08b5260a08b019062001eaf565b90878203604089015262001eaf565b90858203606087015262001eaf565b90838203608085015262001f45565b806001600160a01b0360078962001abb62001b3e9562001e60565b9054600391821b1c806000528160205262001adc86604060002094620022e4565b5260405162001af48162000d41816002870162001fda565b62001b00868b620022e4565b5262001b0d858a620022e4565b5081015462001b1d858b620022e4565b528086015462001b2e858e620022e4565b5201541662000db08289620022e4565b62001a3d565b346200023a5760406003193601126200023a576024356001600160a01b0381168091036200023a5760043560005260046020526040600020906000526020526020604060002054604051908152f35b346200023a5760206003193601126200023a576001600160a01b0362001bb862001e98565b62001bc2620020ec565b167fffffffffffffffffffffffff00000000000000000000000000000000000000006009541617600955600080f35b346200023a5760006003193601126200023a5760206001600160a01b0360095416604051908152f35b346200023a5760206003193601126200023a576004356005548110156200023a57620003dd60209162001df9565b346200023a5760206003193601126200023a57600435600052600360205262001d26604060002062000ce4600582015460096001600160a01b03918281169262001c94841515620021ad565b60038601549360ff6006880154938360078a0154169360088a0154169462001d356040519a62001cd28c62001cca818462001fda565b038d62002097565b62001d106040519162001cf68362001cee816002850162001fda565b038462002097565b62001d08604051809c81930162001fda565b038a62002097565b6040519c8d9c8d61012090818152019062001db7565b8c810360208e01529062001db7565b9760408b015260608a015260a01c161515608088015260a087015260c086015260e085015283820361010085015262001db7565b346200023a5760006003193601126200023a5760606002546005546006549060405192835260208301526040820152f35b346200023a5760006003193601126200023a576020906002548152f35b919082519283825260005b84811062001de4575050601f19601f8460006020809697860101520116010190565b60208183018101518483018201520162001dc2565b60055481101562001e315760056000527f036b6384b5eca791c62761152d0c79bb0604c104a5fb6f4eb0703f3154bb3db00190600090565b7f4e487b7100000000000000000000000000000000000000000000000000000000600052603260045260246000fd5b60065481101562001e315760066000527ff652222313e28459528d920b65115c16c04f3efc82aaedc97be59f3f377c0d3f0190600090565b600435906001600160a01b03821682036200023a57565b90815180825260208080930193019160005b82811062001ed0575050505090565b83518552938101939281019260010162001ec1565b908082519081815260208091019281808460051b8301019501936000915b84831062001f145750505050505090565b909192939495848062001f3483601f1986600196030187528a5162001db7565b980193019301919493929062001f03565b90815180825260208080930193019160005b82811062001f66575050505090565b83516001600160a01b03168552938101939281019260010162001f57565b90600182811c9216801562001fcf575b602083101462001fa057565b7f4e487b7100000000000000000000000000000000000000000000000000000000600052602260045260246000fd5b91607f169162001f94565b906000929180549162001fed8362001f84565b91828252600193848116908160001462002054575060011462002011575b50505050565b90919394506000526020928360002092846000945b8386106200203f5750505050010190388080806200200b565b80548587018301529401938590820162002026565b91505060209495507fffffffffffffffffffffffffffffffffffffffffffffffffffffffffffffff009193501683830152151560051b010190388080806200200b565b90601f601f19910116810190811067ffffffffffffffff8211176200099357604052565b9181601f840112156200023a5782359167ffffffffffffffff83116200023a57602083818601950101116200023a57565b6001600160a01b036000541633036200210157565b60246040517f118cdaa7000000000000000000000000000000000000000000000000000000008152336004820152fd5b600019811462000a9a5760010190565b601f8260209493601f19938186528686013760008582860101520116010190565b92919267ffffffffffffffff82116200099357604051916200218f6020601f19601f840116018462002097565b8294818452818301116200023a578281602093846000960137010152565b15620021b557565b606460405162461bcd60e51b815260206004820152600f60248201527f4167656e74206e6f7420666f756e6400000000000000000000000000000000006044820152fd5b9190820180921162000a9a57565b8181029291811591840414171562000a9a57565b9190820391821162000a9a57565b908160209103126200023a575180151581036200023a5790565b67ffffffffffffffff8111620009935760051b60200190565b90620022688262002243565b62002277604051918262002097565b828152601f1962002289829462002243565b0190602036910137565b906200229f8262002243565b620022ae604051918262002097565b828152601f19620022c0829462002243565b019060005b828110620022d257505050565b806060602080938501015201620022c5565b805182101562001e315760209160051b01019056fe610160806040523462000142576200490e90813803809262000021826200015d565b823981810190610100809312620001425780516001600160401b03929083811162000142578162000054918401620001db565b91610180518481116200014257826200006f918301620001db565b6101a05185811162000142578362000089918401620001db565b6101c051868111620001425784620000a3918501620001db565b906101e051878111620001425785620000be918601620001db565b926102005194620000ce62000241565b9661024051998a116200014257620000f399620000ec9201620001db565b9662000a1d565b6040516131bf91826200170f83396080518261255c015260a05182612617015260c0518261252d015260e051826125ab015251816125d101526101205181610f5101526101405181610f7a0152f35b600080fd5b634e487b7160e01b600052604160045260246000fd5b601f01601f1916610160908101906001600160401b038211908210176200018357604052565b62000147565b604081019081106001600160401b038211176200018357604052565b60405190620001b48262000189565b565b60005b838110620001ca5750506000910152565b8181015183820152602001620001b9565b81601f82011215620001425780516001600160401b0392838211620001835760405193601f8301601f19908116603f011685019081118582101762000183576040528184526020828401011162000142576200023e9160208085019101620001b6565b90565b61022051906001600160a01b03821682036200014257565b90600182811c921680156200028b575b60208310146200027557565b634e487b7160e01b600052602260045260246000fd5b91607f169162000269565b601f8111620002a3575050565b6000906003825260208220906020601f850160051c83019410620002e4575b601f0160051c01915b828110620002d857505050565b818155600101620002cb565b9092508290620002c2565b601f8111620002fc575050565b6000906004825260208220906020601f850160051c830194106200033d575b601f0160051c01915b8281106200033157505050565b81815560010162000324565b90925082906200031b565b601f811162000355575050565b600090600d825260208220906020601f850160051c8301941062000396575b601f0160051c01915b8281106200038a57505050565b8181556001016200037d565b909250829062000374565b601f8111620003ae575050565b600090600e825260208220906020601f850160051c83019410620003ef575b601f0160051c01915b828110620003e357505050565b818155600101620003d6565b9092508290620003cd565b601f811162000407575050565b600090600f825260208220906020601f850160051c8301941062000448575b601f0160051c01915b8281106200043c57505050565b8181556001016200042f565b909250829062000426565b601f811162000460575050565b6000906010825260208220906020601f850160051c83019410620004a1575b601f0160051c01915b8281106200049557505050565b81815560010162000488565b90925082906200047f565b601f8111620004b9575050565b6000906005825260208220906020601f850160051c83019410620004fa575b601f0160051c01915b828110620004ee57505050565b818155600101620004e1565b9092508290620004d8565b601f811162000512575050565b6000906006825260208220906020601f850160051c8301941062000553575b601f0160051c01915b8281106200054757505050565b8181556001016200053a565b909250829062000531565b80519091906001600160401b03811162000183576200058a816200058460045462000259565b620002ef565b602080601f8311600114620005c95750819293600092620005bd575b50508160011b916000199060031b1c191617600455565b015190503880620005a6565b6004600052601f198316949091907f8a35acfbc15ff81a39ae7d344fd709f28e8600b4aa8c65c6b64bfe7fe36bd19b926000905b878210620006385750508360019596106200061e575b505050811b01600455565b015160001960f88460031b161c1916905538808062000613565b80600185968294968601518155019501930190620005fd565b80519091906001600160401b03811162000183576200067d8162000677600d5462000259565b62000348565b602080601f8311600114620006bc5750819293600092620006b0575b50508160011b916000199060031b1c191617600d55565b01519050388062000699565b600d600052601f198316949091907fd7b6990105719101dabeb77144f2a3385c8033acd3af97e9423a695e81ad1eb5926000905b8782106200072b57505083600195961062000711575b505050811b01600d55565b015160001960f88460031b161c1916905538808062000706565b80600185968294968601518155019501930190620006f0565b80519091906001600160401b038111620001835762000770816200076a600e5462000259565b620003a1565b602080601f8311600114620007af5750819293600092620007a3575b50508160011b916000199060031b1c191617600e55565b0151905038806200078c565b600e600052601f198316949091907fbb7b4a454dc3493923482f07822329ed19e8244eff582cc204f8554c3620c3fd926000905b8782106200081e57505083600195961062000804575b505050811b01600e55565b015160001960f88460031b161c19169055388080620007f9565b80600185968294968601518155019501930190620007e3565b80519091906001600160401b038111620001835762000863816200085d600f5462000259565b620003fa565b602080601f8311600114620008a2575081929360009262000896575b50508160011b916000199060031b1c191617600f55565b0151905038806200087f565b600f600052601f198316949091907f8d1108e10bcb7c27dddfc02ed9d693a074039d026cf4ea4240b40f7d581ac802926000905b87821062000911575050836001959610620008f7575b505050811b01600f55565b015160001960f88460031b161c19169055388080620008ec565b80600185968294968601518155019501930190620008d6565b80519091906001600160401b038111620001835762000956816200095060105462000259565b62000453565b602080601f831160011462000995575081929360009262000989575b50508160011b916000199060031b1c191617601055565b01519050388062000972565b6010600052601f198316949091907f1b6847dc741a1b0cd08d278845f9d819d87b734759afb55fe2de5cb82a9ae672926000905b87821062000a04575050836001959610620009ea575b505050811b01601055565b015160001960f88460031b161c19169055388080620009df565b80600185968294968601518155019501930190620009c9565b969192969493946040519062000a338262000189565b600180835260209081840194603160f81b8652835160018060401b038111620001835762000a6e8162000a6860035462000259565b62000296565b8392601f821160011462000b725781809162000aa49560009362000b66575b501b916000199060031b1c1916176003556200055e565b62000aaf8262001015565b6101205262000abe8362001125565b61014052815191012060e052519020610100524660a05262000adf620012a4565b6080523060c0526001600160a01b0385161562000b4d5762000b3962000b469462000b33620001b49862000b2d62000b3f9662000b1c8b62000bfe565b62000b276001600c55565b62000651565b62000744565b62000837565b6200092a565b8262000f27565b8062000c47565b604051631e4fbdf760e01b815260006004820152602490fd5b88015192503862000a8d565b60036000529192601f198216907fc2575a0e9e593c00f959f8c92f12db2869c3395a3b0502d05e2516446f71f85b9160005b8782821062000be9575050908362000aa496959493921062000bcf575b5050811b016003556200055e565b87015160001960f88460031b161c19169055388062000bc1565b89840151855593860193928301920162000ba4565b600b80546001600160a01b039283166001600160a01b0319821681179092559091167f8be0079c531659141344cd1fd0a4f28419497f9722a3daafe3b4186f6b6457e0600080a3565b6001600160a01b0390811660008181526008602052604080822080548686166001600160a01b031982168117909255620001b4969516949391929185907f3134e8a2e6d97e929a7e54011ea5485d7d196dd5f0ba4d4ef95803e8e3fc257f8480a4806020522054915b6001600160a01b0380831693929190811690818514158062000e49575b62000cda575b5050505050565b8162000d56575b50508262000cf2575b808062000cd3565b6001600160a01b03166000908152600960205260409020600080516020620048ee8339815191529162000d329162000d2b909162001310565b9062000e53565b604080516001600160d01b039384168152919092166020820152a238808062000cea565b6001600160a01b0316600090815260096020526040902062000d788462001310565b9065ffffffffffff9081431162000e2a57805460008162000de55750509062000dc29162000db8600080516020620048ee833981519152946000620016da565b914316906200151e565b604080516001600160d01b039384168152919092166020820152a2388062000ce1565b6000939291931994848681011162000e2457600080516020620048ee8339815191529562000dc2956020848662000db896522001015460301c620016da565b62000f11565b6040516306dfcc6560e41b815260306004820152436024820152604490fd5b5083151562000ccd565b65ffffffffffff9081431162000e2a57805460008162000e8457505062000db862000e80936000620016f4565b9091565b9093600019858181011162000e245762000e80956020848662000db896522001015460301c620016f4565b65ffffffffffff80431162000e2a57600a5460008162000ee557505062000edc62000e80926000620016da565b90431662001422565b9092600019848181011162000e245762000e8094602084600a62000edc96522001015460301c620016da565b634e487b7160e01b600052601160045260246000fd5b906001600160a01b038216801562000ffc5762000f5062000f4b83600254620016cc565b600255565b6001600160a01b038316600090815260208181526040808320805486019055518481527fddf252ad1be2c89b69c2b068fc378daa952ba7f163c4a11628f55a4df523b3ef9190a36002546001600160d01b03811162000fd5575062000fb69082620015eb565b6015546001600160a01b03909116600090815260146020526040902055565b604051630e58ae9360e11b815260048101919091526001600160d01b036024820152604490fd5b60405163ec442f0560e01b815260006004820152602490fd5b908151602080821060001462001033575050906200023e9062001235565b6001600160401b03821162000183576200105a826200105460055462000259565b620004ac565b80601f83116001146200109a57508192936000926200108e575b50508160011b916000199060031b1c19161760055560ff90565b01519050388062001074565b6005600052601f198316949091907f036b6384b5eca791c62761152d0c79bb0604c104a5fb6f4eb0703f3154bb3db0926000905b8782106200110c575050836001959610620010f2575b505050811b0160055560ff90565b015160001960f88460031b161c19169055388080620010e4565b80600185968294968601518155019501930190620010ce565b908151602080821060001462001143575050906200023e9062001235565b6001600160401b03821162000183576200116a826200116460065462000259565b62000505565b80601f8311600114620011aa57508192936000926200119e575b50508160011b916000199060031b1c19161760065560ff90565b01519050388062001184565b6006600052601f198316949091907ff652222313e28459528d920b65115c16c04f3efc82aaedc97be59f3f377c0d3f926000905b8782106200121c57505083600195961062001202575b505050811b0160065560ff90565b015160001960f88460031b161c19169055388080620011f4565b80600185968294968601518155019501930190620011de565b601f8151116200126357602081519101516020821062001253571790565b6000198260200360031b1b161790565b6044604051809263305a27a960e01b825260206004830152620012968151809281602486015260208686019101620001b6565b601f01601f19168101030190fd5b60e051610100516040519060208201927f8b73c3c69bb8fe3d512ecc4cf759cc79239f7b179b0ffacaa9a75d522b39400f8452604083015260608201524660808201523060a082015260a0815260c0810181811060018060401b03821117620001835760405251902090565b6001600160d01b039081811162001325571690565b604490604051906306dfcc6560e41b825260d060048301526024820152fd5b60001981019190821162000e2457565b600a54906801000000000000000082101562000183576001820180600a55821015620013b657600a60005280516020919091015160301b65ffffffffffff191665ffffffffffff9190911617600080516020620048ce83398151915290910155565b634e487b7160e01b600052603260045260246000fd5b90815468010000000000000000811015620001835760018101808455811015620013b65760009283526020928390208251929093015160301b65ffffffffffff191665ffffffffffff9290921691909117910155565b600a549192918015620014ef576200143e620014579162001344565b600a600052600080516020620048ce8339815191520190565b9081549165ffffffffffff90818416918316808311620014dd578692036200149f576200149892509065ffffffffffff82549181199060301b169116179055565b60301c9190565b5050620014d790620014c2620014b4620001a5565b65ffffffffffff9092168252565b6001600160d01b038516602082015262001354565b62001498565b604051632520601d60e01b8152600490fd5b50620015189062001503620014b4620001a5565b6001600160d01b038416602082015262001354565b60009190565b80549293928015620015c15762001539620015469162001344565b8260005260206000200190565b9182549265ffffffffffff91828516928116808411620014dd578793036200158857506200149892509065ffffffffffff82549181199060301b169116179055565b915050620014d791620015ac6200159e620001a5565b65ffffffffffff9093168352565b6001600160d01b0386166020830152620013cc565b50906200151891620015d66200159e620001a5565b6001600160d01b0385166020830152620013cc565b90620015f78162001310565b9165ffffffffffff80431162000e2a57600a54600081620016995750506200162a9062000edc620001b4956000620016f4565b50506001600160a01b039081169081156200167c575b60086020527f5eff886ea0ce6ca488a3d6e336d6c0f75f46d19b42c06ce5ee98e42c96d256c75460009283526040909220548116911662000cb0565b620016916200168b8462001310565b62000eaf565b505062001640565b60009291921995838781011162000e2457620001b4966200162a94602084600a62000edc96522001015460301c620016f4565b9190820180921162000e2457565b6001600160d01b039182169082160390811162000e245790565b6001600160d01b039182169082160190811162000e24579056fe6080604052600436101561001257600080fd5b60003560e01c806303ee438c146102e257806306fdde03146102dd578063084278ec146102d8578063095ea7b3146102d35780630e4b2285146102ce578063139ba769146102c957806318160ddd146102c45780631f454923146102bf57806323b872dd146102ba578063313ce567146102b55780633644e515146102b05780633a46b1a8146102ab5780633c19804e146102a657806344e43cb8146102a15780634bf5d7e91461029c5780634eea6d79146102975780634f4dac6f14610242578063564f4f7614610292578063587cde1e1461028d5780635c19a95c146102885780636fcfff451461028357806370a082311461027e578063715018a614610279578063750521f5146102745780637ecebe001461026f57806381a2b38f1461026a57806384b0196e14610265578063881e1cff146102605780638b7afe2e1461025b5780638da5cb5b146102565780638e539e8c1461025157806391ddadf41461024c57806395d89b41146102475780639a6f99f9146102425780639ab24eb01461023d578063a9059cbb14610238578063b20a6f3614610233578063bf2d9e0b1461022e578063c3cda52014610229578063d505accf14610224578063d5f6aeb41461021f578063db2e21bc1461021a578063dd62ed3e14610215578063f1127ed8146102105763f2fde38b1461020b57600080fd5b611826565b61175b565b6116fe565b6116c0565b61154f565b6113d0565b6112ee565b6112b0565b611292565b61126c565b61120f565b610a1e565b6111eb565b6111bf565b6110cc565b6110a5565b611089565b61104a565b610f36565b610f12565b610ed8565b610d5c565b610c9e565b610c66565b610be5565b610bc1565b610b86565b610a41565b610982565b610854565b61073c565b610718565b61061e565b6105fb565b6105df565b61050a565b61048a565b61046c565b610432565b61040e565b6103dd565b610393565b61036f565b610327565b919082519283825260005b848110610313575050601f19601f8460006020809697860101520116010190565b6020818301810151848301820152016102f2565b3461036a57600060031936011261036a576103666040516103528161034b81611ce5565b03826119a7565b6040519182916020835260208301906102e7565b0390f35b600080fd5b3461036a57600060031936011261036a576103666040516103528161034b81611d8a565b3461036a57600060031936011261036a576020601554604051908152f35b600435906001600160a01b038216820361036a57565b602435906001600160a01b038216820361036a57565b3461036a57604060031936011261036a576104036103f96103b1565b60243590336121db565b602060405160018152f35b3461036a57600060031936011261036a576103666040516103528161034b81611e11565b3461036a57602060031936011261036a576001600160a01b036104536103b1565b1660005260136020526020604060002054604051908152f35b3461036a57600060031936011261036a576020600254604051908152f35b3461036a57604060031936011261036a576104a36103b1565b6024359081151580920361036a5760206001600160a01b037f7390412ce304891b69b7a6d7722b373a8172b465ce957518d396801bc35e0872926104e56118dd565b16928360005260168252604060002060ff1981541660ff8316179055604051908152a2005b3461036a57606060031936011261036a576105236103b1565b61052b6103c7565b604435906001600160a01b0383166000526001602052610562336040600020906001600160a01b0316600052602052604060002090565b54926000198410610584575b610578935061202d565b60405160018152602090f35b8284106105a05761059b83610578950333836122c1565b61056e565b6040517ffb8f41b20000000000000000000000000000000000000000000000000000000081523360048201526024810185905260448101849052606490fd5b3461036a57600060031936011261036a57602060405160128152f35b3461036a57600060031936011261036a576020610616612523565b604051908152f35b3461036a57604060031936011261036a576001600160a01b0361063f6103b1565b1660009081526009602052604081209061065a6024356119d9565b918054829381600581116106be575b50906020946106789284612e9a565b806106a45750505b79ffffffffffffffffffffffffffffffffffffffffffffffffffff60405191168152f35b916106b08492936128f3565b92815220015460301c610680565b946106c88661293d565b8603958611610713576020956106789385875265ffffffffffff80838a8a20015416908516106000146107015750915b91925094610669565b92915061070d90612902565b906106f8565b611c95565b3461036a57600060031936011261036a576103666040516103528161034b81611e98565b600060031936011261036a5761077661077261076b336001600160a01b03166000526016602052604060002090565b5460ff1690565b1590565b8061082a575b610800573461078757005b61079b61079634601154612910565b601155565b600254806107d5575b5060405134815233907ff3a9b3760e99454de4c494f7ed29f5204ab92febacb0acf52ea04ad4a9d2246690602090a2005b6107f56107ed6107fa926107e83461300b565b61291d565b601554612910565b601555565b386107a4565b60046040517f614d358c000000000000000000000000000000000000000000000000000000008152fd5b5061084c610840600b546001600160a01b031690565b6001600160a01b031690565b33141561077c565b3461036a57600060031936011261036a5761086e436128a8565b65ffffffffffff8061087f436128a8565b169116036108d45761036660405161089681611937565b601d81527f6d6f64653d626c6f636b6e756d6265722666726f6d3d64656661756c7400000060208201526040519182916020835260208301906102e7565b60046040517f6ff07140000000000000000000000000000000000000000000000000000000008152fd5b95979491936109456109619461093761097f9c9a97610929610953968c6101208091528d01906102e7565b908b820360208d01526102e7565b9089820360408b01526102e7565b9087820360608901526102e7565b9085820360808701526102e7565b9460a084015260c083015260e08201526101008184039101526102e7565b90565b3461036a57600060031936011261036a57604080516109a48161034b81611d8a565b6103668251926109be846109b781611f1f565b03856119a7565b6002546011546012549183516109d78161034b81611e98565b84516109e68161034b81611e11565b8551916109fd836109f681611ce5565b03846119a7565b865196610a1488610a0d81611fa6565b03896119a7565b51998a998a6108fe565b3461036a57602060031936011261036a576020610616610a3c6103b1565b613068565b3461036a57600080600319360112610b83576002600c5414610b59576002600c55610a6b33613068565b8015610b2f57336000908152601360205260409020610a8b828254612910565b905560155433600090815260146020526040902055610ab4610aaf82601254612910565b601255565b8180808084335af1610ac4613028565b5015610b055760405190815233907fc15f451120b13b6b40c6ad6203614ab3088308bef9150c0d6f46ea79bf46422490602090a2610b026001600c55565b80f35b60046040517f90b8ec18000000000000000000000000000000000000000000000000000000008152fd5b60046040517f02a1c5ba000000000000000000000000000000000000000000000000000000008152fd5b60046040517f3ee5aeb5000000000000000000000000000000000000000000000000000000008152fd5b80fd5b3461036a57602060031936011261036a5760206001600160a01b0380610baa6103b1565b166000526008825260406000205416604051908152f35b3461036a57602060031936011261036a57610be3610bdd6103b1565b33611a33565b005b3461036a57602060031936011261036a576001600160a01b03610c066103b1565b16600052600960205260406000205463ffffffff90818111610c2e5760209160405191168152f35b604490604051907f6dfcc650000000000000000000000000000000000000000000000000000000008252602060048301526024820152fd5b3461036a57602060031936011261036a576020610616610c846103b1565b6001600160a01b0316600052600060205260406000205490565b3461036a57600080600319360112610b8357610cb86118dd565b806001600160a01b03600b547fffffffffffffffffffffffff00000000000000000000000000000000000000008116600b55167f8be0079c531659141344cd1fd0a4f28419497f9722a3daafe3b4186f6b6457e08280a380f35b90602060031983011261036a5760043567ffffffffffffffff9283821161036a578060238301121561036a57816004013593841161036a576024848301011161036a576024019190565b3461036a57610d6a36610d12565b610d726118dd565b8015610eae5767ffffffffffffffff8111610ea957610d9b81610d96600f54611cab565b612f01565b600091601f8211600114610e0857817f1c306e70c05992619e2128ad1ef88df75f36c9476282e59f51401b2abaa42e4e93600091610dfd575b508260011b906000198460031b1c191617600f555b610df860405192839283612fe3565b0390a1005b905081013538610dd4565b600f6000527f8d1108e10bcb7c27dddfc02ed9d693a074039d026cf4ea4240b40f7d581ac802601f198316845b818110610e91575093837f1c306e70c05992619e2128ad1ef88df75f36c9476282e59f51401b2abaa42e4e9510610e77575b5050600182811b01600f55610de9565b60001960f88560031b161c19908301351690553880610e67565b83860135835560209586019560019093019201610e35565b611921565b60046040517feec403f0000000000000000000000000000000000000000000000000000000008152fd5b3461036a57602060031936011261036a576001600160a01b03610ef96103b1565b1660005260076020526020604060002054604051908152f35b3461036a57600060031936011261036a576103666040516103528161034b81611fa6565b3461036a57600080600319360112610b8357610ffc90610f757f000000000000000000000000000000000000000000000000000000000000000061267e565b610f9e7f000000000000000000000000000000000000000000000000000000000000000061278f565b9160405191610fac83611953565b8183526040519485947f0f000000000000000000000000000000000000000000000000000000000000008652610fee60209360e08589015260e08801906102e7565b9086820360408801526102e7565b904660608601523060808601528260a086015284820360c08601528080855193848152019401925b82811061103357505050500390f35b835185528695509381019392810192600101611024565b3461036a57602060031936011261036a576001600160a01b0361106b6103b1565b166000526016602052602060ff604060002054166040519015158152f35b3461036a57600060031936011261036a57602047604051908152f35b3461036a57600060031936011261036a5760206001600160a01b03600b5416604051908152f35b3461036a57602060031936011261036a576110e86004356119d9565b600a54906000829160058411611152575b6111039350612e1f565b60008161111857505060405160008152602090f35b600a6111256020936128f3565b91527fc65a7bb8d6351c1cf70c95a316cc6a92839c986682d98bc35f958f4883f9d2a8015460301c610680565b919261115d8161293d565b81039081116107135761110393600a835265ffffffffffff80837fc65a7bb8d6351c1cf70c95a316cc6a92839c986682d98bc35f958f4883f9d2a8015416908516106000146111ad5750916110f9565b9291506111b990612902565b906110f9565b3461036a57600060031936011261036a5760206111db436128a8565b65ffffffffffff60405191168152f35b3461036a57600060031936011261036a576103666040516103528161034b81611f1f565b3461036a57602060031936011261036a576001600160a01b036112306103b1565b166000526009602052602079ffffffffffffffffffffffffffffffffffffffffffffffffffff6112636040600020612ac9565b16604051908152f35b3461036a57604060031936011261036a576104036112886103b1565b602435903361202d565b3461036a57600060031936011261036a576020601254604051908152f35b3461036a57600060031936011261036a576020601154604051908152f35b6064359060ff8216820361036a57565b6084359060ff8216820361036a57565b3461036a5760c060031936011261036a576113076103b1565b604435906024356113166112ce565b83421161139f57611393610be39461139a926040519060208201927fe48329057bfd03d55e49b547132e39cffd9c1820ad7b9d4c5307691425d15adf84526001600160a01b038816604084015286606084015260808301526080825261137b8261196f565b61138e60a435936084359351902061263d565b612384565b9182612312565b611a33565b602484604051907f4683af0e0000000000000000000000000000000000000000000000000000000082526004820152fd5b3461036a5760e060031936011261036a576113e96103b1565b6113f16103c7565b604435906064356114006112de565b81421161151e579061149d6114be926114ab611438886001600160a01b03166000526007602052604060002080549060018201905590565b9360405193849160208301968a8a8d8a91959493909260a09360c08401977f6e71edae12b1b97f4d1f60370fef10105fa2faae0126114a169c64845d6126c985526001600160a01b038092166020860152166040840152606083015260808201520152565b03601f1981018452836119a7565b61138e60c4359360a4359351902061263d565b6001600160a01b03808516908216036114db5750610be3926121db565b6040517f4b800e460000000000000000000000000000000000000000000000000000000081526001600160a01b0391821660048201529084166024820152604490fd5b602482604051907f627913020000000000000000000000000000000000000000000000000000000082526004820152fd5b3461036a5761155d36610d12565b6115656118dd565b80156116965767ffffffffffffffff8111610ea95761158e81611589601054611cab565b612f72565b600091601f82116001146115f557817f732d2e87dcc1907685c097f7373a47d8c7cd8ef98b659b5f2d4272b26aab48a7936000916115ea575b508260011b906000198460031b1c191617601055610df860405192839283612fe3565b9050810135386115c7565b60106000527f1b6847dc741a1b0cd08d278845f9d819d87b734759afb55fe2de5cb82a9ae672601f198316845b81811061167e575093837f732d2e87dcc1907685c097f7373a47d8c7cd8ef98b659b5f2d4272b26aab48a79510611664575b5050600182811b01601055610de9565b60001960f88560031b161c19908301351690553880611654565b83860135835560209586019560019093019201611622565b60046040517f3d9e4cad000000000000000000000000000000000000000000000000000000008152fd5b3461036a57600080600319360112610b83576116da6118dd565b80808080476001600160a01b03600b54165af16116f5613028565b5015610b055780f35b3461036a57604060031936011261036a57602061175261171c6103b1565b6001600160a01b0361172c6103c7565b9116600052600183526040600020906001600160a01b0316600052602052604060002090565b54604051908152f35b3461036a57604060031936011261036a576117746103b1565b6024359063ffffffff8216820361036a57610366916001600160a01b036117c39261179d6122f9565b506117a66122f9565b5016600052600960205260406000206117bd6122f9565b50612af7565b50604051906117d182611937565b5465ffffffffffff8116825260301c602082015260405191829182919091602079ffffffffffffffffffffffffffffffffffffffffffffffffffff81604084019565ffffffffffff8151168552015116910152565b3461036a57602060031936011261036a5761183f6103b1565b6118476118dd565b6001600160a01b038091169081156118ac57600b54827fffffffffffffffffffffffff0000000000000000000000000000000000000000821617600b55167f8be0079c531659141344cd1fd0a4f28419497f9722a3daafe3b4186f6b6457e0600080a3005b60246040517f1e4fbdf700000000000000000000000000000000000000000000000000000000815260006004820152fd5b6001600160a01b03600b541633036118f157565b60246040517f118cdaa7000000000000000000000000000000000000000000000000000000008152336004820152fd5b634e487b7160e01b600052604160045260246000fd5b6040810190811067ffffffffffffffff821117610ea957604052565b6020810190811067ffffffffffffffff821117610ea957604052565b60a0810190811067ffffffffffffffff821117610ea957604052565b60c0810190811067ffffffffffffffff821117610ea957604052565b90601f601f19910116810190811067ffffffffffffffff821117610ea957604052565b604051906119d782611937565b565b65ffffffffffff6119e9436128a8565b16808210156119fc575061097f906128a8565b60449250604051917fecd3f81e00000000000000000000000000000000000000000000000000000000835260048301526024820152fd5b6119d791611ac86001600160a01b03927fffffffffffffffffffffffff0000000000000000000000000000000000000000848216948560005260086020526040600020958654968288169788938816948591161790557f3134e8a2e6d97e929a7e54011ea5485d7d196dd5f0ba4d4ef95803e8e3fc257f600080a46001600160a01b0316600052600060205260406000205490565b915b91906001600160a01b0392838216938116908482141580611c43575b611af2575b5050505050565b81611b8e575b505082611b07575b8080611aeb565b7fdec2bacdd2f05b59de34da9b523dff8be42e5e38e818c82fdb0bae774387a72491611b52611b4c611b58936001600160a01b03166000526009602052604060002090565b91612849565b90611c4c565b6040805179ffffffffffffffffffffffffffffffffffffffffffffffffffff9384168152919092166020820152a2388080611b00565b611bab906001600160a01b03166000526009602052604060002090565b611bb484612849565b611bbd436128a8565b79ffffffffffffffffffffffffffffffffffffffffffffffffffff918280611be486612ac9565b169116900392828411610713577fdec2bacdd2f05b59de34da9b523dff8be42e5e38e818c82fdb0bae774387a72493611c3992611c2092612d38565b6040805192851683529316602082015291829190820190565b0390a23880611af8565b50831515611ae6565b90611c56436128a8565b79ffffffffffffffffffffffffffffffffffffffffffffffffffff918280611c7d86612ac9565b16911601918211611c9557611c9192612d38565b9091565b634e487b7160e01b600052601160045260246000fd5b90600182811c92168015611cdb575b6020831014611cc557565b634e487b7160e01b600052602260045260246000fd5b91607f1691611cba565b600f5460009291611cf582611cab565b80825291600190818116908115611d6c5750600114611d1357505050565b91929350600f6000527f8d1108e10bcb7c27dddfc02ed9d693a074039d026cf4ea4240b40f7d581ac802916000925b848410611d5457505060209250010190565b80546020858501810191909152909301928101611d42565b9050602094955060ff1991509291921683830152151560051b010190565b60035460009291611d9a82611cab565b80825291600190818116908115611d6c5750600114611db857505050565b9192935060036000527fc2575a0e9e593c00f959f8c92f12db2869c3395a3b0502d05e2516446f71f85b916000925b848410611df957505060209250010190565b80546020858501810191909152909301928101611de7565b600e5460009291611e2182611cab565b80825291600190818116908115611d6c5750600114611e3f57505050565b91929350600e6000527fbb7b4a454dc3493923482f07822329ed19e8244eff582cc204f8554c3620c3fd916000925b848410611e8057505060209250010190565b80546020858501810191909152909301928101611e6e565b600d5460009291611ea882611cab565b80825291600190818116908115611d6c5750600114611ec657505050565b91929350600d6000527fd7b6990105719101dabeb77144f2a3385c8033acd3af97e9423a695e81ad1eb5916000925b848410611f0757505060209250010190565b80546020858501810191909152909301928101611ef5565b60045460009291611f2f82611cab565b80825291600190818116908115611d6c5750600114611f4d57505050565b9192935060046000527f8a35acfbc15ff81a39ae7d344fd709f28e8600b4aa8c65c6b64bfe7fe36bd19b916000925b848410611f8e57505060209250010190565b80546020858501810191909152909301928101611f7c565b60105460009291611fb682611cab565b80825291600190818116908115611d6c5750600114611fd457505050565b9192935060106000527f1b6847dc741a1b0cd08d278845f9d819d87b734759afb55fe2de5cb82a9ae672916000925b84841061201557505060209250010190565b80546020858501810191909152909301928101612003565b90916001600160a01b038083169081156121aa57841690811561217957612067846001600160a01b03166000526000602052604060002090565b54838110612130579261212d94926120f4928261211398960361209d866001600160a01b03166000526000602052604060002090565b556120bb866001600160a01b03166000526000602052604060002090565b8054840190556040518381527fddf252ad1be2c89b69c2b068fc378daa952ba7f163c4a11628f55a4df523b3ef90602090a383836130bb565b6015549384916001600160a01b03166000526014602052604060002090565b556001600160a01b03166000526014602052604060002090565b55565b6040517fe450d38c0000000000000000000000000000000000000000000000000000000081526001600160a01b0386166004820152602481019190915260448101849052606490fd5b60246040517fec442f0500000000000000000000000000000000000000000000000000000000815260006004820152fd5b60246040517f96c6fd1e00000000000000000000000000000000000000000000000000000000815260006004820152fd5b906001600160a01b039182811692831561229057821693841561225f57806122557f8c5be1e5ebec7d5bd14f71427d1e84f3dd0314c0f7b2291e5b200ac8c7c3b9259461223d6020956001600160a01b03166000526001602052604060002090565b906001600160a01b0316600052602052604060002090565b55604051908152a3565b60246040517f94280d6200000000000000000000000000000000000000000000000000000000815260006004820152fd5b60246040517fe602df0500000000000000000000000000000000000000000000000000000000815260006004820152fd5b906001600160a01b03808316156122905781161561225f5761223d61212d926001600160a01b03166000526001602052604060002090565b6040519061230682611937565b60006020838281520152565b90612339826001600160a01b03166000526007602052604060002080549060018201905590565b809103612344575050565b604492506001600160a01b03604051927f752d88c00000000000000000000000000000000000000000000000000000000084521660048301526024820152fd5b9161097f93916123939361239c565b9092919261244c565b91907f7fffffffffffffffffffffffffffffff5d576e7357a4501ddfe92f46681b20a0841161242057926020929160ff608095604051948552168484015260408301526060820152600092839182805260015afa156124145780516001600160a01b0381161561240b57918190565b50809160019190565b604051903d90823e3d90fd5b50505060009160039190565b6004111561243657565b634e487b7160e01b600052602160045260246000fd5b6124558161242c565b8061245e575050565b6124678161242c565b600181036124995760046040517ff645eedf000000000000000000000000000000000000000000000000000000008152fd5b6124a28161242c565b600281036124dc576040517ffce698f700000000000000000000000000000000000000000000000000000000815260048101839052602490fd5b806124e860039261242c565b146124f05750565b6040517fd78bce0c0000000000000000000000000000000000000000000000000000000081526004810191909152602490fd5b6001600160a01b037f000000000000000000000000000000000000000000000000000000000000000016301480612614575b1561257e577f000000000000000000000000000000000000000000000000000000000000000090565b60405160208101907f8b73c3c69bb8fe3d512ecc4cf759cc79239f7b179b0ffacaa9a75d522b39400f82527f000000000000000000000000000000000000000000000000000000000000000060408201527f000000000000000000000000000000000000000000000000000000000000000060608201524660808201523060a082015260a0815261260e8161198b565b51902090565b507f00000000000000000000000000000000000000000000000000000000000000004614612555565b604290612648612523565b90604051917f19010000000000000000000000000000000000000000000000000000000000008352600283015260228201522090565b60ff81146126d45760ff811690601f82116126aa57604051916126a083611937565b8252602082015290565b60046040517fb3512b0c000000000000000000000000000000000000000000000000000000008152fd5b506040516005548160006126e783611cab565b8083529260019081811690811561276d575060011461270e575b5061097f925003826119a7565b6005600090815291507f036b6384b5eca791c62761152d0c79bb0604c104a5fb6f4eb0703f3154bb3db05b848310612752575061097f935050810160200138612701565b81935090816020925483858901015201910190918492612739565b6020935061097f95925060ff1991501682840152151560051b82010138612701565b60ff81146127b15760ff811690601f82116126aa57604051916126a083611937565b506040516006548160006127c483611cab565b8083529260019081811690811561276d57506001146127ea575061097f925003826119a7565b6006600090815291507ff652222313e28459528d920b65115c16c04f3efc82aaedc97be59f3f377c0d3f5b84831061282e575061097f935050810160200138612701565b81935090816020925483858901015201910190918492612815565b79ffffffffffffffffffffffffffffffffffffffffffffffffffff90818111612870571690565b604490604051907f6dfcc65000000000000000000000000000000000000000000000000000000000825260d060048301526024820152fd5b65ffffffffffff908181116128bb571690565b604490604051907f6dfcc650000000000000000000000000000000000000000000000000000000008252603060048301526024820152fd5b90600019820191821161071357565b906001820180921161071357565b9190820180921161071357565b8115612927570490565b634e487b7160e01b600052601260045260246000fd5b600181111561097f57600181700100000000000000000000000000000000811015612a68575b612a10612a066129fc6129f26129e86129de612a1c9760048868010000000000000000612a179a1015612a5b575b640100000000811015612a4e575b62010000811015612a41575b610100811015612a35575b6010811015612a29575b1015612a21575b60030260011c6129d7818b61291d565b0160011c90565b6129d7818a61291d565b6129d7818961291d565b6129d7818861291d565b6129d7818761291d565b6129d7818661291d565b809361291d565b821190565b900390565b60011b6129c7565b811c9160021b916129c0565b60081c91811b916129b6565b60101c9160081b916129ab565b60201c9160101b9161299f565b60401c9160201b91612991565b50680100000000000000009050608082901c612963565b600a5460009080612a91575050600090565b8060001981011161071357600a7fc65a7bb8d6351c1cf70c95a316cc6a92839c986682d98bc35f958f4883f9d2a79252015460301c90565b805460009181612adb57505050600090565b6000199282848101116107135760209181522001015460301c90565b8054821015612b0f5760005260206000200190600090565b634e487b7160e01b600052603260045260246000fd5b600a549068010000000000000000821015610ea9576001820180600a55821015612b0f57600a60005280516020919091015160301b65ffffffffffff191665ffffffffffff91909116177fc65a7bb8d6351c1cf70c95a316cc6a92839c986682d98bc35f958f4883f9d2a890910155565b805468010000000000000000811015610ea957612bb891600182018155612af7565b612be45781516020929092015160301b65ffffffffffff191665ffffffffffff92909216919091179055565b634e487b7160e01b600052600060045260246000fd5b600a549192918015612cfb57612c12612c3c916128f3565b600a6000527fc65a7bb8d6351c1cf70c95a316cc6a92839c986682d98bc35f958f4883f9d2a80190565b9081549165ffffffffffff90818416918316808311612cd157869203612c8657612c7f92509065ffffffffffff65ffffffffffff1983549260301b169116179055565b60301c9190565b5050612ccc90612ca5612c976119ca565b65ffffffffffff9092168252565b79ffffffffffffffffffffffffffffffffffffffffffffffffffff85166020820152612b25565b612c7f565b60046040517f2520601d000000000000000000000000000000000000000000000000000000008152fd5b50612d3290612d0b612c976119ca565b79ffffffffffffffffffffffffffffffffffffffffffffffffffff84166020820152612b25565b60009190565b80549293928015612de757612d4f612d5c916128f3565b8260005260206000200190565b9182549265ffffffffffff91828516928116808411612cd157879303612da05750612c7f92509065ffffffffffff65ffffffffffff1983549260301b169116179055565b915050612ccc91612dc0612db26119ca565b65ffffffffffff9093168352565b79ffffffffffffffffffffffffffffffffffffffffffffffffffff86166020830152612b96565b5090612d3291612df8612db26119ca565b79ffffffffffffffffffffffffffffffffffffffffffffffffffff85166020830152612b96565b905b828110612e2d57505090565b90918082169080831860011c820180921161071357600a60005265ffffffffffff80837fc65a7bb8d6351c1cf70c95a316cc6a92839c986682d98bc35f958f4883f9d2a801541690851610600014612e885750915b90612e21565b929150612e9490612902565b90612e82565b90915b838110612eaa5750505090565b9091928082169080831860011c82018092116107135781602060008681528265ffffffffffff9283922001541690871610600014612eed575050925b9190612e9d565b90949250612efb9150612902565b90612ee6565b601f8111612f0d575050565b600090600f82527f8d1108e10bcb7c27dddfc02ed9d693a074039d026cf4ea4240b40f7d581ac802906020601f850160051c83019410612f68575b601f0160051c01915b828110612f5d57505050565b818155600101612f51565b9092508290612f48565b601f8111612f7e575050565b600090601082527f1b6847dc741a1b0cd08d278845f9d819d87b734759afb55fe2de5cb82a9ae672906020601f850160051c83019410612fd9575b601f0160051c01915b828110612fce57505050565b818155600101612fc2565b9092508290612fb9565b90601f83604094601f1993602086528160208701528686013760008582860101520116010190565b90670de0b6b3a76400009182810292818404149015171561071357565b3d15613063573d9067ffffffffffffffff8211610ea957604051916130576020601f19601f84011601846119a7565b82523d6000602084013e565b606090565b6001600160a01b0316600052600060205260406000205480156130b55760155460146020526040600020548103908111610713578082029182040361071357670de0b6b3a7640000900490565b50600090565b6001600160a01b0390811692918190841561315a575b169081156130ff575b6119d79360005260086020528060406000205416916000526040600020541690611aca565b61310883612849565b93613112436128a8565b79ffffffffffffffffffffffffffffffffffffffffffffffffffff958680613138612a7f565b1691169003958611610713576119d79561315191612bfa565b505093506130da565b905061316583612849565b9061316f436128a8565b79ffffffffffffffffffffffffffffffffffffffffffffffffffff928380613195612a7f565b169116019283116107135783926131ab91612bfa565b50506130d156fea164736f6c6343000814000ac65a7bb8d6351c1cf70c95a316cc6a92839c986682d98bc35f958f4883f9d2a8dec2bacdd2f05b59de34da9b523dff8be42e5e38e818c82fdb0bae774387a724a164736f6c6343000814000a","opcodes":"PUSH1 0x80 CALLVALUE PUSH2 0x11D JUMPI PUSH1 0x1F PUSH3 0x6D4D CODESIZE DUP2 SWAP1 SUB SWAP2 DUP3 ADD PUSH1 0x1F NOT AND DUP4 ADD SWAP2 PUSH1 0x1 PUSH1 0x1 PUSH1 0x40 SHL SUB DUP4 GT DUP5 DUP5 LT OR PUSH2 0x122 JUMPI DUP1 DUP5 SWAP3 PUSH1 0x20 SWAP5 PUSH1 0x40 MSTORE DUP4 CODECOPY DUP2 ADD SUB SLT PUSH2 0x11D JUMPI MLOAD PUSH1 0x1 PUSH1 0x1 PUSH1 0xA0 SHL SUB DUP1 DUP3 AND SWAP2 DUP3 SWAP1 SUB PUSH2 0x11D JUMPI CALLER ISZERO PUSH2 0x104 JUMPI PUSH1 0x0 SLOAD SWAP1 PUSH1 0x1 DUP1 PUSH1 0xA0 SHL SUB NOT SWAP2 CALLER DUP4 DUP3 AND OR PUSH1 0x0 SSTORE PUSH1 0x40 MLOAD SWAP2 CALLER SWAP2 AND PUSH32 0x8BE0079C531659141344CD1FD0A4F28419497F9722A3DAAFE3B4186F6B6457E0 PUSH1 0x0 DUP1 LOG3 PUSH1 0x1 DUP1 SSTORE PUSH2 0x12C PUSH1 0xA SSTORE PUSH2 0x1F40 PUSH1 0xB SSTORE PUSH2 0x2328 PUSH1 0xC SSTORE DUP3 ISZERO PUSH2 0xCF JUMPI POP PUSH1 0x8 SLOAD AND OR PUSH1 0x8 SSTORE PUSH1 0x40 MLOAD PUSH2 0x6C14 SWAP1 DUP2 PUSH3 0x139 DUP3 CODECOPY RETURN JUMPDEST PUSH3 0x461BCD PUSH1 0xE5 SHL DUP2 MSTORE PUSH1 0x20 PUSH1 0x4 DUP3 ADD MSTORE PUSH1 0x10 PUSH1 0x24 DUP3 ADD MSTORE PUSH16 0x496E76616C6964207472656173757279 PUSH1 0x80 SHL PUSH1 0x44 DUP3 ADD MSTORE PUSH1 0x64 SWAP1 REVERT JUMPDEST PUSH1 0x40 MLOAD PUSH4 0x1E4FBDF7 PUSH1 0xE0 SHL DUP2 MSTORE PUSH1 0x0 PUSH1 0x4 DUP3 ADD MSTORE PUSH1 0x24 SWAP1 REVERT JUMPDEST PUSH1 0x0 DUP1 REVERT JUMPDEST PUSH4 0x4E487B71 PUSH1 0xE0 SHL PUSH1 0x0 MSTORE PUSH1 0x41 PUSH1 0x4 MSTORE PUSH1 0x24 PUSH1 0x0 REVERT INVALID PUSH1 0x80 DUP1 PUSH1 0x40 MSTORE PUSH1 0x4 CALLDATASIZE LT ISZERO PUSH3 0x1F JUMPI JUMPDEST POP CALLDATASIZE ISZERO PUSH3 0x1D JUMPI PUSH1 0x0 DUP1 REVERT JUMPDEST STOP JUMPDEST PUSH1 0x0 CALLDATALOAD PUSH1 0xE0 SHR SWAP1 DUP2 PUSH3 0x8C5504 EQ PUSH3 0x1D9A JUMPI POP DUP1 PUSH4 0x45AF334 EQ PUSH3 0x1D69 JUMPI DUP1 PUSH4 0x19A6A6E9 EQ PUSH3 0x1C48 JUMPI DUP1 PUSH4 0x1C18CE2E EQ PUSH3 0x1C1A JUMPI DUP1 PUSH4 0x33827438 EQ PUSH3 0x1BF1 JUMPI DUP1 PUSH4 0x3C1624D4 EQ PUSH3 0x1B93 JUMPI DUP1 PUSH4 0x3D891F59 EQ PUSH3 0x1B44 JUMPI DUP1 PUSH4 0x4DD03176 EQ PUSH3 0x19E7 JUMPI DUP1 PUSH4 0x513856C8 EQ PUSH3 0x1893 JUMPI DUP1 PUSH4 0x6605BFDA EQ PUSH3 0x17EA JUMPI DUP1 PUSH4 0x715018A6 EQ PUSH3 0x1775 JUMPI DUP1 PUSH4 0x754C5E89 EQ PUSH3 0xE40 JUMPI DUP1 PUSH4 0x8DA5CB5B EQ PUSH3 0xE17 JUMPI DUP1 PUSH4 0x8E50E509 EQ PUSH3 0xDF7 JUMPI DUP1 PUSH4 0x9A52878A EQ PUSH3 0x2D5 JUMPI DUP1 PUSH4 0xA74498AA EQ PUSH3 0xDBD JUMPI DUP1 PUSH4 0xA759C883 EQ PUSH3 0xC1F JUMPI DUP1 PUSH4 0xBA39A1C5 EQ PUSH3 0xBE6 JUMPI DUP1 PUSH4 0xBFD1769E EQ PUSH3 0xBC6 JUMPI DUP1 PUSH4 0xC1CBBCA7 EQ PUSH3 0x3EB JUMPI DUP1 PUSH4 0xC2161409 EQ PUSH3 0x3AF JUMPI DUP1 PUSH4 0xC5F956AF EQ PUSH3 0x386 JUMPI DUP1 PUSH4 0xD8A5E936 EQ PUSH3 0x313 JUMPI DUP1 PUSH4 0xDAB7706A EQ PUSH3 0x2D5 JUMPI DUP1 PUSH4 0xDB2E21BC EQ PUSH3 0x27E JUMPI DUP1 PUSH4 0xE1F1C4A7 EQ PUSH3 0x25F JUMPI DUP1 PUSH4 0xE379DCAF EQ PUSH3 0x23F JUMPI PUSH4 0xF2FDE38B EQ PUSH3 0x17C JUMPI CODESIZE PUSH3 0x10 JUMP JUMPDEST CALLVALUE PUSH3 0x23A JUMPI PUSH1 0x20 PUSH1 0x3 NOT CALLDATASIZE ADD SLT PUSH3 0x23A JUMPI PUSH3 0x199 PUSH3 0x1E98 JUMP JUMPDEST PUSH3 0x1A3 PUSH3 0x20EC JUMP JUMPDEST PUSH1 0x1 PUSH1 0x1 PUSH1 0xA0 SHL SUB DUP1 SWAP2 AND SWAP1 DUP2 ISZERO PUSH3 0x209 JUMPI PUSH1 0x0 SLOAD DUP3 PUSH32 0xFFFFFFFFFFFFFFFFFFFFFFFF0000000000000000000000000000000000000000 DUP3 AND OR PUSH1 0x0 SSTORE AND PUSH32 0x8BE0079C531659141344CD1FD0A4F28419497F9722A3DAAFE3B4186F6B6457E0 PUSH1 0x0 DUP1 LOG3 STOP JUMPDEST PUSH1 0x24 PUSH1 0x40 MLOAD PUSH32 0x1E4FBDF700000000000000000000000000000000000000000000000000000000 DUP2 MSTORE PUSH1 0x0 PUSH1 0x4 DUP3 ADD MSTORE REVERT JUMPDEST PUSH1 0x0 DUP1 REVERT JUMPDEST CALLVALUE PUSH3 0x23A JUMPI PUSH1 0x0 PUSH1 0x3 NOT CALLDATASIZE ADD SLT PUSH3 0x23A JUMPI PUSH1 0x20 PUSH1 0xB SLOAD PUSH1 0x40 MLOAD SWAP1 DUP2 MSTORE RETURN JUMPDEST CALLVALUE PUSH3 0x23A JUMPI PUSH1 0x0 PUSH1 0x3 NOT CALLDATASIZE ADD SLT PUSH3 0x23A JUMPI PUSH1 0x20 PUSH1 0x40 MLOAD PUSH2 0x2710 DUP2 MSTORE RETURN JUMPDEST CALLVALUE PUSH3 0x23A JUMPI PUSH1 0x0 PUSH1 0x3 NOT CALLDATASIZE ADD SLT PUSH3 0x23A JUMPI PUSH3 0x29B PUSH3 0x20EC JUMP JUMPDEST PUSH1 0x0 DUP1 DUP1 DUP1 PUSH1 0x1 PUSH1 0x1 PUSH1 0xA0 SHL SUB DUP2 SLOAD AND SELFBALANCE SWAP1 DUP3 DUP3 ISZERO PUSH3 0x2CB JUMPI JUMPDEST CALL ISZERO PUSH3 0x2BF JUMPI STOP JUMPDEST PUSH1 0x40 MLOAD RETURNDATASIZE PUSH1 0x0 DUP3 RETURNDATACOPY RETURNDATASIZE SWAP1 REVERT JUMPDEST POP PUSH2 0x8FC PUSH3 0x2B6 JUMP JUMPDEST CALLVALUE PUSH3 0x23A JUMPI PUSH1 0x20 PUSH1 0x3 NOT CALLDATASIZE ADD SLT PUSH3 0x23A JUMPI PUSH1 0x1 PUSH1 0x1 PUSH1 0xA0 SHL SUB PUSH3 0x2FA PUSH3 0x1E98 JUMP JUMPDEST AND PUSH1 0x0 MSTORE PUSH1 0x7 PUSH1 0x20 MSTORE PUSH1 0x20 PUSH1 0x40 PUSH1 0x0 KECCAK256 SLOAD PUSH1 0x40 MLOAD SWAP1 DUP2 MSTORE RETURN JUMPDEST CALLVALUE PUSH3 0x23A JUMPI PUSH1 0x20 PUSH1 0x3 NOT CALLDATASIZE ADD SLT PUSH3 0x23A JUMPI PUSH1 0x4 CALLDATALOAD PUSH3 0x333 PUSH3 0x20EC JUMP JUMPDEST PUSH2 0x3E8 DUP2 GT PUSH3 0x342 JUMPI PUSH1 0xA SSTORE STOP JUMPDEST PUSH1 0x64 PUSH1 0x40 MLOAD PUSH3 0x461BCD PUSH1 0xE5 SHL DUP2 MSTORE PUSH1 0x20 PUSH1 0x4 DUP3 ADD MSTORE PUSH1 0xC PUSH1 0x24 DUP3 ADD MSTORE PUSH32 0x46656520746F6F20686967680000000000000000000000000000000000000000 PUSH1 0x44 DUP3 ADD MSTORE REVERT JUMPDEST CALLVALUE PUSH3 0x23A JUMPI PUSH1 0x0 PUSH1 0x3 NOT CALLDATASIZE ADD SLT PUSH3 0x23A JUMPI PUSH1 0x20 PUSH1 0x1 PUSH1 0x1 PUSH1 0xA0 SHL SUB PUSH1 0x8 SLOAD AND PUSH1 0x40 MLOAD SWAP1 DUP2 MSTORE RETURN JUMPDEST CALLVALUE PUSH3 0x23A JUMPI PUSH1 0x20 PUSH1 0x3 NOT CALLDATASIZE ADD SLT PUSH3 0x23A JUMPI PUSH1 0x4 CALLDATALOAD PUSH1 0x6 SLOAD DUP2 LT ISZERO PUSH3 0x23A JUMPI PUSH3 0x3DD PUSH1 0x20 SWAP2 PUSH3 0x1E60 JUMP JUMPDEST SWAP1 SLOAD PUSH1 0x40 MLOAD SWAP2 PUSH1 0x3 SHL SHR DUP2 MSTORE RETURN JUMPDEST PUSH1 0x20 DUP1 PUSH1 0x3 NOT CALLDATASIZE ADD SLT PUSH3 0x23A JUMPI PUSH1 0x4 CALLDATALOAD PUSH1 0x1 SWAP1 PUSH1 0x2 DUP3 SLOAD EQ PUSH3 0xB9C JUMPI PUSH1 0x2 DUP3 SSTORE DUP1 PUSH1 0x0 MSTORE PUSH1 0x3 DUP1 DUP5 MSTORE PUSH1 0x40 PUSH1 0x0 KECCAK256 SWAP4 PUSH1 0x5 DUP6 ADD SLOAD SWAP1 PUSH1 0xFF PUSH1 0x1 PUSH1 0x1 PUSH1 0xA0 SHL SUB SWAP3 PUSH3 0x43C DUP5 DUP3 AND ISZERO ISZERO PUSH3 0x21AD JUMP JUMPDEST PUSH1 0xA0 SHR AND PUSH3 0xB58 JUMPI CALLVALUE ISZERO PUSH3 0xB14 JUMPI PUSH1 0x6 SWAP3 DUP4 DUP8 ADD DUP2 PUSH3 0x460 CALLVALUE DUP4 SLOAD PUSH3 0x21F9 JUMP JUMPDEST SWAP9 ADD SWAP8 DUP9 SLOAD LT PUSH3 0xAD0 JUMPI DUP7 SWAP8 DUP7 PUSH1 0x0 MSTORE PUSH1 0x4 DUP5 MSTORE PUSH1 0x40 PUSH1 0x0 KECCAK256 CALLER PUSH1 0x0 MSTORE DUP5 MSTORE PUSH1 0x40 PUSH1 0x0 KECCAK256 PUSH3 0x492 CALLVALUE DUP3 SLOAD PUSH3 0x21F9 JUMP JUMPDEST SWAP1 SSTORE PUSH3 0x4A1 CALLVALUE DUP4 SLOAD PUSH3 0x21F9 JUMP JUMPDEST DUP1 SWAP3 SSTORE PUSH1 0x40 MLOAD CALLVALUE DUP2 MSTORE DUP8 PUSH32 0xB2ED2E021651F85A4754A44651FC09AC5141BC0329CE4DFE8DD712A5D04A8B39 DUP7 CALLER SWAP4 LOG3 SLOAD GT ISZERO PUSH3 0x4DD JUMPI DUP6 DUP1 SSTORE STOP JUMPDEST DUP5 PUSH1 0x0 MSTORE DUP1 DUP3 MSTORE PUSH3 0x539 PUSH1 0x40 PUSH1 0x0 KECCAK256 SWAP2 DUP6 DUP4 ADD SLOAD SWAP6 PUSH2 0x2710 SWAP7 DUP8 PUSH3 0x506 PUSH1 0xA SLOAD DUP4 PUSH3 0x2207 JUMP JUMPDEST DIV SWAP4 DUP2 PUSH3 0x533 DUP11 PUSH3 0x529 PUSH3 0x51F DUP10 DUP1 SWAP8 PUSH3 0x221B JUMP JUMPDEST PUSH1 0xB SLOAD SWAP1 PUSH3 0x2207 JUMP JUMPDEST DIV SWAP7 DUP8 SWAP3 PUSH3 0x221B JUMP JUMPDEST PUSH3 0x221B JUMP JUMPDEST SWAP3 PUSH1 0x5 DUP7 ADD SWAP3 PUSH21 0x10000000000000000000000000000000000000000 PUSH32 0xFFFFFFFFFFFFFFFFFFFFFF00FFFFFFFFFFFFFFFFFFFFFFFFFFFFFFFFFFFFFFFF DUP6 SLOAD AND OR DUP5 SSTORE DUP12 PUSH1 0x0 SWAP1 JUMPDEST PUSH3 0x9C2 JUMPI JUMPDEST POP POP POP SWAP1 SWAP2 SWAP3 SWAP4 SWAP5 SWAP6 SWAP7 SWAP8 SWAP9 POP PUSH1 0x5 SLOAD PUSH9 0x10000000000000000 DUP2 LT ISZERO PUSH3 0x993 JUMPI DUP10 PUSH3 0x5BF DUP3 DUP14 PUSH3 0x5D7 SWAP5 ADD PUSH1 0x5 SSTORE PUSH3 0x1DF9 JUMP JUMPDEST SWAP1 SWAP2 SWAP1 PUSH1 0x0 NOT DUP4 SLOAD SWAP2 PUSH1 0x3 SHL SWAP3 DUP4 SHL SWAP3 SHL NOT AND OR SWAP1 SSTORE JUMP JUMPDEST DUP1 ISZERO DUP1 ISZERO PUSH3 0x965 JUMPI JUMPDEST POP POP DUP6 DUP3 ISZERO SWAP2 DUP3 ISZERO PUSH3 0x936 JUMPI JUMPDEST POP POP POP POP PUSH1 0x0 SWAP5 DUP5 PUSH1 0x9 SLOAD AND ISZERO ISZERO DUP1 PUSH3 0x92C JUMPI JUMPDEST ISZERO PUSH3 0x881 JUMPI PUSH1 0x4 DUP4 ADD SWAP2 PUSH3 0x67F DUP4 SLOAD SWAP3 PUSH3 0x624 PUSH1 0xC SLOAD DUP6 PUSH3 0x2207 JUMP JUMPDEST DIV SWAP2 PUSH1 0x7 DUP7 ADD DUP8 DUP10 DUP3 SLOAD AND SWAP6 DUP11 PUSH1 0x9 SLOAD AND PUSH1 0x40 MLOAD SWAP6 DUP7 SWAP3 DUP4 SWAP3 PUSH32 0x95EA7B300000000000000000000000000000000000000000000000000000000 DUP5 MSTORE PUSH1 0x4 DUP5 ADD PUSH1 0x20 SWAP1 SWAP4 SWAP3 SWAP2 SWAP4 PUSH1 0x1 PUSH1 0x1 PUSH1 0xA0 SHL SUB PUSH1 0x40 DUP3 ADD SWAP6 AND DUP2 MSTORE ADD MSTORE JUMP JUMPDEST SUB DUP2 PUSH1 0x0 DUP10 GAS CALL SWAP3 DUP4 ISZERO PUSH3 0x2BF JUMPI DUP9 SWAP4 PUSH3 0x85F JUMPI JUMPDEST POP DUP11 DUP10 DUP1 PUSH1 0x9 SLOAD AND SWAP3 SLOAD AND SWAP3 PUSH1 0x40 MLOAD SWAP6 DUP7 SWAP5 DUP6 SWAP4 PUSH32 0xA8F0AD4500000000000000000000000000000000000000000000000000000000 DUP6 MSTORE PUSH1 0x4 DUP6 ADD MSTORE PUSH1 0x24 DUP5 ADD MSTORE PUSH1 0x44 DUP4 ADD MSTORE PUSH1 0x80 PUSH1 0x64 DUP4 ADD MSTORE DUP2 PUSH3 0x6F6 PUSH1 0x84 DUP3 ADD PUSH1 0x9 DUP13 ADD PUSH3 0x1FDA JUMP JUMPDEST SUB SWAP3 GAS CALL PUSH1 0x0 SWAP2 DUP2 PUSH3 0x820 JUMPI JUMPDEST POP PUSH3 0x7E1 JUMPI POP PUSH1 0x8 SLOAD SWAP2 SLOAD PUSH1 0x40 MLOAD PUSH32 0xA9059CBB00000000000000000000000000000000000000000000000000000000 DUP2 MSTORE SWAP3 DUP7 AND PUSH1 0x1 PUSH1 0x1 PUSH1 0xA0 SHL SUB AND PUSH1 0x4 DUP5 ADD MSTORE PUSH1 0x24 DUP4 ADD MSTORE SWAP1 SWAP3 SWAP2 SWAP1 DUP3 SWAP1 DUP5 SWAP1 DUP2 PUSH1 0x0 DUP2 PUSH1 0x44 DUP2 ADD SUB SWAP3 GAS CALL SWAP2 DUP3 ISZERO PUSH3 0x2BF JUMPI DUP5 SWAP4 PUSH1 0x7 SWAP4 PUSH3 0x7AC JUMPI JUMPDEST POP POP JUMPDEST ADD SLOAD AND SWAP2 AND SWAP2 PUSH32 0x6FB060DE3018A5BAB77159E4FF4939DEB91858DDB2995FB7BC9CDAC6552FA328 PUSH1 0x0 DUP1 LOG4 DUP1 DUP3 DUP1 DUP1 DUP1 DUP1 DUP6 DUP1 SSTORE STOP JUMPDEST DUP2 PUSH3 0x7D0 SWAP3 SWAP1 RETURNDATASIZE LT PUSH3 0x7D9 JUMPI JUMPDEST PUSH3 0x7C7 DUP2 DUP4 PUSH3 0x2097 JUMP JUMPDEST DUP2 ADD SWAP1 PUSH3 0x2229 JUMP JUMPDEST POP DUP8 DUP1 PUSH3 0x773 JUMP JUMPDEST POP RETURNDATASIZE PUSH3 0x7BB JUMP JUMPDEST SWAP6 POP POP POP DUP3 SWAP2 POP PUSH1 0x7 SWAP1 DUP5 DUP4 PUSH1 0x8 DUP4 ADD SWAP2 AND PUSH32 0xFFFFFFFFFFFFFFFFFFFFFFFF0000000000000000000000000000000000000000 DUP3 SLOAD AND OR SWAP1 SSTORE PUSH3 0x776 JUMP JUMPDEST SWAP1 SWAP2 POP DUP6 DUP2 DUP2 RETURNDATASIZE DUP4 GT PUSH3 0x857 JUMPI JUMPDEST PUSH3 0x83B DUP2 DUP4 PUSH3 0x2097 JUMP JUMPDEST DUP2 ADD SUB SLT PUSH3 0x23A JUMPI MLOAD DUP7 DUP2 AND DUP2 SUB PUSH3 0x23A JUMPI SWAP1 DUP11 PUSH3 0x704 JUMP JUMPDEST POP RETURNDATASIZE PUSH3 0x82F JUMP JUMPDEST PUSH3 0x879 SWAP1 DUP5 RETURNDATASIZE DUP7 GT PUSH3 0x7D9 JUMPI PUSH3 0x7C7 DUP2 DUP4 PUSH3 0x2097 JUMP JUMPDEST POP DUP13 PUSH3 0x696 JUMP JUMPDEST POP POP SWAP1 DUP2 DUP2 DUP5 PUSH1 0x7 PUSH3 0x8EA SWAP6 ADD SLOAD AND DUP6 PUSH1 0x8 SLOAD AND SWAP1 PUSH1 0x4 DUP5 ADD SLOAD SWAP2 PUSH1 0x0 PUSH1 0x40 MLOAD DUP1 SWAP9 DUP2 SWAP6 DUP3 SWAP5 PUSH32 0xA9059CBB00000000000000000000000000000000000000000000000000000000 DUP5 MSTORE PUSH1 0x4 DUP5 ADD PUSH1 0x20 SWAP1 SWAP4 SWAP3 SWAP2 SWAP4 PUSH1 0x1 PUSH1 0x1 PUSH1 0xA0 SHL SUB PUSH1 0x40 DUP3 ADD SWAP6 AND DUP2 MSTORE ADD MSTORE JUMP JUMPDEST SUB SWAP3 GAS CALL SWAP2 DUP3 ISZERO PUSH3 0x2BF JUMPI DUP5 SWAP4 PUSH1 0x7 SWAP4 PUSH3 0x909 JUMPI JUMPDEST POP POP PUSH3 0x776 JUMP JUMPDEST DUP2 PUSH3 0x923 SWAP3 SWAP1 RETURNDATASIZE LT PUSH3 0x7D9 JUMPI PUSH3 0x7C7 DUP2 DUP4 PUSH3 0x2097 JUMP JUMPDEST POP DUP8 DUP1 PUSH3 0x901 JUMP JUMPDEST POP DUP2 ISZERO ISZERO PUSH3 0x604 JUMP JUMPDEST PUSH1 0x0 SWAP4 DUP5 SWAP4 DUP5 SWAP4 DUP5 SWAP4 SLOAD AND SWAP1 DUP4 SWAP1 PUSH3 0x95B JUMPI JUMPDEST CALL ISZERO PUSH3 0x2BF JUMPI DUP8 DUP1 DUP6 DUP2 PUSH3 0x5EF JUMP JUMPDEST POP PUSH2 0x8FC PUSH3 0x94A JUMP JUMPDEST PUSH1 0x0 DUP1 DUP1 SWAP4 DUP2 SWAP4 DUP12 PUSH1 0x8 SLOAD AND SWAP1 DUP4 SWAP1 PUSH3 0x989 JUMPI JUMPDEST CALL ISZERO PUSH3 0x2BF JUMPI DUP10 DUP1 PUSH3 0x5E1 JUMP JUMPDEST POP PUSH2 0x8FC PUSH3 0x97A JUMP JUMPDEST PUSH32 0x4E487B7100000000000000000000000000000000000000000000000000000000 PUSH1 0x0 MSTORE PUSH1 0x41 PUSH1 0x4 MSTORE PUSH1 0x24 PUSH1 0x0 REVERT JUMPDEST DUP2 SLOAD DUP1 DUP3 LT ISZERO PUSH3 0xAC9 JUMPI DUP13 PUSH3 0x9D9 DUP4 PUSH3 0x1E60 JUMP JUMPDEST SWAP1 SLOAD SWAP1 DUP7 SHL SHR EQ PUSH3 0x9F8 JUMPI POP PUSH3 0x9F1 SWAP1 PUSH3 0x2131 JUMP JUMPDEST DUP13 PUSH3 0x581 JUMP JUMPDEST SWAP1 SWAP2 SWAP3 SWAP4 SWAP5 SWAP6 SWAP7 SWAP8 SWAP9 SWAP10 SWAP11 SWAP12 SWAP13 POP PUSH1 0x0 NOT SWAP2 DUP3 DUP3 ADD SWAP2 DUP3 GT PUSH3 0xA9A JUMPI PUSH3 0x5BF PUSH3 0xA28 PUSH3 0xA35 SWAP4 PUSH3 0x1E60 JUMP JUMPDEST SWAP1 SLOAD SWAP1 DUP8 SHL SHR SWAP2 PUSH3 0x1E60 JUMP JUMPDEST DUP2 SLOAD DUP1 ISZERO PUSH3 0xA6B JUMPI DUP2 ADD SWAP3 PUSH3 0xA4C DUP5 PUSH3 0x1E60 JUMP JUMPDEST DUP2 SWAP4 SWAP2 SLOAD SWAP3 SHL SHL NOT AND SWAP1 SSTORE SSTORE SWAP1 DUP10 SWAP9 SWAP8 SWAP7 SWAP6 SWAP5 SWAP4 SWAP3 SWAP2 DUP12 DUP1 DUP1 PUSH3 0x587 JUMP JUMPDEST PUSH32 0x4E487B7100000000000000000000000000000000000000000000000000000000 PUSH1 0x0 MSTORE PUSH1 0x31 PUSH1 0x4 MSTORE PUSH1 0x24 PUSH1 0x0 REVERT JUMPDEST PUSH32 0x4E487B7100000000000000000000000000000000000000000000000000000000 PUSH1 0x0 MSTORE PUSH1 0x11 PUSH1 0x4 MSTORE PUSH1 0x24 PUSH1 0x0 REVERT JUMPDEST POP PUSH3 0x587 JUMP JUMPDEST PUSH1 0x64 DUP4 PUSH1 0x40 MLOAD SWAP1 PUSH3 0x461BCD PUSH1 0xE5 SHL DUP3 MSTORE PUSH1 0x4 DUP3 ADD MSTORE PUSH1 0xE PUSH1 0x24 DUP3 ADD MSTORE PUSH32 0x4578636565647320746172676574000000000000000000000000000000000000 PUSH1 0x44 DUP3 ADD MSTORE REVERT JUMPDEST PUSH1 0x64 SWAP1 PUSH1 0x40 MLOAD SWAP1 PUSH3 0x461BCD PUSH1 0xE5 SHL DUP3 MSTORE PUSH1 0x4 DUP3 ADD MSTORE PUSH1 0x8 PUSH1 0x24 DUP3 ADD MSTORE PUSH32 0x4E6F2076616C7565000000000000000000000000000000000000000000000000 PUSH1 0x44 DUP3 ADD MSTORE REVERT JUMPDEST PUSH1 0x64 SWAP1 PUSH1 0x40 MLOAD SWAP1 PUSH3 0x461BCD PUSH1 0xE5 SHL DUP3 MSTORE PUSH1 0x4 DUP3 ADD MSTORE PUSH1 0xE PUSH1 0x24 DUP3 ADD MSTORE PUSH32 0x416C726561647920626F6E646564000000000000000000000000000000000000 PUSH1 0x44 DUP3 ADD MSTORE REVERT JUMPDEST PUSH1 0x4 PUSH1 0x40 MLOAD PUSH32 0x3EE5AEB500000000000000000000000000000000000000000000000000000000 DUP2 MSTORE REVERT JUMPDEST CALLVALUE PUSH3 0x23A JUMPI PUSH1 0x0 PUSH1 0x3 NOT CALLDATASIZE ADD SLT PUSH3 0x23A JUMPI PUSH1 0x20 PUSH1 0xC SLOAD PUSH1 0x40 MLOAD SWAP1 DUP2 MSTORE RETURN JUMPDEST CALLVALUE PUSH3 0x23A JUMPI PUSH1 0x20 PUSH1 0x3 NOT CALLDATASIZE ADD SLT PUSH3 0x23A JUMPI PUSH1 0x4 CALLDATALOAD PUSH1 0x0 MSTORE PUSH1 0x3 PUSH1 0x20 MSTORE PUSH1 0x20 PUSH1 0xFF PUSH1 0x5 PUSH1 0x40 PUSH1 0x0 KECCAK256 ADD SLOAD PUSH1 0xA0 SHR AND PUSH1 0x40 MLOAD SWAP1 ISZERO ISZERO DUP2 MSTORE RETURN JUMPDEST CALLVALUE PUSH3 0x23A JUMPI PUSH1 0x0 PUSH1 0x3 NOT CALLDATASIZE ADD SLT PUSH3 0x23A JUMPI PUSH1 0x5 SLOAD PUSH3 0xC40 DUP2 PUSH3 0x225C JUMP JUMPDEST SWAP1 PUSH3 0xC4C DUP2 PUSH3 0x2293 JUMP JUMPDEST PUSH3 0xC57 DUP3 PUSH3 0x2293 JUMP JUMPDEST PUSH3 0xC62 DUP4 PUSH3 0x225C JUMP JUMPDEST SWAP2 PUSH3 0xC6E DUP5 PUSH3 0x225C JUMP JUMPDEST SWAP4 PUSH1 0x0 JUMPDEST DUP2 DUP2 LT PUSH3 0xCE8 JUMPI PUSH3 0xCA8 DUP8 PUSH3 0xCE4 DUP9 PUSH3 0xCD5 DUP10 PUSH3 0xCC6 DUP11 PUSH3 0xCB7 DUP12 PUSH1 0x40 MLOAD SWAP10 DUP11 SWAP10 PUSH1 0xA0 DUP12 MSTORE PUSH1 0xA0 DUP12 ADD SWAP1 PUSH3 0x1F45 JUMP JUMPDEST SWAP1 DUP10 DUP3 SUB PUSH1 0x20 DUP12 ADD MSTORE PUSH3 0x1EE5 JUMP JUMPDEST SWAP1 DUP8 DUP3 SUB PUSH1 0x40 DUP10 ADD MSTORE PUSH3 0x1EE5 JUMP JUMPDEST SWAP1 DUP6 DUP3 SUB PUSH1 0x60 DUP8 ADD MSTORE PUSH3 0x1F45 JUMP JUMPDEST SWAP1 DUP4 DUP3 SUB PUSH1 0x80 DUP6 ADD MSTORE PUSH3 0x1EAF JUMP JUMPDEST SUB SWAP1 RETURN JUMPDEST DUP1 PUSH3 0xCF8 PUSH3 0xDB7 SWAP3 PUSH3 0x1DF9 JUMP JUMPDEST SWAP1 SLOAD PUSH1 0x3 SWAP2 DUP3 SHL SHR SWAP1 DUP2 PUSH1 0x0 MSTORE PUSH1 0x20 MSTORE PUSH1 0x40 PUSH1 0x0 KECCAK256 PUSH1 0x8 PUSH1 0x1 PUSH1 0x1 PUSH1 0xA0 SHL SUB SWAP2 DUP12 PUSH3 0xD2C DUP7 DUP6 PUSH1 0x7 DUP6 ADD SLOAD AND SWAP3 PUSH3 0x22E4 JUMP JUMPDEST MSTORE PUSH1 0x40 MLOAD PUSH3 0xD49 DUP2 PUSH3 0xD41 DUP2 DUP6 PUSH3 0x1FDA JUMP JUMPDEST SUB DUP3 PUSH3 0x2097 JUMP JUMPDEST PUSH3 0xD55 DUP7 DUP11 PUSH3 0x22E4 JUMP JUMPDEST MSTORE PUSH3 0xD62 DUP6 DUP10 PUSH3 0x22E4 JUMP JUMPDEST POP PUSH1 0x40 MLOAD PUSH3 0xD7A DUP2 PUSH3 0xD41 DUP2 PUSH1 0x1 DUP7 ADD PUSH3 0x1FDA JUMP JUMPDEST PUSH3 0xD86 DUP7 DUP12 PUSH3 0x22E4 JUMP JUMPDEST MSTORE PUSH3 0xD93 DUP6 DUP11 PUSH3 0x22E4 JUMP JUMPDEST POP ADD SLOAD AND PUSH3 0xDA3 DUP4 DUP10 PUSH3 0x22E4 JUMP JUMPDEST MSTORE PUSH3 0xDB0 DUP3 DUP10 PUSH3 0x22E4 JUMP JUMPDEST MSTORE PUSH3 0x2131 JUMP JUMPDEST PUSH3 0xC72 JUMP JUMPDEST CALLVALUE PUSH3 0x23A JUMPI PUSH1 0x20 PUSH1 0x3 NOT CALLDATASIZE ADD SLT PUSH3 0x23A JUMPI PUSH1 0x4 CALLDATALOAD PUSH1 0x0 MSTORE PUSH1 0x3 PUSH1 0x20 MSTORE PUSH1 0x20 PUSH1 0x1 PUSH1 0x1 PUSH1 0xA0 SHL SUB PUSH1 0x8 PUSH1 0x40 PUSH1 0x0 KECCAK256 ADD SLOAD AND PUSH1 0x40 MLOAD SWAP1 DUP2 MSTORE RETURN JUMPDEST CALLVALUE PUSH3 0x23A JUMPI PUSH1 0x0 PUSH1 0x3 NOT CALLDATASIZE ADD SLT PUSH3 0x23A JUMPI PUSH1 0x20 PUSH1 0xA SLOAD PUSH1 0x40 MLOAD SWAP1 DUP2 MSTORE RETURN JUMPDEST CALLVALUE PUSH3 0x23A JUMPI PUSH1 0x0 PUSH1 0x3 NOT CALLDATASIZE ADD SLT PUSH3 0x23A JUMPI PUSH1 0x20 PUSH1 0x1 PUSH1 0x1 PUSH1 0xA0 SHL SUB PUSH1 0x0 SLOAD AND PUSH1 0x40 MLOAD SWAP1 DUP2 MSTORE RETURN JUMPDEST CALLVALUE PUSH3 0x23A JUMPI PUSH2 0x100 PUSH1 0x3 NOT CALLDATASIZE ADD SLT PUSH3 0x23A JUMPI PUSH1 0x4 CALLDATALOAD PUSH8 0xFFFFFFFFFFFFFFFF DUP2 GT PUSH3 0x23A JUMPI PUSH3 0xE77 SWAP1 CALLDATASIZE SWAP1 PUSH1 0x4 ADD PUSH3 0x20BB JUMP JUMPDEST SWAP1 PUSH1 0x24 CALLDATALOAD PUSH8 0xFFFFFFFFFFFFFFFF DUP2 GT PUSH3 0x23A JUMPI PUSH3 0xE9B SWAP1 CALLDATASIZE SWAP1 PUSH1 0x4 ADD PUSH3 0x20BB JUMP JUMPDEST PUSH1 0x44 SWAP4 SWAP2 SWAP4 CALLDATALOAD PUSH8 0xFFFFFFFFFFFFFFFF DUP2 GT PUSH3 0x23A JUMPI PUSH3 0xEC1 SWAP1 CALLDATASIZE SWAP1 PUSH1 0x4 ADD PUSH3 0x20BB JUMP JUMPDEST PUSH1 0x64 SWAP4 SWAP2 SWAP4 CALLDATALOAD PUSH8 0xFFFFFFFFFFFFFFFF DUP2 GT PUSH3 0x23A JUMPI PUSH3 0xEE7 SWAP1 CALLDATASIZE SWAP1 PUSH1 0x4 ADD PUSH3 0x20BB JUMP JUMPDEST SWAP3 SWAP1 SWAP5 PUSH1 0x84 CALLDATALOAD PUSH8 0xFFFFFFFFFFFFFFFF DUP2 GT PUSH3 0x23A JUMPI PUSH3 0xF0D SWAP1 CALLDATASIZE SWAP1 PUSH1 0x4 ADD PUSH3 0x20BB JUMP JUMPDEST SWAP4 SWAP1 PUSH1 0xE4 CALLDATALOAD PUSH8 0xFFFFFFFFFFFFFFFF DUP2 GT PUSH3 0x23A JUMPI PUSH3 0xF32 SWAP1 CALLDATASIZE SWAP1 PUSH1 0x4 ADD PUSH3 0x20BB JUMP JUMPDEST SWAP6 SWAP1 SWAP7 PUSH1 0xA4 CALLDATALOAD ISZERO ISZERO DUP1 PUSH3 0x1769 JUMPI JUMPDEST ISZERO PUSH3 0x1725 JUMPI PUSH1 0x2 SLOAD SWAP10 PUSH3 0xF56 DUP12 PUSH3 0x2131 JUMP JUMPDEST PUSH1 0x2 SSTORE PUSH1 0x40 MLOAD SWAP4 DUP5 PUSH2 0x490E DUP2 ADD LT PUSH8 0xFFFFFFFFFFFFFFFF PUSH2 0x490E DUP8 ADD GT OR PUSH3 0x993 JUMPI DUP5 SWAP4 PUSH3 0x1000 DUP16 SWAP4 DUP16 SWAP6 PUSH3 0xFE9 DUP16 PUSH3 0x1017 SWAP8 PUSH3 0xFD1 SWAP2 DUP16 PUSH3 0x103E SWAP12 PUSH3 0xFB9 SWAP2 PUSH2 0x100 DUP16 PUSH2 0x490E PUSH3 0x22FA DUP3 CODECOPY PUSH2 0x490E ADD DUP2 DUP2 MSTORE ADD SWAP2 PUSH3 0x2141 JUMP JUMPDEST SWAP2 DUP13 PUSH1 0x20 PUSH2 0x490E DUP3 ADD DUP6 SUB SWAP2 PUSH2 0x490E ADD ADD MSTORE PUSH3 0x2141 JUMP JUMPDEST PUSH2 0x490E DUP11 ADD DUP2 SUB PUSH1 0x40 PUSH2 0x490E DUP13 ADD ADD MSTORE DUP12 DUP14 PUSH3 0x2141 JUMP JUMPDEST SWAP2 PUSH2 0x490E DUP10 ADD DUP4 SUB PUSH1 0x60 PUSH2 0x490E DUP12 ADD ADD MSTORE PUSH3 0x2141 JUMP JUMPDEST SWAP2 PUSH2 0x490E DUP7 ADD DUP4 SUB PUSH1 0x80 PUSH2 0x490E DUP9 ADD ADD MSTORE PUSH3 0x2141 JUMP JUMPDEST PUSH1 0xC4 CALLDATALOAD PUSH2 0x490E DUP5 ADD PUSH1 0xA0 DUP2 ADD SWAP2 SWAP1 SWAP2 MSTORE ADDRESS PUSH1 0xC0 DUP3 ADD MSTORE DUP1 DUP3 SUB PUSH1 0xE0 SWAP1 SWAP2 ADD MSTORE DUP8 DUP10 PUSH3 0x2141 JUMP JUMPDEST SUB SWAP1 PUSH1 0x0 CREATE SWAP8 DUP9 ISZERO PUSH3 0x2BF JUMPI PUSH1 0x40 MLOAD SWAP10 DUP11 PUSH2 0x160 DUP2 ADD LT PUSH8 0xFFFFFFFFFFFFFFFF PUSH2 0x160 DUP14 ADD GT OR PUSH3 0x993 JUMPI PUSH3 0x10EE SWAP8 PUSH3 0x108E PUSH3 0x1098 SWAP4 PUSH3 0x10A5 SWAP8 PUSH2 0x160 DUP16 ADD PUSH1 0x40 MSTORE CALLDATASIZE SWAP2 PUSH3 0x2162 JUMP JUMPDEST DUP13 MSTORE CALLDATASIZE SWAP2 PUSH3 0x2162 JUMP JUMPDEST PUSH1 0x20 DUP11 ADD MSTORE CALLDATASIZE SWAP2 PUSH3 0x2162 JUMP JUMPDEST PUSH1 0x40 DUP8 ADD MSTORE PUSH1 0xA4 CALLDATALOAD PUSH1 0x60 DUP8 ADD MSTORE PUSH1 0xC4 CALLDATALOAD PUSH1 0x80 DUP8 ADD MSTORE CALLER PUSH1 0xA0 DUP8 ADD MSTORE PUSH1 0x0 PUSH1 0xC0 DUP8 ADD MSTORE PUSH1 0x0 PUSH1 0xE0 DUP8 ADD MSTORE PUSH1 0x1 PUSH1 0x1 PUSH1 0xA0 SHL SUB DUP6 AND PUSH2 0x100 DUP8 ADD MSTORE PUSH1 0x0 PUSH2 0x120 DUP8 ADD MSTORE CALLDATASIZE SWAP2 PUSH3 0x2162 JUMP JUMPDEST PUSH2 0x140 DUP5 ADD MSTORE DUP1 PUSH1 0x0 MSTORE PUSH1 0x3 PUSH1 0x20 MSTORE PUSH1 0x40 PUSH1 0x0 KECCAK256 DUP4 MLOAD DUP1 MLOAD SWAP1 PUSH8 0xFFFFFFFFFFFFFFFF DUP3 GT PUSH3 0x993 JUMPI DUP2 SWAP1 PUSH3 0x1125 DUP5 SLOAD PUSH3 0x1F84 JUMP JUMPDEST PUSH1 0x1F DUP2 GT PUSH3 0x16D0 JUMPI JUMPDEST POP PUSH1 0x20 SWAP1 PUSH1 0x1F DUP4 GT PUSH1 0x1 EQ PUSH3 0x165F JUMPI PUSH1 0x0 SWAP3 PUSH3 0x1653 JUMPI JUMPDEST POP POP PUSH1 0x0 NOT DUP3 PUSH1 0x1 SHL SWAP3 PUSH1 0x3 SHL SHR NOT AND OR DUP2 SSTORE JUMPDEST PUSH1 0x20 DUP5 ADD MLOAD DUP1 MLOAD SWAP1 PUSH8 0xFFFFFFFFFFFFFFFF DUP3 GT PUSH3 0x993 JUMPI DUP2 SWAP1 PUSH3 0x1185 PUSH1 0x1 DUP6 ADD SLOAD PUSH3 0x1F84 JUMP JUMPDEST PUSH1 0x1F DUP2 GT PUSH3 0x15FB JUMPI JUMPDEST POP PUSH1 0x20 SWAP1 PUSH1 0x1F DUP4 GT PUSH1 0x1 EQ PUSH3 0x1584 JUMPI PUSH1 0x0 SWAP3 PUSH3 0x1578 JUMPI JUMPDEST POP POP PUSH1 0x0 NOT DUP3 PUSH1 0x1 SHL SWAP3 PUSH1 0x3 SHL SHR NOT AND OR PUSH1 0x1 DUP3 ADD SSTORE JUMPDEST PUSH1 0x40 DUP5 ADD MLOAD DUP1 MLOAD SWAP1 PUSH8 0xFFFFFFFFFFFFFFFF DUP3 GT PUSH3 0x993 JUMPI PUSH3 0x11E6 PUSH1 0x2 DUP5 ADD SLOAD PUSH3 0x1F84 JUMP JUMPDEST PUSH1 0x1F DUP2 GT PUSH3 0x152C JUMPI JUMPDEST POP PUSH1 0x20 SWAP1 PUSH1 0x1F DUP4 GT PUSH1 0x1 EQ PUSH3 0x14B1 JUMPI SWAP2 DUP1 PUSH2 0x140 SWAP5 SWAP3 PUSH1 0x9 SWAP5 PUSH1 0x0 SWAP3 PUSH3 0x14A5 JUMPI JUMPDEST POP POP PUSH1 0x0 NOT DUP3 PUSH1 0x1 SHL SWAP3 PUSH1 0x3 SHL SHR NOT AND OR PUSH1 0x2 DUP3 ADD SSTORE JUMPDEST PUSH1 0x60 DUP7 ADD MLOAD PUSH1 0x3 DUP3 ADD SSTORE PUSH1 0x80 DUP7 ADD MLOAD PUSH1 0x4 DUP3 ADD SSTORE PUSH1 0x5 DUP2 ADD PUSH1 0x1 PUSH1 0x1 PUSH1 0xA0 SHL SUB PUSH1 0xA0 DUP9 ADD MLOAD AND DUP2 SLOAD SWAP1 PUSH32 0xFFFFFFFFFFFFFFFFFFFFFF000000000000000000000000000000000000000000 PUSH21 0xFF0000000000000000000000000000000000000000 PUSH1 0xC0 DUP12 ADD MLOAD ISZERO ISZERO PUSH1 0xA0 SHL AND SWAP3 AND OR OR SWAP1 SSTORE PUSH1 0xE0 DUP7 ADD MLOAD PUSH1 0x6 DUP3 ADD SSTORE PUSH1 0x7 DUP2 ADD PUSH1 0x1 PUSH1 0x1 PUSH1 0xA0 SHL SUB PUSH2 0x100 DUP9 ADD MLOAD AND SWAP1 PUSH32 0xFFFFFFFFFFFFFFFFFFFFFFFF0000000000000000000000000000000000000000 SWAP2 DUP3 DUP3 SLOAD AND OR SWAP1 SSTORE PUSH1 0x8 DUP3 ADD SWAP1 PUSH1 0x1 PUSH1 0x1 PUSH1 0xA0 SHL SUB PUSH2 0x120 DUP10 ADD MLOAD AND SWAP1 DUP3 SLOAD AND OR SWAP1 SSTORE ADD SWAP4 ADD MLOAD SWAP3 DUP4 MLOAD PUSH8 0xFFFFFFFFFFFFFFFF DUP2 GT PUSH3 0x993 JUMPI PUSH3 0x1320 DUP3 SLOAD PUSH3 0x1F84 JUMP JUMPDEST PUSH1 0x1F DUP2 GT PUSH3 0x1458 JUMPI JUMPDEST POP PUSH1 0x20 SWAP5 PUSH1 0x1F DUP3 GT PUSH1 0x1 EQ PUSH3 0x13ED JUMPI SWAP5 DUP2 SWAP3 SWAP4 SWAP5 SWAP6 PUSH1 0x0 SWAP3 PUSH3 0x13E1 JUMPI JUMPDEST POP POP PUSH1 0x0 NOT DUP3 PUSH1 0x1 SHL SWAP3 PUSH1 0x3 SHL SHR NOT AND OR SWAP1 SSTORE JUMPDEST PUSH1 0x6 SLOAD SWAP2 PUSH9 0x10000000000000000 DUP4 LT ISZERO PUSH3 0x993 JUMPI PUSH3 0x138C DUP3 PUSH3 0x5BF DUP6 PUSH1 0x1 PUSH1 0x20 SWAP8 ADD PUSH1 0x6 SSTORE PUSH3 0x1E60 JUMP JUMPDEST PUSH1 0x1 PUSH1 0x1 PUSH1 0xA0 SHL SUB DUP2 AND PUSH1 0x0 MSTORE PUSH1 0x7 DUP4 MSTORE DUP2 PUSH1 0x40 PUSH1 0x0 KECCAK256 SSTORE PUSH1 0x1 PUSH1 0x1 PUSH1 0xA0 SHL SUB PUSH1 0x40 MLOAD SWAP2 AND DUP2 MSTORE DUP2 PUSH32 0xE5E423600CEF64B5F4620E0388D75415036DA0DE388DA33D376934BE9B0BD392 DUP5 CALLER SWAP4 LOG3 PUSH1 0x40 MLOAD SWAP1 DUP2 MSTORE RETURN JUMPDEST ADD MLOAD SWAP1 POP DUP6 DUP1 PUSH3 0x1349 JUMP JUMPDEST PUSH1 0x1F NOT DUP3 AND SWAP6 DUP4 PUSH1 0x0 MSTORE PUSH1 0x20 PUSH1 0x0 KECCAK256 SWAP2 PUSH1 0x0 JUMPDEST DUP9 DUP2 LT PUSH3 0x143F JUMPI POP DUP4 PUSH1 0x1 SWAP6 SWAP7 SWAP8 SWAP9 LT PUSH3 0x1425 JUMPI JUMPDEST POP POP POP DUP2 SHL ADD SWAP1 SSTORE PUSH3 0x135D JUMP JUMPDEST ADD MLOAD PUSH1 0x0 NOT PUSH1 0xF8 DUP5 PUSH1 0x3 SHL AND SHR NOT AND SWAP1 SSTORE DUP6 DUP1 DUP1 PUSH3 0x1417 JUMP JUMPDEST SWAP2 SWAP3 PUSH1 0x20 PUSH1 0x1 DUP2 SWAP3 DUP7 DUP6 ADD MLOAD DUP2 SSTORE ADD SWAP5 ADD SWAP3 ADD PUSH3 0x1400 JUMP JUMPDEST DUP3 PUSH1 0x0 MSTORE PUSH1 0x20 PUSH1 0x0 KECCAK256 PUSH1 0x1F DUP4 ADD PUSH1 0x5 SHR DUP2 ADD SWAP2 PUSH1 0x20 DUP5 LT PUSH3 0x149A JUMPI JUMPDEST PUSH1 0x1F ADD PUSH1 0x5 SHR ADD SWAP1 JUMPDEST DUP2 DUP2 LT PUSH3 0x148D JUMPI POP PUSH3 0x132A JUMP JUMPDEST PUSH1 0x0 DUP2 SSTORE PUSH1 0x1 ADD PUSH3 0x147E JUMP JUMPDEST SWAP1 SWAP2 POP DUP2 SWAP1 PUSH3 0x1475 JUMP JUMPDEST ADD MLOAD SWAP1 POP DUP9 DUP1 PUSH3 0x1213 JUMP JUMPDEST SWAP1 PUSH1 0x2 DUP5 ADD PUSH1 0x0 MSTORE PUSH1 0x20 PUSH1 0x0 KECCAK256 SWAP2 PUSH1 0x0 JUMPDEST PUSH1 0x1F NOT DUP6 AND DUP2 LT PUSH3 0x1513 JUMPI POP SWAP3 PUSH2 0x140 SWAP5 SWAP3 PUSH1 0x1 SWAP3 PUSH1 0x9 SWAP6 DUP4 PUSH1 0x1F NOT DUP2 AND LT PUSH3 0x14F9 JUMPI JUMPDEST POP POP POP DUP2 SHL ADD PUSH1 0x2 DUP3 ADD SSTORE PUSH3 0x122A JUMP JUMPDEST ADD MLOAD PUSH1 0x0 NOT PUSH1 0xF8 DUP5 PUSH1 0x3 SHL AND SHR NOT AND SWAP1 SSTORE DUP9 DUP1 DUP1 PUSH3 0x14E8 JUMP JUMPDEST SWAP2 SWAP3 PUSH1 0x20 PUSH1 0x1 DUP2 SWAP3 DUP7 DUP6 ADD MLOAD DUP2 SSTORE ADD SWAP5 ADD SWAP3 ADD PUSH3 0x14C2 JUMP JUMPDEST PUSH1 0x2 DUP5 ADD PUSH1 0x0 MSTORE PUSH1 0x20 PUSH1 0x0 KECCAK256 PUSH1 0x1F DUP5 ADD PUSH1 0x5 SHR DUP2 ADD PUSH1 0x20 DUP6 LT PUSH3 0x1570 JUMPI JUMPDEST PUSH1 0x1F DUP4 ADD PUSH1 0x5 SHR DUP3 ADD DUP2 LT PUSH3 0x1563 JUMPI POP POP PUSH3 0x11F0 JUMP JUMPDEST PUSH1 0x0 DUP2 SSTORE PUSH1 0x1 ADD PUSH3 0x154B JUMP JUMPDEST POP DUP1 PUSH3 0x154B JUMP JUMPDEST ADD MLOAD SWAP1 POP DUP7 DUP1 PUSH3 0x11A8 JUMP JUMPDEST SWAP3 POP PUSH1 0x1 DUP5 ADD PUSH1 0x0 MSTORE PUSH1 0x20 PUSH1 0x0 KECCAK256 SWAP1 PUSH1 0x0 SWAP4 JUMPDEST PUSH1 0x1F NOT DUP5 AND DUP6 LT PUSH3 0x15DF JUMPI PUSH1 0x1 SWAP5 POP DUP4 PUSH1 0x1F NOT DUP2 AND LT PUSH3 0x15C5 JUMPI JUMPDEST POP POP POP DUP2 SHL ADD PUSH1 0x1 DUP3 ADD SSTORE PUSH3 0x11BF JUMP JUMPDEST ADD MLOAD PUSH1 0x0 NOT PUSH1 0xF8 DUP5 PUSH1 0x3 SHL AND SHR NOT AND SWAP1 SSTORE DUP7 DUP1 DUP1 PUSH3 0x15B4 JUMP JUMPDEST DUP2 DUP2 ADD MLOAD DUP4 SSTORE PUSH1 0x20 SWAP5 DUP6 ADD SWAP5 PUSH1 0x1 SWAP1 SWAP4 ADD SWAP3 SWAP1 SWAP2 ADD SWAP1 PUSH3 0x1597 JUMP JUMPDEST SWAP1 SWAP2 POP PUSH1 0x1 DUP5 ADD PUSH1 0x0 MSTORE PUSH1 0x20 PUSH1 0x0 KECCAK256 PUSH1 0x1F DUP5 ADD PUSH1 0x5 SHR DUP2 ADD PUSH1 0x20 DUP6 LT PUSH3 0x164B JUMPI JUMPDEST SWAP1 DUP5 SWAP4 SWAP3 SWAP2 JUMPDEST PUSH1 0x1F DUP4 ADD PUSH1 0x5 SHR DUP3 ADD DUP2 LT PUSH3 0x163B JUMPI POP POP PUSH3 0x118F JUMP JUMPDEST PUSH1 0x0 DUP2 SSTORE DUP6 SWAP5 POP PUSH1 0x1 ADD PUSH3 0x1623 JUMP JUMPDEST POP DUP1 PUSH3 0x161D JUMP JUMPDEST ADD MLOAD SWAP1 POP DUP7 DUP1 PUSH3 0x1148 JUMP JUMPDEST SWAP3 POP DUP4 PUSH1 0x0 MSTORE PUSH1 0x20 PUSH1 0x0 KECCAK256 SWAP1 PUSH1 0x0 SWAP4 JUMPDEST PUSH1 0x1F NOT DUP5 AND DUP6 LT PUSH3 0x16B4 JUMPI PUSH1 0x1 SWAP5 POP DUP4 PUSH1 0x1F NOT DUP2 AND LT PUSH3 0x169A JUMPI JUMPDEST POP POP POP DUP2 SHL ADD DUP2 SSTORE PUSH3 0x115C JUMP JUMPDEST ADD MLOAD PUSH1 0x0 NOT PUSH1 0xF8 DUP5 PUSH1 0x3 SHL AND SHR NOT AND SWAP1 SSTORE DUP7 DUP1 DUP1 PUSH3 0x168C JUMP JUMPDEST DUP2 DUP2 ADD MLOAD DUP4 SSTORE PUSH1 0x20 SWAP5 DUP6 ADD SWAP5 PUSH1 0x1 SWAP1 SWAP4 ADD SWAP3 SWAP1 SWAP2 ADD SWAP1 PUSH3 0x166F JUMP JUMPDEST SWAP1 SWAP2 POP DUP4 PUSH1 0x0 MSTORE PUSH1 0x20 PUSH1 0x0 KECCAK256 PUSH1 0x1F DUP5 ADD PUSH1 0x5 SHR DUP2 ADD PUSH1 0x20 DUP6 LT PUSH3 0x171D JUMPI JUMPDEST SWAP1 DUP5 SWAP4 SWAP3 SWAP2 JUMPDEST PUSH1 0x1F DUP4 ADD PUSH1 0x5 SHR DUP3 ADD DUP2 LT PUSH3 0x170D JUMPI POP POP PUSH3 0x112F JUMP JUMPDEST PUSH1 0x0 DUP2 SSTORE DUP6 SWAP5 POP PUSH1 0x1 ADD PUSH3 0x16F5 JUMP JUMPDEST POP DUP1 PUSH3 0x16EF JUMP JUMPDEST PUSH1 0x64 PUSH1 0x40 MLOAD PUSH3 0x461BCD PUSH1 0xE5 SHL DUP2 MSTORE PUSH1 0x20 PUSH1 0x4 DUP3 ADD MSTORE PUSH1 0xE PUSH1 0x24 DUP3 ADD MSTORE PUSH32 0x496E76616C696420706172616D73000000000000000000000000000000000000 PUSH1 0x44 DUP3 ADD MSTORE REVERT JUMPDEST POP PUSH1 0xC4 CALLDATALOAD ISZERO ISZERO PUSH3 0xF41 JUMP JUMPDEST CALLVALUE PUSH3 0x23A JUMPI PUSH1 0x0 PUSH1 0x3 NOT CALLDATASIZE ADD SLT PUSH3 0x23A JUMPI PUSH3 0x1792 PUSH3 0x20EC JUMP JUMPDEST PUSH1 0x0 PUSH1 0x1 PUSH1 0x1 PUSH1 0xA0 SHL SUB DUP2 SLOAD PUSH32 0xFFFFFFFFFFFFFFFFFFFFFFFF0000000000000000000000000000000000000000 DUP2 AND DUP4 SSTORE AND PUSH32 0x8BE0079C531659141344CD1FD0A4F28419497F9722A3DAAFE3B4186F6B6457E0 DUP3 DUP1 LOG3 STOP JUMPDEST CALLVALUE PUSH3 0x23A JUMPI PUSH1 0x20 PUSH1 0x3 NOT CALLDATASIZE ADD SLT PUSH3 0x23A JUMPI PUSH1 0x1 PUSH1 0x1 PUSH1 0xA0 SHL SUB PUSH3 0x180F PUSH3 0x1E98 JUMP JUMPDEST PUSH3 0x1819 PUSH3 0x20EC JUMP JUMPDEST AND DUP1 ISZERO PUSH3 0x184F JUMPI PUSH32 0xFFFFFFFFFFFFFFFFFFFFFFFF0000000000000000000000000000000000000000 PUSH1 0x8 SLOAD AND OR PUSH1 0x8 SSTORE PUSH1 0x0 DUP1 RETURN JUMPDEST PUSH1 0x64 PUSH1 0x40 MLOAD PUSH3 0x461BCD PUSH1 0xE5 SHL DUP2 MSTORE PUSH1 0x20 PUSH1 0x4 DUP3 ADD MSTORE PUSH1 0xF PUSH1 0x24 DUP3 ADD MSTORE PUSH32 0x496E76616C696420616464726573730000000000000000000000000000000000 PUSH1 0x44 DUP3 ADD MSTORE REVERT JUMPDEST CALLVALUE PUSH3 0x23A JUMPI PUSH1 0x20 PUSH1 0x3 NOT CALLDATASIZE ADD SLT PUSH3 0x23A JUMPI PUSH1 0x4 CALLDATALOAD PUSH1 0x0 MSTORE PUSH1 0x3 PUSH1 0x20 MSTORE PUSH1 0x40 PUSH1 0x0 KECCAK256 PUSH1 0x40 MLOAD DUP1 PUSH3 0x18C6 DUP2 DUP5 PUSH3 0x1FDA JUMP JUMPDEST SUB PUSH3 0x18D3 SWAP1 DUP3 PUSH3 0x2097 JUMP JUMPDEST PUSH1 0x40 MLOAD SWAP2 DUP3 PUSH3 0x18E7 DUP2 PUSH1 0x1 DUP5 ADD PUSH3 0x1FDA JUMP JUMPDEST SUB PUSH3 0x18F4 SWAP1 DUP5 PUSH3 0x2097 JUMP JUMPDEST PUSH1 0x40 MLOAD DUP1 PUSH3 0x1907 DUP2 PUSH1 0x2 DUP6 ADD PUSH3 0x1FDA JUMP JUMPDEST SUB PUSH3 0x1914 SWAP1 DUP3 PUSH3 0x2097 JUMP JUMPDEST PUSH1 0x3 DUP3 ADD SLOAD SWAP1 PUSH1 0x4 DUP4 ADD SLOAD PUSH1 0x5 DUP5 ADD SLOAD PUSH1 0x6 DUP6 ADD SLOAD SWAP1 PUSH1 0x1 PUSH1 0x1 PUSH1 0xA0 SHL SUB DUP1 PUSH1 0x7 DUP9 ADD SLOAD AND SWAP4 DUP2 PUSH1 0x8 DUP10 ADD SLOAD AND SWAP6 PUSH1 0x40 MLOAD DUP1 PUSH1 0x9 DUP2 SWAP12 ADD SWAP1 PUSH3 0x1957 SWAP2 PUSH3 0x1FDA JUMP JUMPDEST SUB PUSH3 0x1964 SWAP1 DUP11 PUSH3 0x2097 JUMP JUMPDEST PUSH1 0x40 MLOAD SWAP11 DUP12 SWAP11 PUSH2 0x160 DUP1 DUP14 MSTORE DUP13 ADD PUSH3 0x197D SWAP2 PUSH3 0x1DB7 JUMP JUMPDEST DUP12 DUP2 SUB PUSH1 0x20 DUP14 ADD MSTORE PUSH3 0x1990 SWAP2 PUSH3 0x1DB7 JUMP JUMPDEST DUP11 DUP2 SUB PUSH1 0x40 DUP13 ADD MSTORE PUSH3 0x19A3 SWAP2 PUSH3 0x1DB7 JUMP JUMPDEST SWAP7 PUSH1 0x60 DUP11 ADD MSTORE PUSH1 0x80 DUP10 ADD MSTORE DUP2 AND PUSH1 0xA0 DUP9 ADD MSTORE PUSH1 0xA0 SHR PUSH1 0xFF AND ISZERO ISZERO PUSH1 0xC0 DUP8 ADD MSTORE PUSH1 0xE0 DUP7 ADD MSTORE PUSH2 0x100 DUP6 ADD MSTORE PUSH2 0x120 DUP5 ADD MSTORE DUP3 DUP2 SUB PUSH2 0x140 DUP5 ADD MSTORE PUSH3 0xCE4 SWAP2 PUSH3 0x1DB7 JUMP JUMPDEST CALLVALUE PUSH3 0x23A JUMPI PUSH1 0x0 PUSH1 0x3 NOT CALLDATASIZE ADD SLT PUSH3 0x23A JUMPI PUSH1 0x6 DUP1 SLOAD SWAP1 PUSH3 0x1A0A DUP3 PUSH3 0x225C JUMP JUMPDEST SWAP1 PUSH3 0x1A16 DUP4 PUSH3 0x2293 JUMP JUMPDEST PUSH3 0x1A21 DUP5 PUSH3 0x225C JUMP JUMPDEST SWAP1 PUSH3 0x1A2D DUP6 PUSH3 0x225C JUMP JUMPDEST SWAP5 PUSH3 0x1A39 DUP2 PUSH3 0x225C JUMP JUMPDEST SWAP4 PUSH1 0x0 JUMPDEST DUP3 DUP2 LT PUSH3 0x1AA0 JUMPI PUSH3 0xCA8 DUP8 PUSH3 0xCE4 DUP9 PUSH3 0x1A91 DUP13 PUSH3 0x1A82 DUP12 PUSH3 0x1A73 DUP13 PUSH1 0x40 MLOAD SWAP10 DUP11 SWAP10 PUSH1 0xA0 DUP12 MSTORE PUSH1 0xA0 DUP12 ADD SWAP1 PUSH3 0x1EAF JUMP JUMPDEST SWAP1 DUP8 DUP3 SUB PUSH1 0x40 DUP10 ADD MSTORE PUSH3 0x1EAF JUMP JUMPDEST SWAP1 DUP6 DUP3 SUB PUSH1 0x60 DUP8 ADD MSTORE PUSH3 0x1EAF JUMP JUMPDEST SWAP1 DUP4 DUP3 SUB PUSH1 0x80 DUP6 ADD MSTORE PUSH3 0x1F45 JUMP JUMPDEST DUP1 PUSH1 0x1 PUSH1 0x1 PUSH1 0xA0 SHL SUB PUSH1 0x7 DUP10 PUSH3 0x1ABB PUSH3 0x1B3E SWAP6 PUSH3 0x1E60 JUMP JUMPDEST SWAP1 SLOAD PUSH1 0x3 SWAP2 DUP3 SHL SHR DUP1 PUSH1 0x0 MSTORE DUP2 PUSH1 0x20 MSTORE PUSH3 0x1ADC DUP7 PUSH1 0x40 PUSH1 0x0 KECCAK256 SWAP5 PUSH3 0x22E4 JUMP JUMPDEST MSTORE PUSH1 0x40 MLOAD PUSH3 0x1AF4 DUP2 PUSH3 0xD41 DUP2 PUSH1 0x2 DUP8 ADD PUSH3 0x1FDA JUMP JUMPDEST PUSH3 0x1B00 DUP7 DUP12 PUSH3 0x22E4 JUMP JUMPDEST MSTORE PUSH3 0x1B0D DUP6 DUP11 PUSH3 0x22E4 JUMP JUMPDEST POP DUP2 ADD SLOAD PUSH3 0x1B1D DUP6 DUP12 PUSH3 0x22E4 JUMP JUMPDEST MSTORE DUP1 DUP7 ADD SLOAD PUSH3 0x1B2E DUP6 DUP15 PUSH3 0x22E4 JUMP JUMPDEST MSTORE ADD SLOAD AND PUSH3 0xDB0 DUP3 DUP10 PUSH3 0x22E4 JUMP JUMPDEST PUSH3 0x1A3D JUMP JUMPDEST CALLVALUE PUSH3 0x23A JUMPI PUSH1 0x40 PUSH1 0x3 NOT CALLDATASIZE ADD SLT PUSH3 0x23A JUMPI PUSH1 0x24 CALLDATALOAD PUSH1 0x1 PUSH1 0x1 PUSH1 0xA0 SHL SUB DUP2 AND DUP1 SWAP2 SUB PUSH3 0x23A JUMPI PUSH1 0x4 CALLDATALOAD PUSH1 0x0 MSTORE PUSH1 0x4 PUSH1 0x20 MSTORE PUSH1 0x40 PUSH1 0x0 KECCAK256 SWAP1 PUSH1 0x0 MSTORE PUSH1 0x20 MSTORE PUSH1 0x20 PUSH1 0x40 PUSH1 0x0 KECCAK256 SLOAD PUSH1 0x40 MLOAD SWAP1 DUP2 MSTORE RETURN JUMPDEST CALLVALUE PUSH3 0x23A JUMPI PUSH1 0x20 PUSH1 0x3 NOT CALLDATASIZE ADD SLT PUSH3 0x23A JUMPI PUSH1 0x1 PUSH1 0x1 PUSH1 0xA0 SHL SUB PUSH3 0x1BB8 PUSH3 0x1E98 JUMP JUMPDEST PUSH3 0x1BC2 PUSH3 0x20EC JUMP JUMPDEST AND PUSH32 0xFFFFFFFFFFFFFFFFFFFFFFFF0000000000000000000000000000000000000000 PUSH1 0x9 SLOAD AND OR PUSH1 0x9 SSTORE PUSH1 0x0 DUP1 RETURN JUMPDEST CALLVALUE PUSH3 0x23A JUMPI PUSH1 0x0 PUSH1 0x3 NOT CALLDATASIZE ADD SLT PUSH3 0x23A JUMPI PUSH1 0x20 PUSH1 0x1 PUSH1 0x1 PUSH1 0xA0 SHL SUB PUSH1 0x9 SLOAD AND PUSH1 0x40 MLOAD SWAP1 DUP2 MSTORE RETURN JUMPDEST CALLVALUE PUSH3 0x23A JUMPI PUSH1 0x20 PUSH1 0x3 NOT CALLDATASIZE ADD SLT PUSH3 0x23A JUMPI PUSH1 0x4 CALLDATALOAD PUSH1 0x5 SLOAD DUP2 LT ISZERO PUSH3 0x23A JUMPI PUSH3 0x3DD PUSH1 0x20 SWAP2 PUSH3 0x1DF9 JUMP JUMPDEST CALLVALUE PUSH3 0x23A JUMPI PUSH1 0x20 PUSH1 0x3 NOT CALLDATASIZE ADD SLT PUSH3 0x23A JUMPI PUSH1 0x4 CALLDATALOAD PUSH1 0x0 MSTORE PUSH1 0x3 PUSH1 0x20 MSTORE PUSH3 0x1D26 PUSH1 0x40 PUSH1 0x0 KECCAK256 PUSH3 0xCE4 PUSH1 0x5 DUP3 ADD SLOAD PUSH1 0x9 PUSH1 0x1 PUSH1 0x1 PUSH1 0xA0 SHL SUB SWAP2 DUP3 DUP2 AND SWAP3 PUSH3 0x1C94 DUP5 ISZERO ISZERO PUSH3 0x21AD JUMP JUMPDEST PUSH1 0x3 DUP7 ADD SLOAD SWAP4 PUSH1 0xFF PUSH1 0x6 DUP9 ADD SLOAD SWAP4 DUP4 PUSH1 0x7 DUP11 ADD SLOAD AND SWAP4 PUSH1 0x8 DUP11 ADD SLOAD AND SWAP5 PUSH3 0x1D35 PUSH1 0x40 MLOAD SWAP11 PUSH3 0x1CD2 DUP13 PUSH3 0x1CCA DUP2 DUP5 PUSH3 0x1FDA JUMP JUMPDEST SUB DUP14 PUSH3 0x2097 JUMP JUMPDEST PUSH3 0x1D10 PUSH1 0x40 MLOAD SWAP2 PUSH3 0x1CF6 DUP4 PUSH3 0x1CEE DUP2 PUSH1 0x2 DUP6 ADD PUSH3 0x1FDA JUMP JUMPDEST SUB DUP5 PUSH3 0x2097 JUMP JUMPDEST PUSH3 0x1D08 PUSH1 0x40 MLOAD DUP1 SWAP13 DUP2 SWAP4 ADD PUSH3 0x1FDA JUMP JUMPDEST SUB DUP11 PUSH3 0x2097 JUMP JUMPDEST PUSH1 0x40 MLOAD SWAP13 DUP14 SWAP13 DUP14 PUSH2 0x120 SWAP1 DUP2 DUP2 MSTORE ADD SWAP1 PUSH3 0x1DB7 JUMP JUMPDEST DUP13 DUP2 SUB PUSH1 0x20 DUP15 ADD MSTORE SWAP1 PUSH3 0x1DB7 JUMP JUMPDEST SWAP8 PUSH1 0x40 DUP12 ADD MSTORE PUSH1 0x60 DUP11 ADD MSTORE PUSH1 0xA0 SHR AND ISZERO ISZERO PUSH1 0x80 DUP9 ADD MSTORE PUSH1 0xA0 DUP8 ADD MSTORE PUSH1 0xC0 DUP7 ADD MSTORE PUSH1 0xE0 DUP6 ADD MSTORE DUP4 DUP3 SUB PUSH2 0x100 DUP6 ADD MSTORE PUSH3 0x1DB7 JUMP JUMPDEST CALLVALUE PUSH3 0x23A JUMPI PUSH1 0x0 PUSH1 0x3 NOT CALLDATASIZE ADD SLT PUSH3 0x23A JUMPI PUSH1 0x60 PUSH1 0x2 SLOAD PUSH1 0x5 SLOAD PUSH1 0x6 SLOAD SWAP1 PUSH1 0x40 MLOAD SWAP3 DUP4 MSTORE PUSH1 0x20 DUP4 ADD MSTORE PUSH1 0x40 DUP3 ADD MSTORE RETURN JUMPDEST CALLVALUE PUSH3 0x23A JUMPI PUSH1 0x0 PUSH1 0x3 NOT CALLDATASIZE ADD SLT PUSH3 0x23A JUMPI PUSH1 0x20 SWAP1 PUSH1 0x2 SLOAD DUP2 MSTORE RETURN JUMPDEST SWAP2 SWAP1 DUP3 MLOAD SWAP3 DUP4 DUP3 MSTORE PUSH1 0x0 JUMPDEST DUP5 DUP2 LT PUSH3 0x1DE4 JUMPI POP POP PUSH1 0x1F NOT PUSH1 0x1F DUP5 PUSH1 0x0 PUSH1 0x20 DUP1 SWAP7 SWAP8 DUP7 ADD ADD MSTORE ADD AND ADD ADD SWAP1 JUMP JUMPDEST PUSH1 0x20 DUP2 DUP4 ADD DUP2 ADD MLOAD DUP5 DUP4 ADD DUP3 ADD MSTORE ADD PUSH3 0x1DC2 JUMP JUMPDEST PUSH1 0x5 SLOAD DUP2 LT ISZERO PUSH3 0x1E31 JUMPI PUSH1 0x5 PUSH1 0x0 MSTORE PUSH32 0x36B6384B5ECA791C62761152D0C79BB0604C104A5FB6F4EB0703F3154BB3DB0 ADD SWAP1 PUSH1 0x0 SWAP1 JUMP JUMPDEST PUSH32 0x4E487B7100000000000000000000000000000000000000000000000000000000 PUSH1 0x0 MSTORE PUSH1 0x32 PUSH1 0x4 MSTORE PUSH1 0x24 PUSH1 0x0 REVERT JUMPDEST PUSH1 0x6 SLOAD DUP2 LT ISZERO PUSH3 0x1E31 JUMPI PUSH1 0x6 PUSH1 0x0 MSTORE PUSH32 0xF652222313E28459528D920B65115C16C04F3EFC82AAEDC97BE59F3F377C0D3F ADD SWAP1 PUSH1 0x0 SWAP1 JUMP JUMPDEST PUSH1 0x4 CALLDATALOAD SWAP1 PUSH1 0x1 PUSH1 0x1 PUSH1 0xA0 SHL SUB DUP3 AND DUP3 SUB PUSH3 0x23A JUMPI JUMP JUMPDEST SWAP1 DUP2 MLOAD DUP1 DUP3 MSTORE PUSH1 0x20 DUP1 DUP1 SWAP4 ADD SWAP4 ADD SWAP2 PUSH1 0x0 JUMPDEST DUP3 DUP2 LT PUSH3 0x1ED0 JUMPI POP POP POP POP SWAP1 JUMP JUMPDEST DUP4 MLOAD DUP6 MSTORE SWAP4 DUP2 ADD SWAP4 SWAP3 DUP2 ADD SWAP3 PUSH1 0x1 ADD PUSH3 0x1EC1 JUMP JUMPDEST SWAP1 DUP1 DUP3 MLOAD SWAP1 DUP2 DUP2 MSTORE PUSH1 0x20 DUP1 SWAP2 ADD SWAP3 DUP2 DUP1 DUP5 PUSH1 0x5 SHL DUP4 ADD ADD SWAP6 ADD SWAP4 PUSH1 0x0 SWAP2 JUMPDEST DUP5 DUP4 LT PUSH3 0x1F14 JUMPI POP POP POP POP POP POP SWAP1 JUMP JUMPDEST SWAP1 SWAP2 SWAP3 SWAP4 SWAP5 SWAP6 DUP5 DUP1 PUSH3 0x1F34 DUP4 PUSH1 0x1F NOT DUP7 PUSH1 0x1 SWAP7 SUB ADD DUP8 MSTORE DUP11 MLOAD PUSH3 0x1DB7 JUMP JUMPDEST SWAP9 ADD SWAP4 ADD SWAP4 ADD SWAP2 SWAP5 SWAP4 SWAP3 SWAP1 PUSH3 0x1F03 JUMP JUMPDEST SWAP1 DUP2 MLOAD DUP1 DUP3 MSTORE PUSH1 0x20 DUP1 DUP1 SWAP4 ADD SWAP4 ADD SWAP2 PUSH1 0x0 JUMPDEST DUP3 DUP2 LT PUSH3 0x1F66 JUMPI POP POP POP POP SWAP1 JUMP JUMPDEST DUP4 MLOAD PUSH1 0x1 PUSH1 0x1 PUSH1 0xA0 SHL SUB AND DUP6 MSTORE SWAP4 DUP2 ADD SWAP4 SWAP3 DUP2 ADD SWAP3 PUSH1 0x1 ADD PUSH3 0x1F57 JUMP JUMPDEST SWAP1 PUSH1 0x1 DUP3 DUP2 SHR SWAP3 AND DUP1 ISZERO PUSH3 0x1FCF JUMPI JUMPDEST PUSH1 0x20 DUP4 LT EQ PUSH3 0x1FA0 JUMPI JUMP JUMPDEST PUSH32 0x4E487B7100000000000000000000000000000000000000000000000000000000 PUSH1 0x0 MSTORE PUSH1 0x22 PUSH1 0x4 MSTORE PUSH1 0x24 PUSH1 0x0 REVERT JUMPDEST SWAP2 PUSH1 0x7F AND SWAP2 PUSH3 0x1F94 JUMP JUMPDEST SWAP1 PUSH1 0x0 SWAP3 SWAP2 DUP1 SLOAD SWAP2 PUSH3 0x1FED DUP4 PUSH3 0x1F84 JUMP JUMPDEST SWAP2 DUP3 DUP3 MSTORE PUSH1 0x1 SWAP4 DUP5 DUP2 AND SWAP1 DUP2 PUSH1 0x0 EQ PUSH3 0x2054 JUMPI POP PUSH1 0x1 EQ PUSH3 0x2011 JUMPI JUMPDEST POP POP POP POP JUMP JUMPDEST SWAP1 SWAP2 SWAP4 SWAP5 POP PUSH1 0x0 MSTORE PUSH1 0x20 SWAP3 DUP4 PUSH1 0x0 KECCAK256 SWAP3 DUP5 PUSH1 0x0 SWAP5 JUMPDEST DUP4 DUP7 LT PUSH3 0x203F JUMPI POP POP POP POP ADD ADD SWAP1 CODESIZE DUP1 DUP1 DUP1 PUSH3 0x200B JUMP JUMPDEST DUP1 SLOAD DUP6 DUP8 ADD DUP4 ADD MSTORE SWAP5 ADD SWAP4 DUP6 SWAP1 DUP3 ADD PUSH3 0x2026 JUMP JUMPDEST SWAP2 POP POP PUSH1 0x20 SWAP5 SWAP6 POP PUSH32 0xFFFFFFFFFFFFFFFFFFFFFFFFFFFFFFFFFFFFFFFFFFFFFFFFFFFFFFFFFFFFFF00 SWAP2 SWAP4 POP AND DUP4 DUP4 ADD MSTORE ISZERO ISZERO PUSH1 0x5 SHL ADD ADD SWAP1 CODESIZE DUP1 DUP1 DUP1 PUSH3 0x200B JUMP JUMPDEST SWAP1 PUSH1 0x1F PUSH1 0x1F NOT SWAP2 ADD AND DUP2 ADD SWAP1 DUP2 LT PUSH8 0xFFFFFFFFFFFFFFFF DUP3 GT OR PUSH3 0x993 JUMPI PUSH1 0x40 MSTORE JUMP JUMPDEST SWAP2 DUP2 PUSH1 0x1F DUP5 ADD SLT ISZERO PUSH3 0x23A JUMPI DUP3 CALLDATALOAD SWAP2 PUSH8 0xFFFFFFFFFFFFFFFF DUP4 GT PUSH3 0x23A JUMPI PUSH1 0x20 DUP4 DUP2 DUP7 ADD SWAP6 ADD ADD GT PUSH3 0x23A JUMPI JUMP JUMPDEST PUSH1 0x1 PUSH1 0x1 PUSH1 0xA0 SHL SUB PUSH1 0x0 SLOAD AND CALLER SUB PUSH3 0x2101 JUMPI JUMP JUMPDEST PUSH1 0x24 PUSH1 0x40 MLOAD PUSH32 0x118CDAA700000000000000000000000000000000000000000000000000000000 DUP2 MSTORE CALLER PUSH1 0x4 DUP3 ADD MSTORE REVERT JUMPDEST PUSH1 0x0 NOT DUP2 EQ PUSH3 0xA9A JUMPI PUSH1 0x1 ADD SWAP1 JUMP JUMPDEST PUSH1 0x1F DUP3 PUSH1 0x20 SWAP5 SWAP4 PUSH1 0x1F NOT SWAP4 DUP2 DUP7 MSTORE DUP7 DUP7 ADD CALLDATACOPY PUSH1 0x0 DUP6 DUP3 DUP7 ADD ADD MSTORE ADD AND ADD ADD SWAP1 JUMP JUMPDEST SWAP3 SWAP2 SWAP3 PUSH8 0xFFFFFFFFFFFFFFFF DUP3 GT PUSH3 0x993 JUMPI PUSH1 0x40 MLOAD SWAP2 PUSH3 0x218F PUSH1 0x20 PUSH1 0x1F NOT PUSH1 0x1F DUP5 ADD AND ADD DUP5 PUSH3 0x2097 JUMP JUMPDEST DUP3 SWAP5 DUP2 DUP5 MSTORE DUP2 DUP4 ADD GT PUSH3 0x23A JUMPI DUP3 DUP2 PUSH1 0x20 SWAP4 DUP5 PUSH1 0x0 SWAP7 ADD CALLDATACOPY ADD ADD MSTORE JUMP JUMPDEST ISZERO PUSH3 0x21B5 JUMPI JUMP JUMPDEST PUSH1 0x64 PUSH1 0x40 MLOAD PUSH3 0x461BCD PUSH1 0xE5 SHL DUP2 MSTORE PUSH1 0x20 PUSH1 0x4 DUP3 ADD MSTORE PUSH1 0xF PUSH1 0x24 DUP3 ADD MSTORE PUSH32 0x4167656E74206E6F7420666F756E640000000000000000000000000000000000 PUSH1 0x44 DUP3 ADD MSTORE REVERT JUMPDEST SWAP2 SWAP1 DUP3 ADD DUP1 SWAP3 GT PUSH3 0xA9A JUMPI JUMP JUMPDEST DUP2 DUP2 MUL SWAP3 SWAP2 DUP2 ISZERO SWAP2 DUP5 DIV EQ OR ISZERO PUSH3 0xA9A JUMPI JUMP JUMPDEST SWAP2 SWAP1 DUP3 SUB SWAP2 DUP3 GT PUSH3 0xA9A JUMPI JUMP JUMPDEST SWAP1 DUP2 PUSH1 0x20 SWAP2 SUB SLT PUSH3 0x23A JUMPI MLOAD DUP1 ISZERO ISZERO DUP2 SUB PUSH3 0x23A JUMPI SWAP1 JUMP JUMPDEST PUSH8 0xFFFFFFFFFFFFFFFF DUP2 GT PUSH3 0x993 JUMPI PUSH1 0x5 SHL PUSH1 0x20 ADD SWAP1 JUMP JUMPDEST SWAP1 PUSH3 0x2268 DUP3 PUSH3 0x2243 JUMP JUMPDEST PUSH3 0x2277 PUSH1 0x40 MLOAD SWAP2 DUP3 PUSH3 0x2097 JUMP JUMPDEST DUP3 DUP2 MSTORE PUSH1 0x1F NOT PUSH3 0x2289 DUP3 SWAP5 PUSH3 0x2243 JUMP JUMPDEST ADD SWAP1 PUSH1 0x20 CALLDATASIZE SWAP2 ADD CALLDATACOPY JUMP JUMPDEST SWAP1 PUSH3 0x229F DUP3 PUSH3 0x2243 JUMP JUMPDEST PUSH3 0x22AE PUSH1 0x40 MLOAD SWAP2 DUP3 PUSH3 0x2097 JUMP JUMPDEST DUP3 DUP2 MSTORE PUSH1 0x1F NOT PUSH3 0x22C0 DUP3 SWAP5 PUSH3 0x2243 JUMP JUMPDEST ADD SWAP1 PUSH1 0x0 JUMPDEST DUP3 DUP2 LT PUSH3 0x22D2 JUMPI POP POP POP JUMP JUMPDEST DUP1 PUSH1 0x60 PUSH1 0x20 DUP1 SWAP4 DUP6 ADD ADD MSTORE ADD PUSH3 0x22C5 JUMP JUMPDEST DUP1 MLOAD DUP3 LT ISZERO PUSH3 0x1E31 JUMPI PUSH1 0x20 SWAP2 PUSH1 0x5 SHL ADD ADD SWAP1 JUMP INVALID PUSH2 0x160 DUP1 PUSH1 0x40 MSTORE CALLVALUE PUSH3 0x142 JUMPI PUSH3 0x490E SWAP1 DUP2 CODESIZE SUB DUP1 SWAP3 PUSH3 0x21 DUP3 PUSH3 0x15D JUMP JUMPDEST DUP3 CODECOPY DUP2 DUP2 ADD SWAP1 PUSH2 0x100 DUP1 SWAP4 SLT PUSH3 0x142 JUMPI DUP1 MLOAD PUSH1 0x1 PUSH1 0x1 PUSH1 0x40 SHL SUB SWAP3 SWAP1 DUP4 DUP2 GT PUSH3 0x142 JUMPI DUP2 PUSH3 0x54 SWAP2 DUP5 ADD PUSH3 0x1DB JUMP JUMPDEST SWAP2 PUSH2 0x180 MLOAD DUP5 DUP2 GT PUSH3 0x142 JUMPI DUP3 PUSH3 0x6F SWAP2 DUP4 ADD PUSH3 0x1DB JUMP JUMPDEST PUSH2 0x1A0 MLOAD DUP6 DUP2 GT PUSH3 0x142 JUMPI DUP4 PUSH3 0x89 SWAP2 DUP5 ADD PUSH3 0x1DB JUMP JUMPDEST PUSH2 0x1C0 MLOAD DUP7 DUP2 GT PUSH3 0x142 JUMPI DUP5 PUSH3 0xA3 SWAP2 DUP6 ADD PUSH3 0x1DB JUMP JUMPDEST SWAP1 PUSH2 0x1E0 MLOAD DUP8 DUP2 GT PUSH3 0x142 JUMPI DUP6 PUSH3 0xBE SWAP2 DUP7 ADD PUSH3 0x1DB JUMP JUMPDEST SWAP3 PUSH2 0x200 MLOAD SWAP5 PUSH3 0xCE PUSH3 0x241 JUMP JUMPDEST SWAP7 PUSH2 0x240 MLOAD SWAP10 DUP11 GT PUSH3 0x142 JUMPI PUSH3 0xF3 SWAP10 PUSH3 0xEC SWAP3 ADD PUSH3 0x1DB JUMP JUMPDEST SWAP7 PUSH3 0xA1D JUMP JUMPDEST PUSH1 0x40 MLOAD PUSH2 0x31BF SWAP2 DUP3 PUSH3 0x170F DUP4 CODECOPY PUSH1 0x80 MLOAD DUP3 PUSH2 0x255C ADD MSTORE PUSH1 0xA0 MLOAD DUP3 PUSH2 0x2617 ADD MSTORE PUSH1 0xC0 MLOAD DUP3 PUSH2 0x252D ADD MSTORE PUSH1 0xE0 MLOAD DUP3 PUSH2 0x25AB ADD MSTORE MLOAD DUP2 PUSH2 0x25D1 ADD MSTORE PUSH2 0x120 MLOAD DUP2 PUSH2 0xF51 ADD MSTORE PUSH2 0x140 MLOAD DUP2 PUSH2 0xF7A ADD MSTORE RETURN JUMPDEST PUSH1 0x0 DUP1 REVERT JUMPDEST PUSH4 0x4E487B71 PUSH1 0xE0 SHL PUSH1 0x0 MSTORE PUSH1 0x41 PUSH1 0x4 MSTORE PUSH1 0x24 PUSH1 0x0 REVERT JUMPDEST PUSH1 0x1F ADD PUSH1 0x1F NOT AND PUSH2 0x160 SWAP1 DUP2 ADD SWAP1 PUSH1 0x1 PUSH1 0x1 PUSH1 0x40 SHL SUB DUP3 GT SWAP1 DUP3 LT OR PUSH3 0x183 JUMPI PUSH1 0x40 MSTORE JUMP JUMPDEST PUSH3 0x147 JUMP JUMPDEST PUSH1 0x40 DUP2 ADD SWAP1 DUP2 LT PUSH1 0x1 PUSH1 0x1 PUSH1 0x40 SHL SUB DUP3 GT OR PUSH3 0x183 JUMPI PUSH1 0x40 MSTORE JUMP JUMPDEST PUSH1 0x40 MLOAD SWAP1 PUSH3 0x1B4 DUP3 PUSH3 0x189 JUMP JUMPDEST JUMP JUMPDEST PUSH1 0x0 JUMPDEST DUP4 DUP2 LT PUSH3 0x1CA JUMPI POP POP PUSH1 0x0 SWAP2 ADD MSTORE JUMP JUMPDEST DUP2 DUP2 ADD MLOAD DUP4 DUP3 ADD MSTORE PUSH1 0x20 ADD PUSH3 0x1B9 JUMP JUMPDEST DUP2 PUSH1 0x1F DUP3 ADD SLT ISZERO PUSH3 0x142 JUMPI DUP1 MLOAD PUSH1 0x1 PUSH1 0x1 PUSH1 0x40 SHL SUB SWAP3 DUP4 DUP3 GT PUSH3 0x183 JUMPI PUSH1 0x40 MLOAD SWAP4 PUSH1 0x1F DUP4 ADD PUSH1 0x1F NOT SWAP1 DUP2 AND PUSH1 0x3F ADD AND DUP6 ADD SWAP1 DUP2 GT DUP6 DUP3 LT OR PUSH3 0x183 JUMPI PUSH1 0x40 MSTORE DUP2 DUP5 MSTORE PUSH1 0x20 DUP3 DUP5 ADD ADD GT PUSH3 0x142 JUMPI PUSH3 0x23E SWAP2 PUSH1 0x20 DUP1 DUP6 ADD SWAP2 ADD PUSH3 0x1B6 JUMP JUMPDEST SWAP1 JUMP JUMPDEST PUSH2 0x220 MLOAD SWAP1 PUSH1 0x1 PUSH1 0x1 PUSH1 0xA0 SHL SUB DUP3 AND DUP3 SUB PUSH3 0x142 JUMPI JUMP JUMPDEST SWAP1 PUSH1 0x1 DUP3 DUP2 SHR SWAP3 AND DUP1 ISZERO PUSH3 0x28B JUMPI JUMPDEST PUSH1 0x20 DUP4 LT EQ PUSH3 0x275 JUMPI JUMP JUMPDEST PUSH4 0x4E487B71 PUSH1 0xE0 SHL PUSH1 0x0 MSTORE PUSH1 0x22 PUSH1 0x4 MSTORE PUSH1 0x24 PUSH1 0x0 REVERT JUMPDEST SWAP2 PUSH1 0x7F AND SWAP2 PUSH3 0x269 JUMP JUMPDEST PUSH1 0x1F DUP2 GT PUSH3 0x2A3 JUMPI POP POP JUMP JUMPDEST PUSH1 0x0 SWAP1 PUSH1 0x3 DUP3 MSTORE PUSH1 0x20 DUP3 KECCAK256 SWAP1 PUSH1 0x20 PUSH1 0x1F DUP6 ADD PUSH1 0x5 SHR DUP4 ADD SWAP5 LT PUSH3 0x2E4 JUMPI JUMPDEST PUSH1 0x1F ADD PUSH1 0x5 SHR ADD SWAP2 JUMPDEST DUP3 DUP2 LT PUSH3 0x2D8 JUMPI POP POP POP JUMP JUMPDEST DUP2 DUP2 SSTORE PUSH1 0x1 ADD PUSH3 0x2CB JUMP JUMPDEST SWAP1 SWAP3 POP DUP3 SWAP1 PUSH3 0x2C2 JUMP JUMPDEST PUSH1 0x1F DUP2 GT PUSH3 0x2FC JUMPI POP POP JUMP JUMPDEST PUSH1 0x0 SWAP1 PUSH1 0x4 DUP3 MSTORE PUSH1 0x20 DUP3 KECCAK256 SWAP1 PUSH1 0x20 PUSH1 0x1F DUP6 ADD PUSH1 0x5 SHR DUP4 ADD SWAP5 LT PUSH3 0x33D JUMPI JUMPDEST PUSH1 0x1F ADD PUSH1 0x5 SHR ADD SWAP2 JUMPDEST DUP3 DUP2 LT PUSH3 0x331 JUMPI POP POP POP JUMP JUMPDEST DUP2 DUP2 SSTORE PUSH1 0x1 ADD PUSH3 0x324 JUMP JUMPDEST SWAP1 SWAP3 POP DUP3 SWAP1 PUSH3 0x31B JUMP JUMPDEST PUSH1 0x1F DUP2 GT PUSH3 0x355 JUMPI POP POP JUMP JUMPDEST PUSH1 0x0 SWAP1 PUSH1 0xD DUP3 MSTORE PUSH1 0x20 DUP3 KECCAK256 SWAP1 PUSH1 0x20 PUSH1 0x1F DUP6 ADD PUSH1 0x5 SHR DUP4 ADD SWAP5 LT PUSH3 0x396 JUMPI JUMPDEST PUSH1 0x1F ADD PUSH1 0x5 SHR ADD SWAP2 JUMPDEST DUP3 DUP2 LT PUSH3 0x38A JUMPI POP POP POP JUMP JUMPDEST DUP2 DUP2 SSTORE PUSH1 0x1 ADD PUSH3 0x37D JUMP JUMPDEST SWAP1 SWAP3 POP DUP3 SWAP1 PUSH3 0x374 JUMP JUMPDEST PUSH1 0x1F DUP2 GT PUSH3 0x3AE JUMPI POP POP JUMP JUMPDEST PUSH1 0x0 SWAP1 PUSH1 0xE DUP3 MSTORE PUSH1 0x20 DUP3 KECCAK256 SWAP1 PUSH1 0x20 PUSH1 0x1F DUP6 ADD PUSH1 0x5 SHR DUP4 ADD SWAP5 LT PUSH3 0x3EF JUMPI JUMPDEST PUSH1 0x1F ADD PUSH1 0x5 SHR ADD SWAP2 JUMPDEST DUP3 DUP2 LT PUSH3 0x3E3 JUMPI POP POP POP JUMP JUMPDEST DUP2 DUP2 SSTORE PUSH1 0x1 ADD PUSH3 0x3D6 JUMP JUMPDEST SWAP1 SWAP3 POP DUP3 SWAP1 PUSH3 0x3CD JUMP JUMPDEST PUSH1 0x1F DUP2 GT PUSH3 0x407 JUMPI POP POP JUMP JUMPDEST PUSH1 0x0 SWAP1 PUSH1 0xF DUP3 MSTORE PUSH1 0x20 DUP3 KECCAK256 SWAP1 PUSH1 0x20 PUSH1 0x1F DUP6 ADD PUSH1 0x5 SHR DUP4 ADD SWAP5 LT PUSH3 0x448 JUMPI JUMPDEST PUSH1 0x1F ADD PUSH1 0x5 SHR ADD SWAP2 JUMPDEST DUP3 DUP2 LT PUSH3 0x43C JUMPI POP POP POP JUMP JUMPDEST DUP2 DUP2 SSTORE PUSH1 0x1 ADD PUSH3 0x42F JUMP JUMPDEST SWAP1 SWAP3 POP DUP3 SWAP1 PUSH3 0x426 JUMP JUMPDEST PUSH1 0x1F DUP2 GT PUSH3 0x460 JUMPI POP POP JUMP JUMPDEST PUSH1 0x0 SWAP1 PUSH1 0x10 DUP3 MSTORE PUSH1 0x20 DUP3 KECCAK256 SWAP1 PUSH1 0x20 PUSH1 0x1F DUP6 ADD PUSH1 0x5 SHR DUP4 ADD SWAP5 LT PUSH3 0x4A1 JUMPI JUMPDEST PUSH1 0x1F ADD PUSH1 0x5 SHR ADD SWAP2 JUMPDEST DUP3 DUP2 LT PUSH3 0x495 JUMPI POP POP POP JUMP JUMPDEST DUP2 DUP2 SSTORE PUSH1 0x1 ADD PUSH3 0x488 JUMP JUMPDEST SWAP1 SWAP3 POP DUP3 SWAP1 PUSH3 0x47F JUMP JUMPDEST PUSH1 0x1F DUP2 GT PUSH3 0x4B9 JUMPI POP POP JUMP JUMPDEST PUSH1 0x0 SWAP1 PUSH1 0x5 DUP3 MSTORE PUSH1 0x20 DUP3 KECCAK256 SWAP1 PUSH1 0x20 PUSH1 0x1F DUP6 ADD PUSH1 0x5 SHR DUP4 ADD SWAP5 LT PUSH3 0x4FA JUMPI JUMPDEST PUSH1 0x1F ADD PUSH1 0x5 SHR ADD SWAP2 JUMPDEST DUP3 DUP2 LT PUSH3 0x4EE JUMPI POP POP POP JUMP JUMPDEST DUP2 DUP2 SSTORE PUSH1 0x1 ADD PUSH3 0x4E1 JUMP JUMPDEST SWAP1 SWAP3 POP DUP3 SWAP1 PUSH3 0x4D8 JUMP JUMPDEST PUSH1 0x1F DUP2 GT PUSH3 0x512 JUMPI POP POP JUMP JUMPDEST PUSH1 0x0 SWAP1 PUSH1 0x6 DUP3 MSTORE PUSH1 0x20 DUP3 KECCAK256 SWAP1 PUSH1 0x20 PUSH1 0x1F DUP6 ADD PUSH1 0x5 SHR DUP4 ADD SWAP5 LT PUSH3 0x553 JUMPI JUMPDEST PUSH1 0x1F ADD PUSH1 0x5 SHR ADD SWAP2 JUMPDEST DUP3 DUP2 LT PUSH3 0x547 JUMPI POP POP POP JUMP JUMPDEST DUP2 DUP2 SSTORE PUSH1 0x1 ADD PUSH3 0x53A JUMP JUMPDEST SWAP1 SWAP3 POP DUP3 SWAP1 PUSH3 0x531 JUMP JUMPDEST DUP1 MLOAD SWAP1 SWAP2 SWAP1 PUSH1 0x1 PUSH1 0x1 PUSH1 0x40 SHL SUB DUP2 GT PUSH3 0x183 JUMPI PUSH3 0x58A DUP2 PUSH3 0x584 PUSH1 0x4 SLOAD PUSH3 0x259 JUMP JUMPDEST PUSH3 0x2EF JUMP JUMPDEST PUSH1 0x20 DUP1 PUSH1 0x1F DUP4 GT PUSH1 0x1 EQ PUSH3 0x5C9 JUMPI POP DUP2 SWAP3 SWAP4 PUSH1 0x0 SWAP3 PUSH3 0x5BD JUMPI JUMPDEST POP POP DUP2 PUSH1 0x1 SHL SWAP2 PUSH1 0x0 NOT SWAP1 PUSH1 0x3 SHL SHR NOT AND OR PUSH1 0x4 SSTORE JUMP JUMPDEST ADD MLOAD SWAP1 POP CODESIZE DUP1 PUSH3 0x5A6 JUMP JUMPDEST PUSH1 0x4 PUSH1 0x0 MSTORE PUSH1 0x1F NOT DUP4 AND SWAP5 SWAP1 SWAP2 SWAP1 PUSH32 0x8A35ACFBC15FF81A39AE7D344FD709F28E8600B4AA8C65C6B64BFE7FE36BD19B SWAP3 PUSH1 0x0 SWAP1 JUMPDEST DUP8 DUP3 LT PUSH3 0x638 JUMPI POP POP DUP4 PUSH1 0x1 SWAP6 SWAP7 LT PUSH3 0x61E JUMPI JUMPDEST POP POP POP DUP2 SHL ADD PUSH1 0x4 SSTORE JUMP JUMPDEST ADD MLOAD PUSH1 0x0 NOT PUSH1 0xF8 DUP5 PUSH1 0x3 SHL AND SHR NOT AND SWAP1 SSTORE CODESIZE DUP1 DUP1 PUSH3 0x613 JUMP JUMPDEST DUP1 PUSH1 0x1 DUP6 SWAP7 DUP3 SWAP5 SWAP7 DUP7 ADD MLOAD DUP2 SSTORE ADD SWAP6 ADD SWAP4 ADD SWAP1 PUSH3 0x5FD JUMP JUMPDEST DUP1 MLOAD SWAP1 SWAP2 SWAP1 PUSH1 0x1 PUSH1 0x1 PUSH1 0x40 SHL SUB DUP2 GT PUSH3 0x183 JUMPI PUSH3 0x67D DUP2 PUSH3 0x677 PUSH1 0xD SLOAD PUSH3 0x259 JUMP JUMPDEST PUSH3 0x348 JUMP JUMPDEST PUSH1 0x20 DUP1 PUSH1 0x1F DUP4 GT PUSH1 0x1 EQ PUSH3 0x6BC JUMPI POP DUP2 SWAP3 SWAP4 PUSH1 0x0 SWAP3 PUSH3 0x6B0 JUMPI JUMPDEST POP POP DUP2 PUSH1 0x1 SHL SWAP2 PUSH1 0x0 NOT SWAP1 PUSH1 0x3 SHL SHR NOT AND OR PUSH1 0xD SSTORE JUMP JUMPDEST ADD MLOAD SWAP1 POP CODESIZE DUP1 PUSH3 0x699 JUMP JUMPDEST PUSH1 0xD PUSH1 0x0 MSTORE PUSH1 0x1F NOT DUP4 AND SWAP5 SWAP1 SWAP2 SWAP1 PUSH32 0xD7B6990105719101DABEB77144F2A3385C8033ACD3AF97E9423A695E81AD1EB5 SWAP3 PUSH1 0x0 SWAP1 JUMPDEST DUP8 DUP3 LT PUSH3 0x72B JUMPI POP POP DUP4 PUSH1 0x1 SWAP6 SWAP7 LT PUSH3 0x711 JUMPI JUMPDEST POP POP POP DUP2 SHL ADD PUSH1 0xD SSTORE JUMP JUMPDEST ADD MLOAD PUSH1 0x0 NOT PUSH1 0xF8 DUP5 PUSH1 0x3 SHL AND SHR NOT AND SWAP1 SSTORE CODESIZE DUP1 DUP1 PUSH3 0x706 JUMP JUMPDEST DUP1 PUSH1 0x1 DUP6 SWAP7 DUP3 SWAP5 SWAP7 DUP7 ADD MLOAD DUP2 SSTORE ADD SWAP6 ADD SWAP4 ADD SWAP1 PUSH3 0x6F0 JUMP JUMPDEST DUP1 MLOAD SWAP1 SWAP2 SWAP1 PUSH1 0x1 PUSH1 0x1 PUSH1 0x40 SHL SUB DUP2 GT PUSH3 0x183 JUMPI PUSH3 0x770 DUP2 PUSH3 0x76A PUSH1 0xE SLOAD PUSH3 0x259 JUMP JUMPDEST PUSH3 0x3A1 JUMP JUMPDEST PUSH1 0x20 DUP1 PUSH1 0x1F DUP4 GT PUSH1 0x1 EQ PUSH3 0x7AF JUMPI POP DUP2 SWAP3 SWAP4 PUSH1 0x0 SWAP3 PUSH3 0x7A3 JUMPI JUMPDEST POP POP DUP2 PUSH1 0x1 SHL SWAP2 PUSH1 0x0 NOT SWAP1 PUSH1 0x3 SHL SHR NOT AND OR PUSH1 0xE SSTORE JUMP JUMPDEST ADD MLOAD SWAP1 POP CODESIZE DUP1 PUSH3 0x78C JUMP JUMPDEST PUSH1 0xE PUSH1 0x0 MSTORE PUSH1 0x1F NOT DUP4 AND SWAP5 SWAP1 SWAP2 SWAP1 PUSH32 0xBB7B4A454DC3493923482F07822329ED19E8244EFF582CC204F8554C3620C3FD SWAP3 PUSH1 0x0 SWAP1 JUMPDEST DUP8 DUP3 LT PUSH3 0x81E JUMPI POP POP DUP4 PUSH1 0x1 SWAP6 SWAP7 LT PUSH3 0x804 JUMPI JUMPDEST POP POP POP DUP2 SHL ADD PUSH1 0xE SSTORE JUMP JUMPDEST ADD MLOAD PUSH1 0x0 NOT PUSH1 0xF8 DUP5 PUSH1 0x3 SHL AND SHR NOT AND SWAP1 SSTORE CODESIZE DUP1 DUP1 PUSH3 0x7F9 JUMP JUMPDEST DUP1 PUSH1 0x1 DUP6 SWAP7 DUP3 SWAP5 SWAP7 DUP7 ADD MLOAD DUP2 SSTORE ADD SWAP6 ADD SWAP4 ADD SWAP1 PUSH3 0x7E3 JUMP JUMPDEST DUP1 MLOAD SWAP1 SWAP2 SWAP1 PUSH1 0x1 PUSH1 0x1 PUSH1 0x40 SHL SUB DUP2 GT PUSH3 0x183 JUMPI PUSH3 0x863 DUP2 PUSH3 0x85D PUSH1 0xF SLOAD PUSH3 0x259 JUMP JUMPDEST PUSH3 0x3FA JUMP JUMPDEST PUSH1 0x20 DUP1 PUSH1 0x1F DUP4 GT PUSH1 0x1 EQ PUSH3 0x8A2 JUMPI POP DUP2 SWAP3 SWAP4 PUSH1 0x0 SWAP3 PUSH3 0x896 JUMPI JUMPDEST POP POP DUP2 PUSH1 0x1 SHL SWAP2 PUSH1 0x0 NOT SWAP1 PUSH1 0x3 SHL SHR NOT AND OR PUSH1 0xF SSTORE JUMP JUMPDEST ADD MLOAD SWAP1 POP CODESIZE DUP1 PUSH3 0x87F JUMP JUMPDEST PUSH1 0xF PUSH1 0x0 MSTORE PUSH1 0x1F NOT DUP4 AND SWAP5 SWAP1 SWAP2 SWAP1 PUSH32 0x8D1108E10BCB7C27DDDFC02ED9D693A074039D026CF4EA4240B40F7D581AC802 SWAP3 PUSH1 0x0 SWAP1 JUMPDEST DUP8 DUP3 LT PUSH3 0x911 JUMPI POP POP DUP4 PUSH1 0x1 SWAP6 SWAP7 LT PUSH3 0x8F7 JUMPI JUMPDEST POP POP POP DUP2 SHL ADD PUSH1 0xF SSTORE JUMP JUMPDEST ADD MLOAD PUSH1 0x0 NOT PUSH1 0xF8 DUP5 PUSH1 0x3 SHL AND SHR NOT AND SWAP1 SSTORE CODESIZE DUP1 DUP1 PUSH3 0x8EC JUMP JUMPDEST DUP1 PUSH1 0x1 DUP6 SWAP7 DUP3 SWAP5 SWAP7 DUP7 ADD MLOAD DUP2 SSTORE ADD SWAP6 ADD SWAP4 ADD SWAP1 PUSH3 0x8D6 JUMP JUMPDEST DUP1 MLOAD SWAP1 SWAP2 SWAP1 PUSH1 0x1 PUSH1 0x1 PUSH1 0x40 SHL SUB DUP2 GT PUSH3 0x183 JUMPI PUSH3 0x956 DUP2 PUSH3 0x950 PUSH1 0x10 SLOAD PUSH3 0x259 JUMP JUMPDEST PUSH3 0x453 JUMP JUMPDEST PUSH1 0x20 DUP1 PUSH1 0x1F DUP4 GT PUSH1 0x1 EQ PUSH3 0x995 JUMPI POP DUP2 SWAP3 SWAP4 PUSH1 0x0 SWAP3 PUSH3 0x989 JUMPI JUMPDEST POP POP DUP2 PUSH1 0x1 SHL SWAP2 PUSH1 0x0 NOT SWAP1 PUSH1 0x3 SHL SHR NOT AND OR PUSH1 0x10 SSTORE JUMP JUMPDEST ADD MLOAD SWAP1 POP CODESIZE DUP1 PUSH3 0x972 JUMP JUMPDEST PUSH1 0x10 PUSH1 0x0 MSTORE PUSH1 0x1F NOT DUP4 AND SWAP5 SWAP1 SWAP2 SWAP1 PUSH32 0x1B6847DC741A1B0CD08D278845F9D819D87B734759AFB55FE2DE5CB82A9AE672 SWAP3 PUSH1 0x0 SWAP1 JUMPDEST DUP8 DUP3 LT PUSH3 0xA04 JUMPI POP POP DUP4 PUSH1 0x1 SWAP6 SWAP7 LT PUSH3 0x9EA JUMPI JUMPDEST POP POP POP DUP2 SHL ADD PUSH1 0x10 SSTORE JUMP JUMPDEST ADD MLOAD PUSH1 0x0 NOT PUSH1 0xF8 DUP5 PUSH1 0x3 SHL AND SHR NOT AND SWAP1 SSTORE CODESIZE DUP1 DUP1 PUSH3 0x9DF JUMP JUMPDEST DUP1 PUSH1 0x1 DUP6 SWAP7 DUP3 SWAP5 SWAP7 DUP7 ADD MLOAD DUP2 SSTORE ADD SWAP6 ADD SWAP4 ADD SWAP1 PUSH3 0x9C9 JUMP JUMPDEST SWAP7 SWAP2 SWAP3 SWAP7 SWAP5 SWAP4 SWAP5 PUSH1 0x40 MLOAD SWAP1 PUSH3 0xA33 DUP3 PUSH3 0x189 JUMP JUMPDEST PUSH1 0x1 DUP1 DUP4 MSTORE PUSH1 0x20 SWAP1 DUP2 DUP5 ADD SWAP5 PUSH1 0x31 PUSH1 0xF8 SHL DUP7 MSTORE DUP4 MLOAD PUSH1 0x1 DUP1 PUSH1 0x40 SHL SUB DUP2 GT PUSH3 0x183 JUMPI PUSH3 0xA6E DUP2 PUSH3 0xA68 PUSH1 0x3 SLOAD PUSH3 0x259 JUMP JUMPDEST PUSH3 0x296 JUMP JUMPDEST DUP4 SWAP3 PUSH1 0x1F DUP3 GT PUSH1 0x1 EQ PUSH3 0xB72 JUMPI DUP2 DUP1 SWAP2 PUSH3 0xAA4 SWAP6 PUSH1 0x0 SWAP4 PUSH3 0xB66 JUMPI JUMPDEST POP SHL SWAP2 PUSH1 0x0 NOT SWAP1 PUSH1 0x3 SHL SHR NOT AND OR PUSH1 0x3 SSTORE PUSH3 0x55E JUMP JUMPDEST PUSH3 0xAAF DUP3 PUSH3 0x1015 JUMP JUMPDEST PUSH2 0x120 MSTORE PUSH3 0xABE DUP4 PUSH3 0x1125 JUMP JUMPDEST PUSH2 0x140 MSTORE DUP2 MLOAD SWAP2 ADD KECCAK256 PUSH1 0xE0 MSTORE MLOAD SWAP1 KECCAK256 PUSH2 0x100 MSTORE CHAINID PUSH1 0xA0 MSTORE PUSH3 0xADF PUSH3 0x12A4 JUMP JUMPDEST PUSH1 0x80 MSTORE ADDRESS PUSH1 0xC0 MSTORE PUSH1 0x1 PUSH1 0x1 PUSH1 0xA0 SHL SUB DUP6 AND ISZERO PUSH3 0xB4D JUMPI PUSH3 0xB39 PUSH3 0xB46 SWAP5 PUSH3 0xB33 PUSH3 0x1B4 SWAP9 PUSH3 0xB2D PUSH3 0xB3F SWAP7 PUSH3 0xB1C DUP12 PUSH3 0xBFE JUMP JUMPDEST PUSH3 0xB27 PUSH1 0x1 PUSH1 0xC SSTORE JUMP JUMPDEST PUSH3 0x651 JUMP JUMPDEST PUSH3 0x744 JUMP JUMPDEST PUSH3 0x837 JUMP JUMPDEST PUSH3 0x92A JUMP JUMPDEST DUP3 PUSH3 0xF27 JUMP JUMPDEST DUP1 PUSH3 0xC47 JUMP JUMPDEST PUSH1 0x40 MLOAD PUSH4 0x1E4FBDF7 PUSH1 0xE0 SHL DUP2 MSTORE PUSH1 0x0 PUSH1 0x4 DUP3 ADD MSTORE PUSH1 0x24 SWAP1 REVERT JUMPDEST DUP9 ADD MLOAD SWAP3 POP CODESIZE PUSH3 0xA8D JUMP JUMPDEST PUSH1 0x3 PUSH1 0x0 MSTORE SWAP2 SWAP3 PUSH1 0x1F NOT DUP3 AND SWAP1 PUSH32 0xC2575A0E9E593C00F959F8C92F12DB2869C3395A3B0502D05E2516446F71F85B SWAP2 PUSH1 0x0 JUMPDEST DUP8 DUP3 DUP3 LT PUSH3 0xBE9 JUMPI POP POP SWAP1 DUP4 PUSH3 0xAA4 SWAP7 SWAP6 SWAP5 SWAP4 SWAP3 LT PUSH3 0xBCF JUMPI JUMPDEST POP POP DUP2 SHL ADD PUSH1 0x3 SSTORE PUSH3 0x55E JUMP JUMPDEST DUP8 ADD MLOAD PUSH1 0x0 NOT PUSH1 0xF8 DUP5 PUSH1 0x3 SHL AND SHR NOT AND SWAP1 SSTORE CODESIZE DUP1 PUSH3 0xBC1 JUMP JUMPDEST DUP10 DUP5 ADD MLOAD DUP6 SSTORE SWAP4 DUP7 ADD SWAP4 SWAP3 DUP4 ADD SWAP3 ADD PUSH3 0xBA4 JUMP JUMPDEST PUSH1 0xB DUP1 SLOAD PUSH1 0x1 PUSH1 0x1 PUSH1 0xA0 SHL SUB SWAP3 DUP4 AND PUSH1 0x1 PUSH1 0x1 PUSH1 0xA0 SHL SUB NOT DUP3 AND DUP2 OR SWAP1 SWAP3 SSTORE SWAP1 SWAP2 AND PUSH32 0x8BE0079C531659141344CD1FD0A4F28419497F9722A3DAAFE3B4186F6B6457E0 PUSH1 0x0 DUP1 LOG3 JUMP JUMPDEST PUSH1 0x1 PUSH1 0x1 PUSH1 0xA0 SHL SUB SWAP1 DUP2 AND PUSH1 0x0 DUP2 DUP2 MSTORE PUSH1 0x8 PUSH1 0x20 MSTORE PUSH1 0x40 DUP1 DUP3 KECCAK256 DUP1 SLOAD DUP7 DUP7 AND PUSH1 0x1 PUSH1 0x1 PUSH1 0xA0 SHL SUB NOT DUP3 AND DUP2 OR SWAP1 SWAP3 SSTORE PUSH3 0x1B4 SWAP7 SWAP6 AND SWAP5 SWAP4 SWAP2 SWAP3 SWAP2 DUP6 SWAP1 PUSH32 0x3134E8A2E6D97E929A7E54011EA5485D7D196DD5F0BA4D4EF95803E8E3FC257F DUP5 DUP1 LOG4 DUP1 PUSH1 0x20 MSTORE KECCAK256 SLOAD SWAP2 JUMPDEST PUSH1 0x1 PUSH1 0x1 PUSH1 0xA0 SHL SUB DUP1 DUP4 AND SWAP4 SWAP3 SWAP2 SWAP1 DUP2 AND SWAP1 DUP2 DUP6 EQ ISZERO DUP1 PUSH3 0xE49 JUMPI JUMPDEST PUSH3 0xCDA JUMPI JUMPDEST POP POP POP POP POP JUMP JUMPDEST DUP2 PUSH3 0xD56 JUMPI JUMPDEST POP POP DUP3 PUSH3 0xCF2 JUMPI JUMPDEST DUP1 DUP1 PUSH3 0xCD3 JUMP JUMPDEST PUSH1 0x1 PUSH1 0x1 PUSH1 0xA0 SHL SUB AND PUSH1 0x0 SWAP1 DUP2 MSTORE PUSH1 0x9 PUSH1 0x20 MSTORE PUSH1 0x40 SWAP1 KECCAK256 PUSH1 0x0 DUP1 MLOAD PUSH1 0x20 PUSH3 0x48EE DUP4 CODECOPY DUP2 MLOAD SWAP2 MSTORE SWAP2 PUSH3 0xD32 SWAP2 PUSH3 0xD2B SWAP1 SWAP2 PUSH3 0x1310 JUMP JUMPDEST SWAP1 PUSH3 0xE53 JUMP JUMPDEST PUSH1 0x40 DUP1 MLOAD PUSH1 0x1 PUSH1 0x1 PUSH1 0xD0 SHL SUB SWAP4 DUP5 AND DUP2 MSTORE SWAP2 SWAP1 SWAP3 AND PUSH1 0x20 DUP3 ADD MSTORE LOG2 CODESIZE DUP1 DUP1 PUSH3 0xCEA JUMP JUMPDEST PUSH1 0x1 PUSH1 0x1 PUSH1 0xA0 SHL SUB AND PUSH1 0x0 SWAP1 DUP2 MSTORE PUSH1 0x9 PUSH1 0x20 MSTORE PUSH1 0x40 SWAP1 KECCAK256 PUSH3 0xD78 DUP5 PUSH3 0x1310 JUMP JUMPDEST SWAP1 PUSH6 0xFFFFFFFFFFFF SWAP1 DUP2 NUMBER GT PUSH3 0xE2A JUMPI DUP1 SLOAD PUSH1 0x0 DUP2 PUSH3 0xDE5 JUMPI POP POP SWAP1 PUSH3 0xDC2 SWAP2 PUSH3 0xDB8 PUSH1 0x0 DUP1 MLOAD PUSH1 0x20 PUSH3 0x48EE DUP4 CODECOPY DUP2 MLOAD SWAP2 MSTORE SWAP5 PUSH1 0x0 PUSH3 0x16DA JUMP JUMPDEST SWAP2 NUMBER AND SWAP1 PUSH3 0x151E JUMP JUMPDEST PUSH1 0x40 DUP1 MLOAD PUSH1 0x1 PUSH1 0x1 PUSH1 0xD0 SHL SUB SWAP4 DUP5 AND DUP2 MSTORE SWAP2 SWAP1 SWAP3 AND PUSH1 0x20 DUP3 ADD MSTORE LOG2 CODESIZE DUP1 PUSH3 0xCE1 JUMP JUMPDEST PUSH1 0x0 SWAP4 SWAP3 SWAP2 SWAP4 NOT SWAP5 DUP5 DUP7 DUP2 ADD GT PUSH3 0xE24 JUMPI PUSH1 0x0 DUP1 MLOAD PUSH1 0x20 PUSH3 0x48EE DUP4 CODECOPY DUP2 MLOAD SWAP2 MSTORE SWAP6 PUSH3 0xDC2 SWAP6 PUSH1 0x20 DUP5 DUP7 PUSH3 0xDB8 SWAP7 MSTORE KECCAK256 ADD ADD SLOAD PUSH1 0x30 SHR PUSH3 0x16DA JUMP JUMPDEST PUSH3 0xF11 JUMP JUMPDEST PUSH1 0x40 MLOAD PUSH4 0x6DFCC65 PUSH1 0xE4 SHL DUP2 MSTORE PUSH1 0x30 PUSH1 0x4 DUP3 ADD MSTORE NUMBER PUSH1 0x24 DUP3 ADD MSTORE PUSH1 0x44 SWAP1 REVERT JUMPDEST POP DUP4 ISZERO ISZERO PUSH3 0xCCD JUMP JUMPDEST PUSH6 0xFFFFFFFFFFFF SWAP1 DUP2 NUMBER GT PUSH3 0xE2A JUMPI DUP1 SLOAD PUSH1 0x0 DUP2 PUSH3 0xE84 JUMPI POP POP PUSH3 0xDB8 PUSH3 0xE80 SWAP4 PUSH1 0x0 PUSH3 0x16F4 JUMP JUMPDEST SWAP1 SWAP2 JUMP JUMPDEST SWAP1 SWAP4 PUSH1 0x0 NOT DUP6 DUP2 DUP2 ADD GT PUSH3 0xE24 JUMPI PUSH3 0xE80 SWAP6 PUSH1 0x20 DUP5 DUP7 PUSH3 0xDB8 SWAP7 MSTORE KECCAK256 ADD ADD SLOAD PUSH1 0x30 SHR PUSH3 0x16F4 JUMP JUMPDEST PUSH6 0xFFFFFFFFFFFF DUP1 NUMBER GT PUSH3 0xE2A JUMPI PUSH1 0xA SLOAD PUSH1 0x0 DUP2 PUSH3 0xEE5 JUMPI POP POP PUSH3 0xEDC PUSH3 0xE80 SWAP3 PUSH1 0x0 PUSH3 0x16DA JUMP JUMPDEST SWAP1 NUMBER AND PUSH3 0x1422 JUMP JUMPDEST SWAP1 SWAP3 PUSH1 0x0 NOT DUP5 DUP2 DUP2 ADD GT PUSH3 0xE24 JUMPI PUSH3 0xE80 SWAP5 PUSH1 0x20 DUP5 PUSH1 0xA PUSH3 0xEDC SWAP7 MSTORE KECCAK256 ADD ADD SLOAD PUSH1 0x30 SHR PUSH3 0x16DA JUMP JUMPDEST PUSH4 0x4E487B71 PUSH1 0xE0 SHL PUSH1 0x0 MSTORE PUSH1 0x11 PUSH1 0x4 MSTORE PUSH1 0x24 PUSH1 0x0 REVERT JUMPDEST SWAP1 PUSH1 0x1 PUSH1 0x1 PUSH1 0xA0 SHL SUB DUP3 AND DUP1 ISZERO PUSH3 0xFFC JUMPI PUSH3 0xF50 PUSH3 0xF4B DUP4 PUSH1 0x2 SLOAD PUSH3 0x16CC JUMP JUMPDEST PUSH1 0x2 SSTORE JUMP JUMPDEST PUSH1 0x1 PUSH1 0x1 PUSH1 0xA0 SHL SUB DUP4 AND PUSH1 0x0 SWAP1 DUP2 MSTORE PUSH1 0x20 DUP2 DUP2 MSTORE PUSH1 0x40 DUP1 DUP4 KECCAK256 DUP1 SLOAD DUP7 ADD SWAP1 SSTORE MLOAD DUP5 DUP2 MSTORE PUSH32 0xDDF252AD1BE2C89B69C2B068FC378DAA952BA7F163C4A11628F55A4DF523B3EF SWAP2 SWAP1 LOG3 PUSH1 0x2 SLOAD PUSH1 0x1 PUSH1 0x1 PUSH1 0xD0 SHL SUB DUP2 GT PUSH3 0xFD5 JUMPI POP PUSH3 0xFB6 SWAP1 DUP3 PUSH3 0x15EB JUMP JUMPDEST PUSH1 0x15 SLOAD PUSH1 0x1 PUSH1 0x1 PUSH1 0xA0 SHL SUB SWAP1 SWAP2 AND PUSH1 0x0 SWAP1 DUP2 MSTORE PUSH1 0x14 PUSH1 0x20 MSTORE PUSH1 0x40 SWAP1 KECCAK256 SSTORE JUMP JUMPDEST PUSH1 0x40 MLOAD PUSH4 0xE58AE93 PUSH1 0xE1 SHL DUP2 MSTORE PUSH1 0x4 DUP2 ADD SWAP2 SWAP1 SWAP2 MSTORE PUSH1 0x1 PUSH1 0x1 PUSH1 0xD0 SHL SUB PUSH1 0x24 DUP3 ADD MSTORE PUSH1 0x44 SWAP1 REVERT JUMPDEST PUSH1 0x40 MLOAD PUSH4 0xEC442F05 PUSH1 0xE0 SHL DUP2 MSTORE PUSH1 0x0 PUSH1 0x4 DUP3 ADD MSTORE PUSH1 0x24 SWAP1 REVERT JUMPDEST SWAP1 DUP2 MLOAD PUSH1 0x20 DUP1 DUP3 LT PUSH1 0x0 EQ PUSH3 0x1033 JUMPI POP POP SWAP1 PUSH3 0x23E SWAP1 PUSH3 0x1235 JUMP JUMPDEST PUSH1 0x1 PUSH1 0x1 PUSH1 0x40 SHL SUB DUP3 GT PUSH3 0x183 JUMPI PUSH3 0x105A DUP3 PUSH3 0x1054 PUSH1 0x5 SLOAD PUSH3 0x259 JUMP JUMPDEST PUSH3 0x4AC JUMP JUMPDEST DUP1 PUSH1 0x1F DUP4 GT PUSH1 0x1 EQ PUSH3 0x109A JUMPI POP DUP2 SWAP3 SWAP4 PUSH1 0x0 SWAP3 PUSH3 0x108E JUMPI JUMPDEST POP POP DUP2 PUSH1 0x1 SHL SWAP2 PUSH1 0x0 NOT SWAP1 PUSH1 0x3 SHL SHR NOT AND OR PUSH1 0x5 SSTORE PUSH1 0xFF SWAP1 JUMP JUMPDEST ADD MLOAD SWAP1 POP CODESIZE DUP1 PUSH3 0x1074 JUMP JUMPDEST PUSH1 0x5 PUSH1 0x0 MSTORE PUSH1 0x1F NOT DUP4 AND SWAP5 SWAP1 SWAP2 SWAP1 PUSH32 0x36B6384B5ECA791C62761152D0C79BB0604C104A5FB6F4EB0703F3154BB3DB0 SWAP3 PUSH1 0x0 SWAP1 JUMPDEST DUP8 DUP3 LT PUSH3 0x110C JUMPI POP POP DUP4 PUSH1 0x1 SWAP6 SWAP7 LT PUSH3 0x10F2 JUMPI JUMPDEST POP POP POP DUP2 SHL ADD PUSH1 0x5 SSTORE PUSH1 0xFF SWAP1 JUMP JUMPDEST ADD MLOAD PUSH1 0x0 NOT PUSH1 0xF8 DUP5 PUSH1 0x3 SHL AND SHR NOT AND SWAP1 SSTORE CODESIZE DUP1 DUP1 PUSH3 0x10E4 JUMP JUMPDEST DUP1 PUSH1 0x1 DUP6 SWAP7 DUP3 SWAP5 SWAP7 DUP7 ADD MLOAD DUP2 SSTORE ADD SWAP6 ADD SWAP4 ADD SWAP1 PUSH3 0x10CE JUMP JUMPDEST SWAP1 DUP2 MLOAD PUSH1 0x20 DUP1 DUP3 LT PUSH1 0x0 EQ PUSH3 0x1143 JUMPI POP POP SWAP1 PUSH3 0x23E SWAP1 PUSH3 0x1235 JUMP JUMPDEST PUSH1 0x1 PUSH1 0x1 PUSH1 0x40 SHL SUB DUP3 GT PUSH3 0x183 JUMPI PUSH3 0x116A DUP3 PUSH3 0x1164 PUSH1 0x6 SLOAD PUSH3 0x259 JUMP JUMPDEST PUSH3 0x505 JUMP JUMPDEST DUP1 PUSH1 0x1F DUP4 GT PUSH1 0x1 EQ PUSH3 0x11AA JUMPI POP DUP2 SWAP3 SWAP4 PUSH1 0x0 SWAP3 PUSH3 0x119E JUMPI JUMPDEST POP POP DUP2 PUSH1 0x1 SHL SWAP2 PUSH1 0x0 NOT SWAP1 PUSH1 0x3 SHL SHR NOT AND OR PUSH1 0x6 SSTORE PUSH1 0xFF SWAP1 JUMP JUMPDEST ADD MLOAD SWAP1 POP CODESIZE DUP1 PUSH3 0x1184 JUMP JUMPDEST PUSH1 0x6 PUSH1 0x0 MSTORE PUSH1 0x1F NOT DUP4 AND SWAP5 SWAP1 SWAP2 SWAP1 PUSH32 0xF652222313E28459528D920B65115C16C04F3EFC82AAEDC97BE59F3F377C0D3F SWAP3 PUSH1 0x0 SWAP1 JUMPDEST DUP8 DUP3 LT PUSH3 0x121C JUMPI POP POP DUP4 PUSH1 0x1 SWAP6 SWAP7 LT PUSH3 0x1202 JUMPI JUMPDEST POP POP POP DUP2 SHL ADD PUSH1 0x6 SSTORE PUSH1 0xFF SWAP1 JUMP JUMPDEST ADD MLOAD PUSH1 0x0 NOT PUSH1 0xF8 DUP5 PUSH1 0x3 SHL AND SHR NOT AND SWAP1 SSTORE CODESIZE DUP1 DUP1 PUSH3 0x11F4 JUMP JUMPDEST DUP1 PUSH1 0x1 DUP6 SWAP7 DUP3 SWAP5 SWAP7 DUP7 ADD MLOAD DUP2 SSTORE ADD SWAP6 ADD SWAP4 ADD SWAP1 PUSH3 0x11DE JUMP JUMPDEST PUSH1 0x1F DUP2 MLOAD GT PUSH3 0x1263 JUMPI PUSH1 0x20 DUP2 MLOAD SWAP2 ADD MLOAD PUSH1 0x20 DUP3 LT PUSH3 0x1253 JUMPI OR SWAP1 JUMP JUMPDEST PUSH1 0x0 NOT DUP3 PUSH1 0x20 SUB PUSH1 0x3 SHL SHL AND OR SWAP1 JUMP JUMPDEST PUSH1 0x44 PUSH1 0x40 MLOAD DUP1 SWAP3 PUSH4 0x305A27A9 PUSH1 0xE0 SHL DUP3 MSTORE PUSH1 0x20 PUSH1 0x4 DUP4 ADD MSTORE PUSH3 0x1296 DUP2 MLOAD DUP1 SWAP3 DUP2 PUSH1 0x24 DUP7 ADD MSTORE PUSH1 0x20 DUP7 DUP7 ADD SWAP2 ADD PUSH3 0x1B6 JUMP JUMPDEST PUSH1 0x1F ADD PUSH1 0x1F NOT AND DUP2 ADD SUB ADD SWAP1 REVERT JUMPDEST PUSH1 0xE0 MLOAD PUSH2 0x100 MLOAD PUSH1 0x40 MLOAD SWAP1 PUSH1 0x20 DUP3 ADD SWAP3 PUSH32 0x8B73C3C69BB8FE3D512ECC4CF759CC79239F7B179B0FFACAA9A75D522B39400F DUP5 MSTORE PUSH1 0x40 DUP4 ADD MSTORE PUSH1 0x60 DUP3 ADD MSTORE CHAINID PUSH1 0x80 DUP3 ADD MSTORE ADDRESS PUSH1 0xA0 DUP3 ADD MSTORE PUSH1 0xA0 DUP2 MSTORE PUSH1 0xC0 DUP2 ADD DUP2 DUP2 LT PUSH1 0x1 DUP1 PUSH1 0x40 SHL SUB DUP3 GT OR PUSH3 0x183 JUMPI PUSH1 0x40 MSTORE MLOAD SWAP1 KECCAK256 SWAP1 JUMP JUMPDEST PUSH1 0x1 PUSH1 0x1 PUSH1 0xD0 SHL SUB SWAP1 DUP2 DUP2 GT PUSH3 0x1325 JUMPI AND SWAP1 JUMP JUMPDEST PUSH1 0x44 SWAP1 PUSH1 0x40 MLOAD SWAP1 PUSH4 0x6DFCC65 PUSH1 0xE4 SHL DUP3 MSTORE PUSH1 0xD0 PUSH1 0x4 DUP4 ADD MSTORE PUSH1 0x24 DUP3 ADD MSTORE REVERT JUMPDEST PUSH1 0x0 NOT DUP2 ADD SWAP2 SWAP1 DUP3 GT PUSH3 0xE24 JUMPI JUMP JUMPDEST PUSH1 0xA SLOAD SWAP1 PUSH9 0x10000000000000000 DUP3 LT ISZERO PUSH3 0x183 JUMPI PUSH1 0x1 DUP3 ADD DUP1 PUSH1 0xA SSTORE DUP3 LT ISZERO PUSH3 0x13B6 JUMPI PUSH1 0xA PUSH1 0x0 MSTORE DUP1 MLOAD PUSH1 0x20 SWAP2 SWAP1 SWAP2 ADD MLOAD PUSH1 0x30 SHL PUSH6 0xFFFFFFFFFFFF NOT AND PUSH6 0xFFFFFFFFFFFF SWAP2 SWAP1 SWAP2 AND OR PUSH1 0x0 DUP1 MLOAD PUSH1 0x20 PUSH3 0x48CE DUP4 CODECOPY DUP2 MLOAD SWAP2 MSTORE SWAP1 SWAP2 ADD SSTORE JUMP JUMPDEST PUSH4 0x4E487B71 PUSH1 0xE0 SHL PUSH1 0x0 MSTORE PUSH1 0x32 PUSH1 0x4 MSTORE PUSH1 0x24 PUSH1 0x0 REVERT JUMPDEST SWAP1 DUP2 SLOAD PUSH9 0x10000000000000000 DUP2 LT ISZERO PUSH3 0x183 JUMPI PUSH1 0x1 DUP2 ADD DUP1 DUP5 SSTORE DUP2 LT ISZERO PUSH3 0x13B6 JUMPI PUSH1 0x0 SWAP3 DUP4 MSTORE PUSH1 0x20 SWAP3 DUP4 SWAP1 KECCAK256 DUP3 MLOAD SWAP3 SWAP1 SWAP4 ADD MLOAD PUSH1 0x30 SHL PUSH6 0xFFFFFFFFFFFF NOT AND PUSH6 0xFFFFFFFFFFFF SWAP3 SWAP1 SWAP3 AND SWAP2 SWAP1 SWAP2 OR SWAP2 ADD SSTORE JUMP JUMPDEST PUSH1 0xA SLOAD SWAP2 SWAP3 SWAP2 DUP1 ISZERO PUSH3 0x14EF JUMPI PUSH3 0x143E PUSH3 0x1457 SWAP2 PUSH3 0x1344 JUMP JUMPDEST PUSH1 0xA PUSH1 0x0 MSTORE PUSH1 0x0 DUP1 MLOAD PUSH1 0x20 PUSH3 0x48CE DUP4 CODECOPY DUP2 MLOAD SWAP2 MSTORE ADD SWAP1 JUMP JUMPDEST SWAP1 DUP2 SLOAD SWAP2 PUSH6 0xFFFFFFFFFFFF SWAP1 DUP2 DUP5 AND SWAP2 DUP4 AND DUP1 DUP4 GT PUSH3 0x14DD JUMPI DUP7 SWAP3 SUB PUSH3 0x149F JUMPI PUSH3 0x1498 SWAP3 POP SWAP1 PUSH6 0xFFFFFFFFFFFF DUP3 SLOAD SWAP2 DUP2 NOT SWAP1 PUSH1 0x30 SHL AND SWAP2 AND OR SWAP1 SSTORE JUMP JUMPDEST PUSH1 0x30 SHR SWAP2 SWAP1 JUMP JUMPDEST POP POP PUSH3 0x14D7 SWAP1 PUSH3 0x14C2 PUSH3 0x14B4 PUSH3 0x1A5 JUMP JUMPDEST PUSH6 0xFFFFFFFFFFFF SWAP1 SWAP3 AND DUP3 MSTORE JUMP JUMPDEST PUSH1 0x1 PUSH1 0x1 PUSH1 0xD0 SHL SUB DUP6 AND PUSH1 0x20 DUP3 ADD MSTORE PUSH3 0x1354 JUMP JUMPDEST PUSH3 0x1498 JUMP JUMPDEST PUSH1 0x40 MLOAD PUSH4 0x2520601D PUSH1 0xE0 SHL DUP2 MSTORE PUSH1 0x4 SWAP1 REVERT JUMPDEST POP PUSH3 0x1518 SWAP1 PUSH3 0x1503 PUSH3 0x14B4 PUSH3 0x1A5 JUMP JUMPDEST PUSH1 0x1 PUSH1 0x1 PUSH1 0xD0 SHL SUB DUP5 AND PUSH1 0x20 DUP3 ADD MSTORE PUSH3 0x1354 JUMP JUMPDEST PUSH1 0x0 SWAP2 SWAP1 JUMP JUMPDEST DUP1 SLOAD SWAP3 SWAP4 SWAP3 DUP1 ISZERO PUSH3 0x15C1 JUMPI PUSH3 0x1539 PUSH3 0x1546 SWAP2 PUSH3 0x1344 JUMP JUMPDEST DUP3 PUSH1 0x0 MSTORE PUSH1 0x20 PUSH1 0x0 KECCAK256 ADD SWAP1 JUMP JUMPDEST SWAP2 DUP3 SLOAD SWAP3 PUSH6 0xFFFFFFFFFFFF SWAP2 DUP3 DUP6 AND SWAP3 DUP2 AND DUP1 DUP5 GT PUSH3 0x14DD JUMPI DUP8 SWAP4 SUB PUSH3 0x1588 JUMPI POP PUSH3 0x1498 SWAP3 POP SWAP1 PUSH6 0xFFFFFFFFFFFF DUP3 SLOAD SWAP2 DUP2 NOT SWAP1 PUSH1 0x30 SHL AND SWAP2 AND OR SWAP1 SSTORE JUMP JUMPDEST SWAP2 POP POP PUSH3 0x14D7 SWAP2 PUSH3 0x15AC PUSH3 0x159E PUSH3 0x1A5 JUMP JUMPDEST PUSH6 0xFFFFFFFFFFFF SWAP1 SWAP4 AND DUP4 MSTORE JUMP JUMPDEST PUSH1 0x1 PUSH1 0x1 PUSH1 0xD0 SHL SUB DUP7 AND PUSH1 0x20 DUP4 ADD MSTORE PUSH3 0x13CC JUMP JUMPDEST POP SWAP1 PUSH3 0x1518 SWAP2 PUSH3 0x15D6 PUSH3 0x159E PUSH3 0x1A5 JUMP JUMPDEST PUSH1 0x1 PUSH1 0x1 PUSH1 0xD0 SHL SUB DUP6 AND PUSH1 0x20 DUP4 ADD MSTORE PUSH3 0x13CC JUMP JUMPDEST SWAP1 PUSH3 0x15F7 DUP2 PUSH3 0x1310 JUMP JUMPDEST SWAP2 PUSH6 0xFFFFFFFFFFFF DUP1 NUMBER GT PUSH3 0xE2A JUMPI PUSH1 0xA SLOAD PUSH1 0x0 DUP2 PUSH3 0x1699 JUMPI POP POP PUSH3 0x162A SWAP1 PUSH3 0xEDC PUSH3 0x1B4 SWAP6 PUSH1 0x0 PUSH3 0x16F4 JUMP JUMPDEST POP POP PUSH1 0x1 PUSH1 0x1 PUSH1 0xA0 SHL SUB SWAP1 DUP2 AND SWAP1 DUP2 ISZERO PUSH3 0x167C JUMPI JUMPDEST PUSH1 0x8 PUSH1 0x20 MSTORE PUSH32 0x5EFF886EA0CE6CA488A3D6E336D6C0F75F46D19B42C06CE5EE98E42C96D256C7 SLOAD PUSH1 0x0 SWAP3 DUP4 MSTORE PUSH1 0x40 SWAP1 SWAP3 KECCAK256 SLOAD DUP2 AND SWAP2 AND PUSH3 0xCB0 JUMP JUMPDEST PUSH3 0x1691 PUSH3 0x168B DUP5 PUSH3 0x1310 JUMP JUMPDEST PUSH3 0xEAF JUMP JUMPDEST POP POP PUSH3 0x1640 JUMP JUMPDEST PUSH1 0x0 SWAP3 SWAP2 SWAP3 NOT SWAP6 DUP4 DUP8 DUP2 ADD GT PUSH3 0xE24 JUMPI PUSH3 0x1B4 SWAP7 PUSH3 0x162A SWAP5 PUSH1 0x20 DUP5 PUSH1 0xA PUSH3 0xEDC SWAP7 MSTORE KECCAK256 ADD ADD SLOAD PUSH1 0x30 SHR PUSH3 0x16F4 JUMP JUMPDEST SWAP2 SWAP1 DUP3 ADD DUP1 SWAP3 GT PUSH3 0xE24 JUMPI JUMP JUMPDEST PUSH1 0x1 PUSH1 0x1 PUSH1 0xD0 SHL SUB SWAP2 DUP3 AND SWAP1 DUP3 AND SUB SWAP1 DUP2 GT PUSH3 0xE24 JUMPI SWAP1 JUMP JUMPDEST PUSH1 0x1 PUSH1 0x1 PUSH1 0xD0 SHL SUB SWAP2 DUP3 AND SWAP1 DUP3 AND ADD SWAP1 DUP2 GT PUSH3 0xE24 JUMPI SWAP1 JUMP INVALID PUSH1 0x80 PUSH1 0x40 MSTORE PUSH1 0x4 CALLDATASIZE LT ISZERO PUSH2 0x12 JUMPI PUSH1 0x0 DUP1 REVERT JUMPDEST PUSH1 0x0 CALLDATALOAD PUSH1 0xE0 SHR DUP1 PUSH4 0x3EE438C EQ PUSH2 0x2E2 JUMPI DUP1 PUSH4 0x6FDDE03 EQ PUSH2 0x2DD JUMPI DUP1 PUSH4 0x84278EC EQ PUSH2 0x2D8 JUMPI DUP1 PUSH4 0x95EA7B3 EQ PUSH2 0x2D3 JUMPI DUP1 PUSH4 0xE4B2285 EQ PUSH2 0x2CE JUMPI DUP1 PUSH4 0x139BA769 EQ PUSH2 0x2C9 JUMPI DUP1 PUSH4 0x18160DDD EQ PUSH2 0x2C4 JUMPI DUP1 PUSH4 0x1F454923 EQ PUSH2 0x2BF JUMPI DUP1 PUSH4 0x23B872DD EQ PUSH2 0x2BA JUMPI DUP1 PUSH4 0x313CE567 EQ PUSH2 0x2B5 JUMPI DUP1 PUSH4 0x3644E515 EQ PUSH2 0x2B0 JUMPI DUP1 PUSH4 0x3A46B1A8 EQ PUSH2 0x2AB JUMPI DUP1 PUSH4 0x3C19804E EQ PUSH2 0x2A6 JUMPI DUP1 PUSH4 0x44E43CB8 EQ PUSH2 0x2A1 JUMPI DUP1 PUSH4 0x4BF5D7E9 EQ PUSH2 0x29C JUMPI DUP1 PUSH4 0x4EEA6D79 EQ PUSH2 0x297 JUMPI DUP1 PUSH4 0x4F4DAC6F EQ PUSH2 0x242 JUMPI DUP1 PUSH4 0x564F4F76 EQ PUSH2 0x292 JUMPI DUP1 PUSH4 0x587CDE1E EQ PUSH2 0x28D JUMPI DUP1 PUSH4 0x5C19A95C EQ PUSH2 0x288 JUMPI DUP1 PUSH4 0x6FCFFF45 EQ PUSH2 0x283 JUMPI DUP1 PUSH4 0x70A08231 EQ PUSH2 0x27E JUMPI DUP1 PUSH4 0x715018A6 EQ PUSH2 0x279 JUMPI DUP1 PUSH4 0x750521F5 EQ PUSH2 0x274 JUMPI DUP1 PUSH4 0x7ECEBE00 EQ PUSH2 0x26F JUMPI DUP1 PUSH4 0x81A2B38F EQ PUSH2 0x26A JUMPI DUP1 PUSH4 0x84B0196E EQ PUSH2 0x265 JUMPI DUP1 PUSH4 0x881E1CFF EQ PUSH2 0x260 JUMPI DUP1 PUSH4 0x8B7AFE2E EQ PUSH2 0x25B JUMPI DUP1 PUSH4 0x8DA5CB5B EQ PUSH2 0x256 JUMPI DUP1 PUSH4 0x8E539E8C EQ PUSH2 0x251 JUMPI DUP1 PUSH4 0x91DDADF4 EQ PUSH2 0x24C JUMPI DUP1 PUSH4 0x95D89B41 EQ PUSH2 0x247 JUMPI DUP1 PUSH4 0x9A6F99F9 EQ PUSH2 0x242 JUMPI DUP1 PUSH4 0x9AB24EB0 EQ PUSH2 0x23D JUMPI DUP1 PUSH4 0xA9059CBB EQ PUSH2 0x238 JUMPI DUP1 PUSH4 0xB20A6F36 EQ PUSH2 0x233 JUMPI DUP1 PUSH4 0xBF2D9E0B EQ PUSH2 0x22E JUMPI DUP1 PUSH4 0xC3CDA520 EQ PUSH2 0x229 JUMPI DUP1 PUSH4 0xD505ACCF EQ PUSH2 0x224 JUMPI DUP1 PUSH4 0xD5F6AEB4 EQ PUSH2 0x21F JUMPI DUP1 PUSH4 0xDB2E21BC EQ PUSH2 0x21A JUMPI DUP1 PUSH4 0xDD62ED3E EQ PUSH2 0x215 JUMPI DUP1 PUSH4 0xF1127ED8 EQ PUSH2 0x210 JUMPI PUSH4 0xF2FDE38B EQ PUSH2 0x20B JUMPI PUSH1 0x0 DUP1 REVERT JUMPDEST PUSH2 0x1826 JUMP JUMPDEST PUSH2 0x175B JUMP JUMPDEST PUSH2 0x16FE JUMP JUMPDEST PUSH2 0x16C0 JUMP JUMPDEST PUSH2 0x154F JUMP JUMPDEST PUSH2 0x13D0 JUMP JUMPDEST PUSH2 0x12EE JUMP JUMPDEST PUSH2 0x12B0 JUMP JUMPDEST PUSH2 0x1292 JUMP JUMPDEST PUSH2 0x126C JUMP JUMPDEST PUSH2 0x120F JUMP JUMPDEST PUSH2 0xA1E JUMP JUMPDEST PUSH2 0x11EB JUMP JUMPDEST PUSH2 0x11BF JUMP JUMPDEST PUSH2 0x10CC JUMP JUMPDEST PUSH2 0x10A5 JUMP JUMPDEST PUSH2 0x1089 JUMP JUMPDEST PUSH2 0x104A JUMP JUMPDEST PUSH2 0xF36 JUMP JUMPDEST PUSH2 0xF12 JUMP JUMPDEST PUSH2 0xED8 JUMP JUMPDEST PUSH2 0xD5C JUMP JUMPDEST PUSH2 0xC9E JUMP JUMPDEST PUSH2 0xC66 JUMP JUMPDEST PUSH2 0xBE5 JUMP JUMPDEST PUSH2 0xBC1 JUMP JUMPDEST PUSH2 0xB86 JUMP JUMPDEST PUSH2 0xA41 JUMP JUMPDEST PUSH2 0x982 JUMP JUMPDEST PUSH2 0x854 JUMP JUMPDEST PUSH2 0x73C JUMP JUMPDEST PUSH2 0x718 JUMP JUMPDEST PUSH2 0x61E JUMP JUMPDEST PUSH2 0x5FB JUMP JUMPDEST PUSH2 0x5DF JUMP JUMPDEST PUSH2 0x50A JUMP JUMPDEST PUSH2 0x48A JUMP JUMPDEST PUSH2 0x46C JUMP JUMPDEST PUSH2 0x432 JUMP JUMPDEST PUSH2 0x40E JUMP JUMPDEST PUSH2 0x3DD JUMP JUMPDEST PUSH2 0x393 JUMP JUMPDEST PUSH2 0x36F JUMP JUMPDEST PUSH2 0x327 JUMP JUMPDEST SWAP2 SWAP1 DUP3 MLOAD SWAP3 DUP4 DUP3 MSTORE PUSH1 0x0 JUMPDEST DUP5 DUP2 LT PUSH2 0x313 JUMPI POP POP PUSH1 0x1F NOT PUSH1 0x1F DUP5 PUSH1 0x0 PUSH1 0x20 DUP1 SWAP7 SWAP8 DUP7 ADD ADD MSTORE ADD AND ADD ADD SWAP1 JUMP JUMPDEST PUSH1 0x20 DUP2 DUP4 ADD DUP2 ADD MLOAD DUP5 DUP4 ADD DUP3 ADD MSTORE ADD PUSH2 0x2F2 JUMP JUMPDEST CALLVALUE PUSH2 0x36A JUMPI PUSH1 0x0 PUSH1 0x3 NOT CALLDATASIZE ADD SLT PUSH2 0x36A JUMPI PUSH2 0x366 PUSH1 0x40 MLOAD PUSH2 0x352 DUP2 PUSH2 0x34B DUP2 PUSH2 0x1CE5 JUMP JUMPDEST SUB DUP3 PUSH2 0x19A7 JUMP JUMPDEST PUSH1 0x40 MLOAD SWAP2 DUP3 SWAP2 PUSH1 0x20 DUP4 MSTORE PUSH1 0x20 DUP4 ADD SWAP1 PUSH2 0x2E7 JUMP JUMPDEST SUB SWAP1 RETURN JUMPDEST PUSH1 0x0 DUP1 REVERT JUMPDEST CALLVALUE PUSH2 0x36A JUMPI PUSH1 0x0 PUSH1 0x3 NOT CALLDATASIZE ADD SLT PUSH2 0x36A JUMPI PUSH2 0x366 PUSH1 0x40 MLOAD PUSH2 0x352 DUP2 PUSH2 0x34B DUP2 PUSH2 0x1D8A JUMP JUMPDEST CALLVALUE PUSH2 0x36A JUMPI PUSH1 0x0 PUSH1 0x3 NOT CALLDATASIZE ADD SLT PUSH2 0x36A JUMPI PUSH1 0x20 PUSH1 0x15 SLOAD PUSH1 0x40 MLOAD SWAP1 DUP2 MSTORE RETURN JUMPDEST PUSH1 0x4 CALLDATALOAD SWAP1 PUSH1 0x1 PUSH1 0x1 PUSH1 0xA0 SHL SUB DUP3 AND DUP3 SUB PUSH2 0x36A JUMPI JUMP JUMPDEST PUSH1 0x24 CALLDATALOAD SWAP1 PUSH1 0x1 PUSH1 0x1 PUSH1 0xA0 SHL SUB DUP3 AND DUP3 SUB PUSH2 0x36A JUMPI JUMP JUMPDEST CALLVALUE PUSH2 0x36A JUMPI PUSH1 0x40 PUSH1 0x3 NOT CALLDATASIZE ADD SLT PUSH2 0x36A JUMPI PUSH2 0x403 PUSH2 0x3F9 PUSH2 0x3B1 JUMP JUMPDEST PUSH1 0x24 CALLDATALOAD SWAP1 CALLER PUSH2 0x21DB JUMP JUMPDEST PUSH1 0x20 PUSH1 0x40 MLOAD PUSH1 0x1 DUP2 MSTORE RETURN JUMPDEST CALLVALUE PUSH2 0x36A JUMPI PUSH1 0x0 PUSH1 0x3 NOT CALLDATASIZE ADD SLT PUSH2 0x36A JUMPI PUSH2 0x366 PUSH1 0x40 MLOAD PUSH2 0x352 DUP2 PUSH2 0x34B DUP2 PUSH2 0x1E11 JUMP JUMPDEST CALLVALUE PUSH2 0x36A JUMPI PUSH1 0x20 PUSH1 0x3 NOT CALLDATASIZE ADD SLT PUSH2 0x36A JUMPI PUSH1 0x1 PUSH1 0x1 PUSH1 0xA0 SHL SUB PUSH2 0x453 PUSH2 0x3B1 JUMP JUMPDEST AND PUSH1 0x0 MSTORE PUSH1 0x13 PUSH1 0x20 MSTORE PUSH1 0x20 PUSH1 0x40 PUSH1 0x0 KECCAK256 SLOAD PUSH1 0x40 MLOAD SWAP1 DUP2 MSTORE RETURN JUMPDEST CALLVALUE PUSH2 0x36A JUMPI PUSH1 0x0 PUSH1 0x3 NOT CALLDATASIZE ADD SLT PUSH2 0x36A JUMPI PUSH1 0x20 PUSH1 0x2 SLOAD PUSH1 0x40 MLOAD SWAP1 DUP2 MSTORE RETURN JUMPDEST CALLVALUE PUSH2 0x36A JUMPI PUSH1 0x40 PUSH1 0x3 NOT CALLDATASIZE ADD SLT PUSH2 0x36A JUMPI PUSH2 0x4A3 PUSH2 0x3B1 JUMP JUMPDEST PUSH1 0x24 CALLDATALOAD SWAP1 DUP2 ISZERO ISZERO DUP1 SWAP3 SUB PUSH2 0x36A JUMPI PUSH1 0x20 PUSH1 0x1 PUSH1 0x1 PUSH1 0xA0 SHL SUB PUSH32 0x7390412CE304891B69B7A6D7722B373A8172B465CE957518D396801BC35E0872 SWAP3 PUSH2 0x4E5 PUSH2 0x18DD JUMP JUMPDEST AND SWAP3 DUP4 PUSH1 0x0 MSTORE PUSH1 0x16 DUP3 MSTORE PUSH1 0x40 PUSH1 0x0 KECCAK256 PUSH1 0xFF NOT DUP2 SLOAD AND PUSH1 0xFF DUP4 AND OR SWAP1 SSTORE PUSH1 0x40 MLOAD SWAP1 DUP2 MSTORE LOG2 STOP JUMPDEST CALLVALUE PUSH2 0x36A JUMPI PUSH1 0x60 PUSH1 0x3 NOT CALLDATASIZE ADD SLT PUSH2 0x36A JUMPI PUSH2 0x523 PUSH2 0x3B1 JUMP JUMPDEST PUSH2 0x52B PUSH2 0x3C7 JUMP JUMPDEST PUSH1 0x44 CALLDATALOAD SWAP1 PUSH1 0x1 PUSH1 0x1 PUSH1 0xA0 SHL SUB DUP4 AND PUSH1 0x0 MSTORE PUSH1 0x1 PUSH1 0x20 MSTORE PUSH2 0x562 CALLER PUSH1 0x40 PUSH1 0x0 KECCAK256 SWAP1 PUSH1 0x1 PUSH1 0x1 PUSH1 0xA0 SHL SUB AND PUSH1 0x0 MSTORE PUSH1 0x20 MSTORE PUSH1 0x40 PUSH1 0x0 KECCAK256 SWAP1 JUMP JUMPDEST SLOAD SWAP3 PUSH1 0x0 NOT DUP5 LT PUSH2 0x584 JUMPI JUMPDEST PUSH2 0x578 SWAP4 POP PUSH2 0x202D JUMP JUMPDEST PUSH1 0x40 MLOAD PUSH1 0x1 DUP2 MSTORE PUSH1 0x20 SWAP1 RETURN JUMPDEST DUP3 DUP5 LT PUSH2 0x5A0 JUMPI PUSH2 0x59B DUP4 PUSH2 0x578 SWAP6 SUB CALLER DUP4 PUSH2 0x22C1 JUMP JUMPDEST PUSH2 0x56E JUMP JUMPDEST PUSH1 0x40 MLOAD PUSH32 0xFB8F41B200000000000000000000000000000000000000000000000000000000 DUP2 MSTORE CALLER PUSH1 0x4 DUP3 ADD MSTORE PUSH1 0x24 DUP2 ADD DUP6 SWAP1 MSTORE PUSH1 0x44 DUP2 ADD DUP5 SWAP1 MSTORE PUSH1 0x64 SWAP1 REVERT JUMPDEST CALLVALUE PUSH2 0x36A JUMPI PUSH1 0x0 PUSH1 0x3 NOT CALLDATASIZE ADD SLT PUSH2 0x36A JUMPI PUSH1 0x20 PUSH1 0x40 MLOAD PUSH1 0x12 DUP2 MSTORE RETURN JUMPDEST CALLVALUE PUSH2 0x36A JUMPI PUSH1 0x0 PUSH1 0x3 NOT CALLDATASIZE ADD SLT PUSH2 0x36A JUMPI PUSH1 0x20 PUSH2 0x616 PUSH2 0x2523 JUMP JUMPDEST PUSH1 0x40 MLOAD SWAP1 DUP2 MSTORE RETURN JUMPDEST CALLVALUE PUSH2 0x36A JUMPI PUSH1 0x40 PUSH1 0x3 NOT CALLDATASIZE ADD SLT PUSH2 0x36A JUMPI PUSH1 0x1 PUSH1 0x1 PUSH1 0xA0 SHL SUB PUSH2 0x63F PUSH2 0x3B1 JUMP JUMPDEST AND PUSH1 0x0 SWAP1 DUP2 MSTORE PUSH1 0x9 PUSH1 0x20 MSTORE PUSH1 0x40 DUP2 KECCAK256 SWAP1 PUSH2 0x65A PUSH1 0x24 CALLDATALOAD PUSH2 0x19D9 JUMP JUMPDEST SWAP2 DUP1 SLOAD DUP3 SWAP4 DUP2 PUSH1 0x5 DUP2 GT PUSH2 0x6BE JUMPI JUMPDEST POP SWAP1 PUSH1 0x20 SWAP5 PUSH2 0x678 SWAP3 DUP5 PUSH2 0x2E9A JUMP JUMPDEST DUP1 PUSH2 0x6A4 JUMPI POP POP JUMPDEST PUSH26 0xFFFFFFFFFFFFFFFFFFFFFFFFFFFFFFFFFFFFFFFFFFFFFFFFFFFF PUSH1 0x40 MLOAD SWAP2 AND DUP2 MSTORE RETURN JUMPDEST SWAP2 PUSH2 0x6B0 DUP5 SWAP3 SWAP4 PUSH2 0x28F3 JUMP JUMPDEST SWAP3 DUP2 MSTORE KECCAK256 ADD SLOAD PUSH1 0x30 SHR PUSH2 0x680 JUMP JUMPDEST SWAP5 PUSH2 0x6C8 DUP7 PUSH2 0x293D JUMP JUMPDEST DUP7 SUB SWAP6 DUP7 GT PUSH2 0x713 JUMPI PUSH1 0x20 SWAP6 PUSH2 0x678 SWAP4 DUP6 DUP8 MSTORE PUSH6 0xFFFFFFFFFFFF DUP1 DUP4 DUP11 DUP11 KECCAK256 ADD SLOAD AND SWAP1 DUP6 AND LT PUSH1 0x0 EQ PUSH2 0x701 JUMPI POP SWAP2 JUMPDEST SWAP2 SWAP3 POP SWAP5 PUSH2 0x669 JUMP JUMPDEST SWAP3 SWAP2 POP PUSH2 0x70D SWAP1 PUSH2 0x2902 JUMP JUMPDEST SWAP1 PUSH2 0x6F8 JUMP JUMPDEST PUSH2 0x1C95 JUMP JUMPDEST CALLVALUE PUSH2 0x36A JUMPI PUSH1 0x0 PUSH1 0x3 NOT CALLDATASIZE ADD SLT PUSH2 0x36A JUMPI PUSH2 0x366 PUSH1 0x40 MLOAD PUSH2 0x352 DUP2 PUSH2 0x34B DUP2 PUSH2 0x1E98 JUMP JUMPDEST PUSH1 0x0 PUSH1 0x3 NOT CALLDATASIZE ADD SLT PUSH2 0x36A JUMPI PUSH2 0x776 PUSH2 0x772 PUSH2 0x76B CALLER PUSH1 0x1 PUSH1 0x1 PUSH1 0xA0 SHL SUB AND PUSH1 0x0 MSTORE PUSH1 0x16 PUSH1 0x20 MSTORE PUSH1 0x40 PUSH1 0x0 KECCAK256 SWAP1 JUMP JUMPDEST SLOAD PUSH1 0xFF AND SWAP1 JUMP JUMPDEST ISZERO SWAP1 JUMP JUMPDEST DUP1 PUSH2 0x82A JUMPI JUMPDEST PUSH2 0x800 JUMPI CALLVALUE PUSH2 0x787 JUMPI STOP JUMPDEST PUSH2 0x79B PUSH2 0x796 CALLVALUE PUSH1 0x11 SLOAD PUSH2 0x2910 JUMP JUMPDEST PUSH1 0x11 SSTORE JUMP JUMPDEST PUSH1 0x2 SLOAD DUP1 PUSH2 0x7D5 JUMPI JUMPDEST POP PUSH1 0x40 MLOAD CALLVALUE DUP2 MSTORE CALLER SWAP1 PUSH32 0xF3A9B3760E99454DE4C494F7ED29F5204AB92FEBACB0ACF52EA04AD4A9D22466 SWAP1 PUSH1 0x20 SWAP1 LOG2 STOP JUMPDEST PUSH2 0x7F5 PUSH2 0x7ED PUSH2 0x7FA SWAP3 PUSH2 0x7E8 CALLVALUE PUSH2 0x300B JUMP JUMPDEST PUSH2 0x291D JUMP JUMPDEST PUSH1 0x15 SLOAD PUSH2 0x2910 JUMP JUMPDEST PUSH1 0x15 SSTORE JUMP JUMPDEST CODESIZE PUSH2 0x7A4 JUMP JUMPDEST PUSH1 0x4 PUSH1 0x40 MLOAD PUSH32 0x614D358C00000000000000000000000000000000000000000000000000000000 DUP2 MSTORE REVERT JUMPDEST POP PUSH2 0x84C PUSH2 0x840 PUSH1 0xB SLOAD PUSH1 0x1 PUSH1 0x1 PUSH1 0xA0 SHL SUB AND SWAP1 JUMP JUMPDEST PUSH1 0x1 PUSH1 0x1 PUSH1 0xA0 SHL SUB AND SWAP1 JUMP JUMPDEST CALLER EQ ISZERO PUSH2 0x77C JUMP JUMPDEST CALLVALUE PUSH2 0x36A JUMPI PUSH1 0x0 PUSH1 0x3 NOT CALLDATASIZE ADD SLT PUSH2 0x36A JUMPI PUSH2 0x86E NUMBER PUSH2 0x28A8 JUMP JUMPDEST PUSH6 0xFFFFFFFFFFFF DUP1 PUSH2 0x87F NUMBER PUSH2 0x28A8 JUMP JUMPDEST AND SWAP2 AND SUB PUSH2 0x8D4 JUMPI PUSH2 0x366 PUSH1 0x40 MLOAD PUSH2 0x896 DUP2 PUSH2 0x1937 JUMP JUMPDEST PUSH1 0x1D DUP2 MSTORE PUSH32 0x6D6F64653D626C6F636B6E756D6265722666726F6D3D64656661756C74000000 PUSH1 0x20 DUP3 ADD MSTORE PUSH1 0x40 MLOAD SWAP2 DUP3 SWAP2 PUSH1 0x20 DUP4 MSTORE PUSH1 0x20 DUP4 ADD SWAP1 PUSH2 0x2E7 JUMP JUMPDEST PUSH1 0x4 PUSH1 0x40 MLOAD PUSH32 0x6FF0714000000000000000000000000000000000000000000000000000000000 DUP2 MSTORE REVERT JUMPDEST SWAP6 SWAP8 SWAP5 SWAP2 SWAP4 PUSH2 0x945 PUSH2 0x961 SWAP5 PUSH2 0x937 PUSH2 0x97F SWAP13 SWAP11 SWAP8 PUSH2 0x929 PUSH2 0x953 SWAP7 DUP13 PUSH2 0x120 DUP1 SWAP2 MSTORE DUP14 ADD SWAP1 PUSH2 0x2E7 JUMP JUMPDEST SWAP1 DUP12 DUP3 SUB PUSH1 0x20 DUP14 ADD MSTORE PUSH2 0x2E7 JUMP JUMPDEST SWAP1 DUP10 DUP3 SUB PUSH1 0x40 DUP12 ADD MSTORE PUSH2 0x2E7 JUMP JUMPDEST SWAP1 DUP8 DUP3 SUB PUSH1 0x60 DUP10 ADD MSTORE PUSH2 0x2E7 JUMP JUMPDEST SWAP1 DUP6 DUP3 SUB PUSH1 0x80 DUP8 ADD MSTORE PUSH2 0x2E7 JUMP JUMPDEST SWAP5 PUSH1 0xA0 DUP5 ADD MSTORE PUSH1 0xC0 DUP4 ADD MSTORE PUSH1 0xE0 DUP3 ADD MSTORE PUSH2 0x100 DUP2 DUP5 SUB SWAP2 ADD MSTORE PUSH2 0x2E7 JUMP JUMPDEST SWAP1 JUMP JUMPDEST CALLVALUE PUSH2 0x36A JUMPI PUSH1 0x0 PUSH1 0x3 NOT CALLDATASIZE ADD SLT PUSH2 0x36A JUMPI PUSH1 0x40 DUP1 MLOAD PUSH2 0x9A4 DUP2 PUSH2 0x34B DUP2 PUSH2 0x1D8A JUMP JUMPDEST PUSH2 0x366 DUP3 MLOAD SWAP3 PUSH2 0x9BE DUP5 PUSH2 0x9B7 DUP2 PUSH2 0x1F1F JUMP JUMPDEST SUB DUP6 PUSH2 0x19A7 JUMP JUMPDEST PUSH1 0x2 SLOAD PUSH1 0x11 SLOAD PUSH1 0x12 SLOAD SWAP2 DUP4 MLOAD PUSH2 0x9D7 DUP2 PUSH2 0x34B DUP2 PUSH2 0x1E98 JUMP JUMPDEST DUP5 MLOAD PUSH2 0x9E6 DUP2 PUSH2 0x34B DUP2 PUSH2 0x1E11 JUMP JUMPDEST DUP6 MLOAD SWAP2 PUSH2 0x9FD DUP4 PUSH2 0x9F6 DUP2 PUSH2 0x1CE5 JUMP JUMPDEST SUB DUP5 PUSH2 0x19A7 JUMP JUMPDEST DUP7 MLOAD SWAP7 PUSH2 0xA14 DUP9 PUSH2 0xA0D DUP2 PUSH2 0x1FA6 JUMP JUMPDEST SUB DUP10 PUSH2 0x19A7 JUMP JUMPDEST MLOAD SWAP10 DUP11 SWAP10 DUP11 PUSH2 0x8FE JUMP JUMPDEST CALLVALUE PUSH2 0x36A JUMPI PUSH1 0x20 PUSH1 0x3 NOT CALLDATASIZE ADD SLT PUSH2 0x36A JUMPI PUSH1 0x20 PUSH2 0x616 PUSH2 0xA3C PUSH2 0x3B1 JUMP JUMPDEST PUSH2 0x3068 JUMP JUMPDEST CALLVALUE PUSH2 0x36A JUMPI PUSH1 0x0 DUP1 PUSH1 0x3 NOT CALLDATASIZE ADD SLT PUSH2 0xB83 JUMPI PUSH1 0x2 PUSH1 0xC SLOAD EQ PUSH2 0xB59 JUMPI PUSH1 0x2 PUSH1 0xC SSTORE PUSH2 0xA6B CALLER PUSH2 0x3068 JUMP JUMPDEST DUP1 ISZERO PUSH2 0xB2F JUMPI CALLER PUSH1 0x0 SWAP1 DUP2 MSTORE PUSH1 0x13 PUSH1 0x20 MSTORE PUSH1 0x40 SWAP1 KECCAK256 PUSH2 0xA8B DUP3 DUP3 SLOAD PUSH2 0x2910 JUMP JUMPDEST SWAP1 SSTORE PUSH1 0x15 SLOAD CALLER PUSH1 0x0 SWAP1 DUP2 MSTORE PUSH1 0x14 PUSH1 0x20 MSTORE PUSH1 0x40 SWAP1 KECCAK256 SSTORE PUSH2 0xAB4 PUSH2 0xAAF DUP3 PUSH1 0x12 SLOAD PUSH2 0x2910 JUMP JUMPDEST PUSH1 0x12 SSTORE JUMP JUMPDEST DUP2 DUP1 DUP1 DUP1 DUP5 CALLER GAS CALL PUSH2 0xAC4 PUSH2 0x3028 JUMP JUMPDEST POP ISZERO PUSH2 0xB05 JUMPI PUSH1 0x40 MLOAD SWAP1 DUP2 MSTORE CALLER SWAP1 PUSH32 0xC15F451120B13B6B40C6AD6203614AB3088308BEF9150C0D6F46EA79BF464224 SWAP1 PUSH1 0x20 SWAP1 LOG2 PUSH2 0xB02 PUSH1 0x1 PUSH1 0xC SSTORE JUMP JUMPDEST DUP1 RETURN JUMPDEST PUSH1 0x4 PUSH1 0x40 MLOAD PUSH32 0x90B8EC1800000000000000000000000000000000000000000000000000000000 DUP2 MSTORE REVERT JUMPDEST PUSH1 0x4 PUSH1 0x40 MLOAD PUSH32 0x2A1C5BA00000000000000000000000000000000000000000000000000000000 DUP2 MSTORE REVERT JUMPDEST PUSH1 0x4 PUSH1 0x40 MLOAD PUSH32 0x3EE5AEB500000000000000000000000000000000000000000000000000000000 DUP2 MSTORE REVERT JUMPDEST DUP1 REVERT JUMPDEST CALLVALUE PUSH2 0x36A JUMPI PUSH1 0x20 PUSH1 0x3 NOT CALLDATASIZE ADD SLT PUSH2 0x36A JUMPI PUSH1 0x20 PUSH1 0x1 PUSH1 0x1 PUSH1 0xA0 SHL SUB DUP1 PUSH2 0xBAA PUSH2 0x3B1 JUMP JUMPDEST AND PUSH1 0x0 MSTORE PUSH1 0x8 DUP3 MSTORE PUSH1 0x40 PUSH1 0x0 KECCAK256 SLOAD AND PUSH1 0x40 MLOAD SWAP1 DUP2 MSTORE RETURN JUMPDEST CALLVALUE PUSH2 0x36A JUMPI PUSH1 0x20 PUSH1 0x3 NOT CALLDATASIZE ADD SLT PUSH2 0x36A JUMPI PUSH2 0xBE3 PUSH2 0xBDD PUSH2 0x3B1 JUMP JUMPDEST CALLER PUSH2 0x1A33 JUMP JUMPDEST STOP JUMPDEST CALLVALUE PUSH2 0x36A JUMPI PUSH1 0x20 PUSH1 0x3 NOT CALLDATASIZE ADD SLT PUSH2 0x36A JUMPI PUSH1 0x1 PUSH1 0x1 PUSH1 0xA0 SHL SUB PUSH2 0xC06 PUSH2 0x3B1 JUMP JUMPDEST AND PUSH1 0x0 MSTORE PUSH1 0x9 PUSH1 0x20 MSTORE PUSH1 0x40 PUSH1 0x0 KECCAK256 SLOAD PUSH4 0xFFFFFFFF SWAP1 DUP2 DUP2 GT PUSH2 0xC2E JUMPI PUSH1 0x20 SWAP2 PUSH1 0x40 MLOAD SWAP2 AND DUP2 MSTORE RETURN JUMPDEST PUSH1 0x44 SWAP1 PUSH1 0x40 MLOAD SWAP1 PUSH32 0x6DFCC65000000000000000000000000000000000000000000000000000000000 DUP3 MSTORE PUSH1 0x20 PUSH1 0x4 DUP4 ADD MSTORE PUSH1 0x24 DUP3 ADD MSTORE REVERT JUMPDEST CALLVALUE PUSH2 0x36A JUMPI PUSH1 0x20 PUSH1 0x3 NOT CALLDATASIZE ADD SLT PUSH2 0x36A JUMPI PUSH1 0x20 PUSH2 0x616 PUSH2 0xC84 PUSH2 0x3B1 JUMP JUMPDEST PUSH1 0x1 PUSH1 0x1 PUSH1 0xA0 SHL SUB AND PUSH1 0x0 MSTORE PUSH1 0x0 PUSH1 0x20 MSTORE PUSH1 0x40 PUSH1 0x0 KECCAK256 SLOAD SWAP1 JUMP JUMPDEST CALLVALUE PUSH2 0x36A JUMPI PUSH1 0x0 DUP1 PUSH1 0x3 NOT CALLDATASIZE ADD SLT PUSH2 0xB83 JUMPI PUSH2 0xCB8 PUSH2 0x18DD JUMP JUMPDEST DUP1 PUSH1 0x1 PUSH1 0x1 PUSH1 0xA0 SHL SUB PUSH1 0xB SLOAD PUSH32 0xFFFFFFFFFFFFFFFFFFFFFFFF0000000000000000000000000000000000000000 DUP2 AND PUSH1 0xB SSTORE AND PUSH32 0x8BE0079C531659141344CD1FD0A4F28419497F9722A3DAAFE3B4186F6B6457E0 DUP3 DUP1 LOG3 DUP1 RETURN JUMPDEST SWAP1 PUSH1 0x20 PUSH1 0x3 NOT DUP4 ADD SLT PUSH2 0x36A JUMPI PUSH1 0x4 CALLDATALOAD PUSH8 0xFFFFFFFFFFFFFFFF SWAP3 DUP4 DUP3 GT PUSH2 0x36A JUMPI DUP1 PUSH1 0x23 DUP4 ADD SLT ISZERO PUSH2 0x36A JUMPI DUP2 PUSH1 0x4 ADD CALLDATALOAD SWAP4 DUP5 GT PUSH2 0x36A JUMPI PUSH1 0x24 DUP5 DUP4 ADD ADD GT PUSH2 0x36A JUMPI PUSH1 0x24 ADD SWAP2 SWAP1 JUMP JUMPDEST CALLVALUE PUSH2 0x36A JUMPI PUSH2 0xD6A CALLDATASIZE PUSH2 0xD12 JUMP JUMPDEST PUSH2 0xD72 PUSH2 0x18DD JUMP JUMPDEST DUP1 ISZERO PUSH2 0xEAE JUMPI PUSH8 0xFFFFFFFFFFFFFFFF DUP2 GT PUSH2 0xEA9 JUMPI PUSH2 0xD9B DUP2 PUSH2 0xD96 PUSH1 0xF SLOAD PUSH2 0x1CAB JUMP JUMPDEST PUSH2 0x2F01 JUMP JUMPDEST PUSH1 0x0 SWAP2 PUSH1 0x1F DUP3 GT PUSH1 0x1 EQ PUSH2 0xE08 JUMPI DUP2 PUSH32 0x1C306E70C05992619E2128AD1EF88DF75F36C9476282E59F51401B2ABAA42E4E SWAP4 PUSH1 0x0 SWAP2 PUSH2 0xDFD JUMPI JUMPDEST POP DUP3 PUSH1 0x1 SHL SWAP1 PUSH1 0x0 NOT DUP5 PUSH1 0x3 SHL SHR NOT AND OR PUSH1 0xF SSTORE JUMPDEST PUSH2 0xDF8 PUSH1 0x40 MLOAD SWAP3 DUP4 SWAP3 DUP4 PUSH2 0x2FE3 JUMP JUMPDEST SUB SWAP1 LOG1 STOP JUMPDEST SWAP1 POP DUP2 ADD CALLDATALOAD CODESIZE PUSH2 0xDD4 JUMP JUMPDEST PUSH1 0xF PUSH1 0x0 MSTORE PUSH32 0x8D1108E10BCB7C27DDDFC02ED9D693A074039D026CF4EA4240B40F7D581AC802 PUSH1 0x1F NOT DUP4 AND DUP5 JUMPDEST DUP2 DUP2 LT PUSH2 0xE91 JUMPI POP SWAP4 DUP4 PUSH32 0x1C306E70C05992619E2128AD1EF88DF75F36C9476282E59F51401B2ABAA42E4E SWAP6 LT PUSH2 0xE77 JUMPI JUMPDEST POP POP PUSH1 0x1 DUP3 DUP2 SHL ADD PUSH1 0xF SSTORE PUSH2 0xDE9 JUMP JUMPDEST PUSH1 0x0 NOT PUSH1 0xF8 DUP6 PUSH1 0x3 SHL AND SHR NOT SWAP1 DUP4 ADD CALLDATALOAD AND SWAP1 SSTORE CODESIZE DUP1 PUSH2 0xE67 JUMP JUMPDEST DUP4 DUP7 ADD CALLDATALOAD DUP4 SSTORE PUSH1 0x20 SWAP6 DUP7 ADD SWAP6 PUSH1 0x1 SWAP1 SWAP4 ADD SWAP3 ADD PUSH2 0xE35 JUMP JUMPDEST PUSH2 0x1921 JUMP JUMPDEST PUSH1 0x4 PUSH1 0x40 MLOAD PUSH32 0xEEC403F000000000000000000000000000000000000000000000000000000000 DUP2 MSTORE REVERT JUMPDEST CALLVALUE PUSH2 0x36A JUMPI PUSH1 0x20 PUSH1 0x3 NOT CALLDATASIZE ADD SLT PUSH2 0x36A JUMPI PUSH1 0x1 PUSH1 0x1 PUSH1 0xA0 SHL SUB PUSH2 0xEF9 PUSH2 0x3B1 JUMP JUMPDEST AND PUSH1 0x0 MSTORE PUSH1 0x7 PUSH1 0x20 MSTORE PUSH1 0x20 PUSH1 0x40 PUSH1 0x0 KECCAK256 SLOAD PUSH1 0x40 MLOAD SWAP1 DUP2 MSTORE RETURN JUMPDEST CALLVALUE PUSH2 0x36A JUMPI PUSH1 0x0 PUSH1 0x3 NOT CALLDATASIZE ADD SLT PUSH2 0x36A JUMPI PUSH2 0x366 PUSH1 0x40 MLOAD PUSH2 0x352 DUP2 PUSH2 0x34B DUP2 PUSH2 0x1FA6 JUMP JUMPDEST CALLVALUE PUSH2 0x36A JUMPI PUSH1 0x0 DUP1 PUSH1 0x3 NOT CALLDATASIZE ADD SLT PUSH2 0xB83 JUMPI PUSH2 0xFFC SWAP1 PUSH2 0xF75 PUSH32 0x0 PUSH2 0x267E JUMP JUMPDEST PUSH2 0xF9E PUSH32 0x0 PUSH2 0x278F JUMP JUMPDEST SWAP2 PUSH1 0x40 MLOAD SWAP2 PUSH2 0xFAC DUP4 PUSH2 0x1953 JUMP JUMPDEST DUP2 DUP4 MSTORE PUSH1 0x40 MLOAD SWAP5 DUP6 SWAP5 PUSH32 0xF00000000000000000000000000000000000000000000000000000000000000 DUP7 MSTORE PUSH2 0xFEE PUSH1 0x20 SWAP4 PUSH1 0xE0 DUP6 DUP10 ADD MSTORE PUSH1 0xE0 DUP9 ADD SWAP1 PUSH2 0x2E7 JUMP JUMPDEST SWAP1 DUP7 DUP3 SUB PUSH1 0x40 DUP9 ADD MSTORE PUSH2 0x2E7 JUMP JUMPDEST SWAP1 CHAINID PUSH1 0x60 DUP7 ADD MSTORE ADDRESS PUSH1 0x80 DUP7 ADD MSTORE DUP3 PUSH1 0xA0 DUP7 ADD MSTORE DUP5 DUP3 SUB PUSH1 0xC0 DUP7 ADD MSTORE DUP1 DUP1 DUP6 MLOAD SWAP4 DUP5 DUP2 MSTORE ADD SWAP5 ADD SWAP3 JUMPDEST DUP3 DUP2 LT PUSH2 0x1033 JUMPI POP POP POP POP SUB SWAP1 RETURN JUMPDEST DUP4 MLOAD DUP6 MSTORE DUP7 SWAP6 POP SWAP4 DUP2 ADD SWAP4 SWAP3 DUP2 ADD SWAP3 PUSH1 0x1 ADD PUSH2 0x1024 JUMP JUMPDEST CALLVALUE PUSH2 0x36A JUMPI PUSH1 0x20 PUSH1 0x3 NOT CALLDATASIZE ADD SLT PUSH2 0x36A JUMPI PUSH1 0x1 PUSH1 0x1 PUSH1 0xA0 SHL SUB PUSH2 0x106B PUSH2 0x3B1 JUMP JUMPDEST AND PUSH1 0x0 MSTORE PUSH1 0x16 PUSH1 0x20 MSTORE PUSH1 0x20 PUSH1 0xFF PUSH1 0x40 PUSH1 0x0 KECCAK256 SLOAD AND PUSH1 0x40 MLOAD SWAP1 ISZERO ISZERO DUP2 MSTORE RETURN JUMPDEST CALLVALUE PUSH2 0x36A JUMPI PUSH1 0x0 PUSH1 0x3 NOT CALLDATASIZE ADD SLT PUSH2 0x36A JUMPI PUSH1 0x20 SELFBALANCE PUSH1 0x40 MLOAD SWAP1 DUP2 MSTORE RETURN JUMPDEST CALLVALUE PUSH2 0x36A JUMPI PUSH1 0x0 PUSH1 0x3 NOT CALLDATASIZE ADD SLT PUSH2 0x36A JUMPI PUSH1 0x20 PUSH1 0x1 PUSH1 0x1 PUSH1 0xA0 SHL SUB PUSH1 0xB SLOAD AND PUSH1 0x40 MLOAD SWAP1 DUP2 MSTORE RETURN JUMPDEST CALLVALUE PUSH2 0x36A JUMPI PUSH1 0x20 PUSH1 0x3 NOT CALLDATASIZE ADD SLT PUSH2 0x36A JUMPI PUSH2 0x10E8 PUSH1 0x4 CALLDATALOAD PUSH2 0x19D9 JUMP JUMPDEST PUSH1 0xA SLOAD SWAP1 PUSH1 0x0 DUP3 SWAP2 PUSH1 0x5 DUP5 GT PUSH2 0x1152 JUMPI JUMPDEST PUSH2 0x1103 SWAP4 POP PUSH2 0x2E1F JUMP JUMPDEST PUSH1 0x0 DUP2 PUSH2 0x1118 JUMPI POP POP PUSH1 0x40 MLOAD PUSH1 0x0 DUP2 MSTORE PUSH1 0x20 SWAP1 RETURN JUMPDEST PUSH1 0xA PUSH2 0x1125 PUSH1 0x20 SWAP4 PUSH2 0x28F3 JUMP JUMPDEST SWAP2 MSTORE PUSH32 0xC65A7BB8D6351C1CF70C95A316CC6A92839C986682D98BC35F958F4883F9D2A8 ADD SLOAD PUSH1 0x30 SHR PUSH2 0x680 JUMP JUMPDEST SWAP2 SWAP3 PUSH2 0x115D DUP2 PUSH2 0x293D JUMP JUMPDEST DUP2 SUB SWAP1 DUP2 GT PUSH2 0x713 JUMPI PUSH2 0x1103 SWAP4 PUSH1 0xA DUP4 MSTORE PUSH6 0xFFFFFFFFFFFF DUP1 DUP4 PUSH32 0xC65A7BB8D6351C1CF70C95A316CC6A92839C986682D98BC35F958F4883F9D2A8 ADD SLOAD AND SWAP1 DUP6 AND LT PUSH1 0x0 EQ PUSH2 0x11AD JUMPI POP SWAP2 PUSH2 0x10F9 JUMP JUMPDEST SWAP3 SWAP2 POP PUSH2 0x11B9 SWAP1 PUSH2 0x2902 JUMP JUMPDEST SWAP1 PUSH2 0x10F9 JUMP JUMPDEST CALLVALUE PUSH2 0x36A JUMPI PUSH1 0x0 PUSH1 0x3 NOT CALLDATASIZE ADD SLT PUSH2 0x36A JUMPI PUSH1 0x20 PUSH2 0x11DB NUMBER PUSH2 0x28A8 JUMP JUMPDEST PUSH6 0xFFFFFFFFFFFF PUSH1 0x40 MLOAD SWAP2 AND DUP2 MSTORE RETURN JUMPDEST CALLVALUE PUSH2 0x36A JUMPI PUSH1 0x0 PUSH1 0x3 NOT CALLDATASIZE ADD SLT PUSH2 0x36A JUMPI PUSH2 0x366 PUSH1 0x40 MLOAD PUSH2 0x352 DUP2 PUSH2 0x34B DUP2 PUSH2 0x1F1F JUMP JUMPDEST CALLVALUE PUSH2 0x36A JUMPI PUSH1 0x20 PUSH1 0x3 NOT CALLDATASIZE ADD SLT PUSH2 0x36A JUMPI PUSH1 0x1 PUSH1 0x1 PUSH1 0xA0 SHL SUB PUSH2 0x1230 PUSH2 0x3B1 JUMP JUMPDEST AND PUSH1 0x0 MSTORE PUSH1 0x9 PUSH1 0x20 MSTORE PUSH1 0x20 PUSH26 0xFFFFFFFFFFFFFFFFFFFFFFFFFFFFFFFFFFFFFFFFFFFFFFFFFFFF PUSH2 0x1263 PUSH1 0x40 PUSH1 0x0 KECCAK256 PUSH2 0x2AC9 JUMP JUMPDEST AND PUSH1 0x40 MLOAD SWAP1 DUP2 MSTORE RETURN JUMPDEST CALLVALUE PUSH2 0x36A JUMPI PUSH1 0x40 PUSH1 0x3 NOT CALLDATASIZE ADD SLT PUSH2 0x36A JUMPI PUSH2 0x403 PUSH2 0x1288 PUSH2 0x3B1 JUMP JUMPDEST PUSH1 0x24 CALLDATALOAD SWAP1 CALLER PUSH2 0x202D JUMP JUMPDEST CALLVALUE PUSH2 0x36A JUMPI PUSH1 0x0 PUSH1 0x3 NOT CALLDATASIZE ADD SLT PUSH2 0x36A JUMPI PUSH1 0x20 PUSH1 0x12 SLOAD PUSH1 0x40 MLOAD SWAP1 DUP2 MSTORE RETURN JUMPDEST CALLVALUE PUSH2 0x36A JUMPI PUSH1 0x0 PUSH1 0x3 NOT CALLDATASIZE ADD SLT PUSH2 0x36A JUMPI PUSH1 0x20 PUSH1 0x11 SLOAD PUSH1 0x40 MLOAD SWAP1 DUP2 MSTORE RETURN JUMPDEST PUSH1 0x64 CALLDATALOAD SWAP1 PUSH1 0xFF DUP3 AND DUP3 SUB PUSH2 0x36A JUMPI JUMP JUMPDEST PUSH1 0x84 CALLDATALOAD SWAP1 PUSH1 0xFF DUP3 AND DUP3 SUB PUSH2 0x36A JUMPI JUMP JUMPDEST CALLVALUE PUSH2 0x36A JUMPI PUSH1 0xC0 PUSH1 0x3 NOT CALLDATASIZE ADD SLT PUSH2 0x36A JUMPI PUSH2 0x1307 PUSH2 0x3B1 JUMP JUMPDEST PUSH1 0x44 CALLDATALOAD SWAP1 PUSH1 0x24 CALLDATALOAD PUSH2 0x1316 PUSH2 0x12CE JUMP JUMPDEST DUP4 TIMESTAMP GT PUSH2 0x139F JUMPI PUSH2 0x1393 PUSH2 0xBE3 SWAP5 PUSH2 0x139A SWAP3 PUSH1 0x40 MLOAD SWAP1 PUSH1 0x20 DUP3 ADD SWAP3 PUSH32 0xE48329057BFD03D55E49B547132E39CFFD9C1820AD7B9D4C5307691425D15ADF DUP5 MSTORE PUSH1 0x1 PUSH1 0x1 PUSH1 0xA0 SHL SUB DUP9 AND PUSH1 0x40 DUP5 ADD MSTORE DUP7 PUSH1 0x60 DUP5 ADD MSTORE PUSH1 0x80 DUP4 ADD MSTORE PUSH1 0x80 DUP3 MSTORE PUSH2 0x137B DUP3 PUSH2 0x196F JUMP JUMPDEST PUSH2 0x138E PUSH1 0xA4 CALLDATALOAD SWAP4 PUSH1 0x84 CALLDATALOAD SWAP4 MLOAD SWAP1 KECCAK256 PUSH2 0x263D JUMP JUMPDEST PUSH2 0x2384 JUMP JUMPDEST SWAP2 DUP3 PUSH2 0x2312 JUMP JUMPDEST PUSH2 0x1A33 JUMP JUMPDEST PUSH1 0x24 DUP5 PUSH1 0x40 MLOAD SWAP1 PUSH32 0x4683AF0E00000000000000000000000000000000000000000000000000000000 DUP3 MSTORE PUSH1 0x4 DUP3 ADD MSTORE REVERT JUMPDEST CALLVALUE PUSH2 0x36A JUMPI PUSH1 0xE0 PUSH1 0x3 NOT CALLDATASIZE ADD SLT PUSH2 0x36A JUMPI PUSH2 0x13E9 PUSH2 0x3B1 JUMP JUMPDEST PUSH2 0x13F1 PUSH2 0x3C7 JUMP JUMPDEST PUSH1 0x44 CALLDATALOAD SWAP1 PUSH1 0x64 CALLDATALOAD PUSH2 0x1400 PUSH2 0x12DE JUMP JUMPDEST DUP2 TIMESTAMP GT PUSH2 0x151E JUMPI SWAP1 PUSH2 0x149D PUSH2 0x14BE SWAP3 PUSH2 0x14AB PUSH2 0x1438 DUP9 PUSH1 0x1 PUSH1 0x1 PUSH1 0xA0 SHL SUB AND PUSH1 0x0 MSTORE PUSH1 0x7 PUSH1 0x20 MSTORE PUSH1 0x40 PUSH1 0x0 KECCAK256 DUP1 SLOAD SWAP1 PUSH1 0x1 DUP3 ADD SWAP1 SSTORE SWAP1 JUMP JUMPDEST SWAP4 PUSH1 0x40 MLOAD SWAP4 DUP5 SWAP2 PUSH1 0x20 DUP4 ADD SWAP7 DUP11 DUP11 DUP14 DUP11 SWAP2 SWAP6 SWAP5 SWAP4 SWAP1 SWAP3 PUSH1 0xA0 SWAP4 PUSH1 0xC0 DUP5 ADD SWAP8 PUSH32 0x6E71EDAE12B1B97F4D1F60370FEF10105FA2FAAE0126114A169C64845D6126C9 DUP6 MSTORE PUSH1 0x1 PUSH1 0x1 PUSH1 0xA0 SHL SUB DUP1 SWAP3 AND PUSH1 0x20 DUP7 ADD MSTORE AND PUSH1 0x40 DUP5 ADD MSTORE PUSH1 0x60 DUP4 ADD MSTORE PUSH1 0x80 DUP3 ADD MSTORE ADD MSTORE JUMP JUMPDEST SUB PUSH1 0x1F NOT DUP2 ADD DUP5 MSTORE DUP4 PUSH2 0x19A7 JUMP JUMPDEST PUSH2 0x138E PUSH1 0xC4 CALLDATALOAD SWAP4 PUSH1 0xA4 CALLDATALOAD SWAP4 MLOAD SWAP1 KECCAK256 PUSH2 0x263D JUMP JUMPDEST PUSH1 0x1 PUSH1 0x1 PUSH1 0xA0 SHL SUB DUP1 DUP6 AND SWAP1 DUP3 AND SUB PUSH2 0x14DB JUMPI POP PUSH2 0xBE3 SWAP3 PUSH2 0x21DB JUMP JUMPDEST PUSH1 0x40 MLOAD PUSH32 0x4B800E4600000000000000000000000000000000000000000000000000000000 DUP2 MSTORE PUSH1 0x1 PUSH1 0x1 PUSH1 0xA0 SHL SUB SWAP2 DUP3 AND PUSH1 0x4 DUP3 ADD MSTORE SWAP1 DUP5 AND PUSH1 0x24 DUP3 ADD MSTORE PUSH1 0x44 SWAP1 REVERT JUMPDEST PUSH1 0x24 DUP3 PUSH1 0x40 MLOAD SWAP1 PUSH32 0x6279130200000000000000000000000000000000000000000000000000000000 DUP3 MSTORE PUSH1 0x4 DUP3 ADD MSTORE REVERT JUMPDEST CALLVALUE PUSH2 0x36A JUMPI PUSH2 0x155D CALLDATASIZE PUSH2 0xD12 JUMP JUMPDEST PUSH2 0x1565 PUSH2 0x18DD JUMP JUMPDEST DUP1 ISZERO PUSH2 0x1696 JUMPI PUSH8 0xFFFFFFFFFFFFFFFF DUP2 GT PUSH2 0xEA9 JUMPI PUSH2 0x158E DUP2 PUSH2 0x1589 PUSH1 0x10 SLOAD PUSH2 0x1CAB JUMP JUMPDEST PUSH2 0x2F72 JUMP JUMPDEST PUSH1 0x0 SWAP2 PUSH1 0x1F DUP3 GT PUSH1 0x1 EQ PUSH2 0x15F5 JUMPI DUP2 PUSH32 0x732D2E87DCC1907685C097F7373A47D8C7CD8EF98B659B5F2D4272B26AAB48A7 SWAP4 PUSH1 0x0 SWAP2 PUSH2 0x15EA JUMPI JUMPDEST POP DUP3 PUSH1 0x1 SHL SWAP1 PUSH1 0x0 NOT DUP5 PUSH1 0x3 SHL SHR NOT AND OR PUSH1 0x10 SSTORE PUSH2 0xDF8 PUSH1 0x40 MLOAD SWAP3 DUP4 SWAP3 DUP4 PUSH2 0x2FE3 JUMP JUMPDEST SWAP1 POP DUP2 ADD CALLDATALOAD CODESIZE PUSH2 0x15C7 JUMP JUMPDEST PUSH1 0x10 PUSH1 0x0 MSTORE PUSH32 0x1B6847DC741A1B0CD08D278845F9D819D87B734759AFB55FE2DE5CB82A9AE672 PUSH1 0x1F NOT DUP4 AND DUP5 JUMPDEST DUP2 DUP2 LT PUSH2 0x167E JUMPI POP SWAP4 DUP4 PUSH32 0x732D2E87DCC1907685C097F7373A47D8C7CD8EF98B659B5F2D4272B26AAB48A7 SWAP6 LT PUSH2 0x1664 JUMPI JUMPDEST POP POP PUSH1 0x1 DUP3 DUP2 SHL ADD PUSH1 0x10 SSTORE PUSH2 0xDE9 JUMP JUMPDEST PUSH1 0x0 NOT PUSH1 0xF8 DUP6 PUSH1 0x3 SHL AND SHR NOT SWAP1 DUP4 ADD CALLDATALOAD AND SWAP1 SSTORE CODESIZE DUP1 PUSH2 0x1654 JUMP JUMPDEST DUP4 DUP7 ADD CALLDATALOAD DUP4 SSTORE PUSH1 0x20 SWAP6 DUP7 ADD SWAP6 PUSH1 0x1 SWAP1 SWAP4 ADD SWAP3 ADD PUSH2 0x1622 JUMP JUMPDEST PUSH1 0x4 PUSH1 0x40 MLOAD PUSH32 0x3D9E4CAD00000000000000000000000000000000000000000000000000000000 DUP2 MSTORE REVERT JUMPDEST CALLVALUE PUSH2 0x36A JUMPI PUSH1 0x0 DUP1 PUSH1 0x3 NOT CALLDATASIZE ADD SLT PUSH2 0xB83 JUMPI PUSH2 0x16DA PUSH2 0x18DD JUMP JUMPDEST DUP1 DUP1 DUP1 DUP1 SELFBALANCE PUSH1 0x1 PUSH1 0x1 PUSH1 0xA0 SHL SUB PUSH1 0xB SLOAD AND GAS CALL PUSH2 0x16F5 PUSH2 0x3028 JUMP JUMPDEST POP ISZERO PUSH2 0xB05 JUMPI DUP1 RETURN JUMPDEST CALLVALUE PUSH2 0x36A JUMPI PUSH1 0x40 PUSH1 0x3 NOT CALLDATASIZE ADD SLT PUSH2 0x36A JUMPI PUSH1 0x20 PUSH2 0x1752 PUSH2 0x171C PUSH2 0x3B1 JUMP JUMPDEST PUSH1 0x1 PUSH1 0x1 PUSH1 0xA0 SHL SUB PUSH2 0x172C PUSH2 0x3C7 JUMP JUMPDEST SWAP2 AND PUSH1 0x0 MSTORE PUSH1 0x1 DUP4 MSTORE PUSH1 0x40 PUSH1 0x0 KECCAK256 SWAP1 PUSH1 0x1 PUSH1 0x1 PUSH1 0xA0 SHL SUB AND PUSH1 0x0 MSTORE PUSH1 0x20 MSTORE PUSH1 0x40 PUSH1 0x0 KECCAK256 SWAP1 JUMP JUMPDEST SLOAD PUSH1 0x40 MLOAD SWAP1 DUP2 MSTORE RETURN JUMPDEST CALLVALUE PUSH2 0x36A JUMPI PUSH1 0x40 PUSH1 0x3 NOT CALLDATASIZE ADD SLT PUSH2 0x36A JUMPI PUSH2 0x1774 PUSH2 0x3B1 JUMP JUMPDEST PUSH1 0x24 CALLDATALOAD SWAP1 PUSH4 0xFFFFFFFF DUP3 AND DUP3 SUB PUSH2 0x36A JUMPI PUSH2 0x366 SWAP2 PUSH1 0x1 PUSH1 0x1 PUSH1 0xA0 SHL SUB PUSH2 0x17C3 SWAP3 PUSH2 0x179D PUSH2 0x22F9 JUMP JUMPDEST POP PUSH2 0x17A6 PUSH2 0x22F9 JUMP JUMPDEST POP AND PUSH1 0x0 MSTORE PUSH1 0x9 PUSH1 0x20 MSTORE PUSH1 0x40 PUSH1 0x0 KECCAK256 PUSH2 0x17BD PUSH2 0x22F9 JUMP JUMPDEST POP PUSH2 0x2AF7 JUMP JUMPDEST POP PUSH1 0x40 MLOAD SWAP1 PUSH2 0x17D1 DUP3 PUSH2 0x1937 JUMP JUMPDEST SLOAD PUSH6 0xFFFFFFFFFFFF DUP2 AND DUP3 MSTORE PUSH1 0x30 SHR PUSH1 0x20 DUP3 ADD MSTORE PUSH1 0x40 MLOAD SWAP2 DUP3 SWAP2 DUP3 SWAP2 SWAP1 SWAP2 PUSH1 0x20 PUSH26 0xFFFFFFFFFFFFFFFFFFFFFFFFFFFFFFFFFFFFFFFFFFFFFFFFFFFF DUP2 PUSH1 0x40 DUP5 ADD SWAP6 PUSH6 0xFFFFFFFFFFFF DUP2 MLOAD AND DUP6 MSTORE ADD MLOAD AND SWAP2 ADD MSTORE JUMP JUMPDEST CALLVALUE PUSH2 0x36A JUMPI PUSH1 0x20 PUSH1 0x3 NOT CALLDATASIZE ADD SLT PUSH2 0x36A JUMPI PUSH2 0x183F PUSH2 0x3B1 JUMP JUMPDEST PUSH2 0x1847 PUSH2 0x18DD JUMP JUMPDEST PUSH1 0x1 PUSH1 0x1 PUSH1 0xA0 SHL SUB DUP1 SWAP2 AND SWAP1 DUP2 ISZERO PUSH2 0x18AC JUMPI PUSH1 0xB SLOAD DUP3 PUSH32 0xFFFFFFFFFFFFFFFFFFFFFFFF0000000000000000000000000000000000000000 DUP3 AND OR PUSH1 0xB SSTORE AND PUSH32 0x8BE0079C531659141344CD1FD0A4F28419497F9722A3DAAFE3B4186F6B6457E0 PUSH1 0x0 DUP1 LOG3 STOP JUMPDEST PUSH1 0x24 PUSH1 0x40 MLOAD PUSH32 0x1E4FBDF700000000000000000000000000000000000000000000000000000000 DUP2 MSTORE PUSH1 0x0 PUSH1 0x4 DUP3 ADD MSTORE REVERT JUMPDEST PUSH1 0x1 PUSH1 0x1 PUSH1 0xA0 SHL SUB PUSH1 0xB SLOAD AND CALLER SUB PUSH2 0x18F1 JUMPI JUMP JUMPDEST PUSH1 0x24 PUSH1 0x40 MLOAD PUSH32 0x118CDAA700000000000000000000000000000000000000000000000000000000 DUP2 MSTORE CALLER PUSH1 0x4 DUP3 ADD MSTORE REVERT JUMPDEST PUSH4 0x4E487B71 PUSH1 0xE0 SHL PUSH1 0x0 MSTORE PUSH1 0x41 PUSH1 0x4 MSTORE PUSH1 0x24 PUSH1 0x0 REVERT JUMPDEST PUSH1 0x40 DUP2 ADD SWAP1 DUP2 LT PUSH8 0xFFFFFFFFFFFFFFFF DUP3 GT OR PUSH2 0xEA9 JUMPI PUSH1 0x40 MSTORE JUMP JUMPDEST PUSH1 0x20 DUP2 ADD SWAP1 DUP2 LT PUSH8 0xFFFFFFFFFFFFFFFF DUP3 GT OR PUSH2 0xEA9 JUMPI PUSH1 0x40 MSTORE JUMP JUMPDEST PUSH1 0xA0 DUP2 ADD SWAP1 DUP2 LT PUSH8 0xFFFFFFFFFFFFFFFF DUP3 GT OR PUSH2 0xEA9 JUMPI PUSH1 0x40 MSTORE JUMP JUMPDEST PUSH1 0xC0 DUP2 ADD SWAP1 DUP2 LT PUSH8 0xFFFFFFFFFFFFFFFF DUP3 GT OR PUSH2 0xEA9 JUMPI PUSH1 0x40 MSTORE JUMP JUMPDEST SWAP1 PUSH1 0x1F PUSH1 0x1F NOT SWAP2 ADD AND DUP2 ADD SWAP1 DUP2 LT PUSH8 0xFFFFFFFFFFFFFFFF DUP3 GT OR PUSH2 0xEA9 JUMPI PUSH1 0x40 MSTORE JUMP JUMPDEST PUSH1 0x40 MLOAD SWAP1 PUSH2 0x19D7 DUP3 PUSH2 0x1937 JUMP JUMPDEST JUMP JUMPDEST PUSH6 0xFFFFFFFFFFFF PUSH2 0x19E9 NUMBER PUSH2 0x28A8 JUMP JUMPDEST AND DUP1 DUP3 LT ISZERO PUSH2 0x19FC JUMPI POP PUSH2 0x97F SWAP1 PUSH2 0x28A8 JUMP JUMPDEST PUSH1 0x44 SWAP3 POP PUSH1 0x40 MLOAD SWAP2 PUSH32 0xECD3F81E00000000000000000000000000000000000000000000000000000000 DUP4 MSTORE PUSH1 0x4 DUP4 ADD MSTORE PUSH1 0x24 DUP3 ADD MSTORE REVERT JUMPDEST PUSH2 0x19D7 SWAP2 PUSH2 0x1AC8 PUSH1 0x1 PUSH1 0x1 PUSH1 0xA0 SHL SUB SWAP3 PUSH32 0xFFFFFFFFFFFFFFFFFFFFFFFF0000000000000000000000000000000000000000 DUP5 DUP3 AND SWAP5 DUP6 PUSH1 0x0 MSTORE PUSH1 0x8 PUSH1 0x20 MSTORE PUSH1 0x40 PUSH1 0x0 KECCAK256 SWAP6 DUP7 SLOAD SWAP7 DUP3 DUP9 AND SWAP8 DUP9 SWAP4 DUP9 AND SWAP5 DUP6 SWAP2 AND OR SWAP1 SSTORE PUSH32 0x3134E8A2E6D97E929A7E54011EA5485D7D196DD5F0BA4D4EF95803E8E3FC257F PUSH1 0x0 DUP1 LOG4 PUSH1 0x1 PUSH1 0x1 PUSH1 0xA0 SHL SUB AND PUSH1 0x0 MSTORE PUSH1 0x0 PUSH1 0x20 MSTORE PUSH1 0x40 PUSH1 0x0 KECCAK256 SLOAD SWAP1 JUMP JUMPDEST SWAP2 JUMPDEST SWAP2 SWAP1 PUSH1 0x1 PUSH1 0x1 PUSH1 0xA0 SHL SUB SWAP3 DUP4 DUP3 AND SWAP4 DUP2 AND SWAP1 DUP5 DUP3 EQ ISZERO DUP1 PUSH2 0x1C43 JUMPI JUMPDEST PUSH2 0x1AF2 JUMPI JUMPDEST POP POP POP POP POP JUMP JUMPDEST DUP2 PUSH2 0x1B8E JUMPI JUMPDEST POP POP DUP3 PUSH2 0x1B07 JUMPI JUMPDEST DUP1 DUP1 PUSH2 0x1AEB JUMP JUMPDEST PUSH32 0xDEC2BACDD2F05B59DE34DA9B523DFF8BE42E5E38E818C82FDB0BAE774387A724 SWAP2 PUSH2 0x1B52 PUSH2 0x1B4C PUSH2 0x1B58 SWAP4 PUSH1 0x1 PUSH1 0x1 PUSH1 0xA0 SHL SUB AND PUSH1 0x0 MSTORE PUSH1 0x9 PUSH1 0x20 MSTORE PUSH1 0x40 PUSH1 0x0 KECCAK256 SWAP1 JUMP JUMPDEST SWAP2 PUSH2 0x2849 JUMP JUMPDEST SWAP1 PUSH2 0x1C4C JUMP JUMPDEST PUSH1 0x40 DUP1 MLOAD PUSH26 0xFFFFFFFFFFFFFFFFFFFFFFFFFFFFFFFFFFFFFFFFFFFFFFFFFFFF SWAP4 DUP5 AND DUP2 MSTORE SWAP2 SWAP1 SWAP3 AND PUSH1 0x20 DUP3 ADD MSTORE LOG2 CODESIZE DUP1 DUP1 PUSH2 0x1B00 JUMP JUMPDEST PUSH2 0x1BAB SWAP1 PUSH1 0x1 PUSH1 0x1 PUSH1 0xA0 SHL SUB AND PUSH1 0x0 MSTORE PUSH1 0x9 PUSH1 0x20 MSTORE PUSH1 0x40 PUSH1 0x0 KECCAK256 SWAP1 JUMP JUMPDEST PUSH2 0x1BB4 DUP5 PUSH2 0x2849 JUMP JUMPDEST PUSH2 0x1BBD NUMBER PUSH2 0x28A8 JUMP JUMPDEST PUSH26 0xFFFFFFFFFFFFFFFFFFFFFFFFFFFFFFFFFFFFFFFFFFFFFFFFFFFF SWAP2 DUP3 DUP1 PUSH2 0x1BE4 DUP7 PUSH2 0x2AC9 JUMP JUMPDEST AND SWAP2 AND SWAP1 SUB SWAP3 DUP3 DUP5 GT PUSH2 0x713 JUMPI PUSH32 0xDEC2BACDD2F05B59DE34DA9B523DFF8BE42E5E38E818C82FDB0BAE774387A724 SWAP4 PUSH2 0x1C39 SWAP3 PUSH2 0x1C20 SWAP3 PUSH2 0x2D38 JUMP JUMPDEST PUSH1 0x40 DUP1 MLOAD SWAP3 DUP6 AND DUP4 MSTORE SWAP4 AND PUSH1 0x20 DUP3 ADD MSTORE SWAP2 DUP3 SWAP2 SWAP1 DUP3 ADD SWAP1 JUMP JUMPDEST SUB SWAP1 LOG2 CODESIZE DUP1 PUSH2 0x1AF8 JUMP JUMPDEST POP DUP4 ISZERO ISZERO PUSH2 0x1AE6 JUMP JUMPDEST SWAP1 PUSH2 0x1C56 NUMBER PUSH2 0x28A8 JUMP JUMPDEST PUSH26 0xFFFFFFFFFFFFFFFFFFFFFFFFFFFFFFFFFFFFFFFFFFFFFFFFFFFF SWAP2 DUP3 DUP1 PUSH2 0x1C7D DUP7 PUSH2 0x2AC9 JUMP JUMPDEST AND SWAP2 AND ADD SWAP2 DUP3 GT PUSH2 0x1C95 JUMPI PUSH2 0x1C91 SWAP3 PUSH2 0x2D38 JUMP JUMPDEST SWAP1 SWAP2 JUMP JUMPDEST PUSH4 0x4E487B71 PUSH1 0xE0 SHL PUSH1 0x0 MSTORE PUSH1 0x11 PUSH1 0x4 MSTORE PUSH1 0x24 PUSH1 0x0 REVERT JUMPDEST SWAP1 PUSH1 0x1 DUP3 DUP2 SHR SWAP3 AND DUP1 ISZERO PUSH2 0x1CDB JUMPI JUMPDEST PUSH1 0x20 DUP4 LT EQ PUSH2 0x1CC5 JUMPI JUMP JUMPDEST PUSH4 0x4E487B71 PUSH1 0xE0 SHL PUSH1 0x0 MSTORE PUSH1 0x22 PUSH1 0x4 MSTORE PUSH1 0x24 PUSH1 0x0 REVERT JUMPDEST SWAP2 PUSH1 0x7F AND SWAP2 PUSH2 0x1CBA JUMP JUMPDEST PUSH1 0xF SLOAD PUSH1 0x0 SWAP3 SWAP2 PUSH2 0x1CF5 DUP3 PUSH2 0x1CAB JUMP JUMPDEST DUP1 DUP3 MSTORE SWAP2 PUSH1 0x1 SWAP1 DUP2 DUP2 AND SWAP1 DUP2 ISZERO PUSH2 0x1D6C JUMPI POP PUSH1 0x1 EQ PUSH2 0x1D13 JUMPI POP POP POP JUMP JUMPDEST SWAP2 SWAP3 SWAP4 POP PUSH1 0xF PUSH1 0x0 MSTORE PUSH32 0x8D1108E10BCB7C27DDDFC02ED9D693A074039D026CF4EA4240B40F7D581AC802 SWAP2 PUSH1 0x0 SWAP3 JUMPDEST DUP5 DUP5 LT PUSH2 0x1D54 JUMPI POP POP PUSH1 0x20 SWAP3 POP ADD ADD SWAP1 JUMP JUMPDEST DUP1 SLOAD PUSH1 0x20 DUP6 DUP6 ADD DUP2 ADD SWAP2 SWAP1 SWAP2 MSTORE SWAP1 SWAP4 ADD SWAP3 DUP2 ADD PUSH2 0x1D42 JUMP JUMPDEST SWAP1 POP PUSH1 0x20 SWAP5 SWAP6 POP PUSH1 0xFF NOT SWAP2 POP SWAP3 SWAP2 SWAP3 AND DUP4 DUP4 ADD MSTORE ISZERO ISZERO PUSH1 0x5 SHL ADD ADD SWAP1 JUMP JUMPDEST PUSH1 0x3 SLOAD PUSH1 0x0 SWAP3 SWAP2 PUSH2 0x1D9A DUP3 PUSH2 0x1CAB JUMP JUMPDEST DUP1 DUP3 MSTORE SWAP2 PUSH1 0x1 SWAP1 DUP2 DUP2 AND SWAP1 DUP2 ISZERO PUSH2 0x1D6C JUMPI POP PUSH1 0x1 EQ PUSH2 0x1DB8 JUMPI POP POP POP JUMP JUMPDEST SWAP2 SWAP3 SWAP4 POP PUSH1 0x3 PUSH1 0x0 MSTORE PUSH32 0xC2575A0E9E593C00F959F8C92F12DB2869C3395A3B0502D05E2516446F71F85B SWAP2 PUSH1 0x0 SWAP3 JUMPDEST DUP5 DUP5 LT PUSH2 0x1DF9 JUMPI POP POP PUSH1 0x20 SWAP3 POP ADD ADD SWAP1 JUMP JUMPDEST DUP1 SLOAD PUSH1 0x20 DUP6 DUP6 ADD DUP2 ADD SWAP2 SWAP1 SWAP2 MSTORE SWAP1 SWAP4 ADD SWAP3 DUP2 ADD PUSH2 0x1DE7 JUMP JUMPDEST PUSH1 0xE SLOAD PUSH1 0x0 SWAP3 SWAP2 PUSH2 0x1E21 DUP3 PUSH2 0x1CAB JUMP JUMPDEST DUP1 DUP3 MSTORE SWAP2 PUSH1 0x1 SWAP1 DUP2 DUP2 AND SWAP1 DUP2 ISZERO PUSH2 0x1D6C JUMPI POP PUSH1 0x1 EQ PUSH2 0x1E3F JUMPI POP POP POP JUMP JUMPDEST SWAP2 SWAP3 SWAP4 POP PUSH1 0xE PUSH1 0x0 MSTORE PUSH32 0xBB7B4A454DC3493923482F07822329ED19E8244EFF582CC204F8554C3620C3FD SWAP2 PUSH1 0x0 SWAP3 JUMPDEST DUP5 DUP5 LT PUSH2 0x1E80 JUMPI POP POP PUSH1 0x20 SWAP3 POP ADD ADD SWAP1 JUMP JUMPDEST DUP1 SLOAD PUSH1 0x20 DUP6 DUP6 ADD DUP2 ADD SWAP2 SWAP1 SWAP2 MSTORE SWAP1 SWAP4 ADD SWAP3 DUP2 ADD PUSH2 0x1E6E JUMP JUMPDEST PUSH1 0xD SLOAD PUSH1 0x0 SWAP3 SWAP2 PUSH2 0x1EA8 DUP3 PUSH2 0x1CAB JUMP JUMPDEST DUP1 DUP3 MSTORE SWAP2 PUSH1 0x1 SWAP1 DUP2 DUP2 AND SWAP1 DUP2 ISZERO PUSH2 0x1D6C JUMPI POP PUSH1 0x1 EQ PUSH2 0x1EC6 JUMPI POP POP POP JUMP JUMPDEST SWAP2 SWAP3 SWAP4 POP PUSH1 0xD PUSH1 0x0 MSTORE PUSH32 0xD7B6990105719101DABEB77144F2A3385C8033ACD3AF97E9423A695E81AD1EB5 SWAP2 PUSH1 0x0 SWAP3 JUMPDEST DUP5 DUP5 LT PUSH2 0x1F07 JUMPI POP POP PUSH1 0x20 SWAP3 POP ADD ADD SWAP1 JUMP JUMPDEST DUP1 SLOAD PUSH1 0x20 DUP6 DUP6 ADD DUP2 ADD SWAP2 SWAP1 SWAP2 MSTORE SWAP1 SWAP4 ADD SWAP3 DUP2 ADD PUSH2 0x1EF5 JUMP JUMPDEST PUSH1 0x4 SLOAD PUSH1 0x0 SWAP3 SWAP2 PUSH2 0x1F2F DUP3 PUSH2 0x1CAB JUMP JUMPDEST DUP1 DUP3 MSTORE SWAP2 PUSH1 0x1 SWAP1 DUP2 DUP2 AND SWAP1 DUP2 ISZERO PUSH2 0x1D6C JUMPI POP PUSH1 0x1 EQ PUSH2 0x1F4D JUMPI POP POP POP JUMP JUMPDEST SWAP2 SWAP3 SWAP4 POP PUSH1 0x4 PUSH1 0x0 MSTORE PUSH32 0x8A35ACFBC15FF81A39AE7D344FD709F28E8600B4AA8C65C6B64BFE7FE36BD19B SWAP2 PUSH1 0x0 SWAP3 JUMPDEST DUP5 DUP5 LT PUSH2 0x1F8E JUMPI POP POP PUSH1 0x20 SWAP3 POP ADD ADD SWAP1 JUMP JUMPDEST DUP1 SLOAD PUSH1 0x20 DUP6 DUP6 ADD DUP2 ADD SWAP2 SWAP1 SWAP2 MSTORE SWAP1 SWAP4 ADD SWAP3 DUP2 ADD PUSH2 0x1F7C JUMP JUMPDEST PUSH1 0x10 SLOAD PUSH1 0x0 SWAP3 SWAP2 PUSH2 0x1FB6 DUP3 PUSH2 0x1CAB JUMP JUMPDEST DUP1 DUP3 MSTORE SWAP2 PUSH1 0x1 SWAP1 DUP2 DUP2 AND SWAP1 DUP2 ISZERO PUSH2 0x1D6C JUMPI POP PUSH1 0x1 EQ PUSH2 0x1FD4 JUMPI POP POP POP JUMP JUMPDEST SWAP2 SWAP3 SWAP4 POP PUSH1 0x10 PUSH1 0x0 MSTORE PUSH32 0x1B6847DC741A1B0CD08D278845F9D819D87B734759AFB55FE2DE5CB82A9AE672 SWAP2 PUSH1 0x0 SWAP3 JUMPDEST DUP5 DUP5 LT PUSH2 0x2015 JUMPI POP POP PUSH1 0x20 SWAP3 POP ADD ADD SWAP1 JUMP JUMPDEST DUP1 SLOAD PUSH1 0x20 DUP6 DUP6 ADD DUP2 ADD SWAP2 SWAP1 SWAP2 MSTORE SWAP1 SWAP4 ADD SWAP3 DUP2 ADD PUSH2 0x2003 JUMP JUMPDEST SWAP1 SWAP2 PUSH1 0x1 PUSH1 0x1 PUSH1 0xA0 SHL SUB DUP1 DUP4 AND SWAP1 DUP2 ISZERO PUSH2 0x21AA JUMPI DUP5 AND SWAP1 DUP2 ISZERO PUSH2 0x2179 JUMPI PUSH2 0x2067 DUP5 PUSH1 0x1 PUSH1 0x1 PUSH1 0xA0 SHL SUB AND PUSH1 0x0 MSTORE PUSH1 0x0 PUSH1 0x20 MSTORE PUSH1 0x40 PUSH1 0x0 KECCAK256 SWAP1 JUMP JUMPDEST SLOAD DUP4 DUP2 LT PUSH2 0x2130 JUMPI SWAP3 PUSH2 0x212D SWAP5 SWAP3 PUSH2 0x20F4 SWAP3 DUP3 PUSH2 0x2113 SWAP9 SWAP7 SUB PUSH2 0x209D DUP7 PUSH1 0x1 PUSH1 0x1 PUSH1 0xA0 SHL SUB AND PUSH1 0x0 MSTORE PUSH1 0x0 PUSH1 0x20 MSTORE PUSH1 0x40 PUSH1 0x0 KECCAK256 SWAP1 JUMP JUMPDEST SSTORE PUSH2 0x20BB DUP7 PUSH1 0x1 PUSH1 0x1 PUSH1 0xA0 SHL SUB AND PUSH1 0x0 MSTORE PUSH1 0x0 PUSH1 0x20 MSTORE PUSH1 0x40 PUSH1 0x0 KECCAK256 SWAP1 JUMP JUMPDEST DUP1 SLOAD DUP5 ADD SWAP1 SSTORE PUSH1 0x40 MLOAD DUP4 DUP2 MSTORE PUSH32 0xDDF252AD1BE2C89B69C2B068FC378DAA952BA7F163C4A11628F55A4DF523B3EF SWAP1 PUSH1 0x20 SWAP1 LOG3 DUP4 DUP4 PUSH2 0x30BB JUMP JUMPDEST PUSH1 0x15 SLOAD SWAP4 DUP5 SWAP2 PUSH1 0x1 PUSH1 0x1 PUSH1 0xA0 SHL SUB AND PUSH1 0x0 MSTORE PUSH1 0x14 PUSH1 0x20 MSTORE PUSH1 0x40 PUSH1 0x0 KECCAK256 SWAP1 JUMP JUMPDEST SSTORE PUSH1 0x1 PUSH1 0x1 PUSH1 0xA0 SHL SUB AND PUSH1 0x0 MSTORE PUSH1 0x14 PUSH1 0x20 MSTORE PUSH1 0x40 PUSH1 0x0 KECCAK256 SWAP1 JUMP JUMPDEST SSTORE JUMP JUMPDEST PUSH1 0x40 MLOAD PUSH32 0xE450D38C00000000000000000000000000000000000000000000000000000000 DUP2 MSTORE PUSH1 0x1 PUSH1 0x1 PUSH1 0xA0 SHL SUB DUP7 AND PUSH1 0x4 DUP3 ADD MSTORE PUSH1 0x24 DUP2 ADD SWAP2 SWAP1 SWAP2 MSTORE PUSH1 0x44 DUP2 ADD DUP5 SWAP1 MSTORE PUSH1 0x64 SWAP1 REVERT JUMPDEST PUSH1 0x24 PUSH1 0x40 MLOAD PUSH32 0xEC442F0500000000000000000000000000000000000000000000000000000000 DUP2 MSTORE PUSH1 0x0 PUSH1 0x4 DUP3 ADD MSTORE REVERT JUMPDEST PUSH1 0x24 PUSH1 0x40 MLOAD PUSH32 0x96C6FD1E00000000000000000000000000000000000000000000000000000000 DUP2 MSTORE PUSH1 0x0 PUSH1 0x4 DUP3 ADD MSTORE REVERT JUMPDEST SWAP1 PUSH1 0x1 PUSH1 0x1 PUSH1 0xA0 SHL SUB SWAP2 DUP3 DUP2 AND SWAP3 DUP4 ISZERO PUSH2 0x2290 JUMPI DUP3 AND SWAP4 DUP5 ISZERO PUSH2 0x225F JUMPI DUP1 PUSH2 0x2255 PUSH32 0x8C5BE1E5EBEC7D5BD14F71427D1E84F3DD0314C0F7B2291E5B200AC8C7C3B925 SWAP5 PUSH2 0x223D PUSH1 0x20 SWAP6 PUSH1 0x1 PUSH1 0x1 PUSH1 0xA0 SHL SUB AND PUSH1 0x0 MSTORE PUSH1 0x1 PUSH1 0x20 MSTORE PUSH1 0x40 PUSH1 0x0 KECCAK256 SWAP1 JUMP JUMPDEST SWAP1 PUSH1 0x1 PUSH1 0x1 PUSH1 0xA0 SHL SUB AND PUSH1 0x0 MSTORE PUSH1 0x20 MSTORE PUSH1 0x40 PUSH1 0x0 KECCAK256 SWAP1 JUMP JUMPDEST SSTORE PUSH1 0x40 MLOAD SWAP1 DUP2 MSTORE LOG3 JUMP JUMPDEST PUSH1 0x24 PUSH1 0x40 MLOAD PUSH32 0x94280D6200000000000000000000000000000000000000000000000000000000 DUP2 MSTORE PUSH1 0x0 PUSH1 0x4 DUP3 ADD MSTORE REVERT JUMPDEST PUSH1 0x24 PUSH1 0x40 MLOAD PUSH32 0xE602DF0500000000000000000000000000000000000000000000000000000000 DUP2 MSTORE PUSH1 0x0 PUSH1 0x4 DUP3 ADD MSTORE REVERT JUMPDEST SWAP1 PUSH1 0x1 PUSH1 0x1 PUSH1 0xA0 SHL SUB DUP1 DUP4 AND ISZERO PUSH2 0x2290 JUMPI DUP2 AND ISZERO PUSH2 0x225F JUMPI PUSH2 0x223D PUSH2 0x212D SWAP3 PUSH1 0x1 PUSH1 0x1 PUSH1 0xA0 SHL SUB AND PUSH1 0x0 MSTORE PUSH1 0x1 PUSH1 0x20 MSTORE PUSH1 0x40 PUSH1 0x0 KECCAK256 SWAP1 JUMP JUMPDEST PUSH1 0x40 MLOAD SWAP1 PUSH2 0x2306 DUP3 PUSH2 0x1937 JUMP JUMPDEST PUSH1 0x0 PUSH1 0x20 DUP4 DUP3 DUP2 MSTORE ADD MSTORE JUMP JUMPDEST SWAP1 PUSH2 0x2339 DUP3 PUSH1 0x1 PUSH1 0x1 PUSH1 0xA0 SHL SUB AND PUSH1 0x0 MSTORE PUSH1 0x7 PUSH1 0x20 MSTORE PUSH1 0x40 PUSH1 0x0 KECCAK256 DUP1 SLOAD SWAP1 PUSH1 0x1 DUP3 ADD SWAP1 SSTORE SWAP1 JUMP JUMPDEST DUP1 SWAP2 SUB PUSH2 0x2344 JUMPI POP POP JUMP JUMPDEST PUSH1 0x44 SWAP3 POP PUSH1 0x1 PUSH1 0x1 PUSH1 0xA0 SHL SUB PUSH1 0x40 MLOAD SWAP3 PUSH32 0x752D88C000000000000000000000000000000000000000000000000000000000 DUP5 MSTORE AND PUSH1 0x4 DUP4 ADD MSTORE PUSH1 0x24 DUP3 ADD MSTORE REVERT JUMPDEST SWAP2 PUSH2 0x97F SWAP4 SWAP2 PUSH2 0x2393 SWAP4 PUSH2 0x239C JUMP JUMPDEST SWAP1 SWAP3 SWAP2 SWAP3 PUSH2 0x244C JUMP JUMPDEST SWAP2 SWAP1 PUSH32 0x7FFFFFFFFFFFFFFFFFFFFFFFFFFFFFFF5D576E7357A4501DDFE92F46681B20A0 DUP5 GT PUSH2 0x2420 JUMPI SWAP3 PUSH1 0x20 SWAP3 SWAP2 PUSH1 0xFF PUSH1 0x80 SWAP6 PUSH1 0x40 MLOAD SWAP5 DUP6 MSTORE AND DUP5 DUP5 ADD MSTORE PUSH1 0x40 DUP4 ADD MSTORE PUSH1 0x60 DUP3 ADD MSTORE PUSH1 0x0 SWAP3 DUP4 SWAP2 DUP3 DUP1 MSTORE PUSH1 0x1 GAS STATICCALL ISZERO PUSH2 0x2414 JUMPI DUP1 MLOAD PUSH1 0x1 PUSH1 0x1 PUSH1 0xA0 SHL SUB DUP2 AND ISZERO PUSH2 0x240B JUMPI SWAP2 DUP2 SWAP1 JUMP JUMPDEST POP DUP1 SWAP2 PUSH1 0x1 SWAP2 SWAP1 JUMP JUMPDEST PUSH1 0x40 MLOAD SWAP1 RETURNDATASIZE SWAP1 DUP3 RETURNDATACOPY RETURNDATASIZE SWAP1 REVERT JUMPDEST POP POP POP PUSH1 0x0 SWAP2 PUSH1 0x3 SWAP2 SWAP1 JUMP JUMPDEST PUSH1 0x4 GT ISZERO PUSH2 0x2436 JUMPI JUMP JUMPDEST PUSH4 0x4E487B71 PUSH1 0xE0 SHL PUSH1 0x0 MSTORE PUSH1 0x21 PUSH1 0x4 MSTORE PUSH1 0x24 PUSH1 0x0 REVERT JUMPDEST PUSH2 0x2455 DUP2 PUSH2 0x242C JUMP JUMPDEST DUP1 PUSH2 0x245E JUMPI POP POP JUMP JUMPDEST PUSH2 0x2467 DUP2 PUSH2 0x242C JUMP JUMPDEST PUSH1 0x1 DUP2 SUB PUSH2 0x2499 JUMPI PUSH1 0x4 PUSH1 0x40 MLOAD PUSH32 0xF645EEDF00000000000000000000000000000000000000000000000000000000 DUP2 MSTORE REVERT JUMPDEST PUSH2 0x24A2 DUP2 PUSH2 0x242C JUMP JUMPDEST PUSH1 0x2 DUP2 SUB PUSH2 0x24DC JUMPI PUSH1 0x40 MLOAD PUSH32 0xFCE698F700000000000000000000000000000000000000000000000000000000 DUP2 MSTORE PUSH1 0x4 DUP2 ADD DUP4 SWAP1 MSTORE PUSH1 0x24 SWAP1 REVERT JUMPDEST DUP1 PUSH2 0x24E8 PUSH1 0x3 SWAP3 PUSH2 0x242C JUMP JUMPDEST EQ PUSH2 0x24F0 JUMPI POP JUMP JUMPDEST PUSH1 0x40 MLOAD PUSH32 0xD78BCE0C00000000000000000000000000000000000000000000000000000000 DUP2 MSTORE PUSH1 0x4 DUP2 ADD SWAP2 SWAP1 SWAP2 MSTORE PUSH1 0x24 SWAP1 REVERT JUMPDEST PUSH1 0x1 PUSH1 0x1 PUSH1 0xA0 SHL SUB PUSH32 0x0 AND ADDRESS EQ DUP1 PUSH2 0x2614 JUMPI JUMPDEST ISZERO PUSH2 0x257E JUMPI PUSH32 0x0 SWAP1 JUMP JUMPDEST PUSH1 0x40 MLOAD PUSH1 0x20 DUP2 ADD SWAP1 PUSH32 0x8B73C3C69BB8FE3D512ECC4CF759CC79239F7B179B0FFACAA9A75D522B39400F DUP3 MSTORE PUSH32 0x0 PUSH1 0x40 DUP3 ADD MSTORE PUSH32 0x0 PUSH1 0x60 DUP3 ADD MSTORE CHAINID PUSH1 0x80 DUP3 ADD MSTORE ADDRESS PUSH1 0xA0 DUP3 ADD MSTORE PUSH1 0xA0 DUP2 MSTORE PUSH2 0x260E DUP2 PUSH2 0x198B JUMP JUMPDEST MLOAD SWAP1 KECCAK256 SWAP1 JUMP JUMPDEST POP PUSH32 0x0 CHAINID EQ PUSH2 0x2555 JUMP JUMPDEST PUSH1 0x42 SWAP1 PUSH2 0x2648 PUSH2 0x2523 JUMP JUMPDEST SWAP1 PUSH1 0x40 MLOAD SWAP2 PUSH32 0x1901000000000000000000000000000000000000000000000000000000000000 DUP4 MSTORE PUSH1 0x2 DUP4 ADD MSTORE PUSH1 0x22 DUP3 ADD MSTORE KECCAK256 SWAP1 JUMP JUMPDEST PUSH1 0xFF DUP2 EQ PUSH2 0x26D4 JUMPI PUSH1 0xFF DUP2 AND SWAP1 PUSH1 0x1F DUP3 GT PUSH2 0x26AA JUMPI PUSH1 0x40 MLOAD SWAP2 PUSH2 0x26A0 DUP4 PUSH2 0x1937 JUMP JUMPDEST DUP3 MSTORE PUSH1 0x20 DUP3 ADD MSTORE SWAP1 JUMP JUMPDEST PUSH1 0x4 PUSH1 0x40 MLOAD PUSH32 0xB3512B0C00000000000000000000000000000000000000000000000000000000 DUP2 MSTORE REVERT JUMPDEST POP PUSH1 0x40 MLOAD PUSH1 0x5 SLOAD DUP2 PUSH1 0x0 PUSH2 0x26E7 DUP4 PUSH2 0x1CAB JUMP JUMPDEST DUP1 DUP4 MSTORE SWAP3 PUSH1 0x1 SWAP1 DUP2 DUP2 AND SWAP1 DUP2 ISZERO PUSH2 0x276D JUMPI POP PUSH1 0x1 EQ PUSH2 0x270E JUMPI JUMPDEST POP PUSH2 0x97F SWAP3 POP SUB DUP3 PUSH2 0x19A7 JUMP JUMPDEST PUSH1 0x5 PUSH1 0x0 SWAP1 DUP2 MSTORE SWAP2 POP PUSH32 0x36B6384B5ECA791C62761152D0C79BB0604C104A5FB6F4EB0703F3154BB3DB0 JUMPDEST DUP5 DUP4 LT PUSH2 0x2752 JUMPI POP PUSH2 0x97F SWAP4 POP POP DUP2 ADD PUSH1 0x20 ADD CODESIZE PUSH2 0x2701 JUMP JUMPDEST DUP2 SWAP4 POP SWAP1 DUP2 PUSH1 0x20 SWAP3 SLOAD DUP4 DUP6 DUP10 ADD ADD MSTORE ADD SWAP2 ADD SWAP1 SWAP2 DUP5 SWAP3 PUSH2 0x2739 JUMP JUMPDEST PUSH1 0x20 SWAP4 POP PUSH2 0x97F SWAP6 SWAP3 POP PUSH1 0xFF NOT SWAP2 POP AND DUP3 DUP5 ADD MSTORE ISZERO ISZERO PUSH1 0x5 SHL DUP3 ADD ADD CODESIZE PUSH2 0x2701 JUMP JUMPDEST PUSH1 0xFF DUP2 EQ PUSH2 0x27B1 JUMPI PUSH1 0xFF DUP2 AND SWAP1 PUSH1 0x1F DUP3 GT PUSH2 0x26AA JUMPI PUSH1 0x40 MLOAD SWAP2 PUSH2 0x26A0 DUP4 PUSH2 0x1937 JUMP JUMPDEST POP PUSH1 0x40 MLOAD PUSH1 0x6 SLOAD DUP2 PUSH1 0x0 PUSH2 0x27C4 DUP4 PUSH2 0x1CAB JUMP JUMPDEST DUP1 DUP4 MSTORE SWAP3 PUSH1 0x1 SWAP1 DUP2 DUP2 AND SWAP1 DUP2 ISZERO PUSH2 0x276D JUMPI POP PUSH1 0x1 EQ PUSH2 0x27EA JUMPI POP PUSH2 0x97F SWAP3 POP SUB DUP3 PUSH2 0x19A7 JUMP JUMPDEST PUSH1 0x6 PUSH1 0x0 SWAP1 DUP2 MSTORE SWAP2 POP PUSH32 0xF652222313E28459528D920B65115C16C04F3EFC82AAEDC97BE59F3F377C0D3F JUMPDEST DUP5 DUP4 LT PUSH2 0x282E JUMPI POP PUSH2 0x97F SWAP4 POP POP DUP2 ADD PUSH1 0x20 ADD CODESIZE PUSH2 0x2701 JUMP JUMPDEST DUP2 SWAP4 POP SWAP1 DUP2 PUSH1 0x20 SWAP3 SLOAD DUP4 DUP6 DUP10 ADD ADD MSTORE ADD SWAP2 ADD SWAP1 SWAP2 DUP5 SWAP3 PUSH2 0x2815 JUMP JUMPDEST PUSH26 0xFFFFFFFFFFFFFFFFFFFFFFFFFFFFFFFFFFFFFFFFFFFFFFFFFFFF SWAP1 DUP2 DUP2 GT PUSH2 0x2870 JUMPI AND SWAP1 JUMP JUMPDEST PUSH1 0x44 SWAP1 PUSH1 0x40 MLOAD SWAP1 PUSH32 0x6DFCC65000000000000000000000000000000000000000000000000000000000 DUP3 MSTORE PUSH1 0xD0 PUSH1 0x4 DUP4 ADD MSTORE PUSH1 0x24 DUP3 ADD MSTORE REVERT JUMPDEST PUSH6 0xFFFFFFFFFFFF SWAP1 DUP2 DUP2 GT PUSH2 0x28BB JUMPI AND SWAP1 JUMP JUMPDEST PUSH1 0x44 SWAP1 PUSH1 0x40 MLOAD SWAP1 PUSH32 0x6DFCC65000000000000000000000000000000000000000000000000000000000 DUP3 MSTORE PUSH1 0x30 PUSH1 0x4 DUP4 ADD MSTORE PUSH1 0x24 DUP3 ADD MSTORE REVERT JUMPDEST SWAP1 PUSH1 0x0 NOT DUP3 ADD SWAP2 DUP3 GT PUSH2 0x713 JUMPI JUMP JUMPDEST SWAP1 PUSH1 0x1 DUP3 ADD DUP1 SWAP3 GT PUSH2 0x713 JUMPI JUMP JUMPDEST SWAP2 SWAP1 DUP3 ADD DUP1 SWAP3 GT PUSH2 0x713 JUMPI JUMP JUMPDEST DUP2 ISZERO PUSH2 0x2927 JUMPI DIV SWAP1 JUMP JUMPDEST PUSH4 0x4E487B71 PUSH1 0xE0 SHL PUSH1 0x0 MSTORE PUSH1 0x12 PUSH1 0x4 MSTORE PUSH1 0x24 PUSH1 0x0 REVERT JUMPDEST PUSH1 0x1 DUP2 GT ISZERO PUSH2 0x97F JUMPI PUSH1 0x1 DUP2 PUSH17 0x100000000000000000000000000000000 DUP2 LT ISZERO PUSH2 0x2A68 JUMPI JUMPDEST PUSH2 0x2A10 PUSH2 0x2A06 PUSH2 0x29FC PUSH2 0x29F2 PUSH2 0x29E8 PUSH2 0x29DE PUSH2 0x2A1C SWAP8 PUSH1 0x4 DUP9 PUSH9 0x10000000000000000 PUSH2 0x2A17 SWAP11 LT ISZERO PUSH2 0x2A5B JUMPI JUMPDEST PUSH5 0x100000000 DUP2 LT ISZERO PUSH2 0x2A4E JUMPI JUMPDEST PUSH3 0x10000 DUP2 LT ISZERO PUSH2 0x2A41 JUMPI JUMPDEST PUSH2 0x100 DUP2 LT ISZERO PUSH2 0x2A35 JUMPI JUMPDEST PUSH1 0x10 DUP2 LT ISZERO PUSH2 0x2A29 JUMPI JUMPDEST LT ISZERO PUSH2 0x2A21 JUMPI JUMPDEST PUSH1 0x3 MUL PUSH1 0x1 SHR PUSH2 0x29D7 DUP2 DUP12 PUSH2 0x291D JUMP JUMPDEST ADD PUSH1 0x1 SHR SWAP1 JUMP JUMPDEST PUSH2 0x29D7 DUP2 DUP11 PUSH2 0x291D JUMP JUMPDEST PUSH2 0x29D7 DUP2 DUP10 PUSH2 0x291D JUMP JUMPDEST PUSH2 0x29D7 DUP2 DUP9 PUSH2 0x291D JUMP JUMPDEST PUSH2 0x29D7 DUP2 DUP8 PUSH2 0x291D JUMP JUMPDEST PUSH2 0x29D7 DUP2 DUP7 PUSH2 0x291D JUMP JUMPDEST DUP1 SWAP4 PUSH2 0x291D JUMP JUMPDEST DUP3 GT SWAP1 JUMP JUMPDEST SWAP1 SUB SWAP1 JUMP JUMPDEST PUSH1 0x1 SHL PUSH2 0x29C7 JUMP JUMPDEST DUP2 SHR SWAP2 PUSH1 0x2 SHL SWAP2 PUSH2 0x29C0 JUMP JUMPDEST PUSH1 0x8 SHR SWAP2 DUP2 SHL SWAP2 PUSH2 0x29B6 JUMP JUMPDEST PUSH1 0x10 SHR SWAP2 PUSH1 0x8 SHL SWAP2 PUSH2 0x29AB JUMP JUMPDEST PUSH1 0x20 SHR SWAP2 PUSH1 0x10 SHL SWAP2 PUSH2 0x299F JUMP JUMPDEST PUSH1 0x40 SHR SWAP2 PUSH1 0x20 SHL SWAP2 PUSH2 0x2991 JUMP JUMPDEST POP PUSH9 0x10000000000000000 SWAP1 POP PUSH1 0x80 DUP3 SWAP1 SHR PUSH2 0x2963 JUMP JUMPDEST PUSH1 0xA SLOAD PUSH1 0x0 SWAP1 DUP1 PUSH2 0x2A91 JUMPI POP POP PUSH1 0x0 SWAP1 JUMP JUMPDEST DUP1 PUSH1 0x0 NOT DUP2 ADD GT PUSH2 0x713 JUMPI PUSH1 0xA PUSH32 0xC65A7BB8D6351C1CF70C95A316CC6A92839C986682D98BC35F958F4883F9D2A7 SWAP3 MSTORE ADD SLOAD PUSH1 0x30 SHR SWAP1 JUMP JUMPDEST DUP1 SLOAD PUSH1 0x0 SWAP2 DUP2 PUSH2 0x2ADB JUMPI POP POP POP PUSH1 0x0 SWAP1 JUMP JUMPDEST PUSH1 0x0 NOT SWAP3 DUP3 DUP5 DUP2 ADD GT PUSH2 0x713 JUMPI PUSH1 0x20 SWAP2 DUP2 MSTORE KECCAK256 ADD ADD SLOAD PUSH1 0x30 SHR SWAP1 JUMP JUMPDEST DUP1 SLOAD DUP3 LT ISZERO PUSH2 0x2B0F JUMPI PUSH1 0x0 MSTORE PUSH1 0x20 PUSH1 0x0 KECCAK256 ADD SWAP1 PUSH1 0x0 SWAP1 JUMP JUMPDEST PUSH4 0x4E487B71 PUSH1 0xE0 SHL PUSH1 0x0 MSTORE PUSH1 0x32 PUSH1 0x4 MSTORE PUSH1 0x24 PUSH1 0x0 REVERT JUMPDEST PUSH1 0xA SLOAD SWAP1 PUSH9 0x10000000000000000 DUP3 LT ISZERO PUSH2 0xEA9 JUMPI PUSH1 0x1 DUP3 ADD DUP1 PUSH1 0xA SSTORE DUP3 LT ISZERO PUSH2 0x2B0F JUMPI PUSH1 0xA PUSH1 0x0 MSTORE DUP1 MLOAD PUSH1 0x20 SWAP2 SWAP1 SWAP2 ADD MLOAD PUSH1 0x30 SHL PUSH6 0xFFFFFFFFFFFF NOT AND PUSH6 0xFFFFFFFFFFFF SWAP2 SWAP1 SWAP2 AND OR PUSH32 0xC65A7BB8D6351C1CF70C95A316CC6A92839C986682D98BC35F958F4883F9D2A8 SWAP1 SWAP2 ADD SSTORE JUMP JUMPDEST DUP1 SLOAD PUSH9 0x10000000000000000 DUP2 LT ISZERO PUSH2 0xEA9 JUMPI PUSH2 0x2BB8 SWAP2 PUSH1 0x1 DUP3 ADD DUP2 SSTORE PUSH2 0x2AF7 JUMP JUMPDEST PUSH2 0x2BE4 JUMPI DUP2 MLOAD PUSH1 0x20 SWAP3 SWAP1 SWAP3 ADD MLOAD PUSH1 0x30 SHL PUSH6 0xFFFFFFFFFFFF NOT AND PUSH6 0xFFFFFFFFFFFF SWAP3 SWAP1 SWAP3 AND SWAP2 SWAP1 SWAP2 OR SWAP1 SSTORE JUMP JUMPDEST PUSH4 0x4E487B71 PUSH1 0xE0 SHL PUSH1 0x0 MSTORE PUSH1 0x0 PUSH1 0x4 MSTORE PUSH1 0x24 PUSH1 0x0 REVERT JUMPDEST PUSH1 0xA SLOAD SWAP2 SWAP3 SWAP2 DUP1 ISZERO PUSH2 0x2CFB JUMPI PUSH2 0x2C12 PUSH2 0x2C3C SWAP2 PUSH2 0x28F3 JUMP JUMPDEST PUSH1 0xA PUSH1 0x0 MSTORE PUSH32 0xC65A7BB8D6351C1CF70C95A316CC6A92839C986682D98BC35F958F4883F9D2A8 ADD SWAP1 JUMP JUMPDEST SWAP1 DUP2 SLOAD SWAP2 PUSH6 0xFFFFFFFFFFFF SWAP1 DUP2 DUP5 AND SWAP2 DUP4 AND DUP1 DUP4 GT PUSH2 0x2CD1 JUMPI DUP7 SWAP3 SUB PUSH2 0x2C86 JUMPI PUSH2 0x2C7F SWAP3 POP SWAP1 PUSH6 0xFFFFFFFFFFFF PUSH6 0xFFFFFFFFFFFF NOT DUP4 SLOAD SWAP3 PUSH1 0x30 SHL AND SWAP2 AND OR SWAP1 SSTORE JUMP JUMPDEST PUSH1 0x30 SHR SWAP2 SWAP1 JUMP JUMPDEST POP POP PUSH2 0x2CCC SWAP1 PUSH2 0x2CA5 PUSH2 0x2C97 PUSH2 0x19CA JUMP JUMPDEST PUSH6 0xFFFFFFFFFFFF SWAP1 SWAP3 AND DUP3 MSTORE JUMP JUMPDEST PUSH26 0xFFFFFFFFFFFFFFFFFFFFFFFFFFFFFFFFFFFFFFFFFFFFFFFFFFFF DUP6 AND PUSH1 0x20 DUP3 ADD MSTORE PUSH2 0x2B25 JUMP JUMPDEST PUSH2 0x2C7F JUMP JUMPDEST PUSH1 0x4 PUSH1 0x40 MLOAD PUSH32 0x2520601D00000000000000000000000000000000000000000000000000000000 DUP2 MSTORE REVERT JUMPDEST POP PUSH2 0x2D32 SWAP1 PUSH2 0x2D0B PUSH2 0x2C97 PUSH2 0x19CA JUMP JUMPDEST PUSH26 0xFFFFFFFFFFFFFFFFFFFFFFFFFFFFFFFFFFFFFFFFFFFFFFFFFFFF DUP5 AND PUSH1 0x20 DUP3 ADD MSTORE PUSH2 0x2B25 JUMP JUMPDEST PUSH1 0x0 SWAP2 SWAP1 JUMP JUMPDEST DUP1 SLOAD SWAP3 SWAP4 SWAP3 DUP1 ISZERO PUSH2 0x2DE7 JUMPI PUSH2 0x2D4F PUSH2 0x2D5C SWAP2 PUSH2 0x28F3 JUMP JUMPDEST DUP3 PUSH1 0x0 MSTORE PUSH1 0x20 PUSH1 0x0 KECCAK256 ADD SWAP1 JUMP JUMPDEST SWAP2 DUP3 SLOAD SWAP3 PUSH6 0xFFFFFFFFFFFF SWAP2 DUP3 DUP6 AND SWAP3 DUP2 AND DUP1 DUP5 GT PUSH2 0x2CD1 JUMPI DUP8 SWAP4 SUB PUSH2 0x2DA0 JUMPI POP PUSH2 0x2C7F SWAP3 POP SWAP1 PUSH6 0xFFFFFFFFFFFF PUSH6 0xFFFFFFFFFFFF NOT DUP4 SLOAD SWAP3 PUSH1 0x30 SHL AND SWAP2 AND OR SWAP1 SSTORE JUMP JUMPDEST SWAP2 POP POP PUSH2 0x2CCC SWAP2 PUSH2 0x2DC0 PUSH2 0x2DB2 PUSH2 0x19CA JUMP JUMPDEST PUSH6 0xFFFFFFFFFFFF SWAP1 SWAP4 AND DUP4 MSTORE JUMP JUMPDEST PUSH26 0xFFFFFFFFFFFFFFFFFFFFFFFFFFFFFFFFFFFFFFFFFFFFFFFFFFFF DUP7 AND PUSH1 0x20 DUP4 ADD MSTORE PUSH2 0x2B96 JUMP JUMPDEST POP SWAP1 PUSH2 0x2D32 SWAP2 PUSH2 0x2DF8 PUSH2 0x2DB2 PUSH2 0x19CA JUMP JUMPDEST PUSH26 0xFFFFFFFFFFFFFFFFFFFFFFFFFFFFFFFFFFFFFFFFFFFFFFFFFFFF DUP6 AND PUSH1 0x20 DUP4 ADD MSTORE PUSH2 0x2B96 JUMP JUMPDEST SWAP1 JUMPDEST DUP3 DUP2 LT PUSH2 0x2E2D JUMPI POP POP SWAP1 JUMP JUMPDEST SWAP1 SWAP2 DUP1 DUP3 AND SWAP1 DUP1 DUP4 XOR PUSH1 0x1 SHR DUP3 ADD DUP1 SWAP3 GT PUSH2 0x713 JUMPI PUSH1 0xA PUSH1 0x0 MSTORE PUSH6 0xFFFFFFFFFFFF DUP1 DUP4 PUSH32 0xC65A7BB8D6351C1CF70C95A316CC6A92839C986682D98BC35F958F4883F9D2A8 ADD SLOAD AND SWAP1 DUP6 AND LT PUSH1 0x0 EQ PUSH2 0x2E88 JUMPI POP SWAP2 JUMPDEST SWAP1 PUSH2 0x2E21 JUMP JUMPDEST SWAP3 SWAP2 POP PUSH2 0x2E94 SWAP1 PUSH2 0x2902 JUMP JUMPDEST SWAP1 PUSH2 0x2E82 JUMP JUMPDEST SWAP1 SWAP2 JUMPDEST DUP4 DUP2 LT PUSH2 0x2EAA JUMPI POP POP POP SWAP1 JUMP JUMPDEST SWAP1 SWAP2 SWAP3 DUP1 DUP3 AND SWAP1 DUP1 DUP4 XOR PUSH1 0x1 SHR DUP3 ADD DUP1 SWAP3 GT PUSH2 0x713 JUMPI DUP2 PUSH1 0x20 PUSH1 0x0 DUP7 DUP2 MSTORE DUP3 PUSH6 0xFFFFFFFFFFFF SWAP3 DUP4 SWAP3 KECCAK256 ADD SLOAD AND SWAP1 DUP8 AND LT PUSH1 0x0 EQ PUSH2 0x2EED JUMPI POP POP SWAP3 JUMPDEST SWAP2 SWAP1 PUSH2 0x2E9D JUMP JUMPDEST SWAP1 SWAP5 SWAP3 POP PUSH2 0x2EFB SWAP2 POP PUSH2 0x2902 JUMP JUMPDEST SWAP1 PUSH2 0x2EE6 JUMP JUMPDEST PUSH1 0x1F DUP2 GT PUSH2 0x2F0D JUMPI POP POP JUMP JUMPDEST PUSH1 0x0 SWAP1 PUSH1 0xF DUP3 MSTORE PUSH32 0x8D1108E10BCB7C27DDDFC02ED9D693A074039D026CF4EA4240B40F7D581AC802 SWAP1 PUSH1 0x20 PUSH1 0x1F DUP6 ADD PUSH1 0x5 SHR DUP4 ADD SWAP5 LT PUSH2 0x2F68 JUMPI JUMPDEST PUSH1 0x1F ADD PUSH1 0x5 SHR ADD SWAP2 JUMPDEST DUP3 DUP2 LT PUSH2 0x2F5D JUMPI POP POP POP JUMP JUMPDEST DUP2 DUP2 SSTORE PUSH1 0x1 ADD PUSH2 0x2F51 JUMP JUMPDEST SWAP1 SWAP3 POP DUP3 SWAP1 PUSH2 0x2F48 JUMP JUMPDEST PUSH1 0x1F DUP2 GT PUSH2 0x2F7E JUMPI POP POP JUMP JUMPDEST PUSH1 0x0 SWAP1 PUSH1 0x10 DUP3 MSTORE PUSH32 0x1B6847DC741A1B0CD08D278845F9D819D87B734759AFB55FE2DE5CB82A9AE672 SWAP1 PUSH1 0x20 PUSH1 0x1F DUP6 ADD PUSH1 0x5 SHR DUP4 ADD SWAP5 LT PUSH2 0x2FD9 JUMPI JUMPDEST PUSH1 0x1F ADD PUSH1 0x5 SHR ADD SWAP2 JUMPDEST DUP3 DUP2 LT PUSH2 0x2FCE JUMPI POP POP POP JUMP JUMPDEST DUP2 DUP2 SSTORE PUSH1 0x1 ADD PUSH2 0x2FC2 JUMP JUMPDEST SWAP1 SWAP3 POP DUP3 SWAP1 PUSH2 0x2FB9 JUMP JUMPDEST SWAP1 PUSH1 0x1F DUP4 PUSH1 0x40 SWAP5 PUSH1 0x1F NOT SWAP4 PUSH1 0x20 DUP7 MSTORE DUP2 PUSH1 0x20 DUP8 ADD MSTORE DUP7 DUP7 ADD CALLDATACOPY PUSH1 0x0 DUP6 DUP3 DUP7 ADD ADD MSTORE ADD AND ADD ADD SWAP1 JUMP JUMPDEST SWAP1 PUSH8 0xDE0B6B3A7640000 SWAP2 DUP3 DUP2 MUL SWAP3 DUP2 DUP5 DIV EQ SWAP1 ISZERO OR ISZERO PUSH2 0x713 JUMPI JUMP JUMPDEST RETURNDATASIZE ISZERO PUSH2 0x3063 JUMPI RETURNDATASIZE SWAP1 PUSH8 0xFFFFFFFFFFFFFFFF DUP3 GT PUSH2 0xEA9 JUMPI PUSH1 0x40 MLOAD SWAP2 PUSH2 0x3057 PUSH1 0x20 PUSH1 0x1F NOT PUSH1 0x1F DUP5 ADD AND ADD DUP5 PUSH2 0x19A7 JUMP JUMPDEST DUP3 MSTORE RETURNDATASIZE PUSH1 0x0 PUSH1 0x20 DUP5 ADD RETURNDATACOPY JUMP JUMPDEST PUSH1 0x60 SWAP1 JUMP JUMPDEST PUSH1 0x1 PUSH1 0x1 PUSH1 0xA0 SHL SUB AND PUSH1 0x0 MSTORE PUSH1 0x0 PUSH1 0x20 MSTORE PUSH1 0x40 PUSH1 0x0 KECCAK256 SLOAD DUP1 ISZERO PUSH2 0x30B5 JUMPI PUSH1 0x15 SLOAD PUSH1 0x14 PUSH1 0x20 MSTORE PUSH1 0x40 PUSH1 0x0 KECCAK256 SLOAD DUP2 SUB SWAP1 DUP2 GT PUSH2 0x713 JUMPI DUP1 DUP3 MUL SWAP2 DUP3 DIV SUB PUSH2 0x713 JUMPI PUSH8 0xDE0B6B3A7640000 SWAP1 DIV SWAP1 JUMP JUMPDEST POP PUSH1 0x0 SWAP1 JUMP JUMPDEST PUSH1 0x1 PUSH1 0x1 PUSH1 0xA0 SHL SUB SWAP1 DUP2 AND SWAP3 SWAP2 DUP2 SWAP1 DUP5 ISZERO PUSH2 0x315A JUMPI JUMPDEST AND SWAP1 DUP2 ISZERO PUSH2 0x30FF JUMPI JUMPDEST PUSH2 0x19D7 SWAP4 PUSH1 0x0 MSTORE PUSH1 0x8 PUSH1 0x20 MSTORE DUP1 PUSH1 0x40 PUSH1 0x0 KECCAK256 SLOAD AND SWAP2 PUSH1 0x0 MSTORE PUSH1 0x40 PUSH1 0x0 KECCAK256 SLOAD AND SWAP1 PUSH2 0x1ACA JUMP JUMPDEST PUSH2 0x3108 DUP4 PUSH2 0x2849 JUMP JUMPDEST SWAP4 PUSH2 0x3112 NUMBER PUSH2 0x28A8 JUMP JUMPDEST PUSH26 0xFFFFFFFFFFFFFFFFFFFFFFFFFFFFFFFFFFFFFFFFFFFFFFFFFFFF SWAP6 DUP7 DUP1 PUSH2 0x3138 PUSH2 0x2A7F JUMP JUMPDEST AND SWAP2 AND SWAP1 SUB SWAP6 DUP7 GT PUSH2 0x713 JUMPI PUSH2 0x19D7 SWAP6 PUSH2 0x3151 SWAP2 PUSH2 0x2BFA JUMP JUMPDEST POP POP SWAP4 POP PUSH2 0x30DA JUMP JUMPDEST SWAP1 POP PUSH2 0x3165 DUP4 PUSH2 0x2849 JUMP JUMPDEST SWAP1 PUSH2 0x316F NUMBER PUSH2 0x28A8 JUMP JUMPDEST PUSH26 0xFFFFFFFFFFFFFFFFFFFFFFFFFFFFFFFFFFFFFFFFFFFFFFFFFFFF SWAP3 DUP4 DUP1 PUSH2 0x3195 PUSH2 0x2A7F JUMP JUMPDEST AND SWAP2 AND ADD SWAP3 DUP4 GT PUSH2 0x713 JUMPI DUP4 SWAP3 PUSH2 0x31AB SWAP2 PUSH2 0x2BFA JUMP JUMPDEST POP POP PUSH2 0x30D1 JUMP INVALID LOG1 PUSH5 0x736F6C6343 STOP ADDMOD EQ STOP EXP 0xC6 GAS PUSH28 0xB8D6351C1CF70C95A316CC6A92839C986682D98BC35F958F4883F9D2 0xA8 0xDE 0xC2 0xBA 0xCD 0xD2 CREATE JUMPDEST MSIZE 0xDE CALLVALUE 0xDA SWAP12 MSTORE RETURNDATASIZE SELFDESTRUCT DUP12 0xE4 0x2E 0x5E CODESIZE 0xE8 XOR 0xC8 0x2F 0xDB SIGNEXTEND 0xAE PUSH24 0x4387A724A164736F6C6343000814000A0000000000000000 "},"methodIdentifiers":{"BASIS_POINTS()":"e1f1c4a7","agents(uint256)":"513856c8","bondedAgentIds(uint256)":"1c18ce2e","contribute(uint256)":"c1cbbca7","contributions(uint256,address)":"3d891f59","createAgent(string,string,string,string,string,uint256,uint256,string)":"754c5e89","defaultLiquidityPercentage()":"e379dcaf","defaultTokenLPPercentage()":"bfd1769e","emergencyWithdraw()":"db2e21bc","getAgentByTokenAddress(address)":"dab7706a","getAgentInfo(uint256)":"19a6a6e9","getAllBondedTokens()":"a759c883","getCurrentAgentId()":"008c5504","getInProgressAgents()":"4dd03176","getLiquidityPool(uint256)":"a74498aa","getTotalCounts()":"045af334","inProgressAgentIds(uint256)":"c2161409","isAgentBonded(uint256)":"ba39a1c5","liquidityManager()":"33827438","owner()":"8da5cb5b","protocolFeePercentage()":"8e50e509","renounceOwnership()":"715018a6","setLiquidityManager(address)":"3c1624d4","setProtocolFeePercentage(uint256)":"d8a5e936","setTreasuryAddress(address)":"6605bfda","tokenToAgentId(address)":"9a52878a","transferOwnership(address)":"f2fde38b","treasuryAddress()":"c5f956af"}},"storageLayout":{"storage":[{"astId":8,"contract":"contracts/AgentLaunchpadCoreV2Minimal.sol:AgentLaunchpadCoreV2Minimal","label":"_owner","offset":0,"slot":"0","type":"t_address"},{"astId":2063,"contract":"contracts/AgentLaunchpadCoreV2Minimal.sol:AgentLaunchpadCoreV2Minimal","label":"_status","offset":0,"slot":"1","type":"t_uint256"},{"astId":9958,"contract":"contracts/AgentLaunchpadCoreV2Minimal.sol:AgentLaunchpadCoreV2Minimal","label":"_agentIdCounter","offset":0,"slot":"2","type":"t_uint256"},{"astId":9963,"contract":"contracts/AgentLaunchpadCoreV2Minimal.sol:AgentLaunchpadCoreV2Minimal","label":"agents","offset":0,"slot":"3","type":"t_mapping(t_uint256,t_struct(AgentConfig)9956_storage)"},{"astId":9969,"contract":"contracts/AgentLaunchpadCoreV2Minimal.sol:AgentLaunchpadCoreV2Minimal","label":"contributions","offset":0,"slot":"4","type":"t_mapping(t_uint256,t_mapping(t_address,t_uint256))"},{"astId":9972,"contract":"contracts/AgentLaunchpadCoreV2Minimal.sol:AgentLaunchpadCoreV2Minimal","label":"bondedAgentIds","offset":0,"slot":"5","type":"t_array(t_uint256)dyn_storage"},{"astId":9975,"contract":"contracts/AgentLaunchpadCoreV2Minimal.sol:AgentLaunchpadCoreV2Minimal","label":"inProgressAgentIds","offset":0,"slot":"6","type":"t_array(t_uint256)dyn_storage"},{"astId":9979,"contract":"contracts/AgentLaunchpadCoreV2Minimal.sol:AgentLaunchpadCoreV2Minimal","label":"tokenToAgentId","offset":0,"slot":"7","type":"t_mapping(t_address,t_uint256)"},{"astId":9981,"contract":"contracts/AgentLaunchpadCoreV2Minimal.sol:AgentLaunchpadCoreV2Minimal","label":"treasuryAddress","offset":0,"slot":"8","type":"t_address"},{"astId":9983,"contract":"contracts/AgentLaunchpadCoreV2Minimal.sol:AgentLaunchpadCoreV2Minimal","label":"liquidityManager","offset":0,"slot":"9","type":"t_address"},{"astId":9986,"contract":"contracts/AgentLaunchpadCoreV2Minimal.sol:AgentLaunchpadCoreV2Minimal","label":"protocolFeePercentage","offset":0,"slot":"10","type":"t_uint256"},{"astId":9992,"contract":"contracts/AgentLaunchpadCoreV2Minimal.sol:AgentLaunchpadCoreV2Minimal","label":"defaultLiquidityPercentage","offset":0,"slot":"11","type":"t_uint256"},{"astId":9995,"contract":"contracts/AgentLaunchpadCoreV2Minimal.sol:AgentLaunchpadCoreV2Minimal","label":"defaultTokenLPPercentage","offset":0,"slot":"12","type":"t_uint256"}],"types":{"t_address":{"encoding":"inplace","label":"address","numberOfBytes":"20"},"t_array(t_uint256)dyn_storage":{"base":"t_uint256","encoding":"dynamic_array","label":"uint256[]","numberOfBytes":"32"},"t_bool":{"encoding":"inplace","label":"bool","numberOfBytes":"1"},"t_mapping(t_address,t_uint256)":{"encoding":"mapping","key":"t_address","label":"mapping(address => uint256)","numberOfBytes":"32","value":"t_uint256"},"t_mapping(t_uint256,t_mapping(t_address,t_uint256))":{"encoding":"mapping","key":"t_uint256","label":"mapping(uint256 => mapping(address => uint256))","numberOfBytes":"32","value":"t_mapping(t_address,t_uint256)"},"t_mapping(t_uint256,t_struct(AgentConfig)9956_storage)":{"encoding":"mapping","key":"t_uint256","label":"mapping(uint256 => struct AgentLaunchpadCoreV2Minimal.AgentConfig)","numberOfBytes":"32","value":"t_struct(AgentConfig)9956_storage"},"t_string_storage":{"encoding":"bytes","label":"string","numberOfBytes":"32"},"t_struct(AgentConfig)9956_storage":{"encoding":"inplace","label":"struct AgentLaunchpadCoreV2Minimal.AgentConfig","members":[{"astId":9935,"contract":"contracts/AgentLaunchpadCoreV2Minimal.sol:AgentLaunchpadCoreV2Minimal","label":"name","offset":0,"slot":"0","type":"t_string_storage"},{"astId":9937,"contract":"contracts/AgentLaunchpadCoreV2Minimal.sol:AgentLaunchpadCoreV2Minimal","label":"symbol","offset":0,"slot":"1","type":"t_string_storage"},{"astId":9939,"contract":"contracts/AgentLaunchpadCoreV2Minimal.sol:AgentLaunchpadCoreV2Minimal","label":"agentName","offset":0,"slot":"2","type":"t_string_storage"},{"astId":9941,"contract":"contracts/AgentLaunchpadCoreV2Minimal.sol:AgentLaunchpadCoreV2Minimal","label":"fundingTarget","offset":0,"slot":"3","type":"t_uint256"},{"astId":9943,"contract":"contracts/AgentLaunchpadCoreV2Minimal.sol:AgentLaunchpadCoreV2Minimal","label":"tokenSupply","offset":0,"slot":"4","type":"t_uint256"},{"astId":9945,"contract":"contracts/AgentLaunchpadCoreV2Minimal.sol:AgentLaunchpadCoreV2Minimal","label":"creator","offset":0,"slot":"5","type":"t_address"},{"astId":9947,"contract":"contracts/AgentLaunchpadCoreV2Minimal.sol:AgentLaunchpadCoreV2Minimal","label":"isBonded","offset":20,"slot":"5","type":"t_bool"},{"astId":9949,"contract":"contracts/AgentLaunchpadCoreV2Minimal.sol:AgentLaunchpadCoreV2Minimal","label":"totalRaised","offset":0,"slot":"6","type":"t_uint256"},{"astId":9951,"contract":"contracts/AgentLaunchpadCoreV2Minimal.sol:AgentLaunchpadCoreV2Minimal","label":"tokenAddress","offset":0,"slot":"7","type":"t_address"},{"astId":9953,"contract":"contracts/AgentLaunchpadCoreV2Minimal.sol:AgentLaunchpadCoreV2Minimal","label":"lpPairAddress","offset":0,"slot":"8","type":"t_address"},{"astId":9955,"contract":"contracts/AgentLaunchpadCoreV2Minimal.sol:AgentLaunchpadCoreV2Minimal","label":"agentConfigJSON","offset":0,"slot":"9","type":"t_string_storage"}],"numberOfBytes":"320"},"t_uint256":{"encoding":"inplace","label":"uint256","numberOfBytes":"32"}}}}}}