{
  "_format": "hh-sol-artifact-1",
  "contractName": "AgentLaunchpadCoreV2Optimized",
  "sourceName": "contracts/AgentLaunchpadCoreV2Optimized.sol",
  "abi": [
    {
      "inputs": [
        {
          "internalType": "address",
          "name": "_treasuryAddress",
          "type": "address"
        }
      ],
      "stateMutability": "nonpayable",
      "type": "constructor"
    },
    {
      "inputs": [
        {
          "internalType": "address",
          "name": "owner",
          "type": "address"
        }
      ],
      "name": "OwnableInvalidOwner",
      "type": "error"
    },
    {
      "inputs": [
        {
          "internalType": "address",
          "name": "account",
          "type": "address"
        }
      ],
      "name": "OwnableUnauthorizedAccount",
      "type": "error"
    },
    {
      "inputs": [],
      "name": "ReentrancyGuardReentrantCall",
      "type": "error"
    },
    {
      "anonymous": false,
      "inputs": [
        {
          "indexed": true,
          "internalType": "uint256",
          "name": "agentId",
          "type": "uint256"
        },
        {
          "indexed": true,
          "internalType": "address",
          "name": "tokenAddress",
          "type": "address"
        },
        {
          "indexed": false,
          "internalType": "address",
          "name": "lpPairAddress",
          "type": "address"
        }
      ],
      "name": "AgentBonded",
      "type": "event"
    },
    {
      "anonymous": false,
      "inputs": [
        {
          "indexed": true,
          "internalType": "uint256",
          "name": "agentId",
          "type": "uint256"
        },
        {
          "indexed": true,
          "internalType": "address",
          "name": "creator",
          "type": "address"
        },
        {
          "indexed": false,
          "internalType": "address",
          "name": "tokenAddress",
          "type": "address"
        }
      ],
      "name": "AgentCreated",
      "type": "event"
    },
    {
      "anonymous": false,
      "inputs": [
        {
          "indexed": true,
          "internalType": "uint256",
          "name": "agentId",
          "type": "uint256"
        },
        {
          "indexed": true,
          "internalType": "address",
          "name": "contributor",
          "type": "address"
        },
        {
          "indexed": false,
          "internalType": "uint256",
          "name": "amount",
          "type": "uint256"
        }
      ],
      "name": "Contributed",
      "type": "event"
    },
    {
      "anonymous": false,
      "inputs": [
        {
          "indexed": true,
          "internalType": "address",
          "name": "previousOwner",
          "type": "address"
        },
        {
          "indexed": true,
          "internalType": "address",
          "name": "newOwner",
          "type": "address"
        }
      ],
      "name": "OwnershipTransferred",
      "type": "event"
    },
    {
      "inputs": [],
      "name": "BASIS_POINTS",
      "outputs": [
        {
          "internalType": "uint256",
          "name": "",
          "type": "uint256"
        }
      ],
      "stateMutability": "view",
      "type": "function"
    },
    {
      "inputs": [
        {
          "internalType": "uint256",
          "name": "",
          "type": "uint256"
        }
      ],
      "name": "agents",
      "outputs": [
        {
          "internalType": "string",
          "name": "name",
          "type": "string"
        },
        {
          "internalType": "string",
          "name": "symbol",
          "type": "string"
        },
        {
          "internalType": "string",
          "name": "agentName",
          "type": "string"
        },
        {
          "internalType": "uint256",
          "name": "fundingTarget",
          "type": "uint256"
        },
        {
          "internalType": "uint256",
          "name": "tokenSupply",
          "type": "uint256"
        },
        {
          "internalType": "address",
          "name": "creator",
          "type": "address"
        },
        {
          "internalType": "bool",
          "name": "isBonded",
          "type": "bool"
        },
        {
          "internalType": "uint256",
          "name": "totalRaised",
          "type": "uint256"
        },
        {
          "internalType": "address",
          "name": "tokenAddress",
          "type": "address"
        },
        {
          "internalType": "address",
          "name": "lpPairAddress",
          "type": "address"
        },
        {
          "internalType": "string",
          "name": "agentConfigJSON",
          "type": "string"
        },
        {
          "internalType": "uint256",
          "name": "createdAt",
          "type": "uint256"
        },
        {
          "internalType": "uint256",
          "name": "bondedAt",
          "type": "uint256"
        }
      ],
      "stateMutability": "view",
      "type": "function"
    },
    {
      "inputs": [
        {
          "internalType": "uint256",
          "name": "",
          "type": "uint256"
        }
      ],
      "name": "bondedAgentIds",
      "outputs": [
        {
          "internalType": "uint256",
          "name": "",
          "type": "uint256"
        }
      ],
      "stateMutability": "view",
      "type": "function"
    },
    {
      "inputs": [
        {
          "internalType": "uint256",
          "name": "agentId",
          "type": "uint256"
        }
      ],
      "name": "contribute",
      "outputs": [],
      "stateMutability": "payable",
      "type": "function"
    },
    {
      "inputs": [
        {
          "internalType": "uint256",
          "name": "",
          "type": "uint256"
        },
        {
          "internalType": "address",
          "name": "",
          "type": "address"
        }
      ],
      "name": "contributions",
      "outputs": [
        {
          "internalType": "uint256",
          "name": "",
          "type": "uint256"
        }
      ],
      "stateMutability": "view",
      "type": "function"
    },
    {
      "inputs": [
        {
          "internalType": "string",
          "name": "name",
          "type": "string"
        },
        {
          "internalType": "string",
          "name": "symbol",
          "type": "string"
        },
        {
          "internalType": "string",
          "name": "agentName",
          "type": "string"
        },
        {
          "internalType": "string",
          "name": "archetype",
          "type": "string"
        },
        {
          "internalType": "string",
          "name": "metadataURI",
          "type": "string"
        },
        {
          "internalType": "uint256",
          "name": "fundingTarget",
          "type": "uint256"
        },
        {
          "internalType": "uint256",
          "name": "tokenSupply",
          "type": "uint256"
        },
        {
          "internalType": "string",
          "name": "agentConfigJSON",
          "type": "string"
        }
      ],
      "name": "createAgent",
      "outputs": [
        {
          "internalType": "uint256",
          "name": "agentId",
          "type": "uint256"
        }
      ],
      "stateMutability": "nonpayable",
      "type": "function"
    },
    {
      "inputs": [],
      "name": "defaultLiquidityPercentage",
      "outputs": [
        {
          "internalType": "uint256",
          "name": "",
          "type": "uint256"
        }
      ],
      "stateMutability": "view",
      "type": "function"
    },
    {
      "inputs": [],
      "name": "defaultTokenLPPercentage",
      "outputs": [
        {
          "internalType": "uint256",
          "name": "",
          "type": "uint256"
        }
      ],
      "stateMutability": "view",
      "type": "function"
    },
    {
      "inputs": [],
      "name": "emergencyWithdraw",
      "outputs": [],
      "stateMutability": "nonpayable",
      "type": "function"
    },
    {
      "inputs": [
        {
          "internalType": "address",
          "name": "tokenAddress",
          "type": "address"
        }
      ],
      "name": "getAgentByTokenAddress",
      "outputs": [
        {
          "internalType": "uint256",
          "name": "",
          "type": "uint256"
        }
      ],
      "stateMutability": "view",
      "type": "function"
    },
    {
      "inputs": [
        {
          "internalType": "uint256",
          "name": "agentId",
          "type": "uint256"
        }
      ],
      "name": "getAgentInfo",
      "outputs": [
        {
          "internalType": "string",
          "name": "name",
          "type": "string"
        },
        {
          "internalType": "string",
          "name": "agentName",
          "type": "string"
        },
        {
          "internalType": "uint256",
          "name": "fundingTarget",
          "type": "uint256"
        },
        {
          "internalType": "uint256",
          "name": "totalRaised",
          "type": "uint256"
        },
        {
          "internalType": "bool",
          "name": "isBonded",
          "type": "bool"
        },
        {
          "internalType": "address",
          "name": "creator",
          "type": "address"
        },
        {
          "internalType": "address",
          "name": "tokenAddress",
          "type": "address"
        },
        {
          "internalType": "address",
          "name": "lpPairAddress",
          "type": "address"
        },
        {
          "internalType": "string",
          "name": "agentConfigJSON",
          "type": "string"
        }
      ],
      "stateMutability": "view",
      "type": "function"
    },
    {
      "inputs": [],
      "name": "getAllBondedTokens",
      "outputs": [
        {
          "internalType": "address[]",
          "name": "tokenAddresses",
          "type": "address[]"
        },
        {
          "internalType": "string[]",
          "name": "names",
          "type": "string[]"
        },
        {
          "internalType": "string[]",
          "name": "symbols",
          "type": "string[]"
        },
        {
          "internalType": "address[]",
          "name": "lpPairs",
          "type": "address[]"
        },
        {
          "internalType": "uint256[]",
          "name": "agentIds",
          "type": "uint256[]"
        }
      ],
      "stateMutability": "view",
      "type": "function"
    },
    {
      "inputs": [],
      "name": "getCurrentAgentId",
      "outputs": [
        {
          "internalType": "uint256",
          "name": "",
          "type": "uint256"
        }
      ],
      "stateMutability": "view",
      "type": "function"
    },
    {
      "inputs": [],
      "name": "getInProgressAgents",
      "outputs": [
        {
          "internalType": "uint256[]",
          "name": "agentIds",
          "type": "uint256[]"
        },
        {
          "internalType": "string[]",
          "name": "agentNames",
          "type": "string[]"
        },
        {
          "internalType": "uint256[]",
          "name": "fundingTargets",
          "type": "uint256[]"
        },
        {
          "internalType": "uint256[]",
          "name": "totalRaised",
          "type": "uint256[]"
        },
        {
          "internalType": "uint256[]",
          "name": "fundingProgress",
          "type": "uint256[]"
        },
        {
          "internalType": "address[]",
          "name": "tokenAddresses",
          "type": "address[]"
        }
      ],
      "stateMutability": "view",
      "type": "function"
    },
    {
      "inputs": [
        {
          "internalType": "uint256",
          "name": "agentId",
          "type": "uint256"
        }
      ],
      "name": "getLiquidityPool",
      "outputs": [
        {
          "internalType": "address",
          "name": "",
          "type": "address"
        }
      ],
      "stateMutability": "view",
      "type": "function"
    },
    {
      "inputs": [],
      "name": "getTotalCounts",
      "outputs": [
        {
          "internalType": "uint256",
          "name": "totalAgents",
          "type": "uint256"
        },
        {
          "internalType": "uint256",
          "name": "bondedAgents",
          "type": "uint256"
        },
        {
          "internalType": "uint256",
          "name": "inProgressAgents",
          "type": "uint256"
        }
      ],
      "stateMutability": "view",
      "type": "function"
    },
    {
      "inputs": [
        {
          "internalType": "uint256",
          "name": "",
          "type": "uint256"
        }
      ],
      "name": "inProgressAgentIds",
      "outputs": [
        {
          "internalType": "uint256",
          "name": "",
          "type": "uint256"
        }
      ],
      "stateMutability": "view",
      "type": "function"
    },
    {
      "inputs": [
        {
          "internalType": "uint256",
          "name": "agentId",
          "type": "uint256"
        }
      ],
      "name": "isAgentBonded",
      "outputs": [
        {
          "internalType": "bool",
          "name": "",
          "type": "bool"
        }
      ],
      "stateMutability": "view",
      "type": "function"
    },
    {
      "inputs": [],
      "name": "liquidityManager",
      "outputs": [
        {
          "internalType": "address",
          "name": "",
          "type": "address"
        }
      ],
      "stateMutability": "view",
      "type": "function"
    },
    {
      "inputs": [],
      "name": "owner",
      "outputs": [
        {
          "internalType": "address",
          "name": "",
          "type": "address"
        }
      ],
      "stateMutability": "view",
      "type": "function"
    },
    {
      "inputs": [],
      "name": "protocolFeePercentage",
      "outputs": [
        {
          "internalType": "uint256",
          "name": "",
          "type": "uint256"
        }
      ],
      "stateMutability": "view",
      "type": "function"
    },
    {
      "inputs": [],
      "name": "renounceOwnership",
      "outputs": [],
      "stateMutability": "nonpayable",
      "type": "function"
    },
    {
      "inputs": [
        {
          "internalType": "address",
          "name": "_liquidityManager",
          "type": "address"
        }
      ],
      "name": "setLiquidityManager",
      "outputs": [],
      "stateMutability": "nonpayable",
      "type": "function"
    },
    {
      "inputs": [
        {
          "internalType": "uint256",
          "name": "_feePercentage",
          "type": "uint256"
        }
      ],
      "name": "setProtocolFeePercentage",
      "outputs": [],
      "stateMutability": "nonpayable",
      "type": "function"
    },
    {
      "inputs": [
        {
          "internalType": "address",
          "name": "_treasuryAddress",
          "type": "address"
        }
      ],
      "name": "setTreasuryAddress",
      "outputs": [],
      "stateMutability": "nonpayable",
      "type": "function"
    },
    {
      "inputs": [
        {
          "internalType": "address",
          "name": "",
          "type": "address"
        }
      ],
      "name": "tokenToAgentId",
      "outputs": [
        {
          "internalType": "uint256",
          "name": "",
          "type": "uint256"
        }
      ],
      "stateMutability": "view",
      "type": "function"
    },
    {
      "inputs": [
        {
          "internalType": "address",
          "name": "newOwner",
          "type": "address"
        }
      ],
      "name": "transferOwnership",
      "outputs": [],
      "stateMutability": "nonpayable",
      "type": "function"
    },
    {
      "inputs": [],
      "name": "treasuryAddress",
      "outputs": [
        {
          "internalType": "address",
          "name": "",
          "type": "address"
        }
      ],
      "stateMutability": "view",
      "type": "function"
    },
    {
      "stateMutability": "payable",
      "type": "receive"
    }
  ],
  "bytecode": "0x60803461011d57601f62006ea038819003918201601f19168301916001600160401b038311848410176101225780849260209460405283398101031261011d57516001600160a01b038082169182900361011d573315610104576000549060018060a01b0319913383821617600055604051913391167f8be0079c531659141344cd1fd0a4f28419497f9722a3daafe3b4186f6b6457e0600080a36001805561012c600a55611f40600b55612328600c5582156100cf57506008541617600855604051616d679081620001398239f35b62461bcd60e51b815260206004820152601060248201526f496e76616c696420747265617375727960801b6044820152606490fd5b604051631e4fbdf760e01b815260006004820152602490fd5b600080fd5b634e487b7160e01b600052604160045260246000fdfe60808060405260043610156200001f575b5036156200001d57600080fd5b005b60003560e01c9081628c55041462001eed57508063045af3341462001ebc57806319a6a6e91462001d9b5780631c18ce2e1462001d6d578063338274381462001d445780633c1624d41462001ce65780633d891f591462001c975780634dd031761462001a84578063513856c814620019115780636605bfda1462001868578063715018a614620017f3578063754c5e891462000e895780638da5cb5b1462000e605780638e50e5091462000e405780639a52878a14620002d5578063a74498aa1462000e06578063a759c8831462000c68578063ba39a1c51462000c2f578063bfd1769e1462000c0f578063c1cbbca714620003eb578063c216140914620003af578063c5f956af1462000386578063d8a5e9361462000313578063dab7706a14620002d5578063db2e21bc146200027e578063e1f1c4a7146200025f578063e379dcaf146200023f5763f2fde38b146200017c573862000010565b346200023a5760206003193601126200023a576200019962001feb565b620001a36200223f565b6001600160a01b038091169081156200020957600054827fffffffffffffffffffffffff0000000000000000000000000000000000000000821617600055167f8be0079c531659141344cd1fd0a4f28419497f9722a3daafe3b4186f6b6457e0600080a3005b60246040517f1e4fbdf700000000000000000000000000000000000000000000000000000000815260006004820152fd5b600080fd5b346200023a5760006003193601126200023a576020600b54604051908152f35b346200023a5760006003193601126200023a5760206040516127108152f35b346200023a5760006003193601126200023a576200029b6200223f565b60008080806001600160a01b038154164790828215620002cb575bf115620002bf57005b6040513d6000823e3d90fd5b506108fc620002b6565b346200023a5760206003193601126200023a576001600160a01b03620002fa62001feb565b1660005260076020526020604060002054604051908152f35b346200023a5760206003193601126200023a57600435620003336200223f565b6103e881116200034257600a55005b606460405162461bcd60e51b815260206004820152600860248201527f546f6f20686967680000000000000000000000000000000000000000000000006044820152fd5b346200023a5760006003193601126200023a5760206001600160a01b0360085416604051908152f35b346200023a5760206003193601126200023a576004356006548110156200023a57620003dd60209162001fb3565b90546040519160031b1c8152f35b6020806003193601126200023a5760043590600190600282541462000be557600282558260005260039283825260406000209360058501549260ff6001600160a01b03946200043e868216151562002300565b60a01c1662000ba157341562000b5d57600680870183620004613483546200234c565b98019788541062000b19578697856000526004845260406000203360005284526040600020620004933482546200234c565b9055620004a23483546200234c565b809255604051348152867fb2ed2e021651f85a4754a44651fc09ac5141bc0329ce4dfe8dd712a5d04a8b39863393a3541115620004de57858055005b836000528282526200053a6040600020938285015492612710938462000507600a54836200235a565b04938162000534876200052a620005208980976200236e565b600b54906200235a565b049687926200236e565b6200236e565b926005880192740100000000000000000000000000000000000000007fffffffffffffffffffffff00ffffffffffffffffffffffffffffffffffffffff85541617845542600b8a01558b6000905b62000a0b575b5050509091929394959697985060055468010000000000000000811015620009dc5788620005c6828d620005de940160055562001f4c565b90919060001983549160031b92831b921b1916179055565b80158015620009ae575b50508782159182156200097f575b50505050600091866009541615158062000975575b15620008ad576004850191620006878354926200062b600c54856200235a565b04916007880190878b835416958c6009541660405195869283927f095ea7b300000000000000000000000000000000000000000000000000000000845260048401602090939291936001600160a01b0360408201951681520152565b03816000895af1918215620002bf578b9389936200088b575b508a8480600954169254169260405196879485937fa8f0ad450000000000000000000000000000000000000000000000000000000085526004850152602484015260448301526080606483015281620007018d60096084840191016200212d565b03925af16000928162000848575b50620007ea5760085493546040517fa9059cbb0000000000000000000000000000000000000000000000000000000081526001600160a01b03929095169190911660048501526024840152508390829060449082906000905af18015620002bf577f6fb060de3018a5bab77159e4ff4939deb91858ddb2995fb7bc9cdac6552fa328948792600792620007b6575b505b0154169460405191168152a3808280808080858055005b620007da90863d8811620007e2575b620007d18183620021ea565b8101906200237c565b50896200079d565b503d620007c5565b925092505060077f6fb060de3018a5bab77159e4ff4939deb91858ddb2995fb7bc9cdac6552fa3289483836008830191167fffffffffffffffffffffffff00000000000000000000000000000000000000008254161790556200079f565b87809294508193503d831162000883575b620008658183620021ea565b810103126200023a575188811681036200023a578890918b6200070f565b503d62000859565b620008a590843d8611620007e257620007d18183620021ea565b508d620006a0565b505062000914828660078601541687600854169060048701549160006040518096819582947fa9059cbb00000000000000000000000000000000000000000000000000000000845260048401602090939291936001600160a01b0360408201951681520152565b03925af18015620002bf577f6fb060de3018a5bab77159e4ff4939deb91858ddb2995fb7bc9cdac6552fa32894879260079262000953575b506200079f565b6200096d90863d8811620007e257620007d18183620021ea565b50896200094c565b508115156200060b565b6000938493849384935416908390620009a4575bf115620002bf5787808781620005f6565b506108fc62000993565b600080809381938d60085416908390620009d2575bf115620002bf578980620005e8565b506108fc620009c3565b7f4e487b7100000000000000000000000000000000000000000000000000000000600052604160045260246000fd5b81548082101562000b12578b62000a228362001fb3565b905490861b1c1462000a41575062000a3a9062002284565b8c62000588565b909192939495969798999a9b9c506000199182820191821162000ae357620005c662000a7162000a7e9362001fb3565b905490871b1c9162001fb3565b8154801562000ab45781019262000a958462001fb3565b81939154921b1b1916905555908998979695949392918b80806200058e565b7f4e487b7100000000000000000000000000000000000000000000000000000000600052603160045260246000fd5b7f4e487b7100000000000000000000000000000000000000000000000000000000600052601160045260246000fd5b506200058e565b6064836040519062461bcd60e51b82526004820152600760248201527f45786365656473000000000000000000000000000000000000000000000000006044820152fd5b6064906040519062461bcd60e51b82526004820152600860248201527f4e6f2076616c75650000000000000000000000000000000000000000000000006044820152fd5b6064906040519062461bcd60e51b82526004820152600660248201527f426f6e64656400000000000000000000000000000000000000000000000000006044820152fd5b60046040517f3ee5aeb5000000000000000000000000000000000000000000000000000000008152fd5b346200023a5760006003193601126200023a576020600c54604051908152f35b346200023a5760206003193601126200023a576004356000526003602052602060ff60056040600020015460a01c166040519015158152f35b346200023a5760006003193601126200023a5760055462000c8981620023af565b9062000c9581620023e6565b62000ca082620023e6565b62000cab83620023af565b9162000cb784620023af565b9360005b81811062000d315762000cf18762000d2d8862000d1e8962000d0f8a62000d008b604051998a9960a08b5260a08b019062002098565b9089820360208b015262002038565b90878203604089015262002038565b90858203606087015262002098565b90838203608085015262002002565b0390f35b8062000d4162000e009262001f4c565b9054600391821b1c9081600052602052604060002060086001600160a01b03918b62000d7586856007850154169262002437565b5260405162000d928162000d8a81856200212d565b0382620021ea565b62000d9e868a62002437565b5262000dab858962002437565b5060405162000dc38162000d8a81600186016200212d565b62000dcf868b62002437565b5262000ddc858a62002437565b5001541662000dec838962002437565b5262000df9828962002437565b5262002284565b62000cbb565b346200023a5760206003193601126200023a57600435600052600360205260206001600160a01b0360086040600020015416604051908152f35b346200023a5760006003193601126200023a576020600a54604051908152f35b346200023a5760006003193601126200023a5760206001600160a01b0360005416604051908152f35b346200023a576101006003193601126200023a5760043567ffffffffffffffff81116200023a5762000ec09036906004016200220e565b60243567ffffffffffffffff81116200023a5762000ee39036906004016200220e565b60443567ffffffffffffffff81116200023a5762000f069036906004016200220e565b60649491943567ffffffffffffffff81116200023a5762000f2c9036906004016200220e565b92909560843567ffffffffffffffff81116200023a5762000f529036906004016200220e565b939060e43567ffffffffffffffff81116200023a5762000f779036906004016200220e565b95909660a435151580620017e7575b15620017a3576002549a62000f9b8c62002284565b600255604051938461490e81011067ffffffffffffffff61490e87011117620009dc578493620010458f9362001083958f8f6200102e9162001016918f6200105c9a62000ffe916101008f61490e6200244d823961490e01818152019162002294565b918c602061490e820185039161490e01015262002294565b61490e8a018103604061490e8c0101528b8d62002294565b9161490e89018303606061490e8b01015262002294565b9161490e86018303608061490e8801015262002294565b60c43561490e840160a08101919091523060c082015280820360e090910152878962002294565b03906000f0988915620002bf5760405197886101a081011067ffffffffffffffff6101a08b011117620009dc576200113397620010d3620010dd93620010ea976101a08d016040523691620022b5565b8a523691620022b5565b60208801523691620022b5565b604085015260a435606085015260c43560808501523360a0850152600060c0850152600060e08501526001600160a01b03861661010085015260006101208501523691620022b5565b610140820152426101608201526000610180820152816000526003602052604060002090805180519067ffffffffffffffff8211620009dc5781906200117a8554620020d7565b601f81116200174e575b50602090601f8311600114620016dd57600092620016d1575b50506000198260011b9260031b1c19161782555b602081015180519067ffffffffffffffff8211620009dc578190620011da6001860154620020d7565b601f811162001679575b50602090601f83116001146200160257600092620015f6575b50506000198260011b9260031b1c19161760018301555b604081015180519067ffffffffffffffff8211620009dc5781906200123d6002860154620020d7565b601f81116200159e575b50602090601f831160011462001527576000926200151b575b50506000198260011b9260031b1c19161760028301555b6060810151600383015560808101516004830155600582016001600160a01b0360a0830151168154907fffffffffffffffffffffff00000000000000000000000000000000000000000074ff000000000000000000000000000000000000000060c0860151151560a01b1692161717905560e08101516006830155600782016001600160a01b0361010083015116907fffffffffffffffffffffffff0000000000000000000000000000000000000000918282541617905560088301906001600160a01b03610120840151169082541617905561014081015180519067ffffffffffffffff8211620009dc57620013726009850154620020d7565b601f8111620014cf575b50602090601f831160011462001456579180600b9492610180946000926200144a575b50506000198260011b9260031b1c19161760098501555b610160810151600a85015501519101556006549168010000000000000000831015620009dc57620013f582620005c68560016020970160065562001fb3565b6001600160a01b03811660005260078352816040600020556001600160a01b0360405191168152817fe5e423600cef64b5f4620e0388d75415036da0de388da33d376934be9b0bd392843393a3604051908152f35b0151905088806200139f565b90601f198316916009860160005260206000209260005b818110620014b6575092600192859261018096600b9896106200149c575b505050811b016009850155620013b6565b015160001960f88460031b161c191690558880806200148b565b929360206001819287860151815501950193016200146d565b600985016000526020600020601f840160051c81016020851062001513575b601f830160051c82018110620015065750506200137c565b60008155600101620014ee565b5080620014ee565b01519050868062001260565b9250600285016000526020600020906000935b601f198416851062001582576001945083601f1981161062001568575b505050811b01600283015562001277565b015160001960f88460031b161c1916905586808062001557565b818101518355602094850194600190930192909101906200153a565b909150600285016000526020600020601f840160051c810160208510620015ee575b90849392915b601f830160051c82018110620015de57505062001247565b60008155859450600101620015c6565b5080620015c0565b015190508680620011fd565b9250600185016000526020600020906000935b601f19841685106200165d576001945083601f1981161062001643575b505050811b01600183015562001214565b015160001960f88460031b161c1916905586808062001632565b8181015183556020948501946001909301929091019062001615565b909150600185016000526020600020601f840160051c810160208510620016c9575b90849392915b601f830160051c82018110620016b9575050620011e4565b60008155859450600101620016a1565b50806200169b565b0151905086806200119d565b9250846000526020600020906000935b601f198416851062001732576001945083601f1981161062001718575b505050811b018255620011b1565b015160001960f88460031b161c191690558680806200170a565b81810151835560209485019460019093019290910190620016ed565b909150846000526020600020601f840160051c8101602085106200179b575b90849392915b601f830160051c820181106200178b57505062001184565b6000815585945060010162001773565b50806200176d565b606460405162461bcd60e51b815260206004820152600e60248201527f496e76616c696420706172616d730000000000000000000000000000000000006044820152fd5b5060c435151562000f86565b346200023a5760006003193601126200023a57620018106200223f565b60006001600160a01b0381547fffffffffffffffffffffffff000000000000000000000000000000000000000081168355167f8be0079c531659141344cd1fd0a4f28419497f9722a3daafe3b4186f6b6457e08280a3005b346200023a5760206003193601126200023a576001600160a01b036200188d62001feb565b620018976200223f565b168015620018cd577fffffffffffffffffffffffff00000000000000000000000000000000000000006008541617600855600080f35b606460405162461bcd60e51b815260206004820152600760248201527f496e76616c6964000000000000000000000000000000000000000000000000006044820152fd5b346200023a5760206003193601126200023a5760043560005260036020526040600020604051806200194481846200212d565b03620019519082620021ea565b60405191826200196581600184016200212d565b03620019729084620021ea565b604051806200198581600285016200212d565b03620019929082620021ea565b600382015460048301549060058401546006850154906001600160a01b03918260078801541691836008890154169360405196878060098c0190620019d7916200212d565b03620019e49089620021ea565b600a8a015499600b0154986040519c8d9c8d6101a0908181520162001a099162001f0a565b8d810360208f015262001a1c9162001f0a565b8c810360408e015262001a2f9162001f0a565b9660608c015260808b0152811660a08a015260a01c60ff16151560c089015260e088015261010087015261012086015284810361014086015262001a739162001f0a565b916101608401526101808301520390f35b346200023a5760006003193601126200023a57600680549062001aa782620023af565b9062001ab383620023e6565b62001abe84620023af565b62001ac985620023af565b9162001ad586620023af565b9562001ae181620023af565b9460005b82811062001b6b5762001b208862000d2d8962001b5c8d62001b4d8c62001b3e8d62001b2f8e6040519b8c9b60c08d5260c08d019062002002565b908b820360208d015262002038565b9089820360408b015262002002565b90878203606089015262002002565b90858203608087015262002002565b9083820360a085015262002098565b62001b768162001fb3565b919054600392831b1c91826000528060205260406000209262001b9a838c62002437565b5260405162001bb28162000d8a81600288016200212d565b62001bbe838862002437565b5262001bcb828762002437565b508201548062001bdc838962002437565b5283830154908162001bef848b62002437565b5280158062001c76576127109283810293818504149015171562000ae35762001c475762001c41938c62001c31856007946001600160a01b0396049262002437565b5201541662000df9828a62002437565b62001ae5565b7f4e487b7100000000000000000000000000000000000000000000000000000000600052601260045260246000fd5b5050506001600160a01b03600762001c41938c62001c318560009262002437565b346200023a5760406003193601126200023a576024356001600160a01b0381168091036200023a5760043560005260046020526040600020906000526020526020604060002054604051908152f35b346200023a5760206003193601126200023a576001600160a01b0362001d0b62001feb565b62001d156200223f565b167fffffffffffffffffffffffff00000000000000000000000000000000000000006009541617600955600080f35b346200023a5760006003193601126200023a5760206001600160a01b0360095416604051908152f35b346200023a5760206003193601126200023a576004356005548110156200023a57620003dd60209162001f4c565b346200023a5760206003193601126200023a57600435600052600360205262001e79604060002062000d2d600582015460096001600160a01b03918281169262001de784151562002300565b60038601549360ff6006880154938360078a0154169360088a0154169462001e886040519a62001e258c62001e1d81846200212d565b038d620021ea565b62001e636040519162001e498362001e4181600285016200212d565b0384620021ea565b62001e5b604051809c8193016200212d565b038a620021ea565b6040519c8d9c8d61012090818152019062001f0a565b8c810360208e01529062001f0a565b9760408b015260608a015260a01c161515608088015260a087015260c086015260e085015283820361010085015262001f0a565b346200023a5760006003193601126200023a5760606002546005546006549060405192835260208301526040820152f35b346200023a5760006003193601126200023a576020906002548152f35b919082519283825260005b84811062001f37575050601f19601f8460006020809697860101520116010190565b60208183018101518483018201520162001f15565b60055481101562001f845760056000527f036b6384b5eca791c62761152d0c79bb0604c104a5fb6f4eb0703f3154bb3db00190600090565b7f4e487b7100000000000000000000000000000000000000000000000000000000600052603260045260246000fd5b60065481101562001f845760066000527ff652222313e28459528d920b65115c16c04f3efc82aaedc97be59f3f377c0d3f0190600090565b600435906001600160a01b03821682036200023a57565b90815180825260208080930193019160005b82811062002023575050505090565b83518552938101939281019260010162002014565b908082519081815260208091019281808460051b8301019501936000915b848310620020675750505050505090565b90919293949584806200208783601f1986600196030187528a5162001f0a565b980193019301919493929062002056565b90815180825260208080930193019160005b828110620020b9575050505090565b83516001600160a01b031685529381019392810192600101620020aa565b90600182811c9216801562002122575b6020831014620020f357565b7f4e487b7100000000000000000000000000000000000000000000000000000000600052602260045260246000fd5b91607f1691620020e7565b90600092918054916200214083620020d7565b918282526001938481169081600014620021a7575060011462002164575b50505050565b90919394506000526020928360002092846000945b838610620021925750505050010190388080806200215e565b80548587018301529401938590820162002179565b91505060209495507fffffffffffffffffffffffffffffffffffffffffffffffffffffffffffffff009193501683830152151560051b010190388080806200215e565b90601f601f19910116810190811067ffffffffffffffff821117620009dc57604052565b9181601f840112156200023a5782359167ffffffffffffffff83116200023a57602083818601950101116200023a57565b6001600160a01b036000541633036200225457565b60246040517f118cdaa7000000000000000000000000000000000000000000000000000000008152336004820152fd5b600019811462000ae35760010190565b601f8260209493601f19938186528686013760008582860101520116010190565b92919267ffffffffffffffff8211620009dc5760405191620022e26020601f19601f8401160184620021ea565b8294818452818301116200023a578281602093846000960137010152565b156200230857565b606460405162461bcd60e51b815260206004820152600960248201527f4e6f7420666f756e6400000000000000000000000000000000000000000000006044820152fd5b9190820180921162000ae357565b8181029291811591840414171562000ae357565b9190820391821162000ae357565b908160209103126200023a575180151581036200023a5790565b67ffffffffffffffff8111620009dc5760051b60200190565b90620023bb8262002396565b620023ca6040519182620021ea565b828152601f19620023dc829462002396565b0190602036910137565b90620023f28262002396565b620024016040519182620021ea565b828152601f1962002413829462002396565b019060005b8281106200242557505050565b80606060208093850101520162002418565b805182101562001f845760209160051b01019056fe610160806040523462000142576200490e90813803809262000021826200015d565b823981810190610100809312620001425780516001600160401b03929083811162000142578162000054918401620001db565b91610180518481116200014257826200006f918301620001db565b6101a05185811162000142578362000089918401620001db565b6101c051868111620001425784620000a3918501620001db565b906101e051878111620001425785620000be918601620001db565b926102005194620000ce62000241565b9661024051998a116200014257620000f399620000ec9201620001db565b9662000a1d565b6040516131bf91826200170f83396080518261255c015260a05182612617015260c0518261252d015260e051826125ab015251816125d101526101205181610f5101526101405181610f7a0152f35b600080fd5b634e487b7160e01b600052604160045260246000fd5b601f01601f1916610160908101906001600160401b038211908210176200018357604052565b62000147565b604081019081106001600160401b038211176200018357604052565b60405190620001b48262000189565b565b60005b838110620001ca5750506000910152565b8181015183820152602001620001b9565b81601f82011215620001425780516001600160401b0392838211620001835760405193601f8301601f19908116603f011685019081118582101762000183576040528184526020828401011162000142576200023e9160208085019101620001b6565b90565b61022051906001600160a01b03821682036200014257565b90600182811c921680156200028b575b60208310146200027557565b634e487b7160e01b600052602260045260246000fd5b91607f169162000269565b601f8111620002a3575050565b6000906003825260208220906020601f850160051c83019410620002e4575b601f0160051c01915b828110620002d857505050565b818155600101620002cb565b9092508290620002c2565b601f8111620002fc575050565b6000906004825260208220906020601f850160051c830194106200033d575b601f0160051c01915b8281106200033157505050565b81815560010162000324565b90925082906200031b565b601f811162000355575050565b600090600d825260208220906020601f850160051c8301941062000396575b601f0160051c01915b8281106200038a57505050565b8181556001016200037d565b909250829062000374565b601f8111620003ae575050565b600090600e825260208220906020601f850160051c83019410620003ef575b601f0160051c01915b828110620003e357505050565b818155600101620003d6565b9092508290620003cd565b601f811162000407575050565b600090600f825260208220906020601f850160051c8301941062000448575b601f0160051c01915b8281106200043c57505050565b8181556001016200042f565b909250829062000426565b601f811162000460575050565b6000906010825260208220906020601f850160051c83019410620004a1575b601f0160051c01915b8281106200049557505050565b81815560010162000488565b90925082906200047f565b601f8111620004b9575050565b6000906005825260208220906020601f850160051c83019410620004fa575b601f0160051c01915b828110620004ee57505050565b818155600101620004e1565b9092508290620004d8565b601f811162000512575050565b6000906006825260208220906020601f850160051c8301941062000553575b601f0160051c01915b8281106200054757505050565b8181556001016200053a565b909250829062000531565b80519091906001600160401b03811162000183576200058a816200058460045462000259565b620002ef565b602080601f8311600114620005c95750819293600092620005bd575b50508160011b916000199060031b1c191617600455565b015190503880620005a6565b6004600052601f198316949091907f8a35acfbc15ff81a39ae7d344fd709f28e8600b4aa8c65c6b64bfe7fe36bd19b926000905b878210620006385750508360019596106200061e575b505050811b01600455565b015160001960f88460031b161c1916905538808062000613565b80600185968294968601518155019501930190620005fd565b80519091906001600160401b03811162000183576200067d8162000677600d5462000259565b62000348565b602080601f8311600114620006bc5750819293600092620006b0575b50508160011b916000199060031b1c191617600d55565b01519050388062000699565b600d600052601f198316949091907fd7b6990105719101dabeb77144f2a3385c8033acd3af97e9423a695e81ad1eb5926000905b8782106200072b57505083600195961062000711575b505050811b01600d55565b015160001960f88460031b161c1916905538808062000706565b80600185968294968601518155019501930190620006f0565b80519091906001600160401b038111620001835762000770816200076a600e5462000259565b620003a1565b602080601f8311600114620007af5750819293600092620007a3575b50508160011b916000199060031b1c191617600e55565b0151905038806200078c565b600e600052601f198316949091907fbb7b4a454dc3493923482f07822329ed19e8244eff582cc204f8554c3620c3fd926000905b8782106200081e57505083600195961062000804575b505050811b01600e55565b015160001960f88460031b161c19169055388080620007f9565b80600185968294968601518155019501930190620007e3565b80519091906001600160401b038111620001835762000863816200085d600f5462000259565b620003fa565b602080601f8311600114620008a2575081929360009262000896575b50508160011b916000199060031b1c191617600f55565b0151905038806200087f565b600f600052601f198316949091907f8d1108e10bcb7c27dddfc02ed9d693a074039d026cf4ea4240b40f7d581ac802926000905b87821062000911575050836001959610620008f7575b505050811b01600f55565b015160001960f88460031b161c19169055388080620008ec565b80600185968294968601518155019501930190620008d6565b80519091906001600160401b038111620001835762000956816200095060105462000259565b62000453565b602080601f831160011462000995575081929360009262000989575b50508160011b916000199060031b1c191617601055565b01519050388062000972565b6010600052601f198316949091907f1b6847dc741a1b0cd08d278845f9d819d87b734759afb55fe2de5cb82a9ae672926000905b87821062000a04575050836001959610620009ea575b505050811b01601055565b015160001960f88460031b161c19169055388080620009df565b80600185968294968601518155019501930190620009c9565b969192969493946040519062000a338262000189565b600180835260209081840194603160f81b8652835160018060401b038111620001835762000a6e8162000a6860035462000259565b62000296565b8392601f821160011462000b725781809162000aa49560009362000b66575b501b916000199060031b1c1916176003556200055e565b62000aaf8262001015565b6101205262000abe8362001125565b61014052815191012060e052519020610100524660a05262000adf620012a4565b6080523060c0526001600160a01b0385161562000b4d5762000b3962000b469462000b33620001b49862000b2d62000b3f9662000b1c8b62000bfe565b62000b276001600c55565b62000651565b62000744565b62000837565b6200092a565b8262000f27565b8062000c47565b604051631e4fbdf760e01b815260006004820152602490fd5b88015192503862000a8d565b60036000529192601f198216907fc2575a0e9e593c00f959f8c92f12db2869c3395a3b0502d05e2516446f71f85b9160005b8782821062000be9575050908362000aa496959493921062000bcf575b5050811b016003556200055e565b87015160001960f88460031b161c19169055388062000bc1565b89840151855593860193928301920162000ba4565b600b80546001600160a01b039283166001600160a01b0319821681179092559091167f8be0079c531659141344cd1fd0a4f28419497f9722a3daafe3b4186f6b6457e0600080a3565b6001600160a01b0390811660008181526008602052604080822080548686166001600160a01b031982168117909255620001b4969516949391929185907f3134e8a2e6d97e929a7e54011ea5485d7d196dd5f0ba4d4ef95803e8e3fc257f8480a4806020522054915b6001600160a01b0380831693929190811690818514158062000e49575b62000cda575b5050505050565b8162000d56575b50508262000cf2575b808062000cd3565b6001600160a01b03166000908152600960205260409020600080516020620048ee8339815191529162000d329162000d2b909162001310565b9062000e53565b604080516001600160d01b039384168152919092166020820152a238808062000cea565b6001600160a01b0316600090815260096020526040902062000d788462001310565b9065ffffffffffff9081431162000e2a57805460008162000de55750509062000dc29162000db8600080516020620048ee833981519152946000620016da565b914316906200151e565b604080516001600160d01b039384168152919092166020820152a2388062000ce1565b6000939291931994848681011162000e2457600080516020620048ee8339815191529562000dc2956020848662000db896522001015460301c620016da565b62000f11565b6040516306dfcc6560e41b815260306004820152436024820152604490fd5b5083151562000ccd565b65ffffffffffff9081431162000e2a57805460008162000e8457505062000db862000e80936000620016f4565b9091565b9093600019858181011162000e245762000e80956020848662000db896522001015460301c620016f4565b65ffffffffffff80431162000e2a57600a5460008162000ee557505062000edc62000e80926000620016da565b90431662001422565b9092600019848181011162000e245762000e8094602084600a62000edc96522001015460301c620016da565b634e487b7160e01b600052601160045260246000fd5b906001600160a01b038216801562000ffc5762000f5062000f4b83600254620016cc565b600255565b6001600160a01b038316600090815260208181526040808320805486019055518481527fddf252ad1be2c89b69c2b068fc378daa952ba7f163c4a11628f55a4df523b3ef9190a36002546001600160d01b03811162000fd5575062000fb69082620015eb565b6015546001600160a01b03909116600090815260146020526040902055565b604051630e58ae9360e11b815260048101919091526001600160d01b036024820152604490fd5b60405163ec442f0560e01b815260006004820152602490fd5b908151602080821060001462001033575050906200023e9062001235565b6001600160401b03821162000183576200105a826200105460055462000259565b620004ac565b80601f83116001146200109a57508192936000926200108e575b50508160011b916000199060031b1c19161760055560ff90565b01519050388062001074565b6005600052601f198316949091907f036b6384b5eca791c62761152d0c79bb0604c104a5fb6f4eb0703f3154bb3db0926000905b8782106200110c575050836001959610620010f2575b505050811b0160055560ff90565b015160001960f88460031b161c19169055388080620010e4565b80600185968294968601518155019501930190620010ce565b908151602080821060001462001143575050906200023e9062001235565b6001600160401b03821162000183576200116a826200116460065462000259565b62000505565b80601f8311600114620011aa57508192936000926200119e575b50508160011b916000199060031b1c19161760065560ff90565b01519050388062001184565b6006600052601f198316949091907ff652222313e28459528d920b65115c16c04f3efc82aaedc97be59f3f377c0d3f926000905b8782106200121c57505083600195961062001202575b505050811b0160065560ff90565b015160001960f88460031b161c19169055388080620011f4565b80600185968294968601518155019501930190620011de565b601f8151116200126357602081519101516020821062001253571790565b6000198260200360031b1b161790565b6044604051809263305a27a960e01b825260206004830152620012968151809281602486015260208686019101620001b6565b601f01601f19168101030190fd5b60e051610100516040519060208201927f8b73c3c69bb8fe3d512ecc4cf759cc79239f7b179b0ffacaa9a75d522b39400f8452604083015260608201524660808201523060a082015260a0815260c0810181811060018060401b03821117620001835760405251902090565b6001600160d01b039081811162001325571690565b604490604051906306dfcc6560e41b825260d060048301526024820152fd5b60001981019190821162000e2457565b600a54906801000000000000000082101562000183576001820180600a55821015620013b657600a60005280516020919091015160301b65ffffffffffff191665ffffffffffff9190911617600080516020620048ce83398151915290910155565b634e487b7160e01b600052603260045260246000fd5b90815468010000000000000000811015620001835760018101808455811015620013b65760009283526020928390208251929093015160301b65ffffffffffff191665ffffffffffff9290921691909117910155565b600a549192918015620014ef576200143e620014579162001344565b600a600052600080516020620048ce8339815191520190565b9081549165ffffffffffff90818416918316808311620014dd578692036200149f576200149892509065ffffffffffff82549181199060301b169116179055565b60301c9190565b5050620014d790620014c2620014b4620001a5565b65ffffffffffff9092168252565b6001600160d01b038516602082015262001354565b62001498565b604051632520601d60e01b8152600490fd5b50620015189062001503620014b4620001a5565b6001600160d01b038416602082015262001354565b60009190565b80549293928015620015c15762001539620015469162001344565b8260005260206000200190565b9182549265ffffffffffff91828516928116808411620014dd578793036200158857506200149892509065ffffffffffff82549181199060301b169116179055565b915050620014d791620015ac6200159e620001a5565b65ffffffffffff9093168352565b6001600160d01b0386166020830152620013cc565b50906200151891620015d66200159e620001a5565b6001600160d01b0385166020830152620013cc565b90620015f78162001310565b9165ffffffffffff80431162000e2a57600a54600081620016995750506200162a9062000edc620001b4956000620016f4565b50506001600160a01b039081169081156200167c575b60086020527f5eff886ea0ce6ca488a3d6e336d6c0f75f46d19b42c06ce5ee98e42c96d256c75460009283526040909220548116911662000cb0565b620016916200168b8462001310565b62000eaf565b505062001640565b60009291921995838781011162000e2457620001b4966200162a94602084600a62000edc96522001015460301c620016f4565b9190820180921162000e2457565b6001600160d01b039182169082160390811162000e245790565b6001600160d01b039182169082160190811162000e24579056fe6080604052600436101561001257600080fd5b60003560e01c806303ee438c146102e257806306fdde03146102dd578063084278ec146102d8578063095ea7b3146102d35780630e4b2285146102ce578063139ba769146102c957806318160ddd146102c45780631f454923146102bf57806323b872dd146102ba578063313ce567146102b55780633644e515146102b05780633a46b1a8146102ab5780633c19804e146102a657806344e43cb8146102a15780634bf5d7e91461029c5780634eea6d79146102975780634f4dac6f14610242578063564f4f7614610292578063587cde1e1461028d5780635c19a95c146102885780636fcfff451461028357806370a082311461027e578063715018a614610279578063750521f5146102745780637ecebe001461026f57806381a2b38f1461026a57806384b0196e14610265578063881e1cff146102605780638b7afe2e1461025b5780638da5cb5b146102565780638e539e8c1461025157806391ddadf41461024c57806395d89b41146102475780639a6f99f9146102425780639ab24eb01461023d578063a9059cbb14610238578063b20a6f3614610233578063bf2d9e0b1461022e578063c3cda52014610229578063d505accf14610224578063d5f6aeb41461021f578063db2e21bc1461021a578063dd62ed3e14610215578063f1127ed8146102105763f2fde38b1461020b57600080fd5b611826565b61175b565b6116fe565b6116c0565b61154f565b6113d0565b6112ee565b6112b0565b611292565b61126c565b61120f565b610a1e565b6111eb565b6111bf565b6110cc565b6110a5565b611089565b61104a565b610f36565b610f12565b610ed8565b610d5c565b610c9e565b610c66565b610be5565b610bc1565b610b86565b610a41565b610982565b610854565b61073c565b610718565b61061e565b6105fb565b6105df565b61050a565b61048a565b61046c565b610432565b61040e565b6103dd565b610393565b61036f565b610327565b919082519283825260005b848110610313575050601f19601f8460006020809697860101520116010190565b6020818301810151848301820152016102f2565b3461036a57600060031936011261036a576103666040516103528161034b81611ce5565b03826119a7565b6040519182916020835260208301906102e7565b0390f35b600080fd5b3461036a57600060031936011261036a576103666040516103528161034b81611d8a565b3461036a57600060031936011261036a576020601554604051908152f35b600435906001600160a01b038216820361036a57565b602435906001600160a01b038216820361036a57565b3461036a57604060031936011261036a576104036103f96103b1565b60243590336121db565b602060405160018152f35b3461036a57600060031936011261036a576103666040516103528161034b81611e11565b3461036a57602060031936011261036a576001600160a01b036104536103b1565b1660005260136020526020604060002054604051908152f35b3461036a57600060031936011261036a576020600254604051908152f35b3461036a57604060031936011261036a576104a36103b1565b6024359081151580920361036a5760206001600160a01b037f7390412ce304891b69b7a6d7722b373a8172b465ce957518d396801bc35e0872926104e56118dd565b16928360005260168252604060002060ff1981541660ff8316179055604051908152a2005b3461036a57606060031936011261036a576105236103b1565b61052b6103c7565b604435906001600160a01b0383166000526001602052610562336040600020906001600160a01b0316600052602052604060002090565b54926000198410610584575b610578935061202d565b60405160018152602090f35b8284106105a05761059b83610578950333836122c1565b61056e565b6040517ffb8f41b20000000000000000000000000000000000000000000000000000000081523360048201526024810185905260448101849052606490fd5b3461036a57600060031936011261036a57602060405160128152f35b3461036a57600060031936011261036a576020610616612523565b604051908152f35b3461036a57604060031936011261036a576001600160a01b0361063f6103b1565b1660009081526009602052604081209061065a6024356119d9565b918054829381600581116106be575b50906020946106789284612e9a565b806106a45750505b79ffffffffffffffffffffffffffffffffffffffffffffffffffff60405191168152f35b916106b08492936128f3565b92815220015460301c610680565b946106c88661293d565b8603958611610713576020956106789385875265ffffffffffff80838a8a20015416908516106000146107015750915b91925094610669565b92915061070d90612902565b906106f8565b611c95565b3461036a57600060031936011261036a576103666040516103528161034b81611e98565b600060031936011261036a5761077661077261076b336001600160a01b03166000526016602052604060002090565b5460ff1690565b1590565b8061082a575b610800573461078757005b61079b61079634601154612910565b601155565b600254806107d5575b5060405134815233907ff3a9b3760e99454de4c494f7ed29f5204ab92febacb0acf52ea04ad4a9d2246690602090a2005b6107f56107ed6107fa926107e83461300b565b61291d565b601554612910565b601555565b386107a4565b60046040517f614d358c000000000000000000000000000000000000000000000000000000008152fd5b5061084c610840600b546001600160a01b031690565b6001600160a01b031690565b33141561077c565b3461036a57600060031936011261036a5761086e436128a8565b65ffffffffffff8061087f436128a8565b169116036108d45761036660405161089681611937565b601d81527f6d6f64653d626c6f636b6e756d6265722666726f6d3d64656661756c7400000060208201526040519182916020835260208301906102e7565b60046040517f6ff07140000000000000000000000000000000000000000000000000000000008152fd5b95979491936109456109619461093761097f9c9a97610929610953968c6101208091528d01906102e7565b908b820360208d01526102e7565b9089820360408b01526102e7565b9087820360608901526102e7565b9085820360808701526102e7565b9460a084015260c083015260e08201526101008184039101526102e7565b90565b3461036a57600060031936011261036a57604080516109a48161034b81611d8a565b6103668251926109be846109b781611f1f565b03856119a7565b6002546011546012549183516109d78161034b81611e98565b84516109e68161034b81611e11565b8551916109fd836109f681611ce5565b03846119a7565b865196610a1488610a0d81611fa6565b03896119a7565b51998a998a6108fe565b3461036a57602060031936011261036a576020610616610a3c6103b1565b613068565b3461036a57600080600319360112610b83576002600c5414610b59576002600c55610a6b33613068565b8015610b2f57336000908152601360205260409020610a8b828254612910565b905560155433600090815260146020526040902055610ab4610aaf82601254612910565b601255565b8180808084335af1610ac4613028565b5015610b055760405190815233907fc15f451120b13b6b40c6ad6203614ab3088308bef9150c0d6f46ea79bf46422490602090a2610b026001600c55565b80f35b60046040517f90b8ec18000000000000000000000000000000000000000000000000000000008152fd5b60046040517f02a1c5ba000000000000000000000000000000000000000000000000000000008152fd5b60046040517f3ee5aeb5000000000000000000000000000000000000000000000000000000008152fd5b80fd5b3461036a57602060031936011261036a5760206001600160a01b0380610baa6103b1565b166000526008825260406000205416604051908152f35b3461036a57602060031936011261036a57610be3610bdd6103b1565b33611a33565b005b3461036a57602060031936011261036a576001600160a01b03610c066103b1565b16600052600960205260406000205463ffffffff90818111610c2e5760209160405191168152f35b604490604051907f6dfcc650000000000000000000000000000000000000000000000000000000008252602060048301526024820152fd5b3461036a57602060031936011261036a576020610616610c846103b1565b6001600160a01b0316600052600060205260406000205490565b3461036a57600080600319360112610b8357610cb86118dd565b806001600160a01b03600b547fffffffffffffffffffffffff00000000000000000000000000000000000000008116600b55167f8be0079c531659141344cd1fd0a4f28419497f9722a3daafe3b4186f6b6457e08280a380f35b90602060031983011261036a5760043567ffffffffffffffff9283821161036a578060238301121561036a57816004013593841161036a576024848301011161036a576024019190565b3461036a57610d6a36610d12565b610d726118dd565b8015610eae5767ffffffffffffffff8111610ea957610d9b81610d96600f54611cab565b612f01565b600091601f8211600114610e0857817f1c306e70c05992619e2128ad1ef88df75f36c9476282e59f51401b2abaa42e4e93600091610dfd575b508260011b906000198460031b1c191617600f555b610df860405192839283612fe3565b0390a1005b905081013538610dd4565b600f6000527f8d1108e10bcb7c27dddfc02ed9d693a074039d026cf4ea4240b40f7d581ac802601f198316845b818110610e91575093837f1c306e70c05992619e2128ad1ef88df75f36c9476282e59f51401b2abaa42e4e9510610e77575b5050600182811b01600f55610de9565b60001960f88560031b161c19908301351690553880610e67565b83860135835560209586019560019093019201610e35565b611921565b60046040517feec403f0000000000000000000000000000000000000000000000000000000008152fd5b3461036a57602060031936011261036a576001600160a01b03610ef96103b1565b1660005260076020526020604060002054604051908152f35b3461036a57600060031936011261036a576103666040516103528161034b81611fa6565b3461036a57600080600319360112610b8357610ffc90610f757f000000000000000000000000000000000000000000000000000000000000000061267e565b610f9e7f000000000000000000000000000000000000000000000000000000000000000061278f565b9160405191610fac83611953565b8183526040519485947f0f000000000000000000000000000000000000000000000000000000000000008652610fee60209360e08589015260e08801906102e7565b9086820360408801526102e7565b904660608601523060808601528260a086015284820360c08601528080855193848152019401925b82811061103357505050500390f35b835185528695509381019392810192600101611024565b3461036a57602060031936011261036a576001600160a01b0361106b6103b1565b166000526016602052602060ff604060002054166040519015158152f35b3461036a57600060031936011261036a57602047604051908152f35b3461036a57600060031936011261036a5760206001600160a01b03600b5416604051908152f35b3461036a57602060031936011261036a576110e86004356119d9565b600a54906000829160058411611152575b6111039350612e1f565b60008161111857505060405160008152602090f35b600a6111256020936128f3565b91527fc65a7bb8d6351c1cf70c95a316cc6a92839c986682d98bc35f958f4883f9d2a8015460301c610680565b919261115d8161293d565b81039081116107135761110393600a835265ffffffffffff80837fc65a7bb8d6351c1cf70c95a316cc6a92839c986682d98bc35f958f4883f9d2a8015416908516106000146111ad5750916110f9565b9291506111b990612902565b906110f9565b3461036a57600060031936011261036a5760206111db436128a8565b65ffffffffffff60405191168152f35b3461036a57600060031936011261036a576103666040516103528161034b81611f1f565b3461036a57602060031936011261036a576001600160a01b036112306103b1565b166000526009602052602079ffffffffffffffffffffffffffffffffffffffffffffffffffff6112636040600020612ac9565b16604051908152f35b3461036a57604060031936011261036a576104036112886103b1565b602435903361202d565b3461036a57600060031936011261036a576020601254604051908152f35b3461036a57600060031936011261036a576020601154604051908152f35b6064359060ff8216820361036a57565b6084359060ff8216820361036a57565b3461036a5760c060031936011261036a576113076103b1565b604435906024356113166112ce565b83421161139f57611393610be39461139a926040519060208201927fe48329057bfd03d55e49b547132e39cffd9c1820ad7b9d4c5307691425d15adf84526001600160a01b038816604084015286606084015260808301526080825261137b8261196f565b61138e60a435936084359351902061263d565b612384565b9182612312565b611a33565b602484604051907f4683af0e0000000000000000000000000000000000000000000000000000000082526004820152fd5b3461036a5760e060031936011261036a576113e96103b1565b6113f16103c7565b604435906064356114006112de565b81421161151e579061149d6114be926114ab611438886001600160a01b03166000526007602052604060002080549060018201905590565b9360405193849160208301968a8a8d8a91959493909260a09360c08401977f6e71edae12b1b97f4d1f60370fef10105fa2faae0126114a169c64845d6126c985526001600160a01b038092166020860152166040840152606083015260808201520152565b03601f1981018452836119a7565b61138e60c4359360a4359351902061263d565b6001600160a01b03808516908216036114db5750610be3926121db565b6040517f4b800e460000000000000000000000000000000000000000000000000000000081526001600160a01b0391821660048201529084166024820152604490fd5b602482604051907f627913020000000000000000000000000000000000000000000000000000000082526004820152fd5b3461036a5761155d36610d12565b6115656118dd565b80156116965767ffffffffffffffff8111610ea95761158e81611589601054611cab565b612f72565b600091601f82116001146115f557817f732d2e87dcc1907685c097f7373a47d8c7cd8ef98b659b5f2d4272b26aab48a7936000916115ea575b508260011b906000198460031b1c191617601055610df860405192839283612fe3565b9050810135386115c7565b60106000527f1b6847dc741a1b0cd08d278845f9d819d87b734759afb55fe2de5cb82a9ae672601f198316845b81811061167e575093837f732d2e87dcc1907685c097f7373a47d8c7cd8ef98b659b5f2d4272b26aab48a79510611664575b5050600182811b01601055610de9565b60001960f88560031b161c19908301351690553880611654565b83860135835560209586019560019093019201611622565b60046040517f3d9e4cad000000000000000000000000000000000000000000000000000000008152fd5b3461036a57600080600319360112610b83576116da6118dd565b80808080476001600160a01b03600b54165af16116f5613028565b5015610b055780f35b3461036a57604060031936011261036a57602061175261171c6103b1565b6001600160a01b0361172c6103c7565b9116600052600183526040600020906001600160a01b0316600052602052604060002090565b54604051908152f35b3461036a57604060031936011261036a576117746103b1565b6024359063ffffffff8216820361036a57610366916001600160a01b036117c39261179d6122f9565b506117a66122f9565b5016600052600960205260406000206117bd6122f9565b50612af7565b50604051906117d182611937565b5465ffffffffffff8116825260301c602082015260405191829182919091602079ffffffffffffffffffffffffffffffffffffffffffffffffffff81604084019565ffffffffffff8151168552015116910152565b3461036a57602060031936011261036a5761183f6103b1565b6118476118dd565b6001600160a01b038091169081156118ac57600b54827fffffffffffffffffffffffff0000000000000000000000000000000000000000821617600b55167f8be0079c531659141344cd1fd0a4f28419497f9722a3daafe3b4186f6b6457e0600080a3005b60246040517f1e4fbdf700000000000000000000000000000000000000000000000000000000815260006004820152fd5b6001600160a01b03600b541633036118f157565b60246040517f118cdaa7000000000000000000000000000000000000000000000000000000008152336004820152fd5b634e487b7160e01b600052604160045260246000fd5b6040810190811067ffffffffffffffff821117610ea957604052565b6020810190811067ffffffffffffffff821117610ea957604052565b60a0810190811067ffffffffffffffff821117610ea957604052565b60c0810190811067ffffffffffffffff821117610ea957604052565b90601f601f19910116810190811067ffffffffffffffff821117610ea957604052565b604051906119d782611937565b565b65ffffffffffff6119e9436128a8565b16808210156119fc575061097f906128a8565b60449250604051917fecd3f81e00000000000000000000000000000000000000000000000000000000835260048301526024820152fd5b6119d791611ac86001600160a01b03927fffffffffffffffffffffffff0000000000000000000000000000000000000000848216948560005260086020526040600020958654968288169788938816948591161790557f3134e8a2e6d97e929a7e54011ea5485d7d196dd5f0ba4d4ef95803e8e3fc257f600080a46001600160a01b0316600052600060205260406000205490565b915b91906001600160a01b0392838216938116908482141580611c43575b611af2575b5050505050565b81611b8e575b505082611b07575b8080611aeb565b7fdec2bacdd2f05b59de34da9b523dff8be42e5e38e818c82fdb0bae774387a72491611b52611b4c611b58936001600160a01b03166000526009602052604060002090565b91612849565b90611c4c565b6040805179ffffffffffffffffffffffffffffffffffffffffffffffffffff9384168152919092166020820152a2388080611b00565b611bab906001600160a01b03166000526009602052604060002090565b611bb484612849565b611bbd436128a8565b79ffffffffffffffffffffffffffffffffffffffffffffffffffff918280611be486612ac9565b169116900392828411610713577fdec2bacdd2f05b59de34da9b523dff8be42e5e38e818c82fdb0bae774387a72493611c3992611c2092612d38565b6040805192851683529316602082015291829190820190565b0390a23880611af8565b50831515611ae6565b90611c56436128a8565b79ffffffffffffffffffffffffffffffffffffffffffffffffffff918280611c7d86612ac9565b16911601918211611c9557611c9192612d38565b9091565b634e487b7160e01b600052601160045260246000fd5b90600182811c92168015611cdb575b6020831014611cc557565b634e487b7160e01b600052602260045260246000fd5b91607f1691611cba565b600f5460009291611cf582611cab565b80825291600190818116908115611d6c5750600114611d1357505050565b91929350600f6000527f8d1108e10bcb7c27dddfc02ed9d693a074039d026cf4ea4240b40f7d581ac802916000925b848410611d5457505060209250010190565b80546020858501810191909152909301928101611d42565b9050602094955060ff1991509291921683830152151560051b010190565b60035460009291611d9a82611cab565b80825291600190818116908115611d6c5750600114611db857505050565b9192935060036000527fc2575a0e9e593c00f959f8c92f12db2869c3395a3b0502d05e2516446f71f85b916000925b848410611df957505060209250010190565b80546020858501810191909152909301928101611de7565b600e5460009291611e2182611cab565b80825291600190818116908115611d6c5750600114611e3f57505050565b91929350600e6000527fbb7b4a454dc3493923482f07822329ed19e8244eff582cc204f8554c3620c3fd916000925b848410611e8057505060209250010190565b80546020858501810191909152909301928101611e6e565b600d5460009291611ea882611cab565b80825291600190818116908115611d6c5750600114611ec657505050565b91929350600d6000527fd7b6990105719101dabeb77144f2a3385c8033acd3af97e9423a695e81ad1eb5916000925b848410611f0757505060209250010190565b80546020858501810191909152909301928101611ef5565b60045460009291611f2f82611cab565b80825291600190818116908115611d6c5750600114611f4d57505050565b9192935060046000527f8a35acfbc15ff81a39ae7d344fd709f28e8600b4aa8c65c6b64bfe7fe36bd19b916000925b848410611f8e57505060209250010190565b80546020858501810191909152909301928101611f7c565b60105460009291611fb682611cab565b80825291600190818116908115611d6c5750600114611fd457505050565b9192935060106000527f1b6847dc741a1b0cd08d278845f9d819d87b734759afb55fe2de5cb82a9ae672916000925b84841061201557505060209250010190565b80546020858501810191909152909301928101612003565b90916001600160a01b038083169081156121aa57841690811561217957612067846001600160a01b03166000526000602052604060002090565b54838110612130579261212d94926120f4928261211398960361209d866001600160a01b03166000526000602052604060002090565b556120bb866001600160a01b03166000526000602052604060002090565b8054840190556040518381527fddf252ad1be2c89b69c2b068fc378daa952ba7f163c4a11628f55a4df523b3ef90602090a383836130bb565b6015549384916001600160a01b03166000526014602052604060002090565b556001600160a01b03166000526014602052604060002090565b55565b6040517fe450d38c0000000000000000000000000000000000000000000000000000000081526001600160a01b0386166004820152602481019190915260448101849052606490fd5b60246040517fec442f0500000000000000000000000000000000000000000000000000000000815260006004820152fd5b60246040517f96c6fd1e00000000000000000000000000000000000000000000000000000000815260006004820152fd5b906001600160a01b039182811692831561229057821693841561225f57806122557f8c5be1e5ebec7d5bd14f71427d1e84f3dd0314c0f7b2291e5b200ac8c7c3b9259461223d6020956001600160a01b03166000526001602052604060002090565b906001600160a01b0316600052602052604060002090565b55604051908152a3565b60246040517f94280d6200000000000000000000000000000000000000000000000000000000815260006004820152fd5b60246040517fe602df0500000000000000000000000000000000000000000000000000000000815260006004820152fd5b906001600160a01b03808316156122905781161561225f5761223d61212d926001600160a01b03166000526001602052604060002090565b6040519061230682611937565b60006020838281520152565b90612339826001600160a01b03166000526007602052604060002080549060018201905590565b809103612344575050565b604492506001600160a01b03604051927f752d88c00000000000000000000000000000000000000000000000000000000084521660048301526024820152fd5b9161097f93916123939361239c565b9092919261244c565b91907f7fffffffffffffffffffffffffffffff5d576e7357a4501ddfe92f46681b20a0841161242057926020929160ff608095604051948552168484015260408301526060820152600092839182805260015afa156124145780516001600160a01b0381161561240b57918190565b50809160019190565b604051903d90823e3d90fd5b50505060009160039190565b6004111561243657565b634e487b7160e01b600052602160045260246000fd5b6124558161242c565b8061245e575050565b6124678161242c565b600181036124995760046040517ff645eedf000000000000000000000000000000000000000000000000000000008152fd5b6124a28161242c565b600281036124dc576040517ffce698f700000000000000000000000000000000000000000000000000000000815260048101839052602490fd5b806124e860039261242c565b146124f05750565b6040517fd78bce0c0000000000000000000000000000000000000000000000000000000081526004810191909152602490fd5b6001600160a01b037f000000000000000000000000000000000000000000000000000000000000000016301480612614575b1561257e577f000000000000000000000000000000000000000000000000000000000000000090565b60405160208101907f8b73c3c69bb8fe3d512ecc4cf759cc79239f7b179b0ffacaa9a75d522b39400f82527f000000000000000000000000000000000000000000000000000000000000000060408201527f000000000000000000000000000000000000000000000000000000000000000060608201524660808201523060a082015260a0815261260e8161198b565b51902090565b507f00000000000000000000000000000000000000000000000000000000000000004614612555565b604290612648612523565b90604051917f19010000000000000000000000000000000000000000000000000000000000008352600283015260228201522090565b60ff81146126d45760ff811690601f82116126aa57604051916126a083611937565b8252602082015290565b60046040517fb3512b0c000000000000000000000000000000000000000000000000000000008152fd5b506040516005548160006126e783611cab565b8083529260019081811690811561276d575060011461270e575b5061097f925003826119a7565b6005600090815291507f036b6384b5eca791c62761152d0c79bb0604c104a5fb6f4eb0703f3154bb3db05b848310612752575061097f935050810160200138612701565b81935090816020925483858901015201910190918492612739565b6020935061097f95925060ff1991501682840152151560051b82010138612701565b60ff81146127b15760ff811690601f82116126aa57604051916126a083611937565b506040516006548160006127c483611cab565b8083529260019081811690811561276d57506001146127ea575061097f925003826119a7565b6006600090815291507ff652222313e28459528d920b65115c16c04f3efc82aaedc97be59f3f377c0d3f5b84831061282e575061097f935050810160200138612701565b81935090816020925483858901015201910190918492612815565b79ffffffffffffffffffffffffffffffffffffffffffffffffffff90818111612870571690565b604490604051907f6dfcc65000000000000000000000000000000000000000000000000000000000825260d060048301526024820152fd5b65ffffffffffff908181116128bb571690565b604490604051907f6dfcc650000000000000000000000000000000000000000000000000000000008252603060048301526024820152fd5b90600019820191821161071357565b906001820180921161071357565b9190820180921161071357565b8115612927570490565b634e487b7160e01b600052601260045260246000fd5b600181111561097f57600181700100000000000000000000000000000000811015612a68575b612a10612a066129fc6129f26129e86129de612a1c9760048868010000000000000000612a179a1015612a5b575b640100000000811015612a4e575b62010000811015612a41575b610100811015612a35575b6010811015612a29575b1015612a21575b60030260011c6129d7818b61291d565b0160011c90565b6129d7818a61291d565b6129d7818961291d565b6129d7818861291d565b6129d7818761291d565b6129d7818661291d565b809361291d565b821190565b900390565b60011b6129c7565b811c9160021b916129c0565b60081c91811b916129b6565b60101c9160081b916129ab565b60201c9160101b9161299f565b60401c9160201b91612991565b50680100000000000000009050608082901c612963565b600a5460009080612a91575050600090565b8060001981011161071357600a7fc65a7bb8d6351c1cf70c95a316cc6a92839c986682d98bc35f958f4883f9d2a79252015460301c90565b805460009181612adb57505050600090565b6000199282848101116107135760209181522001015460301c90565b8054821015612b0f5760005260206000200190600090565b634e487b7160e01b600052603260045260246000fd5b600a549068010000000000000000821015610ea9576001820180600a55821015612b0f57600a60005280516020919091015160301b65ffffffffffff191665ffffffffffff91909116177fc65a7bb8d6351c1cf70c95a316cc6a92839c986682d98bc35f958f4883f9d2a890910155565b805468010000000000000000811015610ea957612bb891600182018155612af7565b612be45781516020929092015160301b65ffffffffffff191665ffffffffffff92909216919091179055565b634e487b7160e01b600052600060045260246000fd5b600a549192918015612cfb57612c12612c3c916128f3565b600a6000527fc65a7bb8d6351c1cf70c95a316cc6a92839c986682d98bc35f958f4883f9d2a80190565b9081549165ffffffffffff90818416918316808311612cd157869203612c8657612c7f92509065ffffffffffff65ffffffffffff1983549260301b169116179055565b60301c9190565b5050612ccc90612ca5612c976119ca565b65ffffffffffff9092168252565b79ffffffffffffffffffffffffffffffffffffffffffffffffffff85166020820152612b25565b612c7f565b60046040517f2520601d000000000000000000000000000000000000000000000000000000008152fd5b50612d3290612d0b612c976119ca565b79ffffffffffffffffffffffffffffffffffffffffffffffffffff84166020820152612b25565b60009190565b80549293928015612de757612d4f612d5c916128f3565b8260005260206000200190565b9182549265ffffffffffff91828516928116808411612cd157879303612da05750612c7f92509065ffffffffffff65ffffffffffff1983549260301b169116179055565b915050612ccc91612dc0612db26119ca565b65ffffffffffff9093168352565b79ffffffffffffffffffffffffffffffffffffffffffffffffffff86166020830152612b96565b5090612d3291612df8612db26119ca565b79ffffffffffffffffffffffffffffffffffffffffffffffffffff85166020830152612b96565b905b828110612e2d57505090565b90918082169080831860011c820180921161071357600a60005265ffffffffffff80837fc65a7bb8d6351c1cf70c95a316cc6a92839c986682d98bc35f958f4883f9d2a801541690851610600014612e885750915b90612e21565b929150612e9490612902565b90612e82565b90915b838110612eaa5750505090565b9091928082169080831860011c82018092116107135781602060008681528265ffffffffffff9283922001541690871610600014612eed575050925b9190612e9d565b90949250612efb9150612902565b90612ee6565b601f8111612f0d575050565b600090600f82527f8d1108e10bcb7c27dddfc02ed9d693a074039d026cf4ea4240b40f7d581ac802906020601f850160051c83019410612f68575b601f0160051c01915b828110612f5d57505050565b818155600101612f51565b9092508290612f48565b601f8111612f7e575050565b600090601082527f1b6847dc741a1b0cd08d278845f9d819d87b734759afb55fe2de5cb82a9ae672906020601f850160051c83019410612fd9575b601f0160051c01915b828110612fce57505050565b818155600101612fc2565b9092508290612fb9565b90601f83604094601f1993602086528160208701528686013760008582860101520116010190565b90670de0b6b3a76400009182810292818404149015171561071357565b3d15613063573d9067ffffffffffffffff8211610ea957604051916130576020601f19601f84011601846119a7565b82523d6000602084013e565b606090565b6001600160a01b0316600052600060205260406000205480156130b55760155460146020526040600020548103908111610713578082029182040361071357670de0b6b3a7640000900490565b50600090565b6001600160a01b0390811692918190841561315a575b169081156130ff575b6119d79360005260086020528060406000205416916000526040600020541690611aca565b61310883612849565b93613112436128a8565b79ffffffffffffffffffffffffffffffffffffffffffffffffffff958680613138612a7f565b1691169003958611610713576119d79561315191612bfa565b505093506130da565b905061316583612849565b9061316f436128a8565b79ffffffffffffffffffffffffffffffffffffffffffffffffffff928380613195612a7f565b169116019283116107135783926131ab91612bfa565b50506130d156fea164736f6c6343000814000ac65a7bb8d6351c1cf70c95a316cc6a92839c986682d98bc35f958f4883f9d2a8dec2bacdd2f05b59de34da9b523dff8be42e5e38e818c82fdb0bae774387a724a164736f6c6343000814000a",
  "linkReferences": {},
  "deployedLinkReferences": {}
}