{
  "_format": "hh-sol-artifact-1",
  "contractName": "AgentLaunchpadCoreV2",
  "sourceName": "contracts/AgentLaunchpadCoreV2.sol",
  "abi": [
    {
      "inputs": [
        {
          "internalType": "address",
          "name": "_treasuryAddress",
          "type": "address"
        }
      ],
      "stateMutability": "nonpayable",
      "type": "constructor"
    },
    {
      "inputs": [],
      "name": "AgentAlreadyBonded",
      "type": "error"
    },
    {
      "inputs": [],
      "name": "AgentNotFound",
      "type": "error"
    },
    {
      "inputs": [],
      "name": "EnforcedPause",
      "type": "error"
    },
    {
      "inputs": [],
      "name": "ExpectedPause",
      "type": "error"
    },
    {
      "inputs": [],
      "name": "FundingTargetExceeded",
      "type": "error"
    },
    {
      "inputs": [],
      "name": "FundingTargetNotMet",
      "type": "error"
    },
    {
      "inputs": [],
      "name": "InvalidAddress",
      "type": "error"
    },
    {
      "inputs": [],
      "name": "InvalidParameters",
      "type": "error"
    },
    {
      "inputs": [],
      "name": "LiquidityManagerNotSet",
      "type": "error"
    },
    {
      "inputs": [
        {
          "internalType": "address",
          "name": "owner",
          "type": "address"
        }
      ],
      "name": "OwnableInvalidOwner",
      "type": "error"
    },
    {
      "inputs": [
        {
          "internalType": "address",
          "name": "account",
          "type": "address"
        }
      ],
      "name": "OwnableUnauthorizedAccount",
      "type": "error"
    },
    {
      "inputs": [],
      "name": "ReentrancyGuardReentrantCall",
      "type": "error"
    },
    {
      "anonymous": false,
      "inputs": [
        {
          "indexed": true,
          "internalType": "uint256",
          "name": "agentId",
          "type": "uint256"
        },
        {
          "indexed": true,
          "internalType": "address",
          "name": "tokenAddress",
          "type": "address"
        },
        {
          "indexed": true,
          "internalType": "address",
          "name": "lpPairAddress",
          "type": "address"
        },
        {
          "indexed": false,
          "internalType": "string",
          "name": "agentConfigJSON",
          "type": "string"
        }
      ],
      "name": "AgentBonded",
      "type": "event"
    },
    {
      "anonymous": false,
      "inputs": [
        {
          "indexed": true,
          "internalType": "uint256",
          "name": "agentId",
          "type": "uint256"
        },
        {
          "indexed": true,
          "internalType": "address",
          "name": "creator",
          "type": "address"
        },
        {
          "indexed": false,
          "internalType": "address",
          "name": "tokenAddress",
          "type": "address"
        },
        {
          "indexed": false,
          "internalType": "string",
          "name": "agentName",
          "type": "string"
        },
        {
          "indexed": false,
          "internalType": "string",
          "name": "agentConfigJSON",
          "type": "string"
        }
      ],
      "name": "AgentCreated",
      "type": "event"
    },
    {
      "anonymous": false,
      "inputs": [
        {
          "indexed": true,
          "internalType": "uint256",
          "name": "agentId",
          "type": "uint256"
        },
        {
          "indexed": true,
          "internalType": "address",
          "name": "contributor",
          "type": "address"
        },
        {
          "indexed": false,
          "internalType": "uint256",
          "name": "amount",
          "type": "uint256"
        },
        {
          "indexed": false,
          "internalType": "uint256",
          "name": "totalRaised",
          "type": "uint256"
        }
      ],
      "name": "Contributed",
      "type": "event"
    },
    {
      "anonymous": false,
      "inputs": [
        {
          "indexed": true,
          "internalType": "address",
          "name": "oldManager",
          "type": "address"
        },
        {
          "indexed": true,
          "internalType": "address",
          "name": "newManager",
          "type": "address"
        }
      ],
      "name": "LiquidityManagerUpdated",
      "type": "event"
    },
    {
      "anonymous": false,
      "inputs": [
        {
          "indexed": true,
          "internalType": "uint256",
          "name": "agentId",
          "type": "uint256"
        },
        {
          "indexed": true,
          "internalType": "address",
          "name": "tokenAddress",
          "type": "address"
        },
        {
          "indexed": true,
          "internalType": "address",
          "name": "lpPairAddress",
          "type": "address"
        },
        {
          "indexed": false,
          "internalType": "uint256",
          "name": "ethAmount",
          "type": "uint256"
        },
        {
          "indexed": false,
          "internalType": "uint256",
          "name": "tokenAmount",
          "type": "uint256"
        }
      ],
      "name": "LiquidityPoolCreated",
      "type": "event"
    },
    {
      "anonymous": false,
      "inputs": [
        {
          "indexed": true,
          "internalType": "address",
          "name": "previousOwner",
          "type": "address"
        },
        {
          "indexed": true,
          "internalType": "address",
          "name": "newOwner",
          "type": "address"
        }
      ],
      "name": "OwnershipTransferred",
      "type": "event"
    },
    {
      "anonymous": false,
      "inputs": [
        {
          "indexed": false,
          "internalType": "address",
          "name": "account",
          "type": "address"
        }
      ],
      "name": "Paused",
      "type": "event"
    },
    {
      "anonymous": false,
      "inputs": [
        {
          "indexed": false,
          "internalType": "uint256",
          "name": "oldFee",
          "type": "uint256"
        },
        {
          "indexed": false,
          "internalType": "uint256",
          "name": "newFee",
          "type": "uint256"
        }
      ],
      "name": "ProtocolFeeUpdated",
      "type": "event"
    },
    {
      "anonymous": false,
      "inputs": [
        {
          "indexed": true,
          "internalType": "address",
          "name": "oldTreasury",
          "type": "address"
        },
        {
          "indexed": true,
          "internalType": "address",
          "name": "newTreasury",
          "type": "address"
        }
      ],
      "name": "TreasuryAddressUpdated",
      "type": "event"
    },
    {
      "anonymous": false,
      "inputs": [
        {
          "indexed": false,
          "internalType": "address",
          "name": "account",
          "type": "address"
        }
      ],
      "name": "Unpaused",
      "type": "event"
    },
    {
      "inputs": [],
      "name": "BASIS_POINTS",
      "outputs": [
        {
          "internalType": "uint256",
          "name": "",
          "type": "uint256"
        }
      ],
      "stateMutability": "view",
      "type": "function"
    },
    {
      "inputs": [],
      "name": "MAX_FEE",
      "outputs": [
        {
          "internalType": "uint256",
          "name": "",
          "type": "uint256"
        }
      ],
      "stateMutability": "view",
      "type": "function"
    },
    {
      "inputs": [
        {
          "internalType": "uint256",
          "name": "",
          "type": "uint256"
        }
      ],
      "name": "agents",
      "outputs": [
        {
          "internalType": "string",
          "name": "name",
          "type": "string"
        },
        {
          "internalType": "string",
          "name": "symbol",
          "type": "string"
        },
        {
          "internalType": "string",
          "name": "agentName",
          "type": "string"
        },
        {
          "internalType": "string",
          "name": "archetype",
          "type": "string"
        },
        {
          "internalType": "string",
          "name": "metadataURI",
          "type": "string"
        },
        {
          "internalType": "uint256",
          "name": "fundingTarget",
          "type": "uint256"
        },
        {
          "internalType": "uint256",
          "name": "tokenSupply",
          "type": "uint256"
        },
        {
          "internalType": "address",
          "name": "creator",
          "type": "address"
        },
        {
          "internalType": "bool",
          "name": "isBonded",
          "type": "bool"
        },
        {
          "internalType": "uint256",
          "name": "totalRaised",
          "type": "uint256"
        },
        {
          "internalType": "address",
          "name": "tokenAddress",
          "type": "address"
        },
        {
          "internalType": "address",
          "name": "lpPairAddress",
          "type": "address"
        },
        {
          "internalType": "string",
          "name": "agentConfigJSON",
          "type": "string"
        },
        {
          "internalType": "uint256",
          "name": "createdAt",
          "type": "uint256"
        },
        {
          "internalType": "uint256",
          "name": "bondedAt",
          "type": "uint256"
        }
      ],
      "stateMutability": "view",
      "type": "function"
    },
    {
      "inputs": [
        {
          "internalType": "address",
          "name": "",
          "type": "address"
        },
        {
          "internalType": "uint256",
          "name": "",
          "type": "uint256"
        }
      ],
      "name": "agentsByCreator",
      "outputs": [
        {
          "internalType": "uint256",
          "name": "",
          "type": "uint256"
        }
      ],
      "stateMutability": "view",
      "type": "function"
    },
    {
      "inputs": [
        {
          "internalType": "uint256",
          "name": "",
          "type": "uint256"
        }
      ],
      "name": "allAgentIds",
      "outputs": [
        {
          "internalType": "uint256",
          "name": "",
          "type": "uint256"
        }
      ],
      "stateMutability": "view",
      "type": "function"
    },
    {
      "inputs": [
        {
          "internalType": "uint256",
          "name": "agentId",
          "type": "uint256"
        }
      ],
      "name": "bondAgent",
      "outputs": [],
      "stateMutability": "nonpayable",
      "type": "function"
    },
    {
      "inputs": [
        {
          "internalType": "uint256",
          "name": "",
          "type": "uint256"
        }
      ],
      "name": "bondedAgentIds",
      "outputs": [
        {
          "internalType": "uint256",
          "name": "",
          "type": "uint256"
        }
      ],
      "stateMutability": "view",
      "type": "function"
    },
    {
      "inputs": [
        {
          "internalType": "uint256",
          "name": "agentId",
          "type": "uint256"
        }
      ],
      "name": "contribute",
      "outputs": [],
      "stateMutability": "payable",
      "type": "function"
    },
    {
      "inputs": [
        {
          "internalType": "uint256",
          "name": "",
          "type": "uint256"
        },
        {
          "internalType": "address",
          "name": "",
          "type": "address"
        }
      ],
      "name": "contributions",
      "outputs": [
        {
          "internalType": "uint256",
          "name": "",
          "type": "uint256"
        }
      ],
      "stateMutability": "view",
      "type": "function"
    },
    {
      "inputs": [
        {
          "internalType": "string",
          "name": "name",
          "type": "string"
        },
        {
          "internalType": "string",
          "name": "symbol",
          "type": "string"
        },
        {
          "internalType": "string",
          "name": "agentName",
          "type": "string"
        },
        {
          "internalType": "string",
          "name": "archetype",
          "type": "string"
        },
        {
          "internalType": "string",
          "name": "metadataURI",
          "type": "string"
        },
        {
          "internalType": "uint256",
          "name": "fundingTarget",
          "type": "uint256"
        },
        {
          "internalType": "uint256",
          "name": "tokenSupply",
          "type": "uint256"
        },
        {
          "internalType": "string",
          "name": "agentConfigJSON",
          "type": "string"
        }
      ],
      "name": "createAgent",
      "outputs": [
        {
          "internalType": "uint256",
          "name": "agentId",
          "type": "uint256"
        }
      ],
      "stateMutability": "nonpayable",
      "type": "function"
    },
    {
      "inputs": [],
      "name": "defaultLiquidityPercentage",
      "outputs": [
        {
          "internalType": "uint256",
          "name": "",
          "type": "uint256"
        }
      ],
      "stateMutability": "view",
      "type": "function"
    },
    {
      "inputs": [],
      "name": "defaultTokenLPPercentage",
      "outputs": [
        {
          "internalType": "uint256",
          "name": "",
          "type": "uint256"
        }
      ],
      "stateMutability": "view",
      "type": "function"
    },
    {
      "inputs": [],
      "name": "emergencyWithdraw",
      "outputs": [],
      "stateMutability": "nonpayable",
      "type": "function"
    },
    {
      "inputs": [
        {
          "internalType": "address",
          "name": "tokenAddress",
          "type": "address"
        }
      ],
      "name": "getAgentByTokenAddress",
      "outputs": [
        {
          "internalType": "uint256",
          "name": "",
          "type": "uint256"
        }
      ],
      "stateMutability": "view",
      "type": "function"
    },
    {
      "inputs": [
        {
          "internalType": "uint256",
          "name": "agentId",
          "type": "uint256"
        }
      ],
      "name": "getAgentConfigJSON",
      "outputs": [
        {
          "internalType": "string",
          "name": "",
          "type": "string"
        }
      ],
      "stateMutability": "view",
      "type": "function"
    },
    {
      "inputs": [
        {
          "internalType": "uint256",
          "name": "agentId",
          "type": "uint256"
        }
      ],
      "name": "getAgentInfo",
      "outputs": [
        {
          "internalType": "string",
          "name": "name",
          "type": "string"
        },
        {
          "internalType": "string",
          "name": "agentName",
          "type": "string"
        },
        {
          "internalType": "uint256",
          "name": "fundingTarget",
          "type": "uint256"
        },
        {
          "internalType": "uint256",
          "name": "totalRaised",
          "type": "uint256"
        },
        {
          "internalType": "bool",
          "name": "isBonded",
          "type": "bool"
        },
        {
          "internalType": "address",
          "name": "creator",
          "type": "address"
        },
        {
          "internalType": "address",
          "name": "tokenAddress",
          "type": "address"
        },
        {
          "internalType": "address",
          "name": "lpPairAddress",
          "type": "address"
        },
        {
          "internalType": "string",
          "name": "agentConfigJSON",
          "type": "string"
        }
      ],
      "stateMutability": "view",
      "type": "function"
    },
    {
      "inputs": [
        {
          "internalType": "address",
          "name": "creator",
          "type": "address"
        }
      ],
      "name": "getAgentsByCreator",
      "outputs": [
        {
          "internalType": "uint256[]",
          "name": "",
          "type": "uint256[]"
        }
      ],
      "stateMutability": "view",
      "type": "function"
    },
    {
      "inputs": [
        {
          "internalType": "uint256",
          "name": "startTime",
          "type": "uint256"
        },
        {
          "internalType": "uint256",
          "name": "endTime",
          "type": "uint256"
        },
        {
          "internalType": "bool",
          "name": "onlyBonded",
          "type": "bool"
        }
      ],
      "name": "getAgentsByTimeRange",
      "outputs": [
        {
          "internalType": "uint256[]",
          "name": "matchingAgentIds",
          "type": "uint256[]"
        }
      ],
      "stateMutability": "view",
      "type": "function"
    },
    {
      "inputs": [],
      "name": "getAllBondedTokens",
      "outputs": [
        {
          "internalType": "address[]",
          "name": "tokenAddresses",
          "type": "address[]"
        },
        {
          "internalType": "string[]",
          "name": "names",
          "type": "string[]"
        },
        {
          "internalType": "string[]",
          "name": "symbols",
          "type": "string[]"
        },
        {
          "internalType": "address[]",
          "name": "lpPairs",
          "type": "address[]"
        },
        {
          "internalType": "uint256[]",
          "name": "agentIds",
          "type": "uint256[]"
        }
      ],
      "stateMutability": "view",
      "type": "function"
    },
    {
      "inputs": [
        {
          "internalType": "uint256",
          "name": "offset",
          "type": "uint256"
        },
        {
          "internalType": "uint256",
          "name": "limit",
          "type": "uint256"
        }
      ],
      "name": "getBondedTokensPaginated",
      "outputs": [
        {
          "internalType": "address[]",
          "name": "tokenAddresses",
          "type": "address[]"
        },
        {
          "internalType": "string[]",
          "name": "names",
          "type": "string[]"
        },
        {
          "internalType": "string[]",
          "name": "symbols",
          "type": "string[]"
        },
        {
          "internalType": "address[]",
          "name": "lpPairs",
          "type": "address[]"
        },
        {
          "internalType": "uint256[]",
          "name": "agentIds",
          "type": "uint256[]"
        },
        {
          "internalType": "uint256",
          "name": "totalCount",
          "type": "uint256"
        }
      ],
      "stateMutability": "view",
      "type": "function"
    },
    {
      "inputs": [
        {
          "internalType": "uint256",
          "name": "agentId",
          "type": "uint256"
        },
        {
          "internalType": "address",
          "name": "contributor",
          "type": "address"
        }
      ],
      "name": "getContribution",
      "outputs": [
        {
          "internalType": "uint256",
          "name": "",
          "type": "uint256"
        }
      ],
      "stateMutability": "view",
      "type": "function"
    },
    {
      "inputs": [],
      "name": "getCurrentAgentId",
      "outputs": [
        {
          "internalType": "uint256",
          "name": "",
          "type": "uint256"
        }
      ],
      "stateMutability": "view",
      "type": "function"
    },
    {
      "inputs": [],
      "name": "getInProgressAgents",
      "outputs": [
        {
          "internalType": "uint256[]",
          "name": "agentIds",
          "type": "uint256[]"
        },
        {
          "internalType": "string[]",
          "name": "agentNames",
          "type": "string[]"
        },
        {
          "internalType": "uint256[]",
          "name": "fundingTargets",
          "type": "uint256[]"
        },
        {
          "internalType": "uint256[]",
          "name": "totalRaised",
          "type": "uint256[]"
        },
        {
          "internalType": "uint256[]",
          "name": "fundingProgress",
          "type": "uint256[]"
        },
        {
          "internalType": "address[]",
          "name": "tokenAddresses",
          "type": "address[]"
        }
      ],
      "stateMutability": "view",
      "type": "function"
    },
    {
      "inputs": [
        {
          "internalType": "uint256",
          "name": "offset",
          "type": "uint256"
        },
        {
          "internalType": "uint256",
          "name": "limit",
          "type": "uint256"
        }
      ],
      "name": "getInProgressAgentsPaginated",
      "outputs": [
        {
          "internalType": "uint256[]",
          "name": "agentIds",
          "type": "uint256[]"
        },
        {
          "internalType": "string[]",
          "name": "agentNames",
          "type": "string[]"
        },
        {
          "internalType": "uint256[]",
          "name": "fundingTargets",
          "type": "uint256[]"
        },
        {
          "internalType": "uint256[]",
          "name": "totalRaised",
          "type": "uint256[]"
        },
        {
          "internalType": "uint256[]",
          "name": "fundingProgress",
          "type": "uint256[]"
        },
        {
          "internalType": "address[]",
          "name": "tokenAddresses",
          "type": "address[]"
        },
        {
          "internalType": "uint256",
          "name": "totalCount",
          "type": "uint256"
        }
      ],
      "stateMutability": "view",
      "type": "function"
    },
    {
      "inputs": [
        {
          "internalType": "uint256",
          "name": "agentId",
          "type": "uint256"
        }
      ],
      "name": "getLiquidityPool",
      "outputs": [
        {
          "internalType": "address",
          "name": "",
          "type": "address"
        }
      ],
      "stateMutability": "view",
      "type": "function"
    },
    {
      "inputs": [],
      "name": "getTotalCounts",
      "outputs": [
        {
          "internalType": "uint256",
          "name": "totalAgents",
          "type": "uint256"
        },
        {
          "internalType": "uint256",
          "name": "bondedAgents",
          "type": "uint256"
        },
        {
          "internalType": "uint256",
          "name": "inProgressAgents",
          "type": "uint256"
        }
      ],
      "stateMutability": "view",
      "type": "function"
    },
    {
      "inputs": [
        {
          "internalType": "uint256",
          "name": "",
          "type": "uint256"
        }
      ],
      "name": "inProgressAgentIds",
      "outputs": [
        {
          "internalType": "uint256",
          "name": "",
          "type": "uint256"
        }
      ],
      "stateMutability": "view",
      "type": "function"
    },
    {
      "inputs": [
        {
          "internalType": "uint256",
          "name": "agentId",
          "type": "uint256"
        }
      ],
      "name": "isAgentBonded",
      "outputs": [
        {
          "internalType": "bool",
          "name": "",
          "type": "bool"
        }
      ],
      "stateMutability": "view",
      "type": "function"
    },
    {
      "inputs": [],
      "name": "liquidityManager",
      "outputs": [
        {
          "internalType": "address",
          "name": "",
          "type": "address"
        }
      ],
      "stateMutability": "view",
      "type": "function"
    },
    {
      "inputs": [],
      "name": "owner",
      "outputs": [
        {
          "internalType": "address",
          "name": "",
          "type": "address"
        }
      ],
      "stateMutability": "view",
      "type": "function"
    },
    {
      "inputs": [],
      "name": "pause",
      "outputs": [],
      "stateMutability": "nonpayable",
      "type": "function"
    },
    {
      "inputs": [],
      "name": "paused",
      "outputs": [
        {
          "internalType": "bool",
          "name": "",
          "type": "bool"
        }
      ],
      "stateMutability": "view",
      "type": "function"
    },
    {
      "inputs": [],
      "name": "protocolFeePercentage",
      "outputs": [
        {
          "internalType": "uint256",
          "name": "",
          "type": "uint256"
        }
      ],
      "stateMutability": "view",
      "type": "function"
    },
    {
      "inputs": [],
      "name": "renounceOwnership",
      "outputs": [],
      "stateMutability": "nonpayable",
      "type": "function"
    },
    {
      "inputs": [
        {
          "internalType": "address",
          "name": "_liquidityManager",
          "type": "address"
        }
      ],
      "name": "setLiquidityManager",
      "outputs": [],
      "stateMutability": "nonpayable",
      "type": "function"
    },
    {
      "inputs": [
        {
          "internalType": "uint256",
          "name": "_percentage",
          "type": "uint256"
        }
      ],
      "name": "setLiquidityPercentage",
      "outputs": [],
      "stateMutability": "nonpayable",
      "type": "function"
    },
    {
      "inputs": [
        {
          "internalType": "uint256",
          "name": "_feePercentage",
          "type": "uint256"
        }
      ],
      "name": "setProtocolFeePercentage",
      "outputs": [],
      "stateMutability": "nonpayable",
      "type": "function"
    },
    {
      "inputs": [
        {
          "internalType": "uint256",
          "name": "_percentage",
          "type": "uint256"
        }
      ],
      "name": "setTokenLPPercentage",
      "outputs": [],
      "stateMutability": "nonpayable",
      "type": "function"
    },
    {
      "inputs": [
        {
          "internalType": "address",
          "name": "_treasuryAddress",
          "type": "address"
        }
      ],
      "name": "setTreasuryAddress",
      "outputs": [],
      "stateMutability": "nonpayable",
      "type": "function"
    },
    {
      "inputs": [
        {
          "internalType": "address",
          "name": "",
          "type": "address"
        }
      ],
      "name": "tokenToAgentId",
      "outputs": [
        {
          "internalType": "uint256",
          "name": "",
          "type": "uint256"
        }
      ],
      "stateMutability": "view",
      "type": "function"
    },
    {
      "inputs": [
        {
          "internalType": "address",
          "name": "newOwner",
          "type": "address"
        }
      ],
      "name": "transferOwnership",
      "outputs": [],
      "stateMutability": "nonpayable",
      "type": "function"
    },
    {
      "inputs": [],
      "name": "treasuryAddress",
      "outputs": [
        {
          "internalType": "address",
          "name": "",
          "type": "address"
        }
      ],
      "stateMutability": "view",
      "type": "function"
    },
    {
      "inputs": [],
      "name": "unpause",
      "outputs": [],
      "stateMutability": "nonpayable",
      "type": "function"
    },
    {
      "stateMutability": "payable",
      "type": "receive"
    }
  ],
  "bytecode": "0x6080346200012357601f6200769a38819003918201601f19168301916001600160401b0383118484101762000128578084926020946040528339810103126200012357516001600160a01b0380821691829003620001235733156200010a576000549060018060a01b0319913383821617600055604051913391167f8be0079c531659141344cd1fd0a4f28419497f9722a3daafe3b4186f6b6457e0600080a36001805561012c600d55611f40600e55612328600f558215620000d55750600b541617600b5560405161755b90816200013f8239f35b62461bcd60e51b815260206004820152601060248201526f496e76616c696420747265617375727960801b6044820152606490fd5b604051631e4fbdf760e01b815260006004820152602490fd5b600080fd5b634e487b7160e01b600052604160045260246000fdfe60808060405260043610156200001f575b5036156200001d57600080fd5b005b60003560e01c9081628c5504146200236457508063045af334146200233357806319a6a6e914620022135780631a37225a14620021de5780631a3f1af5146200218d5780631c18ce2e146200215f5780633382743814620021345780633c1624d414620020c45780633d891f59146200041d5780633f4ba83a14620020555780634dd031761462001e6b578063513856c81462001c825780635c975abb1462001c5d5780636605bfda1462001bb0578063715018a61462001b64578063754c5e891462000e8057806380a3493a1462000dd7578063842e72e51462000d6a5780638456cb591462000d0a5780638da5cb5b1462000cdf5780638e50e5091462000cbf57806398be7c8d1462000c7c5780639a52878a14620006cd578063a74498aa1462000c43578063a759c8831462000aae578063b4f685e114620009f7578063ba39a1c514620009be578063bc063e1a146200099f578063bfd1769e146200097f578063c1cbbca71462000809578063c216140914620007cd578063c5f956af14620007a2578063d8a5e936146200070b578063dab7706a14620006cd578063db2e21bc1462000673578063ddef2221146200049e578063e00b5bf21462000469578063e081dbf9146200041d578063e0e33a421462000389578063e1f1c4a7146200036a578063e246578c14620002d1578063e379dcaf14620002b15763f2fde38b1462000230573862000010565b34620002ac576020366003190112620002ac576200024d620023c3565b6200025762002679565b6001600160a01b0390811690811562000293576000548260018060a01b031982161760005516600080516020620074ef833981519152600080a3005b604051631e4fbdf760e01b815260006004820152602490fd5b600080fd5b34620002ac576000366003190112620002ac576020600e54604051908152f35b34620002ac57602080600319360112620002ac576001600160a01b03620002f7620023c3565b1660005260098152604060002090604051808383829554938481520190600052836000209260005b85828210620003535750505062000339925003836200260e565b6200034f60405192828493845283019062002442565b0390f35b85548452600195860195889550930192016200031f565b34620002ac576000366003190112620002ac5760206040516127108152f35b34620002ac57620003d7620003f56200040462000413620003e6620003b9620003b23662002662565b9062002e8a565b9794989291936040969196519a8b9a60c08c5260c08c0190620024d8565b908a820360208c015262002478565b9088820360408a015262002478565b908682036060880152620024d8565b90848203608086015262002442565b9060a08301520390f35b34620002ac576040366003190112620002ac576200043a620023da565b600435600052600560205260406000209060018060a01b03166000526020526020604060002054604051908152f35b34620002ac576020366003190112620002ac576004356200048962002679565b6200049961271082111562003231565b600f55005b34620002ac576060366003190112620002ac576004356024356044358015158103620002ac5780156200066a576007925b60405192839485815491828752602080970190600052866000209260005b88828210620006535750505062000507925003866200260e565b60009260005b8651811015620005935762000523818862002e75565b51600052600486526040600020826000146200058957600d01545b838582101591826200057d575b505062000564575b6200055e90620026a6565b6200050d565b93620005746200055e91620026a6565b94905062000553565b1115905083896200054b565b600c01546200053e565b509293620005a2869562002deb565b9260009260005b87518110156200063e57620005bf818962002e75565b5180600052600485526040600020886000146200063457600d01545b8385821015918262000628575b505062000602575b50620005fc90620026a6565b620005a9565b85620006209162000619620005fc94988a62002e75565b52620026a6565b9490620005f0565b11159050838b620005e8565b600c0154620005db565b604051848152806200034f8187018962002442565b855484526001958601958b955093019201620004ed565b600692620004cf565b34620002ac576000366003190112620002ac576200069062002679565b6000805481908190819047906001600160a01b0316828215620006c3575bf115620006b757005b6040513d6000823e3d90fd5b506108fc620006ae565b34620002ac576020366003190112620002ac576001600160a01b03620006f2620023c3565b16600052600a6020526020604060002054604051908152f35b34620002ac576020366003190112620002ac576004356200072b62002679565b6103e881116200076e5760407fb404cac19fb1cbeff98d325795b08886e3cd8fe8cb1a2f193aac66f13fb239c391600d549080600d5582519182526020820152a1005b60405162461bcd60e51b815260206004820152600c60248201526b08ccaca40e8dede40d0d2ced60a31b6044820152606490fd5b34620002ac576000366003190112620002ac57600b546040516001600160a01b039091168152602090f35b34620002ac576020366003190112620002ac57600435600854811015620002ac57620007fb6020916200240d565b90546040519160031b1c8152f35b602080600319360112620002ac576004359062000825620027cb565b6200082f62002721565b6000828152600482526040902060078101546200086a9060ff906200085f6001600160a01b038216151562002740565b60a01c16156200277f565b34156200094f576008810191600562000885348554620027bd565b9201918254106200091a57836000526005815260406000203360005281526040600020620008b5348254620027bd565b9055620008c4348454620027bd565b8093558260405191348352820152837fdcfa71ee125a676f843733d9d39dce2c918ecf9e92f96db4f24bdb5244ed68a060403393a354111562000908575b60018055005b620009139062002867565b8062000902565b6064906040519062461bcd60e51b82526004820152600e60248201526d115e18d959591cc81d185c99d95d60921b6044820152fd5b60405162461bcd60e51b81526004810183905260086024820152674e6f2076616c756560c01b6044820152606490fd5b34620002ac576000366003190112620002ac576020600f54604051908152f35b34620002ac576000366003190112620002ac5760206040516103e88152f35b34620002ac576020366003190112620002ac576004356000526004602052602060ff60076040600020015460a01c166040519015158152f35b34620002ac576020366003190112620002ac5760043562000a17620027cb565b62000a2162002721565b60008181526004602052604090206007810154919062000a4c6001600160a01b038416151562002740565b600560088201549101541162000a785762000a7260ff620009029360a01c16156200277f565b62002867565b60405162461bcd60e51b815260206004820152600e60248201526d15185c99d95d081b9bdd081b595d60921b6044820152606490fd5b34620002ac576000366003190112620002ac5760075462000acf8162002deb565b9062000adb8162002e23565b62000ae68262002e23565b62000af18362002deb565b9162000afd8462002deb565b9360005b81811062000b735762000b37876200034f8862000b648962000b558a62000b468b604051998a9960a08b5260a08b0190620024d8565b9089820360208b015262002478565b90878203604089015262002478565b908582036060870152620024d8565b90838203608085015262002442565b8062000b8362000c3d92620023f1565b905460039190911b1c600081815260046020526040902060098101546001600160a01b0391600a91831662000bb9868e62002e75565b5260405162000bd68162000bce818562002554565b03826200260e565b62000be2868a62002e75565b5262000bef858962002e75565b5060405162000c078162000bce816001860162002554565b62000c13868b62002e75565b5262000c20858a62002e75565b5001541662000c30838962002e75565b5262000619828962002e75565b62000b01565b34620002ac576020366003190112620002ac576004356000526004602052602060018060a01b03600a6040600020015416604051908152f35b34620002ac576020366003190112620002ac57600435600654811015620002ac5760066000526000805160206200750f8339815191520154604051908152602090f35b34620002ac576000366003190112620002ac576020600d54604051908152f35b34620002ac576000366003190112620002ac576000546040516001600160a01b039091168152602090f35b34620002ac576000366003190112620002ac5762000d2762002679565b62000d3162002721565b600160ff1960025416176002557f62e78cea01bee320cd4e420270b5ea74000d11b0c9f74754ebdbfc544b05a2586020604051338152a1005b34620002ac576020366003190112620002ac5760043560005260046020526200034f600b62000dc2604060002062000db060018060a01b03600783015416151562002740565b62000bce604051809481930162002554565b60405191829160208352602083019062002381565b34620002ac5762000e4960e062000e5862000e7662000e3a62000e6762000e0962000e023662002662565b9062003037565b999462000e2b60409d949593979d999299519d8d8f9e8f908152019062002442565b8c810360208e01529062002478565b908a820360408c015262002442565b9088820360608a015262002442565b90868203608088015262002442565b9084820360a0860152620024d8565b9060c08301520390f35b34620002ac57610100366003190112620002ac576004356001600160401b038111620002ac5762000eb690369060040162002632565b906024356001600160401b038111620002ac5762000ed990369060040162002632565b90916044356001600160401b038111620002ac5762000efd90369060040162002632565b6064356001600160401b038111620002ac5762000f1f90369060040162002632565b9590946084356001600160401b038111620002ac5762000f4490369060040162002632565b60e4356001600160401b038111620002ac5762000f6690369060040162002632565b9a909862000f7362002721565b60a43515158062001b58575b1562001b22578115158062001b18575b1562001add576003549a62000fa48c620026a6565b6003556040516001600160401b0361427b820190811190821117620015a257806200108c8f8e90620010668f8f8f908f918f62001036936200101f918f6200104e9762001007916101008f61427b62003274823961427b018181520191620026b6565b918c602061427b820185039161427b010152620026b6565b9161427b8a018303604061427b8c010152620026b6565b61427b87018103606061427b89010152888a620026b6565b61427b86018103608061427b880101528a8c620026b6565b60c43561427b860160a08101919091523060c082015280820360e09091015291620026b6565b03906000f0998a15620006b757604051976001600160401b036101e08a01908111908a1117620015a2576200110f97620010d9620010e39362001102976101e08d016040523691620026d7565b8a523691620026d7565b6020880152620010f536898b620026d7565b60408801523691620026d7565b60608501523691620026d7565b608082015260a43560a082015260c43560c08201523360e08201526000610100820181905261012082018190526001600160a01b0385166101408301526101608201526200115f368887620026d7565b610180820152426101a082015260006101c0820152856000526004602052604060002090805180519060018060401b038211620015a2578190620011a4855462002517565b601f811162001a88575b50602090601f831160011462001a175760009262001a0b575b50508160011b916000199060031b1c19161782555b60208101518051906001600160401b038211620015a257819062001204600186015462002517565b601f8111620019b3575b50602090601f83116001146200193c5760009262001930575b50508160011b916000199060031b1c19161760018301555b60408101518051906001600160401b038211620015a257819062001267600286015462002517565b601f8111620018d8575b50602090601f8311600114620018615760009262001855575b50508160011b916000199060031b1c19161760028301555b60608101518051906001600160401b038211620015a2578190620012ca600386015462002517565b601f8111620017fd575b50602090601f831160011462001786576000926200177a575b50508160011b916000199060031b1c19161760038301555b60808101518051906001600160401b038211620015a25781906200132d600486015462002517565b601f811162001722575b50602090601f8311600114620016ab576000926200169f575b50508160011b916000199060031b1c19161760048301555b60a081810151600584015560c0820151600684015560e08201516007840180546101008501516001600160a81b03199091166001600160a01b039384161790151590931b60ff60a01b169290921790915561012082015160088401556101408201516009840180546001600160a01b0319908116928416929092179055610160830151600a8501805490921692169190911790556101808101518051906001600160401b038211620015a25762001423600b85015462002517565b601f811162001653575b50602090601f8311600114620015da579180600d94926101c094600092620015ce575b50508160011b916000199060031b1c191617600b8501555b6101a0810151600c8501550151910155600654600160401b939084811015620015a2576001810180600655811015620015b85760066000526000805160206200750f8339815191520186905560085484811015620015a25786620014d7826001620014f094016008556200240d565b90919082549060031b91821b91600019901b1916179055565b3360005260096020526040600020805494851015620015a257602097620015867f7e36331bfd1698fbf8e92106b53901904cb03103d4dc2aab1d304b51fcd2fba0956200154e8a620014d78a62001597976001849d01815562002429565b60018060a01b038516600052600a8b528760406000205560405195869560018060a01b0316865260608c8701526060860191620026b6565b9083820360408501523397620026b6565b0390a3604051908152f35b634e487b7160e01b600052604160045260246000fd5b634e487b7160e01b600052603260045260246000fd5b015190508c8062001450565b90601f19831691600b860160005260206000209260005b8181106200163a57509260019285926101c096600d98961062001620575b505050811b01600b85015562001468565b015160001960f88460031b161c191690558c80806200160f565b92936020600181928786015181550195019301620015f1565b600b85016000526020600020601f840160051c81016020851062001697575b601f830160051c820181106200168a5750506200142d565b6000815560010162001672565b508062001672565b015190508a8062001350565b9250600485016000526020600020906000935b601f198416851062001706576001945083601f19811610620016ec575b505050811b01600483015562001368565b015160001960f88460031b161c191690558a8080620016db565b81810151835560209485019460019093019290910190620016be565b909150600485016000526020600020601f840160051c81016020851062001772575b90849392915b601f830160051c820181106200176257505062001337565b600081558594506001016200174a565b508062001744565b015190508a80620012ed565b9250600385016000526020600020906000935b601f1984168510620017e1576001945083601f19811610620017c7575b505050811b01600383015562001305565b015160001960f88460031b161c191690558a8080620017b6565b8181015183556020948501946001909301929091019062001799565b909150600385016000526020600020601f840160051c8101602085106200184d575b90849392915b601f830160051c820181106200183d575050620012d4565b6000815585945060010162001825565b50806200181f565b015190508a806200128a565b9250600285016000526020600020906000935b601f1984168510620018bc576001945083601f19811610620018a2575b505050811b016002830155620012a2565b015160001960f88460031b161c191690558a808062001891565b8181015183556020948501946001909301929091019062001874565b909150600285016000526020600020601f840160051c81016020851062001928575b90849392915b601f830160051c820181106200191857505062001271565b6000815585945060010162001900565b5080620018fa565b015190508a8062001227565b9250600185016000526020600020906000935b601f198416851062001997576001945083601f198116106200197d575b505050811b0160018301556200123f565b015160001960f88460031b161c191690558a80806200196c565b818101518355602094850194600190930192909101906200194f565b909150600185016000526020600020601f840160051c81016020851062001a03575b90849392915b601f830160051c82018110620019f35750506200120e565b60008155859450600101620019db565b5080620019d5565b015190508a80620011c7565b9250846000526020600020906000935b601f198416851062001a6c576001945083601f1981161062001a52575b505050811b018255620011dc565b015160001960f88460031b161c191690558a808062001a44565b8181015183556020948501946001909301929091019062001a27565b909150846000526020600020601f840160051c81016020851062001ad5575b90849392915b601f830160051c8201811062001ac5575050620011ae565b6000815585945060010162001aad565b508062001aa7565b60405162461bcd60e51b8152602060048201526013602482015272125b9d985b1a59081b985b594bdcde5b589bdb606a1b6044820152606490fd5b5084151562000f8f565b60405162461bcd60e51b815260206004820152600e60248201526d496e76616c696420706172616d7360901b6044820152606490fd5b5060c435151562000f7f565b34620002ac576000366003190112620002ac5762001b8162002679565b600080546001600160a01b0319811682556001600160a01b0316600080516020620074ef8339815191528280a3005b34620002ac576020366003190112620002ac5762001bcd620023c3565b62001bd762002679565b6001600160a01b0390811690811562001c2657600b80546001600160a01b031981168417909155167f430359a6d97ced2b6f93c77a91e7ce9dfd43252eb91e916adba170485cd8a6a4600080a3005b60405162461bcd60e51b815260206004820152600f60248201526e496e76616c6964206164647265737360881b6044820152606490fd5b34620002ac576000366003190112620002ac57602060ff600254166040519015158152f35b34620002ac576020366003190112620002ac57600435600052600460205260406000206040518062001cb5818462002554565b0362001cc290826200260e565b604051918262001cd6816001840162002554565b0362001ce390846200260e565b6040518062001cf6816002850162002554565b0362001d0390826200260e565b6040518062001d16816003860162002554565b0362001d2390826200260e565b6040518062001d36816004870162002554565b0362001d4390826200260e565b60058401546006850154600786015460088701546009880154600a8901546040519795966001600160a01b03918216969290911694929392918862001d8c81600b8e0162002554565b0362001d99908a6200260e565b600c8b01549a600d0154996040519d8e809e6101e0808352820162001dbe9162002381565b90808203906020015262001dd29162002381565b8d810360408f015262001de59162002381565b8c810360608e015262001df89162002381565b8b810360808d015262001e0b9162002381565b9560a08b015260c08a0152600160a01b60019003811660e08a015260a01c60ff16151561010089015261012088015261014087015261016086015284810361018086015262001e5a9162002381565b916101a08401526101c08301520390f35b34620002ac576000366003190112620002ac57600880549062001e8e8262002deb565b9062001e9a8362002e23565b62001ea58462002deb565b62001eb08562002deb565b9162001ebc8662002deb565b9562001ec88162002deb565b9460005b82811062001f525762001f07886200034f8962001f438d62001f348c62001f258d62001f168e6040519b8c9b60c08d5260c08d019062002442565b908b820360208d015262002478565b9089820360408b015262002442565b90878203606089015262002442565b90858203608087015262002442565b9083820360a0850152620024d8565b62001f5d816200240d565b90549060031b1c9081600052600460205260406000209162001f80828b62002e75565b5260405162001f988162000bce816002870162002554565b62001fa4828762002e75565b5262001fb1818662002e75565b506005820154918262001fc5838962002e75565b52838101548062001fd7848b62002e75565b52831562002046576127109081810291818304149015171562002030576200202a93620020049162002803565b62002010838d62002e75565b52600901546001600160a01b031662000619828a62002e75565b62001ecc565b634e487b7160e01b600052601160045260246000fd5b506200202a9250600062002004565b34620002ac576000366003190112620002ac576200207262002679565b60025460ff811615620020b25760ff19166002557f5db9ee0a495bf2e6ff9c91a7834c1ba4fdd244a5e8aa4e537bd38aeae4b073aa6020604051338152a1005b604051638dfc202b60e01b8152600490fd5b34620002ac576020366003190112620002ac57620020e1620023c3565b620020eb62002679565b600c80546001600160a01b039283166001600160a01b0319821681179092559091167f7a23c2d9e7688d2e4d01a7a7125f21c069aae6241e6bd800cf0bfc2f4cfae520600080a3005b34620002ac576000366003190112620002ac57600c546040516001600160a01b039091168152602090f35b34620002ac576020366003190112620002ac57600435600754811015620002ac57620007fb602091620023f1565b34620002ac576040366003190112620002ac57620021aa620023c3565b6001600160a01b0316600090815260096020526040902080546024359190821015620002ac57602091620007fb9162002429565b34620002ac576020366003190112620002ac57600435620021fe62002679565b6200220e61271082111562003231565b600e55005b34620002ac576020366003190112620002ac576004356000526004602052620022f060406000206200034f6007820154600b60018060a01b0391828116926200225e84151562002740565b60058601549360ff6008880154938360098a01541693600a8a01541694620022ff6040519a6200229c8c62002294818462002554565b038d6200260e565b620022da60405191620022c083620022b8816002850162002554565b03846200260e565b620022d2604051809c81930162002554565b038a6200260e565b6040519c8d9c8d61012090818152019062002381565b8c810360208e01529062002381565b9760408b015260608a015260a01c161515608088015260a087015260c086015260e085015283820361010085015262002381565b34620002ac576000366003190112620002ac5760606006546007546008549060405192835260208301526040820152f35b34620002ac576000366003190112620002ac576020906003548152f35b919082519283825260005b848110620023ae575050826000602080949584010152601f8019910116010190565b6020818301810151848301820152016200238c565b600435906001600160a01b0382168203620002ac57565b602435906001600160a01b0382168203620002ac57565b600754811015620015b857600760005260206000200190600090565b600854811015620015b857600860005260206000200190600090565b8054821015620015b85760005260206000200190600090565b90815180825260208080930193019160005b82811062002463575050505090565b83518552938101939281019260010162002454565b908082519081815260208091019281808460051b8301019501936000915b848310620024a75750505050505090565b9091929394958480620024c7600193601f198682030187528a5162002381565b980193019301919493929062002496565b90815180825260208080930193019160005b828110620024f9575050505090565b83516001600160a01b031685529381019392810192600101620024ea565b90600182811c9216801562002549575b60208310146200253357565b634e487b7160e01b600052602260045260246000fd5b91607f169162002527565b9060009291805491620025678362002517565b918282526001938481169081600014620025ce57506001146200258b575b50505050565b90919394506000526020928360002092846000945b838610620025b957505050500101903880808062002585565b805485870183015294019385908201620025a0565b9294505050602093945060ff191683830152151560051b0101903880808062002585565b602081019081106001600160401b03821117620015a257604052565b601f909101601f19168101906001600160401b03821190821017620015a257604052565b9181601f84011215620002ac578235916001600160401b038311620002ac5760208381860195010111620002ac57565b6040906003190112620002ac576004359060243590565b6000546001600160a01b031633036200268e57565b60405163118cdaa760e01b8152336004820152602490fd5b6000198114620020305760010190565b908060209392818452848401376000828201840152601f01601f1916010190565b9192916001600160401b038211620015a2576040519162002703601f8201601f1916602001846200260e565b829481845281830111620002ac578281602093846000960137010152565b60ff600254166200272e57565b60405163d93c066560e01b8152600490fd5b156200274857565b60405162461bcd60e51b815260206004820152600f60248201526e1059d95b9d081b9bdd08199bdd5b99608a1b6044820152606490fd5b156200278757565b60405162461bcd60e51b815260206004820152600e60248201526d105b1c9958591e48189bdb99195960921b6044820152606490fd5b919082018092116200203057565b600260015414620027dd576002600155565b604051633ee5aeb560e01b8152600490fd5b818102929181159184041417156200203057565b81156200280e570490565b634e487b7160e01b600052601260045260246000fd5b919082039182116200203057565b90816020910312620002ac57518015158103620002ac5790565b6001600160a01b039091168152602081019190915260400190565b600090808252600491602091838352620028cf60409283812095600896878101549261271093846200289c600d5483620027ef565b049581620028c987620028bf620028b58b809762002824565b600e5490620027ef565b0498899262002824565b62002824565b60078401805460ff60a01b1916600160a01b17815542600d8601559091835b8c548082101562002dbf578a9062002906836200240d565b929054600393841b1c14620029285750506200292290620026a6565b620028ee565b9092939495969798999a9b9c9d916000199182810190811162002dac5790620014d76200295962002966936200240d565b905490871b1c916200240d565b8154801562002d99578101926200297d846200240d565b81939154921b1b19169055555b600754600160401b81101562002d865790620029b58a620014d78460018998979601600755620023f1565b8015801562002d41575b5050811590811562002d02575b505050928760018060a01b03958a87600c541615158062002cf8575b1562002c685750600685019081549062002a05600f5483620027ef565b049862002a358d60098901938b855416968c600c54169051938492839263095ea7b360e01b84528b84016200284c565b03818a895af1801562002c5e578d8f9796959493888f938f958f908e9262002c3c575b5085848c62002a9f84600c5416948c54169589519b8c978896879563a8f0ad4560e01b87528601526024850152604484015260806064840152600b60848401910162002554565b03925af18a948162002be7575b5062002b735750505050508798508462002ae4969798600b54169154938c519788958694859363a9059cbb60e01b855284016200284c565b03925af190811562002b6857509162002b2f916000805160206200752f83398151915295949362002b34575b505b600b8460098301541697519485948a865216988401910162002554565b0390a4565b62002b5890893d8b1162002b60575b62002b4f81836200260e565b81019062002832565b503862002b10565b503d62002b43565b8751903d90823e3d90fd5b600a8b0180546001600160a01b0319168e8616908117909155945482519182529881019d909d526000805160206200752f8339815191529c929a5062002b2f99985092968b16955093507f3a892b22de9bdbbee773309ccc9f2efaedc27fdf0ce7fbd92826acc192b6e8379250a462002b12565b93509495969798839194508092503d831162002c34575b62002c0a81836200260e565b8101031262002c3057518a8116810362002c30578d8f9796959493928e92933862002aac565b8780fd5b503d62002bfe565b62002c5690843d861162002b605762002b4f81836200260e565b503862002a58565b8d513d89823e3d90fd5b92915050858495969750600962002ca39501541687600b5416846006880154938c519788958694859363a9059cbb60e01b855284016200284c565b03925af190811562002b6857509162002b2f916000805160206200752f83398151915295949362002cd6575b5062002b12565b62002cf090893d8b1162002b605762002b4f81836200260e565b503862002ccf565b50881515620029e8565b548392839283926001600160a01b031690839062002d37575bf11562002d2c5780388080620029cc565b8651903d90823e3d90fd5b506108fc62002d1b565b600b54939492938392839283926001600160a01b031690839062002d7c575bf11562002d72579082913880620029bf565b88513d84823e3d90fd5b506108fc62002d60565b634e487b7160e01b855260418752602485fd5b634e487b7160e01b885260318a52602488fd5b634e487b7160e01b895260118b52602489fd5b5050909192939495969798999a506200298a565b6001600160401b038111620015a25760051b60200190565b9062002df78262002dd3565b62002e0660405191826200260e565b828152809262002e19601f199162002dd3565b0190602036910137565b9062002e2f8262002dd3565b62002e3e60405191826200260e565b828152809262002e51601f199162002dd3565b019060005b82811062002e6357505050565b80606060208093850101520162002e56565b8051821015620015b85760209160051b010190565b91600754918284101562002fcd5762002ea49084620027bd565b8383821162002fc4575b62002eb99162002824565b62002ec48162002deb565b9362002ed08262002e23565b9362002edc8362002e23565b9362002ee88462002deb565b9362002ef48162002deb565b93600090815b83811062002f085750505050565b80898c600a8d62002fa18562002f2d62002f2762002fbe998b620027bd565b620023f1565b90549060031b1c95868b5260046020528a62002f8b8360408093209660018060a01b039962002f64838c60098c0154169262002e75565b52835162002f788162000bce818c62002554565b62002f84838362002e75565b5262002e75565b505162002f788162000bce816001890162002554565b5001541662002fb1838c62002e75565b5262000619828a62002e75565b62002efa565b83915062002eae565b5090915060405162002fdf81620025f2565b60008082526040519362002ff385620025f2565b818552604051936200300585620025f2565b828552604051936200301785620025f2565b838552604051936200302985620025f2565b808552368137959493929190565b91600880549283851015620031b757620030529085620027bd565b84848211620031ae575b620030679162002824565b90620030738262002deb565b946200307f8362002e23565b946200308b8462002deb565b94620030978562002deb565b94620030a38162002deb565b94620030af8262002deb565b9460005b838110620030c15750505050565b8b81808d6200311c82620030e0620030da828a620027bd565b6200240d565b90549060031b1c9283600052600493846020526040906200310684836000209a62002e75565b525162002f788162000bce8160028c0162002554565b508d62003130600586015494859262002e75565b528c620031438886015493849262002e75565b52600083156200319d57506127109182810292818404149015171562003188575062003182939291620031769162002803565b62002010838c62002e75565b620030b3565b601190634e487b7160e01b6000525260246000fd5b915050620031829392915062003176565b8491506200305c565b50509091506040805190620031cc82620025f2565b6000808352815194620031df86620025f2565b818652825194620031f086620025f2565b8286528351946200320186620025f2565b8386528451946200321286620025f2565b84865251936200322285620025f2565b80855236813796959493929190565b156200323957565b60405162461bcd60e51b8152602060048201526012602482015271496e76616c69642070657263656e7461676560701b6044820152606490fdfe610160806040523462000142576200427b90813803809262000021826200015d565b823981810190610100809312620001425780516001600160401b03929083811162000142578162000054918401620001db565b91610180518481116200014257826200006f918301620001db565b6101a05185811162000142578362000089918401620001db565b6101c051868111620001425784620000a3918501620001db565b906101e051878111620001425785620000be918601620001db565b926102005194620000ce62000241565b9661024051998a116200014257620000f399620000ec9201620001db565b9662000a1d565b604051612b3e91826200171d833960805182611ffb015260a051826120b6015260c05182611fc5015260e0518261204a0152518161207001526101205181610e4b01526101405181610e740152f35b600080fd5b634e487b7160e01b600052604160045260246000fd5b601f01601f1916610160908101906001600160401b038211908210176200018357604052565b62000147565b604081019081106001600160401b038211176200018357604052565b60405190620001b48262000189565b565b60005b838110620001ca5750506000910152565b8181015183820152602001620001b9565b81601f82011215620001425780516001600160401b0392838211620001835760405193601f8301601f19908116603f011685019081118582101762000183576040528184526020828401011162000142576200023e9160208085019101620001b6565b90565b61022051906001600160a01b03821682036200014257565b90600182811c921680156200028b575b60208310146200027557565b634e487b7160e01b600052602260045260246000fd5b91607f169162000269565b601f8111620002a3575050565b6000906003825260208220906020601f850160051c83019410620002e4575b601f0160051c01915b828110620002d857505050565b818155600101620002cb565b9092508290620002c2565b601f8111620002fc575050565b6000906004825260208220906020601f850160051c830194106200033d575b601f0160051c01915b8281106200033157505050565b81815560010162000324565b90925082906200031b565b601f811162000355575050565b600090600d825260208220906020601f850160051c8301941062000396575b601f0160051c01915b8281106200038a57505050565b8181556001016200037d565b909250829062000374565b601f8111620003ae575050565b600090600e825260208220906020601f850160051c83019410620003ef575b601f0160051c01915b828110620003e357505050565b818155600101620003d6565b9092508290620003cd565b601f811162000407575050565b600090600f825260208220906020601f850160051c8301941062000448575b601f0160051c01915b8281106200043c57505050565b8181556001016200042f565b909250829062000426565b601f811162000460575050565b6000906010825260208220906020601f850160051c83019410620004a1575b601f0160051c01915b8281106200049557505050565b81815560010162000488565b90925082906200047f565b601f8111620004b9575050565b6000906005825260208220906020601f850160051c83019410620004fa575b601f0160051c01915b828110620004ee57505050565b818155600101620004e1565b9092508290620004d8565b601f811162000512575050565b6000906006825260208220906020601f850160051c8301941062000553575b601f0160051c01915b8281106200054757505050565b8181556001016200053a565b909250829062000531565b80519091906001600160401b03811162000183576200058a816200058460045462000259565b620002ef565b602080601f8311600114620005c95750819293600092620005bd575b50508160011b916000199060031b1c191617600455565b015190503880620005a6565b6004600052601f198316949091907f8a35acfbc15ff81a39ae7d344fd709f28e8600b4aa8c65c6b64bfe7fe36bd19b926000905b878210620006385750508360019596106200061e575b505050811b01600455565b015160001960f88460031b161c1916905538808062000613565b80600185968294968601518155019501930190620005fd565b80519091906001600160401b03811162000183576200067d8162000677600d5462000259565b62000348565b602080601f8311600114620006bc5750819293600092620006b0575b50508160011b916000199060031b1c191617600d55565b01519050388062000699565b600d600052601f198316949091907fd7b6990105719101dabeb77144f2a3385c8033acd3af97e9423a695e81ad1eb5926000905b8782106200072b57505083600195961062000711575b505050811b01600d55565b015160001960f88460031b161c1916905538808062000706565b80600185968294968601518155019501930190620006f0565b80519091906001600160401b038111620001835762000770816200076a600e5462000259565b620003a1565b602080601f8311600114620007af5750819293600092620007a3575b50508160011b916000199060031b1c191617600e55565b0151905038806200078c565b600e600052601f198316949091907fbb7b4a454dc3493923482f07822329ed19e8244eff582cc204f8554c3620c3fd926000905b8782106200081e57505083600195961062000804575b505050811b01600e55565b015160001960f88460031b161c19169055388080620007f9565b80600185968294968601518155019501930190620007e3565b80519091906001600160401b038111620001835762000863816200085d600f5462000259565b620003fa565b602080601f8311600114620008a2575081929360009262000896575b50508160011b916000199060031b1c191617600f55565b0151905038806200087f565b600f600052601f198316949091907f8d1108e10bcb7c27dddfc02ed9d693a074039d026cf4ea4240b40f7d581ac802926000905b87821062000911575050836001959610620008f7575b505050811b01600f55565b015160001960f88460031b161c19169055388080620008ec565b80600185968294968601518155019501930190620008d6565b80519091906001600160401b038111620001835762000956816200095060105462000259565b62000453565b602080601f831160011462000995575081929360009262000989575b50508160011b916000199060031b1c191617601055565b01519050388062000972565b6010600052601f198316949091907f1b6847dc741a1b0cd08d278845f9d819d87b734759afb55fe2de5cb82a9ae672926000905b87821062000a04575050836001959610620009ea575b505050811b01601055565b015160001960f88460031b161c19169055388080620009df565b80600185968294968601518155019501930190620009c9565b969192969493946040519062000a338262000189565b600180835260209081840194603160f81b8652835160018060401b038111620001835762000a6e8162000a6860035462000259565b62000296565b8392601f821160011462000b725781809162000aa49560009362000b66575b501b916000199060031b1c1916176003556200055e565b62000aaf8262001015565b6101205262000abe8362001125565b61014052815191012060e052519020610100524660a05262000adf620012a4565b6080523060c0526001600160a01b0385161562000b4d5762000b3962000b469462000b33620001b49862000b2d62000b3f9662000b1c8b62000bfe565b62000b276001600c55565b62000651565b62000744565b62000837565b6200092a565b8262000f27565b8062000c61565b604051631e4fbdf760e01b815260006004820152602490fd5b88015192503862000a8d565b60036000529192601f198216907fc2575a0e9e593c00f959f8c92f12db2869c3395a3b0502d05e2516446f71f85b9160005b8782821062000be9575050908362000aa496959493921062000bcf575b5050811b016003556200055e565b87015160001960f88460031b161c19169055388062000bc1565b89840151855593860193928301920162000ba4565b600b80546001600160a01b039283166001600160a01b0319821681179092559091167f8be0079c531659141344cd1fd0a4f28419497f9722a3daafe3b4186f6b6457e0600080a3565b6001600160a01b0316600090815260096020526040902090565b6001600160a01b0390811660008181526008602052604080822080548686166001600160a01b031982168117909255620001b4969516949391929185907f3134e8a2e6d97e929a7e54011ea5485d7d196dd5f0ba4d4ef95803e8e3fc257f8480a4806020522054915b6001600160a01b0380831693929190811690818514158062000e49575b62000cf4575b5050505050565b8162000d62575b50508262000d0c575b808062000ced565b6000805160206200425b8339815191529162000d3762000d3062000d3e9362000c47565b9162001310565b9062000e53565b604080516001600160d01b039384168152919092166020820152a238808062000d04565b62000d6d9062000c47565b62000d788462001310565b9065ffffffffffff9081431162000e2a57805460008162000de55750509062000dc29162000db86000805160206200425b833981519152946000620016e8565b914316906200153f565b604080516001600160d01b039384168152919092166020820152a2388062000cfb565b6000939291931994848681011162000e24576000805160206200425b8339815191529562000dc2956020848662000db896522001015460301c620016e8565b62000f11565b6040516306dfcc6560e41b815260306004820152436024820152604490fd5b5083151562000ce7565b65ffffffffffff9081431162000e2a57805460008162000e8457505062000db862000e8093600062001702565b9091565b9093600019858181011162000e245762000e80956020848662000db896522001015460301c62001702565b65ffffffffffff80431162000e2a57600a5460008162000ee557505062000edc62000e80926000620016e8565b90431662001445565b9092600019848181011162000e245762000e8094602084600a62000edc96522001015460301c620016e8565b634e487b7160e01b600052601160045260246000fd5b906001600160a01b038216801562000ffc5762000f5062000f4b83600254620016da565b600255565b6001600160a01b038316600090815260208181526040808320805486019055518481527fddf252ad1be2c89b69c2b068fc378daa952ba7f163c4a11628f55a4df523b3ef9190a36002546001600160d01b03811162000fd5575062000fb69082620015f9565b6015546001600160a01b03909116600090815260146020526040902055565b604051630e58ae9360e11b815260048101919091526001600160d01b036024820152604490fd5b60405163ec442f0560e01b815260006004820152602490fd5b908151602080821060001462001033575050906200023e9062001235565b6001600160401b03821162000183576200105a826200105460055462000259565b620004ac565b80601f83116001146200109a57508192936000926200108e575b50508160011b916000199060031b1c19161760055560ff90565b01519050388062001074565b6005600052601f198316949091907f036b6384b5eca791c62761152d0c79bb0604c104a5fb6f4eb0703f3154bb3db0926000905b8782106200110c575050836001959610620010f2575b505050811b0160055560ff90565b015160001960f88460031b161c19169055388080620010e4565b80600185968294968601518155019501930190620010ce565b908151602080821060001462001143575050906200023e9062001235565b6001600160401b03821162000183576200116a826200116460065462000259565b62000505565b80601f8311600114620011aa57508192936000926200119e575b50508160011b916000199060031b1c19161760065560ff90565b01519050388062001184565b6006600052601f198316949091907ff652222313e28459528d920b65115c16c04f3efc82aaedc97be59f3f377c0d3f926000905b8782106200121c57505083600195961062001202575b505050811b0160065560ff90565b015160001960f88460031b161c19169055388080620011f4565b80600185968294968601518155019501930190620011de565b601f8151116200126357602081519101516020821062001253571790565b6000198260200360031b1b161790565b6044604051809263305a27a960e01b825260206004830152620012968151809281602486015260208686019101620001b6565b601f01601f19168101030190fd5b60e051610100516040519060208201927f8b73c3c69bb8fe3d512ecc4cf759cc79239f7b179b0ffacaa9a75d522b39400f8452604083015260608201524660808201523060a082015260a0815260c0810181811060018060401b03821117620001835760405251902090565b6001600160d01b039081811162001325571690565b604490604051906306dfcc6560e41b825260d060048301526024820152fd5b60001981019190821162000e2457565b9065ffffffffffff82549181199060301b169116179055565b600a54906801000000000000000082101562000183576001820180600a55821015620013d057620001b491600a6000526020600020019065ffffffffffff81511665ffffffffffff19835416178255602060018060d01b03910151169062001354565b634e487b7160e01b600052603260045260246000fd5b90815468010000000000000000811015620001835760018101808455811015620013d057620001b4926000526020600020019065ffffffffffff81511665ffffffffffff19835416178255602060018060d01b03910151169062001354565b600a5491929180156200151057620014616200148b9162001344565b600a6000527fc65a7bb8d6351c1cf70c95a316cc6a92839c986682d98bc35f958f4883f9d2a80190565b9081549165ffffffffffff90818416918316808311620014fe57869203620014c057620014b9925062001354565b60301c9190565b5050620014f890620014e3620014d5620001a5565b65ffffffffffff9092168252565b6001600160d01b03851660208201526200136d565b620014b9565b604051632520601d60e01b8152600490fd5b50620015399062001524620014d5620001a5565b6001600160d01b03841660208201526200136d565b60009190565b80549293928015620015cf576200155a620015679162001344565b8260005260206000200190565b9182549265ffffffffffff91828516928116808411620014fe57879303620015965750620014b9925062001354565b915050620014f891620015ba620015ac620001a5565b65ffffffffffff9093168352565b6001600160d01b0386166020830152620013e6565b50906200153991620015e4620015ac620001a5565b6001600160d01b0385166020830152620013e6565b90620016058162001310565b9165ffffffffffff80431162000e2a57600a54600081620016a7575050620016389062000edc620001b495600062001702565b50506001600160a01b039081169081156200168a575b60086020527f5eff886ea0ce6ca488a3d6e336d6c0f75f46d19b42c06ce5ee98e42c96d256c75460009283526040909220548116911662000cca565b6200169f620016998462001310565b62000eaf565b50506200164e565b60009291921995838781011162000e2457620001b4966200163894602084600a62000edc96522001015460301c62001702565b9190820180921162000e2457565b6001600160d01b039182169082160390811162000e245790565b6001600160d01b039182169082160190811162000e24579056fe6080604052600436101561001257600080fd5b60003560e01c806303ee438c146102e257806306fdde03146102dd578063084278ec146102d8578063095ea7b3146102d35780630e4b2285146102ce578063139ba769146102c957806318160ddd146102c45780631f454923146102bf57806323b872dd146102ba578063313ce567146102b55780633644e515146102b05780633a46b1a8146102ab5780633c19804e146102a657806344e43cb8146102a15780634bf5d7e91461029c5780634eea6d79146102975780634f4dac6f14610242578063564f4f7614610292578063587cde1e1461028d5780635c19a95c146102885780636fcfff451461028357806370a082311461027e578063715018a614610279578063750521f5146102745780637ecebe001461026f57806381a2b38f1461026a57806384b0196e14610265578063881e1cff146102605780638b7afe2e1461025b5780638da5cb5b146102565780638e539e8c1461025157806391ddadf41461024c57806395d89b41146102475780639a6f99f9146102425780639ab24eb01461023d578063a9059cbb14610238578063b20a6f3614610233578063bf2d9e0b1461022e578063c3cda52014610229578063d505accf14610224578063d5f6aeb41461021f578063db2e21bc1461021a578063dd62ed3e14610215578063f1127ed8146102105763f2fde38b1461020b57600080fd5b6115f6565b611543565b6114f7565b6114ba565b611386565b611253565b61118a565b61114c565b61112e565b611108565b6110bf565b6109f9565b61109b565b61106f565b610fac565b610f83565b610f67565b610f28565b610e30565b610e0c565b610dd2565b610c93565b610bfd565b610bda565b610b72565b610b4e565b610b13565b610a1c565b61095d565b610847565b610776565b610752565b61066a565b610647565b61062b565b610588565b610509565b6104eb565b6104b1565b61040e565b6103dd565b610393565b61036f565b610327565b919082519283825260005b848110610313575050826000602080949584010152601f8019910116010190565b6020818301810151848301820152016102f2565b3461036a57600036600319011261036a576103666040516103528161034b8161198c565b038261171a565b6040519182916020835260208301906102e7565b0390f35b600080fd5b3461036a57600036600319011261036a576103666040516103528161034b81611a11565b3461036a57600036600319011261036a576020601554604051908152f35b600435906001600160a01b038216820361036a57565b602435906001600160a01b038216820361036a57565b3461036a57604036600319011261036a576104036103f96103b1565b6024359033611d2d565b602060405160018152f35b3461036a57600036600319011261036a576103666040516103528161034b81611a7b565b6001600160a01b0316600090815260146020526040902090565b6001600160a01b0316600090815260096020526040902090565b6001600160a01b0316600090815260208190526040902090565b6001600160a01b0316600090815260016020526040902090565b9060018060a01b0316600052602052604060002090565b3461036a57602036600319011261036a576001600160a01b036104d26103b1565b1660005260136020526020604060002054604051908152f35b3461036a57600036600319011261036a576020600254604051908152f35b3461036a57604036600319011261036a576105226103b1565b6024359081151580920361036a5760207f7390412ce304891b69b7a6d7722b373a8172b465ce957518d396801bc35e08729161055c61166c565b60018060a01b0316928360005260168252604060002060ff1981541660ff8316179055604051908152a2005b3461036a57606036600319011261036a576105a16103b1565b6105a96103c7565b6044359060018060a01b03831660005260016020526105cc33604060002061049a565b549260001984106105ee575b6105e29350611c3e565b60405160018152602090f35b82841061060a57610605836105e295033383611dbc565b6105d8565b604051637dc7a0d960e11b81528061062785873360048501611de0565b0390fd5b3461036a57600036600319011261036a57602060405160128152f35b3461036a57600036600319011261036a576020610662611fc2565b604051908152f35b3461036a57604036600319011261036a576001600160a01b0361068b6103b1565b166000908152600960205260408120906106a660243561174c565b918054829381600581116106f8575b50906020946106c492846127df565b806106de5750505b6040516001600160d01b039091168152f35b916106ea849293612319565b92815220015460301c6106cc565b9461070286612363565b860395861161074d576020956106c49385875265ffffffffffff80838a8a200154169085161060001461073b5750915b919250946106b5565b92915061074790612328565b90610732565b61193c565b3461036a57600036600319011261036a576103666040516103528161034b81611ae5565b600036600319011261036a573360009081526016602052604090205460ff161580610832575b61082057346107a757005b6107bb6107b634601154612336565b601155565b600254806107f5575b5060405134815233907ff3a9b3760e99454de4c494f7ed29f5204ab92febacb0acf52ea04ad4a9d2246690602090a2005b61081561080d61081a9261080834612910565b612343565b601554612336565b601555565b386107c4565b6040516318534d6360e21b8152600490fd5b50600b546001600160a01b031633141561079c565b3461036a57600036600319011261036a57610861436122e7565b65ffffffffffff80610872436122e7565b169116036108c757610366604051610889816116ae565b601d81527f6d6f64653d626c6f636b6e756d6265722666726f6d3d64656661756c7400000060208201526040519182916020835260208301906102e7565b6040516301bfc1c560e61b8152600490fd5b959794919361092061093c9461091261095a9c9a9761090461092e968c6101208091528d01906102e7565b908b820360208d01526102e7565b9089820360408b01526102e7565b9087820360608901526102e7565b9085820360808701526102e7565b9460a084015260c083015260e08201526101008184039101526102e7565b90565b3461036a57600036600319011261036a576040805161097f8161034b81611a11565b6103668251926109998461099281611b4f565b038561171a565b6002546011546012549183516109b28161034b81611ae5565b84516109c18161034b81611a7b565b8551916109d8836109d18161198c565b038461171a565b8651966109ef886109e881611bb9565b038961171a565b51998a998a6108d9565b3461036a57602036600319011261036a576020610662610a176103b1565b61296c565b3461036a57600080600319360112610b10576002600c5414610afe576002600c55610a463361296c565b8015610aec57336000908152601360205260409020610a66828254612336565b9055601554610a7433610432565b55610a89610a8482601254612336565b601255565b8180808084335af1610a9961292d565b5015610ada5760405190815233907fc15f451120b13b6b40c6ad6203614ab3088308bef9150c0d6f46ea79bf46422490602090a2610ad76001600c55565b80f35b6040516312171d8360e31b8152600490fd5b604051630150e2dd60e11b8152600490fd5b604051633ee5aeb560e01b8152600490fd5b80fd5b3461036a57602036600319011261036a5760206001600160a01b0380610b376103b1565b166000526008825260406000205416604051908152f35b3461036a57602036600319011261036a57610b70610b6a6103b1565b3361178d565b005b3461036a57602036600319011261036a576001600160a01b03610b936103b1565b16600052600960205260406000205463ffffffff90818111610bbb5760209160405191168152f35b604490604051906306dfcc6560e41b8252602060048301526024820152fd5b3461036a57602036600319011261036a576020610662610bf86103b1565b611c23565b3461036a57600080600319360112610b1057610c1761166c565b600b80546001600160a01b0319811690915581906001600160a01b0316600080516020612ab28339815191528280a380f35b90602060031983011261036a576001600160401b03916004359083821161036a578060238301121561036a57816004013593841161036a576024848301011161036a576024019190565b3461036a57610ca136610c49565b610ca961166c565b8015610dc0576001600160401b038111610dbb57610cd181610ccc600f54611952565b612840565b600091601f8211600114610d2c5781600080516020612ad283398151915293600091610d21575b508260011b906000198460031b1c191617600f555b610d1c604051928392836128e8565b0390a1005b905081013538610cf8565b600f6000527f8d1108e10bcb7c27dddfc02ed9d693a074039d026cf4ea4240b40f7d581ac802601f198316845b818110610da357509383600080516020612ad28339815191529510610d89575b5050600182811b01600f55610d0d565b820135600019600385901b60f8161c191690553880610d79565b83860135835560209586019560019093019201610d59565b611698565b604051630eec403f60e41b8152600490fd5b3461036a57602036600319011261036a576001600160a01b03610df36103b1565b1660005260076020526020604060002054604051908152f35b3461036a57600036600319011261036a576103666040516103528161034b81611bb9565b3461036a57600080600319360112610b1057610eda90610e6f7f0000000000000000000000000000000000000000000000000000000000000000612102565b610e987f00000000000000000000000000000000000000000000000000000000000000006121fa565b9160405191610ea6836116c9565b818352604051948594600f60f81b8652610ecc60209360e08589015260e08801906102e7565b9086820360408801526102e7565b904660608601523060808601528260a086015284820360c08601528080855193848152019401925b828110610f1157505050500390f35b835185528695509381019392810192600101610f02565b3461036a57602036600319011261036a576001600160a01b03610f496103b1565b166000526016602052602060ff604060002054166040519015158152f35b3461036a57600036600319011261036a57602047604051908152f35b3461036a57600036600319011261036a57600b546040516001600160a01b039091168152602090f35b3461036a57602036600319011261036a57610fc860043561174c565b600a54906000829160058411611014575b610fe39350612777565b600081610ff857505060405160008152602090f35b60206110048193612319565b91600a815220015460301c6106cc565b919261101f81612363565b810390811161074d57600a8252600080516020612a92833981519152810154610fe3949065ffffffffffff908116908516101561105d575091610fd9565b92915061106990612328565b90610fd9565b3461036a57600036600319011261036a57602061108b436122e7565b65ffffffffffff60405191168152f35b3461036a57600036600319011261036a576103666040516103528161034b81611b4f565b3461036a57602036600319011261036a576001600160a01b036110e06103b1565b166000526009602052602060018060d01b036110ff60406000206124c8565b16604051908152f35b3461036a57604036600319011261036a576104036111246103b1565b6024359033611c3e565b3461036a57600036600319011261036a576020601254604051908152f35b3461036a57600036600319011261036a576020601154604051908152f35b6064359060ff8216820361036a57565b6084359060ff8216820361036a57565b3461036a5760c036600319011261036a576111a36103b1565b604435906024356111b261116a565b83421161123a5761122e610b7094611235926040519060208201927fe48329057bfd03d55e49b547132e39cffd9c1820ad7b9d4c5307691425d15adf845260018060a01b0388166040840152866060840152608083015260808252611216826116e4565b61122960a43593608435935190206120dc565b611e77565b9182611e3a565b61178d565b604051632341d78760e11b815260048101859052602490fd5b3461036a5760e036600319011261036a5761126c6103b1565b6112746103c7565b6044359060643561128361117a565b81421161136d57906113056113269261131361129e88611e17565b604080517f6e71edae12b1b97f4d1f60370fef10105fa2faae0126114a169c64845d6126c9602082019081526001600160a01b03808d16938301939093529189166060820152608081018a905260a081019290925260c082019590955292839060e0820190565b03601f19810184528361171a565b61122960c4359360a435935190206120dc565b6001600160a01b03848116908216036113435750610b7092611d2d565b6040516325c0072360e11b81526001600160a01b0391821660048201529084166024820152604490fd5b60405163313c898160e11b815260048101839052602490fd5b3461036a5761139436610c49565b61139c61166c565b80156114a8576001600160401b038111610dbb576113c4816113bf601054611952565b612894565b600091601f82116001146114195781600080516020612af28339815191529360009161140e575b508260011b906000198460031b1c191617601055610d1c604051928392836128e8565b9050810135386113eb565b60106000527f1b6847dc741a1b0cd08d278845f9d819d87b734759afb55fe2de5cb82a9ae672601f198316845b81811061149057509383600080516020612af28339815191529510611476575b5050600182811b01601055610d0d565b820135600019600385901b60f8161c191690553880611466565b83860135835560209586019560019093019201611446565b604051633d9e4cad60e01b8152600490fd5b3461036a57600080600319360112610b10576114d461166c565b808080804760018060a01b03600b54165af16114ee61292d565b5015610ada5780f35b3461036a57604036600319011261036a57602061153a6115156103b1565b61151d6103c7565b6001600160a01b039091166000908152600184526040902061049a565b54604051908152f35b3461036a57604036600319011261036a5761155c6103b1565b6024359063ffffffff8216820361036a57610366916115ac9161157d611dfe565b50611586611dfe565b506001600160a01b031660009081526009602052604090206115a6611dfe565b506124f6565b50604051906115ba826116ae565b5465ffffffffffff811680835260309190911c60209283019081526040805192835290516001600160d01b031692820192909252918291820190565b3461036a57602036600319011261036a5761160f6103b1565b61161761166c565b6001600160a01b0390811690811561165357600b80546001600160a01b03198116841790915516600080516020612ab2833981519152600080a3005b604051631e4fbdf760e01b815260006004820152602490fd5b600b546001600160a01b0316330361168057565b60405163118cdaa760e01b8152336004820152602490fd5b634e487b7160e01b600052604160045260246000fd5b604081019081106001600160401b03821117610dbb57604052565b602081019081106001600160401b03821117610dbb57604052565b60a081019081106001600160401b03821117610dbb57604052565b60c081019081106001600160401b03821117610dbb57604052565b601f909101601f19168101906001600160401b03821190821017610dbb57604052565b6040519061174a826116ae565b565b65ffffffffffff61175c436122e7565b168082101561176f575061095a906122e7565b6044925060405191637669fc0f60e11b835260048301526024820152fd5b6001600160a01b03818116600081815260086020526040812080548685166001600160a01b03198216811790925561174a969416946117f49390928691907f3134e8a2e6d97e929a7e54011ea5485d7d196dd5f0ba4d4ef95803e8e3fc257f9080a4611c23565b915b6001600160a01b038083169392919081169081851415806118fd575b61181e575b5050505050565b81611881575b505082611833575b8080611817565b600080516020612b128339815191529161185861185261185e9361044c565b916122b4565b90611906565b604080516001600160d01b039384168152919092166020820152a238808061182c565b61188a9061044c565b611893846122b4565b61189c436122e7565b6001600160d01b039182806118b0866124c8565b16911690039282841161074d57600080516020612b12833981519152936118f3926118da926126d8565b6040805192851683529316602082015291829190820190565b0390a23880611824565b50831515611812565b90611910436122e7565b6001600160d01b03918280611924866124c8565b1691160191821161193c57611938926126d8565b9091565b634e487b7160e01b600052601160045260246000fd5b90600182811c92168015611982575b602083101461196c57565b634e487b7160e01b600052602260045260246000fd5b91607f1691611961565b600f546000929161199c82611952565b9081815260019283811690816000146119f657506001146119bc57505050565b90929350600f6000526020928360002092846000945b8386106119e25750505050010190565b8054858701830152940193859082016119d2565b91935050602093945060ff191683830152151560051b010190565b60035460009291611a2182611952565b9081815260019283811690816000146119f65750600114611a4157505050565b9092935060036000526020928360002092846000945b838610611a675750505050010190565b805485870183015294019385908201611a57565b600e5460009291611a8b82611952565b9081815260019283811690816000146119f65750600114611aab57505050565b90929350600e6000526020928360002092846000945b838610611ad15750505050010190565b805485870183015294019385908201611ac1565b600d5460009291611af582611952565b9081815260019283811690816000146119f65750600114611b1557505050565b90929350600d6000526020928360002092846000945b838610611b3b5750505050010190565b805485870183015294019385908201611b2b565b60045460009291611b5f82611952565b9081815260019283811690816000146119f65750600114611b7f57505050565b9092935060046000526020928360002092846000945b838610611ba55750505050010190565b805485870183015294019385908201611b95565b60105460009291611bc982611952565b9081815260019283811690816000146119f65750600114611be957505050565b9092935060106000526020928360002092846000945b838610611c0f5750505050010190565b805485870183015294019385908201611bff565b6001600160a01b031660009081526020819052604090205490565b90916001600160a01b03808316908115611d14578416908115611cfb57611c6484610466565b54838110611cdd5792611cda9492611cc99282611cd4989603611c8686610466565b55611c9086610466565b8054840190556040518381527fddf252ad1be2c89b69c2b068fc378daa952ba7f163c4a11628f55a4df523b3ef90602090a383836129c0565b601554938491610432565b55610432565b55565b846106278560405193849363391434e360e21b855260048501611de0565b60405163ec442f0560e01b815260006004820152602490fd5b604051634b637e8f60e11b815260006004820152602490fd5b6001600160a01b038082169291908315611da3578216938415611d8a5780611d807f8c5be1e5ebec7d5bd14f71427d1e84f3dd0314c0f7b2291e5b200ac8c7c3b92594611d7b602095610480565b61049a565b55604051908152a3565b604051634a1406b160e11b815260006004820152602490fd5b60405163e602df0560e01b815260006004820152602490fd5b906001600160a01b0380831615611da357811615611d8a57611d7b611cda92610480565b604091949392606082019560018060a01b0316825260208201520152565b60405190611e0b826116ae565b60006020838281520152565b6001600160a01b0316600090815260076020526040902080546001810190915590565b90611e4482611e17565b809103611e4f575050565b6040516301d4b62360e61b81526001600160a01b039092166004830152602482015260449150fd5b9161095a9391611e8693611e8f565b90929192611f35565b91906fa2a8918ca85bafe22016d0b997e4df60600160ff1b038411611f0957926020929160ff608095604051948552168484015260408301526060820152600092839182805260015afa15611efd5780516001600160a01b03811615611ef457918190565b50809160019190565b604051903d90823e3d90fd5b50505060009160039190565b60041115611f1f57565b634e487b7160e01b600052602160045260246000fd5b611f3e81611f15565b80611f47575050565b611f5081611f15565b60018103611f6a5760405163f645eedf60e01b8152600490fd5b611f7381611f15565b60028103611f945760405163fce698f760e01b815260048101839052602490fd5b80611fa0600392611f15565b14611fa85750565b6040516335e2f38360e21b81526004810191909152602490fd5b307f00000000000000000000000000000000000000000000000000000000000000006001600160a01b031614806120b3575b1561201d577f000000000000000000000000000000000000000000000000000000000000000090565b60405160208101907f8b73c3c69bb8fe3d512ecc4cf759cc79239f7b179b0ffacaa9a75d522b39400f82527f000000000000000000000000000000000000000000000000000000000000000060408201527f000000000000000000000000000000000000000000000000000000000000000060608201524660808201523060a082015260a081526120ad816116ff565b51902090565b507f00000000000000000000000000000000000000000000000000000000000000004614611ff4565b6042906120e7611fc2565b906040519161190160f01b8352600283015260228201522090565b60ff81146121405760ff811690601f821161212e5760405191612124836116ae565b8252602082015290565b604051632cd44ac360e21b8152600490fd5b5060405160055481600061215383611952565b8083526001938085169081156121d95750600114612179575b5061095a9250038261171a565b600560009081527f036b6384b5eca791c62761152d0c79bb0604c104a5fb6f4eb0703f3154bb3db094602093509091905b8183106121c157505061095a93508201013861216c565b855487840185015294850194869450918301916121aa565b905061095a94506020925060ff191682840152151560051b8201013861216c565b60ff811461221c5760ff811690601f821161212e5760405191612124836116ae565b5060405160065481600061222f83611952565b8083526001938085169081156121d95750600114612254575061095a9250038261171a565b600660009081527ff652222313e28459528d920b65115c16c04f3efc82aaedc97be59f3f377c0d3f94602093509091905b81831061229c57505061095a93508201013861216c565b85548784018501529485019486945091830191612285565b6001600160d01b03908181116122c8571690565b604490604051906306dfcc6560e41b825260d060048301526024820152fd5b65ffffffffffff908181116122fa571690565b604490604051906306dfcc6560e41b8252603060048301526024820152fd5b60001981019190821161074d57565b906001820180921161074d57565b9190820180921161074d57565b811561234d570490565b634e487b7160e01b600052601260045260246000fd5b600181111561095a57600181600160801b81101561247b575b61242361241961240f6124056123fb6123f161242f97600461242a98600160401b81101561246e575b600160201b811015612461575b62010000811015612454575b610100811015612448575b601081101561243c575b1015612434575b60030260011c6123ea818b612343565b0160011c90565b6123ea818a612343565b6123ea8189612343565b6123ea8188612343565b6123ea8187612343565b6123ea8186612343565b8093612343565b821190565b900390565b60011b6123da565b811c9160021b916123d3565b60081c91811b916123c9565b60101c9160081b916123be565b60201c9160101b916123b2565b60401c9160201b916123a5565b50600160401b9050608082901c61237c565b600a546000908061249f575050600090565b60001991818381011161074d57600a905201600080516020612a92833981519152015460301c90565b8054600091816124da57505050600090565b60001992828481011161074d5760209181522001015460301c90565b805482101561250e5760005260206000200190600090565b634e487b7160e01b600052603260045260246000fd5b6001600160d01b039091169052565b9065ffffffffffff82549181199060301b169116179055565b600a5490600160401b821015610dbb576001820180600a5582101561250e5761174a91600a6000526020600020019065ffffffffffff81511665ffffffffffff19835416178255602060018060d01b039101511690612533565b8054600160401b811015610dbb576125c3916001820181556124f6565b6125f6578165ffffffffffff61174a93511665ffffffffffff19835416178255602060018060d01b039101511690612533565b634e487b7160e01b600052600060045260246000fd5b600a5491929180156126b55761262461263c91612319565b600a600052600080516020612a928339815191520190565b9081549165ffffffffffff908184169183168083116126a35786920361266d576126669250612533565b60301c9190565b505061269e9061268c61267e61173d565b65ffffffffffff9092168252565b6126998560208301612524565b61254c565b612666565b604051632520601d60e01b8152600490fd5b506126d2906126c561267e61173d565b6126998460208301612524565b60009190565b80549293928015612759576126ef6126fc91612319565b8260005260206000200190565b9182549265ffffffffffff918285169281168084116126a35787930361272757506126669250612533565b91505061269e9161274761273961173d565b65ffffffffffff9093168352565b6127548660208401612524565b6125a6565b50906126d29161276a61273961173d565b6127548560208401612524565b905b82811061278557505090565b90918082169080831860011c820180921161074d57600a600052600080516020612a9283398151915282015465ffffffffffff90811690851610156127cd5750915b90612779565b9291506127d990612328565b906127c7565b91905b8382106127ef5750505090565b9091928083169080841860011c820180921161074d5760008581526020902082015465ffffffffffff908116908416101561282e5750925b91906127e2565b93925061283a90612328565b91612827565b601f811161284c575050565b600090600f825260208220906020601f850160051c8301941061288a575b601f0160051c01915b82811061287f57505050565b818155600101612873565b909250829061286a565b601f81116128a0575050565b6000906010825260208220906020601f850160051c830194106128de575b601f0160051c01915b8281106128d357505050565b8181556001016128c7565b90925082906128be565b90918060409360208452816020850152848401376000828201840152601f01601f1916010190565b90670de0b6b3a76400009182810292818404149015171561074d57565b3d15612967573d906001600160401b038211610dbb576040519161295b601f8201601f19166020018461171a565b82523d6000602084013e565b606090565b6001600160a01b031660009081526020819052604090205480156129ba576015546014602052604060002054810390811161074d578082029182040361074d57670de0b6b3a7640000900490565b50600090565b6001600160a01b03908116929181908415612a4c575b16908115612a04575b61174a93600052600860205280604060002054169160005260406000205416906117f6565b612a0d836122b4565b93612a17436122e7565b6001600160d01b03958680612a2a61248d565b169116900395861161074d5761174a95612a439161260c565b505093506129df565b9050612a57836122b4565b90612a61436122e7565b6001600160d01b03928380612a7461248d565b1691160192831161074d578392612a8a9161260c565b50506129d656fec65a7bb8d6351c1cf70c95a316cc6a92839c986682d98bc35f958f4883f9d2a88be0079c531659141344cd1fd0a4f28419497f9722a3daafe3b4186f6b6457e01c306e70c05992619e2128ad1ef88df75f36c9476282e59f51401b2abaa42e4e732d2e87dcc1907685c097f7373a47d8c7cd8ef98b659b5f2d4272b26aab48a7dec2bacdd2f05b59de34da9b523dff8be42e5e38e818c82fdb0bae774387a724a164736f6c6343000814000adec2bacdd2f05b59de34da9b523dff8be42e5e38e818c82fdb0bae774387a7248be0079c531659141344cd1fd0a4f28419497f9722a3daafe3b4186f6b6457e0f652222313e28459528d920b65115c16c04f3efc82aaedc97be59f3f377c0d3f9a6f5a971124dae2bf5693941e36edc8868a5e85e31dd689d4fa01b6ed18b301a164736f6c6343000814000a",
  "linkReferences": {},
  "deployedLinkReferences": {}
}