{
  "_format": "hh-sol-artifact-1",
  "contractName": "FeedbackRewardToken",
  "sourceName": "contracts/FeedbackRewardToken.sol",
  "abi": [
    {
      "inputs": [
        {
          "internalType": "string",
          "name": "name_",
          "type": "string"
        },
        {
          "internalType": "string",
          "name": "symbol_",
          "type": "string"
        },
        {
          "internalType": "address",
          "name": "owner_",
          "type": "address"
        }
      ],
      "stateMutability": "nonpayable",
      "type": "constructor"
    },
    {
      "inputs": [
        {
          "internalType": "address",
          "name": "spender",
          "type": "address"
        },
        {
          "internalType": "uint256",
          "name": "allowance",
          "type": "uint256"
        },
        {
          "internalType": "uint256",
          "name": "needed",
          "type": "uint256"
        }
      ],
      "name": "ERC20InsufficientAllowance",
      "type": "error"
    },
    {
      "inputs": [
        {
          "internalType": "address",
          "name": "sender",
          "type": "address"
        },
        {
          "internalType": "uint256",
          "name": "balance",
          "type": "uint256"
        },
        {
          "internalType": "uint256",
          "name": "needed",
          "type": "uint256"
        }
      ],
      "name": "ERC20InsufficientBalance",
      "type": "error"
    },
    {
      "inputs": [
        {
          "internalType": "address",
          "name": "approver",
          "type": "address"
        }
      ],
      "name": "ERC20InvalidApprover",
      "type": "error"
    },
    {
      "inputs": [
        {
          "internalType": "address",
          "name": "receiver",
          "type": "address"
        }
      ],
      "name": "ERC20InvalidReceiver",
      "type": "error"
    },
    {
      "inputs": [
        {
          "internalType": "address",
          "name": "sender",
          "type": "address"
        }
      ],
      "name": "ERC20InvalidSender",
      "type": "error"
    },
    {
      "inputs": [
        {
          "internalType": "address",
          "name": "spender",
          "type": "address"
        }
      ],
      "name": "ERC20InvalidSpender",
      "type": "error"
    },
    {
      "inputs": [],
      "name": "InvalidAddress",
      "type": "error"
    },
    {
      "inputs": [],
      "name": "InvalidAmount",
      "type": "error"
    },
    {
      "inputs": [],
      "name": "MaxSupplyExceeded",
      "type": "error"
    },
    {
      "inputs": [
        {
          "internalType": "address",
          "name": "owner",
          "type": "address"
        }
      ],
      "name": "OwnableInvalidOwner",
      "type": "error"
    },
    {
      "inputs": [
        {
          "internalType": "address",
          "name": "account",
          "type": "address"
        }
      ],
      "name": "OwnableUnauthorizedAccount",
      "type": "error"
    },
    {
      "inputs": [],
      "name": "ReentrancyGuardReentrantCall",
      "type": "error"
    },
    {
      "inputs": [],
      "name": "UnauthorizedMinter",
      "type": "error"
    },
    {
      "anonymous": false,
      "inputs": [
        {
          "indexed": true,
          "internalType": "address",
          "name": "owner",
          "type": "address"
        },
        {
          "indexed": true,
          "internalType": "address",
          "name": "spender",
          "type": "address"
        },
        {
          "indexed": false,
          "internalType": "uint256",
          "name": "value",
          "type": "uint256"
        }
      ],
      "name": "Approval",
      "type": "event"
    },
    {
      "anonymous": false,
      "inputs": [
        {
          "indexed": true,
          "internalType": "address",
          "name": "user",
          "type": "address"
        },
        {
          "indexed": false,
          "internalType": "uint256",
          "name": "amount",
          "type": "uint256"
        },
        {
          "indexed": false,
          "internalType": "bool",
          "name": "qualityBonus",
          "type": "bool"
        }
      ],
      "name": "FeedbackRewarded",
      "type": "event"
    },
    {
      "anonymous": false,
      "inputs": [
        {
          "indexed": true,
          "internalType": "address",
          "name": "minter",
          "type": "address"
        },
        {
          "indexed": false,
          "internalType": "bool",
          "name": "authorized",
          "type": "bool"
        }
      ],
      "name": "MinterAuthorized",
      "type": "event"
    },
    {
      "anonymous": false,
      "inputs": [
        {
          "indexed": true,
          "internalType": "address",
          "name": "previousOwner",
          "type": "address"
        },
        {
          "indexed": true,
          "internalType": "address",
          "name": "newOwner",
          "type": "address"
        }
      ],
      "name": "OwnershipTransferred",
      "type": "event"
    },
    {
      "anonymous": false,
      "inputs": [
        {
          "indexed": false,
          "internalType": "uint256",
          "name": "newFeedbackReward",
          "type": "uint256"
        },
        {
          "indexed": false,
          "internalType": "uint256",
          "name": "newQualityBonus",
          "type": "uint256"
        }
      ],
      "name": "RewardConfigUpdated",
      "type": "event"
    },
    {
      "anonymous": false,
      "inputs": [
        {
          "indexed": true,
          "internalType": "address",
          "name": "from",
          "type": "address"
        },
        {
          "indexed": true,
          "internalType": "address",
          "name": "to",
          "type": "address"
        },
        {
          "indexed": false,
          "internalType": "uint256",
          "name": "value",
          "type": "uint256"
        }
      ],
      "name": "Transfer",
      "type": "event"
    },
    {
      "inputs": [],
      "name": "FEEDBACK_REWARD",
      "outputs": [
        {
          "internalType": "uint256",
          "name": "",
          "type": "uint256"
        }
      ],
      "stateMutability": "view",
      "type": "function"
    },
    {
      "inputs": [],
      "name": "MAX_SUPPLY",
      "outputs": [
        {
          "internalType": "uint256",
          "name": "",
          "type": "uint256"
        }
      ],
      "stateMutability": "view",
      "type": "function"
    },
    {
      "inputs": [],
      "name": "QUALITY_BONUS",
      "outputs": [
        {
          "internalType": "uint256",
          "name": "",
          "type": "uint256"
        }
      ],
      "stateMutability": "view",
      "type": "function"
    },
    {
      "inputs": [
        {
          "internalType": "address",
          "name": "owner",
          "type": "address"
        },
        {
          "internalType": "address",
          "name": "spender",
          "type": "address"
        }
      ],
      "name": "allowance",
      "outputs": [
        {
          "internalType": "uint256",
          "name": "",
          "type": "uint256"
        }
      ],
      "stateMutability": "view",
      "type": "function"
    },
    {
      "inputs": [
        {
          "internalType": "address",
          "name": "spender",
          "type": "address"
        },
        {
          "internalType": "uint256",
          "name": "value",
          "type": "uint256"
        }
      ],
      "name": "approve",
      "outputs": [
        {
          "internalType": "bool",
          "name": "",
          "type": "bool"
        }
      ],
      "stateMutability": "nonpayable",
      "type": "function"
    },
    {
      "inputs": [
        {
          "internalType": "address",
          "name": "",
          "type": "address"
        }
      ],
      "name": "authorizedMinters",
      "outputs": [
        {
          "internalType": "bool",
          "name": "",
          "type": "bool"
        }
      ],
      "stateMutability": "view",
      "type": "function"
    },
    {
      "inputs": [
        {
          "internalType": "address",
          "name": "account",
          "type": "address"
        }
      ],
      "name": "balanceOf",
      "outputs": [
        {
          "internalType": "uint256",
          "name": "",
          "type": "uint256"
        }
      ],
      "stateMutability": "view",
      "type": "function"
    },
    {
      "inputs": [
        {
          "internalType": "address[]",
          "name": "users",
          "type": "address[]"
        },
        {
          "internalType": "bool[]",
          "name": "qualityBonuses",
          "type": "bool[]"
        }
      ],
      "name": "batchMintRewards",
      "outputs": [],
      "stateMutability": "nonpayable",
      "type": "function"
    },
    {
      "inputs": [],
      "name": "decimals",
      "outputs": [
        {
          "internalType": "uint8",
          "name": "",
          "type": "uint8"
        }
      ],
      "stateMutability": "view",
      "type": "function"
    },
    {
      "inputs": [
        {
          "internalType": "address",
          "name": "to",
          "type": "address"
        },
        {
          "internalType": "uint256",
          "name": "amount",
          "type": "uint256"
        }
      ],
      "name": "emergencyMint",
      "outputs": [],
      "stateMutability": "nonpayable",
      "type": "function"
    },
    {
      "inputs": [],
      "name": "getGlobalStats",
      "outputs": [
        {
          "internalType": "uint256",
          "name": "totalSupply_",
          "type": "uint256"
        },
        {
          "internalType": "uint256",
          "name": "totalFeedbackRewards_",
          "type": "uint256"
        },
        {
          "internalType": "uint256",
          "name": "totalQualityBonuses_",
          "type": "uint256"
        },
        {
          "internalType": "uint256",
          "name": "maxSupply_",
          "type": "uint256"
        }
      ],
      "stateMutability": "view",
      "type": "function"
    },
    {
      "inputs": [
        {
          "internalType": "address",
          "name": "user",
          "type": "address"
        }
      ],
      "name": "getUserStats",
      "outputs": [
        {
          "internalType": "uint256",
          "name": "feedbackCount",
          "type": "uint256"
        },
        {
          "internalType": "uint256",
          "name": "totalRewards",
          "type": "uint256"
        },
        {
          "internalType": "uint256",
          "name": "balance",
          "type": "uint256"
        }
      ],
      "stateMutability": "view",
      "type": "function"
    },
    {
      "inputs": [
        {
          "internalType": "address",
          "name": "user",
          "type": "address"
        },
        {
          "internalType": "bool",
          "name": "qualityBonus",
          "type": "bool"
        }
      ],
      "name": "mintFeedbackReward",
      "outputs": [],
      "stateMutability": "nonpayable",
      "type": "function"
    },
    {
      "inputs": [],
      "name": "name",
      "outputs": [
        {
          "internalType": "string",
          "name": "",
          "type": "string"
        }
      ],
      "stateMutability": "view",
      "type": "function"
    },
    {
      "inputs": [],
      "name": "owner",
      "outputs": [
        {
          "internalType": "address",
          "name": "",
          "type": "address"
        }
      ],
      "stateMutability": "view",
      "type": "function"
    },
    {
      "inputs": [],
      "name": "renounceOwnership",
      "outputs": [],
      "stateMutability": "nonpayable",
      "type": "function"
    },
    {
      "inputs": [
        {
          "internalType": "address",
          "name": "minter",
          "type": "address"
        },
        {
          "internalType": "bool",
          "name": "authorized",
          "type": "bool"
        }
      ],
      "name": "setMinterAuthorization",
      "outputs": [],
      "stateMutability": "nonpayable",
      "type": "function"
    },
    {
      "inputs": [],
      "name": "symbol",
      "outputs": [
        {
          "internalType": "string",
          "name": "",
          "type": "string"
        }
      ],
      "stateMutability": "view",
      "type": "function"
    },
    {
      "inputs": [],
      "name": "totalFeedbackRewards",
      "outputs": [
        {
          "internalType": "uint256",
          "name": "",
          "type": "uint256"
        }
      ],
      "stateMutability": "view",
      "type": "function"
    },
    {
      "inputs": [],
      "name": "totalQualityBonuses",
      "outputs": [
        {
          "internalType": "uint256",
          "name": "",
          "type": "uint256"
        }
      ],
      "stateMutability": "view",
      "type": "function"
    },
    {
      "inputs": [],
      "name": "totalSupply",
      "outputs": [
        {
          "internalType": "uint256",
          "name": "",
          "type": "uint256"
        }
      ],
      "stateMutability": "view",
      "type": "function"
    },
    {
      "inputs": [
        {
          "internalType": "address",
          "name": "to",
          "type": "address"
        },
        {
          "internalType": "uint256",
          "name": "value",
          "type": "uint256"
        }
      ],
      "name": "transfer",
      "outputs": [
        {
          "internalType": "bool",
          "name": "",
          "type": "bool"
        }
      ],
      "stateMutability": "nonpayable",
      "type": "function"
    },
    {
      "inputs": [
        {
          "internalType": "address",
          "name": "from",
          "type": "address"
        },
        {
          "internalType": "address",
          "name": "to",
          "type": "address"
        },
        {
          "internalType": "uint256",
          "name": "value",
          "type": "uint256"
        }
      ],
      "name": "transferFrom",
      "outputs": [
        {
          "internalType": "bool",
          "name": "",
          "type": "bool"
        }
      ],
      "stateMutability": "nonpayable",
      "type": "function"
    },
    {
      "inputs": [
        {
          "internalType": "address",
          "name": "newOwner",
          "type": "address"
        }
      ],
      "name": "transferOwnership",
      "outputs": [],
      "stateMutability": "nonpayable",
      "type": "function"
    },
    {
      "inputs": [
        {
          "internalType": "address",
          "name": "",
          "type": "address"
        }
      ],
      "name": "userFeedbackCount",
      "outputs": [
        {
          "internalType": "uint256",
          "name": "",
          "type": "uint256"
        }
      ],
      "stateMutability": "view",
      "type": "function"
    },
    {
      "inputs": [
        {
          "internalType": "address",
          "name": "",
          "type": "address"
        }
      ],
      "name": "userTotalRewards",
      "outputs": [
        {
          "internalType": "uint256",
          "name": "",
          "type": "uint256"
        }
      ],
      "stateMutability": "view",
      "type": "function"
    }
  ],
  "bytecode": "0x604060808152346200040d5762001587803803806200001e8162000412565b92833981016060828203126200040d5781516001600160401b0392908381116200040d57826200005091830162000438565b602092838301518581116200040d5786916200006e91850162000438565b9201516001600160a01b038082169590918690036200040d5782518181116200030d576003908154906001958683811c9316801562000402575b89841014620003ec578190601f9384811162000396575b5089908483116001146200032f5760009262000323575b505060001982851b1c191690861b1782555b85519283116200030d5760049586548681811c9116801562000302575b89821014620002ed57908183869594931162000293575b508891841160011462000228576000936200021c575b505082851b92600019911b1c19161783555b84156200020557600580546001600160a01b0319811687179091558591167f8be0079c531659141344cd1fd0a4f28419497f9722a3daafe3b4186f6b6457e0600080a360065560025469d3c21bcecceda100000091828201809211620001f0575060025560008381528083528481208054830190558451918252917fddf252ad1be2c89b69c2b068fc378daa952ba7f163c4a11628f55a4df523b3ef91a3516110dc9081620004ab8239f35b601190634e487b7160e01b6000525260246000fd5b8551631e4fbdf760e01b8152600081850152602490fd5b01519150388062000132565b9190869450601f1984169288600052896000209360005b8b8282106200027c575050851162000261575b50505050811b01835562000144565b01519060f884600019921b161c191690553880808062000252565b8385015187558a989096019593840193016200023f565b909192935087600052886000208380870160051c8201928b8810620002e3575b9189918897969594930160051c01915b828110620002d35750506200011c565b60008155879650899101620002c3565b92508192620002b3565b602288634e487b7160e01b6000525260246000fd5b90607f169062000105565b634e487b7160e01b600052604160045260246000fd5b015190503880620000d6565b90889350601f19831691866000528b6000209260005b8d8282106200037f575050841162000366575b505050811b018255620000e8565b015160001983871b60f8161c1916905538808062000358565b8385015186558c9790950194938401930162000345565b90915084600052896000208480850160051c8201928c8610620003e2575b918a91869594930160051c01915b828110620003d2575050620000bf565b600081558594508a9101620003c2565b92508192620003b4565b634e487b7160e01b600052602260045260246000fd5b92607f1692620000a8565b600080fd5b6040519190601f01601f191682016001600160401b038111838210176200030d57604052565b919080601f840112156200040d5782516001600160401b0381116200030d576020906200046e601f8201601f1916830162000412565b928184528282870101116200040d5760005b8181106200049657508260009394955001015290565b85810183015184820184015282016200048056fe608060408181526004918236101561001657600080fd5b600092833560e01c91826304baf13414610da65750816306fdde0314610ccc578163095ea7b314610c2257816318160ddd14610c0357816323b872dd14610b0f578163313ce56714610af357816332cb6b0c14610acd5781633315e49014610aaa578163378c2b8614610a2857816343785dc9146109aa57816347aff02f1461098b5781634b0ad053146109535781634e43603a146108ff5781636b4169c3146108be57816370a0823114610887578163715018a6146108275781638da5cb5b146107fe57816395d89b41146106df578163a9059cbb146106ae578163aa2fe91b14610670578163ae782342146103f1578163dd62ed3e146103a8578163f2fde38b14610314578163f39489141461019b57508063f6a3f3cf146101645763f8ff777f1461014357600080fd5b346101605781600319360112610160576020906008549051908152f35b5080fd5b50346101605760203660031901126101605760209181906001600160a01b0361018b610e11565b168152600b845220549051908152f35b838334610160576101ab36610e42565b906101b461103c565b338452600760205260ff838520541615610304576001600160a01b0381169283156102f55782156102ee57674563918244f40000915b678ac7230489e8000092808401938481116102cb576a52b7d2dcc80cd2e400000061021786600254610fac565b116102de57868852600a6020528388206102318154610fcf565b9055868852600b602052838820610249868254610fac565b90556008549081018091116102cb57846102ab93879695937f2bf73bf6e2b77127bf9b35dd1cba7727e6be05347c646a922635f03023a0bab998610295946008556102b6575b50610fde565b5191825291151560208201529081906040820190565b0390a2600160065580f35b6102c290600954610fac565b6009558a61028f565b634e487b7160e01b885260118952602488fd5b8351638a164f6360e01b81528990fd5b84916101ea565b5163e6c4247b60e01b81528590fd5b825163955c501b60e01b81528590fd5b9050346103a45760203660031901126103a45761032f610e11565b90610338610ea2565b6001600160a01b0391821692831561038e575050600554826bffffffffffffffffffffffff60a01b821617600555167f8be0079c531659141344cd1fd0a4f28419497f9722a3daafe3b4186f6b6457e08380a380f35b51631e4fbdf760e01b8152908101849052602490fd5b8280fd5b505034610160578060031936011261016057806020926103c6610e11565b6103ce610e2c565b6001600160a01b0391821683526001865283832091168252845220549051908152f35b919050346103a457806003193601126103a45767ffffffffffffffff90823582811161066c576104249036908501610e71565b909160249384359081116106685761043f9036908701610e71565b909261044961103c565b3388526020946007865260ff848a205416156106585782820361064857885b8281106104785789600160065580f35b6001600160a01b038061049461048f84878761105f565b611085565b1615610638576104ad6104a883878a61105f565b611099565b1561063157674563918244f40000905b678ac7230489e80000918083019283811161061f576a52b7d2dcc80cd2e40000006104ea85600254610fac565b1161060f57888e8461050061048f898c8c61105f565b168152600a8d528181206105148154610fcf565b90558461052561048f898c8c61105f565b168152600b8d5220610538858254610fac565b9055600880549182018092116105fc576105da6105c16104a8888c8f9561048f838f8f6105e29f9e9d9b8e7f2bf73bf6e2b77127bf9b35dd1cba7727e6be05347c646a922635f03023a0bab99e61059d6104a88f8b89916105b6976105bb9d5561105f565b6105e7575b506105b161048f86868661105f565b610fde565b61105f565b9561105f565b8b51958652151560208601529116929081906040820190565b0390a2610fcf565b610468565b6105f46009918254610fac565b9055386105a2565b50634e487b7160e01b8e5260118d528b8efd5b8851638a164f6360e01b81528d90fd5b634e487b7160e01b8e5260118d528b8efd5b8a906104bd565b855163e6c4247b60e01b81528a90fd5b835163162908e360e11b81528890fd5b835163955c501b60e01b81528890fd5b8680fd5b8480fd5b5050346101605760203660031901126101605760209160ff9082906001600160a01b0361069b610e11565b1681526007855220541690519015158152f35b5050346101605780600319360112610160576020906106d86106ce610e11565b6024359033610ece565b5160018152f35b838334610160578160031936011261016057805190828454600181811c908083169283156107f4575b60209384841081146107e1578388529081156107c55750600114610770575b505050829003601f01601f191682019267ffffffffffffffff84118385101761075d5750829182610759925282610dc8565b0390f35b634e487b7160e01b815260418552602490fd5b8787529192508591837f8a35acfbc15ff81a39ae7d344fd709f28e8600b4aa8c65c6b64bfe7fe36bd19b5b8385106107b15750505050830101858080610727565b80548886018301529301928490820161079b565b60ff1916878501525050151560051b8401019050858080610727565b634e487b7160e01b895260228a52602489fd5b91607f1691610708565b50503461016057816003193601126101605760055490516001600160a01b039091168152602090f35b8334610884578060031936011261088457610840610ea2565b600580546001600160a01b0319811690915581906001600160a01b03167f8be0079c531659141344cd1fd0a4f28419497f9722a3daafe3b4186f6b6457e08280a380f35b80fd5b5050346101605760203660031901126101605760209181906001600160a01b036108af610e11565b16815280845220549051908152f35b505034610160578160031936011261016057608090600254906008549060095491815193845260208401528201526a52b7d2dcc80cd2e40000006060820152f35b505034610160576020366003190112610160576060916001600160a01b03610925610e11565b168152600a6020528181205491600b6020528080832054928060205220549181519384526020840152820152f35b5050346101605760203660031901126101605760209181906001600160a01b0361097b610e11565b168152600a845220549051908152f35b5050346101605781600319360112610160576020906009549051908152f35b8383346101605780600319360112610160576109c4610e11565b602435916109d0610ea2565b6001600160a01b03821615610a19576a52b7d2dcc80cd2e40000006109f784600254610fac565b11610a0a575090610a0791610fde565b80f35b51638a164f6360e01b81528490fd5b5163e6c4247b60e01b81528490fd5b919050346103a457610a3936610e42565b9190610a43610ea2565b6001600160a01b0316928315610a9c57507f9041c22ed79d1c19c69cc22fd9e38c93da4f2dd8cd32580594e232a8a18541cb91602091848652600783528086209115159160ff1981541660ff841617905551908152a280f35b905163e6c4247b60e01b8152fd5b50503461016057816003193601126101605760209051678ac7230489e800008152f35b505034610160578160031936011261016057602090516a52b7d2dcc80cd2e40000008152f35b5050346101605781600319360112610160576020905160128152f35b9050823461088457606036600319011261088457610b2b610e11565b610b33610e2c565b916044359360018060a01b038316808352600160205286832033845260205286832054916000198310610b6f575b6020886106d8898989610ece565b868310610bd7578115610bc0573315610ba9575082526001602090815286832033845281529186902090859003905582906106d887610b61565b8751634a1406b160e11b8152908101849052602490fd5b875163e602df0560e01b8152908101849052602490fd5b8751637dc7a0d960e11b8152339181019182526020820193909352604081018790528291506060010390fd5b5050346101605781600319360112610160576020906002549051908152f35b9050346103a457816003193601126103a457610c3c610e11565b602435903315610cb5576001600160a01b0316918215610c9e57508083602095338152600187528181208582528752205582519081527f8c5be1e5ebec7d5bd14f71427d1e84f3dd0314c0f7b2291e5b200ac8c7c3b925843392a35160018152f35b8351634a1406b160e11b8152908101859052602490fd5b835163e602df0560e01b8152808401869052602490fd5b83833461016057816003193601126101605780519082600354600181811c90808316928315610d9c575b60209384841081146107e1578388529081156107c55750600114610d4657505050829003601f01601f191682019267ffffffffffffffff84118385101761075d5750829182610759925282610dc8565b600387529192508591837fc2575a0e9e593c00f959f8c92f12db2869c3395a3b0502d05e2516446f71f85b5b838510610d885750505050830101858080610727565b805488860183015293019284908201610d72565b91607f1691610cf6565b84903461016057816003193601126101605780674563918244f4000060209252f35b6020808252825181830181905290939260005b828110610dfd57505060409293506000838284010152601f8019910116010190565b818101860151848201604001528501610ddb565b600435906001600160a01b0382168203610e2757565b600080fd5b602435906001600160a01b0382168203610e2757565b6040906003190112610e27576004356001600160a01b0381168103610e2757906024358015158103610e275790565b9181601f84011215610e275782359167ffffffffffffffff8311610e27576020808501948460051b010111610e2757565b6005546001600160a01b03163303610eb657565b60405163118cdaa760e01b8152336004820152602490fd5b916001600160a01b03808416928315610f935716928315610f7a5760009083825281602052604082205490838210610f48575091604082827fddf252ad1be2c89b69c2b068fc378daa952ba7f163c4a11628f55a4df523b3ef958760209652828652038282205586815220818154019055604051908152a3565b60405163391434e360e21b81526001600160a01b03919091166004820152602481019190915260448101839052606490fd5b60405163ec442f0560e01b815260006004820152602490fd5b604051634b637e8f60e11b815260006004820152602490fd5b91908201809211610fb957565b634e487b7160e01b600052601160045260246000fd5b6000198114610fb95760010190565b6001600160a01b0316908115610f7a577fddf252ad1be2c89b69c2b068fc378daa952ba7f163c4a11628f55a4df523b3ef602082611020600094600254610fac565b60025584845283825260408420818154019055604051908152a3565b60026006541461104d576002600655565b604051633ee5aeb560e01b8152600490fd5b919081101561106f5760051b0190565b634e487b7160e01b600052603260045260246000fd5b356001600160a01b0381168103610e275790565b358015158103610e27579056fea2646970667358221220ffe96bc4cb202083bf574ffe4125b610c00bb07a8f9c6b24c0eea96ec7a6f5d664736f6c63430008140033",
  "linkReferences": {},
  "deployedLinkReferences": {}
}