{
  "_format": "hh-sol-artifact-1",
  "contractName": "FeedbackRewardToken",
  "sourceName": "contracts/FeedbackRewardToken.sol",
  "abi": [
    {
      "inputs": [
        {
          "internalType": "string",
          "name": "name_",
          "type": "string"
        },
        {
          "internalType": "string",
          "name": "symbol_",
          "type": "string"
        },
        {
          "internalType": "address",
          "name": "owner_",
          "type": "address"
        }
      ],
      "stateMutability": "nonpayable",
      "type": "constructor"
    },
    {
      "inputs": [
        {
          "internalType": "address",
          "name": "spender",
          "type": "address"
        },
        {
          "internalType": "uint256",
          "name": "allowance",
          "type": "uint256"
        },
        {
          "internalType": "uint256",
          "name": "needed",
          "type": "uint256"
        }
      ],
      "name": "ERC20InsufficientAllowance",
      "type": "error"
    },
    {
      "inputs": [
        {
          "internalType": "address",
          "name": "sender",
          "type": "address"
        },
        {
          "internalType": "uint256",
          "name": "balance",
          "type": "uint256"
        },
        {
          "internalType": "uint256",
          "name": "needed",
          "type": "uint256"
        }
      ],
      "name": "ERC20InsufficientBalance",
      "type": "error"
    },
    {
      "inputs": [
        {
          "internalType": "address",
          "name": "approver",
          "type": "address"
        }
      ],
      "name": "ERC20InvalidApprover",
      "type": "error"
    },
    {
      "inputs": [
        {
          "internalType": "address",
          "name": "receiver",
          "type": "address"
        }
      ],
      "name": "ERC20InvalidReceiver",
      "type": "error"
    },
    {
      "inputs": [
        {
          "internalType": "address",
          "name": "sender",
          "type": "address"
        }
      ],
      "name": "ERC20InvalidSender",
      "type": "error"
    },
    {
      "inputs": [
        {
          "internalType": "address",
          "name": "spender",
          "type": "address"
        }
      ],
      "name": "ERC20InvalidSpender",
      "type": "error"
    },
    {
      "inputs": [],
      "name": "InvalidAddress",
      "type": "error"
    },
    {
      "inputs": [],
      "name": "InvalidAmount",
      "type": "error"
    },
    {
      "inputs": [],
      "name": "MaxSupplyExceeded",
      "type": "error"
    },
    {
      "inputs": [
        {
          "internalType": "address",
          "name": "owner",
          "type": "address"
        }
      ],
      "name": "OwnableInvalidOwner",
      "type": "error"
    },
    {
      "inputs": [
        {
          "internalType": "address",
          "name": "account",
          "type": "address"
        }
      ],
      "name": "OwnableUnauthorizedAccount",
      "type": "error"
    },
    {
      "inputs": [],
      "name": "ReentrancyGuardReentrantCall",
      "type": "error"
    },
    {
      "inputs": [],
      "name": "UnauthorizedMinter",
      "type": "error"
    },
    {
      "anonymous": false,
      "inputs": [
        {
          "indexed": true,
          "internalType": "address",
          "name": "owner",
          "type": "address"
        },
        {
          "indexed": true,
          "internalType": "address",
          "name": "spender",
          "type": "address"
        },
        {
          "indexed": false,
          "internalType": "uint256",
          "name": "value",
          "type": "uint256"
        }
      ],
      "name": "Approval",
      "type": "event"
    },
    {
      "anonymous": false,
      "inputs": [
        {
          "indexed": true,
          "internalType": "address",
          "name": "user",
          "type": "address"
        },
        {
          "indexed": false,
          "internalType": "uint256",
          "name": "amount",
          "type": "uint256"
        },
        {
          "indexed": false,
          "internalType": "bool",
          "name": "qualityBonus",
          "type": "bool"
        }
      ],
      "name": "FeedbackRewarded",
      "type": "event"
    },
    {
      "anonymous": false,
      "inputs": [
        {
          "indexed": true,
          "internalType": "address",
          "name": "minter",
          "type": "address"
        },
        {
          "indexed": false,
          "internalType": "bool",
          "name": "authorized",
          "type": "bool"
        }
      ],
      "name": "MinterAuthorized",
      "type": "event"
    },
    {
      "anonymous": false,
      "inputs": [
        {
          "indexed": true,
          "internalType": "address",
          "name": "previousOwner",
          "type": "address"
        },
        {
          "indexed": true,
          "internalType": "address",
          "name": "newOwner",
          "type": "address"
        }
      ],
      "name": "OwnershipTransferred",
      "type": "event"
    },
    {
      "anonymous": false,
      "inputs": [
        {
          "indexed": false,
          "internalType": "uint256",
          "name": "newFeedbackReward",
          "type": "uint256"
        },
        {
          "indexed": false,
          "internalType": "uint256",
          "name": "newQualityBonus",
          "type": "uint256"
        }
      ],
      "name": "RewardConfigUpdated",
      "type": "event"
    },
    {
      "anonymous": false,
      "inputs": [
        {
          "indexed": true,
          "internalType": "address",
          "name": "from",
          "type": "address"
        },
        {
          "indexed": true,
          "internalType": "address",
          "name": "to",
          "type": "address"
        },
        {
          "indexed": false,
          "internalType": "uint256",
          "name": "value",
          "type": "uint256"
        }
      ],
      "name": "Transfer",
      "type": "event"
    },
    {
      "inputs": [],
      "name": "FEEDBACK_REWARD",
      "outputs": [
        {
          "internalType": "uint256",
          "name": "",
          "type": "uint256"
        }
      ],
      "stateMutability": "view",
      "type": "function"
    },
    {
      "inputs": [],
      "name": "MAX_SUPPLY",
      "outputs": [
        {
          "internalType": "uint256",
          "name": "",
          "type": "uint256"
        }
      ],
      "stateMutability": "view",
      "type": "function"
    },
    {
      "inputs": [],
      "name": "QUALITY_BONUS",
      "outputs": [
        {
          "internalType": "uint256",
          "name": "",
          "type": "uint256"
        }
      ],
      "stateMutability": "view",
      "type": "function"
    },
    {
      "inputs": [
        {
          "internalType": "address",
          "name": "owner",
          "type": "address"
        },
        {
          "internalType": "address",
          "name": "spender",
          "type": "address"
        }
      ],
      "name": "allowance",
      "outputs": [
        {
          "internalType": "uint256",
          "name": "",
          "type": "uint256"
        }
      ],
      "stateMutability": "view",
      "type": "function"
    },
    {
      "inputs": [
        {
          "internalType": "address",
          "name": "spender",
          "type": "address"
        },
        {
          "internalType": "uint256",
          "name": "value",
          "type": "uint256"
        }
      ],
      "name": "approve",
      "outputs": [
        {
          "internalType": "bool",
          "name": "",
          "type": "bool"
        }
      ],
      "stateMutability": "nonpayable",
      "type": "function"
    },
    {
      "inputs": [
        {
          "internalType": "address",
          "name": "",
          "type": "address"
        }
      ],
      "name": "authorizedMinters",
      "outputs": [
        {
          "internalType": "bool",
          "name": "",
          "type": "bool"
        }
      ],
      "stateMutability": "view",
      "type": "function"
    },
    {
      "inputs": [
        {
          "internalType": "address",
          "name": "account",
          "type": "address"
        }
      ],
      "name": "balanceOf",
      "outputs": [
        {
          "internalType": "uint256",
          "name": "",
          "type": "uint256"
        }
      ],
      "stateMutability": "view",
      "type": "function"
    },
    {
      "inputs": [
        {
          "internalType": "address[]",
          "name": "users",
          "type": "address[]"
        },
        {
          "internalType": "bool[]",
          "name": "qualityBonuses",
          "type": "bool[]"
        }
      ],
      "name": "batchMintRewards",
      "outputs": [],
      "stateMutability": "nonpayable",
      "type": "function"
    },
    {
      "inputs": [],
      "name": "decimals",
      "outputs": [
        {
          "internalType": "uint8",
          "name": "",
          "type": "uint8"
        }
      ],
      "stateMutability": "view",
      "type": "function"
    },
    {
      "inputs": [
        {
          "internalType": "address",
          "name": "to",
          "type": "address"
        },
        {
          "internalType": "uint256",
          "name": "amount",
          "type": "uint256"
        }
      ],
      "name": "emergencyMint",
      "outputs": [],
      "stateMutability": "nonpayable",
      "type": "function"
    },
    {
      "inputs": [],
      "name": "getGlobalStats",
      "outputs": [
        {
          "internalType": "uint256",
          "name": "totalSupply_",
          "type": "uint256"
        },
        {
          "internalType": "uint256",
          "name": "totalFeedbackRewards_",
          "type": "uint256"
        },
        {
          "internalType": "uint256",
          "name": "totalQualityBonuses_",
          "type": "uint256"
        },
        {
          "internalType": "uint256",
          "name": "maxSupply_",
          "type": "uint256"
        }
      ],
      "stateMutability": "view",
      "type": "function"
    },
    {
      "inputs": [
        {
          "internalType": "address",
          "name": "user",
          "type": "address"
        }
      ],
      "name": "getUserStats",
      "outputs": [
        {
          "internalType": "uint256",
          "name": "feedbackCount",
          "type": "uint256"
        },
        {
          "internalType": "uint256",
          "name": "totalRewards",
          "type": "uint256"
        },
        {
          "internalType": "uint256",
          "name": "balance",
          "type": "uint256"
        }
      ],
      "stateMutability": "view",
      "type": "function"
    },
    {
      "inputs": [
        {
          "internalType": "address",
          "name": "user",
          "type": "address"
        },
        {
          "internalType": "bool",
          "name": "qualityBonus",
          "type": "bool"
        }
      ],
      "name": "mintFeedbackReward",
      "outputs": [],
      "stateMutability": "nonpayable",
      "type": "function"
    },
    {
      "inputs": [],
      "name": "name",
      "outputs": [
        {
          "internalType": "string",
          "name": "",
          "type": "string"
        }
      ],
      "stateMutability": "view",
      "type": "function"
    },
    {
      "inputs": [],
      "name": "owner",
      "outputs": [
        {
          "internalType": "address",
          "name": "",
          "type": "address"
        }
      ],
      "stateMutability": "view",
      "type": "function"
    },
    {
      "inputs": [],
      "name": "renounceOwnership",
      "outputs": [],
      "stateMutability": "nonpayable",
      "type": "function"
    },
    {
      "inputs": [
        {
          "internalType": "address",
          "name": "minter",
          "type": "address"
        },
        {
          "internalType": "bool",
          "name": "authorized",
          "type": "bool"
        }
      ],
      "name": "setMinterAuthorization",
      "outputs": [],
      "stateMutability": "nonpayable",
      "type": "function"
    },
    {
      "inputs": [],
      "name": "symbol",
      "outputs": [
        {
          "internalType": "string",
          "name": "",
          "type": "string"
        }
      ],
      "stateMutability": "view",
      "type": "function"
    },
    {
      "inputs": [],
      "name": "totalFeedbackRewards",
      "outputs": [
        {
          "internalType": "uint256",
          "name": "",
          "type": "uint256"
        }
      ],
      "stateMutability": "view",
      "type": "function"
    },
    {
      "inputs": [],
      "name": "totalQualityBonuses",
      "outputs": [
        {
          "internalType": "uint256",
          "name": "",
          "type": "uint256"
        }
      ],
      "stateMutability": "view",
      "type": "function"
    },
    {
      "inputs": [],
      "name": "totalSupply",
      "outputs": [
        {
          "internalType": "uint256",
          "name": "",
          "type": "uint256"
        }
      ],
      "stateMutability": "view",
      "type": "function"
    },
    {
      "inputs": [
        {
          "internalType": "address",
          "name": "to",
          "type": "address"
        },
        {
          "internalType": "uint256",
          "name": "value",
          "type": "uint256"
        }
      ],
      "name": "transfer",
      "outputs": [
        {
          "internalType": "bool",
          "name": "",
          "type": "bool"
        }
      ],
      "stateMutability": "nonpayable",
      "type": "function"
    },
    {
      "inputs": [
        {
          "internalType": "address",
          "name": "from",
          "type": "address"
        },
        {
          "internalType": "address",
          "name": "to",
          "type": "address"
        },
        {
          "internalType": "uint256",
          "name": "value",
          "type": "uint256"
        }
      ],
      "name": "transferFrom",
      "outputs": [
        {
          "internalType": "bool",
          "name": "",
          "type": "bool"
        }
      ],
      "stateMutability": "nonpayable",
      "type": "function"
    },
    {
      "inputs": [
        {
          "internalType": "address",
          "name": "newOwner",
          "type": "address"
        }
      ],
      "name": "transferOwnership",
      "outputs": [],
      "stateMutability": "nonpayable",
      "type": "function"
    },
    {
      "inputs": [
        {
          "internalType": "address",
          "name": "",
          "type": "address"
        }
      ],
      "name": "userFeedbackCount",
      "outputs": [
        {
          "internalType": "uint256",
          "name": "",
          "type": "uint256"
        }
      ],
      "stateMutability": "view",
      "type": "function"
    },
    {
      "inputs": [
        {
          "internalType": "address",
          "name": "",
          "type": "address"
        }
      ],
      "name": "userTotalRewards",
      "outputs": [
        {
          "internalType": "uint256",
          "name": "",
          "type": "uint256"
        }
      ],
      "stateMutability": "view",
      "type": "function"
    }
  ],
  "bytecode": "0x604060808152346200040d5762001625803803806200001e8162000412565b92833981016060828203126200040d5781516001600160401b0392908381116200040d57826200005091830162000438565b602092838301518581116200040d5786916200006e91850162000438565b9201516001600160a01b038082169590918690036200040d5782518181116200030d576003908154906001958683811c9316801562000402575b89841014620003ec578190601f9384811162000396575b5089908483116001146200032f5760009262000323575b505060001982851b1c191690861b1782555b85519283116200030d5760049586548681811c9116801562000302575b89821014620002ed57908183869594931162000293575b508891841160011462000228576000936200021c575b505082851b92600019911b1c19161783555b84156200020557600580546001600160a01b0319811687179091558591167f8be0079c531659141344cd1fd0a4f28419497f9722a3daafe3b4186f6b6457e0600080a360065560025469d3c21bcecceda100000091828201809211620001f0575060025560008381528083528481208054830190558451918252917fddf252ad1be2c89b69c2b068fc378daa952ba7f163c4a11628f55a4df523b3ef91a35161117a9081620004ab8239f35b601190634e487b7160e01b6000525260246000fd5b8551631e4fbdf760e01b8152600081850152602490fd5b01519150388062000132565b9190869450601f1984169288600052896000209360005b8b8282106200027c575050851162000261575b50505050811b01835562000144565b01519060f884600019921b161c191690553880808062000252565b8385015187558a989096019593840193016200023f565b909192935087600052886000208380870160051c8201928b8810620002e3575b9189918897969594930160051c01915b828110620002d35750506200011c565b60008155879650899101620002c3565b92508192620002b3565b602288634e487b7160e01b6000525260246000fd5b90607f169062000105565b634e487b7160e01b600052604160045260246000fd5b015190503880620000d6565b90889350601f19831691866000528b6000209260005b8d8282106200037f575050841162000366575b505050811b018255620000e8565b015160001983871b60f8161c1916905538808062000358565b8385015186558c9790950194938401930162000345565b90915084600052896000208480850160051c8201928c8610620003e2575b918a91869594930160051c01915b828110620003d2575050620000bf565b600081558594508a9101620003c2565b92508192620003b4565b634e487b7160e01b600052602260045260246000fd5b92607f1692620000a8565b600080fd5b6040519190601f01601f191682016001600160401b038111838210176200030d57604052565b919080601f840112156200040d5782516001600160401b0381116200030d576020906200046e601f8201601f1916830162000412565b928184528282870101116200040d5760005b8181106200049657508260009394955001015290565b85810183015184820184015282016200048056fe608060408181526004918236101561001657600080fd5b600092833560e01c91826304baf13414610df45750816306fdde0314610d1a578163095ea7b314610c7257816318160ddd14610c5357816323b872dd14610b47578163313ce56714610b2b57816332cb6b0c14610b055781633315e49014610ae2578163378c2b8614610a5f57816343785dc9146109e157816347aff02f146109c25781634b0ad0531461098b5781634e43603a146109375781636b4169c3146108f657816370a08231146108c0578163715018a6146108555781638da5cb5b1461082d57816395d89b411461070e578163a9059cbb146106dd578163aa2fe91b146106a1578163ae7823421461040d578163dd62ed3e146103c4578163f2fde38b14610311578163f39489141461019a57508063f6a3f3cf146101645763f8ff777f1461014357600080fd5b346101605781600319360112610160576020906008549051908152f35b5080fd5b503461016057602036600319011261016057806020926001600160a01b0361018a610e5f565b168152600b845220549051908152f35b838334610160576101aa36610e90565b906101b36110eb565b338452600760205260ff838520541615610302576001600160a01b0381169283156102f35782156102ec57674563918244f40000915b678ac7230489e8000092808401938481116102ca576a52b7d2dcc80cd2e40000006102168660025461105b565b116102dd57868852600a602052838820610230815461107e565b9055868852600b60205283882061024886825461105b565b90556008549081018091116102ca57846102aa93879695937f2bf73bf6e2b77127bf9b35dd1cba7727e6be05347c646a922635f03023a0bab998610294946008556102b5575b5061108d565b5191825291151560208201529081906040820190565b0390a2600160065580f35b6102c19060095461105b565b6009558a61028e565b60248860118b634e487b7160e01b835252fd5b888451638a164f6360e01b8152fd5b84916101e9565b85905163e6c4247b60e01b8152fd5b84835163955c501b60e01b8152fd5b9050346103c05760203660031901126103c05761032c610e5f565b90610335610ef0565b6001600160a01b038092169283156103915750506005548273ffffffffffffffffffffffffffffffffffffffff19821617600555167f8be0079c531659141344cd1fd0a4f28419497f9722a3daafe3b4186f6b6457e08380a380f35b908460249251917f1e4fbdf7000000000000000000000000000000000000000000000000000000008352820152fd5b8280fd5b505034610160578060031936011261016057806020926103e2610e5f565b6103ea610e7a565b6001600160a01b0391821683526001865283832091168252845220549051908152f35b919050346103c057806003193601126103c05767ffffffffffffffff90823582811161069d576104409036908501610ebf565b909160249384359081116106995761045b9036908701610ebf565b90926104656110eb565b3388526020946007865260ff848a2054161561068a5782820361066257885b8281106104945789600160065580f35b6001600160a01b03806104b06104ab848787611126565b61114c565b1615610653576104c96104c483878a611126565b611160565b1561064c57674563918244f40000905b678ac7230489e80000918083019283811161063a576a52b7d2dcc80cd2e40000006105068560025461105b565b1161062b57888e8461051c6104ab898c8c611126565b168152600a8d52818120610530815461107e565b9055846105416104ab898c8c611126565b168152600b8d522061055485825461105b565b905560088054918201809211610618576105f66105dd6104c4888c8f956104ab838f8f6105fe9f9e9d9b8e7f2bf73bf6e2b77127bf9b35dd1cba7727e6be05347c646a922635f03023a0bab99e6105b96104c48f8b89916105d2976105d79d55611126565b610603575b506105cd6104ab868686611126565b61108d565b611126565b95611126565b8b51958652151560208601529116929081906040820190565b0390a261107e565b610484565b610610600991825461105b565b9055386105be565b508b8e60118f634e487b7160e01b835252fd5b8c8951638a164f6360e01b8152fd5b8b8e60118f634e487b7160e01b835252fd5b8a906104d9565b89865163e6c4247b60e01b8152fd5b8784517f2c5211c6000000000000000000000000000000000000000000000000000000008152fd5b87845163955c501b60e01b8152fd5b8680fd5b8480fd5b5050346101605760203660031901126101605760ff816020936001600160a01b036106ca610e5f565b1681526007855220541690519015158152f35b5050346101605780600319360112610160576020906107076106fd610e5f565b6024359033610f34565b5160018152f35b838334610160578160031936011261016057805190828454600181811c90808316928315610823575b6020938484108114610810578388529081156107f4575060011461079f575b505050829003601f01601f191682019267ffffffffffffffff84118385101761078c5750829182610788925282610e16565b0390f35b80604186634e487b7160e01b6024945252fd5b8787529192508591837f8a35acfbc15ff81a39ae7d344fd709f28e8600b4aa8c65c6b64bfe7fe36bd19b5b8385106107e05750505050830101858080610756565b8054888601830152930192849082016107ca565b60ff1916878501525050151560051b8401019050858080610756565b60248960228c634e487b7160e01b835252fd5b91607f1691610737565b5050346101605781600319360112610160576020906001600160a01b03600554169051908152f35b83346108bd57806003193601126108bd5761086e610ef0565b806001600160a01b0360055473ffffffffffffffffffffffffffffffffffffffff198116600555167f8be0079c531659141344cd1fd0a4f28419497f9722a3daafe3b4186f6b6457e08280a380f35b80fd5b50503461016057602036600319011261016057806020926001600160a01b036108e7610e5f565b16815280845220549051908152f35b505034610160578160031936011261016057608090600254906008549060095491815193845260208401528201526a52b7d2dcc80cd2e40000006060820152f35b505034610160576020366003190112610160576060916001600160a01b0361095d610e5f565b168152600a6020528181205491600b6020528080832054928060205220549181519384526020840152820152f35b50503461016057602036600319011261016057806020926001600160a01b036109b2610e5f565b168152600a845220549051908152f35b5050346101605781600319360112610160576020906009549051908152f35b8383346101605780600319360112610160576109fb610e5f565b60243591610a07610ef0565b6001600160a01b03821615610a50576a52b7d2dcc80cd2e4000000610a2e8460025461105b565b11610a41575090610a3e9161108d565b80f35b849051638a164f6360e01b8152fd5b84905163e6c4247b60e01b8152fd5b919050346103c0576001600160a01b0390610a7936610e90565b9290610a83610ef0565b16928315610ad457507f9041c22ed79d1c19c69cc22fd9e38c93da4f2dd8cd32580594e232a8a18541cb91602091848652600783528086209115159160ff1981541660ff841617905551908152a280f35b905163e6c4247b60e01b8152fd5b50503461016057816003193601126101605760209051678ac7230489e800008152f35b505034610160578160031936011261016057602090516a52b7d2dcc80cd2e40000008152f35b5050346101605781600319360112610160576020905160128152f35b905082346108bd5760603660031901126108bd57610b63610e5f565b610b6b610e7a565b91604435936001600160a01b038316808352600160205286832033845260205286832054916000198310610ba8575b602088610707898989610f34565b868310610c0e578115610bf8573315610be25750825260016020908152868320338452815291869020908590039055829061070787610b9a565b60249084895191634a1406b160e11b8352820152fd5b6024908489519163e602df0560e01b8352820152fd5b87517ffb8f41b2000000000000000000000000000000000000000000000000000000008152339181019182526020820193909352604081018790528291506060010390fd5b5050346101605781600319360112610160576020906002549051908152f35b9050346103c057816003193601126103c057610c8c610e5f565b602435903315610d04576001600160a01b0316918215610cee57508083602095338152600187528181208582528752205582519081527f8c5be1e5ebec7d5bd14f71427d1e84f3dd0314c0f7b2291e5b200ac8c7c3b925843392a35160018152f35b60249085855191634a1406b160e11b8352820152fd5b6024838686519163e602df0560e01b8352820152fd5b83833461016057816003193601126101605780519082600354600181811c90808316928315610dea575b6020938484108114610810578388529081156107f45750600114610d9457505050829003601f01601f191682019267ffffffffffffffff84118385101761078c5750829182610788925282610e16565b600387529192508591837fc2575a0e9e593c00f959f8c92f12db2869c3395a3b0502d05e2516446f71f85b5b838510610dd65750505050830101858080610756565b805488860183015293019284908201610dc0565b91607f1691610d44565b84903461016057816003193601126101605780674563918244f4000060209252f35b6020808252825181830181905290939260005b828110610e4b57505060409293506000838284010152601f8019910116010190565b818101860151848201604001528501610e29565b600435906001600160a01b0382168203610e7557565b600080fd5b602435906001600160a01b0382168203610e7557565b6040906003190112610e75576004356001600160a01b0381168103610e7557906024358015158103610e755790565b9181601f84011215610e755782359167ffffffffffffffff8311610e75576020808501948460051b010111610e7557565b6001600160a01b03600554163303610f0457565b60246040517f118cdaa7000000000000000000000000000000000000000000000000000000008152336004820152fd5b916001600160a01b0380841692831561102a5716928315610ff95760009083825281602052604082205490838210610fae575091604082827fddf252ad1be2c89b69c2b068fc378daa952ba7f163c4a11628f55a4df523b3ef958760209652828652038282205586815220818154019055604051908152a3565b6040517fe450d38c0000000000000000000000000000000000000000000000000000000081526001600160a01b03919091166004820152602481019190915260448101839052606490fd5b60246040517fec442f0500000000000000000000000000000000000000000000000000000000815260006004820152fd5b60246040517f96c6fd1e00000000000000000000000000000000000000000000000000000000815260006004820152fd5b9190820180921161106857565b634e487b7160e01b600052601160045260246000fd5b60001981146110685760010190565b6001600160a01b0316908115610ff9577fddf252ad1be2c89b69c2b068fc378daa952ba7f163c4a11628f55a4df523b3ef6020826110cf60009460025461105b565b60025584845283825260408420818154019055604051908152a3565b6002600654146110fc576002600655565b60046040517f3ee5aeb5000000000000000000000000000000000000000000000000000000008152fd5b91908110156111365760051b0190565b634e487b7160e01b600052603260045260246000fd5b356001600160a01b0381168103610e755790565b358015158103610e75579056fea164736f6c6343000814000a",
  "linkReferences": {},
  "deployedLinkReferences": {}
}