{
  "_format": "hh-sol-artifact-1",
  "contractName": "AgentLaunchpad",
  "sourceName": "contracts/AgentLaunchpad.sol",
  "abi": [
    {
      "inputs": [
        {
          "internalType": "address",
          "name": "_treasuryAddress",
          "type": "address"
        },
        {
          "internalType": "address",
          "name": "_uniswapRouter",
          "type": "address"
        },
        {
          "internalType": "address",
          "name": "_entropyAddress",
          "type": "address"
        }
      ],
      "stateMutability": "nonpayable",
      "type": "constructor"
    },
    {
      "inputs": [],
      "name": "AgentAlreadyBonded",
      "type": "error"
    },
    {
      "inputs": [],
      "name": "AgentCancelledError",
      "type": "error"
    },
    {
      "inputs": [],
      "name": "AgentNotFound",
      "type": "error"
    },
    {
      "inputs": [],
      "name": "EnforcedPause",
      "type": "error"
    },
    {
      "inputs": [],
      "name": "ExpectedPause",
      "type": "error"
    },
    {
      "inputs": [],
      "name": "FundingTargetExceeded",
      "type": "error"
    },
    {
      "inputs": [],
      "name": "FundingTargetNotMet",
      "type": "error"
    },
    {
      "inputs": [],
      "name": "InsufficientLiquidity",
      "type": "error"
    },
    {
      "inputs": [],
      "name": "InvalidAddress",
      "type": "error"
    },
    {
      "inputs": [],
      "name": "InvalidFeePercentage",
      "type": "error"
    },
    {
      "inputs": [],
      "name": "NoContribution",
      "type": "error"
    },
    {
      "inputs": [
        {
          "internalType": "address",
          "name": "owner",
          "type": "address"
        }
      ],
      "name": "OwnableInvalidOwner",
      "type": "error"
    },
    {
      "inputs": [
        {
          "internalType": "address",
          "name": "account",
          "type": "address"
        }
      ],
      "name": "OwnableUnauthorizedAccount",
      "type": "error"
    },
    {
      "inputs": [],
      "name": "ReentrancyGuardReentrantCall",
      "type": "error"
    },
    {
      "inputs": [],
      "name": "TransferFailed",
      "type": "error"
    },
    {
      "inputs": [],
      "name": "WithdrawalNotAllowed",
      "type": "error"
    },
    {
      "anonymous": false,
      "inputs": [
        {
          "indexed": true,
          "internalType": "uint256",
          "name": "agentId",
          "type": "uint256"
        },
        {
          "indexed": true,
          "internalType": "address",
          "name": "tokenAddress",
          "type": "address"
        },
        {
          "indexed": true,
          "internalType": "address",
          "name": "lpPairAddress",
          "type": "address"
        },
        {
          "indexed": false,
          "internalType": "uint256",
          "name": "liquidityAdded",
          "type": "uint256"
        },
        {
          "indexed": false,
          "internalType": "uint256",
          "name": "seed",
          "type": "uint256"
        },
        {
          "indexed": false,
          "internalType": "string",
          "name": "agentConfigJSON",
          "type": "string"
        }
      ],
      "name": "AgentBonded",
      "type": "event"
    },
    {
      "anonymous": false,
      "inputs": [
        {
          "indexed": true,
          "internalType": "uint256",
          "name": "agentId",
          "type": "uint256"
        },
        {
          "indexed": false,
          "internalType": "string",
          "name": "reason",
          "type": "string"
        }
      ],
      "name": "AgentCancelled",
      "type": "event"
    },
    {
      "anonymous": false,
      "inputs": [
        {
          "indexed": true,
          "internalType": "uint256",
          "name": "agentId",
          "type": "uint256"
        },
        {
          "indexed": true,
          "internalType": "address",
          "name": "creator",
          "type": "address"
        },
        {
          "indexed": false,
          "internalType": "address",
          "name": "tokenAddress",
          "type": "address"
        },
        {
          "indexed": false,
          "internalType": "string",
          "name": "agentName",
          "type": "string"
        },
        {
          "indexed": false,
          "internalType": "uint256",
          "name": "fundingTarget",
          "type": "uint256"
        },
        {
          "indexed": false,
          "internalType": "string",
          "name": "agentConfigJSON",
          "type": "string"
        }
      ],
      "name": "AgentCreated",
      "type": "event"
    },
    {
      "anonymous": false,
      "inputs": [
        {
          "indexed": true,
          "internalType": "uint256",
          "name": "agentId",
          "type": "uint256"
        },
        {
          "indexed": true,
          "internalType": "address",
          "name": "contributor",
          "type": "address"
        },
        {
          "indexed": false,
          "internalType": "uint256",
          "name": "amount",
          "type": "uint256"
        },
        {
          "indexed": false,
          "internalType": "uint256",
          "name": "totalRaised",
          "type": "uint256"
        }
      ],
      "name": "Contributed",
      "type": "event"
    },
    {
      "anonymous": false,
      "inputs": [
        {
          "indexed": true,
          "internalType": "uint256",
          "name": "agentId",
          "type": "uint256"
        },
        {
          "indexed": true,
          "internalType": "address",
          "name": "contributor",
          "type": "address"
        },
        {
          "indexed": false,
          "internalType": "uint256",
          "name": "amount",
          "type": "uint256"
        }
      ],
      "name": "ContributionWithdrawn",
      "type": "event"
    },
    {
      "anonymous": false,
      "inputs": [
        {
          "indexed": true,
          "internalType": "uint256",
          "name": "agentId",
          "type": "uint256"
        },
        {
          "indexed": false,
          "internalType": "uint64",
          "name": "sequenceNumber",
          "type": "uint64"
        }
      ],
      "name": "EntropyRequested",
      "type": "event"
    },
    {
      "anonymous": false,
      "inputs": [
        {
          "indexed": true,
          "internalType": "uint256",
          "name": "agentId",
          "type": "uint256"
        },
        {
          "indexed": true,
          "internalType": "address",
          "name": "lpTokenAddress",
          "type": "address"
        },
        {
          "indexed": false,
          "internalType": "uint256",
          "name": "tokenAmount",
          "type": "uint256"
        },
        {
          "indexed": false,
          "internalType": "uint256",
          "name": "ethAmount",
          "type": "uint256"
        }
      ],
      "name": "LiquidityProvided",
      "type": "event"
    },
    {
      "anonymous": false,
      "inputs": [
        {
          "indexed": true,
          "internalType": "address",
          "name": "previousOwner",
          "type": "address"
        },
        {
          "indexed": true,
          "internalType": "address",
          "name": "newOwner",
          "type": "address"
        }
      ],
      "name": "OwnershipTransferred",
      "type": "event"
    },
    {
      "anonymous": false,
      "inputs": [
        {
          "indexed": false,
          "internalType": "address",
          "name": "account",
          "type": "address"
        }
      ],
      "name": "Paused",
      "type": "event"
    },
    {
      "anonymous": false,
      "inputs": [
        {
          "indexed": false,
          "internalType": "uint256",
          "name": "oldFee",
          "type": "uint256"
        },
        {
          "indexed": false,
          "internalType": "uint256",
          "name": "newFee",
          "type": "uint256"
        }
      ],
      "name": "ProtocolFeeUpdated",
      "type": "event"
    },
    {
      "anonymous": false,
      "inputs": [
        {
          "indexed": true,
          "internalType": "address",
          "name": "oldRouter",
          "type": "address"
        },
        {
          "indexed": true,
          "internalType": "address",
          "name": "newRouter",
          "type": "address"
        }
      ],
      "name": "RouterUpdated",
      "type": "event"
    },
    {
      "anonymous": false,
      "inputs": [
        {
          "indexed": true,
          "internalType": "uint256",
          "name": "agentId",
          "type": "uint256"
        },
        {
          "indexed": false,
          "internalType": "uint256",
          "name": "seed",
          "type": "uint256"
        }
      ],
      "name": "SeedGenerated",
      "type": "event"
    },
    {
      "anonymous": false,
      "inputs": [
        {
          "indexed": true,
          "internalType": "address",
          "name": "oldTreasury",
          "type": "address"
        },
        {
          "indexed": true,
          "internalType": "address",
          "name": "newTreasury",
          "type": "address"
        }
      ],
      "name": "TreasuryUpdated",
      "type": "event"
    },
    {
      "anonymous": false,
      "inputs": [
        {
          "indexed": false,
          "internalType": "address",
          "name": "account",
          "type": "address"
        }
      ],
      "name": "Unpaused",
      "type": "event"
    },
    {
      "inputs": [],
      "name": "BASIS_POINTS",
      "outputs": [
        {
          "internalType": "uint256",
          "name": "",
          "type": "uint256"
        }
      ],
      "stateMutability": "view",
      "type": "function"
    },
    {
      "inputs": [],
      "name": "MAX_FEE",
      "outputs": [
        {
          "internalType": "uint256",
          "name": "",
          "type": "uint256"
        }
      ],
      "stateMutability": "view",
      "type": "function"
    },
    {
      "inputs": [
        {
          "internalType": "uint64",
          "name": "sequence",
          "type": "uint64"
        },
        {
          "internalType": "address",
          "name": "provider",
          "type": "address"
        },
        {
          "internalType": "bytes32",
          "name": "randomNumber",
          "type": "bytes32"
        }
      ],
      "name": "_entropyCallback",
      "outputs": [],
      "stateMutability": "nonpayable",
      "type": "function"
    },
    {
      "inputs": [
        {
          "internalType": "uint256",
          "name": "",
          "type": "uint256"
        }
      ],
      "name": "agents",
      "outputs": [
        {
          "internalType": "string",
          "name": "name",
          "type": "string"
        },
        {
          "internalType": "string",
          "name": "symbol",
          "type": "string"
        },
        {
          "internalType": "string",
          "name": "agentName",
          "type": "string"
        },
        {
          "internalType": "string",
          "name": "archetype",
          "type": "string"
        },
        {
          "internalType": "string",
          "name": "metadataURI",
          "type": "string"
        },
        {
          "internalType": "uint256",
          "name": "fundingTarget",
          "type": "uint256"
        },
        {
          "internalType": "uint256",
          "name": "tokenSupply",
          "type": "uint256"
        },
        {
          "internalType": "uint256",
          "name": "liquidityTokens",
          "type": "uint256"
        },
        {
          "internalType": "uint256",
          "name": "treasuryTokens",
          "type": "uint256"
        },
        {
          "internalType": "address",
          "name": "creator",
          "type": "address"
        },
        {
          "internalType": "bool",
          "name": "isBonded",
          "type": "bool"
        },
        {
          "internalType": "bool",
          "name": "isCancelled",
          "type": "bool"
        },
        {
          "internalType": "uint256",
          "name": "totalRaised",
          "type": "uint256"
        },
        {
          "internalType": "uint256",
          "name": "createdAt",
          "type": "uint256"
        },
        {
          "internalType": "address",
          "name": "tokenAddress",
          "type": "address"
        },
        {
          "internalType": "address",
          "name": "lpPairAddress",
          "type": "address"
        },
        {
          "internalType": "uint256",
          "name": "seed",
          "type": "uint256"
        },
        {
          "internalType": "string",
          "name": "agentConfigJSON",
          "type": "string"
        }
      ],
      "stateMutability": "view",
      "type": "function"
    },
    {
      "inputs": [
        {
          "internalType": "uint256",
          "name": "agentId",
          "type": "uint256"
        }
      ],
      "name": "bondAgent",
      "outputs": [],
      "stateMutability": "nonpayable",
      "type": "function"
    },
    {
      "inputs": [
        {
          "internalType": "uint256",
          "name": "agentId",
          "type": "uint256"
        },
        {
          "internalType": "string",
          "name": "reason",
          "type": "string"
        }
      ],
      "name": "cancelAgent",
      "outputs": [],
      "stateMutability": "nonpayable",
      "type": "function"
    },
    {
      "inputs": [],
      "name": "contractBalance",
      "outputs": [
        {
          "internalType": "uint256",
          "name": "",
          "type": "uint256"
        }
      ],
      "stateMutability": "view",
      "type": "function"
    },
    {
      "inputs": [
        {
          "internalType": "uint256",
          "name": "agentId",
          "type": "uint256"
        }
      ],
      "name": "contribute",
      "outputs": [],
      "stateMutability": "payable",
      "type": "function"
    },
    {
      "inputs": [
        {
          "internalType": "uint256",
          "name": "",
          "type": "uint256"
        },
        {
          "internalType": "address",
          "name": "",
          "type": "address"
        }
      ],
      "name": "contributions",
      "outputs": [
        {
          "internalType": "uint256",
          "name": "",
          "type": "uint256"
        }
      ],
      "stateMutability": "view",
      "type": "function"
    },
    {
      "inputs": [
        {
          "internalType": "string",
          "name": "name",
          "type": "string"
        },
        {
          "internalType": "string",
          "name": "symbol",
          "type": "string"
        },
        {
          "internalType": "string",
          "name": "agentName",
          "type": "string"
        },
        {
          "internalType": "string",
          "name": "archetype",
          "type": "string"
        },
        {
          "internalType": "string",
          "name": "metadataURI",
          "type": "string"
        },
        {
          "internalType": "uint256",
          "name": "fundingTarget",
          "type": "uint256"
        },
        {
          "internalType": "uint256",
          "name": "tokenSupply",
          "type": "uint256"
        },
        {
          "internalType": "string",
          "name": "agentConfigJSON",
          "type": "string"
        }
      ],
      "name": "createAgent",
      "outputs": [
        {
          "internalType": "uint256",
          "name": "agentId",
          "type": "uint256"
        }
      ],
      "stateMutability": "nonpayable",
      "type": "function"
    },
    {
      "inputs": [],
      "name": "defaultLiquidityPercentage",
      "outputs": [
        {
          "internalType": "uint256",
          "name": "",
          "type": "uint256"
        }
      ],
      "stateMutability": "view",
      "type": "function"
    },
    {
      "inputs": [],
      "name": "defaultTokenLPPercentage",
      "outputs": [
        {
          "internalType": "uint256",
          "name": "",
          "type": "uint256"
        }
      ],
      "stateMutability": "view",
      "type": "function"
    },
    {
      "inputs": [],
      "name": "emergencyWithdraw",
      "outputs": [],
      "stateMutability": "nonpayable",
      "type": "function"
    },
    {
      "inputs": [],
      "name": "entropy",
      "outputs": [
        {
          "internalType": "contract IEntropy",
          "name": "",
          "type": "address"
        }
      ],
      "stateMutability": "view",
      "type": "function"
    },
    {
      "inputs": [
        {
          "internalType": "uint64",
          "name": "",
          "type": "uint64"
        }
      ],
      "name": "entropyRequestToAgentId",
      "outputs": [
        {
          "internalType": "uint256",
          "name": "",
          "type": "uint256"
        }
      ],
      "stateMutability": "view",
      "type": "function"
    },
    {
      "inputs": [
        {
          "internalType": "uint256",
          "name": "agentId",
          "type": "uint256"
        }
      ],
      "name": "getAgentConfigJSON",
      "outputs": [
        {
          "internalType": "string",
          "name": "",
          "type": "string"
        }
      ],
      "stateMutability": "view",
      "type": "function"
    },
    {
      "inputs": [
        {
          "internalType": "uint256",
          "name": "agentId",
          "type": "uint256"
        }
      ],
      "name": "getAgentInfo",
      "outputs": [
        {
          "internalType": "string",
          "name": "name",
          "type": "string"
        },
        {
          "internalType": "string",
          "name": "symbol",
          "type": "string"
        },
        {
          "internalType": "string",
          "name": "agentName",
          "type": "string"
        },
        {
          "internalType": "string",
          "name": "archetype",
          "type": "string"
        },
        {
          "internalType": "string",
          "name": "metadataURI",
          "type": "string"
        },
        {
          "internalType": "uint256",
          "name": "fundingTarget",
          "type": "uint256"
        },
        {
          "internalType": "uint256",
          "name": "totalRaised",
          "type": "uint256"
        },
        {
          "internalType": "bool",
          "name": "isBonded",
          "type": "bool"
        },
        {
          "internalType": "bool",
          "name": "isCancelled",
          "type": "bool"
        },
        {
          "internalType": "address",
          "name": "creator",
          "type": "address"
        },
        {
          "internalType": "address",
          "name": "tokenAddress",
          "type": "address"
        },
        {
          "internalType": "address",
          "name": "lpPairAddress",
          "type": "address"
        },
        {
          "internalType": "uint256",
          "name": "seed",
          "type": "uint256"
        },
        {
          "internalType": "string",
          "name": "agentConfigJSON",
          "type": "string"
        }
      ],
      "stateMutability": "view",
      "type": "function"
    },
    {
      "inputs": [
        {
          "internalType": "uint256",
          "name": "agentId",
          "type": "uint256"
        }
      ],
      "name": "getAgentSeed",
      "outputs": [
        {
          "internalType": "uint256",
          "name": "",
          "type": "uint256"
        }
      ],
      "stateMutability": "view",
      "type": "function"
    },
    {
      "inputs": [
        {
          "internalType": "uint256",
          "name": "agentId",
          "type": "uint256"
        },
        {
          "internalType": "address",
          "name": "user",
          "type": "address"
        }
      ],
      "name": "getContribution",
      "outputs": [
        {
          "internalType": "uint256",
          "name": "",
          "type": "uint256"
        }
      ],
      "stateMutability": "view",
      "type": "function"
    },
    {
      "inputs": [],
      "name": "getCurrentAgentId",
      "outputs": [
        {
          "internalType": "uint256",
          "name": "",
          "type": "uint256"
        }
      ],
      "stateMutability": "view",
      "type": "function"
    },
    {
      "inputs": [],
      "name": "getEntropyAddress",
      "outputs": [
        {
          "internalType": "address",
          "name": "",
          "type": "address"
        }
      ],
      "stateMutability": "view",
      "type": "function"
    },
    {
      "inputs": [
        {
          "internalType": "uint256",
          "name": "agentId",
          "type": "uint256"
        }
      ],
      "name": "getLiquidityPool",
      "outputs": [
        {
          "internalType": "address",
          "name": "",
          "type": "address"
        }
      ],
      "stateMutability": "view",
      "type": "function"
    },
    {
      "inputs": [
        {
          "internalType": "uint256",
          "name": "agentId",
          "type": "uint256"
        }
      ],
      "name": "getTotalRaised",
      "outputs": [
        {
          "internalType": "uint256",
          "name": "",
          "type": "uint256"
        }
      ],
      "stateMutability": "view",
      "type": "function"
    },
    {
      "inputs": [
        {
          "internalType": "address",
          "name": "user",
          "type": "address"
        }
      ],
      "name": "getUserAgents",
      "outputs": [
        {
          "internalType": "uint256[]",
          "name": "",
          "type": "uint256[]"
        }
      ],
      "stateMutability": "view",
      "type": "function"
    },
    {
      "inputs": [
        {
          "internalType": "uint256",
          "name": "agentId",
          "type": "uint256"
        }
      ],
      "name": "hasSeed",
      "outputs": [
        {
          "internalType": "bool",
          "name": "",
          "type": "bool"
        }
      ],
      "stateMutability": "view",
      "type": "function"
    },
    {
      "inputs": [
        {
          "internalType": "uint256",
          "name": "agentId",
          "type": "uint256"
        }
      ],
      "name": "isAgentBonded",
      "outputs": [
        {
          "internalType": "bool",
          "name": "",
          "type": "bool"
        }
      ],
      "stateMutability": "view",
      "type": "function"
    },
    {
      "inputs": [],
      "name": "owner",
      "outputs": [
        {
          "internalType": "address",
          "name": "",
          "type": "address"
        }
      ],
      "stateMutability": "view",
      "type": "function"
    },
    {
      "inputs": [],
      "name": "pauseLaunchpad",
      "outputs": [],
      "stateMutability": "nonpayable",
      "type": "function"
    },
    {
      "inputs": [],
      "name": "paused",
      "outputs": [
        {
          "internalType": "bool",
          "name": "",
          "type": "bool"
        }
      ],
      "stateMutability": "view",
      "type": "function"
    },
    {
      "inputs": [],
      "name": "protocolFeePercentage",
      "outputs": [
        {
          "internalType": "uint256",
          "name": "",
          "type": "uint256"
        }
      ],
      "stateMutability": "view",
      "type": "function"
    },
    {
      "inputs": [],
      "name": "renounceOwnership",
      "outputs": [],
      "stateMutability": "nonpayable",
      "type": "function"
    },
    {
      "inputs": [
        {
          "internalType": "uint256",
          "name": "_feePercentage",
          "type": "uint256"
        }
      ],
      "name": "setProtocolFeePercentage",
      "outputs": [],
      "stateMutability": "nonpayable",
      "type": "function"
    },
    {
      "inputs": [
        {
          "internalType": "address",
          "name": "_treasuryAddress",
          "type": "address"
        }
      ],
      "name": "setTreasuryAddress",
      "outputs": [],
      "stateMutability": "nonpayable",
      "type": "function"
    },
    {
      "inputs": [
        {
          "internalType": "address",
          "name": "_uniswapRouter",
          "type": "address"
        }
      ],
      "name": "setUniswapRouter",
      "outputs": [],
      "stateMutability": "nonpayable",
      "type": "function"
    },
    {
      "inputs": [
        {
          "internalType": "address",
          "name": "newOwner",
          "type": "address"
        }
      ],
      "name": "transferOwnership",
      "outputs": [],
      "stateMutability": "nonpayable",
      "type": "function"
    },
    {
      "inputs": [],
      "name": "treasuryAddress",
      "outputs": [
        {
          "internalType": "address",
          "name": "",
          "type": "address"
        }
      ],
      "stateMutability": "view",
      "type": "function"
    },
    {
      "inputs": [],
      "name": "uniswapRouter",
      "outputs": [
        {
          "internalType": "address",
          "name": "",
          "type": "address"
        }
      ],
      "stateMutability": "view",
      "type": "function"
    },
    {
      "inputs": [],
      "name": "unpauseLaunchpad",
      "outputs": [],
      "stateMutability": "nonpayable",
      "type": "function"
    },
    {
      "inputs": [
        {
          "internalType": "address",
          "name": "",
          "type": "address"
        },
        {
          "internalType": "uint256",
          "name": "",
          "type": "uint256"
        }
      ],
      "name": "userAgents",
      "outputs": [
        {
          "internalType": "uint256",
          "name": "",
          "type": "uint256"
        }
      ],
      "stateMutability": "view",
      "type": "function"
    },
    {
      "inputs": [
        {
          "internalType": "uint256",
          "name": "agentId",
          "type": "uint256"
        }
      ],
      "name": "withdrawContribution",
      "outputs": [],
      "stateMutability": "nonpayable",
      "type": "function"
    }
  ],
  "bytecode": "0x6080346200015857601f62007a2b38819003918201601f19168301916001600160401b038311848410176200015d5780849260609460405283398101031262000158576200004d8162000173565b620000696040620000616020850162000173565b930162000173565b33156200013f576000549260018060a01b03199333858216176000556040519060018060a01b03948591823391167f8be0079c531659141344cd1fd0a4f28419497f9722a3daafe3b4186f6b6457e0600080a36001805561012c600a55611f4080600b55600c5516908115801562000134575b801562000129575b6200011a575090839185600754161760075516836008541617600855169060095416176009556040516178a29081620001898239f35b63e6c4247b60e01b8152600490fd5b5084841615620000e4565b5084831615620000dc565b604051631e4fbdf760e01b815260006004820152602490fd5b600080fd5b634e487b7160e01b600052604160045260246000fd5b51906001600160a01b0382168203620001585756fe60a08060405260043610156200001457600080fd5b60003560e01c9081628c5504146200238257508063187ee7e4146200234357806319a6a6e9146200216c5780632f8228dc14620020e55780633d46519d14620020275780633d891f59146200031257806342f84c331462001ff657806347ce07cc14620001ff578063513856c81462001db357806351ca9ff91462001d5657806352a5f1f81462001b5657806358dc83101462001b235780635c975abb1462001afe5780636605bfda1462001a89578063715018a61462001a2c578063735de9f71462001a03578063754c5e891462000c08578063842e72e51462000b935780638b7afe2e1462000b755780638da5cb5b1462000b4c5780638e50e5091462000b2c578063a491ceb61462000acc578063a74498aa1462000a92578063ab49ed571462000a61578063b4f685e114620009c1578063ba39a1c51462000988578063bc063e1a1462000969578063bea9849e14620008ca578063bfd1769e14620008aa578063c1cbbca71462000703578063c5f956af14620006da578063cfeb9eb214620005bf578063d25090ff1462000459578063d8a5e93614620003cc578063db2e21bc146200035f578063e081dbf91462000312578063e1f1c4a714620002f3578063e379dcaf14620002d3578063f2fde38b146200022d5763fdaa566114620001ff57600080fd5b3462000228576000366003190112620002285760206001600160a01b0360095416604051908152f35b600080fd5b346200022857602036600319011262000228576200024a620023f9565b62000254620025a2565b6001600160a01b03809116908115620002a257600054826001600160a01b0319821617600055167f8be0079c531659141344cd1fd0a4f28419497f9722a3daafe3b4186f6b6457e0600080a3005b60246040517f1e4fbdf700000000000000000000000000000000000000000000000000000000815260006004820152fd5b346200022857600036600319011262000228576020600b54604051908152f35b3462000228576000366003190112620002285760206040516127108152f35b346200022857604036600319011262000228576200032f62002410565b60043560005260056020526001600160a01b03604060002091166000526020526020604060002054604051908152f35b346200022857600036600319011262000228576200037c620025a2565b6000808080476001600160a01b038254165af16200039962002704565b5015620003a257005b60046040517f90b8ec18000000000000000000000000000000000000000000000000000000008152fd5b34620002285760203660031901126200022857600435620003ec620025a2565b6103e881116200042f5760407fb404cac19fb1cbeff98d325795b08886e3cd8fe8cb1a2f193aac66f13fb239c391600a549080600a5582519182526020820152a1005b60046040517f721dbfea000000000000000000000000000000000000000000000000000000008152fd5b34620002285760208060031936011262000228576004356200047a620026c8565b806000526004825260406000209160098301546001600160a01b03811615620005955760a01c60ff166200056b57816000526005815260406000203360005281526040600020549283156200054157600a90836000526005835260406000203360005283526000604081205501620004f4848254620025fb565b9055600080808086335af16200050962002704565b5015620003a2577fa182b2a9c58fae7e4827fbe3ac2fa1c5711191ef3f58b1fa19631feb97273bb2906040519384523393a360018055005b60046040517f65c7efcc000000000000000000000000000000000000000000000000000000008152fd5b60046040517f4134ed3a000000000000000000000000000000000000000000000000000000008152fd5b60046040517fe93ba223000000000000000000000000000000000000000000000000000000008152fd5b3462000228576040366003190112620002285760043560243567ffffffffffffffff81116200022857620005f890369060040162002571565b9062000603620025a2565b8260005260046020526009604060002001918254926001600160a01b03841615620005955760ff8460a01c16620006b05775010000000000000000000000000000000000000000007fffffffffffffffffffff00ffffffffffffffffffffffffffffffffffffffffff7feccbac3b54f4e8ce39548e6fd5e90000c54fa4a517c112f147c66cd45b457b089516179055620006ab60405192839260208452602084019162002609565b0390a2005b60046040517fc00b4f42000000000000000000000000000000000000000000000000000000008152fd5b3462000228576000366003190112620002285760206001600160a01b0360075416604051908152f35b6020806003193601126200022857600435906200071f620026c8565b6200072962002683565b8160005260048152604060002060098101546001600160a01b03811615620005955760ff8160a01c16620006b05760a81c60ff16620008805734156200083c57600a81019160056200077d348554620026ba565b9201918254106200081257836000526005815260406000203360005281526040600020620007ad348254620026ba565b9055620007bc348454620026ba565b8093558260405191348352820152837fdcfa71ee125a676f843733d9d39dce2c918ecf9e92f96db4f24bdb5244ed68a060403393a354111562000800575b60018055005b6200080b9062002753565b80620007fa565b60046040517f7e494363000000000000000000000000000000000000000000000000000000008152fd5b6064826040519062461bcd60e51b82526004820152601b60248201527f4d75737420636f6e74726962757465206d6f7265207468616e203000000000006044820152fd5b60046040517f52283249000000000000000000000000000000000000000000000000000000008152fd5b346200022857600036600319011262000228576020600c54604051908152f35b34620002285760203660031901126200022857620008e7620023f9565b620008f1620025a2565b6001600160a01b038091169081156200093f57600854826001600160a01b0319821617600855167f02dc5c233404867c793b749c6d644beb2277536d18a7e7974d3f238e4c6f1684600080a3005b60046040517fe6c4247b000000000000000000000000000000000000000000000000000000008152fd5b3462000228576000366003190112620002285760206040516103e88152f35b346200022857602036600319011262000228576004356000526004602052602060ff60096040600020015460a01c166040519015158152f35b34620002285760203660031901126200022857600435620009e1620026c8565b80600052600460205260406000206009810154906001600160a01b0382161562000595576005600a8201549101541162000a375760ff8160a01c16620006b05760a81c60ff166200088057620007fa9062002753565b60046040517f040b16cf000000000000000000000000000000000000000000000000000000008152fd5b3462000228576020366003190112620002285760043560005260046020526020600a60406000200154604051908152f35b34620002285760203660031901126200022857600435600052600460205260206001600160a01b03600d6040600020015416604051908152f35b3462000228576000366003190112620002285762000ae9620025a2565b62000af362002683565b600160ff1960025416176002557f62e78cea01bee320cd4e420270b5ea74000d11b0c9f74754ebdbfc544b05a2586020604051338152a1005b346200022857600036600319011262000228576020600a54604051908152f35b3462000228576000366003190112620002285760206001600160a01b0360005416604051908152f35b34620002285760003660031901126200022857602047604051908152f35b34620002285760203660031901126200022857600435600052600460205260406000206001600160a01b03600982015416156200059557600f62000bef62000c049262000be7604051809481930162002464565b03826200251f565b604051918291602083526020830190620023b7565b0390f35b346200022857610100366003190112620002285760043567ffffffffffffffff8111620002285762000c3f90369060040162002571565b60243567ffffffffffffffff8111620002285762000c6290369060040162002571565b9260443567ffffffffffffffff8111620002285762000c8690369060040162002571565b60643567ffffffffffffffff8111620002285762000ca990369060040162002571565b60849591953567ffffffffffffffff8111620002285762000ccf90369060040162002571565b96909860e43567ffffffffffffffff8111620002285762000cf590369060040162002571565b9a909862000d0262002683565b60a43515620019bf5760c435156200197b578a1562001937578215620018f3578b15620018af576003549a6000198c14620018995760018c0160035561271062000d51600c5460c435620025e7565b049462000d618660c435620025fb565b966040518061479981011067ffffffffffffffff6147998301111762001378578f62000e4a8f8f928f8f8f62000e249262000e0c928f62000df49362000ddd918f8d9c62000dc5916101008f614799620030fd823961479901818152019162002609565b918c6020614799820185039161479901015262002609565b916147998a01830360406147998c01015262002609565b61479987018103606061479989010152888a62002609565b614799860181036080614799880101528a8c62002609565b60c435614799860160a08101919091523060c082015280820360e0909101529162002609565b03906000f09b8c156200188d57604051998a61024081011067ffffffffffffffff6102408d011117620013785762000ed09762000e9a62000ea49362000ec3976102408f01604052369162002647565b8c52369162002647565b60208a015262000eb6368b8d62002647565b60408a0152369162002647565b6060870152369162002647565b608084015260a43560a084015260c43560c084015260e083015261010082015233610120820152600061014082015260006101608201526000610180820152426101a08201526001600160a01b0384166101c082015260006101e0820152600061020082015262000f4336888762002647565b610220820152856000526004602052604060002090805180519067ffffffffffffffff82116200137857819062000f7b855462002427565b601f811162001838575b50602090601f8311600114620017c757600092620017bb575b50508160011b916000199060031b1c19161782555b602081015180519067ffffffffffffffff82116200137857819062000fdc600186015462002427565b601f811162001763575b50602090601f8311600114620016ec57600092620016e0575b50508160011b916000199060031b1c19161760018301555b604081015180519067ffffffffffffffff82116200137857819062001040600286015462002427565b601f811162001688575b50602090601f8311600114620016115760009262001605575b50508160011b916000199060031b1c19161760028301555b606081015180519067ffffffffffffffff821162001378578190620010a4600386015462002427565b601f8111620015ad575b50602090601f831160011462001536576000926200152a575b50508160011b916000199060031b1c19161760038301555b608081015180519067ffffffffffffffff8211620013785762001106600485015462002427565b601f8111620014de575b50602090601f831160011462001465576102209392916000918362001459575b50508160011b916000199060031b1c19161760048401555b60a0810151600584015560c0810151600684015560e081015160078401556101008101516008840155600983016001600160a01b036101208301511681549074ff0000000000000000000000000000000000000000610140850151151560a01b16907fffffffffffffffffffff0000000000000000000000000000000000000000000075ff000000000000000000000000000000000000000000610160870151151560a81b1693161717179055610180810151600a8401556101a0810151600b840155600c83016001600160a01b036101c083015116906001600160a01b03199182825416179055600d8401906001600160a01b036101e08401511690825416179055610200810151600e840155015180519067ffffffffffffffff821162001378576200127a600f84015462002427565b601f81116200140d575b50602090601f83116001146200139a57600f9291600091836200138e575b50508160011b916000199060031b1c1916179101555b336000526006602052604060002092835493680100000000000000008510156200137857602097620013547f70e46b5985b32ad72eda39cc17f26dda0d216f9938423ab3778e36fc7ca69882956001600160a01b039562001325896200136d9660018e9c01815562002542565b81549060031b908b821b91600019901b191617905560405196879616865260808c870152608086019162002609565b9060a43560408501528382036060850152339762002609565b0390a3604051908152f35b634e487b7160e01b600052604160045260246000fd5b015190508a80620012a2565b90601f19831691600f850160005260206000209260005b818110620013f45750916001939185600f969410620013da575b505050811b01910155620012b8565b015160001960f88460031b161c191690558a8080620013cb565b92936020600181928786015181550195019301620013b1565b600f84016000526020600020601f840160051c81016020851062001451575b601f830160051c820181106200144457505062001284565b600081556001016200142c565b50806200142c565b015190508b8062001130565b906004850160005260206000209160005b601f1985168110620014c557509183916001936102209695601f19811610620014ab575b505050811b01600484015562001148565b015160001960f88460031b161c191690558b80806200149a565b9192602060018192868501518155019401920162001476565b600485016000526020600020601f840160051c81016020851062001522575b601f830160051c820181106200151557505062001110565b60008155600101620014fd565b5080620014fd565b015190508a80620010c7565b9250600385016000526020600020906000935b601f198416851062001591576001945083601f1981161062001577575b505050811b016003830155620010df565b015160001960f88460031b161c191690558a808062001566565b8181015183556020948501946001909301929091019062001549565b909150600385016000526020600020601f840160051c810160208510620015fd575b90849392915b601f830160051c82018110620015ed575050620010ae565b60008155859450600101620015d5565b5080620015cf565b015190508a8062001063565b9250600285016000526020600020906000935b601f19841685106200166c576001945083601f1981161062001652575b505050811b0160028301556200107b565b015160001960f88460031b161c191690558a808062001641565b8181015183556020948501946001909301929091019062001624565b909150600285016000526020600020601f840160051c810160208510620016d8575b90849392915b601f830160051c82018110620016c85750506200104a565b60008155859450600101620016b0565b5080620016aa565b015190508a8062000fff565b9250600185016000526020600020906000935b601f198416851062001747576001945083601f198116106200172d575b505050811b01600183015562001017565b015160001960f88460031b161c191690558a80806200171c565b81810151835560209485019460019093019290910190620016ff565b909150600185016000526020600020601f840160051c810160208510620017b3575b90849392915b601f830160051c82018110620017a357505062000fe6565b600081558594506001016200178b565b508062001785565b015190508a8062000f9e565b9250846000526020600020906000935b601f19841685106200181c576001945083601f1981161062001802575b505050811b01825562000fb3565b015160001960f88460031b161c191690558a8080620017f4565b81810151835560209485019460019093019290910190620017d7565b909150846000526020600020601f840160051c81016020851062001885575b90849392915b601f830160051c820181106200187557505062000f85565b600081558594506001016200185d565b508062001857565b6040513d6000823e3d90fd5b634e487b7160e01b600052601160045260246000fd5b606460405162461bcd60e51b815260206004820152601960248201527f496e76616c6964206167656e7420636f6e666967204a534f4e000000000000006044820152fd5b606460405162461bcd60e51b815260206004820152600e60248201527f496e76616c69642073796d626f6c0000000000000000000000000000000000006044820152fd5b606460405162461bcd60e51b815260206004820152600c60248201527f496e76616c6964206e616d6500000000000000000000000000000000000000006044820152fd5b606460405162461bcd60e51b815260206004820152601460248201527f496e76616c696420746f6b656e20737570706c790000000000000000000000006044820152fd5b606460405162461bcd60e51b815260206004820152601660248201527f496e76616c69642066756e64696e6720746172676574000000000000000000006044820152fd5b3462000228576000366003190112620002285760206001600160a01b0360085416604051908152f35b3462000228576000366003190112620002285762001a49620025a2565b60006001600160a01b0381546001600160a01b031981168355167f8be0079c531659141344cd1fd0a4f28419497f9722a3daafe3b4186f6b6457e08280a3005b3462000228576020366003190112620002285762001aa6620023f9565b62001ab0620025a2565b6001600160a01b038091169081156200093f57600754826001600160a01b0319821617600755167f4ab5be82436d353e61ca18726e984e561f5c1cc7c6d38b29d2553c790434705a600080a3005b34620002285760003660031901126200022857602060ff600254166040519015158152f35b3462000228576020366003190112620002285760043560005260046020526020600e604060002001541515604051908152f35b3462000228576060366003190112620002285762001b736200239f565b62001b7d62002410565b906001600160a01b03908160095416801562001d1257330362001ca85767ffffffffffffffff1691826000526020600d815260406000205491604051848382019260443584528560408401521660608201526060815262001bde8162002502565b51902093826000526004825284600e60406000200155600052600d815260006040812055817f4c41b765be2f20c9501f57b6e2ad4edc664bb5f44b21b5559ca0f987847f222f82604051878152a2816000526004815260406000209360ff600986015460a01c1662001c4c57005b7f5634160bfde2f4edaeb342d307e242ca9934d78e18d7c66a7b022dfcf09853299162001ca385600c8801541695600d88015416966040519384936000855284015260606040840152600f60608401910162002464565b0390a4005b608460405162461bcd60e51b815260206004820152602360248201527f4f6e6c7920456e74726f70792063616e2063616c6c20746869732066756e637460448201527f696f6e00000000000000000000000000000000000000000000000000000000006064820152fd5b606460405162461bcd60e51b815260206004820152601760248201527f456e74726f70792061646472657373206e6f74207365740000000000000000006044820152fd5b3462000228576040366003190112620002285762001d73620023f9565b6001600160a01b036024359116600052600660205260406000208054821015620002285760209162001da59162002542565b90546040519160031b1c8152f35b3462000228576020366003190112620002285760043560005260046020526040600020604051908162001de7818362002464565b0362001df490836200251f565b604051918262001e08816001850162002464565b0362001e1590846200251f565b6040519282908462001e2b816002850162002464565b0362001e3890866200251f565b604051948562001e4c816003860162002464565b0362001e5990876200251f565b604051958662001e6d816004870162002464565b0362001e7a90886200251f565b60058401549660068501546007860154600887015491600988015493600a89015495600b8a015497600c8b01546001600160a01b031699600d8c01546001600160a01b03169b600e01549c6040519e8f80600f8193019062001edc9162002464565b0362001ee8916200251f565b604051806080526102408091526080510162001f0491620023b7565b608051808203906020015262001f1a91620023b7565b608051808203906040015262001f3091620023b7565b608051808203906060015262001f4691620023b7565b608051808203906080015262001f5c91620023b7565b9a60805160a0015260805160c0015260805160e0015260805161010001526001600160a01b03811660805161012001528060a01c60ff161515608051610140015260a81c60ff161515608051610160015260805161018001526080516101a001526080516101c001526080516101e0015260805161020001526080518083039061022001526080519162001ff091620023b7565b03608051f35b3462000228576020366003190112620002285760043560005260046020526020600e60406000200154604051908152f35b34620002285760208060031936011262000228576001600160a01b036200204d620023f9565b1660005260068152604060002060405190818382549182815201908192600052846000209060005b86828210620020d05786866200208e828803836200251f565b604051928392818401908285525180915260408401929160005b828110620020b857505050500390f35b835185528695509381019392810192600101620020a8565b83548552909301926001928301920162002075565b3462000228576000366003190112620002285762002102620025a2565b60025460ff811615620021425760ff19166002557f5db9ee0a495bf2e6ff9c91a7834c1ba4fdd244a5e8aa4e537bd38aeae4b073aa6020604051338152a1005b60046040517f8dfc202b000000000000000000000000000000000000000000000000000000008152fd5b346200022857602036600319011262000228576004356000526004602052604060002060098101546001600160a01b039182821680156200059557600582015490600a8301549480600c8501541690600d8501541690600e850154926040519687620021d9818962002464565b03620021e690896200251f565b6040519889620021fa8160018b0162002464565b0362002207908b6200251f565b604051806200221a8160028c0162002464565b036200222790826200251f565b604051806200223a8160038d0162002464565b036200224790826200251f565b60405191826200225b8160048e0162002464565b036200226890846200251f565b60405180600f819d01906200227d9162002464565b036200228a908c6200251f565b6040519c8d9c8d6101c09081815201620022a491620023b7565b8d810360208f0152620022b791620023b7565b8c810360408e0152620022ca91620023b7565b8b810360608d0152620022dd91620023b7565b8a810360808c0152620022f091620023b7565b9660a08a015260c08901528060a01c60ff16151560e089015260a81c60ff1615156101008801526101208701526101408601526101608501526101808401528281036101a084015262000c0491620023b7565b3462000228576020366003190112620002285767ffffffffffffffff620023696200239f565b16600052600d6020526020604060002054604051908152f35b346200022857600036600319011262000228576020906003548152f35b6004359067ffffffffffffffff821682036200022857565b919082519283825260005b848110620023e4575050826000602080949584010152601f8019910116010190565b602081830181015184830182015201620023c2565b600435906001600160a01b03821682036200022857565b602435906001600160a01b03821682036200022857565b90600182811c9216801562002459575b60208310146200244357565b634e487b7160e01b600052602260045260246000fd5b91607f169162002437565b9060009291805491620024778362002427565b918282526001938481169081600014620024de57506001146200249b575b50505050565b90919394506000526020928360002092846000945b838610620024c957505050500101903880808062002495565b805485870183015294019385908201620024b0565b9294505050602093945060ff191683830152151560051b0101903880808062002495565b6080810190811067ffffffffffffffff8211176200137857604052565b90601f8019910116810190811067ffffffffffffffff8211176200137857604052565b80548210156200255b5760005260206000200190600090565b634e487b7160e01b600052603260045260246000fd5b9181601f84011215620002285782359167ffffffffffffffff83116200022857602083818601950101116200022857565b6001600160a01b03600054163303620025b757565b60246040517f118cdaa7000000000000000000000000000000000000000000000000000000008152336004820152fd5b818102929181159184041417156200189957565b919082039182116200189957565b908060209392818452848401376000828201840152601f01601f1916010190565b67ffffffffffffffff81116200137857601f01601f191660200190565b92919262002655826200262a565b916200266560405193846200251f565b82948184528183011162000228578281602093846000960137010152565b60ff600254166200269057565b60046040517fd93c0665000000000000000000000000000000000000000000000000000000008152fd5b919082018092116200189957565b600260015414620026da576002600155565b60046040517f3ee5aeb5000000000000000000000000000000000000000000000000000000008152fd5b3d1562002734573d9062002718826200262a565b916200272860405193846200251f565b82523d6000602084013e565b606090565b908160209103126200022857518015158103620002285790565b906000918083526004906020828152620027b26040938487209087600a830154620027b861271091826200278a600a5483620025e7565b04968793620027a86200279e8685620025fb565b600b5490620025e7565b04978892620025fb565b620025fb565b6009850191740100000000000000000000000000000000000000007fffffffffffffffffffffff00ffffffffffffffffffffffffffffffffffffffff8454161783558062003069575b508062002ffb575b5050506001600160a01b038060095416918988517f82ee990c0000000000000000000000000000000000000000000000000000000080825288828581895afa91821562002fcd57839262002fd7575b50848b51927fb88c914800000000000000000000000000000000000000000000000000000000845216848301528882602481895afa91821562002fcd57839262002f7a575b508a51958987018b8152428d8901526060974489820152888152620028c28162002502565b519020928c519283528a838781855afa92831562002f70579287926044928f8e96899462002f38575b50906fffffffffffffffffffffffffffffffff915197889687957f19cb825f000000000000000000000000000000000000000000000000000000008752168b860152602485015216905af190811562002f2e57828a928a928d959162002eb8575b5092809467ffffffffffffffff7f01c8a6742988c86e1e3cf3a0830aacd862b20c5ac4af6858c41e69c4942306fa951692838152600d855220558067ffffffffffffffff19600e541617600e558b51908152a2868a5280865289888120600c810190848254169085600854168c517fc45a01550000000000000000000000000000000000000000000000000000000081528b818881855afa90811562002eae5786959493928f9789938f938c929162002e8c575b50169751928380927fad5c46480000000000000000000000000000000000000000000000000000000082525afa90811562002e8257859162002e60575b508d517fe6a439050000000000000000000000000000000000000000000000000000000081526001600160a01b0380851689830190815290831660208201529096908d90889081906040010381845afa96871562002e5557918f93918e9593889962002e31575b50898b8a161562002d77575b5050509062002b1093929160078a60085416910196875493518096819582947f095ea7b30000000000000000000000000000000000000000000000000000000084528d8401602090939291936001600160a01b0360408201951681520152565b03925af1801562002d6b5762002d49575b5084806008541691541682549061012c42019283421162002d35578892918b8f9260c4935196879586947ff305d7190000000000000000000000000000000000000000000000000000000086528c860152806024860152604485015282606485015230608485015260a48401525af1801562002d2b5762002cf7575b509a62002c5091897f413fcc4add68f16703d76130cf98a76591f34707ceaa9abd83774f3776483a81868d9e9f5493169d8e9381519081528b8d820152a3600d86018b6001600160a01b0319825416179055878a600c88019486865416908488600754169160088c01549451978895869485937fa9059cbb0000000000000000000000000000000000000000000000000000000085528401602090939291936001600160a01b0360408201951681520152565b03925af190811562002cec5750937f5634160bfde2f4edaeb342d307e242ca9934d78e18d7c66a7b022dfcf098532997969593600f93829362002cb39762002cb8575b50541699600e850154815198899889528801528601528401910162002464565b0390a4565b62002cdc908a3d8c1162002ce4575b62002cd381836200251f565b81019062002739565b503862002c93565b503d62002cc7565b8a51903d90823e3d90fd5b8590813d831162002d23575b62002d0f81836200251f565b8101031262002d1f573862002b9d565b8b80fd5b503d62002d03565b8b513d8f823e3d90fd5b5060248f601188634e487b7160e01b835252fd5b62002d63908a3d8c1162002ce45762002cd381836200251f565b503862002b21565b8e8d51903d90823e3d90fd5b94517fc9c653960000000000000000000000000000000000000000000000000000000081526001600160a01b0380861696820196875290921660208601529197509193919283919082908890829060400103925af190811562002e275762002b10928c928f92879162002df3575b509690919293388962002ab0565b62002e189150843d861162002e1f575b62002e0f81836200251f565b810190620030db565b3862002de5565b503d62002e03565b8d513d86823e3d90fd5b62002e4d919950863d881162002e1f5762002e0f81836200251f565b973862002aa4565b508e513d87823e3d90fd5b62002e7b91508c8d3d1062002e1f5762002e0f81836200251f565b3862002a3d565b8e513d87823e3d90fd5b62002ea79150843d861162002e1f5762002e0f81836200251f565b3862002a00565b8e513d88823e3d90fd5b94505050905081813d831162002f26575b62002ed581836200251f565b8101031262002f2257518a67ffffffffffffffff8216820362002f1f578991899189917f01c8a6742988c86e1e3cf3a0830aacd862b20c5ac4af6858c41e69c4942306fa6200294c565b80fd5b8a80fd5b503d62002ec9565b8a513d84823e3d90fd5b6fffffffffffffffffffffffffffffffff9291945062002f6790883d8a1162002e1f5762002e0f81836200251f565b939091620028eb565b8d513d87823e3d90fd5b9091508881813d831162002fc5575b62002f9581836200251f565b8101031262002fc157516fffffffffffffffffffffffffffffffff8116810362002fc15790386200289d565b8280fd5b503d62002f89565b8b513d85823e3d90fd5b62002ff3919250893d8b1162002e1f5762002e0f81836200251f565b903862002858565b828092916001600160a01b03829354165af16200301762002704565b5015620030275787388062002809565b6064908487519162461bcd60e51b8352820152601760248201527f43726561746f72207472616e73666572206661696c65640000000000000000006044820152fd5b928080809394956001600160a01b03600754165af16200308862002704565b501562003099579089913862002801565b606483878a519162461bcd60e51b8352820152601860248201527f5472656173757279207472616e73666572206661696c656400000000000000006044820152fd5b908160209103126200022857516001600160a01b038116810362000228579056fe610160806040523462000142576200479990813803809262000021826200015d565b823981810190610100809312620001425780516001600160401b03929083811162000142578162000054918401620001db565b91610180518481116200014257826200006f918301620001db565b6101a05185811162000142578362000089918401620001db565b6101c051868111620001425784620000a3918501620001db565b906101e051878111620001425785620000be918601620001db565b926102005194620000ce62000241565b9661024051998a116200014257620000f399620000ec9201620001db565b9662000a1d565b60405161304a91826200170f8339608051826124ae015260a05182612569015260c0518261247f015260e051826124fd0152518161252301526101205181610f1a01526101405181610f430152f35b600080fd5b634e487b7160e01b600052604160045260246000fd5b601f01601f1916610160908101906001600160401b038211908210176200018357604052565b62000147565b604081019081106001600160401b038211176200018357604052565b60405190620001b48262000189565b565b60005b838110620001ca5750506000910152565b8181015183820152602001620001b9565b81601f82011215620001425780516001600160401b0392838211620001835760405193601f8301601f19908116603f011685019081118582101762000183576040528184526020828401011162000142576200023e9160208085019101620001b6565b90565b61022051906001600160a01b03821682036200014257565b90600182811c921680156200028b575b60208310146200027557565b634e487b7160e01b600052602260045260246000fd5b91607f169162000269565b601f8111620002a3575050565b6000906003825260208220906020601f850160051c83019410620002e4575b601f0160051c01915b828110620002d857505050565b818155600101620002cb565b9092508290620002c2565b601f8111620002fc575050565b6000906004825260208220906020601f850160051c830194106200033d575b601f0160051c01915b8281106200033157505050565b81815560010162000324565b90925082906200031b565b601f811162000355575050565b600090600d825260208220906020601f850160051c8301941062000396575b601f0160051c01915b8281106200038a57505050565b8181556001016200037d565b909250829062000374565b601f8111620003ae575050565b600090600e825260208220906020601f850160051c83019410620003ef575b601f0160051c01915b828110620003e357505050565b818155600101620003d6565b9092508290620003cd565b601f811162000407575050565b600090600f825260208220906020601f850160051c8301941062000448575b601f0160051c01915b8281106200043c57505050565b8181556001016200042f565b909250829062000426565b601f811162000460575050565b6000906010825260208220906020601f850160051c83019410620004a1575b601f0160051c01915b8281106200049557505050565b81815560010162000488565b90925082906200047f565b601f8111620004b9575050565b6000906005825260208220906020601f850160051c83019410620004fa575b601f0160051c01915b828110620004ee57505050565b818155600101620004e1565b9092508290620004d8565b601f811162000512575050565b6000906006825260208220906020601f850160051c8301941062000553575b601f0160051c01915b8281106200054757505050565b8181556001016200053a565b909250829062000531565b80519091906001600160401b03811162000183576200058a816200058460045462000259565b620002ef565b602080601f8311600114620005c95750819293600092620005bd575b50508160011b916000199060031b1c191617600455565b015190503880620005a6565b6004600052601f198316949091907f8a35acfbc15ff81a39ae7d344fd709f28e8600b4aa8c65c6b64bfe7fe36bd19b926000905b878210620006385750508360019596106200061e575b505050811b01600455565b015160001960f88460031b161c1916905538808062000613565b80600185968294968601518155019501930190620005fd565b80519091906001600160401b03811162000183576200067d8162000677600d5462000259565b62000348565b602080601f8311600114620006bc5750819293600092620006b0575b50508160011b916000199060031b1c191617600d55565b01519050388062000699565b600d600052601f198316949091907fd7b6990105719101dabeb77144f2a3385c8033acd3af97e9423a695e81ad1eb5926000905b8782106200072b57505083600195961062000711575b505050811b01600d55565b015160001960f88460031b161c1916905538808062000706565b80600185968294968601518155019501930190620006f0565b80519091906001600160401b038111620001835762000770816200076a600e5462000259565b620003a1565b602080601f8311600114620007af5750819293600092620007a3575b50508160011b916000199060031b1c191617600e55565b0151905038806200078c565b600e600052601f198316949091907fbb7b4a454dc3493923482f07822329ed19e8244eff582cc204f8554c3620c3fd926000905b8782106200081e57505083600195961062000804575b505050811b01600e55565b015160001960f88460031b161c19169055388080620007f9565b80600185968294968601518155019501930190620007e3565b80519091906001600160401b038111620001835762000863816200085d600f5462000259565b620003fa565b602080601f8311600114620008a2575081929360009262000896575b50508160011b916000199060031b1c191617600f55565b0151905038806200087f565b600f600052601f198316949091907f8d1108e10bcb7c27dddfc02ed9d693a074039d026cf4ea4240b40f7d581ac802926000905b87821062000911575050836001959610620008f7575b505050811b01600f55565b015160001960f88460031b161c19169055388080620008ec565b80600185968294968601518155019501930190620008d6565b80519091906001600160401b038111620001835762000956816200095060105462000259565b62000453565b602080601f831160011462000995575081929360009262000989575b50508160011b916000199060031b1c191617601055565b01519050388062000972565b6010600052601f198316949091907f1b6847dc741a1b0cd08d278845f9d819d87b734759afb55fe2de5cb82a9ae672926000905b87821062000a04575050836001959610620009ea575b505050811b01601055565b015160001960f88460031b161c19169055388080620009df565b80600185968294968601518155019501930190620009c9565b969192969493946040519062000a338262000189565b600180835260209081840194603160f81b8652835160018060401b038111620001835762000a6e8162000a6860035462000259565b62000296565b8392601f821160011462000b725781809162000aa49560009362000b66575b501b916000199060031b1c1916176003556200055e565b62000aaf8262001015565b6101205262000abe8362001125565b61014052815191012060e052519020610100524660a05262000adf620012a4565b6080523060c0526001600160a01b0385161562000b4d5762000b3962000b469462000b33620001b49862000b2d62000b3f9662000b1c8b62000bfe565b62000b276001600c55565b62000651565b62000744565b62000837565b6200092a565b8262000f27565b8062000c47565b604051631e4fbdf760e01b815260006004820152602490fd5b88015192503862000a8d565b60036000529192601f198216907fc2575a0e9e593c00f959f8c92f12db2869c3395a3b0502d05e2516446f71f85b9160005b8782821062000be9575050908362000aa496959493921062000bcf575b5050811b016003556200055e565b87015160001960f88460031b161c19169055388062000bc1565b89840151855593860193928301920162000ba4565b600b80546001600160a01b039283166001600160a01b0319821681179092559091167f8be0079c531659141344cd1fd0a4f28419497f9722a3daafe3b4186f6b6457e0600080a3565b6001600160a01b0390811660008181526008602052604080822080548686166001600160a01b031982168117909255620001b4969516949391929185907f3134e8a2e6d97e929a7e54011ea5485d7d196dd5f0ba4d4ef95803e8e3fc257f8480a4806020522054915b6001600160a01b0380831693929190811690818514158062000e49575b62000cda575b5050505050565b8162000d56575b50508262000cf2575b808062000cd3565b6001600160a01b03166000908152600960205260409020600080516020620047798339815191529162000d329162000d2b909162001310565b9062000e53565b604080516001600160d01b039384168152919092166020820152a238808062000cea565b6001600160a01b0316600090815260096020526040902062000d788462001310565b9065ffffffffffff9081431162000e2a57805460008162000de55750509062000dc29162000db860008051602062004779833981519152946000620016da565b914316906200151e565b604080516001600160d01b039384168152919092166020820152a2388062000ce1565b6000939291931994848681011162000e2457600080516020620047798339815191529562000dc2956020848662000db896522001015460301c620016da565b62000f11565b6040516306dfcc6560e41b815260306004820152436024820152604490fd5b5083151562000ccd565b65ffffffffffff9081431162000e2a57805460008162000e8457505062000db862000e80936000620016f4565b9091565b9093600019858181011162000e245762000e80956020848662000db896522001015460301c620016f4565b65ffffffffffff80431162000e2a57600a5460008162000ee557505062000edc62000e80926000620016da565b90431662001422565b9092600019848181011162000e245762000e8094602084600a62000edc96522001015460301c620016da565b634e487b7160e01b600052601160045260246000fd5b906001600160a01b038216801562000ffc5762000f5062000f4b83600254620016cc565b600255565b6001600160a01b038316600090815260208181526040808320805486019055518481527fddf252ad1be2c89b69c2b068fc378daa952ba7f163c4a11628f55a4df523b3ef9190a36002546001600160d01b03811162000fd5575062000fb69082620015eb565b6015546001600160a01b03909116600090815260146020526040902055565b604051630e58ae9360e11b815260048101919091526001600160d01b036024820152604490fd5b60405163ec442f0560e01b815260006004820152602490fd5b908151602080821060001462001033575050906200023e9062001235565b6001600160401b03821162000183576200105a826200105460055462000259565b620004ac565b80601f83116001146200109a57508192936000926200108e575b50508160011b916000199060031b1c19161760055560ff90565b01519050388062001074565b6005600052601f198316949091907f036b6384b5eca791c62761152d0c79bb0604c104a5fb6f4eb0703f3154bb3db0926000905b8782106200110c575050836001959610620010f2575b505050811b0160055560ff90565b015160001960f88460031b161c19169055388080620010e4565b80600185968294968601518155019501930190620010ce565b908151602080821060001462001143575050906200023e9062001235565b6001600160401b03821162000183576200116a826200116460065462000259565b62000505565b80601f8311600114620011aa57508192936000926200119e575b50508160011b916000199060031b1c19161760065560ff90565b01519050388062001184565b6006600052601f198316949091907ff652222313e28459528d920b65115c16c04f3efc82aaedc97be59f3f377c0d3f926000905b8782106200121c57505083600195961062001202575b505050811b0160065560ff90565b015160001960f88460031b161c19169055388080620011f4565b80600185968294968601518155019501930190620011de565b601f8151116200126357602081519101516020821062001253571790565b6000198260200360031b1b161790565b6044604051809263305a27a960e01b825260206004830152620012968151809281602486015260208686019101620001b6565b601f01601f19168101030190fd5b60e051610100516040519060208201927f8b73c3c69bb8fe3d512ecc4cf759cc79239f7b179b0ffacaa9a75d522b39400f8452604083015260608201524660808201523060a082015260a0815260c0810181811060018060401b03821117620001835760405251902090565b6001600160d01b039081811162001325571690565b604490604051906306dfcc6560e41b825260d060048301526024820152fd5b60001981019190821162000e2457565b600a54906801000000000000000082101562000183576001820180600a55821015620013b657600a60005280516020919091015160301b65ffffffffffff191665ffffffffffff91909116176000805160206200475983398151915290910155565b634e487b7160e01b600052603260045260246000fd5b90815468010000000000000000811015620001835760018101808455811015620013b65760009283526020928390208251929093015160301b65ffffffffffff191665ffffffffffff9290921691909117910155565b600a549192918015620014ef576200143e620014579162001344565b600a600052600080516020620047598339815191520190565b9081549165ffffffffffff90818416918316808311620014dd578692036200149f576200149892509065ffffffffffff82549181199060301b169116179055565b60301c9190565b5050620014d790620014c2620014b4620001a5565b65ffffffffffff9092168252565b6001600160d01b038516602082015262001354565b62001498565b604051632520601d60e01b8152600490fd5b50620015189062001503620014b4620001a5565b6001600160d01b038416602082015262001354565b60009190565b80549293928015620015c15762001539620015469162001344565b8260005260206000200190565b9182549265ffffffffffff91828516928116808411620014dd578793036200158857506200149892509065ffffffffffff82549181199060301b169116179055565b915050620014d791620015ac6200159e620001a5565b65ffffffffffff9093168352565b6001600160d01b0386166020830152620013cc565b50906200151891620015d66200159e620001a5565b6001600160d01b0385166020830152620013cc565b90620015f78162001310565b9165ffffffffffff80431162000e2a57600a54600081620016995750506200162a9062000edc620001b4956000620016f4565b50506001600160a01b039081169081156200167c575b60086020527f5eff886ea0ce6ca488a3d6e336d6c0f75f46d19b42c06ce5ee98e42c96d256c75460009283526040909220548116911662000cb0565b620016916200168b8462001310565b62000eaf565b505062001640565b60009291921995838781011162000e2457620001b4966200162a94602084600a62000edc96522001015460301c620016f4565b9190820180921162000e2457565b6001600160d01b039182169082160390811162000e245790565b6001600160d01b039182169082160190811162000e24579056fe6080604052600436101561001257600080fd5b60003560e01c806303ee438c146102e257806306fdde03146102dd578063084278ec146102d8578063095ea7b3146102d35780630e4b2285146102ce578063139ba769146102c957806318160ddd146102c45780631f454923146102bf57806323b872dd146102ba578063313ce567146102b55780633644e515146102b05780633a46b1a8146102ab5780633c19804e146102a657806344e43cb8146102a15780634bf5d7e91461029c5780634eea6d79146102975780634f4dac6f14610242578063564f4f7614610292578063587cde1e1461028d5780635c19a95c146102885780636fcfff451461028357806370a082311461027e578063715018a614610279578063750521f5146102745780637ecebe001461026f57806381a2b38f1461026a57806384b0196e14610265578063881e1cff146102605780638b7afe2e1461025b5780638da5cb5b146102565780638e539e8c1461025157806391ddadf41461024c57806395d89b41146102475780639a6f99f9146102425780639ab24eb01461023d578063a9059cbb14610238578063b20a6f3614610233578063bf2d9e0b1461022e578063c3cda52014610229578063d505accf14610224578063d5f6aeb41461021f578063db2e21bc1461021a578063dd62ed3e14610215578063f1127ed8146102105763f2fde38b1461020b57600080fd5b6117c9565b611711565b6116b4565b611676565b611505565b611386565b6112a4565b611266565b611248565b611222565b6111d8565b610a0b565b6111b4565b611188565b611095565b61106e565b611052565b611013565b610eff565b610edb565b610ea1565b610d25565b610c72565b610c3a565b610bd2565b610bae565b610b73565b610a2e565b61096f565b610841565b610729565b610705565b61061e565b6105fb565b6105df565b61050a565b61048a565b61046c565b610432565b61040e565b6103dd565b610393565b61036f565b610327565b919082519283825260005b848110610313575050826000602080949584010152601f8019910116010190565b6020818301810151848301820152016102f2565b3461036a57600036600319011261036a576103666040516103528161034b81611c38565b038261193f565b6040519182916020835260208301906102e7565b0390f35b600080fd5b3461036a57600036600319011261036a576103666040516103528161034b81611cdc565b3461036a57600036600319011261036a576020601554604051908152f35b600435906001600160a01b038216820361036a57565b602435906001600160a01b038216820361036a57565b3461036a57604036600319011261036a576104036103f96103b1565b602435903361212d565b602060405160018152f35b3461036a57600036600319011261036a576103666040516103528161034b81611d63565b3461036a57602036600319011261036a576001600160a01b036104536103b1565b1660005260136020526020604060002054604051908152f35b3461036a57600036600319011261036a576020600254604051908152f35b3461036a57604036600319011261036a576104a36103b1565b6024359081151580920361036a5760206001600160a01b037f7390412ce304891b69b7a6d7722b373a8172b465ce957518d396801bc35e0872926104e5611875565b16928360005260168252604060002060ff1981541660ff8316179055604051908152a2005b3461036a57606036600319011261036a576105236103b1565b61052b6103c7565b604435906001600160a01b0383166000526001602052610562336040600020906001600160a01b0316600052602052604060002090565b54926000198410610584575b6105789350611f7f565b60405160018152602090f35b8284106105a05761059b8361057895033383612213565b61056e565b6040517ffb8f41b20000000000000000000000000000000000000000000000000000000081523360048201526024810185905260448101849052606490fd5b3461036a57600036600319011261036a57602060405160128152f35b3461036a57600036600319011261036a576020610616612475565b604051908152f35b3461036a57604036600319011261036a576001600160a01b0361063f6103b1565b1660009081526009602052604081209061065a602435611970565b918054829381600581116106ab575b50906020946106789284612d51565b806106915750505b6001600160d01b0360405191168152f35b9161069d849293612800565b92815220015460301c610680565b946106b58661284a565b8603958611610700576020956106789385875265ffffffffffff80838a8a20015416908516106000146106ee5750915b91925094610669565b9291506106fa9061280f565b906106e5565b611be8565b3461036a57600036600319011261036a576103666040516103528161034b81611dea565b600036600319011261036a5761076361075f610758336001600160a01b03166000526016602052604060002090565b5460ff1690565b1590565b80610817575b6107ed573461077457005b6107886107833460115461281d565b601155565b600254806107c2575b5060405134815233907ff3a9b3760e99454de4c494f7ed29f5204ab92febacb0acf52ea04ad4a9d2246690602090a2005b6107e26107da6107e7926107d534612ebc565b61282a565b60155461281d565b601555565b38610791565b60046040517f614d358c000000000000000000000000000000000000000000000000000000008152fd5b5061083961082d600b546001600160a01b031690565b6001600160a01b031690565b331415610769565b3461036a57600036600319011261036a5761085b436127ce565b65ffffffffffff8061086c436127ce565b169116036108c157610366604051610883816118cf565b601d81527f6d6f64653d626c6f636b6e756d6265722666726f6d3d64656661756c7400000060208201526040519182916020835260208301906102e7565b60046040517f6ff07140000000000000000000000000000000000000000000000000000000008152fd5b959794919361093261094e9461092461096c9c9a97610916610940968c6101208091528d01906102e7565b908b820360208d01526102e7565b9089820360408b01526102e7565b9087820360608901526102e7565b9085820360808701526102e7565b9460a084015260c083015260e08201526101008184039101526102e7565b90565b3461036a57600036600319011261036a57604080516109918161034b81611cdc565b6103668251926109ab846109a481611e71565b038561193f565b6002546011546012549183516109c48161034b81611dea565b84516109d38161034b81611d63565b8551916109ea836109e381611c38565b038461193f565b865196610a01886109fa81611ef8565b038961193f565b51998a998a6108eb565b3461036a57602036600319011261036a576020610616610a296103b1565b612f19565b3461036a57600080600319360112610b70576002600c5414610b46576002600c55610a5833612f19565b8015610b1c57336000908152601360205260409020610a7882825461281d565b905560155433600090815260146020526040902055610aa1610a9c8260125461281d565b601255565b8180808084335af1610ab1612ed9565b5015610af25760405190815233907fc15f451120b13b6b40c6ad6203614ab3088308bef9150c0d6f46ea79bf46422490602090a2610aef6001600c55565b80f35b60046040517f90b8ec18000000000000000000000000000000000000000000000000000000008152fd5b60046040517f02a1c5ba000000000000000000000000000000000000000000000000000000008152fd5b60046040517f3ee5aeb5000000000000000000000000000000000000000000000000000000008152fd5b80fd5b3461036a57602036600319011261036a5760206001600160a01b0380610b976103b1565b166000526008825260406000205416604051908152f35b3461036a57602036600319011261036a57610bd0610bca6103b1565b336119ca565b005b3461036a57602036600319011261036a576001600160a01b03610bf36103b1565b16600052600960205260406000205463ffffffff90818111610c1b5760209160405191168152f35b604490604051906306dfcc6560e41b8252602060048301526024820152fd5b3461036a57602036600319011261036a576020610616610c586103b1565b6001600160a01b0316600052600060205260406000205490565b3461036a57600080600319360112610b7057610c8c611875565b806001600160a01b03600b5473ffffffffffffffffffffffffffffffffffffffff198116600b55167f8be0079c531659141344cd1fd0a4f28419497f9722a3daafe3b4186f6b6457e08280a380f35b90602060031983011261036a5760043567ffffffffffffffff9283821161036a578060238301121561036a57816004013593841161036a576024848301011161036a576024019190565b3461036a57610d3336610cdb565b610d3b611875565b8015610e775767ffffffffffffffff8111610e7257610d6481610d5f600f54611bfe565b612db2565b600091601f8211600114610dd157817f1c306e70c05992619e2128ad1ef88df75f36c9476282e59f51401b2abaa42e4e93600091610dc6575b508260011b906000198460031b1c191617600f555b610dc160405192839283612e94565b0390a1005b905081013538610d9d565b600f6000527f8d1108e10bcb7c27dddfc02ed9d693a074039d026cf4ea4240b40f7d581ac802601f198316845b818110610e5a575093837f1c306e70c05992619e2128ad1ef88df75f36c9476282e59f51401b2abaa42e4e9510610e40575b5050600182811b01600f55610db2565b820135600019600385901b60f8161c191690553880610e30565b83860135835560209586019560019093019201610dfe565b6118b9565b60046040517feec403f0000000000000000000000000000000000000000000000000000000008152fd5b3461036a57602036600319011261036a576001600160a01b03610ec26103b1565b1660005260076020526020604060002054604051908152f35b3461036a57600036600319011261036a576103666040516103528161034b81611ef8565b3461036a57600080600319360112610b7057610fc590610f3e7f00000000000000000000000000000000000000000000000000000000000000006125d0565b610f677f00000000000000000000000000000000000000000000000000000000000000006126e1565b9160405191610f75836118eb565b8183526040519485947f0f000000000000000000000000000000000000000000000000000000000000008652610fb760209360e08589015260e08801906102e7565b9086820360408801526102e7565b904660608601523060808601528260a086015284820360c08601528080855193848152019401925b828110610ffc57505050500390f35b835185528695509381019392810192600101610fed565b3461036a57602036600319011261036a576001600160a01b036110346103b1565b166000526016602052602060ff604060002054166040519015158152f35b3461036a57600036600319011261036a57602047604051908152f35b3461036a57600036600319011261036a5760206001600160a01b03600b5416604051908152f35b3461036a57602036600319011261036a576110b1600435611970565b600a5490600082916005841161111b575b6110cc9350612cd6565b6000816110e157505060405160008152602090f35b600a6110ee602093612800565b91527fc65a7bb8d6351c1cf70c95a316cc6a92839c986682d98bc35f958f4883f9d2a8015460301c610680565b91926111268161284a565b8103908111610700576110cc93600a835265ffffffffffff80837fc65a7bb8d6351c1cf70c95a316cc6a92839c986682d98bc35f958f4883f9d2a8015416908516106000146111765750916110c2565b9291506111829061280f565b906110c2565b3461036a57600036600319011261036a5760206111a4436127ce565b65ffffffffffff60405191168152f35b3461036a57600036600319011261036a576103666040516103528161034b81611e71565b3461036a57602036600319011261036a576001600160a01b036111f96103b1565b16600052600960205260206001600160d01b0361121960406000206129d6565b16604051908152f35b3461036a57604036600319011261036a5761040361123e6103b1565b6024359033611f7f565b3461036a57600036600319011261036a576020601254604051908152f35b3461036a57600036600319011261036a576020601154604051908152f35b6064359060ff8216820361036a57565b6084359060ff8216820361036a57565b3461036a5760c036600319011261036a576112bd6103b1565b604435906024356112cc611284565b83421161135557611349610bd094611350926040519060208201927fe48329057bfd03d55e49b547132e39cffd9c1820ad7b9d4c5307691425d15adf84526001600160a01b038816604084015286606084015260808301526080825261133182611907565b61134460a435936084359351902061258f565b6122d6565b9182612264565b6119ca565b602484604051907f4683af0e0000000000000000000000000000000000000000000000000000000082526004820152fd5b3461036a5760e036600319011261036a5761139f6103b1565b6113a76103c7565b604435906064356113b6611294565b8142116114d45790611453611474926114616113ee886001600160a01b03166000526007602052604060002080549060018201905590565b9360405193849160208301968a8a8d8a91959493909260a09360c08401977f6e71edae12b1b97f4d1f60370fef10105fa2faae0126114a169c64845d6126c985526001600160a01b038092166020860152166040840152606083015260808201520152565b03601f19810184528361193f565b61134460c4359360a4359351902061258f565b6001600160a01b03808516908216036114915750610bd09261212d565b6040517f4b800e460000000000000000000000000000000000000000000000000000000081526001600160a01b0391821660048201529084166024820152604490fd5b602482604051907f627913020000000000000000000000000000000000000000000000000000000082526004820152fd5b3461036a5761151336610cdb565b61151b611875565b801561164c5767ffffffffffffffff8111610e72576115448161153f601054611bfe565b612e23565b600091601f82116001146115ab57817f732d2e87dcc1907685c097f7373a47d8c7cd8ef98b659b5f2d4272b26aab48a7936000916115a0575b508260011b906000198460031b1c191617601055610dc160405192839283612e94565b90508101353861157d565b60106000527f1b6847dc741a1b0cd08d278845f9d819d87b734759afb55fe2de5cb82a9ae672601f198316845b818110611634575093837f732d2e87dcc1907685c097f7373a47d8c7cd8ef98b659b5f2d4272b26aab48a7951061161a575b5050600182811b01601055610db2565b820135600019600385901b60f8161c19169055388061160a565b838601358355602095860195600190930192016115d8565b60046040517f3d9e4cad000000000000000000000000000000000000000000000000000000008152fd5b3461036a57600080600319360112610b7057611690611875565b80808080476001600160a01b03600b54165af16116ab612ed9565b5015610af25780f35b3461036a57604036600319011261036a5760206117086116d26103b1565b6001600160a01b036116e26103c7565b9116600052600183526040600020906001600160a01b0316600052602052604060002090565b54604051908152f35b3461036a57604036600319011261036a5761172a6103b1565b6024359063ffffffff8216820361036a57610366916001600160a01b036117799261175361224b565b5061175c61224b565b50166000526009602052604060002061177361224b565b50612a04565b5060405190611787826118cf565b5465ffffffffffff8116825260301c60208201526040519182918291909160206001600160d01b0381604084019565ffffffffffff8151168552015116910152565b3461036a57602036600319011261036a576117e26103b1565b6117ea611875565b6001600160a01b0380911690811561184457600b548273ffffffffffffffffffffffffffffffffffffffff19821617600b55167f8be0079c531659141344cd1fd0a4f28419497f9722a3daafe3b4186f6b6457e0600080a3005b60246040517f1e4fbdf700000000000000000000000000000000000000000000000000000000815260006004820152fd5b6001600160a01b03600b5416330361188957565b60246040517f118cdaa7000000000000000000000000000000000000000000000000000000008152336004820152fd5b634e487b7160e01b600052604160045260246000fd5b6040810190811067ffffffffffffffff821117610e7257604052565b6020810190811067ffffffffffffffff821117610e7257604052565b60a0810190811067ffffffffffffffff821117610e7257604052565b60c0810190811067ffffffffffffffff821117610e7257604052565b90601f8019910116810190811067ffffffffffffffff821117610e7257604052565b6040519061196e826118cf565b565b65ffffffffffff611980436127ce565b1680821015611993575061096c906127ce565b60449250604051917fecd3f81e00000000000000000000000000000000000000000000000000000000835260048301526024820152fd5b61196e91611a546001600160a01b039273ffffffffffffffffffffffffffffffffffffffff19848216948560005260086020526040600020958654968288169788938816948591161790557f3134e8a2e6d97e929a7e54011ea5485d7d196dd5f0ba4d4ef95803e8e3fc257f600080a46001600160a01b0316600052600060205260406000205490565b915b91906001600160a01b0392838216938116908482141580611ba9575b611a7e575b5050505050565b81611b07575b505082611a93575b8080611a77565b7fdec2bacdd2f05b59de34da9b523dff8be42e5e38e818c82fdb0bae774387a72491611ade611ad8611ae4936001600160a01b03166000526009602052604060002090565b9161279b565b90611bb2565b604080516001600160d01b039384168152919092166020820152a2388080611a8c565b611b24906001600160a01b03166000526009602052604060002090565b611b2d8461279b565b611b36436127ce565b6001600160d01b03918280611b4a866129d6565b169116900392828411610700577fdec2bacdd2f05b59de34da9b523dff8be42e5e38e818c82fdb0bae774387a72493611b9f92611b8692612c1a565b6040805192851683529316602082015291829190820190565b0390a23880611a84565b50831515611a72565b90611bbc436127ce565b6001600160d01b03918280611bd0866129d6565b16911601918211611be857611be492612c1a565b9091565b634e487b7160e01b600052601160045260246000fd5b90600182811c92168015611c2e575b6020831014611c1857565b634e487b7160e01b600052602260045260246000fd5b91607f1691611c0d565b600f5460009291611c4882611bfe565b80825291600190818116908115611cbf5750600114611c6657505050565b91929350600f6000527f8d1108e10bcb7c27dddfc02ed9d693a074039d026cf4ea4240b40f7d581ac802916000925b848410611ca757505060209250010190565b80546020858501810191909152909301928101611c95565b915050602093945060ff929192191683830152151560051b010190565b60035460009291611cec82611bfe565b80825291600190818116908115611cbf5750600114611d0a57505050565b9192935060036000527fc2575a0e9e593c00f959f8c92f12db2869c3395a3b0502d05e2516446f71f85b916000925b848410611d4b57505060209250010190565b80546020858501810191909152909301928101611d39565b600e5460009291611d7382611bfe565b80825291600190818116908115611cbf5750600114611d9157505050565b91929350600e6000527fbb7b4a454dc3493923482f07822329ed19e8244eff582cc204f8554c3620c3fd916000925b848410611dd257505060209250010190565b80546020858501810191909152909301928101611dc0565b600d5460009291611dfa82611bfe565b80825291600190818116908115611cbf5750600114611e1857505050565b91929350600d6000527fd7b6990105719101dabeb77144f2a3385c8033acd3af97e9423a695e81ad1eb5916000925b848410611e5957505060209250010190565b80546020858501810191909152909301928101611e47565b60045460009291611e8182611bfe565b80825291600190818116908115611cbf5750600114611e9f57505050565b9192935060046000527f8a35acfbc15ff81a39ae7d344fd709f28e8600b4aa8c65c6b64bfe7fe36bd19b916000925b848410611ee057505060209250010190565b80546020858501810191909152909301928101611ece565b60105460009291611f0882611bfe565b80825291600190818116908115611cbf5750600114611f2657505050565b9192935060106000527f1b6847dc741a1b0cd08d278845f9d819d87b734759afb55fe2de5cb82a9ae672916000925b848410611f6757505060209250010190565b80546020858501810191909152909301928101611f55565b90916001600160a01b038083169081156120fc5784169081156120cb57611fb9846001600160a01b03166000526000602052604060002090565b54838110612082579261207f94926120469282612065989603611fef866001600160a01b03166000526000602052604060002090565b5561200d866001600160a01b03166000526000602052604060002090565b8054840190556040518381527fddf252ad1be2c89b69c2b068fc378daa952ba7f163c4a11628f55a4df523b3ef90602090a38383612f6c565b6015549384916001600160a01b03166000526014602052604060002090565b556001600160a01b03166000526014602052604060002090565b55565b6040517fe450d38c0000000000000000000000000000000000000000000000000000000081526001600160a01b0386166004820152602481019190915260448101849052606490fd5b60246040517fec442f0500000000000000000000000000000000000000000000000000000000815260006004820152fd5b60246040517f96c6fd1e00000000000000000000000000000000000000000000000000000000815260006004820152fd5b906001600160a01b03918281169283156121e25782169384156121b157806121a77f8c5be1e5ebec7d5bd14f71427d1e84f3dd0314c0f7b2291e5b200ac8c7c3b9259461218f6020956001600160a01b03166000526001602052604060002090565b906001600160a01b0316600052602052604060002090565b55604051908152a3565b60246040517f94280d6200000000000000000000000000000000000000000000000000000000815260006004820152fd5b60246040517fe602df0500000000000000000000000000000000000000000000000000000000815260006004820152fd5b906001600160a01b03808316156121e2578116156121b15761218f61207f926001600160a01b03166000526001602052604060002090565b60405190612258826118cf565b60006020838281520152565b9061228b826001600160a01b03166000526007602052604060002080549060018201905590565b809103612296575050565b604492506001600160a01b03604051927f752d88c00000000000000000000000000000000000000000000000000000000084521660048301526024820152fd5b9161096c93916122e5936122ee565b9092919261239e565b91907f7fffffffffffffffffffffffffffffff5d576e7357a4501ddfe92f46681b20a0841161237257926020929160ff608095604051948552168484015260408301526060820152600092839182805260015afa156123665780516001600160a01b0381161561235d57918190565b50809160019190565b604051903d90823e3d90fd5b50505060009160039190565b6004111561238857565b634e487b7160e01b600052602160045260246000fd5b6123a78161237e565b806123b0575050565b6123b98161237e565b600181036123eb5760046040517ff645eedf000000000000000000000000000000000000000000000000000000008152fd5b6123f48161237e565b6002810361242e576040517ffce698f700000000000000000000000000000000000000000000000000000000815260048101839052602490fd5b8061243a60039261237e565b146124425750565b6040517fd78bce0c0000000000000000000000000000000000000000000000000000000081526004810191909152602490fd5b6001600160a01b037f000000000000000000000000000000000000000000000000000000000000000016301480612566575b156124d0577f000000000000000000000000000000000000000000000000000000000000000090565b60405160208101907f8b73c3c69bb8fe3d512ecc4cf759cc79239f7b179b0ffacaa9a75d522b39400f82527f000000000000000000000000000000000000000000000000000000000000000060408201527f000000000000000000000000000000000000000000000000000000000000000060608201524660808201523060a082015260a0815261256081611923565b51902090565b507f000000000000000000000000000000000000000000000000000000000000000046146124a7565b60429061259a612475565b90604051917f19010000000000000000000000000000000000000000000000000000000000008352600283015260228201522090565b60ff81146126265760ff811690601f82116125fc57604051916125f2836118cf565b8252602082015290565b60046040517fb3512b0c000000000000000000000000000000000000000000000000000000008152fd5b5060405160055481600061263983611bfe565b808352926001908181169081156126bf5750600114612660575b5061096c9250038261193f565b6005600090815291507f036b6384b5eca791c62761152d0c79bb0604c104a5fb6f4eb0703f3154bb3db05b8483106126a4575061096c935050810160200138612653565b8193509081602092548385890101520191019091849261268b565b90506020925061096c94915060ff191682840152151560051b82010138612653565b60ff81146127035760ff811690601f82116125fc57604051916125f2836118cf565b5060405160065481600061271683611bfe565b808352926001908181169081156126bf575060011461273c575061096c9250038261193f565b6006600090815291507ff652222313e28459528d920b65115c16c04f3efc82aaedc97be59f3f377c0d3f5b848310612780575061096c935050810160200138612653565b81935090816020925483858901015201910190918492612767565b6001600160d01b03908181116127af571690565b604490604051906306dfcc6560e41b825260d060048301526024820152fd5b65ffffffffffff908181116127e1571690565b604490604051906306dfcc6560e41b8252603060048301526024820152fd5b60001981019190821161070057565b906001820180921161070057565b9190820180921161070057565b8115612834570490565b634e487b7160e01b600052601260045260246000fd5b600181111561096c57600181700100000000000000000000000000000000811015612975575b61291d6129136129096128ff6128f56128eb61292997600488680100000000000000006129249a1015612968575b64010000000081101561295b575b6201000081101561294e575b610100811015612942575b6010811015612936575b101561292e575b60030260011c6128e4818b61282a565b0160011c90565b6128e4818a61282a565b6128e4818961282a565b6128e4818861282a565b6128e4818761282a565b6128e4818661282a565b809361282a565b821190565b900390565b60011b6128d4565b811c9160021b916128cd565b60081c91811b916128c3565b60101c9160081b916128b8565b60201c9160101b916128ac565b60401c9160201b9161289e565b50680100000000000000009050608082901c612870565b600a546000908061299e575050600090565b8060001981011161070057600a7fc65a7bb8d6351c1cf70c95a316cc6a92839c986682d98bc35f958f4883f9d2a79252015460301c90565b8054600091816129e857505050600090565b6000199282848101116107005760209181522001015460301c90565b8054821015612a1c5760005260206000200190600090565b634e487b7160e01b600052603260045260246000fd5b600a549068010000000000000000821015610e72576001820180600a55821015612a1c57600a60005280516020919091015160301b65ffffffffffff191665ffffffffffff91909116177fc65a7bb8d6351c1cf70c95a316cc6a92839c986682d98bc35f958f4883f9d2a890910155565b805468010000000000000000811015610e7257612ac591600182018155612a04565b612af15781516020929092015160301b65ffffffffffff191665ffffffffffff92909216919091179055565b634e487b7160e01b600052600060045260246000fd5b600a549192918015612bf057612b1f612b4991612800565b600a6000527fc65a7bb8d6351c1cf70c95a316cc6a92839c986682d98bc35f958f4883f9d2a80190565b9081549165ffffffffffff90818416918316808311612bc657869203612b8e57612b8792509065ffffffffffff82549181199060301b169116179055565b60301c9190565b5050612bc190612bad612b9f611961565b65ffffffffffff9092168252565b6001600160d01b0385166020820152612a32565b612b87565b60046040517f2520601d000000000000000000000000000000000000000000000000000000008152fd5b50612c1490612c00612b9f611961565b6001600160d01b0384166020820152612a32565b60009190565b80549293928015612cb157612c31612c3e91612800565b8260005260206000200190565b9182549265ffffffffffff91828516928116808411612bc657879303612c7d5750612b8792509065ffffffffffff82549181199060301b169116179055565b915050612bc191612c9d612c8f611961565b65ffffffffffff9093168352565b6001600160d01b0386166020830152612aa3565b5090612c1491612cc2612c8f611961565b6001600160d01b0385166020830152612aa3565b905b828110612ce457505090565b90918082169080831860011c820180921161070057600a60005265ffffffffffff80837fc65a7bb8d6351c1cf70c95a316cc6a92839c986682d98bc35f958f4883f9d2a801541690851610600014612d3f5750915b90612cd8565b929150612d4b9061280f565b90612d39565b91905b838210612d615750505090565b9091928083169080841860011c82018092116107005760008581526020902082015465ffffffffffff9081169084161015612da05750925b9190612d54565b939250612dac9061280f565b91612d99565b601f8111612dbe575050565b600090600f82527f8d1108e10bcb7c27dddfc02ed9d693a074039d026cf4ea4240b40f7d581ac802906020601f850160051c83019410612e19575b601f0160051c01915b828110612e0e57505050565b818155600101612e02565b9092508290612df9565b601f8111612e2f575050565b600090601082527f1b6847dc741a1b0cd08d278845f9d819d87b734759afb55fe2de5cb82a9ae672906020601f850160051c83019410612e8a575b601f0160051c01915b828110612e7f57505050565b818155600101612e73565b9092508290612e6a565b90918060409360208452816020850152848401376000828201840152601f01601f1916010190565b90670de0b6b3a76400009182810292818404149015171561070057565b3d15612f14573d9067ffffffffffffffff8211610e725760405191612f08601f8201601f19166020018461193f565b82523d6000602084013e565b606090565b6001600160a01b031660005260006020526040600020548015612f665760155460146020526040600020548103908111610700578082029182040361070057670de0b6b3a7640000900490565b50600090565b6001600160a01b03908116929181908415612ff8575b16908115612fb0575b61196e9360005260086020528060406000205416916000526040600020541690611a56565b612fb98361279b565b93612fc3436127ce565b6001600160d01b03958680612fd661298c565b16911690039586116107005761196e95612fef91612b07565b50509350612f8b565b90506130038361279b565b9061300d436127ce565b6001600160d01b0392838061302061298c565b1691160192831161070057839261303691612b07565b5050612f8256fea164736f6c6343000814000ac65a7bb8d6351c1cf70c95a316cc6a92839c986682d98bc35f958f4883f9d2a8dec2bacdd2f05b59de34da9b523dff8be42e5e38e818c82fdb0bae774387a724a164736f6c6343000814000a",
  "linkReferences": {},
  "deployedLinkReferences": {}
}