{
  "_format": "hh-sol-artifact-1",
  "contractName": "AgentLaunchpad",
  "sourceName": "contracts/AgentLaunchpad.sol",
  "abi": [
    {
      "inputs": [
        {
          "internalType": "address",
          "name": "_treasuryAddress",
          "type": "address"
        },
        {
          "internalType": "address",
          "name": "_uniswapRouter",
          "type": "address"
        },
        {
          "internalType": "address",
          "name": "_entropyAddress",
          "type": "address"
        }
      ],
      "stateMutability": "nonpayable",
      "type": "constructor"
    },
    {
      "inputs": [],
      "name": "AgentAlreadyBonded",
      "type": "error"
    },
    {
      "inputs": [],
      "name": "AgentCancelledError",
      "type": "error"
    },
    {
      "inputs": [],
      "name": "AgentNotFound",
      "type": "error"
    },
    {
      "inputs": [],
      "name": "EnforcedPause",
      "type": "error"
    },
    {
      "inputs": [],
      "name": "ExpectedPause",
      "type": "error"
    },
    {
      "inputs": [],
      "name": "FundingTargetExceeded",
      "type": "error"
    },
    {
      "inputs": [],
      "name": "FundingTargetNotMet",
      "type": "error"
    },
    {
      "inputs": [],
      "name": "InsufficientLiquidity",
      "type": "error"
    },
    {
      "inputs": [],
      "name": "InvalidAddress",
      "type": "error"
    },
    {
      "inputs": [],
      "name": "InvalidFeePercentage",
      "type": "error"
    },
    {
      "inputs": [],
      "name": "NoContribution",
      "type": "error"
    },
    {
      "inputs": [
        {
          "internalType": "address",
          "name": "owner",
          "type": "address"
        }
      ],
      "name": "OwnableInvalidOwner",
      "type": "error"
    },
    {
      "inputs": [
        {
          "internalType": "address",
          "name": "account",
          "type": "address"
        }
      ],
      "name": "OwnableUnauthorizedAccount",
      "type": "error"
    },
    {
      "inputs": [],
      "name": "ReentrancyGuardReentrantCall",
      "type": "error"
    },
    {
      "inputs": [],
      "name": "TransferFailed",
      "type": "error"
    },
    {
      "inputs": [],
      "name": "WithdrawalNotAllowed",
      "type": "error"
    },
    {
      "anonymous": false,
      "inputs": [
        {
          "indexed": true,
          "internalType": "uint256",
          "name": "agentId",
          "type": "uint256"
        },
        {
          "indexed": true,
          "internalType": "address",
          "name": "tokenAddress",
          "type": "address"
        },
        {
          "indexed": true,
          "internalType": "address",
          "name": "lpPairAddress",
          "type": "address"
        },
        {
          "indexed": false,
          "internalType": "uint256",
          "name": "liquidityAdded",
          "type": "uint256"
        }
      ],
      "name": "AgentBonded",
      "type": "event"
    },
    {
      "anonymous": false,
      "inputs": [
        {
          "indexed": true,
          "internalType": "uint256",
          "name": "agentId",
          "type": "uint256"
        },
        {
          "indexed": false,
          "internalType": "string",
          "name": "reason",
          "type": "string"
        }
      ],
      "name": "AgentCancelled",
      "type": "event"
    },
    {
      "anonymous": false,
      "inputs": [
        {
          "indexed": true,
          "internalType": "uint256",
          "name": "agentId",
          "type": "uint256"
        },
        {
          "indexed": true,
          "internalType": "address",
          "name": "creator",
          "type": "address"
        },
        {
          "indexed": false,
          "internalType": "address",
          "name": "tokenAddress",
          "type": "address"
        },
        {
          "indexed": false,
          "internalType": "string",
          "name": "agentName",
          "type": "string"
        },
        {
          "indexed": false,
          "internalType": "uint256",
          "name": "fundingTarget",
          "type": "uint256"
        }
      ],
      "name": "AgentCreated",
      "type": "event"
    },
    {
      "anonymous": false,
      "inputs": [
        {
          "indexed": true,
          "internalType": "uint256",
          "name": "agentId",
          "type": "uint256"
        },
        {
          "indexed": true,
          "internalType": "address",
          "name": "contributor",
          "type": "address"
        },
        {
          "indexed": false,
          "internalType": "uint256",
          "name": "amount",
          "type": "uint256"
        },
        {
          "indexed": false,
          "internalType": "uint256",
          "name": "totalRaised",
          "type": "uint256"
        }
      ],
      "name": "Contributed",
      "type": "event"
    },
    {
      "anonymous": false,
      "inputs": [
        {
          "indexed": true,
          "internalType": "uint256",
          "name": "agentId",
          "type": "uint256"
        },
        {
          "indexed": true,
          "internalType": "address",
          "name": "contributor",
          "type": "address"
        },
        {
          "indexed": false,
          "internalType": "uint256",
          "name": "amount",
          "type": "uint256"
        }
      ],
      "name": "ContributionWithdrawn",
      "type": "event"
    },
    {
      "anonymous": false,
      "inputs": [
        {
          "indexed": true,
          "internalType": "uint256",
          "name": "agentId",
          "type": "uint256"
        },
        {
          "indexed": false,
          "internalType": "uint64",
          "name": "sequenceNumber",
          "type": "uint64"
        }
      ],
      "name": "EntropyRequested",
      "type": "event"
    },
    {
      "anonymous": false,
      "inputs": [
        {
          "indexed": true,
          "internalType": "uint256",
          "name": "agentId",
          "type": "uint256"
        },
        {
          "indexed": true,
          "internalType": "address",
          "name": "lpTokenAddress",
          "type": "address"
        },
        {
          "indexed": false,
          "internalType": "uint256",
          "name": "tokenAmount",
          "type": "uint256"
        },
        {
          "indexed": false,
          "internalType": "uint256",
          "name": "ethAmount",
          "type": "uint256"
        }
      ],
      "name": "LiquidityProvided",
      "type": "event"
    },
    {
      "anonymous": false,
      "inputs": [
        {
          "indexed": true,
          "internalType": "address",
          "name": "previousOwner",
          "type": "address"
        },
        {
          "indexed": true,
          "internalType": "address",
          "name": "newOwner",
          "type": "address"
        }
      ],
      "name": "OwnershipTransferred",
      "type": "event"
    },
    {
      "anonymous": false,
      "inputs": [
        {
          "indexed": false,
          "internalType": "address",
          "name": "account",
          "type": "address"
        }
      ],
      "name": "Paused",
      "type": "event"
    },
    {
      "anonymous": false,
      "inputs": [
        {
          "indexed": false,
          "internalType": "uint256",
          "name": "oldFee",
          "type": "uint256"
        },
        {
          "indexed": false,
          "internalType": "uint256",
          "name": "newFee",
          "type": "uint256"
        }
      ],
      "name": "ProtocolFeeUpdated",
      "type": "event"
    },
    {
      "anonymous": false,
      "inputs": [
        {
          "indexed": true,
          "internalType": "address",
          "name": "oldRouter",
          "type": "address"
        },
        {
          "indexed": true,
          "internalType": "address",
          "name": "newRouter",
          "type": "address"
        }
      ],
      "name": "RouterUpdated",
      "type": "event"
    },
    {
      "anonymous": false,
      "inputs": [
        {
          "indexed": true,
          "internalType": "uint256",
          "name": "agentId",
          "type": "uint256"
        },
        {
          "indexed": false,
          "internalType": "uint256",
          "name": "seed",
          "type": "uint256"
        }
      ],
      "name": "SeedGenerated",
      "type": "event"
    },
    {
      "anonymous": false,
      "inputs": [
        {
          "indexed": true,
          "internalType": "address",
          "name": "oldTreasury",
          "type": "address"
        },
        {
          "indexed": true,
          "internalType": "address",
          "name": "newTreasury",
          "type": "address"
        }
      ],
      "name": "TreasuryUpdated",
      "type": "event"
    },
    {
      "anonymous": false,
      "inputs": [
        {
          "indexed": false,
          "internalType": "address",
          "name": "account",
          "type": "address"
        }
      ],
      "name": "Unpaused",
      "type": "event"
    },
    {
      "inputs": [],
      "name": "BASIS_POINTS",
      "outputs": [
        {
          "internalType": "uint256",
          "name": "",
          "type": "uint256"
        }
      ],
      "stateMutability": "view",
      "type": "function"
    },
    {
      "inputs": [],
      "name": "MAX_FEE",
      "outputs": [
        {
          "internalType": "uint256",
          "name": "",
          "type": "uint256"
        }
      ],
      "stateMutability": "view",
      "type": "function"
    },
    {
      "inputs": [
        {
          "internalType": "uint64",
          "name": "sequence",
          "type": "uint64"
        },
        {
          "internalType": "address",
          "name": "provider",
          "type": "address"
        },
        {
          "internalType": "bytes32",
          "name": "randomNumber",
          "type": "bytes32"
        }
      ],
      "name": "_entropyCallback",
      "outputs": [],
      "stateMutability": "nonpayable",
      "type": "function"
    },
    {
      "inputs": [
        {
          "internalType": "uint256",
          "name": "",
          "type": "uint256"
        }
      ],
      "name": "agents",
      "outputs": [
        {
          "internalType": "string",
          "name": "name",
          "type": "string"
        },
        {
          "internalType": "string",
          "name": "symbol",
          "type": "string"
        },
        {
          "internalType": "string",
          "name": "agentName",
          "type": "string"
        },
        {
          "internalType": "string",
          "name": "archetype",
          "type": "string"
        },
        {
          "internalType": "string",
          "name": "metadataURI",
          "type": "string"
        },
        {
          "internalType": "uint256",
          "name": "fundingTarget",
          "type": "uint256"
        },
        {
          "internalType": "uint256",
          "name": "tokenSupply",
          "type": "uint256"
        },
        {
          "internalType": "uint256",
          "name": "liquidityTokens",
          "type": "uint256"
        },
        {
          "internalType": "uint256",
          "name": "treasuryTokens",
          "type": "uint256"
        },
        {
          "internalType": "address",
          "name": "creator",
          "type": "address"
        },
        {
          "internalType": "bool",
          "name": "isBonded",
          "type": "bool"
        },
        {
          "internalType": "bool",
          "name": "isCancelled",
          "type": "bool"
        },
        {
          "internalType": "uint256",
          "name": "totalRaised",
          "type": "uint256"
        },
        {
          "internalType": "uint256",
          "name": "createdAt",
          "type": "uint256"
        },
        {
          "internalType": "address",
          "name": "tokenAddress",
          "type": "address"
        },
        {
          "internalType": "address",
          "name": "lpPairAddress",
          "type": "address"
        },
        {
          "internalType": "uint256",
          "name": "seed",
          "type": "uint256"
        }
      ],
      "stateMutability": "view",
      "type": "function"
    },
    {
      "inputs": [
        {
          "internalType": "uint256",
          "name": "agentId",
          "type": "uint256"
        }
      ],
      "name": "bondAgent",
      "outputs": [],
      "stateMutability": "nonpayable",
      "type": "function"
    },
    {
      "inputs": [
        {
          "internalType": "uint256",
          "name": "agentId",
          "type": "uint256"
        },
        {
          "internalType": "string",
          "name": "reason",
          "type": "string"
        }
      ],
      "name": "cancelAgent",
      "outputs": [],
      "stateMutability": "nonpayable",
      "type": "function"
    },
    {
      "inputs": [],
      "name": "contractBalance",
      "outputs": [
        {
          "internalType": "uint256",
          "name": "",
          "type": "uint256"
        }
      ],
      "stateMutability": "view",
      "type": "function"
    },
    {
      "inputs": [
        {
          "internalType": "uint256",
          "name": "agentId",
          "type": "uint256"
        }
      ],
      "name": "contribute",
      "outputs": [],
      "stateMutability": "payable",
      "type": "function"
    },
    {
      "inputs": [
        {
          "internalType": "uint256",
          "name": "",
          "type": "uint256"
        },
        {
          "internalType": "address",
          "name": "",
          "type": "address"
        }
      ],
      "name": "contributions",
      "outputs": [
        {
          "internalType": "uint256",
          "name": "",
          "type": "uint256"
        }
      ],
      "stateMutability": "view",
      "type": "function"
    },
    {
      "inputs": [
        {
          "internalType": "string",
          "name": "name",
          "type": "string"
        },
        {
          "internalType": "string",
          "name": "symbol",
          "type": "string"
        },
        {
          "internalType": "string",
          "name": "agentName",
          "type": "string"
        },
        {
          "internalType": "string",
          "name": "archetype",
          "type": "string"
        },
        {
          "internalType": "string",
          "name": "metadataURI",
          "type": "string"
        },
        {
          "internalType": "uint256",
          "name": "fundingTarget",
          "type": "uint256"
        },
        {
          "internalType": "uint256",
          "name": "tokenSupply",
          "type": "uint256"
        }
      ],
      "name": "createAgent",
      "outputs": [
        {
          "internalType": "uint256",
          "name": "agentId",
          "type": "uint256"
        }
      ],
      "stateMutability": "nonpayable",
      "type": "function"
    },
    {
      "inputs": [],
      "name": "defaultLiquidityPercentage",
      "outputs": [
        {
          "internalType": "uint256",
          "name": "",
          "type": "uint256"
        }
      ],
      "stateMutability": "view",
      "type": "function"
    },
    {
      "inputs": [],
      "name": "defaultTokenLPPercentage",
      "outputs": [
        {
          "internalType": "uint256",
          "name": "",
          "type": "uint256"
        }
      ],
      "stateMutability": "view",
      "type": "function"
    },
    {
      "inputs": [],
      "name": "emergencyWithdraw",
      "outputs": [],
      "stateMutability": "nonpayable",
      "type": "function"
    },
    {
      "inputs": [],
      "name": "entropy",
      "outputs": [
        {
          "internalType": "contract IEntropy",
          "name": "",
          "type": "address"
        }
      ],
      "stateMutability": "view",
      "type": "function"
    },
    {
      "inputs": [
        {
          "internalType": "uint64",
          "name": "",
          "type": "uint64"
        }
      ],
      "name": "entropyRequestToAgentId",
      "outputs": [
        {
          "internalType": "uint256",
          "name": "",
          "type": "uint256"
        }
      ],
      "stateMutability": "view",
      "type": "function"
    },
    {
      "inputs": [
        {
          "internalType": "uint256",
          "name": "agentId",
          "type": "uint256"
        }
      ],
      "name": "getAgentInfo",
      "outputs": [
        {
          "internalType": "string",
          "name": "name",
          "type": "string"
        },
        {
          "internalType": "string",
          "name": "symbol",
          "type": "string"
        },
        {
          "internalType": "string",
          "name": "agentName",
          "type": "string"
        },
        {
          "internalType": "string",
          "name": "archetype",
          "type": "string"
        },
        {
          "internalType": "string",
          "name": "metadataURI",
          "type": "string"
        },
        {
          "internalType": "uint256",
          "name": "fundingTarget",
          "type": "uint256"
        },
        {
          "internalType": "uint256",
          "name": "totalRaised",
          "type": "uint256"
        },
        {
          "internalType": "bool",
          "name": "isBonded",
          "type": "bool"
        },
        {
          "internalType": "bool",
          "name": "isCancelled",
          "type": "bool"
        },
        {
          "internalType": "address",
          "name": "creator",
          "type": "address"
        },
        {
          "internalType": "address",
          "name": "tokenAddress",
          "type": "address"
        },
        {
          "internalType": "address",
          "name": "lpPairAddress",
          "type": "address"
        },
        {
          "internalType": "uint256",
          "name": "seed",
          "type": "uint256"
        }
      ],
      "stateMutability": "view",
      "type": "function"
    },
    {
      "inputs": [
        {
          "internalType": "uint256",
          "name": "agentId",
          "type": "uint256"
        }
      ],
      "name": "getAgentSeed",
      "outputs": [
        {
          "internalType": "uint256",
          "name": "",
          "type": "uint256"
        }
      ],
      "stateMutability": "view",
      "type": "function"
    },
    {
      "inputs": [
        {
          "internalType": "uint256",
          "name": "agentId",
          "type": "uint256"
        },
        {
          "internalType": "address",
          "name": "user",
          "type": "address"
        }
      ],
      "name": "getContribution",
      "outputs": [
        {
          "internalType": "uint256",
          "name": "",
          "type": "uint256"
        }
      ],
      "stateMutability": "view",
      "type": "function"
    },
    {
      "inputs": [],
      "name": "getCurrentAgentId",
      "outputs": [
        {
          "internalType": "uint256",
          "name": "",
          "type": "uint256"
        }
      ],
      "stateMutability": "view",
      "type": "function"
    },
    {
      "inputs": [],
      "name": "getEntropyAddress",
      "outputs": [
        {
          "internalType": "address",
          "name": "",
          "type": "address"
        }
      ],
      "stateMutability": "view",
      "type": "function"
    },
    {
      "inputs": [
        {
          "internalType": "uint256",
          "name": "agentId",
          "type": "uint256"
        }
      ],
      "name": "getLiquidityPool",
      "outputs": [
        {
          "internalType": "address",
          "name": "",
          "type": "address"
        }
      ],
      "stateMutability": "view",
      "type": "function"
    },
    {
      "inputs": [
        {
          "internalType": "uint256",
          "name": "agentId",
          "type": "uint256"
        }
      ],
      "name": "getTotalRaised",
      "outputs": [
        {
          "internalType": "uint256",
          "name": "",
          "type": "uint256"
        }
      ],
      "stateMutability": "view",
      "type": "function"
    },
    {
      "inputs": [
        {
          "internalType": "address",
          "name": "user",
          "type": "address"
        }
      ],
      "name": "getUserAgents",
      "outputs": [
        {
          "internalType": "uint256[]",
          "name": "",
          "type": "uint256[]"
        }
      ],
      "stateMutability": "view",
      "type": "function"
    },
    {
      "inputs": [
        {
          "internalType": "uint256",
          "name": "agentId",
          "type": "uint256"
        }
      ],
      "name": "hasSeed",
      "outputs": [
        {
          "internalType": "bool",
          "name": "",
          "type": "bool"
        }
      ],
      "stateMutability": "view",
      "type": "function"
    },
    {
      "inputs": [
        {
          "internalType": "uint256",
          "name": "agentId",
          "type": "uint256"
        }
      ],
      "name": "isAgentBonded",
      "outputs": [
        {
          "internalType": "bool",
          "name": "",
          "type": "bool"
        }
      ],
      "stateMutability": "view",
      "type": "function"
    },
    {
      "inputs": [],
      "name": "owner",
      "outputs": [
        {
          "internalType": "address",
          "name": "",
          "type": "address"
        }
      ],
      "stateMutability": "view",
      "type": "function"
    },
    {
      "inputs": [],
      "name": "pauseLaunchpad",
      "outputs": [],
      "stateMutability": "nonpayable",
      "type": "function"
    },
    {
      "inputs": [],
      "name": "paused",
      "outputs": [
        {
          "internalType": "bool",
          "name": "",
          "type": "bool"
        }
      ],
      "stateMutability": "view",
      "type": "function"
    },
    {
      "inputs": [],
      "name": "protocolFeePercentage",
      "outputs": [
        {
          "internalType": "uint256",
          "name": "",
          "type": "uint256"
        }
      ],
      "stateMutability": "view",
      "type": "function"
    },
    {
      "inputs": [],
      "name": "renounceOwnership",
      "outputs": [],
      "stateMutability": "nonpayable",
      "type": "function"
    },
    {
      "inputs": [
        {
          "internalType": "uint256",
          "name": "_feePercentage",
          "type": "uint256"
        }
      ],
      "name": "setProtocolFeePercentage",
      "outputs": [],
      "stateMutability": "nonpayable",
      "type": "function"
    },
    {
      "inputs": [
        {
          "internalType": "address",
          "name": "_treasuryAddress",
          "type": "address"
        }
      ],
      "name": "setTreasuryAddress",
      "outputs": [],
      "stateMutability": "nonpayable",
      "type": "function"
    },
    {
      "inputs": [
        {
          "internalType": "address",
          "name": "_uniswapRouter",
          "type": "address"
        }
      ],
      "name": "setUniswapRouter",
      "outputs": [],
      "stateMutability": "nonpayable",
      "type": "function"
    },
    {
      "inputs": [
        {
          "internalType": "address",
          "name": "newOwner",
          "type": "address"
        }
      ],
      "name": "transferOwnership",
      "outputs": [],
      "stateMutability": "nonpayable",
      "type": "function"
    },
    {
      "inputs": [],
      "name": "treasuryAddress",
      "outputs": [
        {
          "internalType": "address",
          "name": "",
          "type": "address"
        }
      ],
      "stateMutability": "view",
      "type": "function"
    },
    {
      "inputs": [],
      "name": "uniswapRouter",
      "outputs": [
        {
          "internalType": "address",
          "name": "",
          "type": "address"
        }
      ],
      "stateMutability": "view",
      "type": "function"
    },
    {
      "inputs": [],
      "name": "unpauseLaunchpad",
      "outputs": [],
      "stateMutability": "nonpayable",
      "type": "function"
    },
    {
      "inputs": [
        {
          "internalType": "address",
          "name": "",
          "type": "address"
        },
        {
          "internalType": "uint256",
          "name": "",
          "type": "uint256"
        }
      ],
      "name": "userAgents",
      "outputs": [
        {
          "internalType": "uint256",
          "name": "",
          "type": "uint256"
        }
      ],
      "stateMutability": "view",
      "type": "function"
    },
    {
      "inputs": [
        {
          "internalType": "uint256",
          "name": "agentId",
          "type": "uint256"
        }
      ],
      "name": "withdrawContribution",
      "outputs": [],
      "stateMutability": "nonpayable",
      "type": "function"
    }
  ],
  "bytecode": "0x6080346200015857601f62006b4338819003918201601f19168301916001600160401b038311848410176200015d5780849260609460405283398101031262000158576200004d8162000173565b620000696040620000616020850162000173565b930162000173565b33156200013f576000549260018060a01b03199333858216176000556040519060018060a01b03948591823391167f8be0079c531659141344cd1fd0a4f28419497f9722a3daafe3b4186f6b6457e0600080a36001805561012c600a55611f4080600b55600c5516908115801562000134575b801562000129575b6200011a575090839185600754161760075516836008541617600855169060095416176009556040516169ba9081620001898239f35b63e6c4247b60e01b8152600490fd5b5084841615620000e4565b5084831615620000dc565b604051631e4fbdf760e01b815260006004820152602490fd5b600080fd5b634e487b7160e01b600052604160045260246000fd5b51906001600160a01b0382168203620001585756fe60808060405260043610156200001457600080fd5b60003560e01c9081628c55041462001d9757508063187ee7e41462001d5957806319a6a6e91462001c0c5780632f8228dc1462001b9d5780633d46519d1462001adf5780633d891f5914620002f257806342f84c331462001aae57806347ce07cc14620001f3578063513856c8146200192a57806351ca9ff914620018cb57806352a5f1f8146200175e57806358dc8310146200172b5780635c975abb14620017065780636605bfda146200168f578063715018a61462001632578063735de9f714620016075780638b7afe2e14620015e95780638da5cb5b14620015be5780638e50e509146200159e578063a491ceb6146200153e578063a74498aa1462001505578063ab49ed5714620014d4578063b4f685e1146200144c578063ba39a1c51462001413578063bc063e1a14620013f4578063bea9849e146200136b578063bfd1769e146200134b578063c1cbbca714620011d3578063c5f956af14620011a8578063cfeb9eb214620010cf578063d25090ff1462000faf578063d8a5e9361462000f3a578063d9e95ad21462000392578063db2e21bc146200033e578063e081dbf914620002f2578063e1f1c4a714620002d3578063e379dcaf14620002b3578063f2fde38b14620002235763fdaa566114620001f357600080fd5b346200021e5760003660031901126200021e576009546040516001600160a01b039091168152602090f35b600080fd5b346200021e5760203660031901126200021e576200024062001e0d565b6200024a62001fc7565b6001600160a01b039081169081156200029a57600054826001600160601b0360a01b821617600055167f8be0079c531659141344cd1fd0a4f28419497f9722a3daafe3b4186f6b6457e0600080a3005b604051631e4fbdf760e01b815260006004820152602490fd5b346200021e5760003660031901126200021e576020600b54604051908152f35b346200021e5760003660031901126200021e5760206040516127108152f35b346200021e5760403660031901126200021e576200030f62001e24565b600435600052600560205260406000209060018060a01b03166000526020526020604060002054604051908152f35b346200021e5760003660031901126200021e576200035b62001fc7565b60008080804760018060a01b038254165af162000377620020e0565b50156200038057005b6040516312171d8360e31b8152600490fd5b346200021e5760e03660031901126200021e576004356001600160401b0381116200021e57620003c790369060040162001f97565b6024356001600160401b0381116200021e57620003e990369060040162001f97565b92906044356001600160401b0381116200021e576200040d90369060040162001f97565b9190946064356001600160401b0381116200021e576200043290369060040162001f97565b916084356001600160401b0381116200021e576200045590369060040162001f97565b6200045f6200208f565b60a4351562000efc5760c4351562000ec057881562000e8c57821562000e5657600354986000198a1462000e405760018a01600355612710620004a7600c5460c43562001ff4565b0494620004b78660c43562002008565b96604051806140098101106001600160401b0361400983011117620009e857806200056d8f6200053d8f918f8f62000526908e6200050f62000555978e6140096200297c8d3960e06140098d01818152019162002016565b916140098a01830360206140098c01015262002016565b916140098701830360406140098901015262002016565b61400984018103606061400986010152858762002016565b61400983018103608061400985010152878962002016565b60c43560a0614009840101523060c06140098401015203906000f09a8b1562000e3457604051998a6102208101106001600160401b036102208d011117620009e8576200060897620005d2620005dc93620005fb976102208f01604052369162002053565b8c52369162002053565b60208a0152620005ee368b8f62002053565b60408a0152369162002053565b6060870152369162002053565b608084015260a43560a084015260c43560c084015260e083015261010082015233610120820152600061014082015260006101608201526000610180820152426101a082015260018060a01b0383166101c082015260006101e0820152600061020082015283600052600460205260406000209080518051906001600160401b038211620009e85781906200069e855462001e3b565b601f811162000ddf575b50602090601f831160011462000d6e5760009262000d62575b50508160011b916000199060031b1c19161782555b60208101518051906001600160401b038211620009e8578190620006fe600186015462001e3b565b601f811162000d0a575b50602090601f831160011462000c935760009262000c87575b50508160011b916000199060031b1c19161760018301555b60408101518051906001600160401b038211620009e857819062000761600286015462001e3b565b601f811162000c2f575b50602090601f831160011462000bb85760009262000bac575b50508160011b916000199060031b1c19161760028301555b60608101518051906001600160401b038211620009e8578190620007c4600386015462001e3b565b601f811162000b54575b50602090601f831160011462000add5760009262000ad1575b50508160011b916000199060031b1c19161760038301555b60808101518051906001600160401b038211620009e85762000825600485015462001e3b565b601f811162000a85575b50602090601f831160011462000a0a579180600e949261020094600092620009fe575b50508160011b916000199060031b1c19161760048501555b60a0810151600585015560c0810151600685015560e0810151600785015561010081015160088501556009840160018060a01b036101208301511681549060ff60a01b610140850151151560a01b169060ff60a81b610160860151151560a81b169269ffffffffffffffffffff60b01b161717179055610180810151600a8501556101a0810151600b850155600c840160018060a01b036101c083015116906001600160601b0360a01b9182825416179055600d85019060018060a01b036101e0840151169082541617905501519101553360005260066020526040600020805468010000000000000000811015620009e857602095859362000999837f3d79258958dd273e836091f30cbf986df1c5b5458b584c7974f4f3d802d6b7c5956001620009d19601815562001f68565b815460001960039290921b91821b19169087901b1790556040516001600160a01b039096168652606088870181905286019162002016565b9260a43560408201528033940390a3604051908152f35b634e487b7160e01b600052604160045260246000fd5b015190508a8062000852565b906004850160005260206000209160005b601f198516811062000a6c575092600e94926001926102009583601f1981161062000a52575b505050811b0160048501556200086a565b015160001960f88460031b161c191690558a808062000a41565b9192602060018192868501518155019401920162000a1b565b600485016000526020600020601f840160051c81016020851062000ac9575b601f830160051c8201811062000abc5750506200082f565b6000815560010162000aa4565b508062000aa4565b015190508880620007e7565b9250600385016000526020600020906000935b601f198416851062000b38576001945083601f1981161062000b1e575b505050811b016003830155620007ff565b015160001960f88460031b161c1916905588808062000b0d565b8181015183556020948501946001909301929091019062000af0565b909150600385016000526020600020601f840160051c81016020851062000ba4575b90849392915b601f830160051c8201811062000b94575050620007ce565b6000815585945060010162000b7c565b508062000b76565b01519050888062000784565b9250600285016000526020600020906000935b601f198416851062000c13576001945083601f1981161062000bf9575b505050811b0160028301556200079c565b015160001960f88460031b161c1916905588808062000be8565b8181015183556020948501946001909301929091019062000bcb565b909150600285016000526020600020601f840160051c81016020851062000c7f575b90849392915b601f830160051c8201811062000c6f5750506200076b565b6000815585945060010162000c57565b508062000c51565b01519050888062000721565b9250600185016000526020600020906000935b601f198416851062000cee576001945083601f1981161062000cd4575b505050811b01600183015562000739565b015160001960f88460031b161c1916905588808062000cc3565b8181015183556020948501946001909301929091019062000ca6565b909150600185016000526020600020601f840160051c81016020851062000d5a575b90849392915b601f830160051c8201811062000d4a57505062000708565b6000815585945060010162000d32565b508062000d2c565b015190508880620006c1565b9250846000526020600020906000935b601f198416851062000dc3576001945083601f1981161062000da9575b505050811b018255620006d6565b015160001960f88460031b161c1916905588808062000d9b565b8181015183556020948501946001909301929091019062000d7e565b909150846000526020600020601f840160051c81016020851062000e2c575b90849392915b601f830160051c8201811062000e1c575050620006a8565b6000815585945060010162000e04565b508062000dfe565b6040513d6000823e3d90fd5b634e487b7160e01b600052601160045260246000fd5b60405162461bcd60e51b815260206004820152600e60248201526d125b9d985b1a59081cde5b589bdb60921b6044820152606490fd5b60405162461bcd60e51b815260206004820152600c60248201526b496e76616c6964206e616d6560a01b6044820152606490fd5b60405162461bcd60e51b8152602060048201526014602482015273496e76616c696420746f6b656e20737570706c7960601b6044820152606490fd5b60405162461bcd60e51b8152602060048201526016602482015275125b9d985b1a5908199d5b991a5b99c81d185c99d95d60521b6044820152606490fd5b346200021e5760203660031901126200021e5760043562000f5a62001fc7565b6103e8811162000f9d5760407fb404cac19fb1cbeff98d325795b08886e3cd8fe8cb1a2f193aac66f13fb239c391600a549080600a5582519182526020820152a1005b60405163390edff560e11b8152600490fd5b346200021e576020806003193601126200021e5760043562000fd0620020bc565b6000818152600483526040902060098101549092906001600160a01b03811615620010bd5760a01c60ff16620010ab57816000526005815260406000203360005281526040600020549283156200109957600a908360005260058352604060002033600052835260006040812055016200104c84825462002008565b9055600080808086335af162001061620020e0565b501562000380577fa182b2a9c58fae7e4827fbe3ac2fa1c5711191ef3f58b1fa19631feb97273bb2906040519384523393a360018055005b604051631971fbf360e21b8152600490fd5b60405163209a769d60e11b8152600490fd5b60405163e93ba22360e01b8152600490fd5b346200021e5760403660031901126200021e576004356024356001600160401b0381116200021e576200110790369060040162001f97565b906200111262001fc7565b6000838152600460205260409020600901805492906001600160a01b03841615620010bd5760ff8460a01c16620011965760ff60a81b19909316600160a81b1790925560405160208082527feccbac3b54f4e8ce39548e6fd5e90000c54fa4a517c112f147c66cd45b457b089391928392620011919284019162002016565b0390a2005b604051636005a7a160e11b8152600490fd5b346200021e5760003660031901126200021e576007546040516001600160a01b039091168152602090f35b6020806003193601126200021e5760043590620011ef620020bc565b620011f96200208f565b6000828152600482526040902060098101546001600160a01b03811615620010bd5760ff8160a01c16620011965760a81c60ff1662001339573415620012f457600a81019160056200124d348554620020ae565b920191825410620012e2578360005260058152604060002033600052815260406000206200127d348254620020ae565b90556200128c348454620020ae565b8093558260405191348352820152837fdcfa71ee125a676f843733d9d39dce2c918ecf9e92f96db4f24bdb5244ed68a060403393a3541115620012d0575b60018055005b620012db906200212f565b80620012ca565b604051637e49436360e01b8152600490fd5b60405162461bcd60e51b815260048101839052601b60248201527f4d75737420636f6e74726962757465206d6f7265207468616e203000000000006044820152606490fd5b604051635228324960e01b8152600490fd5b346200021e5760003660031901126200021e576020600c54604051908152f35b346200021e5760203660031901126200021e576200138862001e0d565b6200139262001fc7565b6001600160a01b03908116908115620013e257600854826001600160601b0360a01b821617600855167f02dc5c233404867c793b749c6d644beb2277536d18a7e7974d3f238e4c6f1684600080a3005b60405163e6c4247b60e01b8152600490fd5b346200021e5760003660031901126200021e5760206040516103e88152f35b346200021e5760203660031901126200021e576004356000526004602052602060ff60096040600020015460a01c166040519015158152f35b346200021e5760203660031901126200021e576004356200146c620020bc565b60008181526004602052604090206009810154906001600160a01b03821615620010bd576005600a82015491015411620014c25760ff8160a01c16620011965760a81c60ff166200133957620012ca906200212f565b60405163040b16cf60e01b8152600490fd5b346200021e5760203660031901126200021e5760043560005260046020526020600a60406000200154604051908152f35b346200021e5760203660031901126200021e576004356000526004602052602060018060a01b03600d6040600020015416604051908152f35b346200021e5760003660031901126200021e576200155b62001fc7565b620015656200208f565b600160ff1960025416176002557f62e78cea01bee320cd4e420270b5ea74000d11b0c9f74754ebdbfc544b05a2586020604051338152a1005b346200021e5760003660031901126200021e576020600a54604051908152f35b346200021e5760003660031901126200021e576000546040516001600160a01b039091168152602090f35b346200021e5760003660031901126200021e57602047604051908152f35b346200021e5760003660031901126200021e576008546040516001600160a01b039091168152602090f35b346200021e5760003660031901126200021e576200164f62001fc7565b600080546001600160a01b0319811682556001600160a01b03167f8be0079c531659141344cd1fd0a4f28419497f9722a3daafe3b4186f6b6457e08280a3005b346200021e5760203660031901126200021e57620016ac62001e0d565b620016b662001fc7565b6001600160a01b03908116908115620013e257600754826001600160601b0360a01b821617600755167f4ab5be82436d353e61ca18726e984e561f5c1cc7c6d38b29d2553c790434705a600080a3005b346200021e5760003660031901126200021e57602060ff600254166040519015158152f35b346200021e5760203660031901126200021e5760043560005260046020526020600e604060002001541515604051908152f35b346200021e5760603660031901126200021e576200177b62001db4565b6200178562001e24565b6009546001600160a01b039290831680156200188657330362001835577f4c41b765be2f20c9501f57b6e2ad4edc664bb5f44b21b5559ca0f987847f222f916001600160401b03602092169081600052600d8352604060002054946040519084820192604435845287604084015216606082015260608152620018088162001e78565b51902090846000526004835281600e60406000200155600052600d825260006040812055604051908152a2005b60405162461bcd60e51b815260206004820152602360248201527f4f6e6c7920456e74726f70792063616e2063616c6c20746869732066756e637460448201526234b7b760e91b6064820152608490fd5b60405162461bcd60e51b815260206004820152601760248201527f456e74726f70792061646472657373206e6f74207365740000000000000000006044820152606490fd5b346200021e5760403660031901126200021e57620018e862001e0d565b6001600160a01b03166000908152600660205260409020805460243591908210156200021e576020916200191c9162001f68565b90546040519160031b1c8152f35b346200021e5760203660031901126200021e5760043560005260046020526040600020620019588162001eb6565b90620019676001820162001eb6565b90620019766002820162001eb6565b620019846003830162001eb6565b91620019936004820162001eb6565b92600582015493600683015460078401546008850154600986015491600a87015493600b88015495600160a01b60019003600c8a01541697600160a01b60019003600d8b01541699600e01549a6040519e8f9e8f916102208084528301620019fb9162001dcb565b828103602084015262001a0e9162001dcb565b90808203906040015262001a229162001dcb565b8d810360608f015262001a359162001dcb565b8c810360808e015262001a489162001dcb565b9960a08c015260c08b015260e08a0152610100890152600160a01b6001900381166101208901528060a01c60ff16151561014089015260a81c60ff1615156101608801526101808701526101a08601526101c08501526101e08401526102008301520390f35b346200021e5760203660031901126200021e5760043560005260046020526020600e60406000200154604051908152f35b346200021e576020806003193601126200021e576001600160a01b0362001b0562001e0d565b1660005260068152604060002060405190818382549182815201908192600052846000209060005b8682821062001b8857868662001b468288038362001e94565b604051928392818401908285525180915260408401929160005b82811062001b7057505050500390f35b83518552869550938101939281019260010162001b60565b83548552909301926001928301920162001b2d565b346200021e5760003660031901126200021e5762001bba62001fc7565b60025460ff81161562001bfa5760ff19166002557f5db9ee0a495bf2e6ff9c91a7834c1ba4fdd244a5e8aa4e537bd38aeae4b073aa6020604051338152a1005b604051638dfc202b60e01b8152600490fd5b346200021e5760203660031901126200021e5760043560005260046020526040600020600981015460018060a01b0390818116908115620010bd57600584015491600a8501549380600c8701541690600d8701541691600e8701549362001c738862001eb6565b9662001c8260018a0162001eb6565b9862001c916002820162001eb6565b9062001ca06003820162001eb6565b9060040162001caf9062001eb6565b916040519b8c9b8c6101a08091528d0162001cca9162001dcb565b8c810360208e015262001cdd9162001dcb565b8b810360408d015262001cf09162001dcb565b8a810360608c015262001d039162001dcb565b89810360808b015262001d169162001dcb565b9660a089015260c08801528060a01c60ff16151560e088015260a81c60ff1615156101008701526101208601526101408501526101608401526101808301520390f35b346200021e5760203660031901126200021e576001600160401b0362001d7e62001db4565b16600052600d6020526020604060002054604051908152f35b346200021e5760003660031901126200021e576020906003548152f35b600435906001600160401b03821682036200021e57565b919082519283825260005b84811062001df8575050826000602080949584010152601f8019910116010190565b60208183018101518483018201520162001dd6565b600435906001600160a01b03821682036200021e57565b602435906001600160a01b03821682036200021e57565b90600182811c9216801562001e6d575b602083101462001e5757565b634e487b7160e01b600052602260045260246000fd5b91607f169162001e4b565b608081019081106001600160401b03821117620009e857604052565b90601f801991011681019081106001600160401b03821117620009e857604052565b906040519182600082549262001ecc8462001e3b565b90818452600194858116908160001462001f43575060011462001efc575b505062001efa9250038362001e94565b565b9093915060005260209081600020936000915b81831062001f2a57505062001efa9350820101388062001eea565b8554888401850152948501948794509183019162001f0f565b91505062001efa94506020925060ff191682840152151560051b820101388062001eea565b805482101562001f815760005260206000200190600090565b634e487b7160e01b600052603260045260246000fd5b9181601f840112156200021e578235916001600160401b0383116200021e57602083818601950101116200021e57565b6000546001600160a01b0316330362001fdc57565b60405163118cdaa760e01b8152336004820152602490fd5b8181029291811591840414171562000e4057565b9190820391821162000e4057565b908060209392818452848401376000828201840152601f01601f1916010190565b6001600160401b038111620009e857601f01601f191660200190565b929192620020618262002037565b9162002071604051938462001e94565b8294818452818301116200021e578281602093846000960137010152565b60ff600254166200209c57565b60405163d93c066560e01b8152600490fd5b9190820180921162000e4057565b600260015414620020ce576002600155565b604051633ee5aeb560e01b8152600490fd5b3d1562002110573d90620020f48262002037565b9162002104604051938462001e94565b82523d6000602084013e565b606090565b908160209103126200021e575180151581036200021e5790565b6000918183526004916020908382526040916200218d83872087600a82015462002193612710918262002165600a548362001ff4565b049586936200218362002179868562002008565b600b549062001ff4565b0496879262002008565b62002008565b60098401805460ff60a01b1916600160a01b1781559180620028e8575b508062002877575b505060095486516320bba64360e21b8082526001600160a01b039493508b928516919087828d81865afa9182156200284957849262002853575b508951631711922960e31b81529186168c8301528782602481865afa9182156200284957908c9392918592620027fa575b50888b51818101908c82528d429082015244606082015260608152620022498162001e78565b519020918c51958691825281865afa938415620027f0578d948a9489946044948f948a94620027c3575b506001600160801b039293945198899788966319cb825f60e01b88521690860152602485015216905af1908115620027b95782889288928b959162002744575b509280946001600160401b037f01c8a6742988c86e1e3cf3a0830aacd862b20c5ac4af6858c41e69c4942306fa951692838152600d85522055806001600160401b0319600e541617600e558951908152a284895287845285892097600c8901988a848b541685600854168a5163c45a015560e01b815289818781855afa9081156200273a5788859493928c9289979162002718575b5016918d51958680926315ab88c960e31b82525afa9384156200270e578394620026ea575b508b5163e6a4390560e01b81526001600160a01b0380841688830190815290861660208201529094908b90869081906040010381855afa948515620026e057918b93918e938697620026bc575b508a87161562002620575b50506008546007969096018054925163095ea7b360e01b8152968a166001600160a01b03168888019081526020810193909352949593849283919082906040015b03925af180156200261657620025f4575b508480600854169b541681549b61012c4201804211620025e157908892918c519e8f9363f305d71960e01b855288850152806024850152604484015283606484015230608484015260a4830152815a9360c492606095f19a8b15620025d757899a9b6200259a575b50918691887f413fcc4add68f16703d76130cf98a76591f34707ceaa9abd83774f3776483a818762002519965493169c8d9381519081528a87820152a3600d840180546001600160a01b0319168b179055600c840180546007546008909601548b5163a9059cbb60e01b81529688166001600160a01b0316938701938452602084015290949384929187169183918f918391604090910190565b03925af1801562002590577fc84c46be329909b32e09939b228ea4eabeb70e5f3b6b7fde6b4e029e971addac969798999a506200255c575b5054169451908152a4565b6200258090853d871162002588575b62002577818362001e94565b81019062002115565b503862002551565b503d6200256b565b87513d8c823e3d90fd5b6060809293949a503d8311620025cf575b620025b7818362001e94565b81010312620025cb5790889791386200247f565b8a80fd5b503d620025ab565b89513d8e823e3d90fd5b634e487b7160e01b8f526011865260248ffd5b6200260e90883d8a11620025885762002577818362001e94565b503862002417565b8a513d8f823e3d90fd5b92516364e329cb60e11b81526001600160a01b038084168a8301908152941660208501529495509093929183919082908790829060400103925af1908115620026b25762002406928a928d9286916200267e575b50949338620023c5565b620026a39150843d8611620026aa575b6200269a818362001e94565b8101906200295a565b3862002674565b503d6200268e565b8b513d85823e3d90fd5b620026d8919750853d8711620026aa576200269a818362001e94565b9538620023ba565b8d513d86823e3d90fd5b620027069194508a3d8c11620026aa576200269a818362001e94565b92386200236d565b8c513d85823e3d90fd5b620027339150833d8511620026aa576200269a818362001e94565b3862002348565b8c513d86823e3d90fd5b94505050905081813d8311620027b1575b62002761818362001e94565b81010312620027ad5751896001600160401b0382168203620027aa578791879187917f01c8a6742988c86e1e3cf3a0830aacd862b20c5ac4af6858c41e69c4942306fa620022b3565b80fd5b8980fd5b503d62002755565b88513d84823e3d90fd5b6001600160801b03939450620027e890893d8b11620026aa576200269a818362001e94565b939262002273565b8b513d87823e3d90fd5b89809295508193503d831162002841575b62002817818362001e94565b810103126200283d5751916001600160801b03831683036200283d578b92903862002223565b8380fd5b503d6200280b565b8a513d86823e3d90fd5b6200286f919250883d8a11620026aa576200269a818362001e94565b9038620021f2565b9054829182918291906001600160a01b03165af162002895620020e0565b5015620028a557873880620021b8565b845162461bcd60e51b8152808801849052601760248201527f43726561746f72207472616e73666572206661696c65640000000000000000006044820152606490fd5b9280808093949560018060a01b03600754165af162002906620020e0565b5015620029175790899138620021b0565b865162461bcd60e51b8152808a01869052601860248201527f5472656173757279207472616e73666572206661696c656400000000000000006044820152606490fd5b908160209103126200021e57516001600160a01b03811681036200021e579056fe6101608060405234620001295762004009908138038092620000218262000144565b823960e08282019212620001295780516001600160401b03929083811162000129578162000051918401620001c2565b91610180518481116200012957826200006c918301620001c2565b916101a05185811162000129578162000087918401620001c2565b916101c051868111620001295782620000a2918301620001c2565b916101e0519687116200012957620000d796620000c09201620001c2565b916102005193620000d062000228565b95620008b8565b604051612a2a90816200159f823960805181611f53015260a0518161200e015260c05181611f1d015260e05181611fa201526101005181611fc801526101205181610db101526101405181610dda0152f35b600080fd5b634e487b7160e01b600052604160045260246000fd5b601f01601f1916610160908101906001600160401b038211908210176200016a57604052565b6200012e565b604081019081106001600160401b038211176200016a57604052565b604051906200019b8262000170565b565b60005b838110620001b15750506000910152565b8181015183820152602001620001a0565b81601f82011215620001295780516001600160401b03928382116200016a5760405193601f8301601f19908116603f01168501908111858210176200016a576040528184526020828401011162000129576200022591602080850191016200019d565b90565b61022051906001600160a01b03821682036200012957565b90600182811c9216801562000272575b60208310146200025c57565b634e487b7160e01b600052602260045260246000fd5b91607f169162000250565b601f81116200028a575050565b6000906003825260208220906020601f850160051c83019410620002cb575b601f0160051c01915b828110620002bf57505050565b818155600101620002b2565b9092508290620002a9565b601f8111620002e3575050565b6000906004825260208220906020601f850160051c8301941062000324575b601f0160051c01915b8281106200031857505050565b8181556001016200030b565b909250829062000302565b601f81116200033c575050565b600090600d825260208220906020601f850160051c830194106200037d575b601f0160051c01915b8281106200037157505050565b81815560010162000364565b90925082906200035b565b601f811162000395575050565b600090600e825260208220906020601f850160051c83019410620003d6575b601f0160051c01915b828110620003ca57505050565b818155600101620003bd565b9092508290620003b4565b601f8111620003ee575050565b600090600f825260208220906020601f850160051c830194106200042f575b601f0160051c01915b8281106200042357505050565b81815560010162000416565b90925082906200040d565b601f811162000447575050565b6000906005825260208220906020601f850160051c8301941062000488575b601f0160051c01915b8281106200047c57505050565b8181556001016200046f565b909250829062000466565b601f8111620004a0575050565b6000906006825260208220906020601f850160051c83019410620004e1575b601f0160051c01915b828110620004d557505050565b818155600101620004c8565b9092508290620004bf565b80519091906001600160401b0381116200016a5762000518816200051260045462000240565b620002d6565b602080601f83116001146200055757508192936000926200054b575b50508160011b916000199060031b1c191617600455565b01519050388062000534565b6004600052601f198316949091907f8a35acfbc15ff81a39ae7d344fd709f28e8600b4aa8c65c6b64bfe7fe36bd19b926000905b878210620005c6575050836001959610620005ac575b505050811b01600455565b015160001960f88460031b161c19169055388080620005a1565b806001859682949686015181550195019301906200058b565b80519091906001600160401b0381116200016a576200060b8162000605600d5462000240565b6200032f565b602080601f83116001146200064a57508192936000926200063e575b50508160011b916000199060031b1c191617600d55565b01519050388062000627565b600d600052601f198316949091907fd7b6990105719101dabeb77144f2a3385c8033acd3af97e9423a695e81ad1eb5926000905b878210620006b95750508360019596106200069f575b505050811b01600d55565b015160001960f88460031b161c1916905538808062000694565b806001859682949686015181550195019301906200067e565b80519091906001600160401b0381116200016a57620006fe81620006f8600e5462000240565b62000388565b602080601f83116001146200073d575081929360009262000731575b50508160011b916000199060031b1c191617600e55565b0151905038806200071a565b600e600052601f198316949091907fbb7b4a454dc3493923482f07822329ed19e8244eff582cc204f8554c3620c3fd926000905b878210620007ac57505083600195961062000792575b505050811b01600e55565b015160001960f88460031b161c1916905538808062000787565b8060018596829496860151815501950193019062000771565b80519091906001600160401b0381116200016a57620007f181620007eb600f5462000240565b620003e1565b602080601f831160011462000830575081929360009262000824575b50508160011b916000199060031b1c191617600f55565b0151905038806200080d565b600f600052601f198316949091907f8d1108e10bcb7c27dddfc02ed9d693a074039d026cf4ea4240b40f7d581ac802926000905b8782106200089f57505083600195961062000885575b505050811b01600f55565b015160001960f88460031b161c191690553880806200087a565b8060018596829496860151815501950193019062000864565b95949291939560405190620008cd8262000170565b600180835260209081840194603160f81b8652835160018060401b0381116200016a5762000908816200090260035462000240565b6200027d565b8392601f821160011462000a02578180916200093e95600093620009f6575b501b916000199060031b1c191617600355620004ec565b620009498262000ea5565b61012052620009588362000fb5565b61014052815191012060e052519020610100524660a0526200097962001134565b6080523060c0526001600160a01b03841615620009dd576200019b94620009c9620009cf92620009c3620009d696620009b28962000a8e565b620009bd6001600c55565b620005df565b620006d2565b620007c5565b8262000db7565b8062000ad7565b604051631e4fbdf760e01b815260006004820152602490fd5b88015192503862000927565b60036000529192601f198216907fc2575a0e9e593c00f959f8c92f12db2869c3395a3b0502d05e2516446f71f85b9160005b8782821062000a7957505090836200093e96959493921062000a5f575b5050811b01600355620004ec565b87015160001960f88460031b161c19169055388062000a51565b89840151855593860193928301920162000a34565b600b80546001600160a01b039283166001600160a01b0319821681179092559091167f8be0079c531659141344cd1fd0a4f28419497f9722a3daafe3b4186f6b6457e0600080a3565b6001600160a01b0390811660008181526008602052604080822080548686166001600160a01b0319821681179092556200019b969516949391929185907f3134e8a2e6d97e929a7e54011ea5485d7d196dd5f0ba4d4ef95803e8e3fc257f8480a4806020522054915b6001600160a01b0380831693929190811690818514158062000cd9575b62000b6a575b5050505050565b8162000be6575b50508262000b82575b808062000b63565b6001600160a01b0316600090815260096020526040902060008051602062003fe98339815191529162000bc29162000bbb9091620011a0565b9062000ce3565b604080516001600160d01b039384168152919092166020820152a238808062000b7a565b6001600160a01b0316600090815260096020526040902062000c0884620011a0565b9065ffffffffffff9081431162000cba57805460008162000c755750509062000c529162000c4860008051602062003fe98339815191529460006200156a565b91431690620013ae565b604080516001600160d01b039384168152919092166020820152a2388062000b71565b6000939291931994848681011162000cb45760008051602062003fe98339815191529562000c52956020848662000c4896522001015460301c6200156a565b62000da1565b6040516306dfcc6560e41b815260306004820152436024820152604490fd5b5083151562000b5d565b65ffffffffffff9081431162000cba57805460008162000d1457505062000c4862000d1093600062001584565b9091565b9093600019858181011162000cb45762000d10956020848662000c4896522001015460301c62001584565b65ffffffffffff80431162000cba57600a5460008162000d7557505062000d6c62000d109260006200156a565b904316620012b2565b9092600019848181011162000cb45762000d1094602084600a62000d6c96522001015460301c6200156a565b634e487b7160e01b600052601160045260246000fd5b906001600160a01b038216801562000e8c5762000de062000ddb836002546200155c565b600255565b6001600160a01b038316600090815260208181526040808320805486019055518481527fddf252ad1be2c89b69c2b068fc378daa952ba7f163c4a11628f55a4df523b3ef9190a36002546001600160d01b03811162000e65575062000e4690826200147b565b6014546001600160a01b03909116600090815260136020526040902055565b604051630e58ae9360e11b815260048101919091526001600160d01b036024820152604490fd5b60405163ec442f0560e01b815260006004820152602490fd5b908151602080821060001462000ec3575050906200022590620010c5565b6001600160401b0382116200016a5762000eea8262000ee460055462000240565b6200043a565b80601f831160011462000f2a575081929360009262000f1e575b50508160011b916000199060031b1c19161760055560ff90565b01519050388062000f04565b6005600052601f198316949091907f036b6384b5eca791c62761152d0c79bb0604c104a5fb6f4eb0703f3154bb3db0926000905b87821062000f9c57505083600195961062000f82575b505050811b0160055560ff90565b015160001960f88460031b161c1916905538808062000f74565b8060018596829496860151815501950193019062000f5e565b908151602080821060001462000fd3575050906200022590620010c5565b6001600160401b0382116200016a5762000ffa8262000ff460065462000240565b62000493565b80601f83116001146200103a57508192936000926200102e575b50508160011b916000199060031b1c19161760065560ff90565b01519050388062001014565b6006600052601f198316949091907ff652222313e28459528d920b65115c16c04f3efc82aaedc97be59f3f377c0d3f926000905b878210620010ac57505083600195961062001092575b505050811b0160065560ff90565b015160001960f88460031b161c1916905538808062001084565b806001859682949686015181550195019301906200106e565b601f815111620010f3576020815191015160208210620010e3571790565b6000198260200360031b1b161790565b6044604051809263305a27a960e01b8252602060048301526200112681518092816024860152602086860191016200019d565b601f01601f19168101030190fd5b60e051610100516040519060208201927f8b73c3c69bb8fe3d512ecc4cf759cc79239f7b179b0ffacaa9a75d522b39400f8452604083015260608201524660808201523060a082015260a0815260c0810181811060018060401b038211176200016a5760405251902090565b6001600160d01b0390818111620011b5571690565b604490604051906306dfcc6560e41b825260d060048301526024820152fd5b60001981019190821162000cb457565b600a5490680100000000000000008210156200016a576001820180600a558210156200124657600a60005280516020919091015160301b65ffffffffffff191665ffffffffffff919091161760008051602062003fc983398151915290910155565b634e487b7160e01b600052603260045260246000fd5b908154680100000000000000008110156200016a5760018101808455811015620012465760009283526020928390208251929093015160301b65ffffffffffff191665ffffffffffff9290921691909117910155565b600a5491929180156200137f57620012ce620012e791620011d4565b600a60005260008051602062003fc98339815191520190565b9081549165ffffffffffff908184169183168083116200136d578692036200132f576200132892509065ffffffffffff82549181199060301b169116179055565b60301c9190565b5050620013679062001352620013446200018c565b65ffffffffffff9092168252565b6001600160d01b0385166020820152620011e4565b62001328565b604051632520601d60e01b8152600490fd5b50620013a89062001393620013446200018c565b6001600160d01b0384166020820152620011e4565b60009190565b805492939280156200145157620013c9620013d691620011d4565b8260005260206000200190565b9182549265ffffffffffff918285169281168084116200136d578793036200141857506200132892509065ffffffffffff82549181199060301b169116179055565b91505062001367916200143c6200142e6200018c565b65ffffffffffff9093168352565b6001600160d01b03861660208301526200125c565b5090620013a891620014666200142e6200018c565b6001600160d01b03851660208301526200125c565b906200148781620011a0565b9165ffffffffffff80431162000cba57600a5460008162001529575050620014ba9062000d6c6200019b95600062001584565b50506001600160a01b039081169081156200150c575b60086020527f5eff886ea0ce6ca488a3d6e336d6c0f75f46d19b42c06ce5ee98e42c96d256c75460009283526040909220548116911662000b40565b620015216200151b84620011a0565b62000d3f565b5050620014d0565b60009291921995838781011162000cb4576200019b96620014ba94602084600a62000d6c96522001015460301c62001584565b9190820180921162000cb457565b6001600160d01b039182169082160390811162000cb45790565b6001600160d01b039182169082160190811162000cb4579056fe6080604052600436101561001257600080fd5b60003560e01c806303ee438c146102c257806306fdde03146102bd578063084278ec146102b8578063095ea7b3146102b35780630e4b2285146102ae578063139ba769146102a957806318160ddd146102a45780631f4549231461029f57806323b872dd1461029a578063313ce567146102955780633644e515146102905780633a46b1a81461028b5780633c19804e1461028657806344e43cb8146102815780634bf5d7e91461027c5780634eea6d79146102775780634f4dac6f14610227578063564f4f7614610272578063587cde1e1461026d5780635c19a95c146102685780636fcfff451461026357806370a082311461025e578063715018a614610259578063750521f5146102545780637ecebe001461024f57806384b0196e1461024a578063881e1cff146102455780638b7afe2e146102405780638da5cb5b1461023b5780638e539e8c1461023657806391ddadf41461023157806395d89b411461022c5780639a6f99f9146102275780639ab24eb014610222578063a9059cbb1461021d578063b20a6f3614610218578063bf2d9e0b14610213578063c3cda5201461020e578063d505accf14610209578063db2e21bc14610204578063dd62ed3e146101ff578063f1127ed8146101fa5763f2fde38b146101f557600080fd5b611441565b61138e565b611336565b6112f9565b6111c5565b6110fc565b6110be565b6110a0565b61107a565b611031565b61093d565b61100d565b610fe1565b610f12565b610ee9565b610ecd565b610e8e565b610d96565b610d5c565b610bbb565b610b5d565b610b24565b610abc565b610a98565b610a5d565b610960565b610844565b6107b2565b6106e1565b6106bd565b6105d5565b6105b2565b610596565b6104e9565b61046a565b61044c565b610412565b6103ee565b6103bd565b610373565b61034f565b610307565b919082519283825260005b8481106102f3575050826000602080949584010152601f8019910116010190565b6020818301810151848301820152016102d2565b3461034a57600036600319011261034a576103466040516103328161032b81611852565b0382611586565b6040519182916020835260208301906102c7565b0390f35b600080fd5b3461034a57600036600319011261034a576103466040516103328161032b816118f6565b3461034a57600036600319011261034a576020601454604051908152f35b600435906001600160a01b038216820361034a57565b602435906001600160a01b038216820361034a57565b3461034a57604036600319011261034a576103e36103d9610391565b6024359033611c6b565b602060405160018152f35b3461034a57600036600319011261034a576103466040516103328161032b8161197d565b3461034a57602036600319011261034a576001600160a01b03610433610391565b1660005260126020526020604060002054604051908152f35b3461034a57600036600319011261034a576020600254604051908152f35b3461034a57604036600319011261034a57610483610391565b6024359081151580920361034a5760207f7390412ce304891b69b7a6d7722b373a8172b465ce957518d396801bc35e0872916104bd6114cf565b60018060a01b0316928360005260158252604060002060ff1981541660ff8316179055604051908152a2005b3461034a57606036600319011261034a57610502610391565b61050a6103a7565b6001600160a01b03821660009081526001602090815260408083203384529091529020604435919054926000198410610554575b6105489350611b12565b60405160018152602090f35b8284106105705761056b8361054895033383611d1f565b61053e565b604051637dc7a0d960e11b81523360048201526024810185905260448101849052606490fd5b3461034a57600036600319011261034a57602060405160128152f35b3461034a57600036600319011261034a5760206105cd611f1a565b604051908152f35b3461034a57604036600319011261034a576001600160a01b036105f6610391565b166000908152600960205260408120906106116024356115b7565b91805482938160058111610663575b509060209461062f9284612752565b806106495750505b6040516001600160d01b039091168152f35b91610655849293612272565b92815220015460301c610637565b9461066d866122bc565b86039586116106b85760209561062f9385875265ffffffffffff80838a8a20015416908516106000146106a65750915b91925094610620565b9291506106b290612281565b9061069d565b611802565b3461034a57600036600319011261034a576103466040516103328161032b81611a04565b600036600319011261034a573360009081526015602052604090205460ff16158061079d575b61078b573461071257005b6107266107213460105461228f565b601055565b60025480610760575b5060405134815233907ff3a9b3760e99454de4c494f7ed29f5204ab92febacb0acf52ea04ad4a9d2246690602090a2005b6107806107786107859261077334612852565b61229c565b60145461228f565b601455565b3861072f565b6040516318534d6360e21b8152600490fd5b50600b546001600160a01b0316331415610707565b3461034a57600036600319011261034a576107cc43612240565b65ffffffffffff806107dd43612240565b16911603610832576103466040516107f481611511565b601d81527f6d6f64653d626c6f636b6e756d6265722666726f6d3d64656661756c7400000060208201526040519182916020835260208301906102c7565b6040516301bfc1c560e61b8152600490fd5b3461034a57600036600319011261034a576108f260408051906108718261086a816118f6565b0383611586565b8051906108818261086a81611a8b565b600254916109296010549161091b6011549461090d8151916108ad836108a681611a04565b0384611586565b8051926108c4846108bd8161197d565b0385611586565b6109008251966108de886108d781611852565b0389611586565b83519d8e9d8e6101009081815201906102c7565b8d810360208f0152906102c7565b918b8303908c01526102c7565b9088820360608a01526102c7565b9086820360808801526102c7565b9260a085015260c084015260e08301520390f35b3461034a57602036600319011261034a5760206105cd61095b610391565b6128af565b3461034a57600080600319360112610a5a576002600c5414610a48576002600c5561098a336128af565b8015610a36573360009081526012602052604090206109aa82825461228f565b9055601454336000908152601360205260409020556109d36109ce8260115461228f565b601155565b8180808084335af16109e361286f565b5015610a245760405190815233907fc15f451120b13b6b40c6ad6203614ab3088308bef9150c0d6f46ea79bf46422490602090a2610a216001600c55565b80f35b6040516312171d8360e31b8152600490fd5b604051630150e2dd60e11b8152600490fd5b604051633ee5aeb560e01b8152600490fd5b80fd5b3461034a57602036600319011261034a5760206001600160a01b0380610a81610391565b166000526008825260406000205416604051908152f35b3461034a57602036600319011261034a57610aba610ab4610391565b336115fb565b005b3461034a57602036600319011261034a576001600160a01b03610add610391565b16600052600960205260406000205463ffffffff90818111610b055760209160405191168152f35b604490604051906306dfcc6560e41b8252602060048301526024820152fd5b3461034a57602036600319011261034a5760206105cd610b42610391565b6001600160a01b031660009081526020819052604090205490565b3461034a57600080600319360112610a5a57610b776114cf565b600b80546001600160a01b0319811690915581906001600160a01b03167f8be0079c531659141344cd1fd0a4f28419497f9722a3daafe3b4186f6b6457e08280a380f35b3461034a5760208060031936011261034a5767ffffffffffffffff9060043582811161034a573660238201121561034a57806004013592831161034a576024913683858401011161034a57610c0e6114cf565b8315610d4a57610c2884610c23600f54611818565b6127b9565b600090601f8511600114610c9c5750837f1c306e70c05992619e2128ad1ef88df75f36c9476282e59f51401b2abaa42e4e9484610c8a93600092610c8f575b50508160011b906000198360031b1c191617600f555b604051938493018361282a565b0390a1005b8501013590508438610c67565b600f60005290601f1985167f8d1108e10bcb7c27dddfc02ed9d693a074039d026cf4ea4240b40f7d581ac8029282905b828210610d305750509185917f1c306e70c05992619e2128ad1ef88df75f36c9476282e59f51401b2abaa42e4e96610c8a9410610d14575b5050600181811b01600f55610c7d565b8401850135600019600384901b60f8161c191690553880610d04565b8060018596898395978a0101358155019501930190610ccc565b604051630eec403f60e41b8152600490fd5b3461034a57602036600319011261034a576001600160a01b03610d7d610391565b1660005260076020526020604060002054604051908152f35b3461034a57600080600319360112610a5a57610e4090610dd57f000000000000000000000000000000000000000000000000000000000000000061205a565b610dfe7f0000000000000000000000000000000000000000000000000000000000000000612153565b9160405191610e0c83611532565b818352604051948594600f60f81b8652610e3260209360e08589015260e08801906102c7565b9086820360408801526102c7565b904660608601523060808601528260a086015284820360c08601528080855193848152019401925b828110610e7757505050500390f35b835185528695509381019392810192600101610e68565b3461034a57602036600319011261034a576001600160a01b03610eaf610391565b166000526015602052602060ff604060002054166040519015158152f35b3461034a57600036600319011261034a57602047604051908152f35b3461034a57600036600319011261034a57600b546040516001600160a01b039091168152602090f35b3461034a57602036600319011261034a57610f2e6004356115b7565b600a54906000829160058411610f86575b610f4993506126e9565b600081610f5e57505060405160008152602090f35b600a610f6b602093612272565b91526000805160206129d5833981519152015460301c610637565b9192610f91816122bc565b81039081116106b857610f4993600a835265ffffffffffff80836000805160206129d583398151915201541690851610600014610fcf575091610f3f565b929150610fdb90612281565b90610f3f565b3461034a57600036600319011261034a576020610ffd43612240565b65ffffffffffff60405191168152f35b3461034a57600036600319011261034a576103466040516103328161032b81611a8b565b3461034a57602036600319011261034a576001600160a01b03611052610391565b166000526009602052602060018060d01b036110716040600020612431565b16604051908152f35b3461034a57604036600319011261034a576103e3611096610391565b6024359033611b12565b3461034a57600036600319011261034a576020601154604051908152f35b3461034a57600036600319011261034a576020601054604051908152f35b6064359060ff8216820361034a57565b6084359060ff8216820361034a57565b3461034a5760c036600319011261034a57611115610391565b604435906024356111246110dc565b8342116111ac576111a0610aba946111a7926040519060208201927fe48329057bfd03d55e49b547132e39cffd9c1820ad7b9d4c5307691425d15adf845260018060a01b03881660408401528660608401526080830152608082526111888261154e565b61119b60a4359360843593519020612034565b611dc5565b9182611d6f565b6115fb565b604051632341d78760e11b815260048101859052602490fd5b3461034a5760e036600319011261034a576111de610391565b6111e66103a7565b604435906064356111f56110ec565b8142116112e0576001600160a01b0385811660008181526007602090815260409182902080546001810190915582517f6e71edae12b1b97f4d1f60370fef10105fa2faae0126114a169c64845d6126c99281019283529283019390935292861660608201526080810187905260a081019190915260c08082019490945292835261129992909161128660e083611586565b61119b60c4359360a43593519020612034565b6001600160a01b03848116908216036112b65750610aba92611c6b565b6040516325c0072360e11b81526001600160a01b0391821660048201529084166024820152604490fd5b60405163313c898160e11b815260048101839052602490fd5b3461034a57600080600319360112610a5a576113136114cf565b808080804760018060a01b03600b54165af161132d61286f565b5015610a245780f35b3461034a57604036600319011261034a576020611385611354610391565b61135c6103a7565b6001600160a01b0391821660009081526001855260408082209290931681526020919091522090565b54604051908152f35b3461034a57604036600319011261034a576113a7610391565b6024359063ffffffff8216820361034a57610346916113f7916113c8611d56565b506113d1611d56565b506001600160a01b031660009081526009602052604090206113f1611d56565b5061245f565b506040519061140582611511565b5465ffffffffffff811680835260309190911c60209283019081526040805192835290516001600160d01b031692820192909252918291820190565b3461034a57602036600319011261034a5761145a610391565b6114626114cf565b6001600160a01b039081169081156114b657600b54826bffffffffffffffffffffffff60a01b821617600b55167f8be0079c531659141344cd1fd0a4f28419497f9722a3daafe3b4186f6b6457e0600080a3005b604051631e4fbdf760e01b815260006004820152602490fd5b600b546001600160a01b031633036114e357565b60405163118cdaa760e01b8152336004820152602490fd5b634e487b7160e01b600052604160045260246000fd5b6040810190811067ffffffffffffffff82111761152d57604052565b6114fb565b6020810190811067ffffffffffffffff82111761152d57604052565b60a0810190811067ffffffffffffffff82111761152d57604052565b60c0810190811067ffffffffffffffff82111761152d57604052565b90601f8019910116810190811067ffffffffffffffff82111761152d57604052565b604051906115b582611511565b565b65ffffffffffff6115c743612240565b16808210156115dd57506115da90612240565b90565b6044925060405191637669fc0f60e11b835260048301526024820152fd5b6001600160a01b03818116600081815260086020526040812080548685166001600160a01b0319821681179092556115b5969416946116789390928691907f3134e8a2e6d97e929a7e54011ea5485d7d196dd5f0ba4d4ef95803e8e3fc257f9080a46001600160a01b031660009081526020819052604090205490565b915b6001600160a01b038083169392919081169081851415806117c3575b6116a2575b5050505050565b81611727575b5050826116b7575b808061169b565b6001600160a01b031660009081526009602052604090207fdec2bacdd2f05b59de34da9b523dff8be42e5e38e818c82fdb0bae774387a72491611704916116fe909161220d565b906117cc565b604080516001600160d01b039384168152919092166020820152a23880806116b0565b6001600160a01b031660009081526009602052604090206117478461220d565b61175043612240565b6001600160d01b0391828061176486612431565b1691169003928284116106b8577fdec2bacdd2f05b59de34da9b523dff8be42e5e38e818c82fdb0bae774387a724936117b9926117a09261262d565b6040805192851683529316602082015291829190820190565b0390a238806116a8565b50831515611696565b906117d643612240565b6001600160d01b039182806117ea86612431565b16911601918211611802576117fe9261262d565b9091565b634e487b7160e01b600052601160045260246000fd5b90600182811c92168015611848575b602083101461183257565b634e487b7160e01b600052602260045260246000fd5b91607f1691611827565b600f546000929161186282611818565b808252916001908181169081156118d9575060011461188057505050565b91929350600f6000527f8d1108e10bcb7c27dddfc02ed9d693a074039d026cf4ea4240b40f7d581ac802916000925b8484106118c157505060209250010190565b805460208585018101919091529093019281016118af565b915050602093945060ff929192191683830152151560051b010190565b6003546000929161190682611818565b808252916001908181169081156118d9575060011461192457505050565b9192935060036000527fc2575a0e9e593c00f959f8c92f12db2869c3395a3b0502d05e2516446f71f85b916000925b84841061196557505060209250010190565b80546020858501810191909152909301928101611953565b600e546000929161198d82611818565b808252916001908181169081156118d957506001146119ab57505050565b91929350600e6000527fbb7b4a454dc3493923482f07822329ed19e8244eff582cc204f8554c3620c3fd916000925b8484106119ec57505060209250010190565b805460208585018101919091529093019281016119da565b600d5460009291611a1482611818565b808252916001908181169081156118d95750600114611a3257505050565b91929350600d6000527fd7b6990105719101dabeb77144f2a3385c8033acd3af97e9423a695e81ad1eb5916000925b848410611a7357505060209250010190565b80546020858501810191909152909301928101611a61565b60045460009291611a9b82611818565b808252916001908181169081156118d95750600114611ab957505050565b9192935060046000527f8a35acfbc15ff81a39ae7d344fd709f28e8600b4aa8c65c6b64bfe7fe36bd19b916000925b848410611afa57505060209250010190565b80546020858501810191909152909301928101611ae8565b90916001600160a01b03808316908115611c52578416908115611c39576001600160a01b038416600090815260208190526040902054838110611c095792611c069492611bcd9282611beb989603611b7c8660018060a01b03166000526000602052604060002090565b556001600160a01b0386166000908152602081815260409182902080548601905590518481527fddf252ad1be2c89b69c2b068fc378daa952ba7f163c4a11628f55a4df523b3ef9190a38383612903565b60145493849160018060a01b03166000526013602052604060002090565b556001600160a01b0316600090815260136020526040902090565b55565b60405163391434e360e21b81526001600160a01b0386166004820152602481019190915260448101849052606490fd5b60405163ec442f0560e01b815260006004820152602490fd5b604051634b637e8f60e11b815260006004820152602490fd5b6001600160a01b038082169291908315611d06578216938415611ced5780611ce37f8c5be1e5ebec7d5bd14f71427d1e84f3dd0314c0f7b2291e5b200ac8c7c3b92594611ccc60209560018060a01b03166000526001602052604060002090565b9060018060a01b0316600052602052604060002090565b55604051908152a3565b604051634a1406b160e11b815260006004820152602490fd5b60405163e602df0560e01b815260006004820152602490fd5b906001600160a01b0380831615611d0657811615611ced57611ccc611c069260018060a01b03166000526001602052604060002090565b60405190611d6382611511565b60006020838281520152565b6001600160a01b03811660009081526007602052604090208054600181019091559091819003611d9d575050565b6040516301d4b62360e61b81526001600160a01b039092166004830152602482015260449150fd5b916115da9391611dd493611ddd565b90929192611e8d565b91907f7fffffffffffffffffffffffffffffff5d576e7357a4501ddfe92f46681b20a08411611e6157926020929160ff608095604051948552168484015260408301526060820152600092839182805260015afa15611e555780516001600160a01b03811615611e4c57918190565b50809160019190565b604051903d90823e3d90fd5b50505060009160039190565b60041115611e7757565b634e487b7160e01b600052602160045260246000fd5b611e9681611e6d565b80611e9f575050565b611ea881611e6d565b60018103611ec25760405163f645eedf60e01b8152600490fd5b611ecb81611e6d565b60028103611eec5760405163fce698f760e01b815260048101839052602490fd5b80611ef8600392611e6d565b14611f005750565b6040516335e2f38360e21b81526004810191909152602490fd5b307f00000000000000000000000000000000000000000000000000000000000000006001600160a01b0316148061200b575b15611f75577f000000000000000000000000000000000000000000000000000000000000000090565b60405160208101907f8b73c3c69bb8fe3d512ecc4cf759cc79239f7b179b0ffacaa9a75d522b39400f82527f000000000000000000000000000000000000000000000000000000000000000060408201527f000000000000000000000000000000000000000000000000000000000000000060608201524660808201523060a082015260a081526120058161156a565b51902090565b507f00000000000000000000000000000000000000000000000000000000000000004614611f4c565b60429061203f611f1a565b906040519161190160f01b8352600283015260228201522090565b60ff81146120985760ff811690601f8211612086576040519161207c83611511565b8252602082015290565b604051632cd44ac360e21b8152600490fd5b506040516005548160006120ab83611818565b8083529260019081811690811561213157506001146120d2575b506115da92500382611586565b6005600090815291507f036b6384b5eca791c62761152d0c79bb0604c104a5fb6f4eb0703f3154bb3db05b84831061211657506115da9350508101602001386120c5565b819350908160209254838589010152019101909184926120fd565b9050602092506115da94915060ff191682840152151560051b820101386120c5565b60ff81146121755760ff811690601f8211612086576040519161207c83611511565b5060405160065481600061218883611818565b8083529260019081811690811561213157506001146121ae57506115da92500382611586565b6006600090815291507ff652222313e28459528d920b65115c16c04f3efc82aaedc97be59f3f377c0d3f5b8483106121f257506115da9350508101602001386120c5565b819350908160209254838589010152019101909184926121d9565b6001600160d01b0390818111612221571690565b604490604051906306dfcc6560e41b825260d060048301526024820152fd5b65ffffffffffff90818111612253571690565b604490604051906306dfcc6560e41b8252603060048301526024820152fd5b6000198101919082116106b857565b90600182018092116106b857565b919082018092116106b857565b81156122a6570490565b634e487b7160e01b600052601260045260246000fd5b60018111156115da57600181600160801b8110156123d5575b61237d61237361236961235f61235561234b61238997600488600160401b6123849a10156123c8575b6401000000008110156123bb575b620100008110156123ae575b6101008110156123a2575b6010811015612396575b101561238e575b60030260011c612344818b61229c565b0160011c90565b612344818a61229c565b612344818961229c565b612344818861229c565b612344818761229c565b612344818661229c565b809361229c565b821190565b900390565b60011b612334565b811c9160021b9161232d565b60081c91811b91612323565b60101c9160081b91612318565b60201c9160101b9161230c565b60401c9160201b916122fe565b50600160401b9050608082901c6122d5565b600a54600090806123f9575050600090565b806000198101116106b857600a7fc65a7bb8d6351c1cf70c95a316cc6a92839c986682d98bc35f958f4883f9d2a79252015460301c90565b80546000918161244357505050600090565b6000199282848101116106b85760209181522001015460301c90565b80548210156124775760005260206000200190600090565b634e487b7160e01b600052603260045260246000fd5b600a5490600160401b82101561152d576001820180600a5582101561247757600a600052805160209091015160301b65ffffffffffff191665ffffffffffff91909116176000805160206129d583398151915290910155565b8054600160401b81101561152d576125039160018201815561245f565b61252e57815160209092015160301b65ffffffffffff191665ffffffffffff92909216919091179055565b634e487b7160e01b600052600060045260246000fd5b600a5491929180156126035761255c61257491612272565b600a6000526000805160206129d58339815191520190565b9081549165ffffffffffff908184169183168083116125f1578692036125b9576125b292509065ffffffffffff82549181199060301b169116179055565b60301c9190565b50506125ec906125d86125ca6115a8565b65ffffffffffff9092168252565b6001600160d01b038516602082015261248d565b6125b2565b604051632520601d60e01b8152600490fd5b50612627906126136125ca6115a8565b6001600160d01b038416602082015261248d565b60009190565b805492939280156126c45761264461265191612272565b8260005260206000200190565b9182549265ffffffffffff918285169281168084116125f15787930361269057506125b292509065ffffffffffff82549181199060301b169116179055565b9150506125ec916126b06126a26115a8565b65ffffffffffff9093168352565b6001600160d01b03861660208301526124e6565b5090612627916126d56126a26115a8565b6001600160d01b03851660208301526124e6565b905b8281106126f757505090565b90918082169080831860011c82018092116106b857600a60005265ffffffffffff80836000805160206129d5833981519152015416908516106000146127405750915b906126eb565b92915061274c90612281565b9061273a565b90915b8381106127625750505090565b9091928082169080831860011c82018092116106b85781602060008681528265ffffffffffff92839220015416908716106000146127a5575050925b9190612755565b909492506127b39150612281565b9061279e565b601f81116127c5575050565b600090600f82527f8d1108e10bcb7c27dddfc02ed9d693a074039d026cf4ea4240b40f7d581ac802906020601f850160051c83019410612820575b601f0160051c01915b82811061281557505050565b818155600101612809565b9092508290612800565b90918060409360208452816020850152848401376000828201840152601f01601f1916010190565b90670de0b6b3a7640000918281029281840414901517156106b857565b3d156128aa573d9067ffffffffffffffff821161152d576040519161289e601f8201601f191660200184611586565b82523d6000602084013e565b606090565b6001600160a01b031660009081526020819052604090205480156128fd57601454601360205260406000205481039081116106b857808202918204036106b857670de0b6b3a7640000900490565b50600090565b6001600160a01b0390811692918190841561298f575b16908115612947575b6115b5936000526008602052806040600020541691600052604060002054169061167a565b6129508361220d565b9361295a43612240565b6001600160d01b0395868061296d6123e7565b16911690039586116106b8576115b59561298691612544565b50509350612922565b905061299a8361220d565b906129a443612240565b6001600160d01b039283806129b76123e7565b169116019283116106b85783926129cd91612544565b505061291956fec65a7bb8d6351c1cf70c95a316cc6a92839c986682d98bc35f958f4883f9d2a8a2646970667358221220d964d47e1533d3a4a09649b5ab59a41ff96ba585b34ae1e60a83a80042a0778b64736f6c63430008140033c65a7bb8d6351c1cf70c95a316cc6a92839c986682d98bc35f958f4883f9d2a8dec2bacdd2f05b59de34da9b523dff8be42e5e38e818c82fdb0bae774387a724a26469706673582212206b88084059afa7f76b9355d87d0696f95931eee6c8d044005fb8481f5c5e680e64736f6c63430008140033",
  "linkReferences": {},
  "deployedLinkReferences": {}
}