{
  "_format": "hh-sol-artifact-1",
  "contractName": "AgentLaunchpad",
  "sourceName": "contracts/AgentLaunchpad.sol",
  "abi": [
    {
      "inputs": [
        {
          "internalType": "address",
          "name": "_treasuryAddress",
          "type": "address"
        },
        {
          "internalType": "address",
          "name": "_uniswapRouter",
          "type": "address"
        }
      ],
      "stateMutability": "nonpayable",
      "type": "constructor"
    },
    {
      "inputs": [],
      "name": "AgentAlreadyBonded",
      "type": "error"
    },
    {
      "inputs": [],
      "name": "AgentNotFound",
      "type": "error"
    },
    {
      "inputs": [],
      "name": "FundingTargetExceeded",
      "type": "error"
    },
    {
      "inputs": [],
      "name": "FundingTargetNotMet",
      "type": "error"
    },
    {
      "inputs": [],
      "name": "InvalidAddress",
      "type": "error"
    },
    {
      "inputs": [
        {
          "internalType": "address",
          "name": "owner",
          "type": "address"
        }
      ],
      "name": "OwnableInvalidOwner",
      "type": "error"
    },
    {
      "inputs": [
        {
          "internalType": "address",
          "name": "account",
          "type": "address"
        }
      ],
      "name": "OwnableUnauthorizedAccount",
      "type": "error"
    },
    {
      "inputs": [],
      "name": "ReentrancyGuardReentrantCall",
      "type": "error"
    },
    {
      "inputs": [],
      "name": "TransferFailed",
      "type": "error"
    },
    {
      "anonymous": false,
      "inputs": [
        {
          "indexed": true,
          "internalType": "uint256",
          "name": "agentId",
          "type": "uint256"
        },
        {
          "indexed": true,
          "internalType": "address",
          "name": "tokenAddress",
          "type": "address"
        },
        {
          "indexed": true,
          "internalType": "address",
          "name": "lpPairAddress",
          "type": "address"
        },
        {
          "indexed": false,
          "internalType": "string",
          "name": "agentConfigJSON",
          "type": "string"
        }
      ],
      "name": "AgentBonded",
      "type": "event"
    },
    {
      "anonymous": false,
      "inputs": [
        {
          "indexed": true,
          "internalType": "uint256",
          "name": "agentId",
          "type": "uint256"
        },
        {
          "indexed": true,
          "internalType": "address",
          "name": "creator",
          "type": "address"
        },
        {
          "indexed": false,
          "internalType": "address",
          "name": "tokenAddress",
          "type": "address"
        },
        {
          "indexed": false,
          "internalType": "string",
          "name": "agentName",
          "type": "string"
        },
        {
          "indexed": false,
          "internalType": "string",
          "name": "agentConfigJSON",
          "type": "string"
        }
      ],
      "name": "AgentCreated",
      "type": "event"
    },
    {
      "anonymous": false,
      "inputs": [
        {
          "indexed": true,
          "internalType": "uint256",
          "name": "agentId",
          "type": "uint256"
        },
        {
          "indexed": true,
          "internalType": "address",
          "name": "contributor",
          "type": "address"
        },
        {
          "indexed": false,
          "internalType": "uint256",
          "name": "amount",
          "type": "uint256"
        },
        {
          "indexed": false,
          "internalType": "uint256",
          "name": "totalRaised",
          "type": "uint256"
        }
      ],
      "name": "Contributed",
      "type": "event"
    },
    {
      "anonymous": false,
      "inputs": [
        {
          "indexed": true,
          "internalType": "address",
          "name": "previousOwner",
          "type": "address"
        },
        {
          "indexed": true,
          "internalType": "address",
          "name": "newOwner",
          "type": "address"
        }
      ],
      "name": "OwnershipTransferred",
      "type": "event"
    },
    {
      "inputs": [],
      "name": "BASIS_POINTS",
      "outputs": [
        {
          "internalType": "uint256",
          "name": "",
          "type": "uint256"
        }
      ],
      "stateMutability": "view",
      "type": "function"
    },
    {
      "inputs": [],
      "name": "MAX_FEE",
      "outputs": [
        {
          "internalType": "uint256",
          "name": "",
          "type": "uint256"
        }
      ],
      "stateMutability": "view",
      "type": "function"
    },
    {
      "inputs": [
        {
          "internalType": "uint256",
          "name": "",
          "type": "uint256"
        }
      ],
      "name": "agents",
      "outputs": [
        {
          "internalType": "string",
          "name": "name",
          "type": "string"
        },
        {
          "internalType": "string",
          "name": "symbol",
          "type": "string"
        },
        {
          "internalType": "string",
          "name": "agentName",
          "type": "string"
        },
        {
          "internalType": "uint256",
          "name": "fundingTarget",
          "type": "uint256"
        },
        {
          "internalType": "uint256",
          "name": "tokenSupply",
          "type": "uint256"
        },
        {
          "internalType": "address",
          "name": "creator",
          "type": "address"
        },
        {
          "internalType": "bool",
          "name": "isBonded",
          "type": "bool"
        },
        {
          "internalType": "uint256",
          "name": "totalRaised",
          "type": "uint256"
        },
        {
          "internalType": "address",
          "name": "tokenAddress",
          "type": "address"
        },
        {
          "internalType": "address",
          "name": "lpPairAddress",
          "type": "address"
        },
        {
          "internalType": "string",
          "name": "agentConfigJSON",
          "type": "string"
        }
      ],
      "stateMutability": "view",
      "type": "function"
    },
    {
      "inputs": [
        {
          "internalType": "uint256",
          "name": "agentId",
          "type": "uint256"
        }
      ],
      "name": "bondAgent",
      "outputs": [],
      "stateMutability": "nonpayable",
      "type": "function"
    },
    {
      "inputs": [
        {
          "internalType": "uint256",
          "name": "agentId",
          "type": "uint256"
        }
      ],
      "name": "contribute",
      "outputs": [],
      "stateMutability": "payable",
      "type": "function"
    },
    {
      "inputs": [
        {
          "internalType": "uint256",
          "name": "",
          "type": "uint256"
        },
        {
          "internalType": "address",
          "name": "",
          "type": "address"
        }
      ],
      "name": "contributions",
      "outputs": [
        {
          "internalType": "uint256",
          "name": "",
          "type": "uint256"
        }
      ],
      "stateMutability": "view",
      "type": "function"
    },
    {
      "inputs": [
        {
          "internalType": "string",
          "name": "name",
          "type": "string"
        },
        {
          "internalType": "string",
          "name": "symbol",
          "type": "string"
        },
        {
          "internalType": "string",
          "name": "agentName",
          "type": "string"
        },
        {
          "internalType": "string",
          "name": "archetype",
          "type": "string"
        },
        {
          "internalType": "string",
          "name": "metadataURI",
          "type": "string"
        },
        {
          "internalType": "uint256",
          "name": "fundingTarget",
          "type": "uint256"
        },
        {
          "internalType": "uint256",
          "name": "tokenSupply",
          "type": "uint256"
        },
        {
          "internalType": "string",
          "name": "agentConfigJSON",
          "type": "string"
        }
      ],
      "name": "createAgent",
      "outputs": [
        {
          "internalType": "uint256",
          "name": "agentId",
          "type": "uint256"
        }
      ],
      "stateMutability": "nonpayable",
      "type": "function"
    },
    {
      "inputs": [],
      "name": "defaultLiquidityPercentage",
      "outputs": [
        {
          "internalType": "uint256",
          "name": "",
          "type": "uint256"
        }
      ],
      "stateMutability": "view",
      "type": "function"
    },
    {
      "inputs": [],
      "name": "defaultTokenLPPercentage",
      "outputs": [
        {
          "internalType": "uint256",
          "name": "",
          "type": "uint256"
        }
      ],
      "stateMutability": "view",
      "type": "function"
    },
    {
      "inputs": [],
      "name": "emergencyWithdraw",
      "outputs": [],
      "stateMutability": "nonpayable",
      "type": "function"
    },
    {
      "inputs": [
        {
          "internalType": "uint256",
          "name": "agentId",
          "type": "uint256"
        }
      ],
      "name": "getAgentConfigJSON",
      "outputs": [
        {
          "internalType": "string",
          "name": "",
          "type": "string"
        }
      ],
      "stateMutability": "view",
      "type": "function"
    },
    {
      "inputs": [
        {
          "internalType": "uint256",
          "name": "agentId",
          "type": "uint256"
        }
      ],
      "name": "getAgentInfo",
      "outputs": [
        {
          "internalType": "string",
          "name": "name",
          "type": "string"
        },
        {
          "internalType": "string",
          "name": "agentName",
          "type": "string"
        },
        {
          "internalType": "uint256",
          "name": "fundingTarget",
          "type": "uint256"
        },
        {
          "internalType": "uint256",
          "name": "totalRaised",
          "type": "uint256"
        },
        {
          "internalType": "bool",
          "name": "isBonded",
          "type": "bool"
        },
        {
          "internalType": "address",
          "name": "creator",
          "type": "address"
        },
        {
          "internalType": "address",
          "name": "tokenAddress",
          "type": "address"
        },
        {
          "internalType": "string",
          "name": "agentConfigJSON",
          "type": "string"
        }
      ],
      "stateMutability": "view",
      "type": "function"
    },
    {
      "inputs": [
        {
          "internalType": "uint256",
          "name": "agentId",
          "type": "uint256"
        },
        {
          "internalType": "address",
          "name": "contributor",
          "type": "address"
        }
      ],
      "name": "getContribution",
      "outputs": [
        {
          "internalType": "uint256",
          "name": "",
          "type": "uint256"
        }
      ],
      "stateMutability": "view",
      "type": "function"
    },
    {
      "inputs": [],
      "name": "getCurrentAgentId",
      "outputs": [
        {
          "internalType": "uint256",
          "name": "",
          "type": "uint256"
        }
      ],
      "stateMutability": "view",
      "type": "function"
    },
    {
      "inputs": [
        {
          "internalType": "uint256",
          "name": "agentId",
          "type": "uint256"
        }
      ],
      "name": "getLiquidityPool",
      "outputs": [
        {
          "internalType": "address",
          "name": "",
          "type": "address"
        }
      ],
      "stateMutability": "view",
      "type": "function"
    },
    {
      "inputs": [
        {
          "internalType": "uint256",
          "name": "agentId",
          "type": "uint256"
        }
      ],
      "name": "isAgentBonded",
      "outputs": [
        {
          "internalType": "bool",
          "name": "",
          "type": "bool"
        }
      ],
      "stateMutability": "view",
      "type": "function"
    },
    {
      "inputs": [],
      "name": "owner",
      "outputs": [
        {
          "internalType": "address",
          "name": "",
          "type": "address"
        }
      ],
      "stateMutability": "view",
      "type": "function"
    },
    {
      "inputs": [],
      "name": "protocolFeePercentage",
      "outputs": [
        {
          "internalType": "uint256",
          "name": "",
          "type": "uint256"
        }
      ],
      "stateMutability": "view",
      "type": "function"
    },
    {
      "inputs": [],
      "name": "renounceOwnership",
      "outputs": [],
      "stateMutability": "nonpayable",
      "type": "function"
    },
    {
      "inputs": [
        {
          "internalType": "uint256",
          "name": "_feePercentage",
          "type": "uint256"
        }
      ],
      "name": "setProtocolFeePercentage",
      "outputs": [],
      "stateMutability": "nonpayable",
      "type": "function"
    },
    {
      "inputs": [
        {
          "internalType": "address",
          "name": "_treasuryAddress",
          "type": "address"
        }
      ],
      "name": "setTreasuryAddress",
      "outputs": [],
      "stateMutability": "nonpayable",
      "type": "function"
    },
    {
      "inputs": [
        {
          "internalType": "address",
          "name": "newOwner",
          "type": "address"
        }
      ],
      "name": "transferOwnership",
      "outputs": [],
      "stateMutability": "nonpayable",
      "type": "function"
    },
    {
      "inputs": [],
      "name": "treasuryAddress",
      "outputs": [
        {
          "internalType": "address",
          "name": "",
          "type": "address"
        }
      ],
      "stateMutability": "view",
      "type": "function"
    },
    {
      "inputs": [],
      "name": "uniswapRouter",
      "outputs": [
        {
          "internalType": "address",
          "name": "",
          "type": "address"
        }
      ],
      "stateMutability": "view",
      "type": "function"
    },
    {
      "stateMutability": "payable",
      "type": "receive"
    }
  ],
  "bytecode": "0x6080346200012a57601f6200610d38819003918201601f19168301916001600160401b038311848410176200012f5780849260409485528339810103126200012a576200005a6020620000528362000145565b920162000145565b90331562000111576000549160018060a01b03199233848216176000556040519060018060a01b03938491823391167f8be0079c531659141344cd1fd0a4f28419497f9722a3daafe3b4186f6b6457e0600080a36001805561012c600755611f408060085560095516908115801562000106575b620000f7575083600554161760055516906006541617600655604051615fb290816200015b8239f35b63e6c4247b60e01b8152600490fd5b5083831615620000ce565b604051631e4fbdf760e01b815260006004820152602490fd5b600080fd5b634e487b7160e01b600052604160045260246000fd5b51906001600160a01b03821682036200012a5756fe60808060405260043610156200001f575b5036156200001d57600080fd5b005b60003560e01c9081628c550414620013565750806319a6a6e9146200127b5780633d891f59146200020c578063513856c8146200116e5780636605bfda146200110f578063715018a614620010c3578063735de9f71462001098578063754c5e89146200068d578063842e72e5146200062a5780638da5cb5b14620005ff5780638e50e50914620005df578063a74498aa14620005a6578063b4f685e1146200052a578063ba39a1c514620004f1578063bc063e1a14620004d2578063bfd1769e14620004b2578063c1cbbca71462000340578063c5f956af1462000315578063d8a5e93614620002b2578063db2e21bc1462000258578063e081dbf9146200020c578063e1f1c4a714620001ed578063e379dcaf14620001cd5763f2fde38b146200014c573862000010565b34620001c8576020366003190112620001c85762000169620013cc565b6200017362001526565b6001600160a01b03908116908115620001af576000548260018060a01b03198216176000551660008051602062005f66833981519152600080a3005b604051631e4fbdf760e01b815260006004820152602490fd5b600080fd5b34620001c8576000366003190112620001c8576020600854604051908152f35b34620001c8576000366003190112620001c85760206040516127108152f35b34620001c8576040366003190112620001c85762000229620013b5565b600435600052600460205260406000209060018060a01b03166000526020526020604060002054604051908152f35b34620001c8576000366003190112620001c8576200027562001526565b6000805481908190819047906001600160a01b0316828215620002a8575bf1156200029c57005b6040513d6000823e3d90fd5b506108fc62000293565b34620001c8576020366003190112620001c857600435620002d262001526565b6103e88111620002e157600755005b60405162461bcd60e51b815260206004820152600c60248201526b08ccaca40e8dede40d0d2ced60a31b6044820152606490fd5b34620001c8576000366003190112620001c8576005546040516001600160a01b039091168152602090f35b602080600319360112620001c857600435906200035c620015da565b6000828152600382526040902060058101546001600160a01b03811615620004a05760a01c60ff166200048e5734156200044b5760068101916003620003a4348554620015cc565b9201918254106200043957836000526004815260406000203360005281526040600020620003d4348254620015cc565b9055620003e3348454620015cc565b8093558260405191348352820152837fdcfa71ee125a676f843733d9d39dce2c918ecf9e92f96db4f24bdb5244ed68a060403393a354111562000427575b60018055005b62000432906200168a565b8062000421565b604051637e49436360e01b8152600490fd5b60405162461bcd60e51b815260048101839052601b60248201527a04d75737420636f6e74726962757465206d6f7265207468616e203602c1b6044820152606490fd5b604051636005a7a160e11b8152600490fd5b60405163e93ba22360e01b8152600490fd5b34620001c8576000366003190112620001c8576020600954604051908152f35b34620001c8576000366003190112620001c85760206040516103e88152f35b34620001c8576020366003190112620001c8576004356000526003602052602060ff60056040600020015460a01c166040519015158152f35b34620001c8576020366003190112620001c8576004356200054a620015da565b60008181526003602052604090206005810154906001600160a01b03821615620004a0576003600682015491015411620005945760a01c60ff166200048e5762000421906200168a565b60405163040b16cf60e01b8152600490fd5b34620001c8576020366003190112620001c8576004356000526003602052602060018060a01b0360086040600020015416604051908152f35b34620001c8576000366003190112620001c8576020600754604051908152f35b34620001c8576000366003190112620001c8576000546040516001600160a01b039091168152602090f35b34620001c8576020366003190112620001c857600435600090815260036020526040902060058101546001600160a01b031615620004a05762000674600962000689920162001444565b60405191829160208352602083019062001373565b0390f35b34620001c857610100366003190112620001c8576004356001600160401b038111620001c857620006c3903690600401620014f6565b906024356001600160401b038111620001c857620006e6903690600401620014f6565b92906044356001600160401b038111620001c8576200070a903690600401620014f6565b9490916064356001600160401b038111620001c8576200072f903690600401620014f6565b90959094906084356001600160401b038111620001c85762000756903690600401620014f6565b939060e4356001600160401b038111620001c8576200077a903690600401620014f6565b95909860a435156200105a5760c435156200101e57851562000fea57871562000fb457861562000f73576002549a6000198c1462000f5d5760018c01600255604051936001600160401b0361427b86019081119086111762000cc95784936200085f8f936200089d95620008488f8f97620008318f8f9a8f6200081a8f939d620008769e61427b62001ccb873961010061427b8701818152019162001553565b92602061427b820185039161427b01015262001553565b9161427b8c01830360408d61427b01015262001553565b9161427b89018303606061427b8b01015262001553565b9161427b86018303608061427b8801015262001553565b60c43561427b840160a08101919091523060c082015280820360e090910152878b62001553565b03906000f09485156200029c57604051936001600160401b0361016086019081119086111762000cc957620008eb93620008e1916101608701604052369162001590565b8452369162001590565b6020820152620008fd36888662001590565b604082015260a435606082015260c43560808201523360a0820152600060c0820181905260e082018190526001600160a01b0384166101008301526101208201526200094b36838762001590565b610140820152600086815260036020526040902081518051919291906001600160401b03821162000cc9578190620009848554620013e3565b601f811162000f08575b50602090601f831160011462000e975760009262000e8b575b50508160011b916000199060031b1c19161782555b60208101518051906001600160401b03821162000cc9578190620009e46001860154620013e3565b601f811162000e33575b50602090601f831160011462000dbc5760009262000db0575b50508160011b916000199060031b1c19161760018301555b60408101518051906001600160401b03821162000cc95762000a456002850154620013e3565b601f811162000d64575b50602090601f831160011462000ceb576101409392916000918362000cdf575b50508160011b916000199060031b1c19161760028401555b606081015160038401556080810151600484015560a08082015160058501805460c08501516001600160a81b03199091166001600160a01b039384161790151590931b60ff60a01b169290921790915560e082015160068501556101008201516007850180546001600160a01b0319908116928416929092179055610120830151600886018054909216921691909117905501518051906001600160401b03821162000cc95762000b3c6009840154620013e3565b601f811162000c7d575b509160209893918895938a90601f831160011462000be8579260098362000bc09460008051602062005f468339815191529a9b9462000bd1989760009262000bdc575b50508160011b916000199060031b1c1916179101555b60405195869560018060a01b0316865260608c870152606086019162001553565b908382036040850152339762001553565b0390a3604051908152f35b015190508f8062000b89565b97929190600983016000528b6000209860005b601f198416811062000c62575060018360008051602062005f468339815191529a9b62000bc0969460099462000bd19a9997601f1981161062000c48575b505050811b0191015562000b9f565b015160001960f88460031b161c191690558f808062000c39565b828201518b556001909a01998c9950918d01918d0162000bfb565b600984016000526020600020601f840160051c81016020851062000cc1575b601f830160051c8201811062000cb457505062000b46565b6000815560010162000c9c565b508062000c9c565b634e487b7160e01b600052604160045260246000fd5b015190508b8062000a6f565b906002850160005260206000209160005b601f198516811062000d4b57509183916001936101409695601f1981161062000d31575b505050811b01600284015562000a87565b015160001960f88460031b161c191690558b808062000d20565b9192602060018192868501518155019401920162000cfc565b600285016000526020600020601f840160051c81016020851062000da8575b601f830160051c8201811062000d9b57505062000a4f565b6000815560010162000d83565b508062000d83565b015190508a8062000a07565b9250600185016000526020600020906000935b601f198416851062000e17576001945083601f1981161062000dfd575b505050811b01600183015562000a1f565b015160001960f88460031b161c191690558a808062000dec565b8181015183556020948501946001909301929091019062000dcf565b909150600185016000526020600020601f840160051c81016020851062000e83575b90849392915b601f830160051c8201811062000e73575050620009ee565b6000815585945060010162000e5b565b508062000e55565b015190508a80620009a7565b9250846000526020600020906000935b601f198416851062000eec576001945083601f1981161062000ed2575b505050811b018255620009bc565b015160001960f88460031b161c191690558a808062000ec4565b8181015183556020948501946001909301929091019062000ea7565b909150846000526020600020601f840160051c81016020851062000f55575b90849392915b601f830160051c8201811062000f455750506200098e565b6000815585945060010162000f2d565b508062000f27565b634e487b7160e01b600052601160045260246000fd5b60405162461bcd60e51b815260206004820152601960248201527824b73b30b634b21030b3b2b73a1031b7b73334b3902529a7a760391b6044820152606490fd5b60405162461bcd60e51b815260206004820152600e60248201526d125b9d985b1a59081cde5b589bdb60921b6044820152606490fd5b60405162461bcd60e51b815260206004820152600c60248201526b496e76616c6964206e616d6560a01b6044820152606490fd5b60405162461bcd60e51b8152602060048201526014602482015273496e76616c696420746f6b656e20737570706c7960601b6044820152606490fd5b60405162461bcd60e51b8152602060048201526016602482015275125b9d985b1a5908199d5b991a5b99c81d185c99d95d60521b6044820152606490fd5b34620001c8576000366003190112620001c8576006546040516001600160a01b039091168152602090f35b34620001c8576000366003190112620001c857620010e062001526565b600080546001600160a01b0319811682556001600160a01b031660008051602062005f668339815191528280a3005b34620001c8576020366003190112620001c8576200112c620013cc565b6200113662001526565b6001600160a01b031680156200115c57600580546001600160a01b031916919091179055005b60405163e6c4247b60e01b8152600490fd5b34620001c8576020366003190112620001c857600435600052600360205260406000206200119c8162001444565b620011aa6001830162001444565b91620011b96002820162001444565b9060038101549060048101546005820154600683015490600160a01b6001900380600786015416938160088701541695600901620011f79062001444565b976040519a8b9a610160808d528c01620012119162001373565b8b810360208d0152620012249162001373565b8a810360408c0152620012379162001373565b9660608a01526080890152811660a088015260a01c60ff16151560c087015260e0860152610100850152610120840152828103610140840152620006899162001373565b34620001c8576020366003190112620001c857600435600090815260036020526040902060058101546001600160a01b03908181168015620004a0578362000689926003620013199601549260ff60068401549660078501541692620012e18562001444565b9762001328620013026009620012fa60028a0162001444565b980162001444565b966040519b8c9b8c6101008091528d019062001373565b908b820360208d015262001373565b9660408a0152606089015260a01c161515608087015260a086015260c085015283820360e085015262001373565b34620001c8576000366003190112620001c8576020906002548152f35b919082519283825260005b848110620013a0575050826000602080949584010152601f8019910116010190565b6020818301810151848301820152016200137e565b602435906001600160a01b0382168203620001c857565b600435906001600160a01b0382168203620001c857565b90600182811c9216801562001415575b6020831014620013ff57565b634e487b7160e01b600052602260045260246000fd5b91607f1691620013f3565b601f909101601f19168101906001600160401b0382119082101762000cc957604052565b90604051918260008254926200145a84620013e3565b908184526001948581169081600014620014d157506001146200148a575b5050620014889250038362001420565b565b9093915060005260209081600020936000915b818310620014b8575050620014889350820101388062001478565b855488840185015294850194879450918301916200149d565b9150506200148894506020925060ff191682840152151560051b820101388062001478565b9181601f84011215620001c8578235916001600160401b038311620001c85760208381860195010111620001c857565b6000546001600160a01b031633036200153b57565b60405163118cdaa760e01b8152336004820152602490fd5b908060209392818452848401376000828201840152601f01601f1916010190565b6001600160401b03811162000cc957601f01601f191660200190565b9291926200159e8262001574565b91620015ae604051938462001420565b829481845281830111620001c8578281602093846000960137010152565b9190820180921162000f5d57565b600260015414620015ec576002600155565b604051633ee5aeb560e01b8152600490fd5b8181029291811591840414171562000f5d57565b9190820391821162000f5d57565b3d1562001650573d90620016348262001574565b9162001644604051938462001420565b82523d6000602084013e565b606090565b90816020910312620001c857518015158103620001c85790565b6001600160a01b039091168152602081019190915260400190565b60009080825260209060038252604091620016ef83852093600685015490866127109283620016bc60075483620015fe565b049481620016e986620016df620016d58a809762001612565b60085490620015fe565b0497889262001612565b62001612565b60058901805460ff60a01b1916600160a01b178155918062001c21575b508062001bb6575b50506006546001600160a01b03949193919085169081620018af575b505062001753906004880154906200174b60095483620015fe565b049062001612565b620017838560078901928684541687600554168c875180968195829463a9059cbb60e01b8452600484016200166f565b03925af18015620018a55791859160099362001871575b505416960181519480865288825490620017b482620013e3565b9384848a015260019283811690816000146200183f5750600114620017f5575b50505050505091809160008051602062005f868339815191529316950390a4565b908095969b50528184205b8385106200182b5750505050830101948160008051602062005f8683398151915284388080620017d4565b805488860187015293820193810162001800565b60ff1916878b01525050505050151560051b84010195508160008051602062005f8683398151915284388080620017d4565b6200189590883d8a116200189d575b6200188c818362001420565b81019062001655565b50386200179a565b503d62001880565b83513d8b823e3d90fd5b878a5260038752838a20600781018054865163c45a015560e01b8152600498509089169491939291908a818a81855afa90811562001b88578a8f928d928c979695949162001b94575b50169189519a8b80926315ab88c960e31b82525afa98891562001b88578e9962001b64575b50875163e6a4390560e01b8152988b8a806200193d848b8a840162001cb0565b0381855afa998a1562001b5857918f92918d9492849c62001b34575b508c8c161562001aab575b505090876200197f86620019a49594015460095490620015fe565b049687918c60065416908b5180968195829463095ea7b360e01b84528b84016200166f565b03925af1801562001aa15762001a7f575b508780600654169354169261012c420180421162001a6c5791606094939160c4938951978896879563f305d71960e01b8752860152806024860152604485015282606485015230608485015260a48401525af18015620018a55762001a37575b506008870180546001600160a01b031916858516179055620017533862001730565b606090813d811162001a64575b62001a50818362001420565b8101031262001a60573862001a15565b8780fd5b503d62001a44565b634e487b7160e01b8e526011845260248efd5b62001a99908a3d8c116200189d576200188c818362001420565b5038620019b5565b87513d8f823e3d90fd5b62001ad1929b508a949394519485809481936364e329cb60e11b83528c8b840162001cb0565b03925af190811562001aa1578d876200197f86620019a4958f95859162001b00575b509c939495505062001964565b62001b259150863d881162001b2c575b62001b1c818362001420565b81019062001c8f565b3862001af3565b503d62001b10565b62001b50919c50853d871162001b2c5762001b1c818362001420565b9a3862001959565b8f8a51903d90823e3d90fd5b62001b809199508b3d8d1162001b2c5762001b1c818362001420565b97386200191d565b8e8951903d90823e3d90fd5b62001baf9150833d851162001b2c5762001b1c818362001420565b38620018f8565b9054829182918291906001600160a01b03165af162001bd462001620565b501562001be45786388062001714565b5162461bcd60e51b815260048101849052601760248201527610dc99585d1bdc881d1c985b9cd9995c8819985a5b1959604a1b6044820152606490fd5b9280808093949560018060a01b03600554165af162001c3f62001620565b501562001c5057908891386200170c565b825162461bcd60e51b8152600481018790526018602482015277151c99585cdd5c9e481d1c985b9cd9995c8819985a5b195960421b6044820152606490fd5b90816020910312620001c857516001600160a01b0381168103620001c85790565b6001600160a01b039182168152911660208201526040019056fe610160806040523462000142576200427b90813803809262000021826200015d565b823981810190610100809312620001425780516001600160401b03929083811162000142578162000054918401620001db565b91610180518481116200014257826200006f918301620001db565b6101a05185811162000142578362000089918401620001db565b6101c051868111620001425784620000a3918501620001db565b906101e051878111620001425785620000be918601620001db565b926102005194620000ce62000241565b9661024051998a116200014257620000f399620000ec9201620001db565b9662000a1d565b604051612b3e91826200171d833960805182611ffb015260a051826120b6015260c05182611fc5015260e0518261204a0152518161207001526101205181610e4b01526101405181610e740152f35b600080fd5b634e487b7160e01b600052604160045260246000fd5b601f01601f1916610160908101906001600160401b038211908210176200018357604052565b62000147565b604081019081106001600160401b038211176200018357604052565b60405190620001b48262000189565b565b60005b838110620001ca5750506000910152565b8181015183820152602001620001b9565b81601f82011215620001425780516001600160401b0392838211620001835760405193601f8301601f19908116603f011685019081118582101762000183576040528184526020828401011162000142576200023e9160208085019101620001b6565b90565b61022051906001600160a01b03821682036200014257565b90600182811c921680156200028b575b60208310146200027557565b634e487b7160e01b600052602260045260246000fd5b91607f169162000269565b601f8111620002a3575050565b6000906003825260208220906020601f850160051c83019410620002e4575b601f0160051c01915b828110620002d857505050565b818155600101620002cb565b9092508290620002c2565b601f8111620002fc575050565b6000906004825260208220906020601f850160051c830194106200033d575b601f0160051c01915b8281106200033157505050565b81815560010162000324565b90925082906200031b565b601f811162000355575050565b600090600d825260208220906020601f850160051c8301941062000396575b601f0160051c01915b8281106200038a57505050565b8181556001016200037d565b909250829062000374565b601f8111620003ae575050565b600090600e825260208220906020601f850160051c83019410620003ef575b601f0160051c01915b828110620003e357505050565b818155600101620003d6565b9092508290620003cd565b601f811162000407575050565b600090600f825260208220906020601f850160051c8301941062000448575b601f0160051c01915b8281106200043c57505050565b8181556001016200042f565b909250829062000426565b601f811162000460575050565b6000906010825260208220906020601f850160051c83019410620004a1575b601f0160051c01915b8281106200049557505050565b81815560010162000488565b90925082906200047f565b601f8111620004b9575050565b6000906005825260208220906020601f850160051c83019410620004fa575b601f0160051c01915b828110620004ee57505050565b818155600101620004e1565b9092508290620004d8565b601f811162000512575050565b6000906006825260208220906020601f850160051c8301941062000553575b601f0160051c01915b8281106200054757505050565b8181556001016200053a565b909250829062000531565b80519091906001600160401b03811162000183576200058a816200058460045462000259565b620002ef565b602080601f8311600114620005c95750819293600092620005bd575b50508160011b916000199060031b1c191617600455565b015190503880620005a6565b6004600052601f198316949091907f8a35acfbc15ff81a39ae7d344fd709f28e8600b4aa8c65c6b64bfe7fe36bd19b926000905b878210620006385750508360019596106200061e575b505050811b01600455565b015160001960f88460031b161c1916905538808062000613565b80600185968294968601518155019501930190620005fd565b80519091906001600160401b03811162000183576200067d8162000677600d5462000259565b62000348565b602080601f8311600114620006bc5750819293600092620006b0575b50508160011b916000199060031b1c191617600d55565b01519050388062000699565b600d600052601f198316949091907fd7b6990105719101dabeb77144f2a3385c8033acd3af97e9423a695e81ad1eb5926000905b8782106200072b57505083600195961062000711575b505050811b01600d55565b015160001960f88460031b161c1916905538808062000706565b80600185968294968601518155019501930190620006f0565b80519091906001600160401b038111620001835762000770816200076a600e5462000259565b620003a1565b602080601f8311600114620007af5750819293600092620007a3575b50508160011b916000199060031b1c191617600e55565b0151905038806200078c565b600e600052601f198316949091907fbb7b4a454dc3493923482f07822329ed19e8244eff582cc204f8554c3620c3fd926000905b8782106200081e57505083600195961062000804575b505050811b01600e55565b015160001960f88460031b161c19169055388080620007f9565b80600185968294968601518155019501930190620007e3565b80519091906001600160401b038111620001835762000863816200085d600f5462000259565b620003fa565b602080601f8311600114620008a2575081929360009262000896575b50508160011b916000199060031b1c191617600f55565b0151905038806200087f565b600f600052601f198316949091907f8d1108e10bcb7c27dddfc02ed9d693a074039d026cf4ea4240b40f7d581ac802926000905b87821062000911575050836001959610620008f7575b505050811b01600f55565b015160001960f88460031b161c19169055388080620008ec565b80600185968294968601518155019501930190620008d6565b80519091906001600160401b038111620001835762000956816200095060105462000259565b62000453565b602080601f831160011462000995575081929360009262000989575b50508160011b916000199060031b1c191617601055565b01519050388062000972565b6010600052601f198316949091907f1b6847dc741a1b0cd08d278845f9d819d87b734759afb55fe2de5cb82a9ae672926000905b87821062000a04575050836001959610620009ea575b505050811b01601055565b015160001960f88460031b161c19169055388080620009df565b80600185968294968601518155019501930190620009c9565b969192969493946040519062000a338262000189565b600180835260209081840194603160f81b8652835160018060401b038111620001835762000a6e8162000a6860035462000259565b62000296565b8392601f821160011462000b725781809162000aa49560009362000b66575b501b916000199060031b1c1916176003556200055e565b62000aaf8262001015565b6101205262000abe8362001125565b61014052815191012060e052519020610100524660a05262000adf620012a4565b6080523060c0526001600160a01b0385161562000b4d5762000b3962000b469462000b33620001b49862000b2d62000b3f9662000b1c8b62000bfe565b62000b276001600c55565b62000651565b62000744565b62000837565b6200092a565b8262000f27565b8062000c61565b604051631e4fbdf760e01b815260006004820152602490fd5b88015192503862000a8d565b60036000529192601f198216907fc2575a0e9e593c00f959f8c92f12db2869c3395a3b0502d05e2516446f71f85b9160005b8782821062000be9575050908362000aa496959493921062000bcf575b5050811b016003556200055e565b87015160001960f88460031b161c19169055388062000bc1565b89840151855593860193928301920162000ba4565b600b80546001600160a01b039283166001600160a01b0319821681179092559091167f8be0079c531659141344cd1fd0a4f28419497f9722a3daafe3b4186f6b6457e0600080a3565b6001600160a01b0316600090815260096020526040902090565b6001600160a01b0390811660008181526008602052604080822080548686166001600160a01b031982168117909255620001b4969516949391929185907f3134e8a2e6d97e929a7e54011ea5485d7d196dd5f0ba4d4ef95803e8e3fc257f8480a4806020522054915b6001600160a01b0380831693929190811690818514158062000e49575b62000cf4575b5050505050565b8162000d62575b50508262000d0c575b808062000ced565b6000805160206200425b8339815191529162000d3762000d3062000d3e9362000c47565b9162001310565b9062000e53565b604080516001600160d01b039384168152919092166020820152a238808062000d04565b62000d6d9062000c47565b62000d788462001310565b9065ffffffffffff9081431162000e2a57805460008162000de55750509062000dc29162000db86000805160206200425b833981519152946000620016e8565b914316906200153f565b604080516001600160d01b039384168152919092166020820152a2388062000cfb565b6000939291931994848681011162000e24576000805160206200425b8339815191529562000dc2956020848662000db896522001015460301c620016e8565b62000f11565b6040516306dfcc6560e41b815260306004820152436024820152604490fd5b5083151562000ce7565b65ffffffffffff9081431162000e2a57805460008162000e8457505062000db862000e8093600062001702565b9091565b9093600019858181011162000e245762000e80956020848662000db896522001015460301c62001702565b65ffffffffffff80431162000e2a57600a5460008162000ee557505062000edc62000e80926000620016e8565b90431662001445565b9092600019848181011162000e245762000e8094602084600a62000edc96522001015460301c620016e8565b634e487b7160e01b600052601160045260246000fd5b906001600160a01b038216801562000ffc5762000f5062000f4b83600254620016da565b600255565b6001600160a01b038316600090815260208181526040808320805486019055518481527fddf252ad1be2c89b69c2b068fc378daa952ba7f163c4a11628f55a4df523b3ef9190a36002546001600160d01b03811162000fd5575062000fb69082620015f9565b6015546001600160a01b03909116600090815260146020526040902055565b604051630e58ae9360e11b815260048101919091526001600160d01b036024820152604490fd5b60405163ec442f0560e01b815260006004820152602490fd5b908151602080821060001462001033575050906200023e9062001235565b6001600160401b03821162000183576200105a826200105460055462000259565b620004ac565b80601f83116001146200109a57508192936000926200108e575b50508160011b916000199060031b1c19161760055560ff90565b01519050388062001074565b6005600052601f198316949091907f036b6384b5eca791c62761152d0c79bb0604c104a5fb6f4eb0703f3154bb3db0926000905b8782106200110c575050836001959610620010f2575b505050811b0160055560ff90565b015160001960f88460031b161c19169055388080620010e4565b80600185968294968601518155019501930190620010ce565b908151602080821060001462001143575050906200023e9062001235565b6001600160401b03821162000183576200116a826200116460065462000259565b62000505565b80601f8311600114620011aa57508192936000926200119e575b50508160011b916000199060031b1c19161760065560ff90565b01519050388062001184565b6006600052601f198316949091907ff652222313e28459528d920b65115c16c04f3efc82aaedc97be59f3f377c0d3f926000905b8782106200121c57505083600195961062001202575b505050811b0160065560ff90565b015160001960f88460031b161c19169055388080620011f4565b80600185968294968601518155019501930190620011de565b601f8151116200126357602081519101516020821062001253571790565b6000198260200360031b1b161790565b6044604051809263305a27a960e01b825260206004830152620012968151809281602486015260208686019101620001b6565b601f01601f19168101030190fd5b60e051610100516040519060208201927f8b73c3c69bb8fe3d512ecc4cf759cc79239f7b179b0ffacaa9a75d522b39400f8452604083015260608201524660808201523060a082015260a0815260c0810181811060018060401b03821117620001835760405251902090565b6001600160d01b039081811162001325571690565b604490604051906306dfcc6560e41b825260d060048301526024820152fd5b60001981019190821162000e2457565b9065ffffffffffff82549181199060301b169116179055565b600a54906801000000000000000082101562000183576001820180600a55821015620013d057620001b491600a6000526020600020019065ffffffffffff81511665ffffffffffff19835416178255602060018060d01b03910151169062001354565b634e487b7160e01b600052603260045260246000fd5b90815468010000000000000000811015620001835760018101808455811015620013d057620001b4926000526020600020019065ffffffffffff81511665ffffffffffff19835416178255602060018060d01b03910151169062001354565b600a5491929180156200151057620014616200148b9162001344565b600a6000527fc65a7bb8d6351c1cf70c95a316cc6a92839c986682d98bc35f958f4883f9d2a80190565b9081549165ffffffffffff90818416918316808311620014fe57869203620014c057620014b9925062001354565b60301c9190565b5050620014f890620014e3620014d5620001a5565b65ffffffffffff9092168252565b6001600160d01b03851660208201526200136d565b620014b9565b604051632520601d60e01b8152600490fd5b50620015399062001524620014d5620001a5565b6001600160d01b03841660208201526200136d565b60009190565b80549293928015620015cf576200155a620015679162001344565b8260005260206000200190565b9182549265ffffffffffff91828516928116808411620014fe57879303620015965750620014b9925062001354565b915050620014f891620015ba620015ac620001a5565b65ffffffffffff9093168352565b6001600160d01b0386166020830152620013e6565b50906200153991620015e4620015ac620001a5565b6001600160d01b0385166020830152620013e6565b90620016058162001310565b9165ffffffffffff80431162000e2a57600a54600081620016a7575050620016389062000edc620001b495600062001702565b50506001600160a01b039081169081156200168a575b60086020527f5eff886ea0ce6ca488a3d6e336d6c0f75f46d19b42c06ce5ee98e42c96d256c75460009283526040909220548116911662000cca565b6200169f620016998462001310565b62000eaf565b50506200164e565b60009291921995838781011162000e2457620001b4966200163894602084600a62000edc96522001015460301c62001702565b9190820180921162000e2457565b6001600160d01b039182169082160390811162000e245790565b6001600160d01b039182169082160190811162000e24579056fe6080604052600436101561001257600080fd5b60003560e01c806303ee438c146102e257806306fdde03146102dd578063084278ec146102d8578063095ea7b3146102d35780630e4b2285146102ce578063139ba769146102c957806318160ddd146102c45780631f454923146102bf57806323b872dd146102ba578063313ce567146102b55780633644e515146102b05780633a46b1a8146102ab5780633c19804e146102a657806344e43cb8146102a15780634bf5d7e91461029c5780634eea6d79146102975780634f4dac6f14610242578063564f4f7614610292578063587cde1e1461028d5780635c19a95c146102885780636fcfff451461028357806370a082311461027e578063715018a614610279578063750521f5146102745780637ecebe001461026f57806381a2b38f1461026a57806384b0196e14610265578063881e1cff146102605780638b7afe2e1461025b5780638da5cb5b146102565780638e539e8c1461025157806391ddadf41461024c57806395d89b41146102475780639a6f99f9146102425780639ab24eb01461023d578063a9059cbb14610238578063b20a6f3614610233578063bf2d9e0b1461022e578063c3cda52014610229578063d505accf14610224578063d5f6aeb41461021f578063db2e21bc1461021a578063dd62ed3e14610215578063f1127ed8146102105763f2fde38b1461020b57600080fd5b6115f6565b611543565b6114f7565b6114ba565b611386565b611253565b61118a565b61114c565b61112e565b611108565b6110bf565b6109f9565b61109b565b61106f565b610fac565b610f83565b610f67565b610f28565b610e30565b610e0c565b610dd2565b610c93565b610bfd565b610bda565b610b72565b610b4e565b610b13565b610a1c565b61095d565b610847565b610776565b610752565b61066a565b610647565b61062b565b610588565b610509565b6104eb565b6104b1565b61040e565b6103dd565b610393565b61036f565b610327565b919082519283825260005b848110610313575050826000602080949584010152601f8019910116010190565b6020818301810151848301820152016102f2565b3461036a57600036600319011261036a576103666040516103528161034b8161198c565b038261171a565b6040519182916020835260208301906102e7565b0390f35b600080fd5b3461036a57600036600319011261036a576103666040516103528161034b81611a11565b3461036a57600036600319011261036a576020601554604051908152f35b600435906001600160a01b038216820361036a57565b602435906001600160a01b038216820361036a57565b3461036a57604036600319011261036a576104036103f96103b1565b6024359033611d2d565b602060405160018152f35b3461036a57600036600319011261036a576103666040516103528161034b81611a7b565b6001600160a01b0316600090815260146020526040902090565b6001600160a01b0316600090815260096020526040902090565b6001600160a01b0316600090815260208190526040902090565b6001600160a01b0316600090815260016020526040902090565b9060018060a01b0316600052602052604060002090565b3461036a57602036600319011261036a576001600160a01b036104d26103b1565b1660005260136020526020604060002054604051908152f35b3461036a57600036600319011261036a576020600254604051908152f35b3461036a57604036600319011261036a576105226103b1565b6024359081151580920361036a5760207f7390412ce304891b69b7a6d7722b373a8172b465ce957518d396801bc35e08729161055c61166c565b60018060a01b0316928360005260168252604060002060ff1981541660ff8316179055604051908152a2005b3461036a57606036600319011261036a576105a16103b1565b6105a96103c7565b6044359060018060a01b03831660005260016020526105cc33604060002061049a565b549260001984106105ee575b6105e29350611c3e565b60405160018152602090f35b82841061060a57610605836105e295033383611dbc565b6105d8565b604051637dc7a0d960e11b81528061062785873360048501611de0565b0390fd5b3461036a57600036600319011261036a57602060405160128152f35b3461036a57600036600319011261036a576020610662611fc2565b604051908152f35b3461036a57604036600319011261036a576001600160a01b0361068b6103b1565b166000908152600960205260408120906106a660243561174c565b918054829381600581116106f8575b50906020946106c492846127df565b806106de5750505b6040516001600160d01b039091168152f35b916106ea849293612319565b92815220015460301c6106cc565b9461070286612363565b860395861161074d576020956106c49385875265ffffffffffff80838a8a200154169085161060001461073b5750915b919250946106b5565b92915061074790612328565b90610732565b61193c565b3461036a57600036600319011261036a576103666040516103528161034b81611ae5565b600036600319011261036a573360009081526016602052604090205460ff161580610832575b61082057346107a757005b6107bb6107b634601154612336565b601155565b600254806107f5575b5060405134815233907ff3a9b3760e99454de4c494f7ed29f5204ab92febacb0acf52ea04ad4a9d2246690602090a2005b61081561080d61081a9261080834612910565b612343565b601554612336565b601555565b386107c4565b6040516318534d6360e21b8152600490fd5b50600b546001600160a01b031633141561079c565b3461036a57600036600319011261036a57610861436122e7565b65ffffffffffff80610872436122e7565b169116036108c757610366604051610889816116ae565b601d81527f6d6f64653d626c6f636b6e756d6265722666726f6d3d64656661756c7400000060208201526040519182916020835260208301906102e7565b6040516301bfc1c560e61b8152600490fd5b959794919361092061093c9461091261095a9c9a9761090461092e968c6101208091528d01906102e7565b908b820360208d01526102e7565b9089820360408b01526102e7565b9087820360608901526102e7565b9085820360808701526102e7565b9460a084015260c083015260e08201526101008184039101526102e7565b90565b3461036a57600036600319011261036a576040805161097f8161034b81611a11565b6103668251926109998461099281611b4f565b038561171a565b6002546011546012549183516109b28161034b81611ae5565b84516109c18161034b81611a7b565b8551916109d8836109d18161198c565b038461171a565b8651966109ef886109e881611bb9565b038961171a565b51998a998a6108d9565b3461036a57602036600319011261036a576020610662610a176103b1565b61296c565b3461036a57600080600319360112610b10576002600c5414610afe576002600c55610a463361296c565b8015610aec57336000908152601360205260409020610a66828254612336565b9055601554610a7433610432565b55610a89610a8482601254612336565b601255565b8180808084335af1610a9961292d565b5015610ada5760405190815233907fc15f451120b13b6b40c6ad6203614ab3088308bef9150c0d6f46ea79bf46422490602090a2610ad76001600c55565b80f35b6040516312171d8360e31b8152600490fd5b604051630150e2dd60e11b8152600490fd5b604051633ee5aeb560e01b8152600490fd5b80fd5b3461036a57602036600319011261036a5760206001600160a01b0380610b376103b1565b166000526008825260406000205416604051908152f35b3461036a57602036600319011261036a57610b70610b6a6103b1565b3361178d565b005b3461036a57602036600319011261036a576001600160a01b03610b936103b1565b16600052600960205260406000205463ffffffff90818111610bbb5760209160405191168152f35b604490604051906306dfcc6560e41b8252602060048301526024820152fd5b3461036a57602036600319011261036a576020610662610bf86103b1565b611c23565b3461036a57600080600319360112610b1057610c1761166c565b600b80546001600160a01b0319811690915581906001600160a01b0316600080516020612ab28339815191528280a380f35b90602060031983011261036a576001600160401b03916004359083821161036a578060238301121561036a57816004013593841161036a576024848301011161036a576024019190565b3461036a57610ca136610c49565b610ca961166c565b8015610dc0576001600160401b038111610dbb57610cd181610ccc600f54611952565b612840565b600091601f8211600114610d2c5781600080516020612ad283398151915293600091610d21575b508260011b906000198460031b1c191617600f555b610d1c604051928392836128e8565b0390a1005b905081013538610cf8565b600f6000527f8d1108e10bcb7c27dddfc02ed9d693a074039d026cf4ea4240b40f7d581ac802601f198316845b818110610da357509383600080516020612ad28339815191529510610d89575b5050600182811b01600f55610d0d565b820135600019600385901b60f8161c191690553880610d79565b83860135835560209586019560019093019201610d59565b611698565b604051630eec403f60e41b8152600490fd5b3461036a57602036600319011261036a576001600160a01b03610df36103b1565b1660005260076020526020604060002054604051908152f35b3461036a57600036600319011261036a576103666040516103528161034b81611bb9565b3461036a57600080600319360112610b1057610eda90610e6f7f0000000000000000000000000000000000000000000000000000000000000000612102565b610e987f00000000000000000000000000000000000000000000000000000000000000006121fa565b9160405191610ea6836116c9565b818352604051948594600f60f81b8652610ecc60209360e08589015260e08801906102e7565b9086820360408801526102e7565b904660608601523060808601528260a086015284820360c08601528080855193848152019401925b828110610f1157505050500390f35b835185528695509381019392810192600101610f02565b3461036a57602036600319011261036a576001600160a01b03610f496103b1565b166000526016602052602060ff604060002054166040519015158152f35b3461036a57600036600319011261036a57602047604051908152f35b3461036a57600036600319011261036a57600b546040516001600160a01b039091168152602090f35b3461036a57602036600319011261036a57610fc860043561174c565b600a54906000829160058411611014575b610fe39350612777565b600081610ff857505060405160008152602090f35b60206110048193612319565b91600a815220015460301c6106cc565b919261101f81612363565b810390811161074d57600a8252600080516020612a92833981519152810154610fe3949065ffffffffffff908116908516101561105d575091610fd9565b92915061106990612328565b90610fd9565b3461036a57600036600319011261036a57602061108b436122e7565b65ffffffffffff60405191168152f35b3461036a57600036600319011261036a576103666040516103528161034b81611b4f565b3461036a57602036600319011261036a576001600160a01b036110e06103b1565b166000526009602052602060018060d01b036110ff60406000206124c8565b16604051908152f35b3461036a57604036600319011261036a576104036111246103b1565b6024359033611c3e565b3461036a57600036600319011261036a576020601254604051908152f35b3461036a57600036600319011261036a576020601154604051908152f35b6064359060ff8216820361036a57565b6084359060ff8216820361036a57565b3461036a5760c036600319011261036a576111a36103b1565b604435906024356111b261116a565b83421161123a5761122e610b7094611235926040519060208201927fe48329057bfd03d55e49b547132e39cffd9c1820ad7b9d4c5307691425d15adf845260018060a01b0388166040840152866060840152608083015260808252611216826116e4565b61122960a43593608435935190206120dc565b611e77565b9182611e3a565b61178d565b604051632341d78760e11b815260048101859052602490fd5b3461036a5760e036600319011261036a5761126c6103b1565b6112746103c7565b6044359060643561128361117a565b81421161136d57906113056113269261131361129e88611e17565b604080517f6e71edae12b1b97f4d1f60370fef10105fa2faae0126114a169c64845d6126c9602082019081526001600160a01b03808d16938301939093529189166060820152608081018a905260a081019290925260c082019590955292839060e0820190565b03601f19810184528361171a565b61122960c4359360a435935190206120dc565b6001600160a01b03848116908216036113435750610b7092611d2d565b6040516325c0072360e11b81526001600160a01b0391821660048201529084166024820152604490fd5b60405163313c898160e11b815260048101839052602490fd5b3461036a5761139436610c49565b61139c61166c565b80156114a8576001600160401b038111610dbb576113c4816113bf601054611952565b612894565b600091601f82116001146114195781600080516020612af28339815191529360009161140e575b508260011b906000198460031b1c191617601055610d1c604051928392836128e8565b9050810135386113eb565b60106000527f1b6847dc741a1b0cd08d278845f9d819d87b734759afb55fe2de5cb82a9ae672601f198316845b81811061149057509383600080516020612af28339815191529510611476575b5050600182811b01601055610d0d565b820135600019600385901b60f8161c191690553880611466565b83860135835560209586019560019093019201611446565b604051633d9e4cad60e01b8152600490fd5b3461036a57600080600319360112610b10576114d461166c565b808080804760018060a01b03600b54165af16114ee61292d565b5015610ada5780f35b3461036a57604036600319011261036a57602061153a6115156103b1565b61151d6103c7565b6001600160a01b039091166000908152600184526040902061049a565b54604051908152f35b3461036a57604036600319011261036a5761155c6103b1565b6024359063ffffffff8216820361036a57610366916115ac9161157d611dfe565b50611586611dfe565b506001600160a01b031660009081526009602052604090206115a6611dfe565b506124f6565b50604051906115ba826116ae565b5465ffffffffffff811680835260309190911c60209283019081526040805192835290516001600160d01b031692820192909252918291820190565b3461036a57602036600319011261036a5761160f6103b1565b61161761166c565b6001600160a01b0390811690811561165357600b80546001600160a01b03198116841790915516600080516020612ab2833981519152600080a3005b604051631e4fbdf760e01b815260006004820152602490fd5b600b546001600160a01b0316330361168057565b60405163118cdaa760e01b8152336004820152602490fd5b634e487b7160e01b600052604160045260246000fd5b604081019081106001600160401b03821117610dbb57604052565b602081019081106001600160401b03821117610dbb57604052565b60a081019081106001600160401b03821117610dbb57604052565b60c081019081106001600160401b03821117610dbb57604052565b601f909101601f19168101906001600160401b03821190821017610dbb57604052565b6040519061174a826116ae565b565b65ffffffffffff61175c436122e7565b168082101561176f575061095a906122e7565b6044925060405191637669fc0f60e11b835260048301526024820152fd5b6001600160a01b03818116600081815260086020526040812080548685166001600160a01b03198216811790925561174a969416946117f49390928691907f3134e8a2e6d97e929a7e54011ea5485d7d196dd5f0ba4d4ef95803e8e3fc257f9080a4611c23565b915b6001600160a01b038083169392919081169081851415806118fd575b61181e575b5050505050565b81611881575b505082611833575b8080611817565b600080516020612b128339815191529161185861185261185e9361044c565b916122b4565b90611906565b604080516001600160d01b039384168152919092166020820152a238808061182c565b61188a9061044c565b611893846122b4565b61189c436122e7565b6001600160d01b039182806118b0866124c8565b16911690039282841161074d57600080516020612b12833981519152936118f3926118da926126d8565b6040805192851683529316602082015291829190820190565b0390a23880611824565b50831515611812565b90611910436122e7565b6001600160d01b03918280611924866124c8565b1691160191821161193c57611938926126d8565b9091565b634e487b7160e01b600052601160045260246000fd5b90600182811c92168015611982575b602083101461196c57565b634e487b7160e01b600052602260045260246000fd5b91607f1691611961565b600f546000929161199c82611952565b9081815260019283811690816000146119f657506001146119bc57505050565b90929350600f6000526020928360002092846000945b8386106119e25750505050010190565b8054858701830152940193859082016119d2565b91935050602093945060ff191683830152151560051b010190565b60035460009291611a2182611952565b9081815260019283811690816000146119f65750600114611a4157505050565b9092935060036000526020928360002092846000945b838610611a675750505050010190565b805485870183015294019385908201611a57565b600e5460009291611a8b82611952565b9081815260019283811690816000146119f65750600114611aab57505050565b90929350600e6000526020928360002092846000945b838610611ad15750505050010190565b805485870183015294019385908201611ac1565b600d5460009291611af582611952565b9081815260019283811690816000146119f65750600114611b1557505050565b90929350600d6000526020928360002092846000945b838610611b3b5750505050010190565b805485870183015294019385908201611b2b565b60045460009291611b5f82611952565b9081815260019283811690816000146119f65750600114611b7f57505050565b9092935060046000526020928360002092846000945b838610611ba55750505050010190565b805485870183015294019385908201611b95565b60105460009291611bc982611952565b9081815260019283811690816000146119f65750600114611be957505050565b9092935060106000526020928360002092846000945b838610611c0f5750505050010190565b805485870183015294019385908201611bff565b6001600160a01b031660009081526020819052604090205490565b90916001600160a01b03808316908115611d14578416908115611cfb57611c6484610466565b54838110611cdd5792611cda9492611cc99282611cd4989603611c8686610466565b55611c9086610466565b8054840190556040518381527fddf252ad1be2c89b69c2b068fc378daa952ba7f163c4a11628f55a4df523b3ef90602090a383836129c0565b601554938491610432565b55610432565b55565b846106278560405193849363391434e360e21b855260048501611de0565b60405163ec442f0560e01b815260006004820152602490fd5b604051634b637e8f60e11b815260006004820152602490fd5b6001600160a01b038082169291908315611da3578216938415611d8a5780611d807f8c5be1e5ebec7d5bd14f71427d1e84f3dd0314c0f7b2291e5b200ac8c7c3b92594611d7b602095610480565b61049a565b55604051908152a3565b604051634a1406b160e11b815260006004820152602490fd5b60405163e602df0560e01b815260006004820152602490fd5b906001600160a01b0380831615611da357811615611d8a57611d7b611cda92610480565b604091949392606082019560018060a01b0316825260208201520152565b60405190611e0b826116ae565b60006020838281520152565b6001600160a01b0316600090815260076020526040902080546001810190915590565b90611e4482611e17565b809103611e4f575050565b6040516301d4b62360e61b81526001600160a01b039092166004830152602482015260449150fd5b9161095a9391611e8693611e8f565b90929192611f35565b91906fa2a8918ca85bafe22016d0b997e4df60600160ff1b038411611f0957926020929160ff608095604051948552168484015260408301526060820152600092839182805260015afa15611efd5780516001600160a01b03811615611ef457918190565b50809160019190565b604051903d90823e3d90fd5b50505060009160039190565b60041115611f1f57565b634e487b7160e01b600052602160045260246000fd5b611f3e81611f15565b80611f47575050565b611f5081611f15565b60018103611f6a5760405163f645eedf60e01b8152600490fd5b611f7381611f15565b60028103611f945760405163fce698f760e01b815260048101839052602490fd5b80611fa0600392611f15565b14611fa85750565b6040516335e2f38360e21b81526004810191909152602490fd5b307f00000000000000000000000000000000000000000000000000000000000000006001600160a01b031614806120b3575b1561201d577f000000000000000000000000000000000000000000000000000000000000000090565b60405160208101907f8b73c3c69bb8fe3d512ecc4cf759cc79239f7b179b0ffacaa9a75d522b39400f82527f000000000000000000000000000000000000000000000000000000000000000060408201527f000000000000000000000000000000000000000000000000000000000000000060608201524660808201523060a082015260a081526120ad816116ff565b51902090565b507f00000000000000000000000000000000000000000000000000000000000000004614611ff4565b6042906120e7611fc2565b906040519161190160f01b8352600283015260228201522090565b60ff81146121405760ff811690601f821161212e5760405191612124836116ae565b8252602082015290565b604051632cd44ac360e21b8152600490fd5b5060405160055481600061215383611952565b8083526001938085169081156121d95750600114612179575b5061095a9250038261171a565b600560009081527f036b6384b5eca791c62761152d0c79bb0604c104a5fb6f4eb0703f3154bb3db094602093509091905b8183106121c157505061095a93508201013861216c565b855487840185015294850194869450918301916121aa565b905061095a94506020925060ff191682840152151560051b8201013861216c565b60ff811461221c5760ff811690601f821161212e5760405191612124836116ae565b5060405160065481600061222f83611952565b8083526001938085169081156121d95750600114612254575061095a9250038261171a565b600660009081527ff652222313e28459528d920b65115c16c04f3efc82aaedc97be59f3f377c0d3f94602093509091905b81831061229c57505061095a93508201013861216c565b85548784018501529485019486945091830191612285565b6001600160d01b03908181116122c8571690565b604490604051906306dfcc6560e41b825260d060048301526024820152fd5b65ffffffffffff908181116122fa571690565b604490604051906306dfcc6560e41b8252603060048301526024820152fd5b60001981019190821161074d57565b906001820180921161074d57565b9190820180921161074d57565b811561234d570490565b634e487b7160e01b600052601260045260246000fd5b600181111561095a57600181600160801b81101561247b575b61242361241961240f6124056123fb6123f161242f97600461242a98600160401b81101561246e575b600160201b811015612461575b62010000811015612454575b610100811015612448575b601081101561243c575b1015612434575b60030260011c6123ea818b612343565b0160011c90565b6123ea818a612343565b6123ea8189612343565b6123ea8188612343565b6123ea8187612343565b6123ea8186612343565b8093612343565b821190565b900390565b60011b6123da565b811c9160021b916123d3565b60081c91811b916123c9565b60101c9160081b916123be565b60201c9160101b916123b2565b60401c9160201b916123a5565b50600160401b9050608082901c61237c565b600a546000908061249f575050600090565b60001991818381011161074d57600a905201600080516020612a92833981519152015460301c90565b8054600091816124da57505050600090565b60001992828481011161074d5760209181522001015460301c90565b805482101561250e5760005260206000200190600090565b634e487b7160e01b600052603260045260246000fd5b6001600160d01b039091169052565b9065ffffffffffff82549181199060301b169116179055565b600a5490600160401b821015610dbb576001820180600a5582101561250e5761174a91600a6000526020600020019065ffffffffffff81511665ffffffffffff19835416178255602060018060d01b039101511690612533565b8054600160401b811015610dbb576125c3916001820181556124f6565b6125f6578165ffffffffffff61174a93511665ffffffffffff19835416178255602060018060d01b039101511690612533565b634e487b7160e01b600052600060045260246000fd5b600a5491929180156126b55761262461263c91612319565b600a600052600080516020612a928339815191520190565b9081549165ffffffffffff908184169183168083116126a35786920361266d576126669250612533565b60301c9190565b505061269e9061268c61267e61173d565b65ffffffffffff9092168252565b6126998560208301612524565b61254c565b612666565b604051632520601d60e01b8152600490fd5b506126d2906126c561267e61173d565b6126998460208301612524565b60009190565b80549293928015612759576126ef6126fc91612319565b8260005260206000200190565b9182549265ffffffffffff918285169281168084116126a35787930361272757506126669250612533565b91505061269e9161274761273961173d565b65ffffffffffff9093168352565b6127548660208401612524565b6125a6565b50906126d29161276a61273961173d565b6127548560208401612524565b905b82811061278557505090565b90918082169080831860011c820180921161074d57600a600052600080516020612a9283398151915282015465ffffffffffff90811690851610156127cd5750915b90612779565b9291506127d990612328565b906127c7565b91905b8382106127ef5750505090565b9091928083169080841860011c820180921161074d5760008581526020902082015465ffffffffffff908116908416101561282e5750925b91906127e2565b93925061283a90612328565b91612827565b601f811161284c575050565b600090600f825260208220906020601f850160051c8301941061288a575b601f0160051c01915b82811061287f57505050565b818155600101612873565b909250829061286a565b601f81116128a0575050565b6000906010825260208220906020601f850160051c830194106128de575b601f0160051c01915b8281106128d357505050565b8181556001016128c7565b90925082906128be565b90918060409360208452816020850152848401376000828201840152601f01601f1916010190565b90670de0b6b3a76400009182810292818404149015171561074d57565b3d15612967573d906001600160401b038211610dbb576040519161295b601f8201601f19166020018461171a565b82523d6000602084013e565b606090565b6001600160a01b031660009081526020819052604090205480156129ba576015546014602052604060002054810390811161074d578082029182040361074d57670de0b6b3a7640000900490565b50600090565b6001600160a01b03908116929181908415612a4c575b16908115612a04575b61174a93600052600860205280604060002054169160005260406000205416906117f6565b612a0d836122b4565b93612a17436122e7565b6001600160d01b03958680612a2a61248d565b169116900395861161074d5761174a95612a439161260c565b505093506129df565b9050612a57836122b4565b90612a61436122e7565b6001600160d01b03928380612a7461248d565b1691160192831161074d578392612a8a9161260c565b50506129d656fec65a7bb8d6351c1cf70c95a316cc6a92839c986682d98bc35f958f4883f9d2a88be0079c531659141344cd1fd0a4f28419497f9722a3daafe3b4186f6b6457e01c306e70c05992619e2128ad1ef88df75f36c9476282e59f51401b2abaa42e4e732d2e87dcc1907685c097f7373a47d8c7cd8ef98b659b5f2d4272b26aab48a7dec2bacdd2f05b59de34da9b523dff8be42e5e38e818c82fdb0bae774387a724a164736f6c6343000814000adec2bacdd2f05b59de34da9b523dff8be42e5e38e818c82fdb0bae774387a7247e36331bfd1698fbf8e92106b53901904cb03103d4dc2aab1d304b51fcd2fba08be0079c531659141344cd1fd0a4f28419497f9722a3daafe3b4186f6b6457e09a6f5a971124dae2bf5693941e36edc8868a5e85e31dd689d4fa01b6ed18b301a164736f6c6343000814000a",
  "linkReferences": {},
  "deployedLinkReferences": {}
}