{
  "_format": "hh-sol-artifact-1",
  "contractName": "AgentLaunchpad",
  "sourceName": "contracts/AgentLaunchpad.sol",
  "abi": [
    {
      "inputs": [
        {
          "internalType": "address",
          "name": "_treasuryAddress",
          "type": "address"
        },
        {
          "internalType": "address",
          "name": "_uniswapRouter",
          "type": "address"
        }
      ],
      "stateMutability": "nonpayable",
      "type": "constructor"
    },
    {
      "inputs": [],
      "name": "AgentAlreadyBonded",
      "type": "error"
    },
    {
      "inputs": [],
      "name": "AgentCancelledError",
      "type": "error"
    },
    {
      "inputs": [],
      "name": "AgentNotFound",
      "type": "error"
    },
    {
      "inputs": [],
      "name": "EnforcedPause",
      "type": "error"
    },
    {
      "inputs": [],
      "name": "ExpectedPause",
      "type": "error"
    },
    {
      "inputs": [],
      "name": "FundingTargetExceeded",
      "type": "error"
    },
    {
      "inputs": [],
      "name": "FundingTargetNotMet",
      "type": "error"
    },
    {
      "inputs": [],
      "name": "InvalidAddress",
      "type": "error"
    },
    {
      "inputs": [],
      "name": "InvalidFeePercentage",
      "type": "error"
    },
    {
      "inputs": [],
      "name": "NoContribution",
      "type": "error"
    },
    {
      "inputs": [
        {
          "internalType": "address",
          "name": "owner",
          "type": "address"
        }
      ],
      "name": "OwnableInvalidOwner",
      "type": "error"
    },
    {
      "inputs": [
        {
          "internalType": "address",
          "name": "account",
          "type": "address"
        }
      ],
      "name": "OwnableUnauthorizedAccount",
      "type": "error"
    },
    {
      "inputs": [],
      "name": "ReentrancyGuardReentrantCall",
      "type": "error"
    },
    {
      "inputs": [],
      "name": "TransferFailed",
      "type": "error"
    },
    {
      "inputs": [],
      "name": "WithdrawalNotAllowed",
      "type": "error"
    },
    {
      "anonymous": false,
      "inputs": [
        {
          "indexed": true,
          "internalType": "uint256",
          "name": "agentId",
          "type": "uint256"
        },
        {
          "indexed": true,
          "internalType": "address",
          "name": "tokenAddress",
          "type": "address"
        },
        {
          "indexed": true,
          "internalType": "address",
          "name": "lpPairAddress",
          "type": "address"
        },
        {
          "indexed": false,
          "internalType": "uint256",
          "name": "liquidityAdded",
          "type": "uint256"
        },
        {
          "indexed": false,
          "internalType": "uint256",
          "name": "seed",
          "type": "uint256"
        },
        {
          "indexed": false,
          "internalType": "string",
          "name": "agentConfigJSON",
          "type": "string"
        }
      ],
      "name": "AgentBonded",
      "type": "event"
    },
    {
      "anonymous": false,
      "inputs": [
        {
          "indexed": true,
          "internalType": "uint256",
          "name": "agentId",
          "type": "uint256"
        },
        {
          "indexed": false,
          "internalType": "string",
          "name": "reason",
          "type": "string"
        }
      ],
      "name": "AgentCancelled",
      "type": "event"
    },
    {
      "anonymous": false,
      "inputs": [
        {
          "indexed": true,
          "internalType": "uint256",
          "name": "agentId",
          "type": "uint256"
        },
        {
          "indexed": true,
          "internalType": "address",
          "name": "creator",
          "type": "address"
        },
        {
          "indexed": false,
          "internalType": "address",
          "name": "tokenAddress",
          "type": "address"
        },
        {
          "indexed": false,
          "internalType": "string",
          "name": "agentName",
          "type": "string"
        },
        {
          "indexed": false,
          "internalType": "uint256",
          "name": "fundingTarget",
          "type": "uint256"
        },
        {
          "indexed": false,
          "internalType": "string",
          "name": "agentConfigJSON",
          "type": "string"
        }
      ],
      "name": "AgentCreated",
      "type": "event"
    },
    {
      "anonymous": false,
      "inputs": [
        {
          "indexed": true,
          "internalType": "uint256",
          "name": "agentId",
          "type": "uint256"
        },
        {
          "indexed": true,
          "internalType": "address",
          "name": "contributor",
          "type": "address"
        },
        {
          "indexed": false,
          "internalType": "uint256",
          "name": "amount",
          "type": "uint256"
        },
        {
          "indexed": false,
          "internalType": "uint256",
          "name": "totalRaised",
          "type": "uint256"
        }
      ],
      "name": "Contributed",
      "type": "event"
    },
    {
      "anonymous": false,
      "inputs": [
        {
          "indexed": true,
          "internalType": "uint256",
          "name": "agentId",
          "type": "uint256"
        },
        {
          "indexed": true,
          "internalType": "address",
          "name": "contributor",
          "type": "address"
        },
        {
          "indexed": false,
          "internalType": "uint256",
          "name": "amount",
          "type": "uint256"
        }
      ],
      "name": "ContributionWithdrawn",
      "type": "event"
    },
    {
      "anonymous": false,
      "inputs": [
        {
          "indexed": true,
          "internalType": "uint256",
          "name": "agentId",
          "type": "uint256"
        },
        {
          "indexed": true,
          "internalType": "address",
          "name": "lpTokenAddress",
          "type": "address"
        },
        {
          "indexed": false,
          "internalType": "uint256",
          "name": "tokenAmount",
          "type": "uint256"
        },
        {
          "indexed": false,
          "internalType": "uint256",
          "name": "ethAmount",
          "type": "uint256"
        }
      ],
      "name": "LiquidityProvided",
      "type": "event"
    },
    {
      "anonymous": false,
      "inputs": [
        {
          "indexed": true,
          "internalType": "address",
          "name": "previousOwner",
          "type": "address"
        },
        {
          "indexed": true,
          "internalType": "address",
          "name": "newOwner",
          "type": "address"
        }
      ],
      "name": "OwnershipTransferred",
      "type": "event"
    },
    {
      "anonymous": false,
      "inputs": [
        {
          "indexed": false,
          "internalType": "address",
          "name": "account",
          "type": "address"
        }
      ],
      "name": "Paused",
      "type": "event"
    },
    {
      "anonymous": false,
      "inputs": [
        {
          "indexed": false,
          "internalType": "address",
          "name": "account",
          "type": "address"
        }
      ],
      "name": "Unpaused",
      "type": "event"
    },
    {
      "inputs": [],
      "name": "BASIS_POINTS",
      "outputs": [
        {
          "internalType": "uint256",
          "name": "",
          "type": "uint256"
        }
      ],
      "stateMutability": "view",
      "type": "function"
    },
    {
      "inputs": [],
      "name": "MAX_FEE",
      "outputs": [
        {
          "internalType": "uint256",
          "name": "",
          "type": "uint256"
        }
      ],
      "stateMutability": "view",
      "type": "function"
    },
    {
      "inputs": [
        {
          "internalType": "uint256",
          "name": "",
          "type": "uint256"
        }
      ],
      "name": "agents",
      "outputs": [
        {
          "internalType": "string",
          "name": "name",
          "type": "string"
        },
        {
          "internalType": "string",
          "name": "symbol",
          "type": "string"
        },
        {
          "internalType": "string",
          "name": "agentName",
          "type": "string"
        },
        {
          "internalType": "string",
          "name": "archetype",
          "type": "string"
        },
        {
          "internalType": "string",
          "name": "metadataURI",
          "type": "string"
        },
        {
          "internalType": "uint256",
          "name": "fundingTarget",
          "type": "uint256"
        },
        {
          "internalType": "uint256",
          "name": "tokenSupply",
          "type": "uint256"
        },
        {
          "internalType": "uint256",
          "name": "liquidityTokens",
          "type": "uint256"
        },
        {
          "internalType": "uint256",
          "name": "treasuryTokens",
          "type": "uint256"
        },
        {
          "internalType": "address",
          "name": "creator",
          "type": "address"
        },
        {
          "internalType": "bool",
          "name": "isBonded",
          "type": "bool"
        },
        {
          "internalType": "bool",
          "name": "isCancelled",
          "type": "bool"
        },
        {
          "internalType": "uint256",
          "name": "totalRaised",
          "type": "uint256"
        },
        {
          "internalType": "uint256",
          "name": "createdAt",
          "type": "uint256"
        },
        {
          "internalType": "address",
          "name": "tokenAddress",
          "type": "address"
        },
        {
          "internalType": "address",
          "name": "lpPairAddress",
          "type": "address"
        },
        {
          "internalType": "uint256",
          "name": "seed",
          "type": "uint256"
        },
        {
          "internalType": "string",
          "name": "agentConfigJSON",
          "type": "string"
        }
      ],
      "stateMutability": "view",
      "type": "function"
    },
    {
      "inputs": [
        {
          "internalType": "uint256",
          "name": "agentId",
          "type": "uint256"
        }
      ],
      "name": "bondAgent",
      "outputs": [],
      "stateMutability": "nonpayable",
      "type": "function"
    },
    {
      "inputs": [
        {
          "internalType": "uint256",
          "name": "agentId",
          "type": "uint256"
        },
        {
          "internalType": "string",
          "name": "reason",
          "type": "string"
        }
      ],
      "name": "cancelAgent",
      "outputs": [],
      "stateMutability": "nonpayable",
      "type": "function"
    },
    {
      "inputs": [
        {
          "internalType": "uint256",
          "name": "agentId",
          "type": "uint256"
        }
      ],
      "name": "contribute",
      "outputs": [],
      "stateMutability": "payable",
      "type": "function"
    },
    {
      "inputs": [
        {
          "internalType": "uint256",
          "name": "",
          "type": "uint256"
        },
        {
          "internalType": "address",
          "name": "",
          "type": "address"
        }
      ],
      "name": "contributions",
      "outputs": [
        {
          "internalType": "uint256",
          "name": "",
          "type": "uint256"
        }
      ],
      "stateMutability": "view",
      "type": "function"
    },
    {
      "inputs": [
        {
          "internalType": "string",
          "name": "name",
          "type": "string"
        },
        {
          "internalType": "string",
          "name": "symbol",
          "type": "string"
        },
        {
          "internalType": "string",
          "name": "agentName",
          "type": "string"
        },
        {
          "internalType": "string",
          "name": "archetype",
          "type": "string"
        },
        {
          "internalType": "string",
          "name": "metadataURI",
          "type": "string"
        },
        {
          "internalType": "uint256",
          "name": "fundingTarget",
          "type": "uint256"
        },
        {
          "internalType": "uint256",
          "name": "tokenSupply",
          "type": "uint256"
        },
        {
          "internalType": "string",
          "name": "agentConfigJSON",
          "type": "string"
        }
      ],
      "name": "createAgent",
      "outputs": [
        {
          "internalType": "uint256",
          "name": "agentId",
          "type": "uint256"
        }
      ],
      "stateMutability": "nonpayable",
      "type": "function"
    },
    {
      "inputs": [],
      "name": "defaultLiquidityPercentage",
      "outputs": [
        {
          "internalType": "uint256",
          "name": "",
          "type": "uint256"
        }
      ],
      "stateMutability": "view",
      "type": "function"
    },
    {
      "inputs": [],
      "name": "defaultTokenLPPercentage",
      "outputs": [
        {
          "internalType": "uint256",
          "name": "",
          "type": "uint256"
        }
      ],
      "stateMutability": "view",
      "type": "function"
    },
    {
      "inputs": [],
      "name": "emergencyWithdraw",
      "outputs": [],
      "stateMutability": "nonpayable",
      "type": "function"
    },
    {
      "inputs": [
        {
          "internalType": "uint256",
          "name": "agentId",
          "type": "uint256"
        }
      ],
      "name": "getAgentConfigJSON",
      "outputs": [
        {
          "internalType": "string",
          "name": "",
          "type": "string"
        }
      ],
      "stateMutability": "view",
      "type": "function"
    },
    {
      "inputs": [
        {
          "internalType": "uint256",
          "name": "agentId",
          "type": "uint256"
        }
      ],
      "name": "getAgentDetails",
      "outputs": [
        {
          "internalType": "string",
          "name": "symbol",
          "type": "string"
        },
        {
          "internalType": "string",
          "name": "archetype",
          "type": "string"
        },
        {
          "internalType": "string",
          "name": "metadataURI",
          "type": "string"
        },
        {
          "internalType": "uint256",
          "name": "tokenSupply",
          "type": "uint256"
        },
        {
          "internalType": "uint256",
          "name": "liquidityTokens",
          "type": "uint256"
        },
        {
          "internalType": "uint256",
          "name": "treasuryTokens",
          "type": "uint256"
        },
        {
          "internalType": "uint256",
          "name": "createdAt",
          "type": "uint256"
        },
        {
          "internalType": "uint256",
          "name": "seed",
          "type": "uint256"
        }
      ],
      "stateMutability": "view",
      "type": "function"
    },
    {
      "inputs": [
        {
          "internalType": "uint256",
          "name": "agentId",
          "type": "uint256"
        }
      ],
      "name": "getAgentInfo",
      "outputs": [
        {
          "internalType": "string",
          "name": "name",
          "type": "string"
        },
        {
          "internalType": "string",
          "name": "agentName",
          "type": "string"
        },
        {
          "internalType": "uint256",
          "name": "fundingTarget",
          "type": "uint256"
        },
        {
          "internalType": "uint256",
          "name": "totalRaised",
          "type": "uint256"
        },
        {
          "internalType": "bool",
          "name": "isBonded",
          "type": "bool"
        },
        {
          "internalType": "bool",
          "name": "isCancelled",
          "type": "bool"
        },
        {
          "internalType": "address",
          "name": "creator",
          "type": "address"
        },
        {
          "internalType": "address",
          "name": "tokenAddress",
          "type": "address"
        },
        {
          "internalType": "address",
          "name": "lpPairAddress",
          "type": "address"
        },
        {
          "internalType": "string",
          "name": "agentConfigJSON",
          "type": "string"
        }
      ],
      "stateMutability": "view",
      "type": "function"
    },
    {
      "inputs": [
        {
          "internalType": "uint256",
          "name": "agentId",
          "type": "uint256"
        },
        {
          "internalType": "address",
          "name": "contributor",
          "type": "address"
        }
      ],
      "name": "getContribution",
      "outputs": [
        {
          "internalType": "uint256",
          "name": "",
          "type": "uint256"
        }
      ],
      "stateMutability": "view",
      "type": "function"
    },
    {
      "inputs": [],
      "name": "getCurrentAgentId",
      "outputs": [
        {
          "internalType": "uint256",
          "name": "",
          "type": "uint256"
        }
      ],
      "stateMutability": "view",
      "type": "function"
    },
    {
      "inputs": [
        {
          "internalType": "uint256",
          "name": "agentId",
          "type": "uint256"
        }
      ],
      "name": "getLiquidityPool",
      "outputs": [
        {
          "internalType": "address",
          "name": "",
          "type": "address"
        }
      ],
      "stateMutability": "view",
      "type": "function"
    },
    {
      "inputs": [
        {
          "internalType": "address",
          "name": "user",
          "type": "address"
        }
      ],
      "name": "getUserAgents",
      "outputs": [
        {
          "internalType": "uint256[]",
          "name": "",
          "type": "uint256[]"
        }
      ],
      "stateMutability": "view",
      "type": "function"
    },
    {
      "inputs": [
        {
          "internalType": "uint256",
          "name": "agentId",
          "type": "uint256"
        }
      ],
      "name": "hasSeed",
      "outputs": [
        {
          "internalType": "bool",
          "name": "",
          "type": "bool"
        }
      ],
      "stateMutability": "view",
      "type": "function"
    },
    {
      "inputs": [
        {
          "internalType": "uint256",
          "name": "agentId",
          "type": "uint256"
        }
      ],
      "name": "isAgentBonded",
      "outputs": [
        {
          "internalType": "bool",
          "name": "",
          "type": "bool"
        }
      ],
      "stateMutability": "view",
      "type": "function"
    },
    {
      "inputs": [
        {
          "internalType": "uint256",
          "name": "agentId",
          "type": "uint256"
        }
      ],
      "name": "isFundingComplete",
      "outputs": [
        {
          "internalType": "bool",
          "name": "",
          "type": "bool"
        }
      ],
      "stateMutability": "view",
      "type": "function"
    },
    {
      "inputs": [],
      "name": "owner",
      "outputs": [
        {
          "internalType": "address",
          "name": "",
          "type": "address"
        }
      ],
      "stateMutability": "view",
      "type": "function"
    },
    {
      "inputs": [],
      "name": "pauseLaunchpad",
      "outputs": [],
      "stateMutability": "nonpayable",
      "type": "function"
    },
    {
      "inputs": [],
      "name": "paused",
      "outputs": [
        {
          "internalType": "bool",
          "name": "",
          "type": "bool"
        }
      ],
      "stateMutability": "view",
      "type": "function"
    },
    {
      "inputs": [],
      "name": "protocolFeePercentage",
      "outputs": [
        {
          "internalType": "uint256",
          "name": "",
          "type": "uint256"
        }
      ],
      "stateMutability": "view",
      "type": "function"
    },
    {
      "inputs": [],
      "name": "renounceOwnership",
      "outputs": [],
      "stateMutability": "nonpayable",
      "type": "function"
    },
    {
      "inputs": [
        {
          "internalType": "uint256",
          "name": "_feePercentage",
          "type": "uint256"
        }
      ],
      "name": "setProtocolFeePercentage",
      "outputs": [],
      "stateMutability": "nonpayable",
      "type": "function"
    },
    {
      "inputs": [
        {
          "internalType": "address",
          "name": "_treasuryAddress",
          "type": "address"
        }
      ],
      "name": "setTreasuryAddress",
      "outputs": [],
      "stateMutability": "nonpayable",
      "type": "function"
    },
    {
      "inputs": [
        {
          "internalType": "address",
          "name": "_uniswapRouter",
          "type": "address"
        }
      ],
      "name": "setUniswapRouter",
      "outputs": [],
      "stateMutability": "nonpayable",
      "type": "function"
    },
    {
      "inputs": [
        {
          "internalType": "address",
          "name": "newOwner",
          "type": "address"
        }
      ],
      "name": "transferOwnership",
      "outputs": [],
      "stateMutability": "nonpayable",
      "type": "function"
    },
    {
      "inputs": [],
      "name": "treasuryAddress",
      "outputs": [
        {
          "internalType": "address",
          "name": "",
          "type": "address"
        }
      ],
      "stateMutability": "view",
      "type": "function"
    },
    {
      "inputs": [],
      "name": "uniswapRouter",
      "outputs": [
        {
          "internalType": "address",
          "name": "",
          "type": "address"
        }
      ],
      "stateMutability": "view",
      "type": "function"
    },
    {
      "inputs": [],
      "name": "unpauseLaunchpad",
      "outputs": [],
      "stateMutability": "nonpayable",
      "type": "function"
    },
    {
      "inputs": [
        {
          "internalType": "address",
          "name": "",
          "type": "address"
        },
        {
          "internalType": "uint256",
          "name": "",
          "type": "uint256"
        }
      ],
      "name": "userAgents",
      "outputs": [
        {
          "internalType": "uint256",
          "name": "",
          "type": "uint256"
        }
      ],
      "stateMutability": "view",
      "type": "function"
    },
    {
      "inputs": [
        {
          "internalType": "uint256",
          "name": "agentId",
          "type": "uint256"
        }
      ],
      "name": "withdrawContribution",
      "outputs": [],
      "stateMutability": "nonpayable",
      "type": "function"
    },
    {
      "stateMutability": "payable",
      "type": "receive"
    }
  ],
  "bytecode": "0x6080346200012a57601f62006cb538819003918201601f19168301916001600160401b038311848410176200012f5780849260409485528339810103126200012a576200005a6020620000528362000145565b920162000145565b90331562000111576000549160018060a01b03199233848216176000556040519060018060a01b03938491823391167f8be0079c531659141344cd1fd0a4f28419497f9722a3daafe3b4186f6b6457e0600080a36001805561012c600955611f4080600a55600b5516908115801562000106575b620000f7575083600754161760075516906008541617600855604051616b5a90816200015b8239f35b63e6c4247b60e01b8152600490fd5b5083831615620000ce565b604051631e4fbdf760e01b815260006004820152602490fd5b600080fd5b634e487b7160e01b600052604160045260246000fd5b51906001600160a01b03821682036200012a5756fe60a08060405260043610156200001f575b5036156200001d57600080fd5b005b60003560e01c9081628c55041462001ebb5750806319a6a6e91462001d995780632f8228dc1462001d2a5780633d46519d1462001c6c5780633d891f5914620002da578063513856c81462001a2657806351ca9ff914620019c757806358dc831014620019945780635c975abb146200196f5780636605bfda1462001922578063715018a614620018c5578063735de9f7146200189a578063754c5e891462000b2d578063842e72e51462000ab95780638da5cb5b1462000a8e5780638e50e5091462000a6e578063a491ceb61462000a0e578063a74498aa14620009d5578063b4f685e1146200094d578063ba39a1c51462000914578063bc063e1a14620008f5578063bea9849e1462000896578063bfd1769e1462000876578063c1cbbca714620006fe578063c5f956af14620006d3578063cfeb9eb214620005fa578063d25090ff14620004da578063d8a5e9361462000499578063d8b7b99f1462000380578063db2e21bc1462000326578063e081dbf914620002da578063e1f1c4a714620002bb578063e379dcaf146200029b578063f2fde38b146200020e5763f642c83e14620001d0573862000010565b346200020957602036600319011262000209576004356000526004602052602060406000206005600a8201549101541115604051908152f35b600080fd5b346200020957602036600319011262000209576200022b62001f1a565b62000235620020a4565b6001600160a01b0390811690811562000282576000548260018060a01b0319821617600055167f8be0079c531659141344cd1fd0a4f28419497f9722a3daafe3b4186f6b6457e0600080a3005b604051631e4fbdf760e01b815260006004820152602490fd5b346200020957600036600319011262000209576020600a54604051908152f35b3462000209576000366003190112620002095760206040516127108152f35b34620002095760403660031901126200020957620002f762001f31565b600435600052600560205260406000209060018060a01b03166000526020526020604060002054604051908152f35b3462000209576000366003190112620002095762000343620020a4565b6000805481908190819047906001600160a01b031682821562000376575bf1156200036a57005b6040513d6000823e3d90fd5b506108fc62000361565b346200020957602036600319011262000209576004356000526004602052604060002060018060a01b036009820154161562000487578060066200044b92015460078201546008830154600b84015490600e850154926200046960046200045a60405198620004008a620003f8816001850162001f85565b038b62002023565b620004366040519162000424836200041c816003850162001f85565b038462002023565b6200041c604051809681930162001f85565b6040519a8b9a610100808d528c019062001ed8565b908a820360208c015262001ed8565b9088820360408a015262001ed8565b946060870152608086015260a085015260c084015260e08301520390f35b60405163e93ba22360e01b8152600490fd5b34620002095760203660031901126200020957600435620004b9620020a4565b6103e88111620004c857600955005b60405163390edff560e11b8152600490fd5b3462000209576020806003193601126200020957600435620004fb62002199565b6000818152600483526040902060098101549092906001600160a01b03811615620004875760a01c60ff16620005e85781600052600581526040600020336000528152604060002054928315620005d657600a9083600052600583526040600020336000528352600060408120550162000577848254620020e5565b9055600080808086335af16200058c620021bd565b5015620005c4577fa182b2a9c58fae7e4827fbe3ac2fa1c5711191ef3f58b1fa19631feb97273bb2906040519384523393a360018055005b6040516312171d8360e31b8152600490fd5b604051631971fbf360e21b8152600490fd5b60405163209a769d60e11b8152600490fd5b346200020957604036600319011262000209576004356024356001600160401b03811162000209576200063290369060040162002074565b906200063d620020a4565b6000838152600460205260409020600901805492906001600160a01b03841615620004875760ff8460a01c16620006c15760ff60a81b19909316600160a81b1790925560405160208082527feccbac3b54f4e8ce39548e6fd5e90000c54fa4a517c112f147c66cd45b457b089391928392620006bc92840191620020f3565b0390a2005b604051636005a7a160e11b8152600490fd5b346200020957600036600319011262000209576007546040516001600160a01b039091168152602090f35b6020806003193601126200020957600435906200071a62002199565b620007246200216c565b6000828152600482526040902060098101546001600160a01b03811615620004875760ff8160a01c16620006c15760a81c60ff16620008645734156200081f57600a8101916005620007783485546200218b565b9201918254106200080d57836000526005815260406000203360005281526040600020620007a83482546200218b565b9055620007b73484546200218b565b8093558260405191348352820152837fdcfa71ee125a676f843733d9d39dce2c918ecf9e92f96db4f24bdb5244ed68a060403393a3541115620007fb575b60018055005b62000806906200220c565b80620007f5565b604051637e49436360e01b8152600490fd5b60405162461bcd60e51b815260048101839052601b60248201527f4d75737420636f6e74726962757465206d6f7265207468616e203000000000006044820152606490fd5b604051635228324960e01b8152600490fd5b346200020957600036600319011262000209576020600b54604051908152f35b34620002095760203660031901126200020957620008b362001f1a565b620008bd620020a4565b6001600160a01b03168015620008e357600880546001600160a01b031916919091179055005b60405163e6c4247b60e01b8152600490fd5b3462000209576000366003190112620002095760206040516103e88152f35b346200020957602036600319011262000209576004356000526004602052602060ff60096040600020015460a01c166040519015158152f35b346200020957602036600319011262000209576004356200096d62002199565b60008181526004602052604090206009810154906001600160a01b0382161562000487576005600a82015491015411620009c35760ff8160a01c16620006c15760a81c60ff166200086457620007f5906200220c565b60405163040b16cf60e01b8152600490fd5b346200020957602036600319011262000209576004356000526004602052602060018060a01b03600d6040600020015416604051908152f35b3462000209576000366003190112620002095762000a2b620020a4565b62000a356200216c565b600160ff1960025416176002557f62e78cea01bee320cd4e420270b5ea74000d11b0c9f74754ebdbfc544b05a2586020604051338152a1005b346200020957600036600319011262000209576020600954604051908152f35b346200020957600036600319011262000209576000546040516001600160a01b039091168152602090f35b346200020957602036600319011262000209576004356000526004602052604060002060018060a01b03600982015416156200048757600f62000b1462000b299262000b0c604051809481930162001f85565b038262002023565b60405191829160208352602083019062001ed8565b0390f35b34620002095761010036600319011262000209576004356001600160401b038111620002095762000b6390369060040162002074565b6024356001600160401b038111620002095762000b8590369060040162002074565b926044356001600160401b038111620002095762000ba890369060040162002074565b6064356001600160401b038111620002095762000bca90369060040162002074565b6084959195356001600160401b038111620002095762000bef90369060040162002074565b96909860e4356001600160401b038111620002095762000c1490369060040162002074565b9a909862000c216200216c565b60a435156200185c5760c4351562001820578a15620017ec578215620017b6578b1562001775576003549a6000198c146200175f5760018c0160035561271062000c70600b5460c435620020d1565b049462000c808660c435620020e5565b96604051806142ec8101106001600160401b036142ec830111176200124a578f62000d688f8f928f8f8f62000d429262000d2a928f62000d129362000cfb918f8d9c62000ce3916101008f6142ec6200286282396142ec018181520191620020f3565b918c60206142ec82018503916142ec010152620020f3565b916142ec8a01830360406142ec8c010152620020f3565b6142ec8701810360606142ec89010152888a620020f3565b6142ec8601810360806142ec880101528a8c620020f3565b60c4356142ec860160a08101919091523060c082015280820360e09091015291620020f3565b03906000f09b8c156200036a57604051998a6102408101106001600160401b036102408d0111176200124a5762000ded9762000db762000dc19362000de0976102408f01604052369162002130565b8c52369162002130565b60208a015262000dd3368b8d62002130565b60408a0152369162002130565b6060870152369162002130565b608084015260a43560a084015260c43560c084015260e083015261010082015233610120820152600061014082015260006101608201526000610180820152426101a082015260018060a01b0384166101c082015260006101e0820152600061020082015262000e5f36888762002130565b61022082015285600052600460205260406000209080518051906001600160401b0382116200124a57819062000e96855462001f48565b601f81116200170a575b50602090601f831160011462001699576000926200168d575b50508160011b916000199060031b1c19161782555b60208101518051906001600160401b0382116200124a57819062000ef6600186015462001f48565b601f811162001635575b50602090601f8311600114620015be57600092620015b2575b50508160011b916000199060031b1c19161760018301555b60408101518051906001600160401b0382116200124a57819062000f59600286015462001f48565b601f81116200155a575b50602090601f8311600114620014e357600092620014d7575b50508160011b916000199060031b1c19161760028301555b60608101518051906001600160401b0382116200124a57819062000fbc600386015462001f48565b601f81116200147f575b50602090601f83116001146200140857600092620013fc575b50508160011b916000199060031b1c19161760038301555b60808101518051906001600160401b0382116200124a576200101d600485015462001f48565b601f8111620013b0575b50602090601f83116001146200133757610220939291600091836200132b575b50508160011b916000199060031b1c19161760048401555b60a081810151600585015560c0820151600685015560e08201516007850155610100820151600885015561012082015160098501805461014085015161016086015160ff60a81b90151560a81b1660ff60a01b91151590951b166001600160a01b039384166001600160b01b0319909216919091171792909217909155610180820151600a8501556101a0820151600b8501556101c0820151600c850180549183166001600160a01b03199283161790556101e0830151600d86018054919093169116179055610200810151600e84015501518051906001600160401b0382116200124a5762001153600f84015462001f48565b601f8111620012df575b50602090601f83116001146200126c57600f92916000918362001260575b50508160011b916000199060031b1c1916179101555b336000526006602052604060002092835493600160401b8510156200124a57602097620012267f70e46b5985b32ad72eda39cc17f26dda0d216f9938423ab3778e36fc7ca6988295620011f0886200123f9560018d9b01815562002045565b81549060031b908a821b91600019901b191617905560405195869560018060a01b0316865260808c8701526080860191620020f3565b9060a435604085015283820360608501523397620020f3565b0390a3604051908152f35b634e487b7160e01b600052604160045260246000fd5b015190508a806200117b565b90601f19831691600f850160005260206000209260005b818110620012c65750916001939185600f969410620012ac575b505050811b0191015562001191565b015160001960f88460031b161c191690558a80806200129d565b9293602060018192878601518155019501930162001283565b600f84016000526020600020601f840160051c81016020851062001323575b601f830160051c82018110620013165750506200115d565b60008155600101620012fe565b5080620012fe565b015190508b8062001047565b906004850160005260206000209160005b601f19851681106200139757509183916001936102209695601f198116106200137d575b505050811b0160048401556200105f565b015160001960f88460031b161c191690558b80806200136c565b9192602060018192868501518155019401920162001348565b600485016000526020600020601f840160051c810160208510620013f4575b601f830160051c82018110620013e757505062001027565b60008155600101620013cf565b5080620013cf565b015190508a8062000fdf565b9250600385016000526020600020906000935b601f198416851062001463576001945083601f1981161062001449575b505050811b01600383015562000ff7565b015160001960f88460031b161c191690558a808062001438565b818101518355602094850194600190930192909101906200141b565b909150600385016000526020600020601f840160051c810160208510620014cf575b90849392915b601f830160051c82018110620014bf57505062000fc6565b60008155859450600101620014a7565b5080620014a1565b015190508a8062000f7c565b9250600285016000526020600020906000935b601f19841685106200153e576001945083601f1981161062001524575b505050811b01600283015562000f94565b015160001960f88460031b161c191690558a808062001513565b81810151835560209485019460019093019290910190620014f6565b909150600285016000526020600020601f840160051c810160208510620015aa575b90849392915b601f830160051c820181106200159a57505062000f63565b6000815585945060010162001582565b50806200157c565b015190508a8062000f19565b9250600185016000526020600020906000935b601f198416851062001619576001945083601f19811610620015ff575b505050811b01600183015562000f31565b015160001960f88460031b161c191690558a8080620015ee565b81810151835560209485019460019093019290910190620015d1565b909150600185016000526020600020601f840160051c81016020851062001685575b90849392915b601f830160051c820181106200167557505062000f00565b600081558594506001016200165d565b508062001657565b015190508a8062000eb9565b9250846000526020600020906000935b601f1984168510620016ee576001945083601f19811610620016d4575b505050811b01825562000ece565b015160001960f88460031b161c191690558a8080620016c6565b81810151835560209485019460019093019290910190620016a9565b909150846000526020600020601f840160051c81016020851062001757575b90849392915b601f830160051c820181106200174757505062000ea0565b600081558594506001016200172f565b508062001729565b634e487b7160e01b600052601160045260246000fd5b60405162461bcd60e51b815260206004820152601960248201527824b73b30b634b21030b3b2b73a1031b7b73334b3902529a7a760391b6044820152606490fd5b60405162461bcd60e51b815260206004820152600e60248201526d125b9d985b1a59081cde5b589bdb60921b6044820152606490fd5b60405162461bcd60e51b815260206004820152600c60248201526b496e76616c6964206e616d6560a01b6044820152606490fd5b60405162461bcd60e51b8152602060048201526014602482015273496e76616c696420746f6b656e20737570706c7960601b6044820152606490fd5b60405162461bcd60e51b8152602060048201526016602482015275125b9d985b1a5908199d5b991a5b99c81d185c99d95d60521b6044820152606490fd5b346200020957600036600319011262000209576008546040516001600160a01b039091168152602090f35b34620002095760003660031901126200020957620018e2620020a4565b600080546001600160a01b0319811682556001600160a01b03167f8be0079c531659141344cd1fd0a4f28419497f9722a3daafe3b4186f6b6457e08280a3005b346200020957602036600319011262000209576200193f62001f1a565b62001949620020a4565b6001600160a01b03168015620008e357600780546001600160a01b031916919091179055005b34620002095760003660031901126200020957602060ff600254166040519015158152f35b3462000209576020366003190112620002095760043560005260046020526020600e604060002001541515604051908152f35b34620002095760403660031901126200020957620019e462001f1a565b6001600160a01b0316600090815260066020526040902080546024359190821015620002095760209162001a189162002045565b90546040519160031b1c8152f35b3462000209576020366003190112620002095760043560005260046020526040600020604051908162001a5a818362001f85565b0362001a67908362002023565b604051918262001a7b816001850162001f85565b0362001a88908462002023565b6040519282908462001a9e816002850162001f85565b0362001aab908662002023565b604051948562001abf816003860162001f85565b0362001acc908762002023565b604051958662001ae0816004870162001f85565b0362001aed908862002023565b60058401549660068501546007860154600887015491600988015493600a89015495600b8a015497600160a01b60019003600c8c01541699600160a01b60019003600d8d0154169b600e01549c6040519e8f80600f8193019062001b519162001f85565b0362001b5d9162002023565b604051806080526102408091526080510162001b799162001ed8565b608051808203906020015262001b8f9162001ed8565b608051808203906040015262001ba59162001ed8565b608051808203906060015262001bbb9162001ed8565b608051808203906080015262001bd19162001ed8565b9a60805160a0015260805160c0015260805160e001526080516101000152600160a01b60019003811660805161012001528060a01c60ff161515608051610140015260a81c60ff161515608051610160015260805161018001526080516101a001526080516101c001526080516101e0015260805161020001526080518083039061022001526080519162001c669162001ed8565b03608051f35b34620002095760208060031936011262000209576001600160a01b0362001c9262001f1a565b1660005260068152604060002060405190818382549182815201908192600052846000209060005b8682821062001d1557868662001cd38288038362002023565b604051928392818401908285525180915260408401929160005b82811062001cfd57505050500390f35b83518552869550938101939281019260010162001ced565b83548552909301926001928301920162001cba565b3462000209576000366003190112620002095762001d47620020a4565b60025460ff81161562001d875760ff19166002557f5db9ee0a495bf2e6ff9c91a7834c1ba4fdd244a5e8aa4e537bd38aeae4b073aa6020604051338152a1005b604051638dfc202b60e01b8152600490fd5b346200020957602036600319011262000209576004356000526004602052604060002060098101549060018060a01b039182811680156200048757600f62000b299262001e6a9560058601549360ff600a8801549383600c8a01541693600d8a0154169462001e796040519a62001e1e8c62001e16818462001f85565b038d62002023565b62001e546040519162001e3a836200041c816002850162001f85565b62001e4c604051809c81930162001f85565b038a62002023565b6040519c8d9c8d61014090818152019062001ed8565b8c810360208e01529062001ed8565b9760408b015260608a0152818160a01c16151560808a015260a81c16151560a088015260c087015260e086015261010085015283820361012085015262001ed8565b346200020957600036600319011262000209576020906003548152f35b919082519283825260005b84811062001f05575050826000602080949584010152601f8019910116010190565b60208183018101518483018201520162001ee3565b600435906001600160a01b03821682036200020957565b602435906001600160a01b03821682036200020957565b90600182811c9216801562001f7a575b602083101462001f6457565b634e487b7160e01b600052602260045260246000fd5b91607f169162001f58565b906000929180549162001f988362001f48565b91828252600193848116908160001462001fff575060011462001fbc575b50505050565b90919394506000526020928360002092846000945b83861062001fea57505050500101903880808062001fb6565b80548587018301529401938590820162001fd1565b9294505050602093945060ff191683830152151560051b0101903880808062001fb6565b90601f801991011681019081106001600160401b038211176200124a57604052565b80548210156200205e5760005260206000200190600090565b634e487b7160e01b600052603260045260246000fd5b9181601f8401121562000209578235916001600160401b0383116200020957602083818601950101116200020957565b6000546001600160a01b03163303620020b957565b60405163118cdaa760e01b8152336004820152602490fd5b818102929181159184041417156200175f57565b919082039182116200175f57565b908060209392818452848401376000828201840152601f01601f1916010190565b6001600160401b0381116200124a57601f01601f191660200190565b9291926200213e8262002114565b916200214e604051938462002023565b82948184528183011162000209578281602093846000960137010152565b60ff600254166200217957565b60405163d93c066560e01b8152600490fd5b919082018092116200175f57565b600260015414620021ab576002600155565b604051633ee5aeb560e01b8152600490fd5b3d15620021ed573d90620021d18262002114565b91620021e1604051938462002023565b82523d6000602084013e565b606090565b908160209103126200020957518015158103620002095790565b6200226a600091808352600460209080825260409485812090600a820154926200227061271094856200224260095483620020d1565b0498899662002260620022568985620020e5565b600a5490620020d1565b04968792620020e5565b620020e5565b60098401805460ff60a01b1916600160a01b178155895187810189815242828d0152446060808401919091528083529b9391608081016001600160401b038111828210176200282d578552519020600e8701908155998592919080620027c0575b508062002756575b50506008546001600160a01b039491939190851680620023e4575b50600c860180546007546008890154865163a9059cbb60e01b81529189166001600160a01b0316958201958652602086015291939192918a918491908916908290859082906040015b03925af1908115620023d95750600f9386620023a097947f5634160bfde2f4edaeb342d307e242ca9934d78e18d7c66a7b022dfcf09853299b9a9997948f94620023a5575b5054169b548151998a998a5289015287015216988401910162001f85565b0390a4565b620023c9908c8d3d10620023d1575b620023c0818362002023565b810190620021f2565b503862002382565b503d620023b4565b8451903d90823e3d90fd5b90809293945050888252828852838220600c81018681541691865163c45a015560e01b81528b818881885afa9081156200272a578988928e92899162002734575b5016958951928380926315ab88c960e31b82525afa9081156200272a57869162002708575b50875163e6a4390560e01b81526001600160a01b0380861689830190815290831660208201529095908d90879081906040010381845afa958615620026fe57908d9392918897620026da575b508a8716156200264b575b50506008546007919091018054895163095ea7b360e01b8152928b166001600160a01b03168984019081526020810191909152909491929183918290899082906040015b03925af1801562002641576200261f575b5086806008541691541682549061012c4201928342116200260c578f92918c60c4928b51968795869463f305d71960e01b86528d860152806024860152604485015282606485015230608485015260a48401525af1801562002602578996959493928e8c938e93620025bd575b5050907f413fcc4add68f16703d76130cf98a76591f34707ceaa9abd83774f3776483a81876200233d96959493548b86169a8b958351928352820152a3600d880180546001600160a01b03191690961790955590620022f4565b92509250929394959650813d8311620025fa575b620025dd818362002023565b81010312620025f65790888a89969594938e3862002563565b8280fd5b503d620025d1565b86513d86823e3d90fd5b634e487b7160e01b875260118852602487fd5b62002639908b3d8d11620023d157620023c0818362002023565b5038620024f6565b87513d87823e3d90fd5b89516364e329cb60e11b81526001600160a01b03808816828c0190815293166020840152929650919291839182908990829060400103925af19081156200264157620024e5918c918791620026a6575b5094909138620024a1565b620026cb9150823d8411620026d2575b620026c2818362002023565b81019062002840565b386200269b565b503d620026b6565b620026f6919750843d8611620026d257620026c2818362002023565b953862002496565b89513d89823e3d90fd5b6200272391508c8d3d10620026d257620026c2818362002023565b386200244a565b88513d88823e3d90fd5b6200274f9150833d8511620026d257620026c2818362002023565b3862002425565b9054829182918291906001600160a01b03165af162002774620021bd565b50156200278457823880620022d9565b5162461bcd60e51b8152908101859052601760248201527610dc99585d1bdc881d1c985b9cd9995c8819985a5b1959604a1b6044820152606490fd5b9280808093949560018060a01b03600754165af1620027de620021bd565b5015620027ef5790849138620022d1565b825162461bcd60e51b81528085018990526018602482015277151c99585cdd5c9e481d1c985b9cd9995c8819985a5b195960421b6044820152606490fd5b634e487b7160e01b885260418752602488fd5b908160209103126200020957516001600160a01b038116810362000209579056fe61016080604052346200014257620042ec90813803809262000021826200015d565b823981810190610100809312620001425780516001600160401b03929083811162000142578162000054918401620001db565b91610180518481116200014257826200006f918301620001db565b6101a05185811162000142578362000089918401620001db565b6101c051868111620001425784620000a3918501620001db565b906101e051878111620001425785620000be918601620001db565b926102005194620000ce62000241565b9661024051998a116200014257620000f399620000ec9201620001db565b9662000a1d565b604051612b9d91826200170f8339608051826120cf015260a0518261218a015260c05182612099015260e0518261211e0152518161214401526101205181610e2701526101405181610e500152f35b600080fd5b634e487b7160e01b600052604160045260246000fd5b601f01601f1916610160908101906001600160401b038211908210176200018357604052565b62000147565b604081019081106001600160401b038211176200018357604052565b60405190620001b48262000189565b565b60005b838110620001ca5750506000910152565b8181015183820152602001620001b9565b81601f82011215620001425780516001600160401b0392838211620001835760405193601f8301601f19908116603f011685019081118582101762000183576040528184526020828401011162000142576200023e9160208085019101620001b6565b90565b61022051906001600160a01b03821682036200014257565b90600182811c921680156200028b575b60208310146200027557565b634e487b7160e01b600052602260045260246000fd5b91607f169162000269565b601f8111620002a3575050565b6000906003825260208220906020601f850160051c83019410620002e4575b601f0160051c01915b828110620002d857505050565b818155600101620002cb565b9092508290620002c2565b601f8111620002fc575050565b6000906004825260208220906020601f850160051c830194106200033d575b601f0160051c01915b8281106200033157505050565b81815560010162000324565b90925082906200031b565b601f811162000355575050565b600090600d825260208220906020601f850160051c8301941062000396575b601f0160051c01915b8281106200038a57505050565b8181556001016200037d565b909250829062000374565b601f8111620003ae575050565b600090600e825260208220906020601f850160051c83019410620003ef575b601f0160051c01915b828110620003e357505050565b818155600101620003d6565b9092508290620003cd565b601f811162000407575050565b600090600f825260208220906020601f850160051c8301941062000448575b601f0160051c01915b8281106200043c57505050565b8181556001016200042f565b909250829062000426565b601f811162000460575050565b6000906010825260208220906020601f850160051c83019410620004a1575b601f0160051c01915b8281106200049557505050565b81815560010162000488565b90925082906200047f565b601f8111620004b9575050565b6000906005825260208220906020601f850160051c83019410620004fa575b601f0160051c01915b828110620004ee57505050565b818155600101620004e1565b9092508290620004d8565b601f811162000512575050565b6000906006825260208220906020601f850160051c8301941062000553575b601f0160051c01915b8281106200054757505050565b8181556001016200053a565b909250829062000531565b80519091906001600160401b03811162000183576200058a816200058460045462000259565b620002ef565b602080601f8311600114620005c95750819293600092620005bd575b50508160011b916000199060031b1c191617600455565b015190503880620005a6565b6004600052601f198316949091907f8a35acfbc15ff81a39ae7d344fd709f28e8600b4aa8c65c6b64bfe7fe36bd19b926000905b878210620006385750508360019596106200061e575b505050811b01600455565b015160001960f88460031b161c1916905538808062000613565b80600185968294968601518155019501930190620005fd565b80519091906001600160401b03811162000183576200067d8162000677600d5462000259565b62000348565b602080601f8311600114620006bc5750819293600092620006b0575b50508160011b916000199060031b1c191617600d55565b01519050388062000699565b600d600052601f198316949091907fd7b6990105719101dabeb77144f2a3385c8033acd3af97e9423a695e81ad1eb5926000905b8782106200072b57505083600195961062000711575b505050811b01600d55565b015160001960f88460031b161c1916905538808062000706565b80600185968294968601518155019501930190620006f0565b80519091906001600160401b038111620001835762000770816200076a600e5462000259565b620003a1565b602080601f8311600114620007af5750819293600092620007a3575b50508160011b916000199060031b1c191617600e55565b0151905038806200078c565b600e600052601f198316949091907fbb7b4a454dc3493923482f07822329ed19e8244eff582cc204f8554c3620c3fd926000905b8782106200081e57505083600195961062000804575b505050811b01600e55565b015160001960f88460031b161c19169055388080620007f9565b80600185968294968601518155019501930190620007e3565b80519091906001600160401b038111620001835762000863816200085d600f5462000259565b620003fa565b602080601f8311600114620008a2575081929360009262000896575b50508160011b916000199060031b1c191617600f55565b0151905038806200087f565b600f600052601f198316949091907f8d1108e10bcb7c27dddfc02ed9d693a074039d026cf4ea4240b40f7d581ac802926000905b87821062000911575050836001959610620008f7575b505050811b01600f55565b015160001960f88460031b161c19169055388080620008ec565b80600185968294968601518155019501930190620008d6565b80519091906001600160401b038111620001835762000956816200095060105462000259565b62000453565b602080601f831160011462000995575081929360009262000989575b50508160011b916000199060031b1c191617601055565b01519050388062000972565b6010600052601f198316949091907f1b6847dc741a1b0cd08d278845f9d819d87b734759afb55fe2de5cb82a9ae672926000905b87821062000a04575050836001959610620009ea575b505050811b01601055565b015160001960f88460031b161c19169055388080620009df565b80600185968294968601518155019501930190620009c9565b969192969493946040519062000a338262000189565b600180835260209081840194603160f81b8652835160018060401b038111620001835762000a6e8162000a6860035462000259565b62000296565b8392601f821160011462000b725781809162000aa49560009362000b66575b501b916000199060031b1c1916176003556200055e565b62000aaf8262001015565b6101205262000abe8362001125565b61014052815191012060e052519020610100524660a05262000adf620012a4565b6080523060c0526001600160a01b0385161562000b4d5762000b3962000b469462000b33620001b49862000b2d62000b3f9662000b1c8b62000bfe565b62000b276001600c55565b62000651565b62000744565b62000837565b6200092a565b8262000f27565b8062000c47565b604051631e4fbdf760e01b815260006004820152602490fd5b88015192503862000a8d565b60036000529192601f198216907fc2575a0e9e593c00f959f8c92f12db2869c3395a3b0502d05e2516446f71f85b9160005b8782821062000be9575050908362000aa496959493921062000bcf575b5050811b016003556200055e565b87015160001960f88460031b161c19169055388062000bc1565b89840151855593860193928301920162000ba4565b600b80546001600160a01b039283166001600160a01b0319821681179092559091167f8be0079c531659141344cd1fd0a4f28419497f9722a3daafe3b4186f6b6457e0600080a3565b6001600160a01b0390811660008181526008602052604080822080548686166001600160a01b031982168117909255620001b4969516949391929185907f3134e8a2e6d97e929a7e54011ea5485d7d196dd5f0ba4d4ef95803e8e3fc257f8480a4806020522054915b6001600160a01b0380831693929190811690818514158062000e49575b62000cda575b5050505050565b8162000d56575b50508262000cf2575b808062000cd3565b6001600160a01b03166000908152600960205260409020600080516020620042cc8339815191529162000d329162000d2b909162001310565b9062000e53565b604080516001600160d01b039384168152919092166020820152a238808062000cea565b6001600160a01b0316600090815260096020526040902062000d788462001310565b9065ffffffffffff9081431162000e2a57805460008162000de55750509062000dc29162000db8600080516020620042cc833981519152946000620016da565b914316906200151e565b604080516001600160d01b039384168152919092166020820152a2388062000ce1565b6000939291931994848681011162000e2457600080516020620042cc8339815191529562000dc2956020848662000db896522001015460301c620016da565b62000f11565b6040516306dfcc6560e41b815260306004820152436024820152604490fd5b5083151562000ccd565b65ffffffffffff9081431162000e2a57805460008162000e8457505062000db862000e80936000620016f4565b9091565b9093600019858181011162000e245762000e80956020848662000db896522001015460301c620016f4565b65ffffffffffff80431162000e2a57600a5460008162000ee557505062000edc62000e80926000620016da565b90431662001422565b9092600019848181011162000e245762000e8094602084600a62000edc96522001015460301c620016da565b634e487b7160e01b600052601160045260246000fd5b906001600160a01b038216801562000ffc5762000f5062000f4b83600254620016cc565b600255565b6001600160a01b038316600090815260208181526040808320805486019055518481527fddf252ad1be2c89b69c2b068fc378daa952ba7f163c4a11628f55a4df523b3ef9190a36002546001600160d01b03811162000fd5575062000fb69082620015eb565b6015546001600160a01b03909116600090815260146020526040902055565b604051630e58ae9360e11b815260048101919091526001600160d01b036024820152604490fd5b60405163ec442f0560e01b815260006004820152602490fd5b908151602080821060001462001033575050906200023e9062001235565b6001600160401b03821162000183576200105a826200105460055462000259565b620004ac565b80601f83116001146200109a57508192936000926200108e575b50508160011b916000199060031b1c19161760055560ff90565b01519050388062001074565b6005600052601f198316949091907f036b6384b5eca791c62761152d0c79bb0604c104a5fb6f4eb0703f3154bb3db0926000905b8782106200110c575050836001959610620010f2575b505050811b0160055560ff90565b015160001960f88460031b161c19169055388080620010e4565b80600185968294968601518155019501930190620010ce565b908151602080821060001462001143575050906200023e9062001235565b6001600160401b03821162000183576200116a826200116460065462000259565b62000505565b80601f8311600114620011aa57508192936000926200119e575b50508160011b916000199060031b1c19161760065560ff90565b01519050388062001184565b6006600052601f198316949091907ff652222313e28459528d920b65115c16c04f3efc82aaedc97be59f3f377c0d3f926000905b8782106200121c57505083600195961062001202575b505050811b0160065560ff90565b015160001960f88460031b161c19169055388080620011f4565b80600185968294968601518155019501930190620011de565b601f8151116200126357602081519101516020821062001253571790565b6000198260200360031b1b161790565b6044604051809263305a27a960e01b825260206004830152620012968151809281602486015260208686019101620001b6565b601f01601f19168101030190fd5b60e051610100516040519060208201927f8b73c3c69bb8fe3d512ecc4cf759cc79239f7b179b0ffacaa9a75d522b39400f8452604083015260608201524660808201523060a082015260a0815260c0810181811060018060401b03821117620001835760405251902090565b6001600160d01b039081811162001325571690565b604490604051906306dfcc6560e41b825260d060048301526024820152fd5b60001981019190821162000e2457565b600a54906801000000000000000082101562000183576001820180600a55821015620013b657600a60005280516020919091015160301b65ffffffffffff191665ffffffffffff9190911617600080516020620042ac83398151915290910155565b634e487b7160e01b600052603260045260246000fd5b90815468010000000000000000811015620001835760018101808455811015620013b65760009283526020928390208251929093015160301b65ffffffffffff191665ffffffffffff9290921691909117910155565b600a549192918015620014ef576200143e620014579162001344565b600a600052600080516020620042ac8339815191520190565b9081549165ffffffffffff90818416918316808311620014dd578692036200149f576200149892509065ffffffffffff82549181199060301b169116179055565b60301c9190565b5050620014d790620014c2620014b4620001a5565b65ffffffffffff9092168252565b6001600160d01b038516602082015262001354565b62001498565b604051632520601d60e01b8152600490fd5b50620015189062001503620014b4620001a5565b6001600160d01b038416602082015262001354565b60009190565b80549293928015620015c15762001539620015469162001344565b8260005260206000200190565b9182549265ffffffffffff91828516928116808411620014dd578793036200158857506200149892509065ffffffffffff82549181199060301b169116179055565b915050620014d791620015ac6200159e620001a5565b65ffffffffffff9093168352565b6001600160d01b0386166020830152620013cc565b50906200151891620015d66200159e620001a5565b6001600160d01b0385166020830152620013cc565b90620015f78162001310565b9165ffffffffffff80431162000e2a57600a54600081620016995750506200162a9062000edc620001b4956000620016f4565b50506001600160a01b039081169081156200167c575b60086020527f5eff886ea0ce6ca488a3d6e336d6c0f75f46d19b42c06ce5ee98e42c96d256c75460009283526040909220548116911662000cb0565b620016916200168b8462001310565b62000eaf565b505062001640565b60009291921995838781011162000e2457620001b4966200162a94602084600a62000edc96522001015460301c620016f4565b9190820180921162000e2457565b6001600160d01b039182169082160390811162000e245790565b6001600160d01b039182169082160190811162000e24579056fe6080604052600436101561001257600080fd5b60003560e01c806303ee438c146102e257806306fdde03146102dd578063084278ec146102d8578063095ea7b3146102d35780630e4b2285146102ce578063139ba769146102c957806318160ddd146102c45780631f454923146102bf57806323b872dd146102ba578063313ce567146102b55780633644e515146102b05780633a46b1a8146102ab5780633c19804e146102a657806344e43cb8146102a15780634bf5d7e91461029c5780634eea6d79146102975780634f4dac6f14610242578063564f4f7614610292578063587cde1e1461028d5780635c19a95c146102885780636fcfff451461028357806370a082311461027e578063715018a614610279578063750521f5146102745780637ecebe001461026f57806381a2b38f1461026a57806384b0196e14610265578063881e1cff146102605780638b7afe2e1461025b5780638da5cb5b146102565780638e539e8c1461025157806391ddadf41461024c57806395d89b41146102475780639a6f99f9146102425780639ab24eb01461023d578063a9059cbb14610238578063b20a6f3614610233578063bf2d9e0b1461022e578063c3cda52014610229578063d505accf14610224578063d5f6aeb41461021f578063db2e21bc1461021a578063dd62ed3e14610215578063f1127ed8146102105763f2fde38b1461020b57600080fd5b611603565b611550565b6114f8565b6114bb565b611363565b61122f565b611166565b611128565b61110a565b6110e4565b61109b565b610984565b611077565b61104b565b610f88565b610f5f565b610f43565b610f04565b610e0c565b610de8565b610dae565b610c4b565b610ba4565b610b6b565b610b03565b610adf565b610aa4565b6109a7565b6108e8565b6107d2565b610701565b6106dd565b6105f5565b6105d2565b6105b6565b610509565b61048a565b61046c565b610432565b61040e565b6103dd565b610393565b61036f565b610327565b919082519283825260005b848110610313575050826000602080949584010152601f8019910116010190565b6020818301810151848301820152016102f2565b3461036a57600036600319011261036a576103666040516103528161034b81611a01565b0382611739565b6040519182916020835260208301906102e7565b0390f35b600080fd5b3461036a57600036600319011261036a576103666040516103528161034b81611a86565b3461036a57600036600319011261036a576020601554604051908152f35b600435906001600160a01b038216820361036a57565b602435906001600160a01b038216820361036a57565b3461036a57604036600319011261036a576104036103f96103b1565b6024359033611df1565b602060405160018152f35b3461036a57600036600319011261036a576103666040516103528161034b81611af0565b3461036a57602036600319011261036a576001600160a01b036104536103b1565b1660005260136020526020604060002054604051908152f35b3461036a57600036600319011261036a576020600254604051908152f35b3461036a57604036600319011261036a576104a36103b1565b6024359081151580920361036a5760207f7390412ce304891b69b7a6d7722b373a8172b465ce957518d396801bc35e0872916104dd61168b565b60018060a01b0316928360005260168252604060002060ff1981541660ff8316179055604051908152a2005b3461036a57606036600319011261036a576105226103b1565b61052a6103c7565b6001600160a01b03821660009081526001602090815260408083203384529091529020604435919054926000198410610574575b6105689350611c98565b60405160018152602090f35b8284106105905761058b8361056895033383611ea5565b61055e565b604051637dc7a0d960e11b81523360048201526024810185905260448101849052606490fd5b3461036a57600036600319011261036a57602060405160128152f35b3461036a57600036600319011261036a5760206105ed612096565b604051908152f35b3461036a57604036600319011261036a576001600160a01b036106166103b1565b16600090815260096020526040812090610631602435611769565b91805482938160058111610683575b509060209461064f92846128be565b806106695750505b6040516001600160d01b039091168152f35b916106758492936123ed565b92815220015460301c610657565b9461068d86612437565b86039586116106d85760209561064f9385875265ffffffffffff80838a8a20015416908516106000146106c65750915b91925094610640565b9291506106d2906123fc565b906106bd565b6119b1565b3461036a57600036600319011261036a576103666040516103528161034b81611b5a565b600036600319011261036a573360009081526016602052604090205460ff1615806107bd575b6107ab573461073257005b6107466107413460115461240a565b601155565b60025480610780575b5060405134815233907ff3a9b3760e99454de4c494f7ed29f5204ab92febacb0acf52ea04ad4a9d2246690602090a2005b6107a06107986107a592610793346129ef565b612417565b60155461240a565b601555565b3861074f565b6040516318534d6360e21b8152600490fd5b50600b546001600160a01b0316331415610727565b3461036a57600036600319011261036a576107ec436123bb565b65ffffffffffff806107fd436123bb565b1691160361085257610366604051610814816116cd565b601d81527f6d6f64653d626c6f636b6e756d6265722666726f6d3d64656661756c7400000060208201526040519182916020835260208301906102e7565b6040516301bfc1c560e61b8152600490fd5b95979491936108ab6108c79461089d6108e59c9a9761088f6108b9968c6101208091528d01906102e7565b908b820360208d01526102e7565b9089820360408b01526102e7565b9087820360608901526102e7565b9085820360808701526102e7565b9460a084015260c083015260e08201526101008184039101526102e7565b90565b3461036a57600036600319011261036a576040805161090a8161034b81611a86565b6103668251926109248461091d81611bc4565b0385611739565b60025460115460125491835161093d8161034b81611b5a565b845161094c8161034b81611af0565b8551916109638361095c81611a01565b0384611739565b86519661097a8861097381611c2e565b0389611739565b51998a998a610864565b3461036a57602036600319011261036a5760206105ed6109a26103b1565b612a4b565b3461036a57600080600319360112610aa1576002600c5414610a8f576002600c556109d133612a4b565b8015610a7d573360009081526013602052604090206109f182825461240a565b905560155433600090815260146020526040902055610a1a610a158260125461240a565b601255565b8180808084335af1610a2a612a0c565b5015610a6b5760405190815233907fc15f451120b13b6b40c6ad6203614ab3088308bef9150c0d6f46ea79bf46422490602090a2610a686001600c55565b80f35b6040516312171d8360e31b8152600490fd5b604051630150e2dd60e11b8152600490fd5b604051633ee5aeb560e01b8152600490fd5b80fd5b3461036a57602036600319011261036a5760206001600160a01b0380610ac86103b1565b166000526008825260406000205416604051908152f35b3461036a57602036600319011261036a57610b01610afb6103b1565b336117aa565b005b3461036a57602036600319011261036a576001600160a01b03610b246103b1565b16600052600960205260406000205463ffffffff90818111610b4c5760209160405191168152f35b604490604051906306dfcc6560e41b8252602060048301526024820152fd5b3461036a57602036600319011261036a5760206105ed610b896103b1565b6001600160a01b031660009081526020819052604090205490565b3461036a57600080600319360112610aa157610bbe61168b565b600b80546001600160a01b0319811690915581906001600160a01b03167f8be0079c531659141344cd1fd0a4f28419497f9722a3daafe3b4186f6b6457e08280a380f35b90602060031983011261036a576004356001600160401b039283821161036a578060238301121561036a57816004013593841161036a576024848301011161036a576024019190565b3461036a57610c5936610c02565b610c6161168b565b8015610d9c576001600160401b038111610d9757610c8981610c84600f546119c7565b61291f565b600091601f8211600114610cf657817f1c306e70c05992619e2128ad1ef88df75f36c9476282e59f51401b2abaa42e4e93600091610ceb575b508260011b906000198460031b1c191617600f555b610ce6604051928392836129c7565b0390a1005b905081013538610cc2565b600f6000527f8d1108e10bcb7c27dddfc02ed9d693a074039d026cf4ea4240b40f7d581ac802601f198316845b818110610d7f575093837f1c306e70c05992619e2128ad1ef88df75f36c9476282e59f51401b2abaa42e4e9510610d65575b5050600182811b01600f55610cd7565b820135600019600385901b60f8161c191690553880610d55565b83860135835560209586019560019093019201610d23565b6116b7565b604051630eec403f60e41b8152600490fd5b3461036a57602036600319011261036a576001600160a01b03610dcf6103b1565b1660005260076020526020604060002054604051908152f35b3461036a57600036600319011261036a576103666040516103528161034b81611c2e565b3461036a57600080600319360112610aa157610eb690610e4b7f00000000000000000000000000000000000000000000000000000000000000006121d6565b610e747f00000000000000000000000000000000000000000000000000000000000000006122ce565b9160405191610e82836116e8565b818352604051948594600f60f81b8652610ea860209360e08589015260e08801906102e7565b9086820360408801526102e7565b904660608601523060808601528260a086015284820360c08601528080855193848152019401925b828110610eed57505050500390f35b835185528695509381019392810192600101610ede565b3461036a57602036600319011261036a576001600160a01b03610f256103b1565b166000526016602052602060ff604060002054166040519015158152f35b3461036a57600036600319011261036a57602047604051908152f35b3461036a57600036600319011261036a57600b546040516001600160a01b039091168152602090f35b3461036a57602036600319011261036a57610fa4600435611769565b600a54906000829160058411610ff0575b610fbf9350612856565b600081610fd457505060405160008152602090f35b6020610fe081936123ed565b91600a815220015460301c610657565b9192610ffb81612437565b81039081116106d857600a8252600080516020612b71833981519152810154610fbf949065ffffffffffff9081169085161015611039575091610fb5565b929150611045906123fc565b90610fb5565b3461036a57600036600319011261036a576020611067436123bb565b65ffffffffffff60405191168152f35b3461036a57600036600319011261036a576103666040516103528161034b81611bc4565b3461036a57602036600319011261036a576001600160a01b036110bc6103b1565b166000526009602052602060018060d01b036110db604060002061259d565b16604051908152f35b3461036a57604036600319011261036a576104036111006103b1565b6024359033611c98565b3461036a57600036600319011261036a576020601254604051908152f35b3461036a57600036600319011261036a576020601154604051908152f35b6064359060ff8216820361036a57565b6084359060ff8216820361036a57565b3461036a5760c036600319011261036a5761117f6103b1565b6044359060243561118e611146565b8342116112165761120a610b0194611211926040519060208201927fe48329057bfd03d55e49b547132e39cffd9c1820ad7b9d4c5307691425d15adf845260018060a01b03881660408401528660608401526080830152608082526111f282611703565b61120560a43593608435935190206121b0565b611f4b565b9182611ef5565b6117aa565b604051632341d78760e11b815260048101859052602490fd5b3461036a5760e036600319011261036a576112486103b1565b6112506103c7565b6044359060643561125f611156565b81421161134a576001600160a01b0385811660008181526007602090815260409182902080546001810190915582517f6e71edae12b1b97f4d1f60370fef10105fa2faae0126114a169c64845d6126c99281019283529283019390935292861660608201526080810187905260a081019190915260c0808201949094529283526113039290916112f060e083611739565b61120560c4359360a435935190206121b0565b6001600160a01b03848116908216036113205750610b0192611df1565b6040516325c0072360e11b81526001600160a01b0391821660048201529084166024820152604490fd5b60405163313c898160e11b815260048101839052602490fd5b3461036a5761137136610c02565b61137961168b565b80156114a9576001600160401b038111610d97576113a18161139c6010546119c7565b612973565b600091601f821160011461140857817f732d2e87dcc1907685c097f7373a47d8c7cd8ef98b659b5f2d4272b26aab48a7936000916113fd575b508260011b906000198460031b1c191617601055610ce6604051928392836129c7565b9050810135386113da565b60106000527f1b6847dc741a1b0cd08d278845f9d819d87b734759afb55fe2de5cb82a9ae672601f198316845b818110611491575093837f732d2e87dcc1907685c097f7373a47d8c7cd8ef98b659b5f2d4272b26aab48a79510611477575b5050600182811b01601055610cd7565b820135600019600385901b60f8161c191690553880611467565b83860135835560209586019560019093019201611435565b604051633d9e4cad60e01b8152600490fd5b3461036a57600080600319360112610aa1576114d561168b565b808080804760018060a01b03600b54165af16114ef612a0c565b5015610a6b5780f35b3461036a57604036600319011261036a5760206115476115166103b1565b61151e6103c7565b6001600160a01b0391821660009081526001855260408082209290931681526020919091522090565b54604051908152f35b3461036a57604036600319011261036a576115696103b1565b6024359063ffffffff8216820361036a57610366916115b99161158a611edc565b50611593611edc565b506001600160a01b031660009081526009602052604090206115b3611edc565b506125cb565b50604051906115c7826116cd565b5465ffffffffffff811680835260309190911c60209283019081526040805192835290516001600160d01b031692820192909252918291820190565b3461036a57602036600319011261036a5761161c6103b1565b61162461168b565b6001600160a01b0390811690811561167257600b80546001600160a01b031981168417909155167f8be0079c531659141344cd1fd0a4f28419497f9722a3daafe3b4186f6b6457e0600080a3005b604051631e4fbdf760e01b815260006004820152602490fd5b600b546001600160a01b0316330361169f57565b60405163118cdaa760e01b8152336004820152602490fd5b634e487b7160e01b600052604160045260246000fd5b604081019081106001600160401b03821117610d9757604052565b602081019081106001600160401b03821117610d9757604052565b60a081019081106001600160401b03821117610d9757604052565b60c081019081106001600160401b03821117610d9757604052565b90601f801991011681019081106001600160401b03821117610d9757604052565b60405190611767826116cd565b565b65ffffffffffff611779436123bb565b168082101561178c57506108e5906123bb565b6044925060405191637669fc0f60e11b835260048301526024820152fd5b6001600160a01b03818116600081815260086020526040812080548685166001600160a01b031982168117909255611767969416946118279390928691907f3134e8a2e6d97e929a7e54011ea5485d7d196dd5f0ba4d4ef95803e8e3fc257f9080a46001600160a01b031660009081526020819052604090205490565b915b6001600160a01b03808316939291908116908185141580611972575b611851575b5050505050565b816118d6575b505082611866575b808061184a565b6001600160a01b031660009081526009602052604090207fdec2bacdd2f05b59de34da9b523dff8be42e5e38e818c82fdb0bae774387a724916118b3916118ad9091612388565b9061197b565b604080516001600160d01b039384168152919092166020820152a238808061185f565b6001600160a01b031660009081526009602052604090206118f684612388565b6118ff436123bb565b6001600160d01b039182806119138661259d565b1691169003928284116106d8577fdec2bacdd2f05b59de34da9b523dff8be42e5e38e818c82fdb0bae774387a724936119689261194f9261279a565b6040805192851683529316602082015291829190820190565b0390a23880611857565b50831515611845565b90611985436123bb565b6001600160d01b039182806119998661259d565b169116019182116119b1576119ad9261279a565b9091565b634e487b7160e01b600052601160045260246000fd5b90600182811c921680156119f7575b60208310146119e157565b634e487b7160e01b600052602260045260246000fd5b91607f16916119d6565b600f5460009291611a11826119c7565b908181526001928381169081600014611a6b5750600114611a3157505050565b90929350600f6000526020928360002092846000945b838610611a575750505050010190565b805485870183015294019385908201611a47565b91935050602093945060ff191683830152151560051b010190565b60035460009291611a96826119c7565b908181526001928381169081600014611a6b5750600114611ab657505050565b9092935060036000526020928360002092846000945b838610611adc5750505050010190565b805485870183015294019385908201611acc565b600e5460009291611b00826119c7565b908181526001928381169081600014611a6b5750600114611b2057505050565b90929350600e6000526020928360002092846000945b838610611b465750505050010190565b805485870183015294019385908201611b36565b600d5460009291611b6a826119c7565b908181526001928381169081600014611a6b5750600114611b8a57505050565b90929350600d6000526020928360002092846000945b838610611bb05750505050010190565b805485870183015294019385908201611ba0565b60045460009291611bd4826119c7565b908181526001928381169081600014611a6b5750600114611bf457505050565b9092935060046000526020928360002092846000945b838610611c1a5750505050010190565b805485870183015294019385908201611c0a565b60105460009291611c3e826119c7565b908181526001928381169081600014611a6b5750600114611c5e57505050565b9092935060106000526020928360002092846000945b838610611c845750505050010190565b805485870183015294019385908201611c74565b90916001600160a01b03808316908115611dd8578416908115611dbf576001600160a01b038416600090815260208190526040902054838110611d8f5792611d8c9492611d539282611d71989603611d028660018060a01b03166000526000602052604060002090565b556001600160a01b0386166000908152602081815260409182902080548601905590518481527fddf252ad1be2c89b69c2b068fc378daa952ba7f163c4a11628f55a4df523b3ef9190a38383612a9f565b60155493849160018060a01b03166000526014602052604060002090565b556001600160a01b0316600090815260146020526040902090565b55565b60405163391434e360e21b81526001600160a01b0386166004820152602481019190915260448101849052606490fd5b60405163ec442f0560e01b815260006004820152602490fd5b604051634b637e8f60e11b815260006004820152602490fd5b6001600160a01b038082169291908315611e8c578216938415611e735780611e697f8c5be1e5ebec7d5bd14f71427d1e84f3dd0314c0f7b2291e5b200ac8c7c3b92594611e5260209560018060a01b03166000526001602052604060002090565b9060018060a01b0316600052602052604060002090565b55604051908152a3565b604051634a1406b160e11b815260006004820152602490fd5b60405163e602df0560e01b815260006004820152602490fd5b906001600160a01b0380831615611e8c57811615611e7357611e52611d8c9260018060a01b03166000526001602052604060002090565b60405190611ee9826116cd565b60006020838281520152565b6001600160a01b03811660009081526007602052604090208054600181019091559091819003611f23575050565b6040516301d4b62360e61b81526001600160a01b039092166004830152602482015260449150fd5b916108e59391611f5a93611f63565b90929192612009565b91906fa2a8918ca85bafe22016d0b997e4df60600160ff1b038411611fdd57926020929160ff608095604051948552168484015260408301526060820152600092839182805260015afa15611fd15780516001600160a01b03811615611fc857918190565b50809160019190565b604051903d90823e3d90fd5b50505060009160039190565b60041115611ff357565b634e487b7160e01b600052602160045260246000fd5b61201281611fe9565b8061201b575050565b61202481611fe9565b6001810361203e5760405163f645eedf60e01b8152600490fd5b61204781611fe9565b600281036120685760405163fce698f760e01b815260048101839052602490fd5b80612074600392611fe9565b1461207c5750565b6040516335e2f38360e21b81526004810191909152602490fd5b307f00000000000000000000000000000000000000000000000000000000000000006001600160a01b03161480612187575b156120f1577f000000000000000000000000000000000000000000000000000000000000000090565b60405160208101907f8b73c3c69bb8fe3d512ecc4cf759cc79239f7b179b0ffacaa9a75d522b39400f82527f000000000000000000000000000000000000000000000000000000000000000060408201527f000000000000000000000000000000000000000000000000000000000000000060608201524660808201523060a082015260a081526121818161171e565b51902090565b507f000000000000000000000000000000000000000000000000000000000000000046146120c8565b6042906121bb612096565b906040519161190160f01b8352600283015260228201522090565b60ff81146122145760ff811690601f821161220257604051916121f8836116cd565b8252602082015290565b604051632cd44ac360e21b8152600490fd5b50604051600554816000612227836119c7565b8083526001938085169081156122ad575060011461224d575b506108e592500382611739565b600560009081527f036b6384b5eca791c62761152d0c79bb0604c104a5fb6f4eb0703f3154bb3db094602093509091905b8183106122955750506108e5935082010138612240565b8554878401850152948501948694509183019161227e565b90506108e594506020925060ff191682840152151560051b82010138612240565b60ff81146122f05760ff811690601f821161220257604051916121f8836116cd565b50604051600654816000612303836119c7565b8083526001938085169081156122ad575060011461232857506108e592500382611739565b600660009081527ff652222313e28459528d920b65115c16c04f3efc82aaedc97be59f3f377c0d3f94602093509091905b8183106123705750506108e5935082010138612240565b85548784018501529485019486945091830191612359565b6001600160d01b039081811161239c571690565b604490604051906306dfcc6560e41b825260d060048301526024820152fd5b65ffffffffffff908181116123ce571690565b604490604051906306dfcc6560e41b8252603060048301526024820152fd5b6000198101919082116106d857565b90600182018092116106d857565b919082018092116106d857565b8115612421570490565b634e487b7160e01b600052601260045260246000fd5b60018111156108e557600181600160801b811015612550575b6124f86124ee6124e46124da6124d06124c66125049760046124ff98600160401b811015612543575b640100000000811015612536575b62010000811015612529575b61010081101561251d575b6010811015612511575b1015612509575b60030260011c6124bf818b612417565b0160011c90565b6124bf818a612417565b6124bf8189612417565b6124bf8188612417565b6124bf8187612417565b6124bf8186612417565b8093612417565b821190565b900390565b60011b6124af565b811c9160021b916124a8565b60081c91811b9161249e565b60101c9160081b91612493565b60201c9160101b91612487565b60401c9160201b91612479565b50600160401b9050608082901c612450565b600a5460009080612574575050600090565b6000199181838101116106d857600a905201600080516020612b71833981519152015460301c90565b8054600091816125af57505050600090565b6000199282848101116106d85760209181522001015460301c90565b80548210156125e35760005260206000200190600090565b634e487b7160e01b600052603260045260246000fd5b600a5490600160401b821015610d97576001820180600a558210156125e357600a60005280516020919091015160301b65ffffffffffff191665ffffffffffff9190911617600080516020612b7183398151915290910155565b8054600160401b811015610d9757612670916001820181556125cb565b61269b57815160209092015160301b65ffffffffffff191665ffffffffffff92909216919091179055565b634e487b7160e01b600052600060045260246000fd5b600a549192918015612770576126c96126e1916123ed565b600a600052600080516020612b718339815191520190565b9081549165ffffffffffff9081841691831680831161275e578692036127265761271f92509065ffffffffffff82549181199060301b169116179055565b60301c9190565b50506127599061274561273761175a565b65ffffffffffff9092168252565b6001600160d01b03851660208201526125f9565b61271f565b604051632520601d60e01b8152600490fd5b506127949061278061273761175a565b6001600160d01b03841660208201526125f9565b60009190565b80549293928015612831576127b16127be916123ed565b8260005260206000200190565b9182549265ffffffffffff9182851692811680841161275e578793036127fd575061271f92509065ffffffffffff82549181199060301b169116179055565b9150506127599161281d61280f61175a565b65ffffffffffff9093168352565b6001600160d01b0386166020830152612653565b50906127949161284261280f61175a565b6001600160d01b0385166020830152612653565b905b82811061286457505090565b90918082169080831860011c82018092116106d857600a600052600080516020612b7183398151915282015465ffffffffffff90811690851610156128ac5750915b90612858565b9291506128b8906123fc565b906128a6565b91905b8382106128ce5750505090565b9091928083169080841860011c82018092116106d85760008581526020902082015465ffffffffffff908116908416101561290d5750925b91906128c1565b939250612919906123fc565b91612906565b601f811161292b575050565b600090600f825260208220906020601f850160051c83019410612969575b601f0160051c01915b82811061295e57505050565b818155600101612952565b9092508290612949565b601f811161297f575050565b6000906010825260208220906020601f850160051c830194106129bd575b601f0160051c01915b8281106129b257505050565b8181556001016129a6565b909250829061299d565b90918060409360208452816020850152848401376000828201840152601f01601f1916010190565b90670de0b6b3a7640000918281029281840414901517156106d857565b3d15612a46573d906001600160401b038211610d975760405191612a3a601f8201601f191660200184611739565b82523d6000602084013e565b606090565b6001600160a01b03166000908152602081905260409020548015612a9957601554601460205260406000205481039081116106d857808202918204036106d857670de0b6b3a7640000900490565b50600090565b6001600160a01b03908116929181908415612b2b575b16908115612ae3575b6117679360005260086020528060406000205416916000526040600020541690611829565b612aec83612388565b93612af6436123bb565b6001600160d01b03958680612b09612562565b16911690039586116106d85761176795612b22916126b1565b50509350612abe565b9050612b3683612388565b90612b40436123bb565b6001600160d01b03928380612b53612562565b169116019283116106d8578392612b69916126b1565b5050612ab556fec65a7bb8d6351c1cf70c95a316cc6a92839c986682d98bc35f958f4883f9d2a8a164736f6c6343000814000ac65a7bb8d6351c1cf70c95a316cc6a92839c986682d98bc35f958f4883f9d2a8dec2bacdd2f05b59de34da9b523dff8be42e5e38e818c82fdb0bae774387a724a164736f6c6343000814000a",
  "linkReferences": {},
  "deployedLinkReferences": {}
}