{
  "_format": "hh-sol-artifact-1",
  "contractName": "SimplePair",
  "sourceName": "contracts/SimpleAMM.sol",
  "abi": [
    {
      "inputs": [],
      "stateMutability": "nonpayable",
      "type": "constructor"
    },
    {
      "anonymous": false,
      "inputs": [
        {
          "indexed": true,
          "internalType": "address",
          "name": "owner",
          "type": "address"
        },
        {
          "indexed": true,
          "internalType": "address",
          "name": "spender",
          "type": "address"
        },
        {
          "indexed": false,
          "internalType": "uint256",
          "name": "value",
          "type": "uint256"
        }
      ],
      "name": "Approval",
      "type": "event"
    },
    {
      "anonymous": false,
      "inputs": [
        {
          "indexed": true,
          "internalType": "address",
          "name": "from",
          "type": "address"
        },
        {
          "indexed": false,
          "internalType": "uint256",
          "name": "value",
          "type": "uint256"
        },
        {
          "indexed": false,
          "internalType": "uint256",
          "name": "amount0",
          "type": "uint256"
        },
        {
          "indexed": false,
          "internalType": "uint256",
          "name": "amount1",
          "type": "uint256"
        }
      ],
      "name": "Burn",
      "type": "event"
    },
    {
      "anonymous": false,
      "inputs": [
        {
          "indexed": true,
          "internalType": "address",
          "name": "to",
          "type": "address"
        },
        {
          "indexed": false,
          "internalType": "uint256",
          "name": "value",
          "type": "uint256"
        }
      ],
      "name": "Mint",
      "type": "event"
    },
    {
      "anonymous": false,
      "inputs": [
        {
          "indexed": true,
          "internalType": "address",
          "name": "to",
          "type": "address"
        },
        {
          "indexed": false,
          "internalType": "uint256",
          "name": "amount0In",
          "type": "uint256"
        },
        {
          "indexed": false,
          "internalType": "uint256",
          "name": "amount1In",
          "type": "uint256"
        },
        {
          "indexed": false,
          "internalType": "uint256",
          "name": "amount0Out",
          "type": "uint256"
        },
        {
          "indexed": false,
          "internalType": "uint256",
          "name": "amount1Out",
          "type": "uint256"
        }
      ],
      "name": "Swap",
      "type": "event"
    },
    {
      "anonymous": false,
      "inputs": [
        {
          "indexed": false,
          "internalType": "uint256",
          "name": "reserve0",
          "type": "uint256"
        },
        {
          "indexed": false,
          "internalType": "uint256",
          "name": "reserve1",
          "type": "uint256"
        }
      ],
      "name": "Sync",
      "type": "event"
    },
    {
      "anonymous": false,
      "inputs": [
        {
          "indexed": true,
          "internalType": "address",
          "name": "from",
          "type": "address"
        },
        {
          "indexed": true,
          "internalType": "address",
          "name": "to",
          "type": "address"
        },
        {
          "indexed": false,
          "internalType": "uint256",
          "name": "value",
          "type": "uint256"
        }
      ],
      "name": "Transfer",
      "type": "event"
    },
    {
      "inputs": [],
      "name": "MINIMUM_LIQUIDITY",
      "outputs": [
        {
          "internalType": "uint256",
          "name": "",
          "type": "uint256"
        }
      ],
      "stateMutability": "view",
      "type": "function"
    },
    {
      "inputs": [
        {
          "internalType": "address",
          "name": "",
          "type": "address"
        },
        {
          "internalType": "address",
          "name": "",
          "type": "address"
        }
      ],
      "name": "allowance",
      "outputs": [
        {
          "internalType": "uint256",
          "name": "",
          "type": "uint256"
        }
      ],
      "stateMutability": "view",
      "type": "function"
    },
    {
      "inputs": [
        {
          "internalType": "address",
          "name": "",
          "type": "address"
        }
      ],
      "name": "balanceOf",
      "outputs": [
        {
          "internalType": "uint256",
          "name": "",
          "type": "uint256"
        }
      ],
      "stateMutability": "view",
      "type": "function"
    },
    {
      "inputs": [
        {
          "internalType": "address",
          "name": "to",
          "type": "address"
        }
      ],
      "name": "burn",
      "outputs": [
        {
          "internalType": "uint256",
          "name": "amount0",
          "type": "uint256"
        },
        {
          "internalType": "uint256",
          "name": "amount1",
          "type": "uint256"
        }
      ],
      "stateMutability": "nonpayable",
      "type": "function"
    },
    {
      "inputs": [],
      "name": "decimals",
      "outputs": [
        {
          "internalType": "uint8",
          "name": "",
          "type": "uint8"
        }
      ],
      "stateMutability": "view",
      "type": "function"
    },
    {
      "inputs": [],
      "name": "factory",
      "outputs": [
        {
          "internalType": "address",
          "name": "",
          "type": "address"
        }
      ],
      "stateMutability": "view",
      "type": "function"
    },
    {
      "inputs": [],
      "name": "getReserves",
      "outputs": [
        {
          "internalType": "uint256",
          "name": "_reserve0",
          "type": "uint256"
        },
        {
          "internalType": "uint256",
          "name": "_reserve1",
          "type": "uint256"
        }
      ],
      "stateMutability": "view",
      "type": "function"
    },
    {
      "inputs": [
        {
          "internalType": "address",
          "name": "_token",
          "type": "address"
        },
        {
          "internalType": "string",
          "name": "_name",
          "type": "string"
        },
        {
          "internalType": "string",
          "name": "_symbol",
          "type": "string"
        }
      ],
      "name": "initialize",
      "outputs": [],
      "stateMutability": "nonpayable",
      "type": "function"
    },
    {
      "inputs": [
        {
          "internalType": "address",
          "name": "to",
          "type": "address"
        }
      ],
      "name": "mint",
      "outputs": [
        {
          "internalType": "uint256",
          "name": "liquidity",
          "type": "uint256"
        }
      ],
      "stateMutability": "nonpayable",
      "type": "function"
    },
    {
      "inputs": [],
      "name": "name",
      "outputs": [
        {
          "internalType": "string",
          "name": "",
          "type": "string"
        }
      ],
      "stateMutability": "view",
      "type": "function"
    },
    {
      "inputs": [],
      "name": "reserve0",
      "outputs": [
        {
          "internalType": "uint256",
          "name": "",
          "type": "uint256"
        }
      ],
      "stateMutability": "view",
      "type": "function"
    },
    {
      "inputs": [],
      "name": "reserve1",
      "outputs": [
        {
          "internalType": "uint256",
          "name": "",
          "type": "uint256"
        }
      ],
      "stateMutability": "view",
      "type": "function"
    },
    {
      "inputs": [
        {
          "internalType": "uint256",
          "name": "amount0Out",
          "type": "uint256"
        },
        {
          "internalType": "uint256",
          "name": "amount1Out",
          "type": "uint256"
        },
        {
          "internalType": "address",
          "name": "to",
          "type": "address"
        }
      ],
      "name": "swap",
      "outputs": [],
      "stateMutability": "nonpayable",
      "type": "function"
    },
    {
      "inputs": [],
      "name": "symbol",
      "outputs": [
        {
          "internalType": "string",
          "name": "",
          "type": "string"
        }
      ],
      "stateMutability": "view",
      "type": "function"
    },
    {
      "inputs": [],
      "name": "token",
      "outputs": [
        {
          "internalType": "address",
          "name": "",
          "type": "address"
        }
      ],
      "stateMutability": "view",
      "type": "function"
    },
    {
      "inputs": [],
      "name": "totalSupply",
      "outputs": [
        {
          "internalType": "uint256",
          "name": "",
          "type": "uint256"
        }
      ],
      "stateMutability": "view",
      "type": "function"
    },
    {
      "stateMutability": "payable",
      "type": "receive"
    }
  ],
  "bytecode": "0x6080806040523461002857600680546001600160a01b0319163317905561123e908161002e8239f35b600080fdfe6080604081815260049182361015610022575b505050361561002057600080fd5b005b600092833560e01c91826306fdde0314610f8f575081630902f1ac14610f6a57816318160ddd14610f4b578163313ce56714610f2f578163443cb4bc14610f105781635a76f25e14610ef15781636a62784214610c325781636d9a640a1461081e57816370a08231146107e657816389afcb4414610540578163906571471461026857816395d89b41146101aa578163ba9a7a561461018d578163c45a015514610164578163dd62ed3e1461010d575063fc0c546a146100e25780610012565b3461010957816003193601126101095760055490516001600160a01b039091168152602090f35b5080fd5b9050346101605781600319360112610160576101276110d0565b6001600160a01b0360243581811693929084900361015c57168452602090815282842091845290815291819020549051908152f35b8580fd5b8280fd5b50503461010957816003193601126101095760065490516001600160a01b039091168152602090f35b505034610109578160031936011261010957602090516103e88152f35b5050346101095781600319360112610109578051908260018054906101ce82611014565b808652918181169081156102405750600114610205575b5050506101f78261020194038361104e565b5191829182611087565b0390f35b80955082526020948583205b82841061022d5750505082610201946101f792820101946101e5565b8054868501880152928601928101610211565b61020197506101f79450602092508693915060ff191682840152151560051b820101946101e5565b83915034610109576060366003190112610109576102846110d0565b906001600160401b039060243582811161053c576102a590369083016110eb565b9060443583811161015c576102bd90369083016110eb565b60065490966001600160a01b03918216330361050b5750600580546001600160a01b0319169190951617845581518381116104f857806102fd8754611014565b93601f948581116104ac575b5060209085831160011461044957889261043e575b50508160011b916000199060031b1c19161785555b855192831161042b575060019261034a8454611014565b908282116103e8575b5050602090821160011461038d57839482939492610382575b5050600019600383901b1c191690821b17905580f35b01519050848061036c565b82845280842090601f198316855b8181106103d257509583859697106103b9575b505050811b01905580f35b015160001960f88460031b161c191690558480806103ae565b878301518455928501926020928301920161039b565b848652602086209083808601821c83019360208710610422575b01901c019084905b8281106104175750610353565b86815501849061040a565b93508293610402565b634e487b7160e01b855260419052602484fd5b01519050888061031e565b8880528189209250601f198416895b818110610494575090846001959493921061047b575b505050811b018555610333565b015160001960f88460031b161c1916905588808061046e565b92936020600181928786015181550195019301610458565b9091508780526020882085808501891c820192602086106104ef575b90859493929101891c01905b8181106104e15750610309565b8981558493506001016104d4565b925081926104c8565b634e487b7160e01b865260418252602486fd5b5162461bcd60e51b8152602081840152600c60248201526b4f6e6c7920666163746f727960a01b6044820152606490fd5b8480fd5b9050823461070b576020806003193601126101095761055d6110d0565b91479060018060a01b0390816005541687519685886024816370a0823160e01b9586825230868301525afa9788156107575783986107b7575b50308352600386526105cb6105af8a8520549687611164565b6105c66105bf6002548093611177565b9a88611164565b611177565b9688158015806107ae575b1561076b578490308252600389528b82206105f2898254611141565b905561060088600254611141565b600255818c518981526000805160206112128339815191528b3092a38a8291610761575b8280929181928a871690f1156107575786888b61065b93878960055416925180968195829463a9059cbb60e01b84528a84016111f6565b03925af1801561074d5790879291610720575b506024479560055416938b519485938492835230908301525afa9182156107155780926106e0575b50506106a1916111a4565b8451908152838282015282858201527f743033787f4738ff4d6a7225ce2bd0977ee5f86b91a902a58f5e4d0b297b464460603392a28351928352820152f35b9091508482813d831161070e575b6106f8818361104e565b8101031261070b5750516106a188610696565b80fd5b503d6106ee565b8851903d90823e3d90fd5b61073f90833d8511610746575b610737818361104e565b8101906111de565b508a61066e565b503d61072d565b8a513d86823e3d90fd5b89513d85823e3d90fd5b6108fc9150610624565b8a5162461bcd60e51b8152808401899052601d60248201527f496e73756666696369656e74206c6971756964697479206275726e65640000006044820152606490fd5b508815156105d6565b9097508581813d83116107df575b6107cf818361104e565b8101031261016057519689610596565b503d6107c5565b5050346101095760203660031901126101095760209181906001600160a01b0361080e6110d0565b1681526003845220549051908152f35b91905034610160576060366003190112610160576001600160a01b0360443581811693602493843593823593919291878103610c2e57841580158082610c25575b15610be657600754871080610bdb575b15610ba057868a8994938d93610b69575b5050505081610b03575b505047906005541683519182916370a0823160e01b83523085840152828960209586935afa918215610af9578a92610ac6575b50600754936108cc8786611141565b821115610abf576108e66108e08887611141565b83611141565b985b600854956108f68a88611141565b851115610ab85761091061090a8b89611141565b86611141565b965b8b15801581610aaf575b15610a71576103e89081870290878204831488151715610a4a57908e91600383029283046003141715610a4a579061095391611141565b90808802908882041488151715610a5e5760038a02908a82046003148b151715610a4a579161098961098f926109959594611141565b90611164565b92611164565b90620f424091828102928184041490151715610a3857106109f9575050916109e57f49926bbebe8474393f434dfa4f78694c0923efa07d19f2284518bfabd06eb7379896949260809896946111a4565b82519586528501528301526060820152a280f35b865162461bcd60e51b8152918201859052601a908201527912c81a5b9d985c9a585b9d081b9bdd081b585a5b9d185a5b995960321b6044820152606490fd5b634e487b7160e01b8e5260118452828efd5b5050634e487b7160e01b8f5260118552838ffd5b50634e487b7160e01b8f5260118552838ffd5b895162461bcd60e51b815280860189905260198186015278125b9cdd59999a58da595b9d081a5b9c1d5d08185b5bdd5b9d603a1b6044820152606490fd5b5088151561091c565b8c96610912565b8a986108e8565b9091508281813d8311610af2575b610ade818361104e565b81010312610aee575190386108bd565b8980fd5b503d610ad4565b85513d8c823e3d90fd5b610b2b916020918460055416908c885180968195829463a9059cbb60e01b84528b84016111f6565b03925af18015610b5f57610b41575b859061088a565b610b589060203d811161074657610737818361104e565b5038610b3a565b84513d8b823e3d90fd5b9091928094955090610b97575b839283928392f115610b8d57859089868a38610880565b83513d8a823e3d90fd5b506108fc610b76565b855162461bcd60e51b81526020818701526016818b015275496e73756666696369656e74206c697175696469747960501b6044820152606490fd5b50600854881061086f565b855162461bcd60e51b8152602081870152601a818b015279125b9cdd59999a58da595b9d081bdd5d1c1d5d08185b5bdd5b9d60321b6044820152606490fd5b5087151561085f565b8880fd5b919050346101605760209182600319360112610eed57928293610c536110d0565b60055484516370a0823160e01b81523081850152602496909347936001600160a01b039390929086908a90829087165afa948515610ee3578695610eb4575b5060075497610ca18986611141565b60085490610caf8289611141565b916002549b8c15600014610e7f57505090610cc991611164565b876003821115610e7157508060019080821c828101809111610e5f5791905b838310610e3f575050505b6103e7198101908111610e2d57986103e890818101809111610e1b5760025587805260038b52888820805490828201809211610e09578c8a93849360008051602061121283398151915293558c51908152a35b8815610dc757505090610d99939291610d6188600254611197565b60025516848180965260038952868120610d7c898254611197565b90556000805160206112128339815191528988518a8152a36111a4565b7f0f6798a560793a54c3bcfe86a93cde1e73087d944c0ea20544137d4121396885848351858152a251908152f35b875162461bcd60e51b81529182018a9052601d908201527f496e73756666696369656e74206c6971756964697479206d696e7465640000006044820152606490fd5b634e487b7160e01b8a5260118552838afd5b634e487b7160e01b8952601184528289fd5b50634e487b7160e01b87526011825286fd5b90919250610e5683610e518184611177565b611197565b821c9190610ce8565b634e487b7160e01b8b5260118652848bfd5b9015610cf357506001610cf3565b9b610e97610e9d94959d6105c6836105c69596611164565b94611164565b80821015610ead57505b97610d46565b9050610ea7565b9094508881813d8311610edc575b610ecc818361104e565b8101031261015c57519338610c92565b503d610ec2565b87513d88823e3d90fd5b8380fd5b5050346101095781600319360112610109576020906008549051908152f35b5050346101095781600319360112610109576020906007549051908152f35b5050346101095781600319360112610109576020905160128152f35b5050346101095781600319360112610109576020906002549051908152f35b82843461070b578060031936011261070b575060075460085482519182526020820152f35b84908434610160578260031936011261016057828054610fae81611014565b808552906001908181169081156102405750600114610fd9575050506101f78261020194038361104e565b94508180526020948583205b8284106110015750505082610201946101f792820101946101e5565b8054868501880152928601928101610fe5565b90600182811c92168015611044575b602083101461102e57565b634e487b7160e01b600052602260045260246000fd5b91607f1691611023565b601f909101601f19168101906001600160401b0382119082101761107157604052565b634e487b7160e01b600052604160045260246000fd5b6020808252825181830181905290939260005b8281106110bc57505060409293506000838284010152601f8019910116010190565b81810186015184820160400152850161109a565b600435906001600160a01b03821682036110e657565b600080fd5b81601f820112156110e6578035906001600160401b038211611071576040519261111f601f8401601f19166020018561104e565b828452602083830101116110e657816000926020809301838601378301015290565b9190820391821161114e57565b634e487b7160e01b600052601160045260246000fd5b8181029291811591840414171561114e57565b8115611181570490565b634e487b7160e01b600052601260045260246000fd5b9190820180921161114e57565b6040907fcf2aa50876cdfbb541206f89af0ee78d44a2abf8d328e37fa4917f982149848a92816007558060085582519182526020820152a1565b908160209103126110e6575180151581036110e65790565b6001600160a01b03909116815260208101919091526040019056feddf252ad1be2c89b69c2b068fc378daa952ba7f163c4a11628f55a4df523b3efa164736f6c6343000814000a",
  "linkReferences": {},
  "deployedLinkReferences": {}
}