{
  "_format": "hh-sol-artifact-1",
  "contractName": "SimpleAMM",
  "sourceName": "contracts/SimpleAMM.sol",
  "abi": [
    {
      "inputs": [],
      "stateMutability": "nonpayable",
      "type": "constructor"
    },
    {
      "inputs": [],
      "name": "InsufficientLiquidity",
      "type": "error"
    },
    {
      "inputs": [],
      "name": "InvalidAmounts",
      "type": "error"
    },
    {
      "inputs": [],
      "name": "InvalidToken",
      "type": "error"
    },
    {
      "inputs": [
        {
          "internalType": "address",
          "name": "owner",
          "type": "address"
        }
      ],
      "name": "OwnableInvalidOwner",
      "type": "error"
    },
    {
      "inputs": [
        {
          "internalType": "address",
          "name": "account",
          "type": "address"
        }
      ],
      "name": "OwnableUnauthorizedAccount",
      "type": "error"
    },
    {
      "inputs": [],
      "name": "PairAlreadyExists",
      "type": "error"
    },
    {
      "inputs": [],
      "name": "PairNotFound",
      "type": "error"
    },
    {
      "inputs": [],
      "name": "ReentrancyGuardReentrantCall",
      "type": "error"
    },
    {
      "inputs": [],
      "name": "TransferFailed",
      "type": "error"
    },
    {
      "inputs": [],
      "name": "UnauthorizedCaller",
      "type": "error"
    },
    {
      "anonymous": false,
      "inputs": [
        {
          "indexed": true,
          "internalType": "address",
          "name": "account",
          "type": "address"
        },
        {
          "indexed": false,
          "internalType": "bool",
          "name": "authorized",
          "type": "bool"
        }
      ],
      "name": "AuthorizationUpdated",
      "type": "event"
    },
    {
      "anonymous": false,
      "inputs": [
        {
          "indexed": true,
          "internalType": "address",
          "name": "token",
          "type": "address"
        },
        {
          "indexed": false,
          "internalType": "uint256",
          "name": "amount",
          "type": "uint256"
        },
        {
          "indexed": true,
          "internalType": "address",
          "name": "to",
          "type": "address"
        }
      ],
      "name": "EmergencyWithdrawal",
      "type": "event"
    },
    {
      "anonymous": false,
      "inputs": [
        {
          "indexed": true,
          "internalType": "uint256",
          "name": "agentId",
          "type": "uint256"
        },
        {
          "indexed": true,
          "internalType": "address",
          "name": "tokenAddress",
          "type": "address"
        },
        {
          "indexed": true,
          "internalType": "address",
          "name": "lpPairAddress",
          "type": "address"
        },
        {
          "indexed": false,
          "internalType": "uint256",
          "name": "ethAmount",
          "type": "uint256"
        },
        {
          "indexed": false,
          "internalType": "uint256",
          "name": "tokenAmount",
          "type": "uint256"
        }
      ],
      "name": "LiquidityPoolCreated",
      "type": "event"
    },
    {
      "anonymous": false,
      "inputs": [
        {
          "indexed": true,
          "internalType": "address",
          "name": "previousOwner",
          "type": "address"
        },
        {
          "indexed": true,
          "internalType": "address",
          "name": "newOwner",
          "type": "address"
        }
      ],
      "name": "OwnershipTransferred",
      "type": "event"
    },
    {
      "anonymous": false,
      "inputs": [
        {
          "indexed": true,
          "internalType": "address",
          "name": "oldRouter",
          "type": "address"
        },
        {
          "indexed": true,
          "internalType": "address",
          "name": "newRouter",
          "type": "address"
        }
      ],
      "name": "RouterUpdated",
      "type": "event"
    },
    {
      "inputs": [],
      "name": "FEE_DENOMINATOR",
      "outputs": [
        {
          "internalType": "uint256",
          "name": "",
          "type": "uint256"
        }
      ],
      "stateMutability": "view",
      "type": "function"
    },
    {
      "inputs": [],
      "name": "FEE_RATE",
      "outputs": [
        {
          "internalType": "uint256",
          "name": "",
          "type": "uint256"
        }
      ],
      "stateMutability": "view",
      "type": "function"
    },
    {
      "inputs": [
        {
          "internalType": "uint256",
          "name": "agentId",
          "type": "uint256"
        },
        {
          "internalType": "uint256",
          "name": "tokenAmountDesired",
          "type": "uint256"
        },
        {
          "internalType": "uint256",
          "name": "tokenAmountMin",
          "type": "uint256"
        },
        {
          "internalType": "uint256",
          "name": "ethAmountMin",
          "type": "uint256"
        },
        {
          "internalType": "address",
          "name": "to",
          "type": "address"
        },
        {
          "internalType": "uint256",
          "name": "deadline",
          "type": "uint256"
        }
      ],
      "name": "addLiquidity",
      "outputs": [
        {
          "internalType": "uint256",
          "name": "amountToken",
          "type": "uint256"
        },
        {
          "internalType": "uint256",
          "name": "amountETH",
          "type": "uint256"
        },
        {
          "internalType": "uint256",
          "name": "liquidity",
          "type": "uint256"
        }
      ],
      "stateMutability": "payable",
      "type": "function"
    },
    {
      "inputs": [
        {
          "internalType": "uint256",
          "name": "",
          "type": "uint256"
        }
      ],
      "name": "agentPairs",
      "outputs": [
        {
          "internalType": "address",
          "name": "",
          "type": "address"
        }
      ],
      "stateMutability": "view",
      "type": "function"
    },
    {
      "inputs": [
        {
          "internalType": "uint256",
          "name": "",
          "type": "uint256"
        }
      ],
      "name": "allPairs",
      "outputs": [
        {
          "internalType": "address",
          "name": "",
          "type": "address"
        }
      ],
      "stateMutability": "view",
      "type": "function"
    },
    {
      "inputs": [],
      "name": "allPairsLength",
      "outputs": [
        {
          "internalType": "uint256",
          "name": "",
          "type": "uint256"
        }
      ],
      "stateMutability": "view",
      "type": "function"
    },
    {
      "inputs": [
        {
          "internalType": "address",
          "name": "",
          "type": "address"
        }
      ],
      "name": "authorizedCallers",
      "outputs": [
        {
          "internalType": "bool",
          "name": "",
          "type": "bool"
        }
      ],
      "stateMutability": "view",
      "type": "function"
    },
    {
      "inputs": [
        {
          "internalType": "uint256",
          "name": "agentId",
          "type": "uint256"
        },
        {
          "internalType": "address",
          "name": "tokenAddress",
          "type": "address"
        },
        {
          "internalType": "uint256",
          "name": "tokenAmount",
          "type": "uint256"
        },
        {
          "internalType": "string",
          "name": "agentConfigJSON",
          "type": "string"
        }
      ],
      "name": "createLiquidityPool",
      "outputs": [
        {
          "internalType": "address",
          "name": "lpPair",
          "type": "address"
        }
      ],
      "stateMutability": "payable",
      "type": "function"
    },
    {
      "inputs": [
        {
          "internalType": "address",
          "name": "token",
          "type": "address"
        },
        {
          "internalType": "address",
          "name": "to",
          "type": "address"
        },
        {
          "internalType": "uint256",
          "name": "amount",
          "type": "uint256"
        }
      ],
      "name": "emergencyTokenWithdraw",
      "outputs": [],
      "stateMutability": "nonpayable",
      "type": "function"
    },
    {
      "inputs": [
        {
          "internalType": "address",
          "name": "to",
          "type": "address"
        },
        {
          "internalType": "uint256",
          "name": "amount",
          "type": "uint256"
        }
      ],
      "name": "emergencyWithdraw",
      "outputs": [],
      "stateMutability": "nonpayable",
      "type": "function"
    },
    {
      "inputs": [],
      "name": "getAllPairs",
      "outputs": [
        {
          "internalType": "address[]",
          "name": "",
          "type": "address[]"
        }
      ],
      "stateMutability": "view",
      "type": "function"
    },
    {
      "inputs": [
        {
          "internalType": "uint256",
          "name": "amountOut",
          "type": "uint256"
        },
        {
          "internalType": "uint256",
          "name": "reserveIn",
          "type": "uint256"
        },
        {
          "internalType": "uint256",
          "name": "reserveOut",
          "type": "uint256"
        }
      ],
      "name": "getAmountIn",
      "outputs": [
        {
          "internalType": "uint256",
          "name": "amountIn",
          "type": "uint256"
        }
      ],
      "stateMutability": "pure",
      "type": "function"
    },
    {
      "inputs": [
        {
          "internalType": "uint256",
          "name": "amountIn",
          "type": "uint256"
        },
        {
          "internalType": "uint256",
          "name": "reserveIn",
          "type": "uint256"
        },
        {
          "internalType": "uint256",
          "name": "reserveOut",
          "type": "uint256"
        }
      ],
      "name": "getAmountOut",
      "outputs": [
        {
          "internalType": "uint256",
          "name": "amountOut",
          "type": "uint256"
        }
      ],
      "stateMutability": "pure",
      "type": "function"
    },
    {
      "inputs": [
        {
          "internalType": "uint256",
          "name": "agentId",
          "type": "uint256"
        }
      ],
      "name": "getLiquidityPool",
      "outputs": [
        {
          "internalType": "address",
          "name": "",
          "type": "address"
        }
      ],
      "stateMutability": "view",
      "type": "function"
    },
    {
      "inputs": [
        {
          "internalType": "uint256",
          "name": "agentId",
          "type": "uint256"
        }
      ],
      "name": "getReserves",
      "outputs": [
        {
          "internalType": "uint256",
          "name": "reserveETH",
          "type": "uint256"
        },
        {
          "internalType": "uint256",
          "name": "reserveToken",
          "type": "uint256"
        }
      ],
      "stateMutability": "view",
      "type": "function"
    },
    {
      "inputs": [
        {
          "internalType": "address",
          "name": "account",
          "type": "address"
        }
      ],
      "name": "isAuthorized",
      "outputs": [
        {
          "internalType": "bool",
          "name": "",
          "type": "bool"
        }
      ],
      "stateMutability": "view",
      "type": "function"
    },
    {
      "inputs": [],
      "name": "owner",
      "outputs": [
        {
          "internalType": "address",
          "name": "",
          "type": "address"
        }
      ],
      "stateMutability": "view",
      "type": "function"
    },
    {
      "inputs": [
        {
          "internalType": "address",
          "name": "",
          "type": "address"
        }
      ],
      "name": "pairToAgent",
      "outputs": [
        {
          "internalType": "uint256",
          "name": "",
          "type": "uint256"
        }
      ],
      "stateMutability": "view",
      "type": "function"
    },
    {
      "inputs": [
        {
          "internalType": "uint256",
          "name": "amountA",
          "type": "uint256"
        },
        {
          "internalType": "uint256",
          "name": "reserveA",
          "type": "uint256"
        },
        {
          "internalType": "uint256",
          "name": "reserveB",
          "type": "uint256"
        }
      ],
      "name": "quote",
      "outputs": [
        {
          "internalType": "uint256",
          "name": "amountB",
          "type": "uint256"
        }
      ],
      "stateMutability": "pure",
      "type": "function"
    },
    {
      "inputs": [],
      "name": "renounceOwnership",
      "outputs": [],
      "stateMutability": "nonpayable",
      "type": "function"
    },
    {
      "inputs": [
        {
          "internalType": "address",
          "name": "account",
          "type": "address"
        },
        {
          "internalType": "bool",
          "name": "authorized",
          "type": "bool"
        }
      ],
      "name": "setAuthorization",
      "outputs": [],
      "stateMutability": "nonpayable",
      "type": "function"
    },
    {
      "inputs": [
        {
          "internalType": "uint256",
          "name": "agentId",
          "type": "uint256"
        },
        {
          "internalType": "uint256",
          "name": "amountOutMin",
          "type": "uint256"
        },
        {
          "internalType": "address",
          "name": "to",
          "type": "address"
        },
        {
          "internalType": "uint256",
          "name": "deadline",
          "type": "uint256"
        }
      ],
      "name": "swapETHForTokens",
      "outputs": [
        {
          "internalType": "uint256[]",
          "name": "amounts",
          "type": "uint256[]"
        }
      ],
      "stateMutability": "payable",
      "type": "function"
    },
    {
      "inputs": [
        {
          "internalType": "uint256",
          "name": "agentId",
          "type": "uint256"
        },
        {
          "internalType": "uint256",
          "name": "amountIn",
          "type": "uint256"
        },
        {
          "internalType": "uint256",
          "name": "amountOutMin",
          "type": "uint256"
        },
        {
          "internalType": "address",
          "name": "to",
          "type": "address"
        },
        {
          "internalType": "uint256",
          "name": "deadline",
          "type": "uint256"
        }
      ],
      "name": "swapTokensForETH",
      "outputs": [
        {
          "internalType": "uint256[]",
          "name": "amounts",
          "type": "uint256[]"
        }
      ],
      "stateMutability": "nonpayable",
      "type": "function"
    },
    {
      "inputs": [
        {
          "internalType": "address",
          "name": "newOwner",
          "type": "address"
        }
      ],
      "name": "transferOwnership",
      "outputs": [],
      "stateMutability": "nonpayable",
      "type": "function"
    },
    {
      "stateMutability": "payable",
      "type": "receive"
    }
  ],
  "bytecode": "0x6080806040523461007e5733156100685760008054336001600160a01b03198216811783556040519290916001600160a01b0316907f8be0079c531659141344cd1fd0a4f28419497f9722a3daafe3b4186f6b6457e09080a36001805561310790816100848239f35b631e4fbdf760e01b815260006004820152602490fd5b600080fdfe60406080815260049081361015610020575b5050361561001e57600080fd5b005b600091823560e01c8063054d50d4146116185780631e3dd18b146115d75780632d11c58a146115bb578063536fff6c14611581578063574f2ba3146115625780635bcca2be146113a1578063715018a61461133057806373c77593146112f957806385f8c259146112295780638da5cb5b146112035780638ea7495c146111d957806395ccea6714611145578063a74498aa14610b48578063a8f0ad4514610b9b578063ad615dec14610b78578063cbf846d714610b48578063d73792a914610b2b578063ded998b91461076d578063e3c856c4146104a6578063eecea00014610409578063f2fde38b1461034f578063f800ece914610287578063fe9fbb801461022d5763fef860b8146101355750610011565b346102295760606003193601126102295761014e61169b565b916101576116b1565b9060443591610164611702565b6001600160a01b038091169461017b861515611bf5565b1692848251917fa9059cbb00000000000000000000000000000000000000000000000000000000835282015282602482015260208160448189885af1801561021f57917f3ab9db27a4cdd8c603a752b62d5fbd93b4b3509fe2596708e9688e42bbac357693916020936101f2575b5051908152a380f35b61021190843d8111610218575b610209818361178c565b810190611863565b50386101e9565b503d6101ff565b82513d88823e3d90fd5b8280fd5b50919034610283576020600319360112610283576020926001600160a01b038061025561169b565b1691828552855260ff8385205416938415610276575b505050519015158152f35b541614915038808061026b565b5080fd5b82843461034c578060031936011261034c579080519182906005549182855260208095018093600584527f036b6384b5eca791c62761152d0c79bb0604c104a5fb6f4eb0703f3154bb3db090845b81811061032f57505050816102eb91038261178c565b83519485948186019282875251809352850193925b82811061030f57505050500390f35b83516001600160a01b031685528695509381019392810192600101610300565b82546001600160a01b0316845292880192600192830192016102d5565b80fd5b50346102295760206003193601126102295761036961169b565b90610372611702565b6001600160a01b038092169283156103da575050600054827fffffffffffffffffffffffff0000000000000000000000000000000000000000821617600055167f8be0079c531659141344cd1fd0a4f28419497f9722a3daafe3b4186f6b6457e0600080a380f35b908460249251917f1e4fbdf7000000000000000000000000000000000000000000000000000000008352820152fd5b50903461022957806003193601126102295761042361169b565b6024358015158091036104a2577f2c59b8f31260880424e870332281eba93ddfef67e37d699cebe5a7ba89f7a8a6926001600160a01b03602093610465611702565b169485875283528086207fffffffffffffffffffffffffffffffffffffffffffffffffffffffffffffff0081541660ff841617905551908152a280f35b8480fd5b5090346102295760a0600319360112610229576001600160a01b0360243560643582811690819003610768576104da61187b565b6104e86084354211156118b6565b6104f3821515611959565b843586526020946002865283858820541680156107405790879186517f0902f1ac00000000000000000000000000000000000000000000000000000000815287818481855afa80156106d057906105549185918691610711575b5087611afb565b956105636044358810156119a4565b87517ffc0c546a00000000000000000000000000000000000000000000000000000000815289818581865afa90811561070757918a91869384916106da575b508a517f23b872dd000000000000000000000000000000000000000000000000000000008152338782019081526001600160a01b0387166020820152604081018b905290948593849283906060010393165af180156106d0576106b3575b50803b1561022957859183606492895196879586947f6d9a640a00000000000000000000000000000000000000000000000000000000865285015282602485015260448401525af180156106a957610695575b5061069194508280519461066686611770565b600286523690860137610678846119ef565b52610682836119fc565b526001805551918291826116c7565b0390f35b61069f8691611746565b6104a25784610653565b84513d88823e3d90fd5b6106c990893d8b1161021857610209818361178c565b5038610600565b88513d86823e3d90fd5b6106fa9150833d8511610700575b6106f2818361178c565b810190611917565b386105a2565b503d6106e8565b89513d87823e3d90fd5b90506107339150893d8b11610739575b61072b818361178c565b810190611901565b3861054d565b503d610721565b5084517fd719ab69000000000000000000000000000000000000000000000000000000008152fd5b600080fd5b5060c0600319360112610229576001600160a01b0391602435608435848116908190036107685761079c61187b565b6107aa60a4354211156118b6565b8335865260209060028252858488205416948515610b045784517f0902f1ac000000000000000000000000000000000000000000000000000000008152858183818a5afa9081156109cd5789908a92610ae4575b50801580610adc575b15610a005750503493965b888651917ffc0c546a000000000000000000000000000000000000000000000000000000008352858385818c5afa9283156109f6579289838c936108ab968a96946109d7575b508b518097819682957f23b872dd000000000000000000000000000000000000000000000000000000008452338c85016040919493929460608201956001600160a01b0380921683521660208201520152565b0393165af180156109cd576109b0575b508784878282156109a7575b839283928392f11561099d57906024839289875198899485937f6a6278420000000000000000000000000000000000000000000000000000000085528401525af1938415610993578694610964575b50813411610934575b60609550600180558251948552840152820152f35b858080806109428634611936565b81811561095b575b3390f161091f5782513d87823e3d90fd5b506108fc61094a565b9080945081813d831161098c575b61097c818361178c565b8101031261076857519238610916565b503d610972565b83513d88823e3d90fd5b84513d89823e3d90fd5b506108fc6108c7565b6109c690843d861161021857610209818361178c565b50386108bb565b86513d8b823e3d90fd5b6109ef919450863d8811610700576106f2818361178c565b9238610858565b88513d84823e3d90fd5b610a0e828297939734611a8a565b95828711610a6c575050506044358410610a2a57349396610812565b6064908386519162461bcd60e51b8352820152601960248201527f496e73756666696369656e7420746f6b656e20616d6f756e74000000000000006044820152fd5b82610a78939750611a8a565b3481111580610ad0575b15610a8e579396610812565b6064828588519162461bcd60e51b8352820152601760248201527f496e73756666696369656e742045544820616d6f756e740000000000000000006044820152fd5b50606435811015610a82565b508115610807565b9050610afd9150863d88116107395761072b818361178c565b90386107fe565b84517fd719ab69000000000000000000000000000000000000000000000000000000008152fd5b505034610283578160031936011261028357602090516127108152f35b503461022957602060031936011261022957816020936001600160a01b0392358152600285522054169051908152f35b50503461028357602090610b94610b8e36611634565b91611a8a565b9051908152f35b50906003199260808436011261034c578235610bb56116b1565b91604435906064359067ffffffffffffffff968783116102835736602384011215610283578281013592888411610229576024809436920101116102835733825260209781895260ff88842054161580611131575b61110957610c1661187b565b6001600160a01b038097169687156110e15786845260028a528089852054166110b9573415918280156110b1575b611089578951906114ba8083019182118383101761107757908291611c418339039085f09a8b15610fe65789519b7f06fdde03000000000000000000000000000000000000000000000000000000008d52858d86818d5afa801561106d578c9d8791611053575b508b519c818e9251908183808601920191610cc5926117af565b82019081017f2d455448204c5000000000000000000000000000000000000000000000000000905203600781018d52602701610d01908d61178c565b8a517f95d89b41000000000000000000000000000000000000000000000000000000008152868187818e5afa9081156110495791610d928f86938f918c927f2d45544800000000000000000000000000000000000000000000000000000000978d93611024575b50519682610d7f89945180928580880191016117af565b830191820152038981018652018461178c565b169b8c3b15611020578c8b88888f6060978397610de98f98610df894519b8c9a8b998a987f90657147000000000000000000000000000000000000000000000000000000008a52890152870152606486019061183e565b9184830301604485015261183e565b03925af1801561101657611003575b5086845260028b528884208a7fffffffffffffffffffffffff000000000000000000000000000000000000000082541617905589845260038b52868985205560055468010000000000000000811015610ff057806001610e6a920160055561164e565b815460039190911b8c811b93901b191691909117905587517f23b872dd000000000000000000000000000000000000000000000000000000008152338382019081526001600160a01b038b166020820152604081018790528b90829081906060010381878c5af18015610fe65790849291610fc9575b508190610fc0575b818080928c3491f115610fb457889087519384917f6a627842000000000000000000000000000000000000000000000000000000008352309083015281848b5af1908115610fa957509187869288969594610f78575b5050907f3a892b22de9bdbbee773309ccc9f2efaedc27fdf0ce7fbd92826acc192b6e8379181519034825289820152a46001805551908152f35b9195508092503d8311610fa2575b610f90818361178c565b81010312610768578385938738610f3e565b503d610f86565b8651903d90823e3d90fd5b508551903d90823e3d90fd5b506108fc610ee8565b610fdf908c8d3d1061021857610209818361178c565b5038610ee0565b89513d86823e3d90fd5b505050604190634e487b7160e01b835252fd5b61100f90949194611746565b9238610e07565b8a513d87823e3d90fd5b8680fd5b6110429193508d3d8091833e61103a818361178c565b8101906117d2565b9138610d68565b8c513d89823e3d90fd5b61106791503d8089833e61103a818361178c565b38610cab565b8b513d88823e3d90fd5b8787604188634e487b7160e01b835252fd5b838a517fd856fc5a000000000000000000000000000000000000000000000000000000008152fd5b508615610c44565b8289517fc9bb25eb000000000000000000000000000000000000000000000000000000008152fd5b8289517fc1ab6dc1000000000000000000000000000000000000000000000000000000008152fd5b5086517f5c427cd9000000000000000000000000000000000000000000000000000000008152fd5b506001600160a01b03835416331415610c0a565b5050346102835780600319360112610283578161116061169b565b6001600160a01b0360243591611174611702565b1692611181841515611bf5565b8282858282156111d0575b839283928392f1156111c5577f3ab9db27a4cdd8c603a752b62d5fbd93b4b3509fe2596708e9688e42bbac35769160209151908152a380f35b51913d9150823e3d90fd5b506108fc61118c565b50823461034c57602060031936011261034c57506111f79035611b62565b82519182526020820152f35b5050346102835781600319360112610283576001600160a01b0360209254169051908152f35b509190346102835761126361123d36611634565b9290829061124c8215156119a4565b801515806112f0575b61125e90611a0c565b611a57565b916103e8928381029381850414901517156112dd579061128291611936565b906103e5918281029281840414901517156112ca57906112a191611a6a565b91600183018093116112b7576020838351908152f35b80601185634e487b7160e01b6024945252fd5b602484601187634e487b7160e01b835252fd5b602485601188634e487b7160e01b835252fd5b50841515611255565b50503461028357602060031936011261028357806020926001600160a01b0361132061169b565b1681526003845220549051908152f35b833461034c578060031936011261034c57611349611702565b806001600160a01b0381547fffffffffffffffffffffffff000000000000000000000000000000000000000081168355167f8be0079c531659141344cd1fd0a4f28419497f9722a3daafe3b4186f6b6457e08280a380f35b50906080600319360112610229576044356001600160a01b03928382168092036104a2576113cd61187b565b6113db6064354211156118b6565b3415936113e88515611959565b8135865260026020528386205416801561153a5790859184517f0902f1ac00000000000000000000000000000000000000000000000000000000815285818481855afa9081156115305784916114489183908492611510575b5034611afb565b966114576024358910156119a4565b8190611507575b81808092853491f1156114fd57803b1561022957829182606492875196879586947f6d9a640a00000000000000000000000000000000000000000000000000000000865285015289602485015260448401525af180156114f35761069194506114e4575b508051916114cf83611770565b600283528136602085013734610678846119ef565b6114ed90611746565b386114c2565b82513d86823e3d90fd5b84513d84823e3d90fd5b506108fc61145e565b90506115299150883d8a116107395761072b818361178c565b9038611441565b86513d86823e3d90fd5b5082517fd719ab69000000000000000000000000000000000000000000000000000000008152fd5b5050346102835781600319360112610283576020906005549051908152f35b5034610229576020600319360112610229578160209360ff926001600160a01b036115aa61169b565b168252855220541690519015158152f35b50503461028357816003193601126102835760209051601e8152f35b503461022957602060031936011261022957359160055483101561034c57506001600160a01b0361160960209361164e565b92905490519260031b1c168152f35b50503461028357602090610b9461162e36611634565b91611afb565b600319606091011261076857600435906024359060443590565b6005548110156116855760056000527f036b6384b5eca791c62761152d0c79bb0604c104a5fb6f4eb0703f3154bb3db00190600090565b634e487b7160e01b600052603260045260246000fd5b600435906001600160a01b038216820361076857565b602435906001600160a01b038216820361076857565b6020908160408183019282815285518094520193019160005b8281106116ee575050505090565b8351855293810193928101926001016116e0565b6001600160a01b0360005416330361171657565b60246040517f118cdaa7000000000000000000000000000000000000000000000000000000008152336004820152fd5b67ffffffffffffffff811161175a57604052565b634e487b7160e01b600052604160045260246000fd5b6060810190811067ffffffffffffffff82111761175a57604052565b90601f601f19910116810190811067ffffffffffffffff82111761175a57604052565b60005b8381106117c25750506000910152565b81810151838201526020016117b2565b60208183031261076857805167ffffffffffffffff9182821161076857019082601f8301121561076857815190811161175a576040519261181d6020601f19601f850116018561178c565b818452602082840101116107685761183b91602080850191016117af565b90565b90601f19601f60209361185c815180928187528780880191016117af565b0116010190565b90816020910312610768575180151581036107685790565b60026001541461188c576002600155565b60046040517f3ee5aeb5000000000000000000000000000000000000000000000000000000008152fd5b156118bd57565b606460405162461bcd60e51b815260206004820152600760248201527f45787069726564000000000000000000000000000000000000000000000000006044820152fd5b9190826040910312610768576020825192015190565b9081602091031261076857516001600160a01b03811681036107685790565b9190820391821161194357565b634e487b7160e01b600052601160045260246000fd5b1561196057565b606460405162461bcd60e51b815260206004820152601960248201527f496e73756666696369656e7420696e70757420616d6f756e74000000000000006044820152fd5b156119ab57565b606460405162461bcd60e51b815260206004820152601a60248201527f496e73756666696369656e74206f757470757420616d6f756e740000000000006044820152fd5b8051156116855760200190565b8051600110156116855760400190565b15611a1357565b606460405162461bcd60e51b815260206004820152601660248201527f496e73756666696369656e74206c6971756964697479000000000000000000006044820152fd5b8181029291811591840414171561194357565b8115611a74570490565b634e487b7160e01b600052601260045260246000fd5b8015611ab75761183b92611aa99183151580611aae5761125e90611a0c565b611a6a565b50811515611255565b606460405162461bcd60e51b815260206004820152601360248201527f496e73756666696369656e7420616d6f756e74000000000000000000000000006044820152fd5b801592611b088415611959565b821593841580611b59575b611b1c90611a0c565b6103e580840293840414171561194357611b369082611a57565b926103e88084029384041417156119435781018091116119435761183b91611a6a565b50811515611b13565b6000908152600260205260406001600160a01b0381832054168015611bee57816004918151928380927f0902f1ac0000000000000000000000000000000000000000000000000000000082525afa918215611be5578392611bc4575b50509091565b611bde935080919250903d106107395761072b818361178c565b3880611bbe565b513d84823e3d90fd5b5050908190565b15611bfc57565b606460405162461bcd60e51b815260206004820152600f60248201527f496e76616c6964206164647265737300000000000000000000000000000000006044820152fdfe6080806040523461002857600680546001600160a01b0319163317905561148c908161002e8239f35b600080fdfe6080604081815260049182361015610022575b505050361561002057600080fd5b005b600092833560e01c91826306fdde03146111ea575081630902f1ac146111c557816318160ddd146111a6578163313ce5671461118a578163443cb4bc1461116b5781635a76f25e1461114c5781636a62784214610e2b5781636d9a640a146109a857816370a082311461096457816389afcb441461064a57816390657147146102cc57816395d89b41146101cf578163ba9a7a56146101b2578163c45a01551461017d578163dd62ed3e14610119575063fc0c546a146100e25780610012565b3461011557816003193601126101155760209073ffffffffffffffffffffffffffffffffffffffff600554169051908152f35b5080fd5b90503461017957816003193601126101795761013361134b565b906024359173ffffffffffffffffffffffffffffffffffffffff9081841680940361017557168452602090815282842091845290815291819020549051908152f35b8580fd5b8280fd5b50503461011557816003193601126101155760209073ffffffffffffffffffffffffffffffffffffffff600654169051908152f35b505034610115578160031936011261011557602090516103e88152f35b5050346101155781600319360112610115578051908260018054916101f383611290565b80865292828116908115610286575060011461022a575b50505061021c826102269403836112ca565b5191829182611303565b0390f35b94508085527fb10e2d527612073b26eecdfd717e6a320cf44b4afac2b0732d9fcbe2b7fa0cf65b82861061026e5750505061021c826020610226958201019461020a565b80546020878701810191909152909501948101610251565b61022697508693506020925061021c9491507fffffffffffffffffffffffffffffffffffffffffffffffffffffffffffffff001682840152151560051b8201019461020a565b83915034610115576060600319360112610115576102e861134b565b9067ffffffffffffffff906024358281116106465761030a9036908301611373565b90604435838111610175576103229036908301611373565b9573ffffffffffffffffffffffffffffffffffffffff90816006541633036106045750600594167fffffffffffffffffffffffff000000000000000000000000000000000000000085541617845581518381116105f157806103848754611290565b93601f94858111610588575b506020908583116001146105095788926104fe575b50506000198260011b9260031b1c19161785555b85519283116104eb57506001926103d08454611290565b9082821161048b575b5050602090821160011461041257839482939492610407575b505060001982841b9260031b1c191617905580f35b0151905084806103f2565b8284527fb10e2d527612073b26eecdfd717e6a320cf44b4afac2b0732d9fcbe2b7fa0cf690601f198316855b818110610475575095838596971061045c575b505050811b01905580f35b015160001960f88460031b161c19169055848080610451565b878301518455928501926020928301920161043e565b8486527fb10e2d527612073b26eecdfd717e6a320cf44b4afac2b0732d9fcbe2b7fa0cf69083808601821c830193602087106104e2575b01901c019084905b8281106104d757506103d9565b8681550184906104ca565b935082936104c2565b846041602492634e487b7160e01b835252fd5b0151905088806103a5565b8880527f290decd9548b62a8d60345a988386fc84ba6bc95484008f6362f93160ef3e56392601f1916895b8181106105705750908460019594939210610557575b505050811b0185556103b9565b015160001960f88460031b161c1916905588808061054a565b92936020600181928786015181550195019301610534565b9091508780527f290decd9548b62a8d60345a988386fc84ba6bc95484008f6362f93160ef3e56385808501891c820192602086106105e8575b90859493929101891c01905b8181106105da5750610390565b8981558493506001016105cd565b925081926105c1565b602486604184634e487b7160e01b835252fd5b5162461bcd60e51b8152602081840152600c60248201527f4f6e6c7920666163746f727900000000000000000000000000000000000000006044820152606490fd5b8480fd5b9050823461088a576020806003193601126101155761066761134b565b91479073ffffffffffffffffffffffffffffffffffffffff90816005541687519685886024817f70a08231000000000000000000000000000000000000000000000000000000009586825230868301525afa9788156108d6578398610935575b50308352600386526106fc6106e08a85205496876113ed565b6106f76106f06002548093611400565b9a886113ed565b611400565b96881580158061092c575b156108ea578490308252600389528b82206107238982546113ca565b9055610731886002546113ca565b600255818c518981527fddf252ad1be2c89b69c2b068fc378daa952ba7f163c4a11628f55a4df523b3ef8b3092a38a82916108e0575b8280929181928a871690f1156108d65786888b6107da9387896005541692518096819582947fa9059cbb0000000000000000000000000000000000000000000000000000000084528a84016020909392919373ffffffffffffffffffffffffffffffffffffffff60408201951681520152565b03925af180156108cc579087929161089f575b506024479560055416938b519485938492835230908301525afa91821561089457809261085f575b50506108209161142d565b8451908152838282015282858201527f743033787f4738ff4d6a7225ce2bd0977ee5f86b91a902a58f5e4d0b297b464460603392a28351928352820152f35b9091508482813d831161088d575b61087781836112ca565b8101031261088a57505161082088610815565b80fd5b503d61086d565b8851903d90823e3d90fd5b6108be90833d85116108c5575b6108b681836112ca565b810190611467565b508a6107ed565b503d6108ac565b8a513d86823e3d90fd5b89513d85823e3d90fd5b6108fc9150610767565b606483898d519162461bcd60e51b8352820152601d60248201527f496e73756666696369656e74206c6971756964697479206275726e65640000006044820152fd5b50881515610707565b9097508581813d831161095d575b61094d81836112ca565b81010312610179575196896106c7565b503d610943565b505034610115576020600319360112610115578060209273ffffffffffffffffffffffffffffffffffffffff61099861134b565b1681526003845220549051908152f35b91905034610179576060600319360112610179578135906024918235916044359473ffffffffffffffffffffffffffffffffffffffff80871696878103610e2757841580158082610e1e575b15610ddc57600754871080610dd1575b15610d8f57868a8994938d93610d58575b5050505081610cb6575b505047906005541683519182917f70a082310000000000000000000000000000000000000000000000000000000083523085840152828960209586935afa918215610cac578a92610c79575b5060075493610a7a87866113ca565b821115610c7257610a94610a8e88876113ca565b836113ca565b985b60085495610aa48a886113ca565b851115610c6b57610abe610ab88b896113ca565b866113ca565b965b8b15801581610c62575b15610c21576103e89081870290878204831488151715610bfa57908e91600383029283046003141715610bfa5790610b01916113ca565b90808802908882041488151715610c0e5760038a02908a82046003148b151715610bfa5791610b37610b3d92610b4395946113ca565b906113ed565b926113ed565b90620f424091828102928184041490151715610be85710610ba757505091610b937f49926bbebe8474393f434dfa4f78694c0923efa07d19f2284518bfabd06eb73798969492608098969461142d565b82519586528501528301526060820152a280f35b90601a6064928689519362461bcd60e51b85528401528201527f4b20696e76617269616e74206e6f74206d61696e7461696e65640000000000006044820152fd5b828e601186634e487b7160e01b835252fd5b5050838f601187634e487b7160e01b835252fd5b50838f601187634e487b7160e01b835252fd5b6064856019868b8e519362461bcd60e51b85528401528201527f496e73756666696369656e7420696e70757420616d6f756e74000000000000006044820152fd5b50881515610aca565b8c96610ac0565b8a98610a96565b9091508281813d8311610ca5575b610c9181836112ca565b81010312610ca157519038610a6b565b8980fd5b503d610c87565b85513d8c823e3d90fd5b610d1a916020918460055416908c88518096819582947fa9059cbb0000000000000000000000000000000000000000000000000000000084528b84016020909392919373ffffffffffffffffffffffffffffffffffffffff60408201951681520152565b03925af18015610d4e57610d30575b8590610a1f565b610d479060203d81116108c5576108b681836112ca565b5038610d29565b84513d8b823e3d90fd5b9091928094955090610d86575b839283928392f115610d7c57859089868a38610a15565b83513d8a823e3d90fd5b506108fc610d65565b60648560168b60208a519362461bcd60e51b85528401528201527f496e73756666696369656e74206c6971756964697479000000000000000000006044820152fd5b506008548810610a04565b606485601a8b60208a519362461bcd60e51b85528401528201527f496e73756666696369656e74206f757470757420616d6f756e740000000000006044820152fd5b508715156109f4565b8880fd5b91905034610179576020918260031936011261114857928293610e4c61134b565b479073ffffffffffffffffffffffffffffffffffffffff908160055416938651978880967f70a08231000000000000000000000000000000000000000000000000000000008252308483015260249a8b915afa94851561113e57869561110f575b5060075497610ebc89866113ca565b60085490610eca82896113ca565b916002549b8c156000146110da57505090610ee4916113ed565b8760038211156110cc57508060019080821c8281018091116110ba5791905b83831061109a575050505b7ffffffffffffffffffffffffffffffffffffffffffffffffffffffffffffffc18810190811161108857986103e8908181018091116110765760025587805260038b52888820805490828201809211611064578c8a9384937fddf252ad1be2c89b69c2b068fc378daa952ba7f163c4a11628f55a4df523b3ef93558c51908152a35b881561102357505090610ff5939291610fab88600254611420565b60025516848180965260038952868120610fc6898254611420565b90557fddf252ad1be2c89b69c2b068fc378daa952ba7f163c4a11628f55a4df523b3ef8988518a8152a361142d565b7f0f6798a560793a54c3bcfe86a93cde1e73087d944c0ea20544137d4121396885848351858152a251908152f35b90601d6064928b8a519362461bcd60e51b85528401528201527f496e73756666696369656e74206c6971756964697479206d696e7465640000006044820152fd5b838a601187634e487b7160e01b835252fd5b8289601186634e487b7160e01b835252fd5b5086601183634e487b7160e01b835252fd5b909192506110b1836110ac8184611400565b611420565b821c9190610f03565b848b601188634e487b7160e01b835252fd5b9015610f0e57506001610f0e565b9b6110f26110f894959d6106f7836106f795966113ed565b946113ed565b8082101561110857505b97610f90565b9050611102565b9094508881813d8311611137575b61112781836112ca565b8101031261017557519338610ead565b503d61111d565b87513d88823e3d90fd5b8380fd5b5050346101155781600319360112610115576020906008549051908152f35b5050346101155781600319360112610115576020906007549051908152f35b5050346101155781600319360112610115576020905160128152f35b5050346101155781600319360112610115576020906002549051908152f35b82843461088a578060031936011261088a575060075460085482519182526020820152f35b8490843461017957826003193601126101795782805461120981611290565b8085529160019180831690811561028657506001146112345750505061021c826102269403836112ca565b80809650527f290decd9548b62a8d60345a988386fc84ba6bc95484008f6362f93160ef3e5635b8286106112785750505061021c826020610226958201019461020a565b8054602087870181019190915290950194810161125b565b90600182811c921680156112c0575b60208310146112aa57565b634e487b7160e01b600052602260045260246000fd5b91607f169161129f565b90601f601f19910116810190811067ffffffffffffffff8211176112ed57604052565b634e487b7160e01b600052604160045260246000fd5b60208082528251818301819052939260005b85811061133757505050601f19601f8460006040809697860101520116010190565b818101830151848201604001528201611315565b6004359073ffffffffffffffffffffffffffffffffffffffff8216820361136e57565b600080fd5b81601f8201121561136e5780359067ffffffffffffffff82116112ed57604051926113a86020601f19601f86011601856112ca565b8284526020838301011161136e57816000926020809301838601378301015290565b919082039182116113d757565b634e487b7160e01b600052601160045260246000fd5b818102929181159184041417156113d757565b811561140a570490565b634e487b7160e01b600052601260045260246000fd5b919082018092116113d757565b6040907fcf2aa50876cdfbb541206f89af0ee78d44a2abf8d328e37fa4917f982149848a92816007558060085582519182526020820152a1565b9081602091031261136e5751801515810361136e579056fea164736f6c6343000814000aa164736f6c6343000814000a",
  "linkReferences": {},
  "deployedLinkReferences": {}
}