{
  "_format": "hh-sol-artifact-1",
  "contractName": "SimpleAMM",
  "sourceName": "contracts/SimpleAMM.sol",
  "abi": [
    {
      "inputs": [],
      "stateMutability": "nonpayable",
      "type": "constructor"
    },
    {
      "inputs": [],
      "name": "InsufficientLiquidity",
      "type": "error"
    },
    {
      "inputs": [],
      "name": "InvalidAmounts",
      "type": "error"
    },
    {
      "inputs": [],
      "name": "InvalidToken",
      "type": "error"
    },
    {
      "inputs": [
        {
          "internalType": "address",
          "name": "owner",
          "type": "address"
        }
      ],
      "name": "OwnableInvalidOwner",
      "type": "error"
    },
    {
      "inputs": [
        {
          "internalType": "address",
          "name": "account",
          "type": "address"
        }
      ],
      "name": "OwnableUnauthorizedAccount",
      "type": "error"
    },
    {
      "inputs": [],
      "name": "PairAlreadyExists",
      "type": "error"
    },
    {
      "inputs": [],
      "name": "PairNotFound",
      "type": "error"
    },
    {
      "inputs": [],
      "name": "ReentrancyGuardReentrantCall",
      "type": "error"
    },
    {
      "inputs": [],
      "name": "TransferFailed",
      "type": "error"
    },
    {
      "inputs": [],
      "name": "UnauthorizedCaller",
      "type": "error"
    },
    {
      "anonymous": false,
      "inputs": [
        {
          "indexed": true,
          "internalType": "address",
          "name": "account",
          "type": "address"
        },
        {
          "indexed": false,
          "internalType": "bool",
          "name": "authorized",
          "type": "bool"
        }
      ],
      "name": "AuthorizationUpdated",
      "type": "event"
    },
    {
      "anonymous": false,
      "inputs": [
        {
          "indexed": true,
          "internalType": "address",
          "name": "token",
          "type": "address"
        },
        {
          "indexed": false,
          "internalType": "uint256",
          "name": "amount",
          "type": "uint256"
        },
        {
          "indexed": true,
          "internalType": "address",
          "name": "to",
          "type": "address"
        }
      ],
      "name": "EmergencyWithdrawal",
      "type": "event"
    },
    {
      "anonymous": false,
      "inputs": [
        {
          "indexed": true,
          "internalType": "uint256",
          "name": "agentId",
          "type": "uint256"
        },
        {
          "indexed": true,
          "internalType": "address",
          "name": "tokenAddress",
          "type": "address"
        },
        {
          "indexed": true,
          "internalType": "address",
          "name": "lpPairAddress",
          "type": "address"
        },
        {
          "indexed": false,
          "internalType": "uint256",
          "name": "ethAmount",
          "type": "uint256"
        },
        {
          "indexed": false,
          "internalType": "uint256",
          "name": "tokenAmount",
          "type": "uint256"
        }
      ],
      "name": "LiquidityPoolCreated",
      "type": "event"
    },
    {
      "anonymous": false,
      "inputs": [
        {
          "indexed": true,
          "internalType": "address",
          "name": "previousOwner",
          "type": "address"
        },
        {
          "indexed": true,
          "internalType": "address",
          "name": "newOwner",
          "type": "address"
        }
      ],
      "name": "OwnershipTransferred",
      "type": "event"
    },
    {
      "anonymous": false,
      "inputs": [
        {
          "indexed": true,
          "internalType": "address",
          "name": "oldRouter",
          "type": "address"
        },
        {
          "indexed": true,
          "internalType": "address",
          "name": "newRouter",
          "type": "address"
        }
      ],
      "name": "RouterUpdated",
      "type": "event"
    },
    {
      "inputs": [],
      "name": "FEE_DENOMINATOR",
      "outputs": [
        {
          "internalType": "uint256",
          "name": "",
          "type": "uint256"
        }
      ],
      "stateMutability": "view",
      "type": "function"
    },
    {
      "inputs": [],
      "name": "FEE_RATE",
      "outputs": [
        {
          "internalType": "uint256",
          "name": "",
          "type": "uint256"
        }
      ],
      "stateMutability": "view",
      "type": "function"
    },
    {
      "inputs": [
        {
          "internalType": "uint256",
          "name": "agentId",
          "type": "uint256"
        },
        {
          "internalType": "uint256",
          "name": "tokenAmountDesired",
          "type": "uint256"
        },
        {
          "internalType": "uint256",
          "name": "tokenAmountMin",
          "type": "uint256"
        },
        {
          "internalType": "uint256",
          "name": "ethAmountMin",
          "type": "uint256"
        },
        {
          "internalType": "address",
          "name": "to",
          "type": "address"
        },
        {
          "internalType": "uint256",
          "name": "deadline",
          "type": "uint256"
        }
      ],
      "name": "addLiquidity",
      "outputs": [
        {
          "internalType": "uint256",
          "name": "amountToken",
          "type": "uint256"
        },
        {
          "internalType": "uint256",
          "name": "amountETH",
          "type": "uint256"
        },
        {
          "internalType": "uint256",
          "name": "liquidity",
          "type": "uint256"
        }
      ],
      "stateMutability": "payable",
      "type": "function"
    },
    {
      "inputs": [
        {
          "internalType": "uint256",
          "name": "",
          "type": "uint256"
        }
      ],
      "name": "agentPairs",
      "outputs": [
        {
          "internalType": "address",
          "name": "",
          "type": "address"
        }
      ],
      "stateMutability": "view",
      "type": "function"
    },
    {
      "inputs": [
        {
          "internalType": "uint256",
          "name": "",
          "type": "uint256"
        }
      ],
      "name": "allPairs",
      "outputs": [
        {
          "internalType": "address",
          "name": "",
          "type": "address"
        }
      ],
      "stateMutability": "view",
      "type": "function"
    },
    {
      "inputs": [],
      "name": "allPairsLength",
      "outputs": [
        {
          "internalType": "uint256",
          "name": "",
          "type": "uint256"
        }
      ],
      "stateMutability": "view",
      "type": "function"
    },
    {
      "inputs": [
        {
          "internalType": "address",
          "name": "",
          "type": "address"
        }
      ],
      "name": "authorizedCallers",
      "outputs": [
        {
          "internalType": "bool",
          "name": "",
          "type": "bool"
        }
      ],
      "stateMutability": "view",
      "type": "function"
    },
    {
      "inputs": [
        {
          "internalType": "uint256",
          "name": "agentId",
          "type": "uint256"
        },
        {
          "internalType": "address",
          "name": "tokenAddress",
          "type": "address"
        },
        {
          "internalType": "uint256",
          "name": "tokenAmount",
          "type": "uint256"
        },
        {
          "internalType": "string",
          "name": "agentConfigJSON",
          "type": "string"
        }
      ],
      "name": "createLiquidityPool",
      "outputs": [
        {
          "internalType": "address",
          "name": "lpPair",
          "type": "address"
        }
      ],
      "stateMutability": "payable",
      "type": "function"
    },
    {
      "inputs": [
        {
          "internalType": "address",
          "name": "token",
          "type": "address"
        },
        {
          "internalType": "address",
          "name": "to",
          "type": "address"
        },
        {
          "internalType": "uint256",
          "name": "amount",
          "type": "uint256"
        }
      ],
      "name": "emergencyTokenWithdraw",
      "outputs": [],
      "stateMutability": "nonpayable",
      "type": "function"
    },
    {
      "inputs": [
        {
          "internalType": "address",
          "name": "to",
          "type": "address"
        },
        {
          "internalType": "uint256",
          "name": "amount",
          "type": "uint256"
        }
      ],
      "name": "emergencyWithdraw",
      "outputs": [],
      "stateMutability": "nonpayable",
      "type": "function"
    },
    {
      "inputs": [],
      "name": "getAllPairs",
      "outputs": [
        {
          "internalType": "address[]",
          "name": "",
          "type": "address[]"
        }
      ],
      "stateMutability": "view",
      "type": "function"
    },
    {
      "inputs": [
        {
          "internalType": "uint256",
          "name": "amountOut",
          "type": "uint256"
        },
        {
          "internalType": "uint256",
          "name": "reserveIn",
          "type": "uint256"
        },
        {
          "internalType": "uint256",
          "name": "reserveOut",
          "type": "uint256"
        }
      ],
      "name": "getAmountIn",
      "outputs": [
        {
          "internalType": "uint256",
          "name": "amountIn",
          "type": "uint256"
        }
      ],
      "stateMutability": "pure",
      "type": "function"
    },
    {
      "inputs": [
        {
          "internalType": "uint256",
          "name": "amountIn",
          "type": "uint256"
        },
        {
          "internalType": "uint256",
          "name": "reserveIn",
          "type": "uint256"
        },
        {
          "internalType": "uint256",
          "name": "reserveOut",
          "type": "uint256"
        }
      ],
      "name": "getAmountOut",
      "outputs": [
        {
          "internalType": "uint256",
          "name": "amountOut",
          "type": "uint256"
        }
      ],
      "stateMutability": "pure",
      "type": "function"
    },
    {
      "inputs": [
        {
          "internalType": "uint256",
          "name": "agentId",
          "type": "uint256"
        }
      ],
      "name": "getLiquidityPool",
      "outputs": [
        {
          "internalType": "address",
          "name": "",
          "type": "address"
        }
      ],
      "stateMutability": "view",
      "type": "function"
    },
    {
      "inputs": [
        {
          "internalType": "uint256",
          "name": "agentId",
          "type": "uint256"
        }
      ],
      "name": "getReserves",
      "outputs": [
        {
          "internalType": "uint256",
          "name": "reserveETH",
          "type": "uint256"
        },
        {
          "internalType": "uint256",
          "name": "reserveToken",
          "type": "uint256"
        }
      ],
      "stateMutability": "view",
      "type": "function"
    },
    {
      "inputs": [
        {
          "internalType": "address",
          "name": "account",
          "type": "address"
        }
      ],
      "name": "isAuthorized",
      "outputs": [
        {
          "internalType": "bool",
          "name": "",
          "type": "bool"
        }
      ],
      "stateMutability": "view",
      "type": "function"
    },
    {
      "inputs": [],
      "name": "owner",
      "outputs": [
        {
          "internalType": "address",
          "name": "",
          "type": "address"
        }
      ],
      "stateMutability": "view",
      "type": "function"
    },
    {
      "inputs": [
        {
          "internalType": "address",
          "name": "",
          "type": "address"
        }
      ],
      "name": "pairToAgent",
      "outputs": [
        {
          "internalType": "uint256",
          "name": "",
          "type": "uint256"
        }
      ],
      "stateMutability": "view",
      "type": "function"
    },
    {
      "inputs": [
        {
          "internalType": "uint256",
          "name": "amountA",
          "type": "uint256"
        },
        {
          "internalType": "uint256",
          "name": "reserveA",
          "type": "uint256"
        },
        {
          "internalType": "uint256",
          "name": "reserveB",
          "type": "uint256"
        }
      ],
      "name": "quote",
      "outputs": [
        {
          "internalType": "uint256",
          "name": "amountB",
          "type": "uint256"
        }
      ],
      "stateMutability": "pure",
      "type": "function"
    },
    {
      "inputs": [],
      "name": "renounceOwnership",
      "outputs": [],
      "stateMutability": "nonpayable",
      "type": "function"
    },
    {
      "inputs": [
        {
          "internalType": "address",
          "name": "account",
          "type": "address"
        },
        {
          "internalType": "bool",
          "name": "authorized",
          "type": "bool"
        }
      ],
      "name": "setAuthorization",
      "outputs": [],
      "stateMutability": "nonpayable",
      "type": "function"
    },
    {
      "inputs": [
        {
          "internalType": "uint256",
          "name": "agentId",
          "type": "uint256"
        },
        {
          "internalType": "uint256",
          "name": "amountOutMin",
          "type": "uint256"
        },
        {
          "internalType": "address",
          "name": "to",
          "type": "address"
        },
        {
          "internalType": "uint256",
          "name": "deadline",
          "type": "uint256"
        }
      ],
      "name": "swapETHForTokens",
      "outputs": [
        {
          "internalType": "uint256[]",
          "name": "amounts",
          "type": "uint256[]"
        }
      ],
      "stateMutability": "payable",
      "type": "function"
    },
    {
      "inputs": [
        {
          "internalType": "uint256",
          "name": "agentId",
          "type": "uint256"
        },
        {
          "internalType": "uint256",
          "name": "amountIn",
          "type": "uint256"
        },
        {
          "internalType": "uint256",
          "name": "amountOutMin",
          "type": "uint256"
        },
        {
          "internalType": "address",
          "name": "to",
          "type": "address"
        },
        {
          "internalType": "uint256",
          "name": "deadline",
          "type": "uint256"
        }
      ],
      "name": "swapTokensForETH",
      "outputs": [
        {
          "internalType": "uint256[]",
          "name": "amounts",
          "type": "uint256[]"
        }
      ],
      "stateMutability": "nonpayable",
      "type": "function"
    },
    {
      "inputs": [
        {
          "internalType": "address",
          "name": "newOwner",
          "type": "address"
        }
      ],
      "name": "transferOwnership",
      "outputs": [],
      "stateMutability": "nonpayable",
      "type": "function"
    },
    {
      "stateMutability": "payable",
      "type": "receive"
    }
  ],
  "bytecode": "0x6080806040523461007e5733156100685760008054336001600160a01b03198216811783556040519290916001600160a01b0316907f8be0079c531659141344cd1fd0a4f28419497f9722a3daafe3b4186f6b6457e09080a360018055612b0390816100848239f35b631e4fbdf760e01b815260006004820152602490fd5b600080fdfe60406080815260049081361015610020575b5050361561001e57600080fd5b005b600091823560e01c8063054d50d41461129e5780631e3dd18b1461125e5780632d11c58a14611242578063536fff6c14611206578063574f2ba3146111e75780635bcca2be1461106e578063715018a61461102657806373c7759314610fee57806385f8c25914610f1e5780638da5cb5b14610ef65780638ea7495c14610ecc57806395ccea6714610e4a578063a74498aa14610988578063a8f0ad45146109dd578063ad615dec146109ba578063cbf846d714610988578063d73792a91461096b578063ded998b91461064f578063e3c856c414610419578063eecea0001461039a578063f2fde38b14610324578063f800ece91461025c578063fe9fbb80146102025763fef860b8146101355750610011565b346101fe5760603660031901126101fe5761014e611305565b9161015761131b565b906044359161016461136c565b6001600160a01b039081169461017b86151561180c565b16928482519163a9059cbb60e01b835282015282602482015260208160448189885af180156101f45791600080516020612ad783398151915293916020936101c7575b5051908152a380f35b6101e690843d81116101ed575b6101de81836113dc565b8101906114b2565b50386101be565b503d6101d4565b82513d88823e3d90fd5b8280fd5b50919034610258576020366003190112610258576020926001600160a01b038061022a611305565b1691828552855260ff838520541693841561024b575b505050519015158152f35b5416149150388080610240565b5080fd5b8284346103215780600319360112610321578151600580548083529083526020939284830192909183907f036b6384b5eca791c62761152d0c79bb0604c104a5fb6f4eb0703f3154bb3db090845b81811061030457505050816102c09103826113dc565b83519485948186019282875251809352850193925b8281106102e457505050500390f35b83516001600160a01b0316855286955093810193928101926001016102d5565b82546001600160a01b0316845292880192600192830192016102aa565b80fd5b50346101fe5760203660031901126101fe5761033e611305565b9061034761136c565b6001600160a01b039182169283156103845750506000548260018060a01b031982161760005516600080516020612ab7833981519152600080a380f35b51631e4fbdf760e01b8152908101849052602490fd5b5090346101fe57806003193601126101fe576103b4611305565b602435801515809103610415577f2c59b8f31260880424e870332281eba93ddfef67e37d699cebe5a7ba89f7a8a6926020926103ee61136c565b6001600160a01b0316808752948352808620805460ff191660ff841617905551908152a280f35b8480fd5b5090346101fe5760a03660031901126101fe576001600160a01b036024356064358281169081900361064a5761044d6114ec565b61045b60843542111561150f565b61046682151561159d565b8435865260209460028652838588205416801561063b578551630240bc6b60e21b81528892919087818481855afa80156105cb57906104af918591869161060c575b508761172b565b956104be6044358810156115e5565b8751637e062a3560e11b815289818581865afa90811561060257918a91869384916105d5575b508a51809481936323b872dd60e01b8352826105048d8a338d85016114ca565b0393165af180156105cb576105ae575b50803b156101fe57859183606492895196879586946336cd320560e11b865285015282602485015260448401525af180156105a457610590575b5061058c945082805194610561866113c1565b6002865236908601376105738461162e565b5261057d8361163b565b52600180555191829182611331565b0390f35b61059a8691611398565b610415578461054e565b84513d88823e3d90fd5b6105c490893d8b116101ed576101de81836113dc565b5038610514565b88513d86823e3d90fd5b6105f59150833d85116105fb575b6105ed81836113dc565b81019061155b565b386104e4565b503d6105e3565b89513d87823e3d90fd5b905061062e9150893d8b11610634575b61062681836113dc565b810190611545565b386104a8565b503d61061c565b50845163d719ab6960e01b8152fd5b600080fd5b5060c03660031901126101fe576001600160a01b03916024356084358481169081900361064a5761067e6114ec565b61068c60a43542111561150f565b833586526020906002825285848820541694851561095d578451630240bc6b60e21b8152858183818a5afa90811561082e5789908a9261093d575b50801580610935575b156108615750503493965b8551637e062a3560e11b8152908990858385818c5afa928315610857579289838c93610725968a9694610838575b508b518097819682956323b872dd60e01b8452338c85016114ca565b0393165af1801561082e57610811575b50878487828215610808575b839283928392f1156107fe57906024839289875198899485936335313c2160e11b85528401525af19384156107f45786946107c5575b50813411610795575b60609550600180558251948552840152820152f35b858080806107a3863461157a565b8181156107bc575b3390f16107805782513d87823e3d90fd5b506108fc6107ab565b9080945081813d83116107ed575b6107dd81836113dc565b8101031261064a57519238610777565b503d6107d3565b83513d88823e3d90fd5b84513d89823e3d90fd5b506108fc610741565b61082790843d86116101ed576101de81836113dc565b5038610735565b86513d8b823e3d90fd5b610850919450863d88116105fb576105ed81836113dc565b9238610709565b88513d84823e3d90fd5b61086f8282979397346116c3565b958287116108ca57505050604435841061088b573493966106db565b845162461bcd60e51b81529081018390526019602482015278125b9cdd59999a58da595b9d081d1bdad95b88185b5bdd5b9d603a1b6044820152606490fd5b826108d69397506116c3565b3481111580610929575b156108ec5793966106db565b855162461bcd60e51b81528083018590526017602482015276125b9cdd59999a58da595b9d0811551208185b5bdd5b9d604a1b6044820152606490fd5b506064358110156108e0565b5081156106d0565b90506109569150863d88116106345761062681836113dc565b90386106c7565b845163d719ab6960e01b8152fd5b505034610258578160031936011261025857602090516127108152f35b50346101fe5760203660031901126101fe5735825260026020908152918190205490516001600160a01b039091168152f35b505034610258576020906109d66109d0366112ba565b916116c3565b9051908152f35b5090600319926080843601126103215782356109f761131b565b6001600160401b0394909260443591606435919087831161025857366023840112156102585782810135928884116101fe576024809436920101116102585733825260209781895260ff88842054161580610e36575b610e2757610a596114ec565b6001600160a01b03968716968715610e175786845260028a52808985205416610e0757341591828015610dff575b610def5789519061126c80830191821183831017610ddd5790829161184b8339039085f09a8b15610d4c5789516306fdde0360e01b81529b858d86818d5afa8015610dd3578c9d8791610db9575b508b519c818e9251908183808601920191610aef926113ff565b82019081016602d455448204c560cc1b905203600781018d52602701610b15908d6113dc565b8a516395d89b4160e01b8152868187818e5afa908115610daf5791610b748f86938f918c926305a8aa8960e31b978d93610d8a575b50519682610b6189945180928580880191016113ff565b83019182015203898101865201846113dc565b169b8c3b15610d86578c8b88888f6060978397610bb28f98610bc194519b8c9a8b998a98639065714760e01b8a52890152870152606486019061148d565b9184830301604485015261148d565b03925af18015610d7c57610d69575b5086845260028b5288842080546001600160a01b0319168b17905589845260038b52888420879055600554600160401b811015610d5657806001610c1792016005556112d4565b815460039190911b8c811b93901b191691909117905587516323b872dd60e01b81528a8180610c4a898e338985016114ca565b0381878c5af18015610d4c5790849291610d2f575b508190610d26575b818080928c3491f115610d1a57889087519384916335313c2160e11b8352309083015281848b5af1908115610d0f57509187869288969594610cde575b5050907f3a892b22de9bdbbee773309ccc9f2efaedc27fdf0ce7fbd92826acc192b6e8379181519034825289820152a46001805551908152f35b9195508092503d8311610d08575b610cf681836113dc565b8101031261064a578385938738610ca4565b503d610cec565b8651903d90823e3d90fd5b508551903d90823e3d90fd5b506108fc610c67565b610d45908c8d3d106101ed576101de81836113dc565b5038610c5f565b89513d86823e3d90fd5b5050634e487b7160e01b83525060419052fd5b610d7590949194611398565b9238610bd0565b8a513d87823e3d90fd5b8680fd5b610da89193508d3d8091833e610da081836113dc565b810190611422565b9138610b4a565b8c513d89823e3d90fd5b610dcd91503d8089833e610da081836113dc565b38610ad5565b8b513d88823e3d90fd5b634e487b7160e01b8752604186528787fd5b8951636c2b7e2d60e11b81528490fd5b508615610a87565b885163c9bb25eb60e01b81528390fd5b885163c1ab6dc160e01b81528390fd5b508651635c427cd960e01b8152fd5b5082546001600160a01b0316331415610a4d565b50503461025857806003193601126102585781610e65611305565b60243590610e7161136c565b6001600160a01b031692610e8684151561180c565b828285828215610ec3575b839283928392f115610eb857600080516020612ad78339815191529160209151908152a380f35b51913d9150823e3d90fd5b506108fc610e91565b5082346103215760203660031901126103215750610eea9035611792565b82519182526020820152f35b505034610258578160031936011261025857905490516001600160a01b039091168152602090f35b5091903461025857610f58610f32366112ba565b92908290610f418215156115e5565b80151580610fe5575b610f539061164b565b611690565b916103e892838102938185041490151715610fd25790610f779161157a565b906103e591828102928184041490151715610fbf5790610f96916116a3565b9160018301809311610fac576020838351908152f35b634e487b7160e01b815260118452602490fd5b634e487b7160e01b845260118552602484fd5b634e487b7160e01b855260118652602485fd5b50841515610f4a565b5050346102585760203660031901126102585760209181906001600160a01b03611016611305565b1681526003845220549051908152f35b833461032157806003193601126103215761103f61136c565b80546001600160a01b03198116825581906001600160a01b0316600080516020612ab78339815191528280a380f35b509060803660031901126101fe576001600160a01b039160443583811691908290036104155761109c6114ec565b6110aa60643542111561150f565b3415936110b7851561159d565b813586526002602052838620541680156111d8578351630240bc6b60e21b81528692919085818481855afa9081156111ce5784916110ff91839084926111ae575b503461172b565b9661110e6024358910156115e5565b81906111a5575b81808092853491f11561119b57803b156101fe57829182606492875196879586946336cd320560e11b865285015289602485015260448401525af180156111915761058c9450611182575b5080519161116d836113c1565b6002835281366020850137346105738461162e565b61118b90611398565b38611160565b82513d86823e3d90fd5b84513d84823e3d90fd5b506108fc611115565b90506111c79150883d8a116106345761062681836113dc565b90386110f8565b86513d86823e3d90fd5b50825163d719ab6960e01b8152fd5b5050346102585781600319360112610258576020906005549051908152f35b50346101fe5760203660031901126101fe5760209260ff918391906001600160a01b03611231611305565b168252855220541690519015158152f35b50503461025857816003193601126102585760209051601e8152f35b50346101fe5760203660031901126101fe57359160055483101561032157506112886020926112d4565b905491519160018060a01b039160031b1c168152f35b505034610258576020906109d66112b4366112ba565b9161172b565b606090600319011261064a57600435906024359060443590565b6005548110156112ef57600560005260206000200190600090565b634e487b7160e01b600052603260045260246000fd5b600435906001600160a01b038216820361064a57565b602435906001600160a01b038216820361064a57565b6020908160408183019282815285518094520193019160005b828110611358575050505090565b83518552938101939281019260010161134a565b6000546001600160a01b0316330361138057565b60405163118cdaa760e01b8152336004820152602490fd5b6001600160401b0381116113ab57604052565b634e487b7160e01b600052604160045260246000fd5b606081019081106001600160401b038211176113ab57604052565b601f909101601f19168101906001600160401b038211908210176113ab57604052565b60005b8381106114125750506000910152565b8181015183820152602001611402565b60208183031261064a5780516001600160401b039182821161064a57019082601f8301121561064a5781519081116113ab576040519261146c601f8301601f1916602001856113dc565b8184526020828401011161064a5761148a91602080850191016113ff565b90565b906020916114a6815180928185528580860191016113ff565b601f01601f1916010190565b9081602091031261064a5751801515810361064a5790565b6001600160a01b03918216815291166020820152604081019190915260600190565b6002600154146114fd576002600155565b604051633ee5aeb560e01b8152600490fd5b1561151657565b60405162461bcd60e51b8152602060048201526007602482015266115e1c1a5c995960ca1b6044820152606490fd5b919082604091031261064a576020825192015190565b9081602091031261064a57516001600160a01b038116810361064a5790565b9190820391821161158757565b634e487b7160e01b600052601160045260246000fd5b156115a457565b60405162461bcd60e51b8152602060048201526019602482015278125b9cdd59999a58da595b9d081a5b9c1d5d08185b5bdd5b9d603a1b6044820152606490fd5b156115ec57565b60405162461bcd60e51b815260206004820152601a602482015279125b9cdd59999a58da595b9d081bdd5d1c1d5d08185b5bdd5b9d60321b6044820152606490fd5b8051156112ef5760200190565b8051600110156112ef5760400190565b1561165257565b60405162461bcd60e51b8152602060048201526016602482015275496e73756666696369656e74206c697175696469747960501b6044820152606490fd5b8181029291811591840414171561158757565b81156116ad570490565b634e487b7160e01b600052601260045260246000fd5b80156116f05761148a926116e291831515806116e757610f539061164b565b6116a3565b50811515610f4a565b60405162461bcd60e51b8152602060048201526013602482015272125b9cdd59999a58da595b9d08185b5bdd5b9d606a1b6044820152606490fd5b801592611738841561159d565b821593841580611789575b61174c9061164b565b6103e5808402938404141715611587576117669082611690565b926103e88084029384041417156115875781018091116115875761148a916116a3565b50811515611743565b600090815260026020526040808220546001600160a01b031680156118055781600491815192838092630240bc6b60e21b82525afa9182156117fc5783926117db575b50509091565b6117f5935080919250903d106106345761062681836113dc565b38806117d5565b513d84823e3d90fd5b5050908190565b1561181357565b60405162461bcd60e51b815260206004820152600f60248201526e496e76616c6964206164647265737360881b6044820152606490fdfe6080806040523461002857600680546001600160a01b0319163317905561123e908161002e8239f35b600080fdfe6080604081815260049182361015610022575b505050361561002057600080fd5b005b600092833560e01c91826306fdde0314610f8f575081630902f1ac14610f6a57816318160ddd14610f4b578163313ce56714610f2f578163443cb4bc14610f105781635a76f25e14610ef15781636a62784214610c325781636d9a640a1461081e57816370a08231146107e657816389afcb4414610540578163906571471461026857816395d89b41146101aa578163ba9a7a561461018d578163c45a015514610164578163dd62ed3e1461010d575063fc0c546a146100e25780610012565b3461010957816003193601126101095760055490516001600160a01b039091168152602090f35b5080fd5b9050346101605781600319360112610160576101276110d0565b6001600160a01b0360243581811693929084900361015c57168452602090815282842091845290815291819020549051908152f35b8580fd5b8280fd5b50503461010957816003193601126101095760065490516001600160a01b039091168152602090f35b505034610109578160031936011261010957602090516103e88152f35b5050346101095781600319360112610109578051908260018054906101ce82611014565b808652918181169081156102405750600114610205575b5050506101f78261020194038361104e565b5191829182611087565b0390f35b80955082526020948583205b82841061022d5750505082610201946101f792820101946101e5565b8054868501880152928601928101610211565b61020197506101f79450602092508693915060ff191682840152151560051b820101946101e5565b83915034610109576060366003190112610109576102846110d0565b906001600160401b039060243582811161053c576102a590369083016110eb565b9060443583811161015c576102bd90369083016110eb565b60065490966001600160a01b03918216330361050b5750600580546001600160a01b0319169190951617845581518381116104f857806102fd8754611014565b93601f948581116104ac575b5060209085831160011461044957889261043e575b50508160011b916000199060031b1c19161785555b855192831161042b575060019261034a8454611014565b908282116103e8575b5050602090821160011461038d57839482939492610382575b5050600019600383901b1c191690821b17905580f35b01519050848061036c565b82845280842090601f198316855b8181106103d257509583859697106103b9575b505050811b01905580f35b015160001960f88460031b161c191690558480806103ae565b878301518455928501926020928301920161039b565b848652602086209083808601821c83019360208710610422575b01901c019084905b8281106104175750610353565b86815501849061040a565b93508293610402565b634e487b7160e01b855260419052602484fd5b01519050888061031e565b8880528189209250601f198416895b818110610494575090846001959493921061047b575b505050811b018555610333565b015160001960f88460031b161c1916905588808061046e565b92936020600181928786015181550195019301610458565b9091508780526020882085808501891c820192602086106104ef575b90859493929101891c01905b8181106104e15750610309565b8981558493506001016104d4565b925081926104c8565b634e487b7160e01b865260418252602486fd5b5162461bcd60e51b8152602081840152600c60248201526b4f6e6c7920666163746f727960a01b6044820152606490fd5b8480fd5b9050823461070b576020806003193601126101095761055d6110d0565b91479060018060a01b0390816005541687519685886024816370a0823160e01b9586825230868301525afa9788156107575783986107b7575b50308352600386526105cb6105af8a8520549687611164565b6105c66105bf6002548093611177565b9a88611164565b611177565b9688158015806107ae575b1561076b578490308252600389528b82206105f2898254611141565b905561060088600254611141565b600255818c518981526000805160206112128339815191528b3092a38a8291610761575b8280929181928a871690f1156107575786888b61065b93878960055416925180968195829463a9059cbb60e01b84528a84016111f6565b03925af1801561074d5790879291610720575b506024479560055416938b519485938492835230908301525afa9182156107155780926106e0575b50506106a1916111a4565b8451908152838282015282858201527f743033787f4738ff4d6a7225ce2bd0977ee5f86b91a902a58f5e4d0b297b464460603392a28351928352820152f35b9091508482813d831161070e575b6106f8818361104e565b8101031261070b5750516106a188610696565b80fd5b503d6106ee565b8851903d90823e3d90fd5b61073f90833d8511610746575b610737818361104e565b8101906111de565b508a61066e565b503d61072d565b8a513d86823e3d90fd5b89513d85823e3d90fd5b6108fc9150610624565b8a5162461bcd60e51b8152808401899052601d60248201527f496e73756666696369656e74206c6971756964697479206275726e65640000006044820152606490fd5b508815156105d6565b9097508581813d83116107df575b6107cf818361104e565b8101031261016057519689610596565b503d6107c5565b5050346101095760203660031901126101095760209181906001600160a01b0361080e6110d0565b1681526003845220549051908152f35b91905034610160576060366003190112610160576001600160a01b0360443581811693602493843593823593919291878103610c2e57841580158082610c25575b15610be657600754871080610bdb575b15610ba057868a8994938d93610b69575b5050505081610b03575b505047906005541683519182916370a0823160e01b83523085840152828960209586935afa918215610af9578a92610ac6575b50600754936108cc8786611141565b821115610abf576108e66108e08887611141565b83611141565b985b600854956108f68a88611141565b851115610ab85761091061090a8b89611141565b86611141565b965b8b15801581610aaf575b15610a71576103e89081870290878204831488151715610a4a57908e91600383029283046003141715610a4a579061095391611141565b90808802908882041488151715610a5e5760038a02908a82046003148b151715610a4a579161098961098f926109959594611141565b90611164565b92611164565b90620f424091828102928184041490151715610a3857106109f9575050916109e57f49926bbebe8474393f434dfa4f78694c0923efa07d19f2284518bfabd06eb7379896949260809896946111a4565b82519586528501528301526060820152a280f35b865162461bcd60e51b8152918201859052601a908201527912c81a5b9d985c9a585b9d081b9bdd081b585a5b9d185a5b995960321b6044820152606490fd5b634e487b7160e01b8e5260118452828efd5b5050634e487b7160e01b8f5260118552838ffd5b50634e487b7160e01b8f5260118552838ffd5b895162461bcd60e51b815280860189905260198186015278125b9cdd59999a58da595b9d081a5b9c1d5d08185b5bdd5b9d603a1b6044820152606490fd5b5088151561091c565b8c96610912565b8a986108e8565b9091508281813d8311610af2575b610ade818361104e565b81010312610aee575190386108bd565b8980fd5b503d610ad4565b85513d8c823e3d90fd5b610b2b916020918460055416908c885180968195829463a9059cbb60e01b84528b84016111f6565b03925af18015610b5f57610b41575b859061088a565b610b589060203d811161074657610737818361104e565b5038610b3a565b84513d8b823e3d90fd5b9091928094955090610b97575b839283928392f115610b8d57859089868a38610880565b83513d8a823e3d90fd5b506108fc610b76565b855162461bcd60e51b81526020818701526016818b015275496e73756666696369656e74206c697175696469747960501b6044820152606490fd5b50600854881061086f565b855162461bcd60e51b8152602081870152601a818b015279125b9cdd59999a58da595b9d081bdd5d1c1d5d08185b5bdd5b9d60321b6044820152606490fd5b5087151561085f565b8880fd5b919050346101605760209182600319360112610eed57928293610c536110d0565b60055484516370a0823160e01b81523081850152602496909347936001600160a01b039390929086908a90829087165afa948515610ee3578695610eb4575b5060075497610ca18986611141565b60085490610caf8289611141565b916002549b8c15600014610e7f57505090610cc991611164565b876003821115610e7157508060019080821c828101809111610e5f5791905b838310610e3f575050505b6103e7198101908111610e2d57986103e890818101809111610e1b5760025587805260038b52888820805490828201809211610e09578c8a93849360008051602061121283398151915293558c51908152a35b8815610dc757505090610d99939291610d6188600254611197565b60025516848180965260038952868120610d7c898254611197565b90556000805160206112128339815191528988518a8152a36111a4565b7f0f6798a560793a54c3bcfe86a93cde1e73087d944c0ea20544137d4121396885848351858152a251908152f35b875162461bcd60e51b81529182018a9052601d908201527f496e73756666696369656e74206c6971756964697479206d696e7465640000006044820152606490fd5b634e487b7160e01b8a5260118552838afd5b634e487b7160e01b8952601184528289fd5b50634e487b7160e01b87526011825286fd5b90919250610e5683610e518184611177565b611197565b821c9190610ce8565b634e487b7160e01b8b5260118652848bfd5b9015610cf357506001610cf3565b9b610e97610e9d94959d6105c6836105c69596611164565b94611164565b80821015610ead57505b97610d46565b9050610ea7565b9094508881813d8311610edc575b610ecc818361104e565b8101031261015c57519338610c92565b503d610ec2565b87513d88823e3d90fd5b8380fd5b5050346101095781600319360112610109576020906008549051908152f35b5050346101095781600319360112610109576020906007549051908152f35b5050346101095781600319360112610109576020905160128152f35b5050346101095781600319360112610109576020906002549051908152f35b82843461070b578060031936011261070b575060075460085482519182526020820152f35b84908434610160578260031936011261016057828054610fae81611014565b808552906001908181169081156102405750600114610fd9575050506101f78261020194038361104e565b94508180526020948583205b8284106110015750505082610201946101f792820101946101e5565b8054868501880152928601928101610fe5565b90600182811c92168015611044575b602083101461102e57565b634e487b7160e01b600052602260045260246000fd5b91607f1691611023565b601f909101601f19168101906001600160401b0382119082101761107157604052565b634e487b7160e01b600052604160045260246000fd5b6020808252825181830181905290939260005b8281106110bc57505060409293506000838284010152601f8019910116010190565b81810186015184820160400152850161109a565b600435906001600160a01b03821682036110e657565b600080fd5b81601f820112156110e6578035906001600160401b038211611071576040519261111f601f8401601f19166020018561104e565b828452602083830101116110e657816000926020809301838601378301015290565b9190820391821161114e57565b634e487b7160e01b600052601160045260246000fd5b8181029291811591840414171561114e57565b8115611181570490565b634e487b7160e01b600052601260045260246000fd5b9190820180921161114e57565b6040907fcf2aa50876cdfbb541206f89af0ee78d44a2abf8d328e37fa4917f982149848a92816007558060085582519182526020820152a1565b908160209103126110e6575180151581036110e65790565b6001600160a01b03909116815260208101919091526040019056feddf252ad1be2c89b69c2b068fc378daa952ba7f163c4a11628f55a4df523b3efa164736f6c6343000814000a8be0079c531659141344cd1fd0a4f28419497f9722a3daafe3b4186f6b6457e03ab9db27a4cdd8c603a752b62d5fbd93b4b3509fe2596708e9688e42bbac3576a164736f6c6343000814000a",
  "linkReferences": {},
  "deployedLinkReferences": {}
}