{
  "_format": "hh-sol-artifact-1",
  "contractName": "SimplePair",
  "sourceName": "contracts/SimpleAMM.sol",
  "abi": [
    {
      "inputs": [],
      "stateMutability": "nonpayable",
      "type": "constructor"
    },
    {
      "anonymous": false,
      "inputs": [
        {
          "indexed": true,
          "internalType": "address",
          "name": "owner",
          "type": "address"
        },
        {
          "indexed": true,
          "internalType": "address",
          "name": "spender",
          "type": "address"
        },
        {
          "indexed": false,
          "internalType": "uint256",
          "name": "value",
          "type": "uint256"
        }
      ],
      "name": "Approval",
      "type": "event"
    },
    {
      "anonymous": false,
      "inputs": [
        {
          "indexed": true,
          "internalType": "address",
          "name": "from",
          "type": "address"
        },
        {
          "indexed": false,
          "internalType": "uint256",
          "name": "value",
          "type": "uint256"
        },
        {
          "indexed": false,
          "internalType": "uint256",
          "name": "amount0",
          "type": "uint256"
        },
        {
          "indexed": false,
          "internalType": "uint256",
          "name": "amount1",
          "type": "uint256"
        }
      ],
      "name": "Burn",
      "type": "event"
    },
    {
      "anonymous": false,
      "inputs": [
        {
          "indexed": true,
          "internalType": "address",
          "name": "to",
          "type": "address"
        },
        {
          "indexed": false,
          "internalType": "uint256",
          "name": "value",
          "type": "uint256"
        }
      ],
      "name": "Mint",
      "type": "event"
    },
    {
      "anonymous": false,
      "inputs": [
        {
          "indexed": true,
          "internalType": "address",
          "name": "to",
          "type": "address"
        },
        {
          "indexed": false,
          "internalType": "uint256",
          "name": "amount0In",
          "type": "uint256"
        },
        {
          "indexed": false,
          "internalType": "uint256",
          "name": "amount1In",
          "type": "uint256"
        },
        {
          "indexed": false,
          "internalType": "uint256",
          "name": "amount0Out",
          "type": "uint256"
        },
        {
          "indexed": false,
          "internalType": "uint256",
          "name": "amount1Out",
          "type": "uint256"
        }
      ],
      "name": "Swap",
      "type": "event"
    },
    {
      "anonymous": false,
      "inputs": [
        {
          "indexed": false,
          "internalType": "uint256",
          "name": "reserve0",
          "type": "uint256"
        },
        {
          "indexed": false,
          "internalType": "uint256",
          "name": "reserve1",
          "type": "uint256"
        }
      ],
      "name": "Sync",
      "type": "event"
    },
    {
      "anonymous": false,
      "inputs": [
        {
          "indexed": true,
          "internalType": "address",
          "name": "from",
          "type": "address"
        },
        {
          "indexed": true,
          "internalType": "address",
          "name": "to",
          "type": "address"
        },
        {
          "indexed": false,
          "internalType": "uint256",
          "name": "value",
          "type": "uint256"
        }
      ],
      "name": "Transfer",
      "type": "event"
    },
    {
      "inputs": [],
      "name": "MINIMUM_LIQUIDITY",
      "outputs": [
        {
          "internalType": "uint256",
          "name": "",
          "type": "uint256"
        }
      ],
      "stateMutability": "view",
      "type": "function"
    },
    {
      "inputs": [
        {
          "internalType": "address",
          "name": "",
          "type": "address"
        },
        {
          "internalType": "address",
          "name": "",
          "type": "address"
        }
      ],
      "name": "allowance",
      "outputs": [
        {
          "internalType": "uint256",
          "name": "",
          "type": "uint256"
        }
      ],
      "stateMutability": "view",
      "type": "function"
    },
    {
      "inputs": [
        {
          "internalType": "address",
          "name": "",
          "type": "address"
        }
      ],
      "name": "balanceOf",
      "outputs": [
        {
          "internalType": "uint256",
          "name": "",
          "type": "uint256"
        }
      ],
      "stateMutability": "view",
      "type": "function"
    },
    {
      "inputs": [
        {
          "internalType": "address",
          "name": "to",
          "type": "address"
        }
      ],
      "name": "burn",
      "outputs": [
        {
          "internalType": "uint256",
          "name": "amount0",
          "type": "uint256"
        },
        {
          "internalType": "uint256",
          "name": "amount1",
          "type": "uint256"
        }
      ],
      "stateMutability": "nonpayable",
      "type": "function"
    },
    {
      "inputs": [],
      "name": "decimals",
      "outputs": [
        {
          "internalType": "uint8",
          "name": "",
          "type": "uint8"
        }
      ],
      "stateMutability": "view",
      "type": "function"
    },
    {
      "inputs": [],
      "name": "factory",
      "outputs": [
        {
          "internalType": "address",
          "name": "",
          "type": "address"
        }
      ],
      "stateMutability": "view",
      "type": "function"
    },
    {
      "inputs": [],
      "name": "getReserves",
      "outputs": [
        {
          "internalType": "uint256",
          "name": "_reserve0",
          "type": "uint256"
        },
        {
          "internalType": "uint256",
          "name": "_reserve1",
          "type": "uint256"
        }
      ],
      "stateMutability": "view",
      "type": "function"
    },
    {
      "inputs": [
        {
          "internalType": "address",
          "name": "_token",
          "type": "address"
        },
        {
          "internalType": "string",
          "name": "_name",
          "type": "string"
        },
        {
          "internalType": "string",
          "name": "_symbol",
          "type": "string"
        }
      ],
      "name": "initialize",
      "outputs": [],
      "stateMutability": "nonpayable",
      "type": "function"
    },
    {
      "inputs": [
        {
          "internalType": "address",
          "name": "to",
          "type": "address"
        }
      ],
      "name": "mint",
      "outputs": [
        {
          "internalType": "uint256",
          "name": "liquidity",
          "type": "uint256"
        }
      ],
      "stateMutability": "nonpayable",
      "type": "function"
    },
    {
      "inputs": [],
      "name": "name",
      "outputs": [
        {
          "internalType": "string",
          "name": "",
          "type": "string"
        }
      ],
      "stateMutability": "view",
      "type": "function"
    },
    {
      "inputs": [],
      "name": "reserve0",
      "outputs": [
        {
          "internalType": "uint256",
          "name": "",
          "type": "uint256"
        }
      ],
      "stateMutability": "view",
      "type": "function"
    },
    {
      "inputs": [],
      "name": "reserve1",
      "outputs": [
        {
          "internalType": "uint256",
          "name": "",
          "type": "uint256"
        }
      ],
      "stateMutability": "view",
      "type": "function"
    },
    {
      "inputs": [
        {
          "internalType": "uint256",
          "name": "amount0Out",
          "type": "uint256"
        },
        {
          "internalType": "uint256",
          "name": "amount1Out",
          "type": "uint256"
        },
        {
          "internalType": "address",
          "name": "to",
          "type": "address"
        }
      ],
      "name": "swap",
      "outputs": [],
      "stateMutability": "nonpayable",
      "type": "function"
    },
    {
      "inputs": [],
      "name": "symbol",
      "outputs": [
        {
          "internalType": "string",
          "name": "",
          "type": "string"
        }
      ],
      "stateMutability": "view",
      "type": "function"
    },
    {
      "inputs": [],
      "name": "token",
      "outputs": [
        {
          "internalType": "address",
          "name": "",
          "type": "address"
        }
      ],
      "stateMutability": "view",
      "type": "function"
    },
    {
      "inputs": [],
      "name": "totalSupply",
      "outputs": [
        {
          "internalType": "uint256",
          "name": "",
          "type": "uint256"
        }
      ],
      "stateMutability": "view",
      "type": "function"
    },
    {
      "stateMutability": "payable",
      "type": "receive"
    }
  ],
  "bytecode": "0x6080806040523461002857600680546001600160a01b0319163317905561148c908161002e8239f35b600080fdfe6080604081815260049182361015610022575b505050361561002057600080fd5b005b600092833560e01c91826306fdde03146111ea575081630902f1ac146111c557816318160ddd146111a6578163313ce5671461118a578163443cb4bc1461116b5781635a76f25e1461114c5781636a62784214610e2b5781636d9a640a146109a857816370a082311461096457816389afcb441461064a57816390657147146102cc57816395d89b41146101cf578163ba9a7a56146101b2578163c45a01551461017d578163dd62ed3e14610119575063fc0c546a146100e25780610012565b3461011557816003193601126101155760209073ffffffffffffffffffffffffffffffffffffffff600554169051908152f35b5080fd5b90503461017957816003193601126101795761013361134b565b906024359173ffffffffffffffffffffffffffffffffffffffff9081841680940361017557168452602090815282842091845290815291819020549051908152f35b8580fd5b8280fd5b50503461011557816003193601126101155760209073ffffffffffffffffffffffffffffffffffffffff600654169051908152f35b505034610115578160031936011261011557602090516103e88152f35b5050346101155781600319360112610115578051908260018054916101f383611290565b80865292828116908115610286575060011461022a575b50505061021c826102269403836112ca565b5191829182611303565b0390f35b94508085527fb10e2d527612073b26eecdfd717e6a320cf44b4afac2b0732d9fcbe2b7fa0cf65b82861061026e5750505061021c826020610226958201019461020a565b80546020878701810191909152909501948101610251565b61022697508693506020925061021c9491507fffffffffffffffffffffffffffffffffffffffffffffffffffffffffffffff001682840152151560051b8201019461020a565b83915034610115576060600319360112610115576102e861134b565b9067ffffffffffffffff906024358281116106465761030a9036908301611373565b90604435838111610175576103229036908301611373565b9573ffffffffffffffffffffffffffffffffffffffff90816006541633036106045750600594167fffffffffffffffffffffffff000000000000000000000000000000000000000085541617845581518381116105f157806103848754611290565b93601f94858111610588575b506020908583116001146105095788926104fe575b50506000198260011b9260031b1c19161785555b85519283116104eb57506001926103d08454611290565b9082821161048b575b5050602090821160011461041257839482939492610407575b505060001982841b9260031b1c191617905580f35b0151905084806103f2565b8284527fb10e2d527612073b26eecdfd717e6a320cf44b4afac2b0732d9fcbe2b7fa0cf690601f198316855b818110610475575095838596971061045c575b505050811b01905580f35b015160001960f88460031b161c19169055848080610451565b878301518455928501926020928301920161043e565b8486527fb10e2d527612073b26eecdfd717e6a320cf44b4afac2b0732d9fcbe2b7fa0cf69083808601821c830193602087106104e2575b01901c019084905b8281106104d757506103d9565b8681550184906104ca565b935082936104c2565b846041602492634e487b7160e01b835252fd5b0151905088806103a5565b8880527f290decd9548b62a8d60345a988386fc84ba6bc95484008f6362f93160ef3e56392601f1916895b8181106105705750908460019594939210610557575b505050811b0185556103b9565b015160001960f88460031b161c1916905588808061054a565b92936020600181928786015181550195019301610534565b9091508780527f290decd9548b62a8d60345a988386fc84ba6bc95484008f6362f93160ef3e56385808501891c820192602086106105e8575b90859493929101891c01905b8181106105da5750610390565b8981558493506001016105cd565b925081926105c1565b602486604184634e487b7160e01b835252fd5b5162461bcd60e51b8152602081840152600c60248201527f4f6e6c7920666163746f727900000000000000000000000000000000000000006044820152606490fd5b8480fd5b9050823461088a576020806003193601126101155761066761134b565b91479073ffffffffffffffffffffffffffffffffffffffff90816005541687519685886024817f70a08231000000000000000000000000000000000000000000000000000000009586825230868301525afa9788156108d6578398610935575b50308352600386526106fc6106e08a85205496876113ed565b6106f76106f06002548093611400565b9a886113ed565b611400565b96881580158061092c575b156108ea578490308252600389528b82206107238982546113ca565b9055610731886002546113ca565b600255818c518981527fddf252ad1be2c89b69c2b068fc378daa952ba7f163c4a11628f55a4df523b3ef8b3092a38a82916108e0575b8280929181928a871690f1156108d65786888b6107da9387896005541692518096819582947fa9059cbb0000000000000000000000000000000000000000000000000000000084528a84016020909392919373ffffffffffffffffffffffffffffffffffffffff60408201951681520152565b03925af180156108cc579087929161089f575b506024479560055416938b519485938492835230908301525afa91821561089457809261085f575b50506108209161142d565b8451908152838282015282858201527f743033787f4738ff4d6a7225ce2bd0977ee5f86b91a902a58f5e4d0b297b464460603392a28351928352820152f35b9091508482813d831161088d575b61087781836112ca565b8101031261088a57505161082088610815565b80fd5b503d61086d565b8851903d90823e3d90fd5b6108be90833d85116108c5575b6108b681836112ca565b810190611467565b508a6107ed565b503d6108ac565b8a513d86823e3d90fd5b89513d85823e3d90fd5b6108fc9150610767565b606483898d519162461bcd60e51b8352820152601d60248201527f496e73756666696369656e74206c6971756964697479206275726e65640000006044820152fd5b50881515610707565b9097508581813d831161095d575b61094d81836112ca565b81010312610179575196896106c7565b503d610943565b505034610115576020600319360112610115578060209273ffffffffffffffffffffffffffffffffffffffff61099861134b565b1681526003845220549051908152f35b91905034610179576060600319360112610179578135906024918235916044359473ffffffffffffffffffffffffffffffffffffffff80871696878103610e2757841580158082610e1e575b15610ddc57600754871080610dd1575b15610d8f57868a8994938d93610d58575b5050505081610cb6575b505047906005541683519182917f70a082310000000000000000000000000000000000000000000000000000000083523085840152828960209586935afa918215610cac578a92610c79575b5060075493610a7a87866113ca565b821115610c7257610a94610a8e88876113ca565b836113ca565b985b60085495610aa48a886113ca565b851115610c6b57610abe610ab88b896113ca565b866113ca565b965b8b15801581610c62575b15610c21576103e89081870290878204831488151715610bfa57908e91600383029283046003141715610bfa5790610b01916113ca565b90808802908882041488151715610c0e5760038a02908a82046003148b151715610bfa5791610b37610b3d92610b4395946113ca565b906113ed565b926113ed565b90620f424091828102928184041490151715610be85710610ba757505091610b937f49926bbebe8474393f434dfa4f78694c0923efa07d19f2284518bfabd06eb73798969492608098969461142d565b82519586528501528301526060820152a280f35b90601a6064928689519362461bcd60e51b85528401528201527f4b20696e76617269616e74206e6f74206d61696e7461696e65640000000000006044820152fd5b828e601186634e487b7160e01b835252fd5b5050838f601187634e487b7160e01b835252fd5b50838f601187634e487b7160e01b835252fd5b6064856019868b8e519362461bcd60e51b85528401528201527f496e73756666696369656e7420696e70757420616d6f756e74000000000000006044820152fd5b50881515610aca565b8c96610ac0565b8a98610a96565b9091508281813d8311610ca5575b610c9181836112ca565b81010312610ca157519038610a6b565b8980fd5b503d610c87565b85513d8c823e3d90fd5b610d1a916020918460055416908c88518096819582947fa9059cbb0000000000000000000000000000000000000000000000000000000084528b84016020909392919373ffffffffffffffffffffffffffffffffffffffff60408201951681520152565b03925af18015610d4e57610d30575b8590610a1f565b610d479060203d81116108c5576108b681836112ca565b5038610d29565b84513d8b823e3d90fd5b9091928094955090610d86575b839283928392f115610d7c57859089868a38610a15565b83513d8a823e3d90fd5b506108fc610d65565b60648560168b60208a519362461bcd60e51b85528401528201527f496e73756666696369656e74206c6971756964697479000000000000000000006044820152fd5b506008548810610a04565b606485601a8b60208a519362461bcd60e51b85528401528201527f496e73756666696369656e74206f757470757420616d6f756e740000000000006044820152fd5b508715156109f4565b8880fd5b91905034610179576020918260031936011261114857928293610e4c61134b565b479073ffffffffffffffffffffffffffffffffffffffff908160055416938651978880967f70a08231000000000000000000000000000000000000000000000000000000008252308483015260249a8b915afa94851561113e57869561110f575b5060075497610ebc89866113ca565b60085490610eca82896113ca565b916002549b8c156000146110da57505090610ee4916113ed565b8760038211156110cc57508060019080821c8281018091116110ba5791905b83831061109a575050505b7ffffffffffffffffffffffffffffffffffffffffffffffffffffffffffffffc18810190811161108857986103e8908181018091116110765760025587805260038b52888820805490828201809211611064578c8a9384937fddf252ad1be2c89b69c2b068fc378daa952ba7f163c4a11628f55a4df523b3ef93558c51908152a35b881561102357505090610ff5939291610fab88600254611420565b60025516848180965260038952868120610fc6898254611420565b90557fddf252ad1be2c89b69c2b068fc378daa952ba7f163c4a11628f55a4df523b3ef8988518a8152a361142d565b7f0f6798a560793a54c3bcfe86a93cde1e73087d944c0ea20544137d4121396885848351858152a251908152f35b90601d6064928b8a519362461bcd60e51b85528401528201527f496e73756666696369656e74206c6971756964697479206d696e7465640000006044820152fd5b838a601187634e487b7160e01b835252fd5b8289601186634e487b7160e01b835252fd5b5086601183634e487b7160e01b835252fd5b909192506110b1836110ac8184611400565b611420565b821c9190610f03565b848b601188634e487b7160e01b835252fd5b9015610f0e57506001610f0e565b9b6110f26110f894959d6106f7836106f795966113ed565b946113ed565b8082101561110857505b97610f90565b9050611102565b9094508881813d8311611137575b61112781836112ca565b8101031261017557519338610ead565b503d61111d565b87513d88823e3d90fd5b8380fd5b5050346101155781600319360112610115576020906008549051908152f35b5050346101155781600319360112610115576020906007549051908152f35b5050346101155781600319360112610115576020905160128152f35b5050346101155781600319360112610115576020906002549051908152f35b82843461088a578060031936011261088a575060075460085482519182526020820152f35b8490843461017957826003193601126101795782805461120981611290565b8085529160019180831690811561028657506001146112345750505061021c826102269403836112ca565b80809650527f290decd9548b62a8d60345a988386fc84ba6bc95484008f6362f93160ef3e5635b8286106112785750505061021c826020610226958201019461020a565b8054602087870181019190915290950194810161125b565b90600182811c921680156112c0575b60208310146112aa57565b634e487b7160e01b600052602260045260246000fd5b91607f169161129f565b90601f601f19910116810190811067ffffffffffffffff8211176112ed57604052565b634e487b7160e01b600052604160045260246000fd5b60208082528251818301819052939260005b85811061133757505050601f19601f8460006040809697860101520116010190565b818101830151848201604001528201611315565b6004359073ffffffffffffffffffffffffffffffffffffffff8216820361136e57565b600080fd5b81601f8201121561136e5780359067ffffffffffffffff82116112ed57604051926113a86020601f19601f86011601856112ca565b8284526020838301011161136e57816000926020809301838601378301015290565b919082039182116113d757565b634e487b7160e01b600052601160045260246000fd5b818102929181159184041417156113d757565b811561140a570490565b634e487b7160e01b600052601260045260246000fd5b919082018092116113d757565b6040907fcf2aa50876cdfbb541206f89af0ee78d44a2abf8d328e37fa4917f982149848a92816007558060085582519182526020820152a1565b9081602091031261136e5751801515810361136e579056fea164736f6c6343000814000a",
  "linkReferences": {},
  "deployedLinkReferences": {}
}